{
  "_format": "hh-sol-artifact-1",
  "contractName": "USDCFundraiser",
  "sourceName": "contracts/USDCFundraiser.sol",
  "abi": [
    {
      "inputs": [
        {
          "internalType": "address",
          "name": "_usdcAddress",
          "type": "address"
        },
        {
          "internalType": "address",
          "name": "_beneficiaryWallet",
          "type": "address"
        },
        {
          "internalType": "address",
          "name": "_feeWallet",
          "type": "address"
        },
        {
          "internalType": "uint256",
          "name": "_fundingType",
          "type": "uint256"
        },
        {
          "internalType": "uint256",
          "name": "_minimumTarget",
          "type": "uint256"
        },
        {
          "internalType": "uint256",
          "name": "_deadline",
          "type": "uint256"
        },
        {
          "internalType": "address",
          "name": "_productTokenAddress",
          "type": "address"
        },
        {
          "components": [
            {
              "internalType": "uint256",
              "name": "productId",
              "type": "uint256"
            },
            {
              "internalType": "uint256",
              "name": "price",
              "type": "uint256"
            },
            {
              "internalType": "uint256",
              "name": "supplyLimit",
              "type": "uint256"
            }
          ],
          "internalType": "struct ProductConfig[]",
          "name": "_products",
          "type": "tuple[]"
        },
        {
          "internalType": "address",
          "name": "_linkToken",
          "type": "address"
        },
        {
          "internalType": "address",
          "name": "_chainlinkRegistrar",
          "type": "address"
        },
        {
          "internalType": "address",
          "name": "_chainlinkRegistry",
          "type": "address"
        },
        {
          "internalType": "bytes4",
          "name": "_chainlinkRegistrarSelector",
          "type": "bytes4"
        },
        {
          "internalType": "address",
          "name": "_campaignAdmin",
          "type": "address"
        }
      ],
      "stateMutability": "nonpayable",
      "type": "constructor"
    },
    {
      "inputs": [],
      "name": "EnforcedPause",
      "type": "error"
    },
    {
      "inputs": [],
      "name": "ExpectedPause",
      "type": "error"
    },
    {
      "inputs": [
        {
          "internalType": "address",
          "name": "owner",
          "type": "address"
        }
      ],
      "name": "OwnableInvalidOwner",
      "type": "error"
    },
    {
      "inputs": [
        {
          "internalType": "address",
          "name": "account",
          "type": "address"
        }
      ],
      "name": "OwnableUnauthorizedAccount",
      "type": "error"
    },
    {
      "inputs": [],
      "name": "ReentrancyGuardReentrantCall",
      "type": "error"
    },
    {
      "anonymous": false,
      "inputs": [
        {
          "indexed": false,
          "internalType": "string",
          "name": "message",
          "type": "string"
        },
        {
          "indexed": false,
          "internalType": "uint256",
          "name": "value",
          "type": "uint256"
        }
      ],
      "name": "Debug",
      "type": "event"
    },
    {
      "anonymous": false,
      "inputs": [
        {
          "indexed": false,
          "internalType": "string",
          "name": "message",
          "type": "string"
        },
        {
          "indexed": false,
          "internalType": "bytes",
          "name": "value",
          "type": "bytes"
        }
      ],
      "name": "DebugBytes",
      "type": "event"
    },
    {
      "anonymous": false,
      "inputs": [
        {
          "indexed": true,
          "internalType": "address",
          "name": "depositor",
          "type": "address"
        },
        {
          "indexed": false,
          "internalType": "uint256",
          "name": "amount",
          "type": "uint256"
        },
        {
          "indexed": false,
          "internalType": "uint256",
          "name": "fee",
          "type": "uint256"
        }
      ],
      "name": "Deposit",
      "type": "event"
    },
    {
      "anonymous": false,
      "inputs": [
        {
          "indexed": true,
          "internalType": "address",
          "name": "to",
          "type": "address"
        },
        {
          "indexed": false,
          "internalType": "uint256",
          "name": "amount",
          "type": "uint256"
        }
      ],
      "name": "EmergencyWithdraw",
      "type": "event"
    },
    {
      "anonymous": false,
      "inputs": [
        {
          "indexed": false,
          "internalType": "uint256",
          "name": "newFeePercentage",
          "type": "uint256"
        }
      ],
      "name": "FeeUpdated",
      "type": "event"
    },
    {
      "anonymous": false,
      "inputs": [],
      "name": "Finalized",
      "type": "event"
    },
    {
      "anonymous": false,
      "inputs": [
        {
          "indexed": true,
          "internalType": "address",
          "name": "forwarder",
          "type": "address"
        }
      ],
      "name": "ForwarderChanged",
      "type": "event"
    },
    {
      "anonymous": false,
      "inputs": [
        {
          "indexed": true,
          "internalType": "address",
          "name": "beneficiary",
          "type": "address"
        },
        {
          "indexed": false,
          "internalType": "uint256",
          "name": "amount",
          "type": "uint256"
        }
      ],
      "name": "FundsReleased",
      "type": "event"
    },
    {
      "anonymous": false,
      "inputs": [
        {
          "indexed": true,
          "internalType": "address",
          "name": "previousOwner",
          "type": "address"
        },
        {
          "indexed": true,
          "internalType": "address",
          "name": "newOwner",
          "type": "address"
        }
      ],
      "name": "OwnershipTransferred",
      "type": "event"
    },
    {
      "anonymous": false,
      "inputs": [
        {
          "indexed": false,
          "internalType": "address",
          "name": "account",
          "type": "address"
        }
      ],
      "name": "Paused",
      "type": "event"
    },
    {
      "anonymous": false,
      "inputs": [
        {
          "indexed": false,
          "internalType": "uint256",
          "name": "productId",
          "type": "uint256"
        },
        {
          "indexed": false,
          "internalType": "uint256",
          "name": "price",
          "type": "uint256"
        },
        {
          "indexed": false,
          "internalType": "uint256",
          "name": "supplyLimit",
          "type": "uint256"
        }
      ],
      "name": "ProductAdded",
      "type": "event"
    },
    {
      "anonymous": false,
      "inputs": [
        {
          "indexed": false,
          "internalType": "uint256",
          "name": "productId",
          "type": "uint256"
        },
        {
          "indexed": false,
          "internalType": "uint256",
          "name": "price",
          "type": "uint256"
        }
      ],
      "name": "ProductPriceSet",
      "type": "event"
    },
    {
      "anonymous": false,
      "inputs": [
        {
          "indexed": false,
          "internalType": "uint256",
          "name": "productId",
          "type": "uint256"
        }
      ],
      "name": "ProductRemoved",
      "type": "event"
    },
    {
      "anonymous": false,
      "inputs": [
        {
          "indexed": false,
          "internalType": "uint256",
          "name": "productId",
          "type": "uint256"
        },
        {
          "indexed": false,
          "internalType": "uint256",
          "name": "price",
          "type": "uint256"
        },
        {
          "indexed": false,
          "internalType": "uint256",
          "name": "supplyLimit",
          "type": "uint256"
        }
      ],
      "name": "ProductUpdated",
      "type": "event"
    },
    {
      "anonymous": false,
      "inputs": [
        {
          "indexed": true,
          "internalType": "address",
          "name": "depositor",
          "type": "address"
        },
        {
          "indexed": false,
          "internalType": "uint256",
          "name": "amount",
          "type": "uint256"
        },
        {
          "indexed": false,
          "internalType": "uint256",
          "name": "productId",
          "type": "uint256"
        },
        {
          "indexed": false,
          "internalType": "uint256",
          "name": "quantity",
          "type": "uint256"
        }
      ],
      "name": "Refund",
      "type": "event"
    },
    {
      "anonymous": false,
      "inputs": [
        {
          "indexed": false,
          "internalType": "address",
          "name": "account",
          "type": "address"
        }
      ],
      "name": "Unpaused",
      "type": "event"
    },
    {
      "anonymous": false,
      "inputs": [],
      "name": "UpkeepPerformed",
      "type": "event"
    },
    {
      "anonymous": false,
      "inputs": [
        {
          "indexed": false,
          "internalType": "uint256",
          "name": "upkeepID",
          "type": "uint256"
        }
      ],
      "name": "UpkeepRegistered",
      "type": "event"
    },
    {
      "inputs": [
        {
          "components": [
            {
              "internalType": "uint256",
              "name": "productId",
              "type": "uint256"
            },
            {
              "internalType": "uint256",
              "name": "price",
              "type": "uint256"
            },
            {
              "internalType": "uint256",
              "name": "supplyLimit",
              "type": "uint256"
            }
          ],
          "internalType": "struct ProductConfig",
          "name": "product",
          "type": "tuple"
        }
      ],
      "name": "addProduct",
      "outputs": [],
      "stateMutability": "nonpayable",
      "type": "function"
    },
    {
      "inputs": [],
      "name": "beneficiaryWallet",
      "outputs": [
        {
          "internalType": "address",
          "name": "",
          "type": "address"
        }
      ],
      "stateMutability": "view",
      "type": "function"
    },
    {
      "inputs": [],
      "name": "campaignAdmin",
      "outputs": [
        {
          "internalType": "address",
          "name": "",
          "type": "address"
        }
      ],
      "stateMutability": "view",
      "type": "function"
    },
    {
      "inputs": [
        {
          "internalType": "bytes",
          "name": "",
          "type": "bytes"
        }
      ],
      "name": "checkUpkeep",
      "outputs": [
        {
          "internalType": "bool",
          "name": "upkeepNeeded",
          "type": "bool"
        },
        {
          "internalType": "bytes",
          "name": "",
          "type": "bytes"
        }
      ],
      "stateMutability": "view",
      "type": "function"
    },
    {
      "inputs": [
        {
          "internalType": "uint256",
          "name": "productId",
          "type": "uint256"
        },
        {
          "internalType": "uint256",
          "name": "quantity",
          "type": "uint256"
        }
      ],
      "name": "claimRefund",
      "outputs": [],
      "stateMutability": "nonpayable",
      "type": "function"
    },
    {
      "inputs": [],
      "name": "deadline",
      "outputs": [
        {
          "internalType": "uint256",
          "name": "",
          "type": "uint256"
        }
      ],
      "stateMutability": "view",
      "type": "function"
    },
    {
      "inputs": [
        {
          "internalType": "uint256",
          "name": "productId",
          "type": "uint256"
        },
        {
          "internalType": "uint256",
          "name": "quantity",
          "type": "uint256"
        }
      ],
      "name": "deposit",
      "outputs": [],
      "stateMutability": "nonpayable",
      "type": "function"
    },
    {
      "inputs": [
        {
          "internalType": "address",
          "name": "",
          "type": "address"
        }
      ],
      "name": "deposits",
      "outputs": [
        {
          "internalType": "uint256",
          "name": "",
          "type": "uint256"
        }
      ],
      "stateMutability": "view",
      "type": "function"
    },
    {
      "inputs": [
        {
          "internalType": "address",
          "name": "to",
          "type": "address"
        },
        {
          "internalType": "uint256",
          "name": "amount",
          "type": "uint256"
        }
      ],
      "name": "emergencyWithdraw",
      "outputs": [],
      "stateMutability": "nonpayable",
      "type": "function"
    },
    {
      "inputs": [],
      "name": "feePercentage",
      "outputs": [
        {
          "internalType": "uint256",
          "name": "",
          "type": "uint256"
        }
      ],
      "stateMutability": "view",
      "type": "function"
    },
    {
      "inputs": [],
      "name": "feeWallet",
      "outputs": [
        {
          "internalType": "address",
          "name": "",
          "type": "address"
        }
      ],
      "stateMutability": "view",
      "type": "function"
    },
    {
      "inputs": [],
      "name": "finalize",
      "outputs": [],
      "stateMutability": "nonpayable",
      "type": "function"
    },
    {
      "inputs": [],
      "name": "finalized",
      "outputs": [
        {
          "internalType": "bool",
          "name": "",
          "type": "bool"
        }
      ],
      "stateMutability": "view",
      "type": "function"
    },
    {
      "inputs": [],
      "name": "fundingType",
      "outputs": [
        {
          "internalType": "uint256",
          "name": "",
          "type": "uint256"
        }
      ],
      "stateMutability": "view",
      "type": "function"
    },
    {
      "inputs": [],
      "name": "getProductIds",
      "outputs": [
        {
          "internalType": "uint256[]",
          "name": "",
          "type": "uint256[]"
        }
      ],
      "stateMutability": "view",
      "type": "function"
    },
    {
      "inputs": [],
      "name": "getStationUpkeepID",
      "outputs": [
        {
          "internalType": "uint256",
          "name": "",
          "type": "uint256"
        }
      ],
      "stateMutability": "view",
      "type": "function"
    },
    {
      "inputs": [
        {
          "internalType": "bytes",
          "name": "registrationParams",
          "type": "bytes"
        }
      ],
      "name": "initializeChainlink",
      "outputs": [
        {
          "internalType": "uint256",
          "name": "stationUpkeepID",
          "type": "uint256"
        }
      ],
      "stateMutability": "nonpayable",
      "type": "function"
    },
    {
      "inputs": [],
      "name": "minimumTarget",
      "outputs": [
        {
          "internalType": "uint256",
          "name": "",
          "type": "uint256"
        }
      ],
      "stateMutability": "view",
      "type": "function"
    },
    {
      "inputs": [],
      "name": "owner",
      "outputs": [
        {
          "internalType": "address",
          "name": "",
          "type": "address"
        }
      ],
      "stateMutability": "view",
      "type": "function"
    },
    {
      "inputs": [],
      "name": "pause",
      "outputs": [],
      "stateMutability": "nonpayable",
      "type": "function"
    },
    {
      "inputs": [],
      "name": "paused",
      "outputs": [
        {
          "internalType": "bool",
          "name": "",
          "type": "bool"
        }
      ],
      "stateMutability": "view",
      "type": "function"
    },
    {
      "inputs": [
        {
          "internalType": "bytes",
          "name": "",
          "type": "bytes"
        }
      ],
      "name": "performUpkeep",
      "outputs": [],
      "stateMutability": "nonpayable",
      "type": "function"
    },
    {
      "inputs": [
        {
          "internalType": "uint256",
          "name": "",
          "type": "uint256"
        }
      ],
      "name": "productIds",
      "outputs": [
        {
          "internalType": "uint256",
          "name": "",
          "type": "uint256"
        }
      ],
      "stateMutability": "view",
      "type": "function"
    },
    {
      "inputs": [
        {
          "internalType": "uint256",
          "name": "",
          "type": "uint256"
        }
      ],
      "name": "productSoldCount",
      "outputs": [
        {
          "internalType": "uint256",
          "name": "",
          "type": "uint256"
        }
      ],
      "stateMutability": "view",
      "type": "function"
    },
    {
      "inputs": [],
      "name": "productToken",
      "outputs": [
        {
          "internalType": "contract ProductToken",
          "name": "",
          "type": "address"
        }
      ],
      "stateMutability": "view",
      "type": "function"
    },
    {
      "inputs": [
        {
          "internalType": "uint256",
          "name": "",
          "type": "uint256"
        }
      ],
      "name": "products",
      "outputs": [
        {
          "internalType": "uint256",
          "name": "productId",
          "type": "uint256"
        },
        {
          "internalType": "uint256",
          "name": "price",
          "type": "uint256"
        },
        {
          "internalType": "uint256",
          "name": "supplyLimit",
          "type": "uint256"
        }
      ],
      "stateMutability": "view",
      "type": "function"
    },
    {
      "inputs": [
        {
          "internalType": "uint256",
          "name": "productId",
          "type": "uint256"
        }
      ],
      "name": "removeProduct",
      "outputs": [],
      "stateMutability": "nonpayable",
      "type": "function"
    },
    {
      "inputs": [],
      "name": "renounceOwnership",
      "outputs": [],
      "stateMutability": "nonpayable",
      "type": "function"
    },
    {
      "inputs": [
        {
          "internalType": "uint256",
          "name": "productId",
          "type": "uint256"
        },
        {
          "internalType": "uint256",
          "name": "price",
          "type": "uint256"
        }
      ],
      "name": "setProductPrice",
      "outputs": [],
      "stateMutability": "nonpayable",
      "type": "function"
    },
    {
      "inputs": [
        {
          "internalType": "uint256",
          "name": "",
          "type": "uint256"
        }
      ],
      "name": "tokenDeposits",
      "outputs": [
        {
          "internalType": "uint256",
          "name": "",
          "type": "uint256"
        }
      ],
      "stateMutability": "view",
      "type": "function"
    },
    {
      "inputs": [],
      "name": "totalRaised",
      "outputs": [
        {
          "internalType": "uint256",
          "name": "",
          "type": "uint256"
        }
      ],
      "stateMutability": "view",
      "type": "function"
    },
    {
      "inputs": [
        {
          "internalType": "address",
          "name": "newOwner",
          "type": "address"
        }
      ],
      "name": "transferOwnership",
      "outputs": [],
      "stateMutability": "nonpayable",
      "type": "function"
    },
    {
      "inputs": [],
      "name": "unpause",
      "outputs": [],
      "stateMutability": "nonpayable",
      "type": "function"
    },
    {
      "inputs": [
        {
          "internalType": "address",
          "name": "newAdmin",
          "type": "address"
        }
      ],
      "name": "updateCampaignAdmin",
      "outputs": [],
      "stateMutability": "nonpayable",
      "type": "function"
    },
    {
      "inputs": [
        {
          "internalType": "uint256",
          "name": "newDeadline",
          "type": "uint256"
        }
      ],
      "name": "updateDeadline",
      "outputs": [],
      "stateMutability": "nonpayable",
      "type": "function"
    },
    {
      "inputs": [
        {
          "internalType": "uint256",
          "name": "newFeePercentage",
          "type": "uint256"
        }
      ],
      "name": "updateFeePercentage",
      "outputs": [],
      "stateMutability": "nonpayable",
      "type": "function"
    },
    {
      "inputs": [
        {
          "internalType": "uint256",
          "name": "productId",
          "type": "uint256"
        },
        {
          "internalType": "uint256",
          "name": "price",
          "type": "uint256"
        }
      ],
      "name": "updateProductPrice",
      "outputs": [],
      "stateMutability": "nonpayable",
      "type": "function"
    },
    {
      "inputs": [
        {
          "internalType": "uint256",
          "name": "productId",
          "type": "uint256"
        },
        {
          "internalType": "uint256",
          "name": "supplyLimit",
          "type": "uint256"
        }
      ],
      "name": "updateProductSupply",
      "outputs": [],
      "stateMutability": "nonpayable",
      "type": "function"
    },
    {
      "inputs": [],
      "name": "usdc",
      "outputs": [
        {
          "internalType": "contract IERC20",
          "name": "",
          "type": "address"
        }
      ],
      "stateMutability": "view",
      "type": "function"
    }
  ],
  "bytecode": "0x6080604052346105ea57612c84803803806100198161063e565b9283398101906101a0818303126105ea5761003381610663565b61003f60208301610663565b61004b60408401610663565b9260608101519160808201519160a081015161006960c08301610663565b60e08301519091906001600160401b0381116105ea57830189601f820112156105ea578051906001600160401b0382116103295760209a8b60606100b1828660051b0161063e565b9d8e868152019402830101918183116105ea57602001925b8284106105ef57505050506100e16101008401610663565b946100ef6101208501610663565b946100fd6101408601610663565b996101608601519563ffffffff60e01b871687036105ea576101806101229101610663565b9133156105d457600080546040519c9133906001600160a01b038316907f8be0079c531659141344cd1fd0a4f28419497f9722a3daafe3b4186f6b6457e09080a36001600160a81b0319163360ff60a01b191617600055600180556001600160a01b03169a8b1561059257506001600160a01b031690811561054d576001600160a01b0316918215610513578c51156104ce576001600160a01b0316998a156104895760018060a01b0319600254161760025560018060a01b0319600454161760045560018060a01b0319600554161760055560065560075560fa60085560018060a01b031660018060a01b0319600354161760035560005b87518110156103be576020610230828a610677565b51015115610379576102428189610677565b51511561033f576102538189610677565b515190600e549168010000000000000000831015610329576001830180600e5583101561031357600192600e60005260206000200155610293818a610677565b5161029e828b610677565b515160005260166020526002604080600020928051845560208101518685015501519101557fb751835a12376750bd69b4b4c0c1d306480284514d2fa88f72edf3eeea8515f660408a60206102ff856102f78185610677565b515193610677565b51015182519182526020820152a10161021b565b634e487b7160e01b600052603260045260246000fd5b634e487b7160e01b600052604160045260246000fd5b60405162461bcd60e51b8152602060048201526012602482015271125b9d985b1a59081c1c9bd91d58dd08125160721b6044820152606490fd5b60405162461bcd60e51b815260206004820152601560248201527f496e76616c69642070726f6475637420707269636500000000000000000000006044820152606490fd5b5060128054601080546001600160a01b03199081166001600160a01b039687161790915560118054909116858a161790556001600160c01b031916939092169290921760409290921c63ffffffff60a01b169190911790556002811161044457601555601780546001600160a01b0319169190911790556040516125f8908161068c8239f35b60405162461bcd60e51b815260206004820152601460248201527f496e76616c69642066756e64696e6720747970650000000000000000000000006044820152606490fd5b60405162461bcd60e51b815260206004820152601660248201527f496e76616c69642063616d706169676e2061646d696e000000000000000000006044820152606490fd5b60405162461bcd60e51b815260206004820152601460248201527f4e6f2070726f64756374732070726f76696465640000000000000000000000006044820152606490fd5b60405162461bcd60e51b8152602060048201526012602482015271125b9d985b1a5908199959481dd85b1b195d60721b6044820152606490fd5b60405162461bcd60e51b815260206004820152601a60248201527f496e76616c69642062656e65666963696172792077616c6c65740000000000006044820152606490fd5b62461bcd60e51b815260206004820152601460248201527f496e76616c6964205553444320616464726573730000000000000000000000006044820152606490fd5b631e4fbdf760e01b600052600060045260246000fd5b600080fd5b6060848303126105ea576040519060608201906001600160401b0382118383101761032957606092602092604052865181528287015183820152604087015160408201528152019301926100c9565b6040519190601f01601f191682016001600160401b0381118382101761032957604052565b51906001600160a01b03821682036105ea57565b80518210156103135760209160051b01019056fe608080604052600436101561001357600080fd5b600090813560e01c90816302f8baa114611fc15750806325b4f65f14611f9857806329dcb0cf14611f7a5780633e413bee14611f515780633f4ba83a14611ee357806342235da614611ec55780634232d7f814611bb757806342af188414611a9257806344d3498a14611a255780634585e33b1461191957806347428e7b146118635780634bb278f31461170a5780635c975abb146116e55780635ee95cae1461155757806366bff1db1461152d5780636cad3fb0146114985780636e04ff0d14611440578063715018a6146113e657806372afddf0146113bd5780637acc0b201461136d5780638456cb591461130c5780638527d58f14610f1a5780638da5cb5b14610ef357806395ccea6714610d2d5780639c3bddb214610c66578063a001ecdd14610c48578063b3f05b9714610c25578063bc072c2c14610b08578063c5c4744c14610aea578063c978863114610ac1578063cb51bba914610a87578063dd5934b3146108bc578063e2bbb15814610389578063ebd692ea1461035f578063ec823971146102d6578063f25f4b56146102ad578063f2fde38b14610227578063fa8ab0ee146102095763fc7e286d146101ce57600080fd5b34610206576020366003190112610206576020906040906001600160a01b036101f561208c565b168152600983522054604051908152f35b80fd5b50346102065780600319360112610206576020601554604051908152f35b50346102065760203660031901126102065761024161208c565b610249612411565b6001600160a01b031680156102995781546001600160a01b03198116821783556001600160a01b03167f8be0079c531659141344cd1fd0a4f28419497f9722a3daafe3b4186f6b6457e08380a380f35b631e4fbdf760e01b82526004829052602482fd5b50346102065780600319360112610206576005546040516001600160a01b039091168152602090f35b5034610206576020366003190112610206576102f061208c565b6102f8612411565b6001600160a01b03168015610322576bffffffffffffffffffffffff60a01b601754161760175580f35b60405162461bcd60e51b8152602060048201526015602482015274496e76616c69642061646d696e206164647265737360581b6044820152606490fd5b50346102065760203660031901126102065760406020916004358152600f83522054604051908152f35b5034610206576103983661202e565b6103a061243a565b6103a861245c565b81835260166020526040832091604051926103c2846120d3565b805484526001810154604060026020870193838552015495019485521561087f578385945161081c575b50826103f891516122b3565b91612710610408600854856122b3565b04916104148385612290565b6002546040516323b872dd60e01b81523360048201523060248201526044810187905290602090829060649082908b906001600160a01b03165af180156107f2576104669188916107fd575b506122c6565b83610741575b6003546001600160a01b0316803b1561073d57604051630ab714fb60e11b8152336004820152602481018490526044810185905290879081908390606490829084905af19182610728575b50506106b057505050508160033d116106a0575b6308c379a0146105c5575b61051f6020916104e461213f565b5060025460405163a9059cbb60e01b81523360048201526024810192909252909384926001600160a01b039092169183919082906044820190565b03925af19081156105ba5761053a929161058b575b506123c5565b60405162461bcd60e51b8152602060048201526024808201527f4e4654206d696e74206661696c65642077697468206c6f772d6c6576656c2065604482015263393937b960e11b6064820152608490fd5b6105ad915060203d6020116105b3575b6105a58183612105565b810190612127565b38610534565b503d61059b565b6040513d84823e3d90fd5b6105cd61234d565b806105d857506104d6565b60025460405163a9059cbb60e01b81523360048201526024810193909352909260209183916044918391906001600160a01b03165af1908115610695579061062991610691949161058b57506123c5565b6106716031604051809370027232a1036b4b73a103330b4b632b21d1607d1b60208301526106608151809260208686019101612044565b81010301601f198101835282612105565b60405162461bcd60e51b8152602060048201529182916024830190612067565b0390fd5b6040513d85823e3d90fd5b50600482803e815160e01c6104cb565b6106bc81600a54612340565b600a55818652600d6020526106d660408720918254612340565b90558452600f6020526106ee60408520918254612340565b905560405191825260208201527f90890809c654f11d6e72a28fa60149770a0d11ec6c92319d6ceb2bb0a4ea1a1560403392a26001805580f35b8161073291612105565b61073d5786386104b7565b8680fd5b60025460055460405163a9059cbb60e01b81526001600160a01b03918216600482015260248101879052929750602091839160449183918c91165af19081156107f25787916107d3575b501561079857859461046c565b60405162461bcd60e51b8152602060048201526013602482015272119959481d1c985b9cd9995c8819985a5b1959606a1b6044820152606490fd5b6107ec915060203d6020116105b3576105a58183612105565b3861078b565b6040513d89823e3d90fd5b610816915060203d6020116105b3576105a58183612105565b38610460565b9093829052600f602052610834836040872054612340565b905110610843578392386103ec565b60405162461bcd60e51b8152602060048201526014602482015273115e18d959591cc81cdd5c1c1b1e481b1a5b5a5d60621b6044820152606490fd5b60405162461bcd60e51b815260206004820152601560248201527450726f64756374206e6f7420617661696c61626c6560581b6044820152606490fd5b503461020657606036600319011261020657604051906108db826120d3565b60043582526020820160243581526040830190604435825260018060a01b0383541633148015610a73575b61090f9061220e565b61091b81511515612304565b835115610a395783518352601660205260016040842001546109fb57835183526016602052604083208451908181558251600182015560028451910155600e54680100000000000000008110156109e757946109bf6109e1926109a68860017f0bb34bc6bcdd4ba28b7de4669c2e7d94d1b828b2a6a14b82991e087b20d73549999a01600e556120a2565b90919082549060031b91821b91600019901b1916179055565b5191519251604051938493846040919493926060820195825260208201520152565b0390a180f35b634e487b7160e01b85526041600452602485fd5b60405162461bcd60e51b815260206004820152601660248201527550726f6475637420616c72656164792065786973747360501b6044820152606490fd5b60405162461bcd60e51b8152602060048201526012602482015271125b9d985b1a59081c1c9bd91d58dd08125160721b6044820152606490fd5b506017546001600160a01b03163314610906565b50346102065760203660031901126102065760043590600e54821015610206576020610ab2836120a2565b90549060031b1c604051908152f35b50346102065780600319360112610206576004546040516001600160a01b039091168152602090f35b50346102065780600319360112610206576020600a54604051908152f35b503461020657610b173661202e565b82546001600160a01b031633148015610c11575b610b349061220e565b8183526016602052610b4e6001604085200154151561224b565b80610bae575b818352601660208181526040808620600201849055848652918152818520600101548251948552908401528201527fc598db734b93c7fd9412e07c1e464ebb4d3dcf9b02c03af26710b307f8b773db9080606081016109e1565b818352600f6020526040832054811015610b545760405162461bcd60e51b815260206004820152602160248201527f4e657720737570706c79206c696d69742062656c6f7720736f6c6420636f756e6044820152601d60fa1b6064820152608490fd5b506017546001600160a01b03163314610b2b565b5034610206578060031936011261020657602060ff600b54166040519015158152f35b50346102065780600319360112610206576020600854604051908152f35b5034610206577fc598db734b93c7fd9412e07c1e464ebb4d3dcf9b02c03af26710b307f8b773db610c963661202e565b9060018060a01b0384541633148015610d19575b610cb39061220e565b610cbe821515612304565b8084526016602052610cd86001604086200154151561224b565b808452601660205281600160408620015580845260166020526109e16002604086200154604051938493846040919493926060820195825260208201520152565b506017546001600160a01b03163314610caa565b503461020657604036600319011261020657610d4761208c565b60243590610d53612411565b6001600160a01b038116918215610ebc576002546040516370a0823160e01b81523060048201526001600160a01b0390911690602081602481855afa908115610eb1578691610e7a575b508211610e3e5760405163a9059cbb60e01b81526001600160a01b03939093166004840152602483018290526020908390604490829088905af1908115610e3357610e126020927f5fafa99d0643513820be26656b45130b01e1c03062e1266bf36f88cbd3bd9695948791610e1c57506122c6565b604051908152a280f35b6108169150843d86116105b3576105a58183612105565b6040513d86823e3d90fd5b60405162461bcd60e51b8152602060048201526014602482015273496e73756666696369656e742062616c616e636560601b6044820152606490fd5b90506020813d602011610ea9575b81610e9560209383612105565b81010312610ea4575138610d9d565b600080fd5b3d9150610e88565b6040513d88823e3d90fd5b60405162461bcd60e51b815260206004820152600f60248201526e496e76616c6964206164647265737360881b6044820152606490fd5b5034610206578060031936011261020657546040516001600160a01b039091168152602090f35b503461020657610f293661202e565b9080835260166020526040832091604051610f43816120d3565b835481526001840154906040600260208301968488520154910152156112d55760155461126f5760ff600b541680611261575b61120d575b600354604051627eeac760e11b8152336004820152602481018490526001600160a01b039091169390602081604481885afa908115610eb15786916111d7575b50801561119c5782116111575781610fe982612710610fe1610fee9551600854906122b3565b049051612290565b6122b3565b92803b1561115357604051637a94c56560e11b815233600482015260248101849052604481018390529085908290606490829084905af180156111345761113f575b50818452600f60205260408420611048828254612290565b905561105683600a54612290565b600a5560025460405163a9059cbb60e01b815233600482015260248101859052906020908290604490829089906001600160a01b03165af1908115611134578591611115575b50156110e0576040805193845260208401929092529082015233907fb7048c2ad36aadee977bb16b4543a18866044d27a2ca753e1c7dbcfa7d7a696290606090a280f35b60405162461bcd60e51b815260206004820152600d60248201526c1499599d5b990819985a5b1959609a1b6044820152606490fd5b61112e915060203d6020116105b3576105a58183612105565b3861109c565b6040513d87823e3d90fd5b8461114c91959295612105565b9238611030565b8480fd5b60405162461bcd60e51b815260206004820152601d60248201527f496e73756666696369656e7420746f6b656e7320746f20726566756e640000006044820152606490fd5b60405162461bcd60e51b8152602060048201526013602482015272139bc81d1bdad95b9cc81d1bc81c99599d5b99606a1b6044820152606490fd5b90506020813d602011611205575b816111f260209383612105565b81010312611201575138610fbb565b8580fd5b3d91506111e5565b60405162461bcd60e51b815260206004820152602660248201527f54617267657420776173206d65742c20726566756e6473206e6f7420617661696044820152653630b136329760d11b6064820152608490fd5b50600a546006541115610f76565b60ff600b541615610f7b5760405162461bcd60e51b815260206004820152602d60248201527f43616d706169676e2069732066696e616c697a65642c20726566756e6473206e60448201526c37ba1030bb30b4b630b136329760991b6064820152608490fd5b60405162461bcd60e51b815260206004820152600f60248201526e125b9d985b1a59081c1c9bd91d58dd608a1b6044820152606490fd5b5034610206578060031936011261020657611325612411565b61132d61245c565b805460ff60a01b1916600160a01b1781556040513381527f62e78cea01bee320cd4e420270b5ea74000d11b0c9f74754ebdbfc544b05a25890602090a180f35b503461020657602036600319011261020657604090600435815260166020522080546113b960026001840154930154604051938493846040919493926060820195825260208201520152565b0390f35b50346102065780600319360112610206576017546040516001600160a01b039091168152602090f35b50346102065780600319360112610206576113ff612411565b80546001600160a01b03198116825581906001600160a01b03167f8be0079c531659141344cd1fd0a4f28419497f9722a3daafe3b4186f6b6457e08280a380f35b50346102065761144f36611fdd565b505060ff600b5416158061148d575b6040519161146d602084612105565b82526113b960405192839215158352604060208401526040830190612067565b50600754421161145e565b5034610206576020366003190112610206576004356114b5612411565b6103e881116114f0576020817f8c4d35e54a3f2ef1134138fd8ea3daee6a3c89e10d2665996babdf70261e2c7692600855604051908152a180f35b60405162461bcd60e51b81526020600482015260156024820152744665652063616e6e6f74206578636565642031302560581b6044820152606490fd5b50346102065760203660031901126102065760406020916004358152600d83522054604051908152f35b50346102065760203660031901126102065760043560018060a01b03825416331480156116d1575b6115889061220e565b80825260166020526115a26001604084200154151561224b565b808252600f6020526115b860408320541561217f565b815b600e54808210156116a657826115cf836120a2565b90549060031b1c146115e457506001016115ba565b600019810190811161169257906109a661160061160d936120a2565b90549060031b1c916120a2565b600e54801561167e577f07015631cff457b5b13492c2045e70c6305a0a4aa773e432e79abbe2cf52c1eb9160209160001901611648816120a2565b8154906000199060031b1b19169055600e555b80845260168252836002604082208281558260018201550155604051908152a180f35b634e487b7160e01b83526031600452602483fd5b634e487b7160e01b84526011600452602484fd5b505060207f07015631cff457b5b13492c2045e70c6305a0a4aa773e432e79abbe2cf52c1eb9161165b565b506017546001600160a01b0316331461157f565b503461020657806003193601126102065760ff6020915460a01c166040519015158152f35b503461020657806003193601126102065761172361243a565b61172b61245c565b60ff600b541661182a576015548061179d575061174b60075442116121cb565b600a546006541115611790575b600160ff19600b541617600b557f6823b073d48d6e3a7d385eeb601452d680e74bb46afe3255a7d778f3a9b176818180a16001805580f35b61179861247c565b611758565b60018103611816575080546001600160a01b031633036117bf5761179861247c565b60405162461bcd60e51b815260206004820152602960248201527f4f6e6c79206f776e65722063616e2066696e616c697a65206c696d69746c6573604482015268732066756e64696e6760b81b6064820152608490fd5b6002036117585761179060075442116121cb565b60405162461bcd60e51b8152602060048201526011602482015270105b1c9958591e48199a5b985b1a5e9959607a1b6044820152606490fd5b5034610206578060031936011261020657604051806020600e5491828152018091600e85527fbb7b4a454dc3493923482f07822329ed19e8244eff582cc204f8554c3620c3fd90855b81811061190357505050826118c2910383612105565b604051928392602084019060208552518091526040840192915b8181106118ea575050500390f35b82518452859450602093840193909201916001016118dc565b82548452602090930192600192830192016118ac565b50346102065761192836611fdd565b505060ff600b54161580611a1a575b61193e5780f35b61194661243a565b61194e61245c565b60ff600b541661182a57601554806119e4575061196e60075442116121cb565b600a5460065411156119d7575b600160ff19600b541617600b557f6823b073d48d6e3a7d385eeb601452d680e74bb46afe3255a7d778f3a9b176818180a1600180557f966a2cf4da2fe388fb461e726e2765451662471d3e61fb50c4191dd71434cb588180a180f35b6119df61247c565b61197b565b60018103611a06575080546001600160a01b031633036117bf576119df61247c565b60020361197b576119d760075442116121cb565b506007544211611937565b5034610206577fb751835a12376750bd69b4b4c0c1d306480284514d2fa88f72edf3eeea8515f66040611a573661202e565b611a5f612411565b818552600f602052611a74838620541561217f565b8185526016602052806001848720015582519182526020820152a180f35b503461020657602036600319011261020657600435611aaf612411565b60ff600b5416611b7257600160155414611b165742811115611ad15760075580f35b60405162461bcd60e51b815260206004820152601e60248201527f446561646c696e65206d75737420626520696e207468652066757475726500006044820152606490fd5b60405162461bcd60e51b815260206004820152602e60248201527f4c696d69746c6573732066756e64696e6720646f65736e277420737570706f7260448201526d3a103334b730b634bd30ba34b7b760911b6064820152608490fd5b60405162461bcd60e51b815260206004820152601760248201527f46756e647261697365722069732066696e616c697a65640000000000000000006044820152606490fd5b503461020657611bc636611fdd565b90611bcf612411565b60125460105460405163095ea7b360e01b81526001600160a01b039182166004820152670de0b6b3a7640000602482015291602091839160449183918991165af1908115610e33578491611ea6575b5015611e6a57829182918260018060a01b036010541692611c72602463ffffffff60e01b60125460401b1694836040519485926020840198895284840137810185838201520301601f198101835282612105565b51925af1611c7e61213f565b9015611da7575b60208151918180820193849201010312611da3575160138190556012805460ff60c01b1916600160c01b1790556040518181527fdd37d6770a1595ddc0378e5e9e41ef525b6bd7f43b2c0e14582e99ee0373df8b90602090a16011546001600160a01b031680611cfb575b602082604051908152f35b82809160405160208101906379ea994360e01b825285602482015260248152611d25604482612105565b51915afa611d3161213f565b9015611cf057602081805181010312611d9f57602001516001600160a01b03811690819003611d9f577f9ecfd97bf22760e90779a4364f3646d6cbb7e6207b75280c803ca569a34234a0602093826bffffffffffffffffffffffff60a01b601454161760145580a238611cf0565b8280fd5b5080fd5b7f3c5ad147104e56be34a9176a6692f7df8d2f4b29a5af06bc6b98970d329d65776080825160405190604082526013604083015272149959da5cdd1c985d1a5bdb8819985a5b1959606a1b60608301526020820152a1805115611c85577fd54ba61ed4070561dcc6d272cdd44f051344b2c11b31180228f79dcb0003cf83604051604081526011604082015270526567697374726174696f6e206461746160781b60608201526080602082015280611e626080820185612067565b0390a1611c85565b60405162461bcd60e51b815260206004820152601460248201527313125392c8185c1c1c9bdd985b0819985a5b195960621b6044820152606490fd5b611ebf915060203d6020116105b3576105a58183612105565b38611c1e565b50346102065780600319360112610206576020600654604051908152f35b5034610206578060031936011261020657611efc612411565b805460ff8160a01c1615611f425760ff60a01b191681556040513381527f5db9ee0a495bf2e6ff9c91a7834c1ba4fdd244a5e8aa4e537bd38aeae4b073aa90602090a180f35b638dfc202b60e01b8252600482fd5b50346102065780600319360112610206576002546040516001600160a01b039091168152602090f35b50346102065780600319360112610206576020600754604051908152f35b50346102065780600319360112610206576003546040516001600160a01b039091168152602090f35b905034611da35781600319360112611da3576020906013548152f35b906020600319830112610ea45760043567ffffffffffffffff8111610ea45782602382011215610ea45780600401359267ffffffffffffffff8411610ea45760248483010111610ea4576024019190565b6040906003190112610ea4576004359060243590565b60005b8381106120575750506000910152565b8181015183820152602001612047565b9060209161208081518092818552858086019101612044565b601f01601f1916010190565b600435906001600160a01b0382168203610ea457565b600e548110156120bd57600e60005260206000200190600090565b634e487b7160e01b600052603260045260246000fd5b6060810190811067ffffffffffffffff8211176120ef57604052565b634e487b7160e01b600052604160045260246000fd5b90601f8019910116810190811067ffffffffffffffff8211176120ef57604052565b90816020910312610ea457518015158103610ea45790565b3d1561217a573d9067ffffffffffffffff82116120ef576040519161216e601f8201601f191660200184612105565b82523d6000602084013e565b606090565b1561218657565b60405162461bcd60e51b815260206004820152601860248201527f50726f6475637420686173206163746976652073616c657300000000000000006044820152606490fd5b156121d257565b60405162461bcd60e51b8152602060048201526014602482015273111958591b1a5b99481b9bdd081c995858da195960621b6044820152606490fd5b1561221557565b60405162461bcd60e51b815260206004820152600e60248201526d139bdd08185d5d1a1bdc9a5e995960921b6044820152606490fd5b1561225257565b60405162461bcd60e51b8152602060048201526016602482015275141c9bd91d58dd08191bd95cc81b9bdd08195e1a5cdd60521b6044820152606490fd5b9190820391821161229d57565b634e487b7160e01b600052601160045260246000fd5b8181029291811591840414171561229d57565b156122cd57565b60405162461bcd60e51b815260206004820152600f60248201526e151c985b9cd9995c8819985a5b1959608a1b6044820152606490fd5b1561230b57565b60405162461bcd60e51b815260206004820152600d60248201526c496e76616c696420707269636560981b6044820152606490fd5b9190820180921161229d57565b600060443d106123b4576040513d600319016004823e8051913d602484011167ffffffffffffffff8411176123bf578282019283519167ffffffffffffffff83116123b7573d840160031901858401602001116123b757506123b492910160200190612105565b90565b949350505050565b92915050565b156123cc57565b60405162461bcd60e51b815260206004820152601e60248201527f526566756e64206661696c6564206166746572206d696e74206572726f7200006044820152606490fd5b6000546001600160a01b0316330361242557565b63118cdaa760e01b6000523360045260246000fd5b60026001541461244b576002600155565b633ee5aeb560e01b60005260046000fd5b60ff60005460a01c1661246b57565b63d93c066560e01b60005260046000fd5b6002546040516370a0823160e01b8152306004820152906001600160a01b0316602082602481845afa9182156125475760009261258e575b508115612553576004805460405163a9059cbb60e01b81526001600160a01b03909116918101919091526024810183905290602090829060449082906000905af180156125475761250c916000916107fd57506122c6565b6004546040519182526001600160a01b0316907f221c08a06b07a64803b3787861a3f276212fcccb51c2e6234077a9b8cb13047a90602090a2565b6040513d6000823e3d90fd5b60405162461bcd60e51b81526020600482015260136024820152724e6f2066756e647320746f2072656c6561736560681b6044820152606490fd5b90916020823d6020116125ba575b816125a960209383612105565b8101031261020657505190386124b4565b3d915061259c56fea26469706673582212208218e0657475632188c46c2433d9cf84720158c200defd033c9fa98e2d1627e964736f6c634300081b0033",
  "linkReferences": {},
  "deployedLinkReferences": {}
}