{
  "_format": "hh-sol-artifact-1",
  "contractName": "USDCFundraiser",
  "sourceName": "contracts/USDCFundraiser.sol",
  "abi": [
    {
      "inputs": [
        {
          "internalType": "address",
          "name": "_usdcAddress",
          "type": "address"
        },
        {
          "internalType": "address",
          "name": "_beneficiaryWallet",
          "type": "address"
        },
        {
          "internalType": "address",
          "name": "_feeWallet",
          "type": "address"
        },
        {
          "internalType": "uint256",
          "name": "_fundingType",
          "type": "uint256"
        },
        {
          "internalType": "uint256",
          "name": "_minimumTarget",
          "type": "uint256"
        },
        {
          "internalType": "uint256",
          "name": "_deadline",
          "type": "uint256"
        },
        {
          "internalType": "address",
          "name": "_productTokenAddress",
          "type": "address"
        },
        {
          "components": [
            {
              "internalType": "uint256",
              "name": "productId",
              "type": "uint256"
            },
            {
              "internalType": "uint256",
              "name": "price",
              "type": "uint256"
            },
            {
              "internalType": "uint256",
              "name": "supplyLimit",
              "type": "uint256"
            }
          ],
          "internalType": "struct ProductConfig[]",
          "name": "_products",
          "type": "tuple[]"
        },
        {
          "internalType": "address",
          "name": "_linkToken",
          "type": "address"
        },
        {
          "internalType": "address",
          "name": "_chainlinkRegistrar",
          "type": "address"
        },
        {
          "internalType": "address",
          "name": "_chainlinkRegistry",
          "type": "address"
        },
        {
          "internalType": "bytes4",
          "name": "_chainlinkRegistrarSelector",
          "type": "bytes4"
        }
      ],
      "stateMutability": "nonpayable",
      "type": "constructor"
    },
    {
      "inputs": [],
      "name": "EnforcedPause",
      "type": "error"
    },
    {
      "inputs": [],
      "name": "ExpectedPause",
      "type": "error"
    },
    {
      "inputs": [
        {
          "internalType": "address",
          "name": "owner",
          "type": "address"
        }
      ],
      "name": "OwnableInvalidOwner",
      "type": "error"
    },
    {
      "inputs": [
        {
          "internalType": "address",
          "name": "account",
          "type": "address"
        }
      ],
      "name": "OwnableUnauthorizedAccount",
      "type": "error"
    },
    {
      "inputs": [],
      "name": "ReentrancyGuardReentrantCall",
      "type": "error"
    },
    {
      "anonymous": false,
      "inputs": [
        {
          "indexed": false,
          "internalType": "string",
          "name": "message",
          "type": "string"
        },
        {
          "indexed": false,
          "internalType": "uint256",
          "name": "value",
          "type": "uint256"
        }
      ],
      "name": "Debug",
      "type": "event"
    },
    {
      "anonymous": false,
      "inputs": [
        {
          "indexed": false,
          "internalType": "string",
          "name": "message",
          "type": "string"
        },
        {
          "indexed": false,
          "internalType": "bytes",
          "name": "value",
          "type": "bytes"
        }
      ],
      "name": "DebugBytes",
      "type": "event"
    },
    {
      "anonymous": false,
      "inputs": [
        {
          "indexed": true,
          "internalType": "address",
          "name": "depositor",
          "type": "address"
        },
        {
          "indexed": false,
          "internalType": "uint256",
          "name": "amount",
          "type": "uint256"
        },
        {
          "indexed": false,
          "internalType": "uint256",
          "name": "fee",
          "type": "uint256"
        }
      ],
      "name": "Deposit",
      "type": "event"
    },
    {
      "anonymous": false,
      "inputs": [
        {
          "indexed": true,
          "internalType": "address",
          "name": "to",
          "type": "address"
        },
        {
          "indexed": false,
          "internalType": "uint256",
          "name": "amount",
          "type": "uint256"
        }
      ],
      "name": "EmergencyWithdraw",
      "type": "event"
    },
    {
      "anonymous": false,
      "inputs": [
        {
          "indexed": false,
          "internalType": "uint256",
          "name": "newFeePercentage",
          "type": "uint256"
        }
      ],
      "name": "FeeUpdated",
      "type": "event"
    },
    {
      "anonymous": false,
      "inputs": [],
      "name": "Finalized",
      "type": "event"
    },
    {
      "anonymous": false,
      "inputs": [
        {
          "indexed": true,
          "internalType": "address",
          "name": "forwarder",
          "type": "address"
        }
      ],
      "name": "ForwarderChanged",
      "type": "event"
    },
    {
      "anonymous": false,
      "inputs": [
        {
          "indexed": true,
          "internalType": "address",
          "name": "beneficiary",
          "type": "address"
        },
        {
          "indexed": false,
          "internalType": "uint256",
          "name": "amount",
          "type": "uint256"
        }
      ],
      "name": "FundsReleased",
      "type": "event"
    },
    {
      "anonymous": false,
      "inputs": [
        {
          "indexed": true,
          "internalType": "address",
          "name": "previousOwner",
          "type": "address"
        },
        {
          "indexed": true,
          "internalType": "address",
          "name": "newOwner",
          "type": "address"
        }
      ],
      "name": "OwnershipTransferred",
      "type": "event"
    },
    {
      "anonymous": false,
      "inputs": [
        {
          "indexed": false,
          "internalType": "address",
          "name": "account",
          "type": "address"
        }
      ],
      "name": "Paused",
      "type": "event"
    },
    {
      "anonymous": false,
      "inputs": [
        {
          "indexed": false,
          "internalType": "uint256",
          "name": "productId",
          "type": "uint256"
        },
        {
          "indexed": false,
          "internalType": "uint256",
          "name": "price",
          "type": "uint256"
        },
        {
          "indexed": false,
          "internalType": "uint256",
          "name": "supplyLimit",
          "type": "uint256"
        }
      ],
      "name": "ProductAdded",
      "type": "event"
    },
    {
      "anonymous": false,
      "inputs": [
        {
          "indexed": false,
          "internalType": "uint256",
          "name": "productId",
          "type": "uint256"
        },
        {
          "indexed": false,
          "internalType": "uint256",
          "name": "price",
          "type": "uint256"
        }
      ],
      "name": "ProductPriceSet",
      "type": "event"
    },
    {
      "anonymous": false,
      "inputs": [
        {
          "indexed": false,
          "internalType": "uint256",
          "name": "productId",
          "type": "uint256"
        }
      ],
      "name": "ProductRemoved",
      "type": "event"
    },
    {
      "anonymous": false,
      "inputs": [
        {
          "indexed": false,
          "internalType": "uint256",
          "name": "productId",
          "type": "uint256"
        },
        {
          "indexed": false,
          "internalType": "uint256",
          "name": "price",
          "type": "uint256"
        },
        {
          "indexed": false,
          "internalType": "uint256",
          "name": "supplyLimit",
          "type": "uint256"
        }
      ],
      "name": "ProductUpdated",
      "type": "event"
    },
    {
      "anonymous": false,
      "inputs": [
        {
          "indexed": true,
          "internalType": "address",
          "name": "depositor",
          "type": "address"
        },
        {
          "indexed": false,
          "internalType": "uint256",
          "name": "amount",
          "type": "uint256"
        },
        {
          "indexed": false,
          "internalType": "uint256",
          "name": "productId",
          "type": "uint256"
        },
        {
          "indexed": false,
          "internalType": "uint256",
          "name": "quantity",
          "type": "uint256"
        }
      ],
      "name": "Refund",
      "type": "event"
    },
    {
      "anonymous": false,
      "inputs": [
        {
          "indexed": false,
          "internalType": "address",
          "name": "account",
          "type": "address"
        }
      ],
      "name": "Unpaused",
      "type": "event"
    },
    {
      "anonymous": false,
      "inputs": [],
      "name": "UpkeepPerformed",
      "type": "event"
    },
    {
      "anonymous": false,
      "inputs": [
        {
          "indexed": false,
          "internalType": "uint256",
          "name": "upkeepID",
          "type": "uint256"
        }
      ],
      "name": "UpkeepRegistered",
      "type": "event"
    },
    {
      "inputs": [
        {
          "components": [
            {
              "internalType": "uint256",
              "name": "productId",
              "type": "uint256"
            },
            {
              "internalType": "uint256",
              "name": "price",
              "type": "uint256"
            },
            {
              "internalType": "uint256",
              "name": "supplyLimit",
              "type": "uint256"
            }
          ],
          "internalType": "struct ProductConfig",
          "name": "product",
          "type": "tuple"
        }
      ],
      "name": "addProduct",
      "outputs": [],
      "stateMutability": "nonpayable",
      "type": "function"
    },
    {
      "inputs": [],
      "name": "beneficiaryWallet",
      "outputs": [
        {
          "internalType": "address",
          "name": "",
          "type": "address"
        }
      ],
      "stateMutability": "view",
      "type": "function"
    },
    {
      "inputs": [
        {
          "internalType": "bytes",
          "name": "",
          "type": "bytes"
        }
      ],
      "name": "checkUpkeep",
      "outputs": [
        {
          "internalType": "bool",
          "name": "upkeepNeeded",
          "type": "bool"
        },
        {
          "internalType": "bytes",
          "name": "",
          "type": "bytes"
        }
      ],
      "stateMutability": "view",
      "type": "function"
    },
    {
      "inputs": [
        {
          "internalType": "uint256",
          "name": "productId",
          "type": "uint256"
        },
        {
          "internalType": "uint256",
          "name": "quantity",
          "type": "uint256"
        }
      ],
      "name": "claimRefund",
      "outputs": [],
      "stateMutability": "nonpayable",
      "type": "function"
    },
    {
      "inputs": [],
      "name": "deadline",
      "outputs": [
        {
          "internalType": "uint256",
          "name": "",
          "type": "uint256"
        }
      ],
      "stateMutability": "view",
      "type": "function"
    },
    {
      "inputs": [
        {
          "internalType": "uint256",
          "name": "productId",
          "type": "uint256"
        },
        {
          "internalType": "uint256",
          "name": "quantity",
          "type": "uint256"
        }
      ],
      "name": "deposit",
      "outputs": [],
      "stateMutability": "nonpayable",
      "type": "function"
    },
    {
      "inputs": [
        {
          "internalType": "address",
          "name": "",
          "type": "address"
        }
      ],
      "name": "deposits",
      "outputs": [
        {
          "internalType": "uint256",
          "name": "",
          "type": "uint256"
        }
      ],
      "stateMutability": "view",
      "type": "function"
    },
    {
      "inputs": [
        {
          "internalType": "address",
          "name": "to",
          "type": "address"
        },
        {
          "internalType": "uint256",
          "name": "amount",
          "type": "uint256"
        }
      ],
      "name": "emergencyWithdraw",
      "outputs": [],
      "stateMutability": "nonpayable",
      "type": "function"
    },
    {
      "inputs": [],
      "name": "feePercentage",
      "outputs": [
        {
          "internalType": "uint256",
          "name": "",
          "type": "uint256"
        }
      ],
      "stateMutability": "view",
      "type": "function"
    },
    {
      "inputs": [],
      "name": "feeWallet",
      "outputs": [
        {
          "internalType": "address",
          "name": "",
          "type": "address"
        }
      ],
      "stateMutability": "view",
      "type": "function"
    },
    {
      "inputs": [],
      "name": "finalize",
      "outputs": [],
      "stateMutability": "nonpayable",
      "type": "function"
    },
    {
      "inputs": [],
      "name": "finalized",
      "outputs": [
        {
          "internalType": "bool",
          "name": "",
          "type": "bool"
        }
      ],
      "stateMutability": "view",
      "type": "function"
    },
    {
      "inputs": [],
      "name": "fundingType",
      "outputs": [
        {
          "internalType": "uint256",
          "name": "",
          "type": "uint256"
        }
      ],
      "stateMutability": "view",
      "type": "function"
    },
    {
      "inputs": [],
      "name": "getProductIds",
      "outputs": [
        {
          "internalType": "uint256[]",
          "name": "",
          "type": "uint256[]"
        }
      ],
      "stateMutability": "view",
      "type": "function"
    },
    {
      "inputs": [],
      "name": "getStationUpkeepID",
      "outputs": [
        {
          "internalType": "uint256",
          "name": "",
          "type": "uint256"
        }
      ],
      "stateMutability": "view",
      "type": "function"
    },
    {
      "inputs": [
        {
          "internalType": "bytes",
          "name": "registrationParams",
          "type": "bytes"
        }
      ],
      "name": "initializeChainlink",
      "outputs": [
        {
          "internalType": "uint256",
          "name": "stationUpkeepID",
          "type": "uint256"
        }
      ],
      "stateMutability": "nonpayable",
      "type": "function"
    },
    {
      "inputs": [],
      "name": "minimumTarget",
      "outputs": [
        {
          "internalType": "uint256",
          "name": "",
          "type": "uint256"
        }
      ],
      "stateMutability": "view",
      "type": "function"
    },
    {
      "inputs": [],
      "name": "owner",
      "outputs": [
        {
          "internalType": "address",
          "name": "",
          "type": "address"
        }
      ],
      "stateMutability": "view",
      "type": "function"
    },
    {
      "inputs": [],
      "name": "pause",
      "outputs": [],
      "stateMutability": "nonpayable",
      "type": "function"
    },
    {
      "inputs": [],
      "name": "paused",
      "outputs": [
        {
          "internalType": "bool",
          "name": "",
          "type": "bool"
        }
      ],
      "stateMutability": "view",
      "type": "function"
    },
    {
      "inputs": [
        {
          "internalType": "bytes",
          "name": "",
          "type": "bytes"
        }
      ],
      "name": "performUpkeep",
      "outputs": [],
      "stateMutability": "nonpayable",
      "type": "function"
    },
    {
      "inputs": [
        {
          "internalType": "uint256",
          "name": "",
          "type": "uint256"
        }
      ],
      "name": "productIds",
      "outputs": [
        {
          "internalType": "uint256",
          "name": "",
          "type": "uint256"
        }
      ],
      "stateMutability": "view",
      "type": "function"
    },
    {
      "inputs": [
        {
          "internalType": "uint256",
          "name": "",
          "type": "uint256"
        }
      ],
      "name": "productSoldCount",
      "outputs": [
        {
          "internalType": "uint256",
          "name": "",
          "type": "uint256"
        }
      ],
      "stateMutability": "view",
      "type": "function"
    },
    {
      "inputs": [],
      "name": "productToken",
      "outputs": [
        {
          "internalType": "contract ProductToken",
          "name": "",
          "type": "address"
        }
      ],
      "stateMutability": "view",
      "type": "function"
    },
    {
      "inputs": [
        {
          "internalType": "uint256",
          "name": "",
          "type": "uint256"
        }
      ],
      "name": "products",
      "outputs": [
        {
          "internalType": "uint256",
          "name": "productId",
          "type": "uint256"
        },
        {
          "internalType": "uint256",
          "name": "price",
          "type": "uint256"
        },
        {
          "internalType": "uint256",
          "name": "supplyLimit",
          "type": "uint256"
        }
      ],
      "stateMutability": "view",
      "type": "function"
    },
    {
      "inputs": [
        {
          "internalType": "uint256",
          "name": "productId",
          "type": "uint256"
        }
      ],
      "name": "removeProduct",
      "outputs": [],
      "stateMutability": "nonpayable",
      "type": "function"
    },
    {
      "inputs": [],
      "name": "renounceOwnership",
      "outputs": [],
      "stateMutability": "nonpayable",
      "type": "function"
    },
    {
      "inputs": [
        {
          "internalType": "uint256",
          "name": "productId",
          "type": "uint256"
        },
        {
          "internalType": "uint256",
          "name": "price",
          "type": "uint256"
        }
      ],
      "name": "setProductPrice",
      "outputs": [],
      "stateMutability": "nonpayable",
      "type": "function"
    },
    {
      "inputs": [
        {
          "internalType": "uint256",
          "name": "",
          "type": "uint256"
        }
      ],
      "name": "tokenDeposits",
      "outputs": [
        {
          "internalType": "uint256",
          "name": "",
          "type": "uint256"
        }
      ],
      "stateMutability": "view",
      "type": "function"
    },
    {
      "inputs": [],
      "name": "totalRaised",
      "outputs": [
        {
          "internalType": "uint256",
          "name": "",
          "type": "uint256"
        }
      ],
      "stateMutability": "view",
      "type": "function"
    },
    {
      "inputs": [
        {
          "internalType": "address",
          "name": "newOwner",
          "type": "address"
        }
      ],
      "name": "transferOwnership",
      "outputs": [],
      "stateMutability": "nonpayable",
      "type": "function"
    },
    {
      "inputs": [],
      "name": "unpause",
      "outputs": [],
      "stateMutability": "nonpayable",
      "type": "function"
    },
    {
      "inputs": [
        {
          "internalType": "uint256",
          "name": "newDeadline",
          "type": "uint256"
        }
      ],
      "name": "updateDeadline",
      "outputs": [],
      "stateMutability": "nonpayable",
      "type": "function"
    },
    {
      "inputs": [
        {
          "internalType": "uint256",
          "name": "newFeePercentage",
          "type": "uint256"
        }
      ],
      "name": "updateFeePercentage",
      "outputs": [],
      "stateMutability": "nonpayable",
      "type": "function"
    },
    {
      "inputs": [
        {
          "internalType": "uint256",
          "name": "productId",
          "type": "uint256"
        },
        {
          "internalType": "uint256",
          "name": "price",
          "type": "uint256"
        }
      ],
      "name": "updateProductPrice",
      "outputs": [],
      "stateMutability": "nonpayable",
      "type": "function"
    },
    {
      "inputs": [
        {
          "internalType": "uint256",
          "name": "productId",
          "type": "uint256"
        },
        {
          "internalType": "uint256",
          "name": "supplyLimit",
          "type": "uint256"
        }
      ],
      "name": "updateProductSupply",
      "outputs": [],
      "stateMutability": "nonpayable",
      "type": "function"
    },
    {
      "inputs": [],
      "name": "usdc",
      "outputs": [
        {
          "internalType": "contract IERC20",
          "name": "",
          "type": "address"
        }
      ],
      "stateMutability": "view",
      "type": "function"
    }
  ],
  "bytecode": "0x60806040523461057157612a6580380380610019816105c5565b9283398101906101808183031261057157610033816105ea565b61003f602083016105ea565b9061004c604084016105ea565b606084015192608085015160a086015161006860c088016105ea565b60e08801519092906001600160401b03811161057157880189601f82011215610571578051906001600160401b0382116103095760209a8b60606100b0828660051b016105c5565b9d8e8681520194028301019181831161057157602001925b82841061057657505050506100e061010089016105ea565b956100ee6101208a016105ea565b956101606100ff6101408c016105ea565b9a0151956001600160e01b03198716870361057157331561055b5760008054604051949133906001600160a01b038316907f8be0079c531659141344cd1fd0a4f28419497f9722a3daafe3b4186f6b6457e09080a36001600160a81b0319163360ff60a01b191617600055600180556001600160a01b031692831561051957506001600160a01b03169081156104d4576001600160a01b031691821561049a578b51156104555760018060a01b0319600254161760025560018060a01b0319600454161760045560018060a01b0319600554161760055560065560075560fa60085560018060a01b031660018060a01b0319600354161760035560005b865181101561039e57602061021182896105fe565b510151156103595761022381886105fe565b51511561031f5761023481886105fe565b515190600e549168010000000000000000831015610309576001830180600e558310156102f357600192600e6000526020600020015561027481896105fe565b5161027f828a6105fe565b515160005260166020526002604080600020928051845560208101518685015501519101557fb751835a12376750bd69b4b4c0c1d306480284514d2fa88f72edf3eeea8515f660406102d1838b6105fe565b515160206102df858d6105fe565b51015182519182526020820152a1016101fc565b634e487b7160e01b600052603260045260246000fd5b634e487b7160e01b600052604160045260246000fd5b60405162461bcd60e51b8152602060048201526012602482015271125b9d985b1a59081c1c9bd91d58dd08125160721b6044820152606490fd5b60405162461bcd60e51b815260206004820152601560248201527f496e76616c69642070726f6475637420707269636500000000000000000000006044820152606490fd5b5060128054601080546001600160a01b03199081166001600160a01b0396871617909155601180549091168589161790556001600160c01b031916939092169290921760409290921c63ffffffff60a01b16919091179055600281116104105760155560405161245290816106138239f35b60405162461bcd60e51b815260206004820152601460248201527f496e76616c69642066756e64696e6720747970650000000000000000000000006044820152606490fd5b60405162461bcd60e51b815260206004820152601460248201527f4e6f2070726f64756374732070726f76696465640000000000000000000000006044820152606490fd5b60405162461bcd60e51b8152602060048201526012602482015271125b9d985b1a5908199959481dd85b1b195d60721b6044820152606490fd5b60405162461bcd60e51b815260206004820152601a60248201527f496e76616c69642062656e65666963696172792077616c6c65740000000000006044820152606490fd5b62461bcd60e51b815260206004820152601460248201527f496e76616c6964205553444320616464726573730000000000000000000000006044820152606490fd5b631e4fbdf760e01b600052600060045260246000fd5b600080fd5b606084830312610571576040519060608201906001600160401b0382118383101761030957606092602092604052865181528287015183820152604087015160408201528152019301926100c8565b6040519190601f01601f191682016001600160401b0381118382101761030957604052565b51906001600160a01b038216820361057157565b80518210156102f35760209160051b01019056fe608080604052600436101561001357600080fd5b600090813560e01c90816302f8baa114611e585750806325b4f65f14611e2f57806329dcb0cf14611e115780633e413bee14611de85780633f4ba83a14611d7a57806342235da614611d5c5780634232d7f814611a4e57806342af18841461192957806344d3498a146118bc5780634585e33b146117b057806347428e7b146116fa5780634bb278f3146115a15780635c975abb1461157c5780635ee95cae1461141657806366bff1db146113ec5780636cad3fb0146113575780636e04ff0d146112ff578063715018a6146112a55780637acc0b20146112555780638456cb59146111f45780638527d58f14610e025780638da5cb5b14610ddb57806395ccea6714610c155780639c3bddb214610b76578063a001ecdd14610b58578063b3f05b9714610b35578063bc072c2c14610a41578063c5c4744c14610a23578063c9788631146109fa578063cb51bba9146109c0578063dd5934b31461081d578063e2bbb158146102ea578063ebd692ea146102c0578063f25f4b5614610297578063f2fde38b14610211578063fa8ab0ee146101f35763fc7e286d146101b857600080fd5b346101f05760203660031901126101f0576020906040906001600160a01b036101df611f23565b168152600983522054604051908152f35b80fd5b50346101f057806003193601126101f0576020601554604051908152f35b50346101f05760203660031901126101f05761022b611f23565b61023361226b565b6001600160a01b031680156102835781546001600160a01b03198116821783556001600160a01b03167f8be0079c531659141344cd1fd0a4f28419497f9722a3daafe3b4186f6b6457e08380a380f35b631e4fbdf760e01b82526004829052602482fd5b50346101f057806003193601126101f0576005546040516001600160a01b039091168152602090f35b50346101f05760203660031901126101f05760406020916004358152600f83522054604051908152f35b50346101f0576102f936611ec5565b610301612294565b6103096122b6565b818352601660205260408320916040519261032384611f6a565b80548452600181015460406002602087019383855201549501948552156107e0578385945161077d575b5082610359915161210d565b916127106103696008548561210d565b049161037583856120ea565b6002546040516323b872dd60e01b81523360048201523060248201526044810187905290602090829060649082908b906001600160a01b03165af18015610753576103c791889161075e575b50612120565b836106a2575b6003546001600160a01b0316803b1561069e57604051630ab714fb60e11b8152336004820152602481018490526044810185905290879081908390606490829084905af19182610689575b505061061157505050508160033d11610601575b6308c379a014610526575b610480602091610445611fd6565b5060025460405163a9059cbb60e01b81523360048201526024810192909252909384926001600160a01b039092169183919082906044820190565b03925af190811561051b5761049b92916104ec575b5061221f565b60405162461bcd60e51b8152602060048201526024808201527f4e4654206d696e74206661696c65642077697468206c6f772d6c6576656c2065604482015263393937b960e11b6064820152608490fd5b61050e915060203d602011610514575b6105068183611f9c565b810190611fbe565b38610495565b503d6104fc565b6040513d84823e3d90fd5b61052e6121a7565b806105395750610437565b60025460405163a9059cbb60e01b81523360048201526024810193909352909260209183916044918391906001600160a01b03165af19081156105f6579061058a916105f294916104ec575061221f565b6105d26031604051809370027232a1036b4b73a103330b4b632b21d1607d1b60208301526105c18151809260208686019101611edb565b81010301601f198101835282611f9c565b60405162461bcd60e51b8152602060048201529182916024830190611efe565b0390fd5b6040513d85823e3d90fd5b50600482803e815160e01c61042c565b61061d81600a5461219a565b600a55818652600d6020526106376040872091825461219a565b90558452600f60205261064f6040852091825461219a565b905560405191825260208201527f90890809c654f11d6e72a28fa60149770a0d11ec6c92319d6ceb2bb0a4ea1a1560403392a26001805580f35b8161069391611f9c565b61069e578638610418565b8680fd5b60025460055460405163a9059cbb60e01b81526001600160a01b03918216600482015260248101879052929750602091839160449183918c91165af1908115610753578791610734575b50156106f95785946103cd565b60405162461bcd60e51b8152602060048201526013602482015272119959481d1c985b9cd9995c8819985a5b1959606a1b6044820152606490fd5b61074d915060203d602011610514576105068183611f9c565b386106ec565b6040513d89823e3d90fd5b610777915060203d602011610514576105068183611f9c565b386103c1565b9093829052600f60205261079583604087205461219a565b9051106107a45783923861034d565b60405162461bcd60e51b8152602060048201526014602482015273115e18d959591cc81cdd5c1c1b1e481b1a5b5a5d60621b6044820152606490fd5b60405162461bcd60e51b815260206004820152601560248201527450726f64756374206e6f7420617661696c61626c6560581b6044820152606490fd5b50346101f05760603660031901126101f0576040519061083c82611f6a565b60043582526020820160243581526040830190604435825261085c61226b565b6108688151151561215e565b83511561098657835183526016602052600160408420015461094857835183526016602052604083208451908181558251600182015560028451910155600e5468010000000000000000811015610934579461090c61092e926108f38860017f0bb34bc6bcdd4ba28b7de4669c2e7d94d1b828b2a6a14b82991e087b20d73549999a01600e55611f39565b90919082549060031b91821b91600019901b1916179055565b5191519251604051938493846040919493926060820195825260208201520152565b0390a180f35b634e487b7160e01b85526041600452602485fd5b60405162461bcd60e51b815260206004820152601660248201527550726f6475637420616c72656164792065786973747360501b6044820152606490fd5b60405162461bcd60e51b8152602060048201526012602482015271125b9d985b1a59081c1c9bd91d58dd08125160721b6044820152606490fd5b50346101f05760203660031901126101f05760043590600e548210156101f05760206109eb83611f39565b90549060031b1c604051908152f35b50346101f057806003193601126101f0576004546040516001600160a01b039091168152602090f35b50346101f057806003193601126101f0576020600a54604051908152f35b50346101f057610a5036611ec5565b610a5861226b565b8183526016602052610a72600160408520015415156120a5565b80610ad2575b818352601660208181526040808620600201849055848652918152818520600101548251948552908401528201527fc598db734b93c7fd9412e07c1e464ebb4d3dcf9b02c03af26710b307f8b773db90806060810161092e565b818352600f6020526040832054811015610a785760405162461bcd60e51b815260206004820152602160248201527f4e657720737570706c79206c696d69742062656c6f7720736f6c6420636f756e6044820152601d60fa1b6064820152608490fd5b50346101f057806003193601126101f057602060ff600b54166040519015158152f35b50346101f057806003193601126101f0576020600854604051908152f35b50346101f0577fc598db734b93c7fd9412e07c1e464ebb4d3dcf9b02c03af26710b307f8b773db610ba636611ec5565b90610baf61226b565b610bba82151561215e565b8084526016602052610bd4600160408620015415156120a5565b8084526016602052816001604086200155808452601660205261092e6002604086200154604051938493846040919493926060820195825260208201520152565b50346101f05760403660031901126101f057610c2f611f23565b60243590610c3b61226b565b6001600160a01b038116918215610da4576002546040516370a0823160e01b81523060048201526001600160a01b0390911690602081602481855afa908115610d99578691610d62575b508211610d265760405163a9059cbb60e01b81526001600160a01b03939093166004840152602483018290526020908390604490829088905af1908115610d1b57610cfa6020927f5fafa99d0643513820be26656b45130b01e1c03062e1266bf36f88cbd3bd9695948791610d045750612120565b604051908152a280f35b6107779150843d8611610514576105068183611f9c565b6040513d86823e3d90fd5b60405162461bcd60e51b8152602060048201526014602482015273496e73756666696369656e742062616c616e636560601b6044820152606490fd5b90506020813d602011610d91575b81610d7d60209383611f9c565b81010312610d8c575138610c85565b600080fd5b3d9150610d70565b6040513d88823e3d90fd5b60405162461bcd60e51b815260206004820152600f60248201526e496e76616c6964206164647265737360881b6044820152606490fd5b50346101f057806003193601126101f057546040516001600160a01b039091168152602090f35b50346101f057610e1136611ec5565b9080835260166020526040832091604051610e2b81611f6a565b835481526001840154906040600260208301968488520154910152156111bd576015546111575760ff600b541680611149575b6110f5575b600354604051627eeac760e11b8152336004820152602481018490526001600160a01b039091169390602081604481885afa908115610d995786916110bf575b50801561108457821161103f5781610ed182612710610ec9610ed695516008549061210d565b0490516120ea565b61210d565b92803b1561103b57604051637a94c56560e11b815233600482015260248101849052604481018390529085908290606490829084905af1801561101c57611027575b50818452600f60205260408420610f308282546120ea565b9055610f3e83600a546120ea565b600a5560025460405163a9059cbb60e01b815233600482015260248101859052906020908290604490829089906001600160a01b03165af190811561101c578591610ffd575b5015610fc8576040805193845260208401929092529082015233907fb7048c2ad36aadee977bb16b4543a18866044d27a2ca753e1c7dbcfa7d7a696290606090a280f35b60405162461bcd60e51b815260206004820152600d60248201526c1499599d5b990819985a5b1959609a1b6044820152606490fd5b611016915060203d602011610514576105068183611f9c565b38610f84565b6040513d87823e3d90fd5b8461103491959295611f9c565b9238610f18565b8480fd5b60405162461bcd60e51b815260206004820152601d60248201527f496e73756666696369656e7420746f6b656e7320746f20726566756e640000006044820152606490fd5b60405162461bcd60e51b8152602060048201526013602482015272139bc81d1bdad95b9cc81d1bc81c99599d5b99606a1b6044820152606490fd5b90506020813d6020116110ed575b816110da60209383611f9c565b810103126110e9575138610ea3565b8580fd5b3d91506110cd565b60405162461bcd60e51b815260206004820152602660248201527f54617267657420776173206d65742c20726566756e6473206e6f7420617661696044820152653630b136329760d11b6064820152608490fd5b50600a546006541115610e5e565b60ff600b541615610e635760405162461bcd60e51b815260206004820152602d60248201527f43616d706169676e2069732066696e616c697a65642c20726566756e6473206e60448201526c37ba1030bb30b4b630b136329760991b6064820152608490fd5b60405162461bcd60e51b815260206004820152600f60248201526e125b9d985b1a59081c1c9bd91d58dd608a1b6044820152606490fd5b50346101f057806003193601126101f05761120d61226b565b6112156122b6565b805460ff60a01b1916600160a01b1781556040513381527f62e78cea01bee320cd4e420270b5ea74000d11b0c9f74754ebdbfc544b05a25890602090a180f35b50346101f05760203660031901126101f057604090600435815260166020522080546112a160026001840154930154604051938493846040919493926060820195825260208201520152565b0390f35b50346101f057806003193601126101f0576112be61226b565b80546001600160a01b03198116825581906001600160a01b03167f8be0079c531659141344cd1fd0a4f28419497f9722a3daafe3b4186f6b6457e08280a380f35b50346101f05761130e36611e74565b505060ff600b5416158061134c575b6040519161132c602084611f9c565b82526112a160405192839215158352604060208401526040830190611efe565b50600754421161131d565b50346101f05760203660031901126101f05760043561137461226b565b6103e881116113af576020817f8c4d35e54a3f2ef1134138fd8ea3daee6a3c89e10d2665996babdf70261e2c7692600855604051908152a180f35b60405162461bcd60e51b81526020600482015260156024820152744665652063616e6e6f74206578636565642031302560581b6044820152606490fd5b50346101f05760203660031901126101f05760406020916004358152600d83522054604051908152f35b50346101f05760203660031901126101f05760043561143361226b565b808252601660205261144d600160408420015415156120a5565b808252600f602052611463604083205415612016565b815b600e5480821015611551578261147a83611f39565b90549060031b1c1461148f5750600101611465565b600019810190811161153d57906108f36114ab6114b893611f39565b90549060031b1c91611f39565b600e548015611529577f07015631cff457b5b13492c2045e70c6305a0a4aa773e432e79abbe2cf52c1eb91602091600019016114f381611f39565b8154906000199060031b1b19169055600e555b80845260168252836002604082208281558260018201550155604051908152a180f35b634e487b7160e01b83526031600452602483fd5b634e487b7160e01b84526011600452602484fd5b505060207f07015631cff457b5b13492c2045e70c6305a0a4aa773e432e79abbe2cf52c1eb91611506565b50346101f057806003193601126101f05760ff6020915460a01c166040519015158152f35b50346101f057806003193601126101f0576115ba612294565b6115c26122b6565b60ff600b54166116c1576015548061163457506115e26007544211612062565b600a546006541115611627575b600160ff19600b541617600b557f6823b073d48d6e3a7d385eeb601452d680e74bb46afe3255a7d778f3a9b176818180a16001805580f35b61162f6122d6565b6115ef565b600181036116ad575080546001600160a01b031633036116565761162f6122d6565b60405162461bcd60e51b815260206004820152602960248201527f4f6e6c79206f776e65722063616e2066696e616c697a65206c696d69746c6573604482015268732066756e64696e6760b81b6064820152608490fd5b6002036115ef576116276007544211612062565b60405162461bcd60e51b8152602060048201526011602482015270105b1c9958591e48199a5b985b1a5e9959607a1b6044820152606490fd5b50346101f057806003193601126101f057604051806020600e5491828152018091600e85527fbb7b4a454dc3493923482f07822329ed19e8244eff582cc204f8554c3620c3fd90855b81811061179a5750505082611759910383611f9c565b604051928392602084019060208552518091526040840192915b818110611781575050500390f35b8251845285945060209384019390920191600101611773565b8254845260209093019260019283019201611743565b50346101f0576117bf36611e74565b505060ff600b541615806118b1575b6117d55780f35b6117dd612294565b6117e56122b6565b60ff600b54166116c1576015548061187b57506118056007544211612062565b600a54600654111561186e575b600160ff19600b541617600b557f6823b073d48d6e3a7d385eeb601452d680e74bb46afe3255a7d778f3a9b176818180a1600180557f966a2cf4da2fe388fb461e726e2765451662471d3e61fb50c4191dd71434cb588180a180f35b6118766122d6565b611812565b6001810361189d575080546001600160a01b03163303611656576118766122d6565b6002036118125761186e6007544211612062565b5060075442116117ce565b50346101f0577fb751835a12376750bd69b4b4c0c1d306480284514d2fa88f72edf3eeea8515f660406118ee36611ec5565b6118f661226b565b818552600f60205261190b8386205415612016565b8185526016602052806001848720015582519182526020820152a180f35b50346101f05760203660031901126101f05760043561194661226b565b60ff600b5416611a09576001601554146119ad57428111156119685760075580f35b60405162461bcd60e51b815260206004820152601e60248201527f446561646c696e65206d75737420626520696e207468652066757475726500006044820152606490fd5b60405162461bcd60e51b815260206004820152602e60248201527f4c696d69746c6573732066756e64696e6720646f65736e277420737570706f7260448201526d3a103334b730b634bd30ba34b7b760911b6064820152608490fd5b60405162461bcd60e51b815260206004820152601760248201527f46756e647261697365722069732066696e616c697a65640000000000000000006044820152606490fd5b50346101f057611a5d36611e74565b90611a6661226b565b60125460105460405163095ea7b360e01b81526001600160a01b039182166004820152670de0b6b3a7640000602482015291602091839160449183918991165af1908115610d1b578491611d3d575b5015611d0157829182918260018060a01b036010541692611b09602463ffffffff60e01b60125460401b1694836040519485926020840198895284840137810185838201520301601f198101835282611f9c565b51925af1611b15611fd6565b9015611c3e575b60208151918180820193849201010312611c3a575160138190556012805460ff60c01b1916600160c01b1790556040518181527fdd37d6770a1595ddc0378e5e9e41ef525b6bd7f43b2c0e14582e99ee0373df8b90602090a16011546001600160a01b031680611b92575b602082604051908152f35b82809160405160208101906379ea994360e01b825285602482015260248152611bbc604482611f9c565b51915afa611bc8611fd6565b9015611b8757602081805181010312611c3657602001516001600160a01b03811690819003611c36577f9ecfd97bf22760e90779a4364f3646d6cbb7e6207b75280c803ca569a34234a0602093826bffffffffffffffffffffffff60a01b601454161760145580a238611b87565b8280fd5b5080fd5b7f3c5ad147104e56be34a9176a6692f7df8d2f4b29a5af06bc6b98970d329d65776080825160405190604082526013604083015272149959da5cdd1c985d1a5bdb8819985a5b1959606a1b60608301526020820152a1805115611b1c577fd54ba61ed4070561dcc6d272cdd44f051344b2c11b31180228f79dcb0003cf83604051604081526011604082015270526567697374726174696f6e206461746160781b60608201526080602082015280611cf96080820185611efe565b0390a1611b1c565b60405162461bcd60e51b815260206004820152601460248201527313125392c8185c1c1c9bdd985b0819985a5b195960621b6044820152606490fd5b611d56915060203d602011610514576105068183611f9c565b38611ab5565b50346101f057806003193601126101f0576020600654604051908152f35b50346101f057806003193601126101f057611d9361226b565b805460ff8160a01c1615611dd95760ff60a01b191681556040513381527f5db9ee0a495bf2e6ff9c91a7834c1ba4fdd244a5e8aa4e537bd38aeae4b073aa90602090a180f35b638dfc202b60e01b8252600482fd5b50346101f057806003193601126101f0576002546040516001600160a01b039091168152602090f35b50346101f057806003193601126101f0576020600754604051908152f35b50346101f057806003193601126101f0576003546040516001600160a01b039091168152602090f35b905034611c3a5781600319360112611c3a576020906013548152f35b906020600319830112610d8c5760043567ffffffffffffffff8111610d8c5782602382011215610d8c5780600401359267ffffffffffffffff8411610d8c5760248483010111610d8c576024019190565b6040906003190112610d8c576004359060243590565b60005b838110611eee5750506000910152565b8181015183820152602001611ede565b90602091611f1781518092818552858086019101611edb565b601f01601f1916010190565b600435906001600160a01b0382168203610d8c57565b600e54811015611f5457600e60005260206000200190600090565b634e487b7160e01b600052603260045260246000fd5b6060810190811067ffffffffffffffff821117611f8657604052565b634e487b7160e01b600052604160045260246000fd5b90601f8019910116810190811067ffffffffffffffff821117611f8657604052565b90816020910312610d8c57518015158103610d8c5790565b3d15612011573d9067ffffffffffffffff8211611f865760405191612005601f8201601f191660200184611f9c565b82523d6000602084013e565b606090565b1561201d57565b60405162461bcd60e51b815260206004820152601860248201527f50726f6475637420686173206163746976652073616c657300000000000000006044820152606490fd5b1561206957565b60405162461bcd60e51b8152602060048201526014602482015273111958591b1a5b99481b9bdd081c995858da195960621b6044820152606490fd5b156120ac57565b60405162461bcd60e51b8152602060048201526016602482015275141c9bd91d58dd08191bd95cc81b9bdd08195e1a5cdd60521b6044820152606490fd5b919082039182116120f757565b634e487b7160e01b600052601160045260246000fd5b818102929181159184041417156120f757565b1561212757565b60405162461bcd60e51b815260206004820152600f60248201526e151c985b9cd9995c8819985a5b1959608a1b6044820152606490fd5b1561216557565b60405162461bcd60e51b815260206004820152600d60248201526c496e76616c696420707269636560981b6044820152606490fd5b919082018092116120f757565b600060443d1061220e576040513d600319016004823e8051913d602484011167ffffffffffffffff841117612219578282019283519167ffffffffffffffff8311612211573d84016003190185840160200111612211575061220e92910160200190611f9c565b90565b949350505050565b92915050565b1561222657565b60405162461bcd60e51b815260206004820152601e60248201527f526566756e64206661696c6564206166746572206d696e74206572726f7200006044820152606490fd5b6000546001600160a01b0316330361227f57565b63118cdaa760e01b6000523360045260246000fd5b6002600154146122a5576002600155565b633ee5aeb560e01b60005260046000fd5b60ff60005460a01c166122c557565b63d93c066560e01b60005260046000fd5b6002546040516370a0823160e01b8152306004820152906001600160a01b0316602082602481845afa9182156123a1576000926123e8575b5081156123ad576004805460405163a9059cbb60e01b81526001600160a01b03909116918101919091526024810183905290602090829060449082906000905af180156123a1576123669160009161075e5750612120565b6004546040519182526001600160a01b0316907f221c08a06b07a64803b3787861a3f276212fcccb51c2e6234077a9b8cb13047a90602090a2565b6040513d6000823e3d90fd5b60405162461bcd60e51b81526020600482015260136024820152724e6f2066756e647320746f2072656c6561736560681b6044820152606490fd5b90916020823d602011612414575b8161240360209383611f9c565b810103126101f0575051903861230e565b3d91506123f656fea264697066735822122030e568cc63e937024fb3b8a70efa35b0e79b519735d4f0c8dd4fb3ed4449a62c64736f6c634300081b0033",
  "linkReferences": {},
  "deployedLinkReferences": {}
}