{"contracts/USDCFundraiserUpgradeable.sol":{"USDCFundraiserUpgradeable":{"abi":[{"inputs":[],"stateMutability":"nonpayable","type":"constructor"},{"inputs":[],"name":"EnforcedPause","type":"error"},{"inputs":[],"name":"ExpectedPause","type":"error"},{"inputs":[],"name":"InvalidInitialization","type":"error"},{"inputs":[],"name":"NotInitializing","type":"error"},{"inputs":[{"internalType":"address","name":"owner","type":"address"}],"name":"OwnableInvalidOwner","type":"error"},{"inputs":[{"internalType":"address","name":"account","type":"address"}],"name":"OwnableUnauthorizedAccount","type":"error"},{"inputs":[],"name":"ReentrancyGuardReentrantCall","type":"error"},{"inputs":[{"internalType":"address","name":"token","type":"address"}],"name":"SafeERC20FailedOperation","type":"error"},{"anonymous":false,"inputs":[{"indexed":true,"internalType":"address","name":"depositor","type":"address"},{"indexed":false,"internalType":"uint256","name":"netAmount","type":"uint256"},{"indexed":false,"internalType":"uint256","name":"feeAmount","type":"uint256"}],"name":"Deposit","type":"event"},{"anonymous":false,"inputs":[{"indexed":false,"internalType":"bool","name":"success","type":"bool"},{"indexed":false,"internalType":"uint256","name":"totalRaised","type":"uint256"}],"name":"Finalized","type":"event"},{"anonymous":false,"inputs":[{"indexed":false,"internalType":"uint64","name":"version","type":"uint64"}],"name":"Initialized","type":"event"},{"anonymous":false,"inputs":[{"indexed":true,"internalType":"address","name":"previousOwner","type":"address"},{"indexed":true,"internalType":"address","name":"newOwner","type":"address"}],"name":"OwnershipTransferred","type":"event"},{"anonymous":false,"inputs":[{"indexed":false,"internalType":"address","name":"account","type":"address"}],"name":"Paused","type":"event"},{"anonymous":false,"inputs":[{"indexed":true,"internalType":"uint256","name":"productId","type":"uint256"},{"indexed":false,"internalType":"uint256","name":"price","type":"uint256"},{"indexed":false,"internalType":"uint256","name":"supplyLimit","type":"uint256"}],"name":"ProductAdded","type":"event"},{"anonymous":false,"inputs":[{"indexed":true,"internalType":"uint256","name":"productId","type":"uint256"},{"indexed":false,"internalType":"uint256","name":"oldPrice","type":"uint256"},{"indexed":false,"internalType":"uint256","name":"newPrice","type":"uint256"},{"indexed":false,"internalType":"uint256","name":"oldSupplyLimit","type":"uint256"},{"indexed":false,"internalType":"uint256","name":"newSupplyLimit","type":"uint256"}],"name":"ProductUpdated","type":"event"},{"anonymous":false,"inputs":[{"indexed":true,"internalType":"address","name":"depositor","type":"address"},{"indexed":false,"internalType":"uint256","name":"amount","type":"uint256"},{"indexed":false,"internalType":"uint256","name":"productId","type":"uint256"},{"indexed":false,"internalType":"uint256","name":"quantity","type":"uint256"}],"name":"Refund","type":"event"},{"anonymous":false,"inputs":[{"indexed":false,"internalType":"address","name":"account","type":"address"}],"name":"Unpaused","type":"event"},{"inputs":[],"name":"BASIS_POINTS","outputs":[{"internalType":"uint256","name":"","type":"uint256"}],"stateMutability":"view","type":"function"},{"inputs":[{"components":[{"internalType":"uint256","name":"productId","type":"uint256"},{"internalType":"uint256","name":"price","type":"uint256"},{"internalType":"uint256","name":"supplyLimit","type":"uint256"}],"internalType":"struct ProductConfig","name":"product","type":"tuple"}],"name":"addProduct","outputs":[],"stateMutability":"nonpayable","type":"function"},{"inputs":[],"name":"beneficiaryWallet","outputs":[{"internalType":"address","name":"","type":"address"}],"stateMutability":"view","type":"function"},{"inputs":[],"name":"campaignAdmin","outputs":[{"internalType":"address","name":"","type":"address"}],"stateMutability":"view","type":"function"},{"inputs":[{"internalType":"uint256","name":"productId","type":"uint256"},{"internalType":"uint256","name":"quantity","type":"uint256"}],"name":"claimRefund","outputs":[],"stateMutability":"nonpayable","type":"function"},{"inputs":[],"name":"deadline","outputs":[{"internalType":"uint256","name":"","type":"uint256"}],"stateMutability":"view","type":"function"},{"inputs":[{"internalType":"uint256","name":"productId","type":"uint256"},{"internalType":"uint256","name":"quantity","type":"uint256"}],"name":"deposit","outputs":[],"stateMutability":"nonpayable","type":"function"},{"inputs":[],"name":"factory","outputs":[{"internalType":"address","name":"","type":"address"}],"stateMutability":"view","type":"function"},{"inputs":[],"name":"feePercentage","outputs":[{"internalType":"uint256","name":"","type":"uint256"}],"stateMutability":"view","type":"function"},{"inputs":[],"name":"feeWallet","outputs":[{"internalType":"address","name":"","type":"address"}],"stateMutability":"view","type":"function"},{"inputs":[],"name":"finalize","outputs":[],"stateMutability":"nonpayable","type":"function"},{"inputs":[],"name":"finalized","outputs":[{"internalType":"bool","name":"","type":"bool"}],"stateMutability":"view","type":"function"},{"inputs":[],"name":"fundingType","outputs":[{"internalType":"uint256","name":"","type":"uint256"}],"stateMutability":"view","type":"function"},{"inputs":[{"internalType":"uint256","name":"uniqueProductId","type":"uint256"}],"name":"getOriginalProductId","outputs":[{"internalType":"uint256","name":"","type":"uint256"}],"stateMutability":"view","type":"function"},{"inputs":[{"internalType":"uint256","name":"productId","type":"uint256"}],"name":"getProduct","outputs":[{"components":[{"internalType":"uint256","name":"productId","type":"uint256"},{"internalType":"uint256","name":"price","type":"uint256"},{"internalType":"uint256","name":"supplyLimit","type":"uint256"}],"internalType":"struct ProductConfig","name":"","type":"tuple"}],"stateMutability":"view","type":"function"},{"inputs":[],"name":"getProductIds","outputs":[{"internalType":"uint256[]","name":"","type":"uint256[]"}],"stateMutability":"view","type":"function"},{"inputs":[{"internalType":"uint256","name":"productId","type":"uint256"}],"name":"getUniqueProductId","outputs":[{"internalType":"uint256","name":"","type":"uint256"}],"stateMutability":"view","type":"function"},{"inputs":[{"internalType":"address","name":"_usdcAddress","type":"address"},{"internalType":"address","name":"_beneficiaryWallet","type":"address"},{"internalType":"address","name":"_feeWallet","type":"address"},{"internalType":"uint256","name":"_feePercentage","type":"uint256"},{"internalType":"uint256","name":"_fundingType","type":"uint256"},{"internalType":"uint256","name":"_minimumTarget","type":"uint256"},{"internalType":"uint256","name":"_deadline","type":"uint256"},{"internalType":"address","name":"_productTokenAddress","type":"address"},{"internalType":"address","name":"_factoryAddress","type":"address"},{"components":[{"internalType":"uint256","name":"productId","type":"uint256"},{"internalType":"uint256","name":"price","type":"uint256"},{"internalType":"uint256","name":"supplyLimit","type":"uint256"}],"internalType":"struct ProductConfig[]","name":"_products","type":"tuple[]"},{"internalType":"address","name":"_campaignAdmin","type":"address"},{"internalType":"address","name":"_owner","type":"address"}],"name":"initialize","outputs":[],"stateMutability":"nonpayable","type":"function"},{"inputs":[],"name":"minimumTarget","outputs":[{"internalType":"uint256","name":"","type":"uint256"}],"stateMutability":"view","type":"function"},{"inputs":[],"name":"owner","outputs":[{"internalType":"address","name":"","type":"address"}],"stateMutability":"view","type":"function"},{"inputs":[],"name":"pause","outputs":[],"stateMutability":"nonpayable","type":"function"},{"inputs":[],"name":"paused","outputs":[{"internalType":"bool","name":"","type":"bool"}],"stateMutability":"view","type":"function"},{"inputs":[{"internalType":"uint256","name":"","type":"uint256"}],"name":"productIds","outputs":[{"internalType":"uint256","name":"","type":"uint256"}],"stateMutability":"view","type":"function"},{"inputs":[{"internalType":"uint256","name":"","type":"uint256"}],"name":"productSoldCount","outputs":[{"internalType":"uint256","name":"","type":"uint256"}],"stateMutability":"view","type":"function"},{"inputs":[],"name":"productToken","outputs":[{"internalType":"contract ProductTokenUpgradeable","name":"","type":"address"}],"stateMutability":"view","type":"function"},{"inputs":[{"internalType":"uint256","name":"","type":"uint256"}],"name":"products","outputs":[{"internalType":"uint256","name":"productId","type":"uint256"},{"internalType":"uint256","name":"price","type":"uint256"},{"internalType":"uint256","name":"supplyLimit","type":"uint256"}],"stateMutability":"view","type":"function"},{"inputs":[],"name":"renounceOwnership","outputs":[],"stateMutability":"nonpayable","type":"function"},{"inputs":[{"internalType":"uint256","name":"","type":"uint256"}],"name":"tokenDeposits","outputs":[{"internalType":"uint256","name":"","type":"uint256"}],"stateMutability":"view","type":"function"},{"inputs":[],"name":"totalRaised","outputs":[{"internalType":"uint256","name":"","type":"uint256"}],"stateMutability":"view","type":"function"},{"inputs":[{"internalType":"address","name":"newOwner","type":"address"}],"name":"transferOwnership","outputs":[],"stateMutability":"nonpayable","type":"function"},{"inputs":[{"internalType":"uint256","name":"","type":"uint256"}],"name":"uniqueToOriginalProductId","outputs":[{"internalType":"uint256","name":"","type":"uint256"}],"stateMutability":"view","type":"function"},{"inputs":[],"name":"unpause","outputs":[],"stateMutability":"nonpayable","type":"function"},{"inputs":[{"internalType":"uint256","name":"productId","type":"uint256"},{"internalType":"uint256","name":"newPrice","type":"uint256"},{"internalType":"uint256","name":"newSupplyLimit","type":"uint256"}],"name":"updateProduct","outputs":[],"stateMutability":"nonpayable","type":"function"},{"inputs":[],"name":"usdc","outputs":[{"internalType":"contract IERC20","name":"","type":"address"}],"stateMutability":"view","type":"function"}],"evm":{"bytecode":{"linkReferences":{},"object":"6080806040523460d2577ff0c57e16840df040f15088dc2f81fe391c3923bec73e23a9662efc9c229c6a005460ff8160401c1660c1576002600160401b03196001600160401b03821601605c575b60405161241790816100d88239f35b6001600160401b0319166001600160401b039081177ff0c57e16840df040f15088dc2f81fe391c3923bec73e23a9662efc9c229c6a005581527fc7f505b2f371ae2175ee4913f4499e1f2633a7b5936321eed1cdaeb6115181d290602090a13880604d565b63f92ee8a960e01b60005260046000fd5b600080fdfe608080604052600436101561001357600080fd5b600090813560e01c90816325b4f65f14611c94575080632903d9cf14611c6a57806329dcb0cf14611c4c5780633e413bee14611c255780633f4ba83a14611ba357806342235da614611b8557806347428e7b14611acf5780634bb278f31461196d5780635c975abb1461193d5780635cb04079146111ce57806366bff1db146111a4578063715018a61461113a57806372afddf01461111157806375390e73146110d25780637acc0b20146110825780638456cb591461100d5780638500efa114610fe65780638527d58f14610c305780638da5cb5b14610bfa578063a001ecdd14610bdc578063b3f05b9714610bb9578063b9db15b414610b39578063c45a015514610b10578063c5c4744c14610af2578063c978863114610ac9578063cb51bba914610a72578063dd5934b314610902578063e1f1c4a7146108e5578063e2bbb15814610422578063ebd692ea146103f8578063f25f4b56146103cf578063f2fde38b146103a2578063f85292ca146101b75763fa8ab0ee1461019757600080fd5b346101b457806003193601126101b4576020600d54604051908152f35b80fd5b50346101b45760603660031901126101b4576024356044359060018060a01b0360008051602061236283398151915254163314801561038e575b6101fa90611d81565b610205600435612262565b91828452600e60205261022060016040862001541515611e79565b61022b821515611f89565b828452600e60205260016040852001548203610337575b806102ca575b7fcbbdbe54b7b042a5d03f5b760745fbebd762875c3197b43499936461abc3395091608091848652600e602052600160408720015491858752600e602052600260408820015490868852600e60205280600160408a200155868852600e60205282600260408a200155604051938452602084015260408301526060820152a280f35b828452600c60205260408420548110156102485760405162461bcd60e51b815260206004820152602b60248201527f537570706c79206c696d69742063616e6e6f74206265206c657373207468616e60448201526a081cdbdb190818dbdd5b9d60aa1b6064820152608490fd5b828452600c6020526040842054156102425760405162461bcd60e51b815260206004820152601f60248201527f43616e6e6f74206368616e67652070726963652061667465722073616c6573006044820152606490fd5b506010546001600160a01b031633146101f1565b50346101b45760203660031901126101b4576103cc6103bf611cb9565b6103c76120e3565b61206d565b80f35b50346101b457806003193601126101b4576004546040516001600160a01b039091168152602090f35b50346101b45760203660031901126101b45760406020916004358152600c83522054604051908152f35b50346101b45761044b61043436611d28565b919061043e612119565b610446612155565b612262565b808352600e6020526040832060405161046381611cd4565b8154815260406002600184015493602084019485520154910190815260ff600954166108a8576001600d5403610865575b6104a082511515611ebe565b831561082d57808491516107cb575b506104ba9151611f53565b916127106104ca60075485611f53565b04906104d68285611f7c565b85546040516323b872dd60e01b60208201523360248201523060448201526064808201889052815291949161051e916001600160a01b0316610519608483611d06565b612306565b6002546001546001600160a01b0390811691889116803b156107c75760405163465075e360e11b81526001600160a01b03939093166004840152336024840152604483018490526064830185905281908390608490829084905af191826107ae575b50506107165785858160033d11610706575b6308c379a014610658575b3d1561064f573d67ffffffffffffffff811161063b576040516105ea93916105cf601f8201601f191660200183611d06565b81528160203d92013e5b5433906001600160a01b031661229a565b60405162461bcd60e51b8152602060048201526024808201527f4e4654206d696e74206661696c65642077697468206c6f772d6c6576656c2065604482015263393937b960e11b6064820152608490fd5b634e487b7160e01b83526041600452602483fd5b6105ea916105d9565b610660611fd2565b8061066b575061059d565b6106866044926106f894339060018060a01b0390541661229a565b604051906106d0603183602081019370027232a1036b4b73a103330b4b632b21d1607d1b85526106bf815180926020868601910161204a565b81010301601f198101845283611d06565b60405193849262461bcd60e51b8452602060048501525180928160248601528585019061204a565b601f01601f19168101030190fd5b50600482803e815160e01c610592565b8580955052600c60205261072f60408520918254611fc5565b905561073d82600854611fc5565b6008558061078c575b60405191825260208201527f90890809c654f11d6e72a28fa60149770a0d11ec6c92319d6ceb2bb0a4ea1a1560403392a260016000805160206123a28339815191525580f35b82546004546107a99183916001600160a01b03908116911661229a565b610746565b816107b891611d06565b6107c3578638610580565b8680fd5b5080fd5b9050828552600c6020526107e3846040872054611fc5565b9051106107f15782386104af565b60405162461bcd60e51b8152602060048201526014602482015273115e18d959591cc81cdd5c1c1b1e481b1a5b5a5d60621b6044820152606490fd5b60405162461bcd60e51b815260206004820152601060248201526f496e76616c6964207175616e7469747960801b6044820152606490fd5b60065442106104945760405162461bcd60e51b815260206004820152601260248201527110d85b5c185a59db881a185cc8195b99195960721b6044820152606490fd5b60405162461bcd60e51b815260206004820152601560248201527410d85b5c185a59db881a5cc8199a5b985b1a5e9959605a1b6044820152606490fd5b50346101b457806003193601126101b45760206040516127108152f35b50346101b45760603660031901126101b45760405161092081611cd4565b60043581526020810160243581526040820191604435835260018060a01b03600080516020612362833981519152541633148015610a5e575b61096290611d81565b61096e82511515611f89565b61097a81511515611de8565b6109848151612262565b92838552600e6020526001604086200154610a2057826040927f0bb34bc6bcdd4ba28b7de4669c2e7d94d1b828b2a6a14b82991e087b20d735499451600284518651926109d084611cd4565b89845260208401908152878401918252898b52600e602052878b209351845551600184015551910155610a0286611e29565b51858752600f6020528387205551905182519182526020820152a280f35b60405162461bcd60e51b815260206004820152601660248201527550726f6475637420616c72656164792065786973747360501b6044820152606490fd5b506010546001600160a01b03163314610959565b50346101b45760203660031901126101b45760043590600b548210156101b457600b54821015610ab557602091600b825282822001549060031b1c604051908152f35b634e487b7160e01b81526032600452602490fd5b50346101b457806003193601126101b4576003546040516001600160a01b039091168152602090f35b50346101b457806003193601126101b4576020600854604051908152f35b50346101b457806003193601126101b4576002546040516001600160a01b039091168152602090f35b50346101b45760203660031901126101b457604081606092828051610b5d81611cd4565b8281528260208201520152610b73600435612262565b8152600e60205220604051610b8781611cd4565b815491828252604060026001830154926020850193845201549201918252604051928352516020830152516040820152f35b50346101b457806003193601126101b457602060ff600954166040519015158152f35b50346101b457806003193601126101b4576020600754604051908152f35b50346101b457806003193601126101b457600080516020612362833981519152546040516001600160a01b039091168152602090f35b50346101b457610c4261043436611d28565b90818352600e60205260408320610c80604051610c5e81611cd4565b8254815260018301549060406002602083019584875201549101521515611ebe565b600d5480610ec45750610c9860085460055411611efc565b600154604051627eeac760e11b8152336004820152602481018590526001600160a01b0390911690602081604481855afa8015610eb95784918791610e80575b5010610e3b576002546001600160a01b0316908590823b156107c75760405163270a2a6560e01b81526001600160a01b039190911660048201523360248201526044810186905260648101859052918290608490829084905af18015610e3057610df0575b5090610d8681610d8184612710610d797fb7048c2ad36aadee977bb16b4543a18866044d27a2ca753e1c7dbcfa7d7a6962975160075490611f53565b049051611f7c565b611f53565b92610d9b843360018060a01b0388541661229a565b808552600c60205260408520610db2838254611f7c565b9055610dc084600854611f7c565b6008556040805194855260208501919091528301523391606090a260016000805160206123a28339815191525580f35b82610d8186610e257fb7048c2ad36aadee977bb16b4543a18866044d27a2ca753e1c7dbcfa7d7a6962969598610d8695611d06565b969350509250610d3d565b6040513d87823e3d90fd5b60405162461bcd60e51b815260206004820152601860248201527f496e73756666696369656e74204e46542062616c616e636500000000000000006044820152606490fd5b9150506020813d602011610eb1575b81610e9c60209383611d06565b81010312610ead5783905138610cd8565b8580fd5b3d9150610e8f565b6040513d88823e3d90fd5b60018103610f30575060ff6009541615610c985760405162461bcd60e51b815260206004820152602a60248201527f43616d706169676e2066696e616c697a6564202d20726566756e6473206e6f7460448201526920617661696c61626c6560b01b6064820152608490fd5b600203610faa57600654421015610f5557610f5060085460055411611efc565b610c98565b60405162461bcd60e51b815260206004820152602760248201527f446561646c696e6520706173736564202d20726566756e6473206e6f7420617660448201526661696c61626c6560c81b6064820152608490fd5b60405162461bcd60e51b8152602060048201526014602482015273496e76616c69642066756e64696e67207479706560601b6044820152606490fd5b50346101b45760203660031901126101b4576020611005600435612262565b604051908152f35b50346101b457806003193601126101b4576110266120e3565b61102e612155565b600160ff19600080516020612382833981519152541617600080516020612382833981519152557f62e78cea01bee320cd4e420270b5ea74000d11b0c9f74754ebdbfc544b05a2586020604051338152a180f35b50346101b45760203660031901126101b4576040906004358152600e6020522080546110ce60026001840154930154604051938493846040919493926060820195825260208201520152565b0390f35b50346101b45760203660031901126101b4576040602091600435808252600f8452611101838320541515611e79565b8152600f83522054604051908152f35b50346101b457806003193601126101b4576010546040516001600160a01b039091168152602090f35b50346101b457806003193601126101b4576111536120e3565b60008051602061236283398151915280546001600160a01b0319811690915581906001600160a01b03167f8be0079c531659141344cd1fd0a4f28419497f9722a3daafe3b4186f6b6457e08280a380f35b50346101b45760203660031901126101b45760406020916004358152600a83522054604051908152f35b50346101b4576101803660031901126101b4576111e9611cb9565b6024356001600160a01b03811690819003611939576044356001600160a01b03811691908290036119355760643560e4356001600160a01b0381169060c435908290036107c357610104356001600160a01b038116939084900361193157610124359567ffffffffffffffff871161192d573660238801121561192d57866004013567ffffffffffffffff8111611919576040519761128e60208360051b018a611d06565b8189526024606060208b019302820101903682116118d557602401915b8183106118dd57505050610144356001600160a01b03811696908790036118d95761016435986001600160a01b038a1690818b036118d5576000805160206123c2833981519152549a60ff8c60401c16159b8c67ffffffffffffffff8216801591826118cd575b5060011490816118c3575b1590816118ba575b506118ab5767ffffffffffffffff1981166001176000805160206123c28339815191525561136591908d61187e575b5061135d6122d8565b6103c76122d8565b61136d6122d8565b6113756122d8565b61137d6122d8565b60016000805160206123a2833981519152556001600160a01b03169081156118425782156117fd5783156117c357861561177e5787156117395742861115611701578951156116c55788156116875715611652576127108410156115ff576001600160601b0360a01b8b5416178a556001600160601b0360a01b60035416176003556001600160601b0360a01b600454161760045560075560a4356005556006556001600160601b0360a01b60015416176001556001600160601b0360a01b60025416176002556001600160601b0360a01b6010541617601055608435600d55825b815181101561159c5760206114748284611dbe565b5101511561155f578061149561148c60019385611dbe565b51511515611de8565b61149f8184611dbe565b51516040513060601b6bffffffffffffffffffffffff19166020820190815260348201929092526114dd81605481015b03601f198101835282611d06565b51902060206114ec8386611dbe565b510151600260406114fd8588611dbe565b5101516040519261150d84611cd4565b8484526020840190815260408401918252848a52600e60205260408a209351845551868401555191015561154081611e29565b61154a8285611dbe565b5151908652600f60205260408620550161145f565b60405162461bcd60e51b8152602060048201526015602482015274496e76616c69642070726f6475637420707269636560581b6044820152606490fd5b50506115a55780f35b68ff0000000000000000196000805160206123c283398151915254166000805160206123c2833981519152557fc7f505b2f371ae2175ee4913f4499e1f2633a7b5936321eed1cdaeb6115181d2602060405160018152a180f35b60405162461bcd60e51b815260206004820152602560248201527f4665652070657263656e74616765206d757374206265206c657373207468616e604482015264203130302560d81b6064820152608490fd5b60405162461bcd60e51b815260206004820152600d60248201526c24b73b30b634b21037bbb732b960991b6044820152606490fd5b60405162461bcd60e51b815260206004820152601660248201527524b73b30b634b21031b0b6b830b4b3b71030b236b4b760511b6044820152606490fd5b60405162461bcd60e51b8152602060048201526014602482015273139bc81c1c9bd91d58dd1cc81c1c9bdd9a59195960621b6044820152606490fd5b60405162461bcd60e51b815260206004820152601060248201526f496e76616c696420646561646c696e6560801b6044820152606490fd5b60405162461bcd60e51b815260206004820152601760248201527f496e76616c696420666163746f727920616464726573730000000000000000006044820152606490fd5b60405162461bcd60e51b815260206004820152601d60248201527f496e76616c69642070726f6475637420746f6b656e20616464726573730000006044820152606490fd5b60405162461bcd60e51b8152602060048201526012602482015271125b9d985b1a5908199959481dd85b1b195d60721b6044820152606490fd5b60405162461bcd60e51b815260206004820152601a60248201527f496e76616c69642062656e65666963696172792077616c6c65740000000000006044820152606490fd5b60405162461bcd60e51b8152602060048201526014602482015273496e76616c69642055534443206164647265737360601b6044820152606490fd5b68ffffffffffffffffff191668010000000000000001176000805160206123c28339815191525538611354565b63f92ee8a960e01b8e5260048efd5b90501538611325565b303b15915061131d565b91508e611312565b8b80fd5b8980fd5b6060833603126118d55760206060916040516118f881611cd4565b853581528286013583820152604086013560408201528152019201916112ab565b634e487b7160e01b8a52604160045260248afd5b8880fd5b8780fd5b8380fd5b8280fd5b50346101b457806003193601126101b457602060ff60008051602061238283398151915254166040519015158152f35b50346101b457806003193601126101b457611986612119565b61198e612155565b60ff60095416611a9657600d5480611a1a5750600854600554116119c9576119b461217f565b60016000805160206123a28339815191525580f35b6119d66006544211611d3e565b600160ff1960095416176009557fdd0f555ae5273de37f96c52aa0ba4ae26fc23a0d7b0e2b8904ba8cf1636d6ce060406008548151908482526020820152a16119b4565b60018103611a6f5750600080516020612362833981519152546001600160a01b031633148015611a5b575b611a4e90611d81565b611a5661217f565b6119b4565b506010546001600160a01b03163314611a45565b6002036119b45760085460055411611a8957611a5661217f565b611a4e6006544211611d3e565b60405162461bcd60e51b8152602060048201526011602482015270105b1c9958591e48199a5b985b1a5e9959607a1b6044820152606490fd5b50346101b457806003193601126101b457604051806020600b5491828152018091600b85527f0175b7a638427703f0dbe7bb9bbf987a2551717b34e79f33b5b1008d1fa01db990855b818110611b6f5750505082611b2e910383611d06565b604051928392602084019060208552518091526040840192915b818110611b56575050500390f35b8251845285945060209384019390920191600101611b48565b8254845260209093019260019283019201611b18565b50346101b457806003193601126101b4576020600554604051908152f35b50346101b457806003193601126101b457611bbc6120e3565b6000805160206123828339815191525460ff811615611c165760ff1916600080516020612382833981519152557f5db9ee0a495bf2e6ff9c91a7834c1ba4fdd244a5e8aa4e537bd38aeae4b073aa6020604051338152a180f35b638dfc202b60e01b8252600482fd5b50346101b457806003193601126101b457546040516001600160a01b039091168152602090f35b50346101b457806003193601126101b4576020600654604051908152f35b50346101b45760203660031901126101b45760406020916004358152600f83522054604051908152f35b9050346107c757816003193601126107c7576001546001600160a01b03168152602090f35b600435906001600160a01b0382168203611ccf57565b600080fd5b6060810190811067ffffffffffffffff821117611cf057604052565b634e487b7160e01b600052604160045260246000fd5b90601f8019910116810190811067ffffffffffffffff821117611cf057604052565b6040906003190112611ccf576004359060243590565b15611d4557565b60405162461bcd60e51b8152602060048201526014602482015273111958591b1a5b99481b9bdd081c995858da195960621b6044820152606490fd5b15611d8857565b60405162461bcd60e51b815260206004820152600e60248201526d139bdd08185d5d1a1bdc9a5e995960921b6044820152606490fd5b8051821015611dd25760209160051b010190565b634e487b7160e01b600052603260045260246000fd5b15611def57565b60405162461bcd60e51b8152602060048201526012602482015271125b9d985b1a59081c1c9bd91d58dd08125160721b6044820152606490fd5b600b5468010000000000000000811015611cf05760018101600b556000600b54821015610ab557600b90527f0175b7a638427703f0dbe7bb9bbf987a2551717b34e79f33b5b1008d1fa01db90155565b15611e8057565b60405162461bcd60e51b8152602060048201526016602482015275141c9bd91d58dd08191bd95cc81b9bdd08195e1a5cdd60521b6044820152606490fd5b15611ec557565b60405162461bcd60e51b815260206004820152600f60248201526e125b9d985b1a59081c1c9bd91d58dd608a1b6044820152606490fd5b15611f0357565b60405162461bcd60e51b815260206004820152602260248201527f546172676574206d6574202d20726566756e6473206e6f7420617661696c61626044820152616c6560f01b6064820152608490fd5b81810292918115918404141715611f6657565b634e487b7160e01b600052601160045260246000fd5b91908203918211611f6657565b15611f9057565b60405162461bcd60e51b815260206004820152600d60248201526c496e76616c696420707269636560981b6044820152606490fd5b91908201809211611f6657565b600060443d10612039576040513d600319016004823e8051913d602484011167ffffffffffffffff841117612044578282019283519167ffffffffffffffff831161203c573d8401600319018584016020011161203c575061203992910160200190611d06565b90565b949350505050565b92915050565b60005b83811061205d5750506000910152565b818101518382015260200161204d565b6001600160a01b031680156120cd5760008051602061236283398151915280546001600160a01b0319811683179091556001600160a01b03167f8be0079c531659141344cd1fd0a4f28419497f9722a3daafe3b4186f6b6457e0600080a3565b631e4fbdf760e01b600052600060045260246000fd5b600080516020612362833981519152546001600160a01b0316330361210457565b63118cdaa760e01b6000523360045260246000fd5b60026000805160206123a283398151915254146121445760026000805160206123a283398151915255565b633ee5aeb560e01b60005260046000fd5b60ff600080516020612382833981519152541661216e57565b63d93c066560e01b60005260046000fd5b6009805460ff191660011790556000546040516370a0823160e01b81523060048201526001600160a01b039190911690602081602481855afa90811561225657600091612224575b5080612205575b50507fdd0f555ae5273de37f96c52aa0ba4ae26fc23a0d7b0e2b8904ba8cf1636d6ce06040600854815190600182526020820152a1565b60035461221d926001600160a01b039091169061229a565b38806121ce565b906020823d60201161224e575b8161223e60209383611d06565b810103126101b4575051386121c7565b3d9150612231565b6040513d6000823e3d90fd5b6040513060601b6bffffffffffffffffffffffff191660208201908152603482019290925261229481605481016114cf565b51902090565b60405163a9059cbb60e01b60208201526001600160a01b039290921660248301526044808301939093529181526122d691610519606483611d06565b565b60ff6000805160206123c28339815191525460401c16156122f557565b631afcd79f60e31b60005260046000fd5b906000602091828151910182855af115612256576000513d61235857506001600160a01b0381163b155b6123375750565b635274afe760e01b60009081526001600160a01b0391909116600452602490fd5b6001141561233056fe9016d09d72d40fdae2fd8ceac6b6234c7706214fd39c1cd1e609a0528c199300cd5ed15c6e187e77e9aee88184c21f4f2182ab5827cb3b7e07fbedcd63f033009b779b17422d0df92223018b32b4d1fa46e071723d6817e2486d003becc55f00f0c57e16840df040f15088dc2f81fe391c3923bec73e23a9662efc9c229c6a00a2646970667358221220d44f6795ecd11eb09cc6b29d95bae73c3b8f7172ef0ef7a6c5acfc77bbab671764736f6c634300081b0033","opcodes":"PUSH1 0x80 DUP1 PUSH1 0x40 MSTORE CALLVALUE PUSH1 0xD2 JUMPI PUSH32 0xF0C57E16840DF040F15088DC2F81FE391C3923BEC73E23A9662EFC9C229C6A00 SLOAD PUSH1 0xFF DUP2 PUSH1 0x40 SHR AND PUSH1 0xC1 JUMPI PUSH1 0x2 PUSH1 0x1 PUSH1 0x40 SHL SUB NOT PUSH1 0x1 PUSH1 0x1 PUSH1 0x40 SHL SUB DUP3 AND ADD PUSH1 0x5C JUMPI JUMPDEST PUSH1 0x40 MLOAD PUSH2 0x2417 SWAP1 DUP2 PUSH2 0xD8 DUP3 CODECOPY RETURN JUMPDEST PUSH1 0x1 PUSH1 0x1 PUSH1 0x40 SHL SUB NOT AND PUSH1 0x1 PUSH1 0x1 PUSH1 0x40 SHL SUB SWAP1 DUP2 OR PUSH32 0xF0C57E16840DF040F15088DC2F81FE391C3923BEC73E23A9662EFC9C229C6A00 SSTORE DUP2 MSTORE PUSH32 0xC7F505B2F371AE2175EE4913F4499E1F2633A7B5936321EED1CDAEB6115181D2 SWAP1 PUSH1 0x20 SWAP1 LOG1 CODESIZE DUP1 PUSH1 0x4D JUMP JUMPDEST PUSH4 0xF92EE8A9 PUSH1 0xE0 SHL PUSH1 0x0 MSTORE PUSH1 0x4 PUSH1 0x0 REVERT JUMPDEST PUSH1 0x0 DUP1 REVERT INVALID PUSH1 0x80 DUP1 PUSH1 0x40 MSTORE PUSH1 0x4 CALLDATASIZE LT ISZERO PUSH2 0x13 JUMPI PUSH1 0x0 DUP1 REVERT JUMPDEST PUSH1 0x0 SWAP1 DUP2 CALLDATALOAD PUSH1 0xE0 SHR SWAP1 DUP2 PUSH4 0x25B4F65F EQ PUSH2 0x1C94 JUMPI POP DUP1 PUSH4 0x2903D9CF EQ PUSH2 0x1C6A JUMPI DUP1 PUSH4 0x29DCB0CF EQ PUSH2 0x1C4C JUMPI DUP1 PUSH4 0x3E413BEE EQ PUSH2 0x1C25 JUMPI DUP1 PUSH4 0x3F4BA83A EQ PUSH2 0x1BA3 JUMPI DUP1 PUSH4 0x42235DA6 EQ PUSH2 0x1B85 JUMPI DUP1 PUSH4 0x47428E7B EQ PUSH2 0x1ACF JUMPI DUP1 PUSH4 0x4BB278F3 EQ PUSH2 0x196D JUMPI DUP1 PUSH4 0x5C975ABB EQ PUSH2 0x193D JUMPI DUP1 PUSH4 0x5CB04079 EQ PUSH2 0x11CE JUMPI DUP1 PUSH4 0x66BFF1DB EQ PUSH2 0x11A4 JUMPI DUP1 PUSH4 0x715018A6 EQ PUSH2 0x113A JUMPI DUP1 PUSH4 0x72AFDDF0 EQ PUSH2 0x1111 JUMPI DUP1 PUSH4 0x75390E73 EQ PUSH2 0x10D2 JUMPI DUP1 PUSH4 0x7ACC0B20 EQ PUSH2 0x1082 JUMPI DUP1 PUSH4 0x8456CB59 EQ PUSH2 0x100D JUMPI DUP1 PUSH4 0x8500EFA1 EQ PUSH2 0xFE6 JUMPI DUP1 PUSH4 0x8527D58F EQ PUSH2 0xC30 JUMPI DUP1 PUSH4 0x8DA5CB5B EQ PUSH2 0xBFA JUMPI DUP1 PUSH4 0xA001ECDD EQ PUSH2 0xBDC JUMPI DUP1 PUSH4 0xB3F05B97 EQ PUSH2 0xBB9 JUMPI DUP1 PUSH4 0xB9DB15B4 EQ PUSH2 0xB39 JUMPI DUP1 PUSH4 0xC45A0155 EQ PUSH2 0xB10 JUMPI DUP1 PUSH4 0xC5C4744C EQ PUSH2 0xAF2 JUMPI DUP1 PUSH4 0xC9788631 EQ PUSH2 0xAC9 JUMPI DUP1 PUSH4 0xCB51BBA9 EQ PUSH2 0xA72 JUMPI DUP1 PUSH4 0xDD5934B3 EQ PUSH2 0x902 JUMPI DUP1 PUSH4 0xE1F1C4A7 EQ PUSH2 0x8E5 JUMPI DUP1 PUSH4 0xE2BBB158 EQ PUSH2 0x422 JUMPI DUP1 PUSH4 0xEBD692EA EQ PUSH2 0x3F8 JUMPI DUP1 PUSH4 0xF25F4B56 EQ PUSH2 0x3CF JUMPI DUP1 PUSH4 0xF2FDE38B EQ PUSH2 0x3A2 JUMPI DUP1 PUSH4 0xF85292CA EQ PUSH2 0x1B7 JUMPI PUSH4 0xFA8AB0EE EQ PUSH2 0x197 JUMPI PUSH1 0x0 DUP1 REVERT JUMPDEST CALLVALUE PUSH2 0x1B4 JUMPI DUP1 PUSH1 0x3 NOT CALLDATASIZE ADD SLT PUSH2 0x1B4 JUMPI PUSH1 0x20 PUSH1 0xD SLOAD PUSH1 0x40 MLOAD SWAP1 DUP2 MSTORE RETURN JUMPDEST DUP1 REVERT JUMPDEST POP CALLVALUE PUSH2 0x1B4 JUMPI PUSH1 0x60 CALLDATASIZE PUSH1 0x3 NOT ADD SLT PUSH2 0x1B4 JUMPI PUSH1 0x24 CALLDATALOAD PUSH1 0x44 CALLDATALOAD SWAP1 PUSH1 0x1 DUP1 PUSH1 0xA0 SHL SUB PUSH1 0x0 DUP1 MLOAD PUSH1 0x20 PUSH2 0x2362 DUP4 CODECOPY DUP2 MLOAD SWAP2 MSTORE SLOAD AND CALLER EQ DUP1 ISZERO PUSH2 0x38E JUMPI JUMPDEST PUSH2 0x1FA SWAP1 PUSH2 0x1D81 JUMP JUMPDEST PUSH2 0x205 PUSH1 0x4 CALLDATALOAD PUSH2 0x2262 JUMP JUMPDEST SWAP2 DUP3 DUP5 MSTORE PUSH1 0xE PUSH1 0x20 MSTORE PUSH2 0x220 PUSH1 0x1 PUSH1 0x40 DUP7 KECCAK256 ADD SLOAD ISZERO ISZERO PUSH2 0x1E79 JUMP JUMPDEST PUSH2 0x22B DUP3 ISZERO ISZERO PUSH2 0x1F89 JUMP JUMPDEST DUP3 DUP5 MSTORE PUSH1 0xE PUSH1 0x20 MSTORE PUSH1 0x1 PUSH1 0x40 DUP6 KECCAK256 ADD SLOAD DUP3 SUB PUSH2 0x337 JUMPI JUMPDEST DUP1 PUSH2 0x2CA JUMPI JUMPDEST PUSH32 0xCBBDBE54B7B042A5D03F5B760745FBEBD762875C3197B43499936461ABC33950 SWAP2 PUSH1 0x80 SWAP2 DUP5 DUP7 MSTORE PUSH1 0xE PUSH1 0x20 MSTORE PUSH1 0x1 PUSH1 0x40 DUP8 KECCAK256 ADD SLOAD SWAP2 DUP6 DUP8 MSTORE PUSH1 0xE PUSH1 0x20 MSTORE PUSH1 0x2 PUSH1 0x40 DUP9 KECCAK256 ADD SLOAD SWAP1 DUP7 DUP9 MSTORE PUSH1 0xE PUSH1 0x20 MSTORE DUP1 PUSH1 0x1 PUSH1 0x40 DUP11 KECCAK256 ADD SSTORE DUP7 DUP9 MSTORE PUSH1 0xE PUSH1 0x20 MSTORE DUP3 PUSH1 0x2 PUSH1 0x40 DUP11 KECCAK256 ADD SSTORE PUSH1 0x40 MLOAD SWAP4 DUP5 MSTORE PUSH1 0x20 DUP5 ADD MSTORE PUSH1 0x40 DUP4 ADD MSTORE PUSH1 0x60 DUP3 ADD MSTORE LOG2 DUP1 RETURN JUMPDEST DUP3 DUP5 MSTORE PUSH1 0xC PUSH1 0x20 MSTORE PUSH1 0x40 DUP5 KECCAK256 SLOAD DUP2 LT ISZERO PUSH2 0x248 JUMPI PUSH1 0x40 MLOAD PUSH3 0x461BCD PUSH1 0xE5 SHL DUP2 MSTORE PUSH1 0x20 PUSH1 0x4 DUP3 ADD MSTORE PUSH1 0x2B PUSH1 0x24 DUP3 ADD MSTORE PUSH32 0x537570706C79206C696D69742063616E6E6F74206265206C657373207468616E PUSH1 0x44 DUP3 ADD MSTORE PUSH11 0x81CDBDB190818DBDD5B9D PUSH1 0xAA SHL PUSH1 0x64 DUP3 ADD MSTORE PUSH1 0x84 SWAP1 REVERT JUMPDEST DUP3 DUP5 MSTORE PUSH1 0xC PUSH1 0x20 MSTORE PUSH1 0x40 DUP5 KECCAK256 SLOAD ISZERO PUSH2 0x242 JUMPI PUSH1 0x40 MLOAD PUSH3 0x461BCD PUSH1 0xE5 SHL DUP2 MSTORE PUSH1 0x20 PUSH1 0x4 DUP3 ADD MSTORE PUSH1 0x1F PUSH1 0x24 DUP3 ADD MSTORE PUSH32 0x43616E6E6F74206368616E67652070726963652061667465722073616C657300 PUSH1 0x44 DUP3 ADD MSTORE PUSH1 0x64 SWAP1 REVERT JUMPDEST POP PUSH1 0x10 SLOAD PUSH1 0x1 PUSH1 0x1 PUSH1 0xA0 SHL SUB AND CALLER EQ PUSH2 0x1F1 JUMP JUMPDEST POP CALLVALUE PUSH2 0x1B4 JUMPI PUSH1 0x20 CALLDATASIZE PUSH1 0x3 NOT ADD SLT PUSH2 0x1B4 JUMPI PUSH2 0x3CC PUSH2 0x3BF PUSH2 0x1CB9 JUMP JUMPDEST PUSH2 0x3C7 PUSH2 0x20E3 JUMP JUMPDEST PUSH2 0x206D JUMP JUMPDEST DUP1 RETURN JUMPDEST POP CALLVALUE PUSH2 0x1B4 JUMPI DUP1 PUSH1 0x3 NOT CALLDATASIZE ADD SLT PUSH2 0x1B4 JUMPI PUSH1 0x4 SLOAD PUSH1 0x40 MLOAD PUSH1 0x1 PUSH1 0x1 PUSH1 0xA0 SHL SUB SWAP1 SWAP2 AND DUP2 MSTORE PUSH1 0x20 SWAP1 RETURN JUMPDEST POP CALLVALUE PUSH2 0x1B4 JUMPI PUSH1 0x20 CALLDATASIZE PUSH1 0x3 NOT ADD SLT PUSH2 0x1B4 JUMPI PUSH1 0x40 PUSH1 0x20 SWAP2 PUSH1 0x4 CALLDATALOAD DUP2 MSTORE PUSH1 0xC DUP4 MSTORE KECCAK256 SLOAD PUSH1 0x40 MLOAD SWAP1 DUP2 MSTORE RETURN JUMPDEST POP CALLVALUE PUSH2 0x1B4 JUMPI PUSH2 0x44B PUSH2 0x434 CALLDATASIZE PUSH2 0x1D28 JUMP JUMPDEST SWAP2 SWAP1 PUSH2 0x43E PUSH2 0x2119 JUMP JUMPDEST PUSH2 0x446 PUSH2 0x2155 JUMP JUMPDEST PUSH2 0x2262 JUMP JUMPDEST DUP1 DUP4 MSTORE PUSH1 0xE PUSH1 0x20 MSTORE PUSH1 0x40 DUP4 KECCAK256 PUSH1 0x40 MLOAD PUSH2 0x463 DUP2 PUSH2 0x1CD4 JUMP JUMPDEST DUP2 SLOAD DUP2 MSTORE PUSH1 0x40 PUSH1 0x2 PUSH1 0x1 DUP5 ADD SLOAD SWAP4 PUSH1 0x20 DUP5 ADD SWAP5 DUP6 MSTORE ADD SLOAD SWAP2 ADD SWAP1 DUP2 MSTORE PUSH1 0xFF PUSH1 0x9 SLOAD AND PUSH2 0x8A8 JUMPI PUSH1 0x1 PUSH1 0xD SLOAD SUB PUSH2 0x865 JUMPI JUMPDEST PUSH2 0x4A0 DUP3 MLOAD ISZERO ISZERO PUSH2 0x1EBE JUMP JUMPDEST DUP4 ISZERO PUSH2 0x82D JUMPI DUP1 DUP5 SWAP2 MLOAD PUSH2 0x7CB JUMPI JUMPDEST POP PUSH2 0x4BA SWAP2 MLOAD PUSH2 0x1F53 JUMP JUMPDEST SWAP2 PUSH2 0x2710 PUSH2 0x4CA PUSH1 0x7 SLOAD DUP6 PUSH2 0x1F53 JUMP JUMPDEST DIV SWAP1 PUSH2 0x4D6 DUP3 DUP6 PUSH2 0x1F7C JUMP JUMPDEST DUP6 SLOAD PUSH1 0x40 MLOAD PUSH4 0x23B872DD PUSH1 0xE0 SHL PUSH1 0x20 DUP3 ADD MSTORE CALLER PUSH1 0x24 DUP3 ADD MSTORE ADDRESS PUSH1 0x44 DUP3 ADD MSTORE PUSH1 0x64 DUP1 DUP3 ADD DUP9 SWAP1 MSTORE DUP2 MSTORE SWAP2 SWAP5 SWAP2 PUSH2 0x51E SWAP2 PUSH1 0x1 PUSH1 0x1 PUSH1 0xA0 SHL SUB AND PUSH2 0x519 PUSH1 0x84 DUP4 PUSH2 0x1D06 JUMP JUMPDEST PUSH2 0x2306 JUMP JUMPDEST PUSH1 0x2 SLOAD PUSH1 0x1 SLOAD PUSH1 0x1 PUSH1 0x1 PUSH1 0xA0 SHL SUB SWAP1 DUP2 AND SWAP2 DUP9 SWAP2 AND DUP1 EXTCODESIZE ISZERO PUSH2 0x7C7 JUMPI PUSH1 0x40 MLOAD PUSH4 0x465075E3 PUSH1 0xE1 SHL DUP2 MSTORE PUSH1 0x1 PUSH1 0x1 PUSH1 0xA0 SHL SUB SWAP4 SWAP1 SWAP4 AND PUSH1 0x4 DUP5 ADD MSTORE CALLER PUSH1 0x24 DUP5 ADD MSTORE PUSH1 0x44 DUP4 ADD DUP5 SWAP1 MSTORE PUSH1 0x64 DUP4 ADD DUP6 SWAP1 MSTORE DUP2 SWAP1 DUP4 SWAP1 PUSH1 0x84 SWAP1 DUP3 SWAP1 DUP5 SWAP1 GAS CALL SWAP2 DUP3 PUSH2 0x7AE JUMPI JUMPDEST POP POP PUSH2 0x716 JUMPI DUP6 DUP6 DUP2 PUSH1 0x3 RETURNDATASIZE GT PUSH2 0x706 JUMPI JUMPDEST PUSH4 0x8C379A0 EQ PUSH2 0x658 JUMPI JUMPDEST RETURNDATASIZE ISZERO PUSH2 0x64F JUMPI RETURNDATASIZE PUSH8 0xFFFFFFFFFFFFFFFF DUP2 GT PUSH2 0x63B JUMPI PUSH1 0x40 MLOAD PUSH2 0x5EA SWAP4 SWAP2 PUSH2 0x5CF PUSH1 0x1F DUP3 ADD PUSH1 0x1F NOT AND PUSH1 0x20 ADD DUP4 PUSH2 0x1D06 JUMP JUMPDEST DUP2 MSTORE DUP2 PUSH1 0x20 RETURNDATASIZE SWAP3 ADD RETURNDATACOPY JUMPDEST SLOAD CALLER SWAP1 PUSH1 0x1 PUSH1 0x1 PUSH1 0xA0 SHL SUB AND PUSH2 0x229A JUMP JUMPDEST PUSH1 0x40 MLOAD PUSH3 0x461BCD PUSH1 0xE5 SHL DUP2 MSTORE PUSH1 0x20 PUSH1 0x4 DUP3 ADD MSTORE PUSH1 0x24 DUP1 DUP3 ADD MSTORE PUSH32 0x4E4654206D696E74206661696C65642077697468206C6F772D6C6576656C2065 PUSH1 0x44 DUP3 ADD MSTORE PUSH4 0x393937B9 PUSH1 0xE1 SHL PUSH1 0x64 DUP3 ADD MSTORE PUSH1 0x84 SWAP1 REVERT JUMPDEST PUSH4 0x4E487B71 PUSH1 0xE0 SHL DUP4 MSTORE PUSH1 0x41 PUSH1 0x4 MSTORE PUSH1 0x24 DUP4 REVERT JUMPDEST PUSH2 0x5EA SWAP2 PUSH2 0x5D9 JUMP JUMPDEST PUSH2 0x660 PUSH2 0x1FD2 JUMP JUMPDEST DUP1 PUSH2 0x66B JUMPI POP PUSH2 0x59D JUMP JUMPDEST PUSH2 0x686 PUSH1 0x44 SWAP3 PUSH2 0x6F8 SWAP5 CALLER SWAP1 PUSH1 0x1 DUP1 PUSH1 0xA0 SHL SUB SWAP1 SLOAD AND PUSH2 0x229A JUMP JUMPDEST PUSH1 0x40 MLOAD SWAP1 PUSH2 0x6D0 PUSH1 0x31 DUP4 PUSH1 0x20 DUP2 ADD SWAP4 PUSH17 0x27232A1036B4B73A103330B4B632B21D1 PUSH1 0x7D SHL DUP6 MSTORE PUSH2 0x6BF DUP2 MLOAD DUP1 SWAP3 PUSH1 0x20 DUP7 DUP7 ADD SWAP2 ADD PUSH2 0x204A JUMP JUMPDEST DUP2 ADD SUB ADD PUSH1 0x1F NOT DUP2 ADD DUP5 MSTORE DUP4 PUSH2 0x1D06 JUMP JUMPDEST PUSH1 0x40 MLOAD SWAP4 DUP5 SWAP3 PUSH3 0x461BCD PUSH1 0xE5 SHL DUP5 MSTORE PUSH1 0x20 PUSH1 0x4 DUP6 ADD MSTORE MLOAD DUP1 SWAP3 DUP2 PUSH1 0x24 DUP7 ADD MSTORE DUP6 DUP6 ADD SWAP1 PUSH2 0x204A JUMP JUMPDEST PUSH1 0x1F ADD PUSH1 0x1F NOT AND DUP2 ADD SUB ADD SWAP1 REVERT JUMPDEST POP PUSH1 0x4 DUP3 DUP1 RETURNDATACOPY DUP2 MLOAD PUSH1 0xE0 SHR PUSH2 0x592 JUMP JUMPDEST DUP6 DUP1 SWAP6 POP MSTORE PUSH1 0xC PUSH1 0x20 MSTORE PUSH2 0x72F PUSH1 0x40 DUP6 KECCAK256 SWAP2 DUP3 SLOAD PUSH2 0x1FC5 JUMP JUMPDEST SWAP1 SSTORE PUSH2 0x73D DUP3 PUSH1 0x8 SLOAD PUSH2 0x1FC5 JUMP JUMPDEST PUSH1 0x8 SSTORE DUP1 PUSH2 0x78C JUMPI JUMPDEST PUSH1 0x40 MLOAD SWAP2 DUP3 MSTORE PUSH1 0x20 DUP3 ADD MSTORE PUSH32 0x90890809C654F11D6E72A28FA60149770A0D11EC6C92319D6CEB2BB0A4EA1A15 PUSH1 0x40 CALLER SWAP3 LOG2 PUSH1 0x1 PUSH1 0x0 DUP1 MLOAD PUSH1 0x20 PUSH2 0x23A2 DUP4 CODECOPY DUP2 MLOAD SWAP2 MSTORE SSTORE DUP1 RETURN JUMPDEST DUP3 SLOAD PUSH1 0x4 SLOAD PUSH2 0x7A9 SWAP2 DUP4 SWAP2 PUSH1 0x1 PUSH1 0x1 PUSH1 0xA0 SHL SUB SWAP1 DUP2 AND SWAP2 AND PUSH2 0x229A JUMP JUMPDEST PUSH2 0x746 JUMP JUMPDEST DUP2 PUSH2 0x7B8 SWAP2 PUSH2 0x1D06 JUMP JUMPDEST PUSH2 0x7C3 JUMPI DUP7 CODESIZE PUSH2 0x580 JUMP JUMPDEST DUP7 DUP1 REVERT JUMPDEST POP DUP1 REVERT JUMPDEST SWAP1 POP DUP3 DUP6 MSTORE PUSH1 0xC PUSH1 0x20 MSTORE PUSH2 0x7E3 DUP5 PUSH1 0x40 DUP8 KECCAK256 SLOAD PUSH2 0x1FC5 JUMP JUMPDEST SWAP1 MLOAD LT PUSH2 0x7F1 JUMPI DUP3 CODESIZE PUSH2 0x4AF JUMP JUMPDEST PUSH1 0x40 MLOAD PUSH3 0x461BCD PUSH1 0xE5 SHL DUP2 MSTORE PUSH1 0x20 PUSH1 0x4 DUP3 ADD MSTORE PUSH1 0x14 PUSH1 0x24 DUP3 ADD MSTORE PUSH20 0x115E18D959591CC81CDD5C1C1B1E481B1A5B5A5D PUSH1 0x62 SHL PUSH1 0x44 DUP3 ADD MSTORE PUSH1 0x64 SWAP1 REVERT JUMPDEST PUSH1 0x40 MLOAD PUSH3 0x461BCD PUSH1 0xE5 SHL DUP2 MSTORE PUSH1 0x20 PUSH1 0x4 DUP3 ADD MSTORE PUSH1 0x10 PUSH1 0x24 DUP3 ADD MSTORE PUSH16 0x496E76616C6964207175616E74697479 PUSH1 0x80 SHL PUSH1 0x44 DUP3 ADD MSTORE PUSH1 0x64 SWAP1 REVERT JUMPDEST PUSH1 0x6 SLOAD TIMESTAMP LT PUSH2 0x494 JUMPI PUSH1 0x40 MLOAD PUSH3 0x461BCD PUSH1 0xE5 SHL DUP2 MSTORE PUSH1 0x20 PUSH1 0x4 DUP3 ADD MSTORE PUSH1 0x12 PUSH1 0x24 DUP3 ADD MSTORE PUSH18 0x10D85B5C185A59DB881A185CC8195B991959 PUSH1 0x72 SHL PUSH1 0x44 DUP3 ADD MSTORE PUSH1 0x64 SWAP1 REVERT JUMPDEST PUSH1 0x40 MLOAD PUSH3 0x461BCD PUSH1 0xE5 SHL DUP2 MSTORE PUSH1 0x20 PUSH1 0x4 DUP3 ADD MSTORE PUSH1 0x15 PUSH1 0x24 DUP3 ADD MSTORE PUSH21 0x10D85B5C185A59DB881A5CC8199A5B985B1A5E9959 PUSH1 0x5A SHL PUSH1 0x44 DUP3 ADD MSTORE PUSH1 0x64 SWAP1 REVERT JUMPDEST POP CALLVALUE PUSH2 0x1B4 JUMPI DUP1 PUSH1 0x3 NOT CALLDATASIZE ADD SLT PUSH2 0x1B4 JUMPI PUSH1 0x20 PUSH1 0x40 MLOAD PUSH2 0x2710 DUP2 MSTORE RETURN JUMPDEST POP CALLVALUE PUSH2 0x1B4 JUMPI PUSH1 0x60 CALLDATASIZE PUSH1 0x3 NOT ADD SLT PUSH2 0x1B4 JUMPI PUSH1 0x40 MLOAD PUSH2 0x920 DUP2 PUSH2 0x1CD4 JUMP JUMPDEST PUSH1 0x4 CALLDATALOAD DUP2 MSTORE PUSH1 0x20 DUP2 ADD PUSH1 0x24 CALLDATALOAD DUP2 MSTORE PUSH1 0x40 DUP3 ADD SWAP2 PUSH1 0x44 CALLDATALOAD DUP4 MSTORE PUSH1 0x1 DUP1 PUSH1 0xA0 SHL SUB PUSH1 0x0 DUP1 MLOAD PUSH1 0x20 PUSH2 0x2362 DUP4 CODECOPY DUP2 MLOAD SWAP2 MSTORE SLOAD AND CALLER EQ DUP1 ISZERO PUSH2 0xA5E JUMPI JUMPDEST PUSH2 0x962 SWAP1 PUSH2 0x1D81 JUMP JUMPDEST PUSH2 0x96E DUP3 MLOAD ISZERO ISZERO PUSH2 0x1F89 JUMP JUMPDEST PUSH2 0x97A DUP2 MLOAD ISZERO ISZERO PUSH2 0x1DE8 JUMP JUMPDEST PUSH2 0x984 DUP2 MLOAD PUSH2 0x2262 JUMP JUMPDEST SWAP3 DUP4 DUP6 MSTORE PUSH1 0xE PUSH1 0x20 MSTORE PUSH1 0x1 PUSH1 0x40 DUP7 KECCAK256 ADD SLOAD PUSH2 0xA20 JUMPI DUP3 PUSH1 0x40 SWAP3 PUSH32 0xBB34BC6BCDD4BA28B7DE4669C2E7D94D1B828B2A6A14B82991E087B20D73549 SWAP5 MLOAD PUSH1 0x2 DUP5 MLOAD DUP7 MLOAD SWAP3 PUSH2 0x9D0 DUP5 PUSH2 0x1CD4 JUMP JUMPDEST DUP10 DUP5 MSTORE PUSH1 0x20 DUP5 ADD SWAP1 DUP2 MSTORE DUP8 DUP5 ADD SWAP2 DUP3 MSTORE DUP10 DUP12 MSTORE PUSH1 0xE PUSH1 0x20 MSTORE DUP8 DUP12 KECCAK256 SWAP4 MLOAD DUP5 SSTORE MLOAD PUSH1 0x1 DUP5 ADD SSTORE MLOAD SWAP2 ADD SSTORE PUSH2 0xA02 DUP7 PUSH2 0x1E29 JUMP JUMPDEST MLOAD DUP6 DUP8 MSTORE PUSH1 0xF PUSH1 0x20 MSTORE DUP4 DUP8 KECCAK256 SSTORE MLOAD SWAP1 MLOAD DUP3 MLOAD SWAP2 DUP3 MSTORE PUSH1 0x20 DUP3 ADD MSTORE LOG2 DUP1 RETURN JUMPDEST PUSH1 0x40 MLOAD PUSH3 0x461BCD PUSH1 0xE5 SHL DUP2 MSTORE PUSH1 0x20 PUSH1 0x4 DUP3 ADD MSTORE PUSH1 0x16 PUSH1 0x24 DUP3 ADD MSTORE PUSH22 0x50726F6475637420616C726561647920657869737473 PUSH1 0x50 SHL PUSH1 0x44 DUP3 ADD MSTORE PUSH1 0x64 SWAP1 REVERT JUMPDEST POP PUSH1 0x10 SLOAD PUSH1 0x1 PUSH1 0x1 PUSH1 0xA0 SHL SUB AND CALLER EQ PUSH2 0x959 JUMP JUMPDEST POP CALLVALUE PUSH2 0x1B4 JUMPI PUSH1 0x20 CALLDATASIZE PUSH1 0x3 NOT ADD SLT PUSH2 0x1B4 JUMPI PUSH1 0x4 CALLDATALOAD SWAP1 PUSH1 0xB SLOAD DUP3 LT ISZERO PUSH2 0x1B4 JUMPI PUSH1 0xB SLOAD DUP3 LT ISZERO PUSH2 0xAB5 JUMPI PUSH1 0x20 SWAP2 PUSH1 0xB DUP3 MSTORE DUP3 DUP3 KECCAK256 ADD SLOAD SWAP1 PUSH1 0x3 SHL SHR PUSH1 0x40 MLOAD SWAP1 DUP2 MSTORE RETURN JUMPDEST PUSH4 0x4E487B71 PUSH1 0xE0 SHL DUP2 MSTORE PUSH1 0x32 PUSH1 0x4 MSTORE PUSH1 0x24 SWAP1 REVERT JUMPDEST POP CALLVALUE PUSH2 0x1B4 JUMPI DUP1 PUSH1 0x3 NOT CALLDATASIZE ADD SLT PUSH2 0x1B4 JUMPI PUSH1 0x3 SLOAD PUSH1 0x40 MLOAD PUSH1 0x1 PUSH1 0x1 PUSH1 0xA0 SHL SUB SWAP1 SWAP2 AND DUP2 MSTORE PUSH1 0x20 SWAP1 RETURN JUMPDEST POP CALLVALUE PUSH2 0x1B4 JUMPI DUP1 PUSH1 0x3 NOT CALLDATASIZE ADD SLT PUSH2 0x1B4 JUMPI PUSH1 0x20 PUSH1 0x8 SLOAD PUSH1 0x40 MLOAD SWAP1 DUP2 MSTORE RETURN JUMPDEST POP CALLVALUE PUSH2 0x1B4 JUMPI DUP1 PUSH1 0x3 NOT CALLDATASIZE ADD SLT PUSH2 0x1B4 JUMPI PUSH1 0x2 SLOAD PUSH1 0x40 MLOAD PUSH1 0x1 PUSH1 0x1 PUSH1 0xA0 SHL SUB SWAP1 SWAP2 AND DUP2 MSTORE PUSH1 0x20 SWAP1 RETURN JUMPDEST POP CALLVALUE PUSH2 0x1B4 JUMPI PUSH1 0x20 CALLDATASIZE PUSH1 0x3 NOT ADD SLT PUSH2 0x1B4 JUMPI PUSH1 0x40 DUP2 PUSH1 0x60 SWAP3 DUP3 DUP1 MLOAD PUSH2 0xB5D DUP2 PUSH2 0x1CD4 JUMP JUMPDEST DUP3 DUP2 MSTORE DUP3 PUSH1 0x20 DUP3 ADD MSTORE ADD MSTORE PUSH2 0xB73 PUSH1 0x4 CALLDATALOAD PUSH2 0x2262 JUMP JUMPDEST DUP2 MSTORE PUSH1 0xE PUSH1 0x20 MSTORE KECCAK256 PUSH1 0x40 MLOAD PUSH2 0xB87 DUP2 PUSH2 0x1CD4 JUMP JUMPDEST DUP2 SLOAD SWAP2 DUP3 DUP3 MSTORE PUSH1 0x40 PUSH1 0x2 PUSH1 0x1 DUP4 ADD SLOAD SWAP3 PUSH1 0x20 DUP6 ADD SWAP4 DUP5 MSTORE ADD SLOAD SWAP3 ADD SWAP2 DUP3 MSTORE PUSH1 0x40 MLOAD SWAP3 DUP4 MSTORE MLOAD PUSH1 0x20 DUP4 ADD MSTORE MLOAD PUSH1 0x40 DUP3 ADD MSTORE RETURN JUMPDEST POP CALLVALUE PUSH2 0x1B4 JUMPI DUP1 PUSH1 0x3 NOT CALLDATASIZE ADD SLT PUSH2 0x1B4 JUMPI PUSH1 0x20 PUSH1 0xFF PUSH1 0x9 SLOAD AND PUSH1 0x40 MLOAD SWAP1 ISZERO ISZERO DUP2 MSTORE RETURN JUMPDEST POP CALLVALUE PUSH2 0x1B4 JUMPI DUP1 PUSH1 0x3 NOT CALLDATASIZE ADD SLT PUSH2 0x1B4 JUMPI PUSH1 0x20 PUSH1 0x7 SLOAD PUSH1 0x40 MLOAD SWAP1 DUP2 MSTORE RETURN JUMPDEST POP CALLVALUE PUSH2 0x1B4 JUMPI DUP1 PUSH1 0x3 NOT CALLDATASIZE ADD SLT PUSH2 0x1B4 JUMPI PUSH1 0x0 DUP1 MLOAD PUSH1 0x20 PUSH2 0x2362 DUP4 CODECOPY DUP2 MLOAD SWAP2 MSTORE SLOAD PUSH1 0x40 MLOAD PUSH1 0x1 PUSH1 0x1 PUSH1 0xA0 SHL SUB SWAP1 SWAP2 AND DUP2 MSTORE PUSH1 0x20 SWAP1 RETURN JUMPDEST POP CALLVALUE PUSH2 0x1B4 JUMPI PUSH2 0xC42 PUSH2 0x434 CALLDATASIZE PUSH2 0x1D28 JUMP JUMPDEST SWAP1 DUP2 DUP4 MSTORE PUSH1 0xE PUSH1 0x20 MSTORE PUSH1 0x40 DUP4 KECCAK256 PUSH2 0xC80 PUSH1 0x40 MLOAD PUSH2 0xC5E DUP2 PUSH2 0x1CD4 JUMP JUMPDEST DUP3 SLOAD DUP2 MSTORE PUSH1 0x1 DUP4 ADD SLOAD SWAP1 PUSH1 0x40 PUSH1 0x2 PUSH1 0x20 DUP4 ADD SWAP6 DUP5 DUP8 MSTORE ADD SLOAD SWAP2 ADD MSTORE ISZERO ISZERO PUSH2 0x1EBE JUMP JUMPDEST PUSH1 0xD SLOAD DUP1 PUSH2 0xEC4 JUMPI POP PUSH2 0xC98 PUSH1 0x8 SLOAD PUSH1 0x5 SLOAD GT PUSH2 0x1EFC JUMP JUMPDEST PUSH1 0x1 SLOAD PUSH1 0x40 MLOAD PUSH3 0x7EEAC7 PUSH1 0xE1 SHL DUP2 MSTORE CALLER PUSH1 0x4 DUP3 ADD MSTORE PUSH1 0x24 DUP2 ADD DUP6 SWAP1 MSTORE PUSH1 0x1 PUSH1 0x1 PUSH1 0xA0 SHL SUB SWAP1 SWAP2 AND SWAP1 PUSH1 0x20 DUP2 PUSH1 0x44 DUP2 DUP6 GAS STATICCALL DUP1 ISZERO PUSH2 0xEB9 JUMPI DUP5 SWAP2 DUP8 SWAP2 PUSH2 0xE80 JUMPI JUMPDEST POP LT PUSH2 0xE3B JUMPI PUSH1 0x2 SLOAD PUSH1 0x1 PUSH1 0x1 PUSH1 0xA0 SHL SUB AND SWAP1 DUP6 SWAP1 DUP3 EXTCODESIZE ISZERO PUSH2 0x7C7 JUMPI PUSH1 0x40 MLOAD PUSH4 0x270A2A65 PUSH1 0xE0 SHL DUP2 MSTORE PUSH1 0x1 PUSH1 0x1 PUSH1 0xA0 SHL SUB SWAP2 SWAP1 SWAP2 AND PUSH1 0x4 DUP3 ADD MSTORE CALLER PUSH1 0x24 DUP3 ADD MSTORE PUSH1 0x44 DUP2 ADD DUP7 SWAP1 MSTORE PUSH1 0x64 DUP2 ADD DUP6 SWAP1 MSTORE SWAP2 DUP3 SWAP1 PUSH1 0x84 SWAP1 DUP3 SWAP1 DUP5 SWAP1 GAS CALL DUP1 ISZERO PUSH2 0xE30 JUMPI PUSH2 0xDF0 JUMPI JUMPDEST POP SWAP1 PUSH2 0xD86 DUP2 PUSH2 0xD81 DUP5 PUSH2 0x2710 PUSH2 0xD79 PUSH32 0xB7048C2AD36AADEE977BB16B4543A18866044D27A2CA753E1C7DBCFA7D7A6962 SWAP8 MLOAD PUSH1 0x7 SLOAD SWAP1 PUSH2 0x1F53 JUMP JUMPDEST DIV SWAP1 MLOAD PUSH2 0x1F7C JUMP JUMPDEST PUSH2 0x1F53 JUMP JUMPDEST SWAP3 PUSH2 0xD9B DUP5 CALLER PUSH1 0x1 DUP1 PUSH1 0xA0 SHL SUB DUP9 SLOAD AND PUSH2 0x229A JUMP JUMPDEST DUP1 DUP6 MSTORE PUSH1 0xC PUSH1 0x20 MSTORE PUSH1 0x40 DUP6 KECCAK256 PUSH2 0xDB2 DUP4 DUP3 SLOAD PUSH2 0x1F7C JUMP JUMPDEST SWAP1 SSTORE PUSH2 0xDC0 DUP5 PUSH1 0x8 SLOAD PUSH2 0x1F7C JUMP JUMPDEST PUSH1 0x8 SSTORE PUSH1 0x40 DUP1 MLOAD SWAP5 DUP6 MSTORE PUSH1 0x20 DUP6 ADD SWAP2 SWAP1 SWAP2 MSTORE DUP4 ADD MSTORE CALLER SWAP2 PUSH1 0x60 SWAP1 LOG2 PUSH1 0x1 PUSH1 0x0 DUP1 MLOAD PUSH1 0x20 PUSH2 0x23A2 DUP4 CODECOPY DUP2 MLOAD SWAP2 MSTORE SSTORE DUP1 RETURN JUMPDEST DUP3 PUSH2 0xD81 DUP7 PUSH2 0xE25 PUSH32 0xB7048C2AD36AADEE977BB16B4543A18866044D27A2CA753E1C7DBCFA7D7A6962 SWAP7 SWAP6 SWAP9 PUSH2 0xD86 SWAP6 PUSH2 0x1D06 JUMP JUMPDEST SWAP7 SWAP4 POP POP SWAP3 POP PUSH2 0xD3D JUMP JUMPDEST PUSH1 0x40 MLOAD RETURNDATASIZE DUP8 DUP3 RETURNDATACOPY RETURNDATASIZE SWAP1 REVERT JUMPDEST PUSH1 0x40 MLOAD PUSH3 0x461BCD PUSH1 0xE5 SHL DUP2 MSTORE PUSH1 0x20 PUSH1 0x4 DUP3 ADD MSTORE PUSH1 0x18 PUSH1 0x24 DUP3 ADD MSTORE PUSH32 0x496E73756666696369656E74204E46542062616C616E63650000000000000000 PUSH1 0x44 DUP3 ADD MSTORE PUSH1 0x64 SWAP1 REVERT JUMPDEST SWAP2 POP POP PUSH1 0x20 DUP2 RETURNDATASIZE PUSH1 0x20 GT PUSH2 0xEB1 JUMPI JUMPDEST DUP2 PUSH2 0xE9C PUSH1 0x20 SWAP4 DUP4 PUSH2 0x1D06 JUMP JUMPDEST DUP2 ADD SUB SLT PUSH2 0xEAD JUMPI DUP4 SWAP1 MLOAD CODESIZE PUSH2 0xCD8 JUMP JUMPDEST DUP6 DUP1 REVERT JUMPDEST RETURNDATASIZE SWAP2 POP PUSH2 0xE8F JUMP JUMPDEST PUSH1 0x40 MLOAD RETURNDATASIZE DUP9 DUP3 RETURNDATACOPY RETURNDATASIZE SWAP1 REVERT JUMPDEST PUSH1 0x1 DUP2 SUB PUSH2 0xF30 JUMPI POP PUSH1 0xFF PUSH1 0x9 SLOAD AND ISZERO PUSH2 0xC98 JUMPI PUSH1 0x40 MLOAD PUSH3 0x461BCD PUSH1 0xE5 SHL DUP2 MSTORE PUSH1 0x20 PUSH1 0x4 DUP3 ADD MSTORE PUSH1 0x2A PUSH1 0x24 DUP3 ADD MSTORE PUSH32 0x43616D706169676E2066696E616C697A6564202D20726566756E6473206E6F74 PUSH1 0x44 DUP3 ADD MSTORE PUSH10 0x20617661696C61626C65 PUSH1 0xB0 SHL PUSH1 0x64 DUP3 ADD MSTORE PUSH1 0x84 SWAP1 REVERT JUMPDEST PUSH1 0x2 SUB PUSH2 0xFAA JUMPI PUSH1 0x6 SLOAD TIMESTAMP LT ISZERO PUSH2 0xF55 JUMPI PUSH2 0xF50 PUSH1 0x8 SLOAD PUSH1 0x5 SLOAD GT PUSH2 0x1EFC JUMP JUMPDEST PUSH2 0xC98 JUMP JUMPDEST PUSH1 0x40 MLOAD PUSH3 0x461BCD PUSH1 0xE5 SHL DUP2 MSTORE PUSH1 0x20 PUSH1 0x4 DUP3 ADD MSTORE PUSH1 0x27 PUSH1 0x24 DUP3 ADD MSTORE PUSH32 0x446561646C696E6520706173736564202D20726566756E6473206E6F74206176 PUSH1 0x44 DUP3 ADD MSTORE PUSH7 0x61696C61626C65 PUSH1 0xC8 SHL PUSH1 0x64 DUP3 ADD MSTORE PUSH1 0x84 SWAP1 REVERT JUMPDEST PUSH1 0x40 MLOAD PUSH3 0x461BCD PUSH1 0xE5 SHL DUP2 MSTORE PUSH1 0x20 PUSH1 0x4 DUP3 ADD MSTORE PUSH1 0x14 PUSH1 0x24 DUP3 ADD MSTORE PUSH20 0x496E76616C69642066756E64696E672074797065 PUSH1 0x60 SHL PUSH1 0x44 DUP3 ADD MSTORE PUSH1 0x64 SWAP1 REVERT JUMPDEST POP CALLVALUE PUSH2 0x1B4 JUMPI PUSH1 0x20 CALLDATASIZE PUSH1 0x3 NOT ADD SLT PUSH2 0x1B4 JUMPI PUSH1 0x20 PUSH2 0x1005 PUSH1 0x4 CALLDATALOAD PUSH2 0x2262 JUMP JUMPDEST PUSH1 0x40 MLOAD SWAP1 DUP2 MSTORE RETURN JUMPDEST POP CALLVALUE PUSH2 0x1B4 JUMPI DUP1 PUSH1 0x3 NOT CALLDATASIZE ADD SLT PUSH2 0x1B4 JUMPI PUSH2 0x1026 PUSH2 0x20E3 JUMP JUMPDEST PUSH2 0x102E PUSH2 0x2155 JUMP JUMPDEST PUSH1 0x1 PUSH1 0xFF NOT PUSH1 0x0 DUP1 MLOAD PUSH1 0x20 PUSH2 0x2382 DUP4 CODECOPY DUP2 MLOAD SWAP2 MSTORE SLOAD AND OR PUSH1 0x0 DUP1 MLOAD PUSH1 0x20 PUSH2 0x2382 DUP4 CODECOPY DUP2 MLOAD SWAP2 MSTORE SSTORE PUSH32 0x62E78CEA01BEE320CD4E420270B5EA74000D11B0C9F74754EBDBFC544B05A258 PUSH1 0x20 PUSH1 0x40 MLOAD CALLER DUP2 MSTORE LOG1 DUP1 RETURN JUMPDEST POP CALLVALUE PUSH2 0x1B4 JUMPI PUSH1 0x20 CALLDATASIZE PUSH1 0x3 NOT ADD SLT PUSH2 0x1B4 JUMPI PUSH1 0x40 SWAP1 PUSH1 0x4 CALLDATALOAD DUP2 MSTORE PUSH1 0xE PUSH1 0x20 MSTORE KECCAK256 DUP1 SLOAD PUSH2 0x10CE PUSH1 0x2 PUSH1 0x1 DUP5 ADD SLOAD SWAP4 ADD SLOAD PUSH1 0x40 MLOAD SWAP4 DUP5 SWAP4 DUP5 PUSH1 0x40 SWAP2 SWAP5 SWAP4 SWAP3 PUSH1 0x60 DUP3 ADD SWAP6 DUP3 MSTORE PUSH1 0x20 DUP3 ADD MSTORE ADD MSTORE JUMP JUMPDEST SUB SWAP1 RETURN JUMPDEST POP CALLVALUE PUSH2 0x1B4 JUMPI PUSH1 0x20 CALLDATASIZE PUSH1 0x3 NOT ADD SLT PUSH2 0x1B4 JUMPI PUSH1 0x40 PUSH1 0x20 SWAP2 PUSH1 0x4 CALLDATALOAD DUP1 DUP3 MSTORE PUSH1 0xF DUP5 MSTORE PUSH2 0x1101 DUP4 DUP4 KECCAK256 SLOAD ISZERO ISZERO PUSH2 0x1E79 JUMP JUMPDEST DUP2 MSTORE PUSH1 0xF DUP4 MSTORE KECCAK256 SLOAD PUSH1 0x40 MLOAD SWAP1 DUP2 MSTORE RETURN JUMPDEST POP CALLVALUE PUSH2 0x1B4 JUMPI DUP1 PUSH1 0x3 NOT CALLDATASIZE ADD SLT PUSH2 0x1B4 JUMPI PUSH1 0x10 SLOAD PUSH1 0x40 MLOAD PUSH1 0x1 PUSH1 0x1 PUSH1 0xA0 SHL SUB SWAP1 SWAP2 AND DUP2 MSTORE PUSH1 0x20 SWAP1 RETURN JUMPDEST POP CALLVALUE PUSH2 0x1B4 JUMPI DUP1 PUSH1 0x3 NOT CALLDATASIZE ADD SLT PUSH2 0x1B4 JUMPI PUSH2 0x1153 PUSH2 0x20E3 JUMP JUMPDEST PUSH1 0x0 DUP1 MLOAD PUSH1 0x20 PUSH2 0x2362 DUP4 CODECOPY DUP2 MLOAD SWAP2 MSTORE DUP1 SLOAD PUSH1 0x1 PUSH1 0x1 PUSH1 0xA0 SHL SUB NOT DUP2 AND SWAP1 SWAP2 SSTORE DUP2 SWAP1 PUSH1 0x1 PUSH1 0x1 PUSH1 0xA0 SHL SUB AND PUSH32 0x8BE0079C531659141344CD1FD0A4F28419497F9722A3DAAFE3B4186F6B6457E0 DUP3 DUP1 LOG3 DUP1 RETURN JUMPDEST POP CALLVALUE PUSH2 0x1B4 JUMPI PUSH1 0x20 CALLDATASIZE PUSH1 0x3 NOT ADD SLT PUSH2 0x1B4 JUMPI PUSH1 0x40 PUSH1 0x20 SWAP2 PUSH1 0x4 CALLDATALOAD DUP2 MSTORE PUSH1 0xA DUP4 MSTORE KECCAK256 SLOAD PUSH1 0x40 MLOAD SWAP1 DUP2 MSTORE RETURN JUMPDEST POP CALLVALUE PUSH2 0x1B4 JUMPI PUSH2 0x180 CALLDATASIZE PUSH1 0x3 NOT ADD SLT PUSH2 0x1B4 JUMPI PUSH2 0x11E9 PUSH2 0x1CB9 JUMP JUMPDEST PUSH1 0x24 CALLDATALOAD PUSH1 0x1 PUSH1 0x1 PUSH1 0xA0 SHL SUB DUP2 AND SWAP1 DUP2 SWAP1 SUB PUSH2 0x1939 JUMPI PUSH1 0x44 CALLDATALOAD PUSH1 0x1 PUSH1 0x1 PUSH1 0xA0 SHL SUB DUP2 AND SWAP2 SWAP1 DUP3 SWAP1 SUB PUSH2 0x1935 JUMPI PUSH1 0x64 CALLDATALOAD PUSH1 0xE4 CALLDATALOAD PUSH1 0x1 PUSH1 0x1 PUSH1 0xA0 SHL SUB DUP2 AND SWAP1 PUSH1 0xC4 CALLDATALOAD SWAP1 DUP3 SWAP1 SUB PUSH2 0x7C3 JUMPI PUSH2 0x104 CALLDATALOAD PUSH1 0x1 PUSH1 0x1 PUSH1 0xA0 SHL SUB DUP2 AND SWAP4 SWAP1 DUP5 SWAP1 SUB PUSH2 0x1931 JUMPI PUSH2 0x124 CALLDATALOAD SWAP6 PUSH8 0xFFFFFFFFFFFFFFFF DUP8 GT PUSH2 0x192D JUMPI CALLDATASIZE PUSH1 0x23 DUP9 ADD SLT ISZERO PUSH2 0x192D JUMPI DUP7 PUSH1 0x4 ADD CALLDATALOAD PUSH8 0xFFFFFFFFFFFFFFFF DUP2 GT PUSH2 0x1919 JUMPI PUSH1 0x40 MLOAD SWAP8 PUSH2 0x128E PUSH1 0x20 DUP4 PUSH1 0x5 SHL ADD DUP11 PUSH2 0x1D06 JUMP JUMPDEST DUP2 DUP10 MSTORE PUSH1 0x24 PUSH1 0x60 PUSH1 0x20 DUP12 ADD SWAP4 MUL DUP3 ADD ADD SWAP1 CALLDATASIZE DUP3 GT PUSH2 0x18D5 JUMPI PUSH1 0x24 ADD SWAP2 JUMPDEST DUP2 DUP4 LT PUSH2 0x18DD JUMPI POP POP POP PUSH2 0x144 CALLDATALOAD PUSH1 0x1 PUSH1 0x1 PUSH1 0xA0 SHL SUB DUP2 AND SWAP7 SWAP1 DUP8 SWAP1 SUB PUSH2 0x18D9 JUMPI PUSH2 0x164 CALLDATALOAD SWAP9 PUSH1 0x1 PUSH1 0x1 PUSH1 0xA0 SHL SUB DUP11 AND SWAP1 DUP2 DUP12 SUB PUSH2 0x18D5 JUMPI PUSH1 0x0 DUP1 MLOAD PUSH1 0x20 PUSH2 0x23C2 DUP4 CODECOPY DUP2 MLOAD SWAP2 MSTORE SLOAD SWAP11 PUSH1 0xFF DUP13 PUSH1 0x40 SHR AND ISZERO SWAP12 DUP13 PUSH8 0xFFFFFFFFFFFFFFFF DUP3 AND DUP1 ISZERO SWAP2 DUP3 PUSH2 0x18CD JUMPI JUMPDEST POP PUSH1 0x1 EQ SWAP1 DUP2 PUSH2 0x18C3 JUMPI JUMPDEST ISZERO SWAP1 DUP2 PUSH2 0x18BA JUMPI JUMPDEST POP PUSH2 0x18AB JUMPI PUSH8 0xFFFFFFFFFFFFFFFF NOT DUP2 AND PUSH1 0x1 OR PUSH1 0x0 DUP1 MLOAD PUSH1 0x20 PUSH2 0x23C2 DUP4 CODECOPY DUP2 MLOAD SWAP2 MSTORE SSTORE PUSH2 0x1365 SWAP2 SWAP1 DUP14 PUSH2 0x187E JUMPI JUMPDEST POP PUSH2 0x135D PUSH2 0x22D8 JUMP JUMPDEST PUSH2 0x3C7 PUSH2 0x22D8 JUMP JUMPDEST PUSH2 0x136D PUSH2 0x22D8 JUMP JUMPDEST PUSH2 0x1375 PUSH2 0x22D8 JUMP JUMPDEST PUSH2 0x137D PUSH2 0x22D8 JUMP JUMPDEST PUSH1 0x1 PUSH1 0x0 DUP1 MLOAD PUSH1 0x20 PUSH2 0x23A2 DUP4 CODECOPY DUP2 MLOAD SWAP2 MSTORE SSTORE PUSH1 0x1 PUSH1 0x1 PUSH1 0xA0 SHL SUB AND SWAP1 DUP2 ISZERO PUSH2 0x1842 JUMPI DUP3 ISZERO PUSH2 0x17FD JUMPI DUP4 ISZERO PUSH2 0x17C3 JUMPI DUP7 ISZERO PUSH2 0x177E JUMPI DUP8 ISZERO PUSH2 0x1739 JUMPI TIMESTAMP DUP7 GT ISZERO PUSH2 0x1701 JUMPI DUP10 MLOAD ISZERO PUSH2 0x16C5 JUMPI DUP9 ISZERO PUSH2 0x1687 JUMPI ISZERO PUSH2 0x1652 JUMPI PUSH2 0x2710 DUP5 LT ISZERO PUSH2 0x15FF JUMPI PUSH1 0x1 PUSH1 0x1 PUSH1 0x60 SHL SUB PUSH1 0xA0 SHL DUP12 SLOAD AND OR DUP11 SSTORE PUSH1 0x1 PUSH1 0x1 PUSH1 0x60 SHL SUB PUSH1 0xA0 SHL PUSH1 0x3 SLOAD AND OR PUSH1 0x3 SSTORE PUSH1 0x1 PUSH1 0x1 PUSH1 0x60 SHL SUB PUSH1 0xA0 SHL PUSH1 0x4 SLOAD AND OR PUSH1 0x4 SSTORE PUSH1 0x7 SSTORE PUSH1 0xA4 CALLDATALOAD PUSH1 0x5 SSTORE PUSH1 0x6 SSTORE PUSH1 0x1 PUSH1 0x1 PUSH1 0x60 SHL SUB PUSH1 0xA0 SHL PUSH1 0x1 SLOAD AND OR PUSH1 0x1 SSTORE PUSH1 0x1 PUSH1 0x1 PUSH1 0x60 SHL SUB PUSH1 0xA0 SHL PUSH1 0x2 SLOAD AND OR PUSH1 0x2 SSTORE PUSH1 0x1 PUSH1 0x1 PUSH1 0x60 SHL SUB PUSH1 0xA0 SHL PUSH1 0x10 SLOAD AND OR PUSH1 0x10 SSTORE PUSH1 0x84 CALLDATALOAD PUSH1 0xD SSTORE DUP3 JUMPDEST DUP2 MLOAD DUP2 LT ISZERO PUSH2 0x159C JUMPI PUSH1 0x20 PUSH2 0x1474 DUP3 DUP5 PUSH2 0x1DBE JUMP JUMPDEST MLOAD ADD MLOAD ISZERO PUSH2 0x155F JUMPI DUP1 PUSH2 0x1495 PUSH2 0x148C PUSH1 0x1 SWAP4 DUP6 PUSH2 0x1DBE JUMP JUMPDEST MLOAD MLOAD ISZERO ISZERO PUSH2 0x1DE8 JUMP JUMPDEST PUSH2 0x149F DUP2 DUP5 PUSH2 0x1DBE JUMP JUMPDEST MLOAD MLOAD PUSH1 0x40 MLOAD ADDRESS PUSH1 0x60 SHL PUSH12 0xFFFFFFFFFFFFFFFFFFFFFFFF NOT AND PUSH1 0x20 DUP3 ADD SWAP1 DUP2 MSTORE PUSH1 0x34 DUP3 ADD SWAP3 SWAP1 SWAP3 MSTORE PUSH2 0x14DD DUP2 PUSH1 0x54 DUP2 ADD JUMPDEST SUB PUSH1 0x1F NOT DUP2 ADD DUP4 MSTORE DUP3 PUSH2 0x1D06 JUMP JUMPDEST MLOAD SWAP1 KECCAK256 PUSH1 0x20 PUSH2 0x14EC DUP4 DUP7 PUSH2 0x1DBE JUMP JUMPDEST MLOAD ADD MLOAD PUSH1 0x2 PUSH1 0x40 PUSH2 0x14FD DUP6 DUP9 PUSH2 0x1DBE JUMP JUMPDEST MLOAD ADD MLOAD PUSH1 0x40 MLOAD SWAP3 PUSH2 0x150D DUP5 PUSH2 0x1CD4 JUMP JUMPDEST DUP5 DUP5 MSTORE PUSH1 0x20 DUP5 ADD SWAP1 DUP2 MSTORE PUSH1 0x40 DUP5 ADD SWAP2 DUP3 MSTORE DUP5 DUP11 MSTORE PUSH1 0xE PUSH1 0x20 MSTORE PUSH1 0x40 DUP11 KECCAK256 SWAP4 MLOAD DUP5 SSTORE MLOAD DUP7 DUP5 ADD SSTORE MLOAD SWAP2 ADD SSTORE PUSH2 0x1540 DUP2 PUSH2 0x1E29 JUMP JUMPDEST PUSH2 0x154A DUP3 DUP6 PUSH2 0x1DBE JUMP JUMPDEST MLOAD MLOAD SWAP1 DUP7 MSTORE PUSH1 0xF PUSH1 0x20 MSTORE PUSH1 0x40 DUP7 KECCAK256 SSTORE ADD PUSH2 0x145F JUMP JUMPDEST PUSH1 0x40 MLOAD PUSH3 0x461BCD PUSH1 0xE5 SHL DUP2 MSTORE PUSH1 0x20 PUSH1 0x4 DUP3 ADD MSTORE PUSH1 0x15 PUSH1 0x24 DUP3 ADD MSTORE PUSH21 0x496E76616C69642070726F64756374207072696365 PUSH1 0x58 SHL PUSH1 0x44 DUP3 ADD MSTORE PUSH1 0x64 SWAP1 REVERT JUMPDEST POP POP PUSH2 0x15A5 JUMPI DUP1 RETURN JUMPDEST PUSH9 0xFF0000000000000000 NOT PUSH1 0x0 DUP1 MLOAD PUSH1 0x20 PUSH2 0x23C2 DUP4 CODECOPY DUP2 MLOAD SWAP2 MSTORE SLOAD AND PUSH1 0x0 DUP1 MLOAD PUSH1 0x20 PUSH2 0x23C2 DUP4 CODECOPY DUP2 MLOAD SWAP2 MSTORE SSTORE PUSH32 0xC7F505B2F371AE2175EE4913F4499E1F2633A7B5936321EED1CDAEB6115181D2 PUSH1 0x20 PUSH1 0x40 MLOAD PUSH1 0x1 DUP2 MSTORE LOG1 DUP1 RETURN JUMPDEST PUSH1 0x40 MLOAD PUSH3 0x461BCD PUSH1 0xE5 SHL DUP2 MSTORE PUSH1 0x20 PUSH1 0x4 DUP3 ADD MSTORE PUSH1 0x25 PUSH1 0x24 DUP3 ADD MSTORE PUSH32 0x4665652070657263656E74616765206D757374206265206C657373207468616E PUSH1 0x44 DUP3 ADD MSTORE PUSH5 0x2031303025 PUSH1 0xD8 SHL PUSH1 0x64 DUP3 ADD MSTORE PUSH1 0x84 SWAP1 REVERT JUMPDEST PUSH1 0x40 MLOAD PUSH3 0x461BCD PUSH1 0xE5 SHL DUP2 MSTORE PUSH1 0x20 PUSH1 0x4 DUP3 ADD MSTORE PUSH1 0xD PUSH1 0x24 DUP3 ADD MSTORE PUSH13 0x24B73B30B634B21037BBB732B9 PUSH1 0x99 SHL PUSH1 0x44 DUP3 ADD MSTORE PUSH1 0x64 SWAP1 REVERT JUMPDEST PUSH1 0x40 MLOAD PUSH3 0x461BCD PUSH1 0xE5 SHL DUP2 MSTORE PUSH1 0x20 PUSH1 0x4 DUP3 ADD MSTORE PUSH1 0x16 PUSH1 0x24 DUP3 ADD MSTORE PUSH22 0x24B73B30B634B21031B0B6B830B4B3B71030B236B4B7 PUSH1 0x51 SHL PUSH1 0x44 DUP3 ADD MSTORE PUSH1 0x64 SWAP1 REVERT JUMPDEST PUSH1 0x40 MLOAD PUSH3 0x461BCD PUSH1 0xE5 SHL DUP2 MSTORE PUSH1 0x20 PUSH1 0x4 DUP3 ADD MSTORE PUSH1 0x14 PUSH1 0x24 DUP3 ADD MSTORE PUSH20 0x139BC81C1C9BD91D58DD1CC81C1C9BDD9A591959 PUSH1 0x62 SHL PUSH1 0x44 DUP3 ADD MSTORE PUSH1 0x64 SWAP1 REVERT JUMPDEST PUSH1 0x40 MLOAD PUSH3 0x461BCD PUSH1 0xE5 SHL DUP2 MSTORE PUSH1 0x20 PUSH1 0x4 DUP3 ADD MSTORE PUSH1 0x10 PUSH1 0x24 DUP3 ADD MSTORE PUSH16 0x496E76616C696420646561646C696E65 PUSH1 0x80 SHL PUSH1 0x44 DUP3 ADD MSTORE PUSH1 0x64 SWAP1 REVERT JUMPDEST PUSH1 0x40 MLOAD PUSH3 0x461BCD PUSH1 0xE5 SHL DUP2 MSTORE PUSH1 0x20 PUSH1 0x4 DUP3 ADD MSTORE PUSH1 0x17 PUSH1 0x24 DUP3 ADD MSTORE PUSH32 0x496E76616C696420666163746F72792061646472657373000000000000000000 PUSH1 0x44 DUP3 ADD MSTORE PUSH1 0x64 SWAP1 REVERT JUMPDEST PUSH1 0x40 MLOAD PUSH3 0x461BCD PUSH1 0xE5 SHL DUP2 MSTORE PUSH1 0x20 PUSH1 0x4 DUP3 ADD MSTORE PUSH1 0x1D PUSH1 0x24 DUP3 ADD MSTORE PUSH32 0x496E76616C69642070726F6475637420746F6B656E2061646472657373000000 PUSH1 0x44 DUP3 ADD MSTORE PUSH1 0x64 SWAP1 REVERT JUMPDEST PUSH1 0x40 MLOAD PUSH3 0x461BCD PUSH1 0xE5 SHL DUP2 MSTORE PUSH1 0x20 PUSH1 0x4 DUP3 ADD MSTORE PUSH1 0x12 PUSH1 0x24 DUP3 ADD MSTORE PUSH18 0x125B9D985B1A5908199959481DD85B1B195D PUSH1 0x72 SHL PUSH1 0x44 DUP3 ADD MSTORE PUSH1 0x64 SWAP1 REVERT JUMPDEST PUSH1 0x40 MLOAD PUSH3 0x461BCD PUSH1 0xE5 SHL DUP2 MSTORE PUSH1 0x20 PUSH1 0x4 DUP3 ADD MSTORE PUSH1 0x1A PUSH1 0x24 DUP3 ADD MSTORE PUSH32 0x496E76616C69642062656E65666963696172792077616C6C6574000000000000 PUSH1 0x44 DUP3 ADD MSTORE PUSH1 0x64 SWAP1 REVERT JUMPDEST PUSH1 0x40 MLOAD PUSH3 0x461BCD PUSH1 0xE5 SHL DUP2 MSTORE PUSH1 0x20 PUSH1 0x4 DUP3 ADD MSTORE PUSH1 0x14 PUSH1 0x24 DUP3 ADD MSTORE PUSH20 0x496E76616C696420555344432061646472657373 PUSH1 0x60 SHL PUSH1 0x44 DUP3 ADD MSTORE PUSH1 0x64 SWAP1 REVERT JUMPDEST PUSH9 0xFFFFFFFFFFFFFFFFFF NOT AND PUSH9 0x10000000000000001 OR PUSH1 0x0 DUP1 MLOAD PUSH1 0x20 PUSH2 0x23C2 DUP4 CODECOPY DUP2 MLOAD SWAP2 MSTORE SSTORE CODESIZE PUSH2 0x1354 JUMP JUMPDEST PUSH4 0xF92EE8A9 PUSH1 0xE0 SHL DUP15 MSTORE PUSH1 0x4 DUP15 REVERT JUMPDEST SWAP1 POP ISZERO CODESIZE PUSH2 0x1325 JUMP JUMPDEST ADDRESS EXTCODESIZE ISZERO SWAP2 POP PUSH2 0x131D JUMP JUMPDEST SWAP2 POP DUP15 PUSH2 0x1312 JUMP JUMPDEST DUP12 DUP1 REVERT JUMPDEST DUP10 DUP1 REVERT JUMPDEST PUSH1 0x60 DUP4 CALLDATASIZE SUB SLT PUSH2 0x18D5 JUMPI PUSH1 0x20 PUSH1 0x60 SWAP2 PUSH1 0x40 MLOAD PUSH2 0x18F8 DUP2 PUSH2 0x1CD4 JUMP JUMPDEST DUP6 CALLDATALOAD DUP2 MSTORE DUP3 DUP7 ADD CALLDATALOAD DUP4 DUP3 ADD MSTORE PUSH1 0x40 DUP7 ADD CALLDATALOAD PUSH1 0x40 DUP3 ADD MSTORE DUP2 MSTORE ADD SWAP3 ADD SWAP2 PUSH2 0x12AB JUMP JUMPDEST PUSH4 0x4E487B71 PUSH1 0xE0 SHL DUP11 MSTORE PUSH1 0x41 PUSH1 0x4 MSTORE PUSH1 0x24 DUP11 REVERT JUMPDEST DUP9 DUP1 REVERT JUMPDEST DUP8 DUP1 REVERT JUMPDEST DUP4 DUP1 REVERT JUMPDEST DUP3 DUP1 REVERT JUMPDEST POP CALLVALUE PUSH2 0x1B4 JUMPI DUP1 PUSH1 0x3 NOT CALLDATASIZE ADD SLT PUSH2 0x1B4 JUMPI PUSH1 0x20 PUSH1 0xFF PUSH1 0x0 DUP1 MLOAD PUSH1 0x20 PUSH2 0x2382 DUP4 CODECOPY DUP2 MLOAD SWAP2 MSTORE SLOAD AND PUSH1 0x40 MLOAD SWAP1 ISZERO ISZERO DUP2 MSTORE RETURN JUMPDEST POP CALLVALUE PUSH2 0x1B4 JUMPI DUP1 PUSH1 0x3 NOT CALLDATASIZE ADD SLT PUSH2 0x1B4 JUMPI PUSH2 0x1986 PUSH2 0x2119 JUMP JUMPDEST PUSH2 0x198E PUSH2 0x2155 JUMP JUMPDEST PUSH1 0xFF PUSH1 0x9 SLOAD AND PUSH2 0x1A96 JUMPI PUSH1 0xD SLOAD DUP1 PUSH2 0x1A1A JUMPI POP PUSH1 0x8 SLOAD PUSH1 0x5 SLOAD GT PUSH2 0x19C9 JUMPI PUSH2 0x19B4 PUSH2 0x217F JUMP JUMPDEST PUSH1 0x1 PUSH1 0x0 DUP1 MLOAD PUSH1 0x20 PUSH2 0x23A2 DUP4 CODECOPY DUP2 MLOAD SWAP2 MSTORE SSTORE DUP1 RETURN JUMPDEST PUSH2 0x19D6 PUSH1 0x6 SLOAD TIMESTAMP GT PUSH2 0x1D3E JUMP JUMPDEST PUSH1 0x1 PUSH1 0xFF NOT PUSH1 0x9 SLOAD AND OR PUSH1 0x9 SSTORE PUSH32 0xDD0F555AE5273DE37F96C52AA0BA4AE26FC23A0D7B0E2B8904BA8CF1636D6CE0 PUSH1 0x40 PUSH1 0x8 SLOAD DUP2 MLOAD SWAP1 DUP5 DUP3 MSTORE PUSH1 0x20 DUP3 ADD MSTORE LOG1 PUSH2 0x19B4 JUMP JUMPDEST PUSH1 0x1 DUP2 SUB PUSH2 0x1A6F JUMPI POP PUSH1 0x0 DUP1 MLOAD PUSH1 0x20 PUSH2 0x2362 DUP4 CODECOPY DUP2 MLOAD SWAP2 MSTORE SLOAD PUSH1 0x1 PUSH1 0x1 PUSH1 0xA0 SHL SUB AND CALLER EQ DUP1 ISZERO PUSH2 0x1A5B JUMPI JUMPDEST PUSH2 0x1A4E SWAP1 PUSH2 0x1D81 JUMP JUMPDEST PUSH2 0x1A56 PUSH2 0x217F JUMP JUMPDEST PUSH2 0x19B4 JUMP JUMPDEST POP PUSH1 0x10 SLOAD PUSH1 0x1 PUSH1 0x1 PUSH1 0xA0 SHL SUB AND CALLER EQ PUSH2 0x1A45 JUMP JUMPDEST PUSH1 0x2 SUB PUSH2 0x19B4 JUMPI PUSH1 0x8 SLOAD PUSH1 0x5 SLOAD GT PUSH2 0x1A89 JUMPI PUSH2 0x1A56 PUSH2 0x217F JUMP JUMPDEST PUSH2 0x1A4E PUSH1 0x6 SLOAD TIMESTAMP GT PUSH2 0x1D3E JUMP JUMPDEST PUSH1 0x40 MLOAD PUSH3 0x461BCD PUSH1 0xE5 SHL DUP2 MSTORE PUSH1 0x20 PUSH1 0x4 DUP3 ADD MSTORE PUSH1 0x11 PUSH1 0x24 DUP3 ADD MSTORE PUSH17 0x105B1C9958591E48199A5B985B1A5E9959 PUSH1 0x7A SHL PUSH1 0x44 DUP3 ADD MSTORE PUSH1 0x64 SWAP1 REVERT JUMPDEST POP CALLVALUE PUSH2 0x1B4 JUMPI DUP1 PUSH1 0x3 NOT CALLDATASIZE ADD SLT PUSH2 0x1B4 JUMPI PUSH1 0x40 MLOAD DUP1 PUSH1 0x20 PUSH1 0xB SLOAD SWAP2 DUP3 DUP2 MSTORE ADD DUP1 SWAP2 PUSH1 0xB DUP6 MSTORE PUSH32 0x175B7A638427703F0DBE7BB9BBF987A2551717B34E79F33B5B1008D1FA01DB9 SWAP1 DUP6 JUMPDEST DUP2 DUP2 LT PUSH2 0x1B6F JUMPI POP POP POP DUP3 PUSH2 0x1B2E SWAP2 SUB DUP4 PUSH2 0x1D06 JUMP JUMPDEST PUSH1 0x40 MLOAD SWAP3 DUP4 SWAP3 PUSH1 0x20 DUP5 ADD SWAP1 PUSH1 0x20 DUP6 MSTORE MLOAD DUP1 SWAP2 MSTORE PUSH1 0x40 DUP5 ADD SWAP3 SWAP2 JUMPDEST DUP2 DUP2 LT PUSH2 0x1B56 JUMPI POP POP POP SUB SWAP1 RETURN JUMPDEST DUP3 MLOAD DUP5 MSTORE DUP6 SWAP5 POP PUSH1 0x20 SWAP4 DUP5 ADD SWAP4 SWAP1 SWAP3 ADD SWAP2 PUSH1 0x1 ADD PUSH2 0x1B48 JUMP JUMPDEST DUP3 SLOAD DUP5 MSTORE PUSH1 0x20 SWAP1 SWAP4 ADD SWAP3 PUSH1 0x1 SWAP3 DUP4 ADD SWAP3 ADD PUSH2 0x1B18 JUMP JUMPDEST POP CALLVALUE PUSH2 0x1B4 JUMPI DUP1 PUSH1 0x3 NOT CALLDATASIZE ADD SLT PUSH2 0x1B4 JUMPI PUSH1 0x20 PUSH1 0x5 SLOAD PUSH1 0x40 MLOAD SWAP1 DUP2 MSTORE RETURN JUMPDEST POP CALLVALUE PUSH2 0x1B4 JUMPI DUP1 PUSH1 0x3 NOT CALLDATASIZE ADD SLT PUSH2 0x1B4 JUMPI PUSH2 0x1BBC PUSH2 0x20E3 JUMP JUMPDEST PUSH1 0x0 DUP1 MLOAD PUSH1 0x20 PUSH2 0x2382 DUP4 CODECOPY DUP2 MLOAD SWAP2 MSTORE SLOAD PUSH1 0xFF DUP2 AND ISZERO PUSH2 0x1C16 JUMPI PUSH1 0xFF NOT AND PUSH1 0x0 DUP1 MLOAD PUSH1 0x20 PUSH2 0x2382 DUP4 CODECOPY DUP2 MLOAD SWAP2 MSTORE SSTORE PUSH32 0x5DB9EE0A495BF2E6FF9C91A7834C1BA4FDD244A5E8AA4E537BD38AEAE4B073AA PUSH1 0x20 PUSH1 0x40 MLOAD CALLER DUP2 MSTORE LOG1 DUP1 RETURN JUMPDEST PUSH4 0x8DFC202B PUSH1 0xE0 SHL DUP3 MSTORE PUSH1 0x4 DUP3 REVERT JUMPDEST POP CALLVALUE PUSH2 0x1B4 JUMPI DUP1 PUSH1 0x3 NOT CALLDATASIZE ADD SLT PUSH2 0x1B4 JUMPI SLOAD PUSH1 0x40 MLOAD PUSH1 0x1 PUSH1 0x1 PUSH1 0xA0 SHL SUB SWAP1 SWAP2 AND DUP2 MSTORE PUSH1 0x20 SWAP1 RETURN JUMPDEST POP CALLVALUE PUSH2 0x1B4 JUMPI DUP1 PUSH1 0x3 NOT CALLDATASIZE ADD SLT PUSH2 0x1B4 JUMPI PUSH1 0x20 PUSH1 0x6 SLOAD PUSH1 0x40 MLOAD SWAP1 DUP2 MSTORE RETURN JUMPDEST POP CALLVALUE PUSH2 0x1B4 JUMPI PUSH1 0x20 CALLDATASIZE PUSH1 0x3 NOT ADD SLT PUSH2 0x1B4 JUMPI PUSH1 0x40 PUSH1 0x20 SWAP2 PUSH1 0x4 CALLDATALOAD DUP2 MSTORE PUSH1 0xF DUP4 MSTORE KECCAK256 SLOAD PUSH1 0x40 MLOAD SWAP1 DUP2 MSTORE RETURN JUMPDEST SWAP1 POP CALLVALUE PUSH2 0x7C7 JUMPI DUP2 PUSH1 0x3 NOT CALLDATASIZE ADD SLT PUSH2 0x7C7 JUMPI PUSH1 0x1 SLOAD PUSH1 0x1 PUSH1 0x1 PUSH1 0xA0 SHL SUB AND DUP2 MSTORE PUSH1 0x20 SWAP1 RETURN JUMPDEST PUSH1 0x4 CALLDATALOAD SWAP1 PUSH1 0x1 PUSH1 0x1 PUSH1 0xA0 SHL SUB DUP3 AND DUP3 SUB PUSH2 0x1CCF JUMPI JUMP JUMPDEST PUSH1 0x0 DUP1 REVERT JUMPDEST PUSH1 0x60 DUP2 ADD SWAP1 DUP2 LT PUSH8 0xFFFFFFFFFFFFFFFF DUP3 GT OR PUSH2 0x1CF0 JUMPI PUSH1 0x40 MSTORE JUMP JUMPDEST PUSH4 0x4E487B71 PUSH1 0xE0 SHL PUSH1 0x0 MSTORE PUSH1 0x41 PUSH1 0x4 MSTORE PUSH1 0x24 PUSH1 0x0 REVERT JUMPDEST SWAP1 PUSH1 0x1F DUP1 NOT SWAP2 ADD AND DUP2 ADD SWAP1 DUP2 LT PUSH8 0xFFFFFFFFFFFFFFFF DUP3 GT OR PUSH2 0x1CF0 JUMPI PUSH1 0x40 MSTORE JUMP JUMPDEST PUSH1 0x40 SWAP1 PUSH1 0x3 NOT ADD SLT PUSH2 0x1CCF JUMPI PUSH1 0x4 CALLDATALOAD SWAP1 PUSH1 0x24 CALLDATALOAD SWAP1 JUMP JUMPDEST ISZERO PUSH2 0x1D45 JUMPI JUMP JUMPDEST PUSH1 0x40 MLOAD PUSH3 0x461BCD PUSH1 0xE5 SHL DUP2 MSTORE PUSH1 0x20 PUSH1 0x4 DUP3 ADD MSTORE PUSH1 0x14 PUSH1 0x24 DUP3 ADD MSTORE PUSH20 0x111958591B1A5B99481B9BDD081C995858DA1959 PUSH1 0x62 SHL PUSH1 0x44 DUP3 ADD MSTORE PUSH1 0x64 SWAP1 REVERT JUMPDEST ISZERO PUSH2 0x1D88 JUMPI JUMP JUMPDEST PUSH1 0x40 MLOAD PUSH3 0x461BCD PUSH1 0xE5 SHL DUP2 MSTORE PUSH1 0x20 PUSH1 0x4 DUP3 ADD MSTORE PUSH1 0xE PUSH1 0x24 DUP3 ADD MSTORE PUSH14 0x139BDD08185D5D1A1BDC9A5E9959 PUSH1 0x92 SHL PUSH1 0x44 DUP3 ADD MSTORE PUSH1 0x64 SWAP1 REVERT JUMPDEST DUP1 MLOAD DUP3 LT ISZERO PUSH2 0x1DD2 JUMPI PUSH1 0x20 SWAP2 PUSH1 0x5 SHL ADD ADD SWAP1 JUMP JUMPDEST PUSH4 0x4E487B71 PUSH1 0xE0 SHL PUSH1 0x0 MSTORE PUSH1 0x32 PUSH1 0x4 MSTORE PUSH1 0x24 PUSH1 0x0 REVERT JUMPDEST ISZERO PUSH2 0x1DEF JUMPI JUMP JUMPDEST PUSH1 0x40 MLOAD PUSH3 0x461BCD PUSH1 0xE5 SHL DUP2 MSTORE PUSH1 0x20 PUSH1 0x4 DUP3 ADD MSTORE PUSH1 0x12 PUSH1 0x24 DUP3 ADD MSTORE PUSH18 0x125B9D985B1A59081C1C9BD91D58DD081251 PUSH1 0x72 SHL PUSH1 0x44 DUP3 ADD MSTORE PUSH1 0x64 SWAP1 REVERT JUMPDEST PUSH1 0xB SLOAD PUSH9 0x10000000000000000 DUP2 LT ISZERO PUSH2 0x1CF0 JUMPI PUSH1 0x1 DUP2 ADD PUSH1 0xB SSTORE PUSH1 0x0 PUSH1 0xB SLOAD DUP3 LT ISZERO PUSH2 0xAB5 JUMPI PUSH1 0xB SWAP1 MSTORE PUSH32 0x175B7A638427703F0DBE7BB9BBF987A2551717B34E79F33B5B1008D1FA01DB9 ADD SSTORE JUMP JUMPDEST ISZERO PUSH2 0x1E80 JUMPI JUMP JUMPDEST PUSH1 0x40 MLOAD PUSH3 0x461BCD PUSH1 0xE5 SHL DUP2 MSTORE PUSH1 0x20 PUSH1 0x4 DUP3 ADD MSTORE PUSH1 0x16 PUSH1 0x24 DUP3 ADD MSTORE PUSH22 0x141C9BD91D58DD08191BD95CC81B9BDD08195E1A5CDD PUSH1 0x52 SHL PUSH1 0x44 DUP3 ADD MSTORE PUSH1 0x64 SWAP1 REVERT JUMPDEST ISZERO PUSH2 0x1EC5 JUMPI JUMP JUMPDEST PUSH1 0x40 MLOAD PUSH3 0x461BCD PUSH1 0xE5 SHL DUP2 MSTORE PUSH1 0x20 PUSH1 0x4 DUP3 ADD MSTORE PUSH1 0xF PUSH1 0x24 DUP3 ADD MSTORE PUSH15 0x125B9D985B1A59081C1C9BD91D58DD PUSH1 0x8A SHL PUSH1 0x44 DUP3 ADD MSTORE PUSH1 0x64 SWAP1 REVERT JUMPDEST ISZERO PUSH2 0x1F03 JUMPI JUMP JUMPDEST PUSH1 0x40 MLOAD PUSH3 0x461BCD PUSH1 0xE5 SHL DUP2 MSTORE PUSH1 0x20 PUSH1 0x4 DUP3 ADD MSTORE PUSH1 0x22 PUSH1 0x24 DUP3 ADD MSTORE PUSH32 0x546172676574206D6574202D20726566756E6473206E6F7420617661696C6162 PUSH1 0x44 DUP3 ADD MSTORE PUSH2 0x6C65 PUSH1 0xF0 SHL PUSH1 0x64 DUP3 ADD MSTORE PUSH1 0x84 SWAP1 REVERT JUMPDEST DUP2 DUP2 MUL SWAP3 SWAP2 DUP2 ISZERO SWAP2 DUP5 DIV EQ OR ISZERO PUSH2 0x1F66 JUMPI JUMP JUMPDEST PUSH4 0x4E487B71 PUSH1 0xE0 SHL PUSH1 0x0 MSTORE PUSH1 0x11 PUSH1 0x4 MSTORE PUSH1 0x24 PUSH1 0x0 REVERT JUMPDEST SWAP2 SWAP1 DUP3 SUB SWAP2 DUP3 GT PUSH2 0x1F66 JUMPI JUMP JUMPDEST ISZERO PUSH2 0x1F90 JUMPI JUMP JUMPDEST PUSH1 0x40 MLOAD PUSH3 0x461BCD PUSH1 0xE5 SHL DUP2 MSTORE PUSH1 0x20 PUSH1 0x4 DUP3 ADD MSTORE PUSH1 0xD PUSH1 0x24 DUP3 ADD MSTORE PUSH13 0x496E76616C6964207072696365 PUSH1 0x98 SHL PUSH1 0x44 DUP3 ADD MSTORE PUSH1 0x64 SWAP1 REVERT JUMPDEST SWAP2 SWAP1 DUP3 ADD DUP1 SWAP3 GT PUSH2 0x1F66 JUMPI JUMP JUMPDEST PUSH1 0x0 PUSH1 0x44 RETURNDATASIZE LT PUSH2 0x2039 JUMPI PUSH1 0x40 MLOAD RETURNDATASIZE PUSH1 0x3 NOT ADD PUSH1 0x4 DUP3 RETURNDATACOPY DUP1 MLOAD SWAP2 RETURNDATASIZE PUSH1 0x24 DUP5 ADD GT PUSH8 0xFFFFFFFFFFFFFFFF DUP5 GT OR PUSH2 0x2044 JUMPI DUP3 DUP3 ADD SWAP3 DUP4 MLOAD SWAP2 PUSH8 0xFFFFFFFFFFFFFFFF DUP4 GT PUSH2 0x203C JUMPI RETURNDATASIZE DUP5 ADD PUSH1 0x3 NOT ADD DUP6 DUP5 ADD PUSH1 0x20 ADD GT PUSH2 0x203C JUMPI POP PUSH2 0x2039 SWAP3 SWAP2 ADD PUSH1 0x20 ADD SWAP1 PUSH2 0x1D06 JUMP JUMPDEST SWAP1 JUMP JUMPDEST SWAP5 SWAP4 POP POP POP POP JUMP JUMPDEST SWAP3 SWAP2 POP POP JUMP JUMPDEST PUSH1 0x0 JUMPDEST DUP4 DUP2 LT PUSH2 0x205D JUMPI POP POP PUSH1 0x0 SWAP2 ADD MSTORE JUMP JUMPDEST DUP2 DUP2 ADD MLOAD DUP4 DUP3 ADD MSTORE PUSH1 0x20 ADD PUSH2 0x204D JUMP JUMPDEST PUSH1 0x1 PUSH1 0x1 PUSH1 0xA0 SHL SUB AND DUP1 ISZERO PUSH2 0x20CD JUMPI PUSH1 0x0 DUP1 MLOAD PUSH1 0x20 PUSH2 0x2362 DUP4 CODECOPY DUP2 MLOAD SWAP2 MSTORE DUP1 SLOAD PUSH1 0x1 PUSH1 0x1 PUSH1 0xA0 SHL SUB NOT DUP2 AND DUP4 OR SWAP1 SWAP2 SSTORE PUSH1 0x1 PUSH1 0x1 PUSH1 0xA0 SHL SUB AND PUSH32 0x8BE0079C531659141344CD1FD0A4F28419497F9722A3DAAFE3B4186F6B6457E0 PUSH1 0x0 DUP1 LOG3 JUMP JUMPDEST PUSH4 0x1E4FBDF7 PUSH1 0xE0 SHL PUSH1 0x0 MSTORE PUSH1 0x0 PUSH1 0x4 MSTORE PUSH1 0x24 PUSH1 0x0 REVERT JUMPDEST PUSH1 0x0 DUP1 MLOAD PUSH1 0x20 PUSH2 0x2362 DUP4 CODECOPY DUP2 MLOAD SWAP2 MSTORE SLOAD PUSH1 0x1 PUSH1 0x1 PUSH1 0xA0 SHL SUB AND CALLER SUB PUSH2 0x2104 JUMPI JUMP JUMPDEST PUSH4 0x118CDAA7 PUSH1 0xE0 SHL PUSH1 0x0 MSTORE CALLER PUSH1 0x4 MSTORE PUSH1 0x24 PUSH1 0x0 REVERT JUMPDEST PUSH1 0x2 PUSH1 0x0 DUP1 MLOAD PUSH1 0x20 PUSH2 0x23A2 DUP4 CODECOPY DUP2 MLOAD SWAP2 MSTORE SLOAD EQ PUSH2 0x2144 JUMPI PUSH1 0x2 PUSH1 0x0 DUP1 MLOAD PUSH1 0x20 PUSH2 0x23A2 DUP4 CODECOPY DUP2 MLOAD SWAP2 MSTORE SSTORE JUMP JUMPDEST PUSH4 0x3EE5AEB5 PUSH1 0xE0 SHL PUSH1 0x0 MSTORE PUSH1 0x4 PUSH1 0x0 REVERT JUMPDEST PUSH1 0xFF PUSH1 0x0 DUP1 MLOAD PUSH1 0x20 PUSH2 0x2382 DUP4 CODECOPY DUP2 MLOAD SWAP2 MSTORE SLOAD AND PUSH2 0x216E JUMPI JUMP JUMPDEST PUSH4 0xD93C0665 PUSH1 0xE0 SHL PUSH1 0x0 MSTORE PUSH1 0x4 PUSH1 0x0 REVERT JUMPDEST PUSH1 0x9 DUP1 SLOAD PUSH1 0xFF NOT AND PUSH1 0x1 OR SWAP1 SSTORE PUSH1 0x0 SLOAD PUSH1 0x40 MLOAD PUSH4 0x70A08231 PUSH1 0xE0 SHL DUP2 MSTORE ADDRESS PUSH1 0x4 DUP3 ADD MSTORE PUSH1 0x1 PUSH1 0x1 PUSH1 0xA0 SHL SUB SWAP2 SWAP1 SWAP2 AND SWAP1 PUSH1 0x20 DUP2 PUSH1 0x24 DUP2 DUP6 GAS STATICCALL SWAP1 DUP2 ISZERO PUSH2 0x2256 JUMPI PUSH1 0x0 SWAP2 PUSH2 0x2224 JUMPI JUMPDEST POP DUP1 PUSH2 0x2205 JUMPI JUMPDEST POP POP PUSH32 0xDD0F555AE5273DE37F96C52AA0BA4AE26FC23A0D7B0E2B8904BA8CF1636D6CE0 PUSH1 0x40 PUSH1 0x8 SLOAD DUP2 MLOAD SWAP1 PUSH1 0x1 DUP3 MSTORE PUSH1 0x20 DUP3 ADD MSTORE LOG1 JUMP JUMPDEST PUSH1 0x3 SLOAD PUSH2 0x221D SWAP3 PUSH1 0x1 PUSH1 0x1 PUSH1 0xA0 SHL SUB SWAP1 SWAP2 AND SWAP1 PUSH2 0x229A JUMP JUMPDEST CODESIZE DUP1 PUSH2 0x21CE JUMP JUMPDEST SWAP1 PUSH1 0x20 DUP3 RETURNDATASIZE PUSH1 0x20 GT PUSH2 0x224E JUMPI JUMPDEST DUP2 PUSH2 0x223E PUSH1 0x20 SWAP4 DUP4 PUSH2 0x1D06 JUMP JUMPDEST DUP2 ADD SUB SLT PUSH2 0x1B4 JUMPI POP MLOAD CODESIZE PUSH2 0x21C7 JUMP JUMPDEST RETURNDATASIZE SWAP2 POP PUSH2 0x2231 JUMP JUMPDEST PUSH1 0x40 MLOAD RETURNDATASIZE PUSH1 0x0 DUP3 RETURNDATACOPY RETURNDATASIZE SWAP1 REVERT JUMPDEST PUSH1 0x40 MLOAD ADDRESS PUSH1 0x60 SHL PUSH12 0xFFFFFFFFFFFFFFFFFFFFFFFF NOT AND PUSH1 0x20 DUP3 ADD SWAP1 DUP2 MSTORE PUSH1 0x34 DUP3 ADD SWAP3 SWAP1 SWAP3 MSTORE PUSH2 0x2294 DUP2 PUSH1 0x54 DUP2 ADD PUSH2 0x14CF JUMP JUMPDEST MLOAD SWAP1 KECCAK256 SWAP1 JUMP JUMPDEST PUSH1 0x40 MLOAD PUSH4 0xA9059CBB PUSH1 0xE0 SHL PUSH1 0x20 DUP3 ADD MSTORE PUSH1 0x1 PUSH1 0x1 PUSH1 0xA0 SHL SUB SWAP3 SWAP1 SWAP3 AND PUSH1 0x24 DUP4 ADD MSTORE PUSH1 0x44 DUP1 DUP4 ADD SWAP4 SWAP1 SWAP4 MSTORE SWAP2 DUP2 MSTORE PUSH2 0x22D6 SWAP2 PUSH2 0x519 PUSH1 0x64 DUP4 PUSH2 0x1D06 JUMP JUMPDEST JUMP JUMPDEST PUSH1 0xFF PUSH1 0x0 DUP1 MLOAD PUSH1 0x20 PUSH2 0x23C2 DUP4 CODECOPY DUP2 MLOAD SWAP2 MSTORE SLOAD PUSH1 0x40 SHR AND ISZERO PUSH2 0x22F5 JUMPI JUMP JUMPDEST PUSH4 0x1AFCD79F PUSH1 0xE3 SHL PUSH1 0x0 MSTORE PUSH1 0x4 PUSH1 0x0 REVERT JUMPDEST SWAP1 PUSH1 0x0 PUSH1 0x20 SWAP2 DUP3 DUP2 MLOAD SWAP2 ADD DUP3 DUP6 GAS CALL ISZERO PUSH2 0x2256 JUMPI PUSH1 0x0 MLOAD RETURNDATASIZE PUSH2 0x2358 JUMPI POP PUSH1 0x1 PUSH1 0x1 PUSH1 0xA0 SHL SUB DUP2 AND EXTCODESIZE ISZERO JUMPDEST PUSH2 0x2337 JUMPI POP JUMP JUMPDEST PUSH4 0x5274AFE7 PUSH1 0xE0 SHL PUSH1 0x0 SWAP1 DUP2 MSTORE PUSH1 0x1 PUSH1 0x1 PUSH1 0xA0 SHL SUB SWAP2 SWAP1 SWAP2 AND PUSH1 0x4 MSTORE PUSH1 0x24 SWAP1 REVERT JUMPDEST PUSH1 0x1 EQ ISZERO PUSH2 0x2330 JUMP INVALID SWAP1 AND 0xD0 SWAP14 PUSH19 0xD40FDAE2FD8CEAC6B6234C7706214FD39C1CD1 0xE6 MULMOD LOG0 MSTORE DUP13 NOT SWAP4 STOP 0xCD MCOPY 0xD1 TLOAD PUSH15 0x187E77E9AEE88184C21F4F2182AB58 0x27 0xCB EXTCODESIZE PUSH31 0x7FBEDCD63F033009B779B17422D0DF92223018B32B4D1FA46E071723D6817 0xE2 BASEFEE PUSH14 0x3BECC55F00F0C57E16840DF040 CALL POP DUP9 0xDC 0x2F DUP2 INVALID CODECOPY SHR CODECOPY 0x23 0xBE 0xC7 RETURNDATACOPY 0x23 0xA9 PUSH7 0x2EFC9C229C6A00 LOG2 PUSH5 0x6970667358 0x22 SLT KECCAK256 0xD4 0x4F PUSH8 0x95ECD11EB09CC6B2 SWAP14 SWAP6 0xBA 0xE7 EXTCODECOPY EXTCODESIZE DUP16 PUSH18 0x72EF0EF7A6C5ACFC77BBAB671764736F6C63 NUMBER STOP ADDMOD SHL STOP CALLER "},"methodIdentifiers":{"BASIS_POINTS()":"e1f1c4a7","addProduct((uint256,uint256,uint256))":"dd5934b3","beneficiaryWallet()":"c9788631","campaignAdmin()":"72afddf0","claimRefund(uint256,uint256)":"8527d58f","deadline()":"29dcb0cf","deposit(uint256,uint256)":"e2bbb158","factory()":"c45a0155","feePercentage()":"a001ecdd","feeWallet()":"f25f4b56","finalize()":"4bb278f3","finalized()":"b3f05b97","fundingType()":"fa8ab0ee","getOriginalProductId(uint256)":"75390e73","getProduct(uint256)":"b9db15b4","getProductIds()":"47428e7b","getUniqueProductId(uint256)":"8500efa1","initialize(address,address,address,uint256,uint256,uint256,uint256,address,address,(uint256,uint256,uint256)[],address,address)":"5cb04079","minimumTarget()":"42235da6","owner()":"8da5cb5b","pause()":"8456cb59","paused()":"5c975abb","productIds(uint256)":"cb51bba9","productSoldCount(uint256)":"ebd692ea","productToken()":"25b4f65f","products(uint256)":"7acc0b20","renounceOwnership()":"715018a6","tokenDeposits(uint256)":"66bff1db","totalRaised()":"c5c4744c","transferOwnership(address)":"f2fde38b","uniqueToOriginalProductId(uint256)":"2903d9cf","unpause()":"3f4ba83a","updateProduct(uint256,uint256,uint256)":"f85292ca","usdc()":"3e413bee"}},"storageLayout":{"storage":[{"astId":11855,"contract":"contracts/USDCFundraiserUpgradeable.sol:USDCFundraiserUpgradeable","label":"usdc","offset":0,"slot":"0","type":"t_contract(IERC20)3904"},{"astId":11858,"contract":"contracts/USDCFundraiserUpgradeable.sol:USDCFundraiserUpgradeable","label":"productToken","offset":0,"slot":"1","type":"t_contract(ProductTokenUpgradeable)11276"},{"astId":11860,"contract":"contracts/USDCFundraiserUpgradeable.sol:USDCFundraiserUpgradeable","label":"factory","offset":0,"slot":"2","type":"t_address"},{"astId":11862,"contract":"contracts/USDCFundraiserUpgradeable.sol:USDCFundraiserUpgradeable","label":"beneficiaryWallet","offset":0,"slot":"3","type":"t_address"},{"astId":11864,"contract":"contracts/USDCFundraiserUpgradeable.sol:USDCFundraiserUpgradeable","label":"feeWallet","offset":0,"slot":"4","type":"t_address"},{"astId":11866,"contract":"contracts/USDCFundraiserUpgradeable.sol:USDCFundraiserUpgradeable","label":"minimumTarget","offset":0,"slot":"5","type":"t_uint256"},{"astId":11868,"contract":"contracts/USDCFundraiserUpgradeable.sol:USDCFundraiserUpgradeable","label":"deadline","offset":0,"slot":"6","type":"t_uint256"},{"astId":11870,"contract":"contracts/USDCFundraiserUpgradeable.sol:USDCFundraiserUpgradeable","label":"feePercentage","offset":0,"slot":"7","type":"t_uint256"},{"astId":11872,"contract":"contracts/USDCFundraiserUpgradeable.sol:USDCFundraiserUpgradeable","label":"totalRaised","offset":0,"slot":"8","type":"t_uint256"},{"astId":11874,"contract":"contracts/USDCFundraiserUpgradeable.sol:USDCFundraiserUpgradeable","label":"finalized","offset":0,"slot":"9","type":"t_bool"},{"astId":11878,"contract":"contracts/USDCFundraiserUpgradeable.sol:USDCFundraiserUpgradeable","label":"tokenDeposits","offset":0,"slot":"10","type":"t_mapping(t_uint256,t_uint256)"},{"astId":11881,"contract":"contracts/USDCFundraiserUpgradeable.sol:USDCFundraiserUpgradeable","label":"productIds","offset":0,"slot":"11","type":"t_array(t_uint256)dyn_storage"},{"astId":11885,"contract":"contracts/USDCFundraiserUpgradeable.sol:USDCFundraiserUpgradeable","label":"productSoldCount","offset":0,"slot":"12","type":"t_mapping(t_uint256,t_uint256)"},{"astId":11887,"contract":"contracts/USDCFundraiserUpgradeable.sol:USDCFundraiserUpgradeable","label":"fundingType","offset":0,"slot":"13","type":"t_uint256"},{"astId":11892,"contract":"contracts/USDCFundraiserUpgradeable.sol:USDCFundraiserUpgradeable","label":"products","offset":0,"slot":"14","type":"t_mapping(t_uint256,t_struct(ProductConfig)11814_storage)"},{"astId":11896,"contract":"contracts/USDCFundraiserUpgradeable.sol:USDCFundraiserUpgradeable","label":"uniqueToOriginalProductId","offset":0,"slot":"15","type":"t_mapping(t_uint256,t_uint256)"},{"astId":11898,"contract":"contracts/USDCFundraiserUpgradeable.sol:USDCFundraiserUpgradeable","label":"campaignAdmin","offset":0,"slot":"16","type":"t_address"}],"types":{"t_address":{"encoding":"inplace","label":"address","numberOfBytes":"20"},"t_array(t_uint256)dyn_storage":{"base":"t_uint256","encoding":"dynamic_array","label":"uint256[]","numberOfBytes":"32"},"t_bool":{"encoding":"inplace","label":"bool","numberOfBytes":"1"},"t_contract(IERC20)3904":{"encoding":"inplace","label":"contract IERC20","numberOfBytes":"20"},"t_contract(ProductTokenUpgradeable)11276":{"encoding":"inplace","label":"contract ProductTokenUpgradeable","numberOfBytes":"20"},"t_mapping(t_uint256,t_struct(ProductConfig)11814_storage)":{"encoding":"mapping","key":"t_uint256","label":"mapping(uint256 => struct ProductConfig)","numberOfBytes":"32","value":"t_struct(ProductConfig)11814_storage"},"t_mapping(t_uint256,t_uint256)":{"encoding":"mapping","key":"t_uint256","label":"mapping(uint256 => uint256)","numberOfBytes":"32","value":"t_uint256"},"t_struct(ProductConfig)11814_storage":{"encoding":"inplace","label":"struct ProductConfig","members":[{"astId":11809,"contract":"contracts/USDCFundraiserUpgradeable.sol:USDCFundraiserUpgradeable","label":"productId","offset":0,"slot":"0","type":"t_uint256"},{"astId":11811,"contract":"contracts/USDCFundraiserUpgradeable.sol:USDCFundraiserUpgradeable","label":"price","offset":0,"slot":"1","type":"t_uint256"},{"astId":11813,"contract":"contracts/USDCFundraiserUpgradeable.sol:USDCFundraiserUpgradeable","label":"supplyLimit","offset":0,"slot":"2","type":"t_uint256"}],"numberOfBytes":"96"},"t_uint256":{"encoding":"inplace","label":"uint256","numberOfBytes":"32"}}}}}}