{"contracts/ProductTokenUpgradeable.sol":{"ProductTokenUpgradeable":{"abi":[{"inputs":[],"stateMutability":"nonpayable","type":"constructor"},{"inputs":[],"name":"AccessControlBadConfirmation","type":"error"},{"inputs":[{"internalType":"address","name":"account","type":"address"},{"internalType":"bytes32","name":"neededRole","type":"bytes32"}],"name":"AccessControlUnauthorizedAccount","type":"error"},{"inputs":[{"internalType":"address","name":"target","type":"address"}],"name":"AddressEmptyCode","type":"error"},{"inputs":[{"internalType":"address","name":"sender","type":"address"},{"internalType":"uint256","name":"balance","type":"uint256"},{"internalType":"uint256","name":"needed","type":"uint256"},{"internalType":"uint256","name":"tokenId","type":"uint256"}],"name":"ERC1155InsufficientBalance","type":"error"},{"inputs":[{"internalType":"address","name":"approver","type":"address"}],"name":"ERC1155InvalidApprover","type":"error"},{"inputs":[{"internalType":"uint256","name":"idsLength","type":"uint256"},{"internalType":"uint256","name":"valuesLength","type":"uint256"}],"name":"ERC1155InvalidArrayLength","type":"error"},{"inputs":[{"internalType":"address","name":"operator","type":"address"}],"name":"ERC1155InvalidOperator","type":"error"},{"inputs":[{"internalType":"address","name":"receiver","type":"address"}],"name":"ERC1155InvalidReceiver","type":"error"},{"inputs":[{"internalType":"address","name":"sender","type":"address"}],"name":"ERC1155InvalidSender","type":"error"},{"inputs":[{"internalType":"address","name":"operator","type":"address"},{"internalType":"address","name":"owner","type":"address"}],"name":"ERC1155MissingApprovalForAll","type":"error"},{"inputs":[{"internalType":"address","name":"implementation","type":"address"}],"name":"ERC1967InvalidImplementation","type":"error"},{"inputs":[],"name":"ERC1967NonPayable","type":"error"},{"inputs":[],"name":"FailedCall","type":"error"},{"inputs":[],"name":"InvalidInitialization","type":"error"},{"inputs":[],"name":"NotInitializing","type":"error"},{"inputs":[],"name":"UUPSUnauthorizedCallContext","type":"error"},{"inputs":[{"internalType":"bytes32","name":"slot","type":"bytes32"}],"name":"UUPSUnsupportedProxiableUUID","type":"error"},{"anonymous":false,"inputs":[{"indexed":true,"internalType":"address","name":"account","type":"address"},{"indexed":true,"internalType":"address","name":"operator","type":"address"},{"indexed":false,"internalType":"bool","name":"approved","type":"bool"}],"name":"ApprovalForAll","type":"event"},{"anonymous":false,"inputs":[{"indexed":false,"internalType":"string","name":"newUri","type":"string"}],"name":"BaseURIUpdated","type":"event"},{"anonymous":false,"inputs":[{"indexed":false,"internalType":"uint64","name":"version","type":"uint64"}],"name":"Initialized","type":"event"},{"anonymous":false,"inputs":[{"indexed":true,"internalType":"address","name":"from","type":"address"},{"indexed":true,"internalType":"uint256","name":"productId","type":"uint256"},{"indexed":false,"internalType":"uint256","name":"amount","type":"uint256"}],"name":"ProductBurned","type":"event"},{"anonymous":false,"inputs":[{"indexed":true,"internalType":"address","name":"to","type":"address"},{"indexed":true,"internalType":"uint256","name":"productId","type":"uint256"},{"indexed":false,"internalType":"uint256","name":"amount","type":"uint256"}],"name":"ProductMinted","type":"event"},{"anonymous":false,"inputs":[{"indexed":true,"internalType":"bytes32","name":"role","type":"bytes32"},{"indexed":true,"internalType":"bytes32","name":"previousAdminRole","type":"bytes32"},{"indexed":true,"internalType":"bytes32","name":"newAdminRole","type":"bytes32"}],"name":"RoleAdminChanged","type":"event"},{"anonymous":false,"inputs":[{"indexed":true,"internalType":"bytes32","name":"role","type":"bytes32"},{"indexed":true,"internalType":"address","name":"account","type":"address"},{"indexed":true,"internalType":"address","name":"sender","type":"address"}],"name":"RoleGranted","type":"event"},{"anonymous":false,"inputs":[{"indexed":true,"internalType":"bytes32","name":"role","type":"bytes32"},{"indexed":true,"internalType":"address","name":"account","type":"address"},{"indexed":true,"internalType":"address","name":"sender","type":"address"}],"name":"RoleRevoked","type":"event"},{"anonymous":false,"inputs":[{"indexed":true,"internalType":"address","name":"operator","type":"address"},{"indexed":true,"internalType":"address","name":"from","type":"address"},{"indexed":true,"internalType":"address","name":"to","type":"address"},{"indexed":false,"internalType":"uint256[]","name":"ids","type":"uint256[]"},{"indexed":false,"internalType":"uint256[]","name":"values","type":"uint256[]"}],"name":"TransferBatch","type":"event"},{"anonymous":false,"inputs":[{"indexed":true,"internalType":"address","name":"operator","type":"address"},{"indexed":true,"internalType":"address","name":"from","type":"address"},{"indexed":true,"internalType":"address","name":"to","type":"address"},{"indexed":false,"internalType":"uint256","name":"id","type":"uint256"},{"indexed":false,"internalType":"uint256","name":"value","type":"uint256"}],"name":"TransferSingle","type":"event"},{"anonymous":false,"inputs":[{"indexed":false,"internalType":"string","name":"value","type":"string"},{"indexed":true,"internalType":"uint256","name":"id","type":"uint256"}],"name":"URI","type":"event"},{"anonymous":false,"inputs":[{"indexed":true,"internalType":"address","name":"implementation","type":"address"}],"name":"Upgraded","type":"event"},{"inputs":[],"name":"DEFAULT_ADMIN_ROLE","outputs":[{"internalType":"bytes32","name":"","type":"bytes32"}],"stateMutability":"view","type":"function"},{"inputs":[],"name":"MINTER_ROLE","outputs":[{"internalType":"bytes32","name":"","type":"bytes32"}],"stateMutability":"view","type":"function"},{"inputs":[],"name":"UPGRADER_ROLE","outputs":[{"internalType":"bytes32","name":"","type":"bytes32"}],"stateMutability":"view","type":"function"},{"inputs":[],"name":"UPGRADE_INTERFACE_VERSION","outputs":[{"internalType":"string","name":"","type":"string"}],"stateMutability":"view","type":"function"},{"inputs":[{"internalType":"address","name":"account","type":"address"},{"internalType":"uint256","name":"id","type":"uint256"}],"name":"balanceOf","outputs":[{"internalType":"uint256","name":"","type":"uint256"}],"stateMutability":"view","type":"function"},{"inputs":[{"internalType":"address[]","name":"accounts","type":"address[]"},{"internalType":"uint256[]","name":"ids","type":"uint256[]"}],"name":"balanceOfBatch","outputs":[{"internalType":"uint256[]","name":"","type":"uint256[]"}],"stateMutability":"view","type":"function"},{"inputs":[{"internalType":"address","name":"from","type":"address"},{"internalType":"uint256","name":"productId","type":"uint256"},{"internalType":"uint256","name":"amount","type":"uint256"}],"name":"burn","outputs":[],"stateMutability":"nonpayable","type":"function"},{"inputs":[],"name":"getProductIds","outputs":[{"internalType":"uint256[]","name":"","type":"uint256[]"}],"stateMutability":"view","type":"function"},{"inputs":[{"internalType":"bytes32","name":"role","type":"bytes32"}],"name":"getRoleAdmin","outputs":[{"internalType":"bytes32","name":"","type":"bytes32"}],"stateMutability":"view","type":"function"},{"inputs":[{"internalType":"bytes32","name":"role","type":"bytes32"},{"internalType":"address","name":"account","type":"address"}],"name":"grantRole","outputs":[],"stateMutability":"nonpayable","type":"function"},{"inputs":[{"internalType":"bytes32","name":"role","type":"bytes32"},{"internalType":"address","name":"account","type":"address"}],"name":"hasRole","outputs":[{"internalType":"bool","name":"","type":"bool"}],"stateMutability":"view","type":"function"},{"inputs":[{"internalType":"string","name":"baseUri","type":"string"}],"name":"initialize","outputs":[],"stateMutability":"nonpayable","type":"function"},{"inputs":[{"internalType":"address","name":"account","type":"address"},{"internalType":"address","name":"operator","type":"address"}],"name":"isApprovedForAll","outputs":[{"internalType":"bool","name":"","type":"bool"}],"stateMutability":"view","type":"function"},{"inputs":[{"internalType":"address","name":"to","type":"address"},{"internalType":"uint256","name":"productId","type":"uint256"},{"internalType":"uint256","name":"amount","type":"uint256"}],"name":"mint","outputs":[],"stateMutability":"nonpayable","type":"function"},{"inputs":[{"internalType":"uint256","name":"productId","type":"uint256"}],"name":"productSupply","outputs":[{"internalType":"uint256","name":"","type":"uint256"}],"stateMutability":"view","type":"function"},{"inputs":[],"name":"proxiableUUID","outputs":[{"internalType":"bytes32","name":"","type":"bytes32"}],"stateMutability":"view","type":"function"},{"inputs":[{"internalType":"bytes32","name":"role","type":"bytes32"},{"internalType":"address","name":"callerConfirmation","type":"address"}],"name":"renounceRole","outputs":[],"stateMutability":"nonpayable","type":"function"},{"inputs":[{"internalType":"bytes32","name":"role","type":"bytes32"},{"internalType":"address","name":"account","type":"address"}],"name":"revokeRole","outputs":[],"stateMutability":"nonpayable","type":"function"},{"inputs":[{"internalType":"address","name":"from","type":"address"},{"internalType":"address","name":"to","type":"address"},{"internalType":"uint256[]","name":"ids","type":"uint256[]"},{"internalType":"uint256[]","name":"values","type":"uint256[]"},{"internalType":"bytes","name":"data","type":"bytes"}],"name":"safeBatchTransferFrom","outputs":[],"stateMutability":"nonpayable","type":"function"},{"inputs":[{"internalType":"address","name":"from","type":"address"},{"internalType":"address","name":"to","type":"address"},{"internalType":"uint256","name":"id","type":"uint256"},{"internalType":"uint256","name":"value","type":"uint256"},{"internalType":"bytes","name":"data","type":"bytes"}],"name":"safeTransferFrom","outputs":[],"stateMutability":"nonpayable","type":"function"},{"inputs":[{"internalType":"address","name":"operator","type":"address"},{"internalType":"bool","name":"approved","type":"bool"}],"name":"setApprovalForAll","outputs":[],"stateMutability":"nonpayable","type":"function"},{"inputs":[{"internalType":"string","name":"newUri","type":"string"}],"name":"setBaseURI","outputs":[],"stateMutability":"nonpayable","type":"function"},{"inputs":[{"internalType":"bytes4","name":"interfaceId","type":"bytes4"}],"name":"supportsInterface","outputs":[{"internalType":"bool","name":"","type":"bool"}],"stateMutability":"view","type":"function"},{"inputs":[{"internalType":"address","name":"newImplementation","type":"address"},{"internalType":"bytes","name":"data","type":"bytes"}],"name":"upgradeToAndCall","outputs":[],"stateMutability":"payable","type":"function"},{"inputs":[{"internalType":"uint256","name":"tokenId","type":"uint256"}],"name":"uri","outputs":[{"internalType":"string","name":"","type":"string"}],"stateMutability":"view","type":"function"}],"evm":{"bytecode":{"linkReferences":{},"object":"60a080604052346100ea57306080527ff0c57e16840df040f15088dc2f81fe391c3923bec73e23a9662efc9c229c6a005460ff8160401c166100d9576002600160401b03196001600160401b03821601610073575b6040516129e290816100f08239608051818181610a8d0152610bbf0152f35b6001600160401b0319166001600160401b039081177ff0c57e16840df040f15088dc2f81fe391c3923bec73e23a9662efc9c229c6a005581527fc7f505b2f371ae2175ee4913f4499e1f2633a7b5936321eed1cdaeb6115181d290602090a13880610054565b63f92ee8a960e01b60005260046000fd5b600080fdfe6080604052600436101561001257600080fd5b60003560e01c8062fdd58e146101a657806301ffc9a7146101a15780630e89341c1461019c578063156e29f614610197578063248a9ca3146101925780632eb2c2d61461018d5780632f2ff15d1461018857806336568abe1461018357806347428e7b1461017e5780634e1273f4146101795780634f1ef2861461017457806352d1902d1461016f57806355f804b31461016a57806391d1485414610165578063a217fddf14610160578063a22cb4651461015b578063ad3cb1cc14610156578063d539139314610151578063d547741f1461014c578063e985e9c514610147578063ef8593e714610142578063f242432a1461013d578063f5298aca14610138578063f62d1888146101335763f72c0d8b1461012e57600080fd5b611378565b61120f565b611141565b611045565b610ff4565b610fc3565b610f92565b610f57565b610f10565b610e50565b610e34565b610dd4565b610c40565b610bac565b610a4f565b61099c565b610919565b61088e565b610858565b6107cc565b61068e565b610536565b610353565b61026e565b6101f0565b600435906001600160a01b03821682036101c157565b600080fd5b602435906001600160a01b03821682036101c157565b35906001600160a01b03821682036101c157565b346101c15760403660031901126101c157602061025361020e6101ab565b6024356000527f88be536d5240c274a3b1d3a1be54482fd9caa294f08c62a7cde569f49a3c4500835260406000209060018060a01b0316600052602052604060002090565b54604051908152f35b6001600160e01b03198116036101c157565b346101c15760203660031901126101c15760043561028b8161025c565b63ffffffff60e01b16637965db0b60e01b81149081156102b4575b506040519015158152602090f35b636cdb3d1360e11b8114915081156102e6575b81156102d5575b50386102a6565b6301ffc9a760e01b149050386102ce565b6303a24d0760e21b811491506102c7565b60005b83811061030a5750506000910152565b81810151838201526020016102fa565b90602091610333815180928185528580860191016102f7565b601f01601f1916010190565b90602061035092818152019061031a565b90565b346101c15760203660031901126101c15760006004358072184f03e93ff9f4daa797ed6e38ed64bf6a1f0160401b8110156104e9575b806d04ee2d6d415b85acef8100000000600a9210156104cd575b662386f26fc100008110156104b8575b6305f5e1008110156104a6575b612710811015610496575b6064811015610487575b101561047c575b61041960216103ed60018501611b7a565b938401015b60001901916f181899199a1a9b1b9c1cb0b131b232b360811b600a82061a8353600a900490565b90811561042957610419906103f2565b6040516104789061046c8161045e61044d88610447602085016114a0565b90611529565b64173539b7b760d91b815260050190565b03601f1981018352826106ca565b6040519182918261033f565b0390f35b6001909101906103dc565b600290606490049301926103d5565b60049061271090049301926103cb565b6008906305f5e10090049301926103c0565b601090662386f26fc1000090049301926103b3565b6020906d04ee2d6d415b85acef810000000090049301926103a3565b506040915072184f03e93ff9f4daa797ed6e38ed64bf6a1f0160401b8104610389565b60609060031901126101c1576004356001600160a01b03811681036101c157906024359060443590565b346101c1576105443661050c565b909161054e611bac565b610559831515611540565b610564821515611581565b82600052600260205260ff60406000205416156105f4575b6105ef7f1ace3364065011f2a2f041ccf777c9f5394104fb5c15ec40e2ed753531e33b21916105b5856000526000602052604060002090565b6105c08582546115ea565b90556105d56105cd610efb565b858784611d2d565b6040519384526001600160a01b0316929081906020820190565b0390a3005b600154600160401b811015610689576001810180600155811015610684577fb10e2d527612073b26eecdfd717e6a320cf44b4afac2b0732d9fcbe2b7fa0cf60183905560008381526002602052604090207f1ace3364065011f2a2f041ccf777c9f5394104fb5c15ec40e2ed753531e33b21916105ef9161067c90805460ff19166001179055565b91505061057c565b6115be565b6106b4565b346101c15760203660031901126101c15760206106ac6004356115fc565b604051908152f35b634e487b7160e01b600052604160045260246000fd5b90601f801991011681019081106001600160401b0382111761068957604052565b6001600160401b0381116106895760051b60200190565b9080601f830112156101c1578135610719816106eb565b9261072760405194856106ca565b81845260208085019260051b8201019283116101c157602001905b82821061074f5750505090565b8135815260209182019101610742565b6001600160401b03811161068957601f01601f191660200190565b9291926107868261075f565b9161079460405193846106ca565b8294818452818301116101c1578281602093846000960137010152565b9080601f830112156101c1578160206103509335910161077a565b346101c15760a03660031901126101c1576107e56101ab565b6107ed6101c6565b906044356001600160401b0381116101c15761080d903690600401610702565b6064356001600160401b0381116101c15761082c903690600401610702565b90608435936001600160401b0385116101c1576108506108569536906004016107b1565b9361161d565b005b346101c15760403660031901126101c1576108566004356108776101c6565b90610889610884826115fc565b611ce3565b6120b0565b346101c15760403660031901126101c1576004356108aa6101c6565b336001600160a01b038216036108c3576108569161214c565b63334bd91960e11b60005260046000fd5b906020808351928381520192019060005b8181106108f25750505090565b82518452602093840193909201916001016108e5565b9060206103509281815201906108d4565b346101c15760003660031901126101c15760405180602060015491828152019060016000527fb10e2d527612073b26eecdfd717e6a320cf44b4afac2b0732d9fcbe2b7fa0cf69060005b818110610986576104788561097a818703826106ca565b60405191829182610908565b8254845260209093019260019283019201610963565b346101c15760403660031901126101c1576004356001600160401b0381116101c157366023820112156101c1578060040135906109d8826106eb565b916109e660405193846106ca565b8083526024602084019160051b830101913683116101c157602401905b828210610a3757836024356001600160401b0381116101c15761047891610a3161097a923690600401610702565b90611684565b60208091610a44846101dc565b815201910190610a03565b60403660031901126101c157610a636101ab565b6024356001600160401b0381116101c157610a829036906004016107b1565b906001600160a01b037f000000000000000000000000000000000000000000000000000000000000000016308114908115610b89575b50610b7857610ac5611c1e565b6040516352d1902d60e01b8152916020836004816001600160a01b0386165afa60009381610b47575b50610b1157634c9c8ce360e01b6000526001600160a01b03821660045260246000fd5b9060008051602061292d8339815191528303610b3157610856925061252e565b632a87526960e21b600052600483905260246000fd5b610b6a91945060203d602011610b71575b610b6281836106ca565b8101906121f1565b9238610aee565b503d610b58565b63703e46dd60e11b60005260046000fd5b60008051602061292d833981519152546001600160a01b03161415905038610ab8565b346101c15760003660031901126101c1577f00000000000000000000000000000000000000000000000000000000000000006001600160a01b03163003610b7857602060405160008051602061292d8339815191528152f35b60206003198201126101c157600435906001600160401b0382116101c157806023830112156101c1578160246103509360040135910161077a565b346101c157610c4e36610c05565b610c56611c90565b805115610d9c5780516001600160401b03811161068957610c8181610c7c600354611466565b61171c565b6020601f8211600114610cf45791610cd582610ce4937f6741b2fc379fad678116fe3d4d4b9a1a184ab53ba36b86ad0fa66340b1ab41ad95600091610ce9575b508160011b916000199060031b1c19161790565b6003556040519182918261033f565b0390a1005b905083015138610cc1565b6003600052601f198216907fc2575a0e9e593c00f959f8c92f12db2869c3395a3b0502d05e2516446f71f85b9160005b818110610d845750927f6741b2fc379fad678116fe3d4d4b9a1a184ab53ba36b86ad0fa66340b1ab41ad949260019282610ce49610610d6b575b5050811b0160035561046c565b84015160001960f88460031b161c191690553880610d5e565b91926020600181928689015181550194019201610d24565b60405162461bcd60e51b815260206004820152601060248201526f496e76616c696420626173652055524960801b6044820152606490fd5b346101c15760403660031901126101c157602060ff610e28600435610df76101c6565b9060005260008051602061294d833981519152845260406000209060018060a01b0316600052602052604060002090565b54166040519015158152f35b346101c15760003660031901126101c157602060405160008152f35b346101c15760403660031901126101c157610e696101ab565b6024358015158091036101c1576001600160a01b038216918215610ee657610eab90610e94336113e2565b9060018060a01b0316600052602052604060002090565b60ff1981541660ff83161790556040519081527f17307eab39ab6107e8899845ad3d59bd9653f200f220920489ca2b5937696c3160203392a3005b62ced3e160e81b600052600060045260246000fd5b60405190610f0a6020836106ca565b60008252565b346101c15760003660031901126101c1576104786040805190610f3381836106ca565b60058252640352e302e360dc1b60208301525191829160208352602083019061031a565b346101c15760003660031901126101c15760206040517f9f2df0fed2c77648de5860a4cc508cd0818c85b8b8a1ab4ceeef8d981c8956a68152f35b346101c15760403660031901126101c157610856600435610fb16101c6565b90610fbe610884826115fc565b61214c565b346101c15760403660031901126101c157602060ff610e28610fe36101ab565b610e94610fee6101c6565b916113e2565b346101c15760203660031901126101c157600435611013811515611540565b80600052600260205261102d60ff6040600020541661191d565b60005260006020526020604060002054604051908152f35b346101c15760a03660031901126101c15761105e6101ab565b6110666101c6565b60443590606435926084356001600160401b0381116101c15761108d9036906004016107b1565b926001600160a01b0382163381141580611130575b611118576001600160a01b0384161561110257156110ed57610856946110e560405192600184526020840152604083019160018352606084015260808301604052565b92909161236e565b626a0d4560e21b600052600060045260246000fd5b632bfa23e760e11b600052600060045260246000fd5b63711bec9160e11b6000523360045260245260446000fd5b5061113b3384611909565b156110a2565b346101c1576105ef7fd215b5584879caeecb087ed93b0d4013d83ced647fd0a905f4f54a948cf0eb8d6111733661050c565b9291611180949194611bac565b61118b851515611540565b611196841515611581565b8460005260026020526111b060ff6040600020541661191d565b8460005260006020526111ca604060002054851115611969565b6111e3846111db83610e94896113b3565b5410156119b5565b6111f7856000526000602052604060002090565b6112028582546119f8565b90556105d5848683612200565b346101c15761121d36610c05565b60008051602061296d83398151915254906001600160401b0361124f60ff604085901c1615936001600160401b031690565b1680159081611370575b6001149081611366575b15908161135d575b5061134c576112b090826112a760016001600160401b031960008051602061296d83398151915254161760008051602061296d83398151915255565b61131557611a05565b6112b657005b6112e260ff60401b1960008051602061296d833981519152541660008051602061296d83398151915255565b604051600181527fc7f505b2f371ae2175ee4913f4499e1f2633a7b5936321eed1cdaeb6115181d2908060208101610ce4565b611347600160401b60ff60401b1960008051602061296d83398151915254161760008051602061296d83398151915255565b611a05565b63f92ee8a960e01b60005260046000fd5b9050153861126b565b303b159150611263565b839150611259565b346101c15760003660031901126101c15760206040517f189ab7a9244df0848122154315af71fe140f3db0fe014031783b0946b8c9d2e38152f35b6000527f88be536d5240c274a3b1d3a1be54482fd9caa294f08c62a7cde569f49a3c4500602052604060002090565b6001600160a01b031660009081527f88be536d5240c274a3b1d3a1be54482fd9caa294f08c62a7cde569f49a3c45016020526040902090565b611462916000527f88be536d5240c274a3b1d3a1be54482fd9caa294f08c62a7cde569f49a3c450060205260406000209060018060a01b0316600052602052604060002090565b5490565b90600182811c92168015611496575b602083101461148057565b634e487b7160e01b600052602260045260246000fd5b91607f1691611475565b600354600092916114b082611466565b916001811690811561151757506001146114c8575050565b6003600090815292935090917fc2575a0e9e593c00f959f8c92f12db2869c3395a3b0502d05e2516446f71f85b5b8382106115035750500190565b6001816020925484860152019101906114f6565b60ff1916825250811515909102019150565b9061153c602092828151948592016102f7565b0190565b1561154757565b60405162461bcd60e51b8152602060048201526012602482015271125b9d985b1a59081c1c9bd91d58dd08125160721b6044820152606490fd5b1561158857565b60405162461bcd60e51b815260206004820152600e60248201526d125b9d985b1a5908185b5bdd5b9d60921b6044820152606490fd5b634e487b7160e01b600052603260045260246000fd5b634e487b7160e01b600052601160045260246000fd5b919082018092116115f757565b6115d4565b60005260008051602061294d83398151915260205260016040600020015490565b939291906001600160a01b0385163381141580611658575b611118576001600160a01b0382161561110257156110ed576116569461236e565b565b5060ff61166833610e94896113e2565b541615611635565b80518210156106845760209160051b010190565b919091805183518082036117055750508051906116a0826106eb565b916116ae60405193846106ca565b8083526116bd601f19916106eb565b0136602084013760005b81518110156116fe57806116ed60019260051b602080828701015191890101519061141b565b6116f78286611670565b52016116c7565b5090925050565b635b05999160e01b60005260045260245260446000fd5b601f8111611728575050565b60036000526020600020906020601f840160051c83019310611765575b601f0160051c01905b818110611759575050565b6000815560010161174e565b9091508190611745565b601f811161177b575050565b60008051602061298d8339815191526000526020600020906020601f840160051c830193106117c5575b601f0160051c01905b8181106117b9575050565b600081556001016117ae565b90915081906117a5565b601f82116117dc57505050565b6000526020600020906020601f840160051c83019310611817575b601f0160051c01905b81811061180b575050565b60008155600101611800565b90915081906117f7565b9081516001600160401b0381116106895761184881611841600354611466565b60036117cf565b602092601f821160011461188a5761187a9293829160009261187f575b50508160011b916000199060031b1c19161790565b600355565b015190503880611865565b6003600052601f198216937fc2575a0e9e593c00f959f8c92f12db2869c3395a3b0502d05e2516446f71f85b9160005b8681106118f157508360019596106118d8575b505050811b01600355565b015160001960f88460031b161c191690553880806118cd565b919260206001819286850151815501940192016118ba565b60ff91610e94611918926113e2565b541690565b1561192457565b60405162461bcd60e51b815260206004820152601960248201527f50726f6475637420494420646f6573206e6f74206578697374000000000000006044820152606490fd5b1561197057565b60405162461bcd60e51b815260206004820152601a60248201527f4275726e20616d6f756e74206578636565647320737570706c790000000000006044820152606490fd5b156119bc57565b60405162461bcd60e51b8152602060048201526014602482015273496e73756666696369656e742062616c616e636560601b6044820152606490fd5b919082039182116115f757565b6040516020611a1481836106ca565b60008252611a206125d2565b611a286125d2565b8151916001600160401b03831161068957611a5a83611a5560008051602061298d83398151915254611466565b61176f565b81601f8411600114611ad457509180611a8e92611ab4959460009261187f5750508160011b916000199060031b1c19161790565b60008051602061298d833981519152555b611aa76125d2565b611aaf6125d2565b611821565b611abd33611e86565b50611ac733611f26565b50611ad133611feb565b50565b60008051602061298d8339815191526000529190601f1984167ff429cb5e2ec84cbb765e76b31964a56ccde03e7a6122d6cc4afb19edc55edeed936000905b828210611b62575050916001939185611ab497969410611b49575b505050811b0160008051602061298d83398151915255611a9f565b015160001960f88460031b161c19169055388080611b2e565b80600186978294978701518155019601940190611b13565b90611b848261075f565b611b9160405191826106ca565b8281528092611ba2601f199161075f565b0190602036910137565b3360009081527f549fe2656c81d2947b3b913f0a53b9ea86c71e049f3a1b8aa23c09a8a05cb8d4602052604090205460ff1615611be557565b63e2517d3f60e01b600052336004527f9f2df0fed2c77648de5860a4cc508cd0818c85b8b8a1ab4ceeef8d981c8956a660245260446000fd5b3360009081527fab71e3f32666744d246edff3f96e4bdafee2e9867098cdd118a979a7464786a8602052604090205460ff1615611c5757565b63e2517d3f60e01b600052336004527f189ab7a9244df0848122154315af71fe140f3db0fe014031783b0946b8c9d2e360245260446000fd5b3360009081527fb7db2dd08fcb62d0c9e08c51941cae53c267786a0b75803fb7960902fc8ef97d602052604090205460ff1615611cc957565b63e2517d3f60e01b60005233600452600060245260446000fd5b600081815260008051602061294d8339815191526020908152604080832033845290915290205460ff1615611d155750565b63e2517d3f60e01b6000523360045260245260446000fd5b6001600160a01b0381169392909190841561110257611d6960405192600184526020840152604083019160018352606084015260808301604052565b928151845190818103611e6f57505060005b8251811015611db8578060019160051b611db0611da887610e94602080868b010151958c010151946113b3565b9182546115ea565b905501611d7b565b509291936001825114600014611e335760208281015184820151604080519283529282015260009133917fc3d58168c5ae7397731d063d5bbf3d657854427343f4c083240f7aacaa2d0f629190a45b8051600103611e27579060208061165695930151910151916000336127f2565b611656936000336126bd565b60006040517f4a39dc06d4c0dbc64b70af90fd698a233a518aa5d07e595d983b8c0526c8f7fb339180611e67888883612600565b0390a4611e07565b635b05999160e01b60005260045260245260446000fd5b6001600160a01b03811660009081527fb7db2dd08fcb62d0c9e08c51941cae53c267786a0b75803fb7960902fc8ef97d602052604090205460ff16611f20576001600160a01b031660008181527fb7db2dd08fcb62d0c9e08c51941cae53c267786a0b75803fb7960902fc8ef97d60205260408120805460ff1916600117905533919060008051602061290d8339815191528180a4600190565b50600090565b6001600160a01b03811660009081527f549fe2656c81d2947b3b913f0a53b9ea86c71e049f3a1b8aa23c09a8a05cb8d4602052604090205460ff16611f20576001600160a01b03811660009081527f549fe2656c81d2947b3b913f0a53b9ea86c71e049f3a1b8aa23c09a8a05cb8d460205260409020805460ff1916600117905533906001600160a01b03167f9f2df0fed2c77648de5860a4cc508cd0818c85b8b8a1ab4ceeef8d981c8956a660008051602061290d833981519152600080a4600190565b6001600160a01b03811660009081527fab71e3f32666744d246edff3f96e4bdafee2e9867098cdd118a979a7464786a8602052604090205460ff16611f20576001600160a01b03811660009081527fab71e3f32666744d246edff3f96e4bdafee2e9867098cdd118a979a7464786a860205260409020805460ff1916600117905533906001600160a01b03167f189ab7a9244df0848122154315af71fe140f3db0fe014031783b0946b8c9d2e360008051602061290d833981519152600080a4600190565b600081815260008051602061294d833981519152602090815260408083206001600160a01b038616845290915290205460ff1661214557600081815260008051602061294d833981519152602090815260408083206001600160a01b03861684529091529020805460ff1916600117905533916001600160a01b03169060008051602061290d833981519152600080a4600190565b5050600090565b600081815260008051602061294d833981519152602090815260408083206001600160a01b038616845290915290205460ff161561214557600081815260008051602061294d833981519152602090815260408083206001600160a01b03861684529091529020805460ff1916905533916001600160a01b0316907ff6391f5c32d9c69d2a47ea670b442974b53935d1edc7fd64eb21e047a839171b600080a4600190565b908160209103126101c1575190565b926001600160a01b0384169290919083156110ed5761223c60405192600184526020840152604083019160018352606084015260808301604052565b9190602091600060405161225085826106ca565b528151845190818103611e6f57505060005b82518110156122e2578060051b84808286010151918701015161228889610e94846113b3565b548181106122ab5789610e9460019594936122a49303936113b3565b5501612262565b6040516303dee4c560e01b81526001600160a01b038b16600482015260248101919091526044810182905260648101839052608490fd5b5094509091600093926001835114851461233a579182015191015160408051928352602083019190915233917fc3d58168c5ae7397731d063d5bbf3d657854427343f4c083240f7aacaa2d0f6291819081015b0390a4565b506123357f4a39dc06d4c0dbc64b70af90fd698a233a518aa5d07e595d983b8c0526c8f7fb91604051918291339583612600565b9493929091938451825190818103611e6f5750506001600160a01b0386811695861515959185168015159391929060005b8451811015612460578060051b90898988602080868b010151958c010151926123ef575b936001946123d5575b5050500161239f565b6123e591610e94611da8926113b3565b90553889816123cc565b505090916124008d610e94836113b3565b54828110612429578291898f612420600197968f950391610e94856113b3565b559094506123c3565b6040516303dee4c560e01b81526001600160a01b038f16600482015260248101919091526044810183905260648101829052608490fd5b5091989593929790965060018851146000146124f45760208881015186820151604080519283529282015233917fc3d58168c5ae7397731d063d5bbf3d657854427343f4c083240f7aacaa2d0f6291a45b6124bd575b5050505050565b84516001036124e3576020806124d996015192015192336127f2565b38808080806124b6565b6124ef949192336126bd565b6124d9565b6040517f4a39dc06d4c0dbc64b70af90fd698a233a518aa5d07e595d983b8c0526c8f7fb339180612526898d83612600565b0390a46124b1565b90813b156125b05760008051602061292d83398151915280546001600160a01b0319166001600160a01b0384169081179091557fbc7cd75a20ee27fd9adebab32041f755214dbc6bffa90cc0225b39da2e5c2d3b600080a280511561259657611ad191612892565b50503461259f57565b63b398979f60e01b60005260046000fd5b50634c9c8ce360e01b60009081526001600160a01b0391909116600452602490fd5b60ff60008051602061296d8339815191525460401c16156125ef57565b631afcd79f60e31b60005260046000fd5b9091612617610350936040845260408401906108d4565b9160208184039101526108d4565b908160209103126101c157516103508161025c565b6001600160a01b0391821681529116602082015260a060408201819052610350949193919261267f929161267191908601906108d4565b9084820360608601526108d4565b91608081840391015261031a565b3d156126b8573d9061269e8261075f565b916126ac60405193846106ca565b82523d6000602084013e565b606090565b9091949293853b6126d1575b505050505050565b6020936126f391604051968795869563bc197c8160e01b87526004870161263a565b038160006001600160a01b0387165af160009181612788575b50612748575061271a61268d565b805191908261274157632bfa23e760e11b6000526001600160a01b03821660045260246000fd5b9050602001fd5b6001600160e01b0319166343e6837f60e01b0161276b57503880808080806126c9565b632bfa23e760e11b6000526001600160a01b031660045260246000fd5b6127ab91925060203d6020116127b2575b6127a381836106ca565b810190612625565b903861270c565b503d612799565b6001600160a01b039182168152911660208201526040810191909152606081019190915260a0608082018190526103509291019061031a565b9091949293853b61280557505050505050565b60209361282791604051968795869563f23a6e6160e01b8752600487016127b9565b038160006001600160a01b0387165af160009181612871575b5061284e575061271a61268d565b6001600160e01b031916630dc5919f60e01b0161276b57503880808080806126c9565b61288b91925060203d6020116127b2576127a381836106ca565b9038612840565b60008061035093602081519101845af46128aa61268d565b91906128d157508051156128c057805190602001fd5b63d6bda27560e01b60005260046000fd5b81511580612903575b6128e2575090565b639996b31560e01b60009081526001600160a01b0391909116600452602490fd5b50803b156128da56fe2f8788117e7eff1d82e926ec794901d17c78024a50270940304540a733656f0d360894a13ba1a3210667c828492db98dca3e2076cc3735a920a3ca505d382bbc02dd7bc7dec4dceedda775e58dd541e08a116c6c53815c0bd028192f7b626800f0c57e16840df040f15088dc2f81fe391c3923bec73e23a9662efc9c229c6a0088be536d5240c274a3b1d3a1be54482fd9caa294f08c62a7cde569f49a3c4502a26469706673582212208e75664aa1d99035665650b3bdc4f98de662bbc8c4777eaf7656f78e37a9da6964736f6c634300081b0033","opcodes":"PUSH1 0xA0 DUP1 PUSH1 0x40 MSTORE CALLVALUE PUSH2 0xEA JUMPI ADDRESS PUSH1 0x80 MSTORE PUSH32 0xF0C57E16840DF040F15088DC2F81FE391C3923BEC73E23A9662EFC9C229C6A00 SLOAD PUSH1 0xFF DUP2 PUSH1 0x40 SHR AND PUSH2 0xD9 JUMPI PUSH1 0x2 PUSH1 0x1 PUSH1 0x40 SHL SUB NOT PUSH1 0x1 PUSH1 0x1 PUSH1 0x40 SHL SUB DUP3 AND ADD PUSH2 0x73 JUMPI JUMPDEST PUSH1 0x40 MLOAD PUSH2 0x29E2 SWAP1 DUP2 PUSH2 0xF0 DUP3 CODECOPY PUSH1 0x80 MLOAD DUP2 DUP2 DUP2 PUSH2 0xA8D ADD MSTORE PUSH2 0xBBF ADD MSTORE RETURN JUMPDEST PUSH1 0x1 PUSH1 0x1 PUSH1 0x40 SHL SUB NOT AND PUSH1 0x1 PUSH1 0x1 PUSH1 0x40 SHL SUB SWAP1 DUP2 OR PUSH32 0xF0C57E16840DF040F15088DC2F81FE391C3923BEC73E23A9662EFC9C229C6A00 SSTORE DUP2 MSTORE PUSH32 0xC7F505B2F371AE2175EE4913F4499E1F2633A7B5936321EED1CDAEB6115181D2 SWAP1 PUSH1 0x20 SWAP1 LOG1 CODESIZE DUP1 PUSH2 0x54 JUMP JUMPDEST PUSH4 0xF92EE8A9 PUSH1 0xE0 SHL PUSH1 0x0 MSTORE PUSH1 0x4 PUSH1 0x0 REVERT JUMPDEST PUSH1 0x0 DUP1 REVERT INVALID PUSH1 0x80 PUSH1 0x40 MSTORE PUSH1 0x4 CALLDATASIZE LT ISZERO PUSH2 0x12 JUMPI PUSH1 0x0 DUP1 REVERT JUMPDEST PUSH1 0x0 CALLDATALOAD PUSH1 0xE0 SHR DUP1 PUSH3 0xFDD58E EQ PUSH2 0x1A6 JUMPI DUP1 PUSH4 0x1FFC9A7 EQ PUSH2 0x1A1 JUMPI DUP1 PUSH4 0xE89341C EQ PUSH2 0x19C JUMPI DUP1 PUSH4 0x156E29F6 EQ PUSH2 0x197 JUMPI DUP1 PUSH4 0x248A9CA3 EQ PUSH2 0x192 JUMPI DUP1 PUSH4 0x2EB2C2D6 EQ PUSH2 0x18D JUMPI DUP1 PUSH4 0x2F2FF15D EQ PUSH2 0x188 JUMPI DUP1 PUSH4 0x36568ABE EQ PUSH2 0x183 JUMPI DUP1 PUSH4 0x47428E7B EQ PUSH2 0x17E JUMPI DUP1 PUSH4 0x4E1273F4 EQ PUSH2 0x179 JUMPI DUP1 PUSH4 0x4F1EF286 EQ PUSH2 0x174 JUMPI DUP1 PUSH4 0x52D1902D EQ PUSH2 0x16F JUMPI DUP1 PUSH4 0x55F804B3 EQ PUSH2 0x16A JUMPI DUP1 PUSH4 0x91D14854 EQ PUSH2 0x165 JUMPI DUP1 PUSH4 0xA217FDDF EQ PUSH2 0x160 JUMPI DUP1 PUSH4 0xA22CB465 EQ PUSH2 0x15B JUMPI DUP1 PUSH4 0xAD3CB1CC EQ PUSH2 0x156 JUMPI DUP1 PUSH4 0xD5391393 EQ PUSH2 0x151 JUMPI DUP1 PUSH4 0xD547741F EQ PUSH2 0x14C JUMPI DUP1 PUSH4 0xE985E9C5 EQ PUSH2 0x147 JUMPI DUP1 PUSH4 0xEF8593E7 EQ PUSH2 0x142 JUMPI DUP1 PUSH4 0xF242432A EQ PUSH2 0x13D JUMPI DUP1 PUSH4 0xF5298ACA EQ PUSH2 0x138 JUMPI DUP1 PUSH4 0xF62D1888 EQ PUSH2 0x133 JUMPI PUSH4 0xF72C0D8B EQ PUSH2 0x12E JUMPI PUSH1 0x0 DUP1 REVERT JUMPDEST PUSH2 0x1378 JUMP JUMPDEST PUSH2 0x120F JUMP JUMPDEST PUSH2 0x1141 JUMP JUMPDEST PUSH2 0x1045 JUMP JUMPDEST PUSH2 0xFF4 JUMP JUMPDEST PUSH2 0xFC3 JUMP JUMPDEST PUSH2 0xF92 JUMP JUMPDEST PUSH2 0xF57 JUMP JUMPDEST PUSH2 0xF10 JUMP JUMPDEST PUSH2 0xE50 JUMP JUMPDEST PUSH2 0xE34 JUMP JUMPDEST PUSH2 0xDD4 JUMP JUMPDEST PUSH2 0xC40 JUMP JUMPDEST PUSH2 0xBAC JUMP JUMPDEST PUSH2 0xA4F JUMP JUMPDEST PUSH2 0x99C JUMP JUMPDEST PUSH2 0x919 JUMP JUMPDEST PUSH2 0x88E JUMP JUMPDEST PUSH2 0x858 JUMP JUMPDEST PUSH2 0x7CC JUMP JUMPDEST PUSH2 0x68E JUMP JUMPDEST PUSH2 0x536 JUMP JUMPDEST PUSH2 0x353 JUMP JUMPDEST PUSH2 0x26E JUMP JUMPDEST PUSH2 0x1F0 JUMP JUMPDEST PUSH1 0x4 CALLDATALOAD SWAP1 PUSH1 0x1 PUSH1 0x1 PUSH1 0xA0 SHL SUB DUP3 AND DUP3 SUB PUSH2 0x1C1 JUMPI JUMP JUMPDEST PUSH1 0x0 DUP1 REVERT JUMPDEST PUSH1 0x24 CALLDATALOAD SWAP1 PUSH1 0x1 PUSH1 0x1 PUSH1 0xA0 SHL SUB DUP3 AND DUP3 SUB PUSH2 0x1C1 JUMPI JUMP JUMPDEST CALLDATALOAD SWAP1 PUSH1 0x1 PUSH1 0x1 PUSH1 0xA0 SHL SUB DUP3 AND DUP3 SUB PUSH2 0x1C1 JUMPI JUMP JUMPDEST CALLVALUE PUSH2 0x1C1 JUMPI PUSH1 0x40 CALLDATASIZE PUSH1 0x3 NOT ADD SLT PUSH2 0x1C1 JUMPI PUSH1 0x20 PUSH2 0x253 PUSH2 0x20E PUSH2 0x1AB JUMP JUMPDEST PUSH1 0x24 CALLDATALOAD PUSH1 0x0 MSTORE PUSH32 0x88BE536D5240C274A3B1D3A1BE54482FD9CAA294F08C62A7CDE569F49A3C4500 DUP4 MSTORE PUSH1 0x40 PUSH1 0x0 KECCAK256 SWAP1 PUSH1 0x1 DUP1 PUSH1 0xA0 SHL SUB AND PUSH1 0x0 MSTORE PUSH1 0x20 MSTORE PUSH1 0x40 PUSH1 0x0 KECCAK256 SWAP1 JUMP JUMPDEST SLOAD PUSH1 0x40 MLOAD SWAP1 DUP2 MSTORE RETURN JUMPDEST PUSH1 0x1 PUSH1 0x1 PUSH1 0xE0 SHL SUB NOT DUP2 AND SUB PUSH2 0x1C1 JUMPI JUMP JUMPDEST CALLVALUE PUSH2 0x1C1 JUMPI PUSH1 0x20 CALLDATASIZE PUSH1 0x3 NOT ADD SLT PUSH2 0x1C1 JUMPI PUSH1 0x4 CALLDATALOAD PUSH2 0x28B DUP2 PUSH2 0x25C JUMP JUMPDEST PUSH4 0xFFFFFFFF PUSH1 0xE0 SHL AND PUSH4 0x7965DB0B PUSH1 0xE0 SHL DUP2 EQ SWAP1 DUP2 ISZERO PUSH2 0x2B4 JUMPI JUMPDEST POP PUSH1 0x40 MLOAD SWAP1 ISZERO ISZERO DUP2 MSTORE PUSH1 0x20 SWAP1 RETURN JUMPDEST PUSH4 0x6CDB3D13 PUSH1 0xE1 SHL DUP2 EQ SWAP2 POP DUP2 ISZERO PUSH2 0x2E6 JUMPI JUMPDEST DUP2 ISZERO PUSH2 0x2D5 JUMPI JUMPDEST POP CODESIZE PUSH2 0x2A6 JUMP JUMPDEST PUSH4 0x1FFC9A7 PUSH1 0xE0 SHL EQ SWAP1 POP CODESIZE PUSH2 0x2CE JUMP JUMPDEST PUSH4 0x3A24D07 PUSH1 0xE2 SHL DUP2 EQ SWAP2 POP PUSH2 0x2C7 JUMP JUMPDEST PUSH1 0x0 JUMPDEST DUP4 DUP2 LT PUSH2 0x30A JUMPI POP POP PUSH1 0x0 SWAP2 ADD MSTORE JUMP JUMPDEST DUP2 DUP2 ADD MLOAD DUP4 DUP3 ADD MSTORE PUSH1 0x20 ADD PUSH2 0x2FA JUMP JUMPDEST SWAP1 PUSH1 0x20 SWAP2 PUSH2 0x333 DUP2 MLOAD DUP1 SWAP3 DUP2 DUP6 MSTORE DUP6 DUP1 DUP7 ADD SWAP2 ADD PUSH2 0x2F7 JUMP JUMPDEST PUSH1 0x1F ADD PUSH1 0x1F NOT AND ADD ADD SWAP1 JUMP JUMPDEST SWAP1 PUSH1 0x20 PUSH2 0x350 SWAP3 DUP2 DUP2 MSTORE ADD SWAP1 PUSH2 0x31A JUMP JUMPDEST SWAP1 JUMP JUMPDEST CALLVALUE PUSH2 0x1C1 JUMPI PUSH1 0x20 CALLDATASIZE PUSH1 0x3 NOT ADD SLT PUSH2 0x1C1 JUMPI PUSH1 0x0 PUSH1 0x4 CALLDATALOAD DUP1 PUSH19 0x184F03E93FF9F4DAA797ED6E38ED64BF6A1F01 PUSH1 0x40 SHL DUP2 LT ISZERO PUSH2 0x4E9 JUMPI JUMPDEST DUP1 PUSH14 0x4EE2D6D415B85ACEF8100000000 PUSH1 0xA SWAP3 LT ISZERO PUSH2 0x4CD JUMPI JUMPDEST PUSH7 0x2386F26FC10000 DUP2 LT ISZERO PUSH2 0x4B8 JUMPI JUMPDEST PUSH4 0x5F5E100 DUP2 LT ISZERO PUSH2 0x4A6 JUMPI JUMPDEST PUSH2 0x2710 DUP2 LT ISZERO PUSH2 0x496 JUMPI JUMPDEST PUSH1 0x64 DUP2 LT ISZERO PUSH2 0x487 JUMPI JUMPDEST LT ISZERO PUSH2 0x47C JUMPI JUMPDEST PUSH2 0x419 PUSH1 0x21 PUSH2 0x3ED PUSH1 0x1 DUP6 ADD PUSH2 0x1B7A JUMP JUMPDEST SWAP4 DUP5 ADD ADD JUMPDEST PUSH1 0x0 NOT ADD SWAP2 PUSH16 0x181899199A1A9B1B9C1CB0B131B232B3 PUSH1 0x81 SHL PUSH1 0xA DUP3 MOD BYTE DUP4 MSTORE8 PUSH1 0xA SWAP1 DIV SWAP1 JUMP JUMPDEST SWAP1 DUP2 ISZERO PUSH2 0x429 JUMPI PUSH2 0x419 SWAP1 PUSH2 0x3F2 JUMP JUMPDEST PUSH1 0x40 MLOAD PUSH2 0x478 SWAP1 PUSH2 0x46C DUP2 PUSH2 0x45E PUSH2 0x44D DUP9 PUSH2 0x447 PUSH1 0x20 DUP6 ADD PUSH2 0x14A0 JUMP JUMPDEST SWAP1 PUSH2 0x1529 JUMP JUMPDEST PUSH5 0x173539B7B7 PUSH1 0xD9 SHL DUP2 MSTORE PUSH1 0x5 ADD SWAP1 JUMP JUMPDEST SUB PUSH1 0x1F NOT DUP2 ADD DUP4 MSTORE DUP3 PUSH2 0x6CA JUMP JUMPDEST PUSH1 0x40 MLOAD SWAP2 DUP3 SWAP2 DUP3 PUSH2 0x33F JUMP JUMPDEST SUB SWAP1 RETURN JUMPDEST PUSH1 0x1 SWAP1 SWAP2 ADD SWAP1 PUSH2 0x3DC JUMP JUMPDEST PUSH1 0x2 SWAP1 PUSH1 0x64 SWAP1 DIV SWAP4 ADD SWAP3 PUSH2 0x3D5 JUMP JUMPDEST PUSH1 0x4 SWAP1 PUSH2 0x2710 SWAP1 DIV SWAP4 ADD SWAP3 PUSH2 0x3CB JUMP JUMPDEST PUSH1 0x8 SWAP1 PUSH4 0x5F5E100 SWAP1 DIV SWAP4 ADD SWAP3 PUSH2 0x3C0 JUMP JUMPDEST PUSH1 0x10 SWAP1 PUSH7 0x2386F26FC10000 SWAP1 DIV SWAP4 ADD SWAP3 PUSH2 0x3B3 JUMP JUMPDEST PUSH1 0x20 SWAP1 PUSH14 0x4EE2D6D415B85ACEF8100000000 SWAP1 DIV SWAP4 ADD SWAP3 PUSH2 0x3A3 JUMP JUMPDEST POP PUSH1 0x40 SWAP2 POP PUSH19 0x184F03E93FF9F4DAA797ED6E38ED64BF6A1F01 PUSH1 0x40 SHL DUP2 DIV PUSH2 0x389 JUMP JUMPDEST PUSH1 0x60 SWAP1 PUSH1 0x3 NOT ADD SLT PUSH2 0x1C1 JUMPI PUSH1 0x4 CALLDATALOAD PUSH1 0x1 PUSH1 0x1 PUSH1 0xA0 SHL SUB DUP2 AND DUP2 SUB PUSH2 0x1C1 JUMPI SWAP1 PUSH1 0x24 CALLDATALOAD SWAP1 PUSH1 0x44 CALLDATALOAD SWAP1 JUMP JUMPDEST CALLVALUE PUSH2 0x1C1 JUMPI PUSH2 0x544 CALLDATASIZE PUSH2 0x50C JUMP JUMPDEST SWAP1 SWAP2 PUSH2 0x54E PUSH2 0x1BAC JUMP JUMPDEST PUSH2 0x559 DUP4 ISZERO ISZERO PUSH2 0x1540 JUMP JUMPDEST PUSH2 0x564 DUP3 ISZERO ISZERO PUSH2 0x1581 JUMP JUMPDEST DUP3 PUSH1 0x0 MSTORE PUSH1 0x2 PUSH1 0x20 MSTORE PUSH1 0xFF PUSH1 0x40 PUSH1 0x0 KECCAK256 SLOAD AND ISZERO PUSH2 0x5F4 JUMPI JUMPDEST PUSH2 0x5EF PUSH32 0x1ACE3364065011F2A2F041CCF777C9F5394104FB5C15EC40E2ED753531E33B21 SWAP2 PUSH2 0x5B5 DUP6 PUSH1 0x0 MSTORE PUSH1 0x0 PUSH1 0x20 MSTORE PUSH1 0x40 PUSH1 0x0 KECCAK256 SWAP1 JUMP JUMPDEST PUSH2 0x5C0 DUP6 DUP3 SLOAD PUSH2 0x15EA JUMP JUMPDEST SWAP1 SSTORE PUSH2 0x5D5 PUSH2 0x5CD PUSH2 0xEFB JUMP JUMPDEST DUP6 DUP8 DUP5 PUSH2 0x1D2D JUMP JUMPDEST PUSH1 0x40 MLOAD SWAP4 DUP5 MSTORE PUSH1 0x1 PUSH1 0x1 PUSH1 0xA0 SHL SUB AND SWAP3 SWAP1 DUP2 SWAP1 PUSH1 0x20 DUP3 ADD SWAP1 JUMP JUMPDEST SUB SWAP1 LOG3 STOP JUMPDEST PUSH1 0x1 SLOAD PUSH1 0x1 PUSH1 0x40 SHL DUP2 LT ISZERO PUSH2 0x689 JUMPI PUSH1 0x1 DUP2 ADD DUP1 PUSH1 0x1 SSTORE DUP2 LT ISZERO PUSH2 0x684 JUMPI PUSH32 0xB10E2D527612073B26EECDFD717E6A320CF44B4AFAC2B0732D9FCBE2B7FA0CF6 ADD DUP4 SWAP1 SSTORE PUSH1 0x0 DUP4 DUP2 MSTORE PUSH1 0x2 PUSH1 0x20 MSTORE PUSH1 0x40 SWAP1 KECCAK256 PUSH32 0x1ACE3364065011F2A2F041CCF777C9F5394104FB5C15EC40E2ED753531E33B21 SWAP2 PUSH2 0x5EF SWAP2 PUSH2 0x67C SWAP1 DUP1 SLOAD PUSH1 0xFF NOT AND PUSH1 0x1 OR SWAP1 SSTORE JUMP JUMPDEST SWAP2 POP POP PUSH2 0x57C JUMP JUMPDEST PUSH2 0x15BE JUMP JUMPDEST PUSH2 0x6B4 JUMP JUMPDEST CALLVALUE PUSH2 0x1C1 JUMPI PUSH1 0x20 CALLDATASIZE PUSH1 0x3 NOT ADD SLT PUSH2 0x1C1 JUMPI PUSH1 0x20 PUSH2 0x6AC PUSH1 0x4 CALLDATALOAD PUSH2 0x15FC JUMP JUMPDEST PUSH1 0x40 MLOAD SWAP1 DUP2 MSTORE RETURN JUMPDEST PUSH4 0x4E487B71 PUSH1 0xE0 SHL PUSH1 0x0 MSTORE PUSH1 0x41 PUSH1 0x4 MSTORE PUSH1 0x24 PUSH1 0x0 REVERT JUMPDEST SWAP1 PUSH1 0x1F DUP1 NOT SWAP2 ADD AND DUP2 ADD SWAP1 DUP2 LT PUSH1 0x1 PUSH1 0x1 PUSH1 0x40 SHL SUB DUP3 GT OR PUSH2 0x689 JUMPI PUSH1 0x40 MSTORE JUMP JUMPDEST PUSH1 0x1 PUSH1 0x1 PUSH1 0x40 SHL SUB DUP2 GT PUSH2 0x689 JUMPI PUSH1 0x5 SHL PUSH1 0x20 ADD SWAP1 JUMP JUMPDEST SWAP1 DUP1 PUSH1 0x1F DUP4 ADD SLT ISZERO PUSH2 0x1C1 JUMPI DUP2 CALLDATALOAD PUSH2 0x719 DUP2 PUSH2 0x6EB JUMP JUMPDEST SWAP3 PUSH2 0x727 PUSH1 0x40 MLOAD SWAP5 DUP6 PUSH2 0x6CA JUMP JUMPDEST DUP2 DUP5 MSTORE PUSH1 0x20 DUP1 DUP6 ADD SWAP3 PUSH1 0x5 SHL DUP3 ADD ADD SWAP3 DUP4 GT PUSH2 0x1C1 JUMPI PUSH1 0x20 ADD SWAP1 JUMPDEST DUP3 DUP3 LT PUSH2 0x74F JUMPI POP POP POP SWAP1 JUMP JUMPDEST DUP2 CALLDATALOAD DUP2 MSTORE PUSH1 0x20 SWAP2 DUP3 ADD SWAP2 ADD PUSH2 0x742 JUMP JUMPDEST PUSH1 0x1 PUSH1 0x1 PUSH1 0x40 SHL SUB DUP2 GT PUSH2 0x689 JUMPI PUSH1 0x1F ADD PUSH1 0x1F NOT AND PUSH1 0x20 ADD SWAP1 JUMP JUMPDEST SWAP3 SWAP2 SWAP3 PUSH2 0x786 DUP3 PUSH2 0x75F JUMP JUMPDEST SWAP2 PUSH2 0x794 PUSH1 0x40 MLOAD SWAP4 DUP5 PUSH2 0x6CA JUMP JUMPDEST DUP3 SWAP5 DUP2 DUP5 MSTORE DUP2 DUP4 ADD GT PUSH2 0x1C1 JUMPI DUP3 DUP2 PUSH1 0x20 SWAP4 DUP5 PUSH1 0x0 SWAP7 ADD CALLDATACOPY ADD ADD MSTORE JUMP JUMPDEST SWAP1 DUP1 PUSH1 0x1F DUP4 ADD SLT ISZERO PUSH2 0x1C1 JUMPI DUP2 PUSH1 0x20 PUSH2 0x350 SWAP4 CALLDATALOAD SWAP2 ADD PUSH2 0x77A JUMP JUMPDEST CALLVALUE PUSH2 0x1C1 JUMPI PUSH1 0xA0 CALLDATASIZE PUSH1 0x3 NOT ADD SLT PUSH2 0x1C1 JUMPI PUSH2 0x7E5 PUSH2 0x1AB JUMP JUMPDEST PUSH2 0x7ED PUSH2 0x1C6 JUMP JUMPDEST SWAP1 PUSH1 0x44 CALLDATALOAD PUSH1 0x1 PUSH1 0x1 PUSH1 0x40 SHL SUB DUP2 GT PUSH2 0x1C1 JUMPI PUSH2 0x80D SWAP1 CALLDATASIZE SWAP1 PUSH1 0x4 ADD PUSH2 0x702 JUMP JUMPDEST PUSH1 0x64 CALLDATALOAD PUSH1 0x1 PUSH1 0x1 PUSH1 0x40 SHL SUB DUP2 GT PUSH2 0x1C1 JUMPI PUSH2 0x82C SWAP1 CALLDATASIZE SWAP1 PUSH1 0x4 ADD PUSH2 0x702 JUMP JUMPDEST SWAP1 PUSH1 0x84 CALLDATALOAD SWAP4 PUSH1 0x1 PUSH1 0x1 PUSH1 0x40 SHL SUB DUP6 GT PUSH2 0x1C1 JUMPI PUSH2 0x850 PUSH2 0x856 SWAP6 CALLDATASIZE SWAP1 PUSH1 0x4 ADD PUSH2 0x7B1 JUMP JUMPDEST SWAP4 PUSH2 0x161D JUMP JUMPDEST STOP JUMPDEST CALLVALUE PUSH2 0x1C1 JUMPI PUSH1 0x40 CALLDATASIZE PUSH1 0x3 NOT ADD SLT PUSH2 0x1C1 JUMPI PUSH2 0x856 PUSH1 0x4 CALLDATALOAD PUSH2 0x877 PUSH2 0x1C6 JUMP JUMPDEST SWAP1 PUSH2 0x889 PUSH2 0x884 DUP3 PUSH2 0x15FC JUMP JUMPDEST PUSH2 0x1CE3 JUMP JUMPDEST PUSH2 0x20B0 JUMP JUMPDEST CALLVALUE PUSH2 0x1C1 JUMPI PUSH1 0x40 CALLDATASIZE PUSH1 0x3 NOT ADD SLT PUSH2 0x1C1 JUMPI PUSH1 0x4 CALLDATALOAD PUSH2 0x8AA PUSH2 0x1C6 JUMP JUMPDEST CALLER PUSH1 0x1 PUSH1 0x1 PUSH1 0xA0 SHL SUB DUP3 AND SUB PUSH2 0x8C3 JUMPI PUSH2 0x856 SWAP2 PUSH2 0x214C JUMP JUMPDEST PUSH4 0x334BD919 PUSH1 0xE1 SHL PUSH1 0x0 MSTORE PUSH1 0x4 PUSH1 0x0 REVERT JUMPDEST SWAP1 PUSH1 0x20 DUP1 DUP4 MLOAD SWAP3 DUP4 DUP2 MSTORE ADD SWAP3 ADD SWAP1 PUSH1 0x0 JUMPDEST DUP2 DUP2 LT PUSH2 0x8F2 JUMPI POP POP POP SWAP1 JUMP JUMPDEST DUP3 MLOAD DUP5 MSTORE PUSH1 0x20 SWAP4 DUP5 ADD SWAP4 SWAP1 SWAP3 ADD SWAP2 PUSH1 0x1 ADD PUSH2 0x8E5 JUMP JUMPDEST SWAP1 PUSH1 0x20 PUSH2 0x350 SWAP3 DUP2 DUP2 MSTORE ADD SWAP1 PUSH2 0x8D4 JUMP JUMPDEST CALLVALUE PUSH2 0x1C1 JUMPI PUSH1 0x0 CALLDATASIZE PUSH1 0x3 NOT ADD SLT PUSH2 0x1C1 JUMPI PUSH1 0x40 MLOAD DUP1 PUSH1 0x20 PUSH1 0x1 SLOAD SWAP2 DUP3 DUP2 MSTORE ADD SWAP1 PUSH1 0x1 PUSH1 0x0 MSTORE PUSH32 0xB10E2D527612073B26EECDFD717E6A320CF44B4AFAC2B0732D9FCBE2B7FA0CF6 SWAP1 PUSH1 0x0 JUMPDEST DUP2 DUP2 LT PUSH2 0x986 JUMPI PUSH2 0x478 DUP6 PUSH2 0x97A DUP2 DUP8 SUB DUP3 PUSH2 0x6CA JUMP JUMPDEST PUSH1 0x40 MLOAD SWAP2 DUP3 SWAP2 DUP3 PUSH2 0x908 JUMP JUMPDEST DUP3 SLOAD DUP5 MSTORE PUSH1 0x20 SWAP1 SWAP4 ADD SWAP3 PUSH1 0x1 SWAP3 DUP4 ADD SWAP3 ADD PUSH2 0x963 JUMP JUMPDEST CALLVALUE PUSH2 0x1C1 JUMPI PUSH1 0x40 CALLDATASIZE PUSH1 0x3 NOT ADD SLT PUSH2 0x1C1 JUMPI PUSH1 0x4 CALLDATALOAD PUSH1 0x1 PUSH1 0x1 PUSH1 0x40 SHL SUB DUP2 GT PUSH2 0x1C1 JUMPI CALLDATASIZE PUSH1 0x23 DUP3 ADD SLT ISZERO PUSH2 0x1C1 JUMPI DUP1 PUSH1 0x4 ADD CALLDATALOAD SWAP1 PUSH2 0x9D8 DUP3 PUSH2 0x6EB JUMP JUMPDEST SWAP2 PUSH2 0x9E6 PUSH1 0x40 MLOAD SWAP4 DUP5 PUSH2 0x6CA JUMP JUMPDEST DUP1 DUP4 MSTORE PUSH1 0x24 PUSH1 0x20 DUP5 ADD SWAP2 PUSH1 0x5 SHL DUP4 ADD ADD SWAP2 CALLDATASIZE DUP4 GT PUSH2 0x1C1 JUMPI PUSH1 0x24 ADD SWAP1 JUMPDEST DUP3 DUP3 LT PUSH2 0xA37 JUMPI DUP4 PUSH1 0x24 CALLDATALOAD PUSH1 0x1 PUSH1 0x1 PUSH1 0x40 SHL SUB DUP2 GT PUSH2 0x1C1 JUMPI PUSH2 0x478 SWAP2 PUSH2 0xA31 PUSH2 0x97A SWAP3 CALLDATASIZE SWAP1 PUSH1 0x4 ADD PUSH2 0x702 JUMP JUMPDEST SWAP1 PUSH2 0x1684 JUMP JUMPDEST PUSH1 0x20 DUP1 SWAP2 PUSH2 0xA44 DUP5 PUSH2 0x1DC JUMP JUMPDEST DUP2 MSTORE ADD SWAP2 ADD SWAP1 PUSH2 0xA03 JUMP JUMPDEST PUSH1 0x40 CALLDATASIZE PUSH1 0x3 NOT ADD SLT PUSH2 0x1C1 JUMPI PUSH2 0xA63 PUSH2 0x1AB JUMP JUMPDEST PUSH1 0x24 CALLDATALOAD PUSH1 0x1 PUSH1 0x1 PUSH1 0x40 SHL SUB DUP2 GT PUSH2 0x1C1 JUMPI PUSH2 0xA82 SWAP1 CALLDATASIZE SWAP1 PUSH1 0x4 ADD PUSH2 0x7B1 JUMP JUMPDEST SWAP1 PUSH1 0x1 PUSH1 0x1 PUSH1 0xA0 SHL SUB PUSH32 0x0 AND ADDRESS DUP2 EQ SWAP1 DUP2 ISZERO PUSH2 0xB89 JUMPI JUMPDEST POP PUSH2 0xB78 JUMPI PUSH2 0xAC5 PUSH2 0x1C1E JUMP JUMPDEST PUSH1 0x40 MLOAD PUSH4 0x52D1902D PUSH1 0xE0 SHL DUP2 MSTORE SWAP2 PUSH1 0x20 DUP4 PUSH1 0x4 DUP2 PUSH1 0x1 PUSH1 0x1 PUSH1 0xA0 SHL SUB DUP7 AND GAS STATICCALL PUSH1 0x0 SWAP4 DUP2 PUSH2 0xB47 JUMPI JUMPDEST POP PUSH2 0xB11 JUMPI PUSH4 0x4C9C8CE3 PUSH1 0xE0 SHL PUSH1 0x0 MSTORE PUSH1 0x1 PUSH1 0x1 PUSH1 0xA0 SHL SUB DUP3 AND PUSH1 0x4 MSTORE PUSH1 0x24 PUSH1 0x0 REVERT JUMPDEST SWAP1 PUSH1 0x0 DUP1 MLOAD PUSH1 0x20 PUSH2 0x292D DUP4 CODECOPY DUP2 MLOAD SWAP2 MSTORE DUP4 SUB PUSH2 0xB31 JUMPI PUSH2 0x856 SWAP3 POP PUSH2 0x252E JUMP JUMPDEST PUSH4 0x2A875269 PUSH1 0xE2 SHL PUSH1 0x0 MSTORE PUSH1 0x4 DUP4 SWAP1 MSTORE PUSH1 0x24 PUSH1 0x0 REVERT JUMPDEST PUSH2 0xB6A SWAP2 SWAP5 POP PUSH1 0x20 RETURNDATASIZE PUSH1 0x20 GT PUSH2 0xB71 JUMPI JUMPDEST PUSH2 0xB62 DUP2 DUP4 PUSH2 0x6CA JUMP JUMPDEST DUP2 ADD SWAP1 PUSH2 0x21F1 JUMP JUMPDEST SWAP3 CODESIZE PUSH2 0xAEE JUMP JUMPDEST POP RETURNDATASIZE PUSH2 0xB58 JUMP JUMPDEST PUSH4 0x703E46DD PUSH1 0xE1 SHL PUSH1 0x0 MSTORE PUSH1 0x4 PUSH1 0x0 REVERT JUMPDEST PUSH1 0x0 DUP1 MLOAD PUSH1 0x20 PUSH2 0x292D DUP4 CODECOPY DUP2 MLOAD SWAP2 MSTORE SLOAD PUSH1 0x1 PUSH1 0x1 PUSH1 0xA0 SHL SUB AND EQ ISZERO SWAP1 POP CODESIZE PUSH2 0xAB8 JUMP JUMPDEST CALLVALUE PUSH2 0x1C1 JUMPI PUSH1 0x0 CALLDATASIZE PUSH1 0x3 NOT ADD SLT PUSH2 0x1C1 JUMPI PUSH32 0x0 PUSH1 0x1 PUSH1 0x1 PUSH1 0xA0 SHL SUB AND ADDRESS SUB PUSH2 0xB78 JUMPI PUSH1 0x20 PUSH1 0x40 MLOAD PUSH1 0x0 DUP1 MLOAD PUSH1 0x20 PUSH2 0x292D DUP4 CODECOPY DUP2 MLOAD SWAP2 MSTORE DUP2 MSTORE RETURN JUMPDEST PUSH1 0x20 PUSH1 0x3 NOT DUP3 ADD SLT PUSH2 0x1C1 JUMPI PUSH1 0x4 CALLDATALOAD SWAP1 PUSH1 0x1 PUSH1 0x1 PUSH1 0x40 SHL SUB DUP3 GT PUSH2 0x1C1 JUMPI DUP1 PUSH1 0x23 DUP4 ADD SLT ISZERO PUSH2 0x1C1 JUMPI DUP2 PUSH1 0x24 PUSH2 0x350 SWAP4 PUSH1 0x4 ADD CALLDATALOAD SWAP2 ADD PUSH2 0x77A JUMP JUMPDEST CALLVALUE PUSH2 0x1C1 JUMPI PUSH2 0xC4E CALLDATASIZE PUSH2 0xC05 JUMP JUMPDEST PUSH2 0xC56 PUSH2 0x1C90 JUMP JUMPDEST DUP1 MLOAD ISZERO PUSH2 0xD9C JUMPI DUP1 MLOAD PUSH1 0x1 PUSH1 0x1 PUSH1 0x40 SHL SUB DUP2 GT PUSH2 0x689 JUMPI PUSH2 0xC81 DUP2 PUSH2 0xC7C PUSH1 0x3 SLOAD PUSH2 0x1466 JUMP JUMPDEST PUSH2 0x171C JUMP JUMPDEST PUSH1 0x20 PUSH1 0x1F DUP3 GT PUSH1 0x1 EQ PUSH2 0xCF4 JUMPI SWAP2 PUSH2 0xCD5 DUP3 PUSH2 0xCE4 SWAP4 PUSH32 0x6741B2FC379FAD678116FE3D4D4B9A1A184AB53BA36B86AD0FA66340B1AB41AD SWAP6 PUSH1 0x0 SWAP2 PUSH2 0xCE9 JUMPI JUMPDEST POP DUP2 PUSH1 0x1 SHL SWAP2 PUSH1 0x0 NOT SWAP1 PUSH1 0x3 SHL SHR NOT AND OR SWAP1 JUMP JUMPDEST PUSH1 0x3 SSTORE PUSH1 0x40 MLOAD SWAP2 DUP3 SWAP2 DUP3 PUSH2 0x33F JUMP JUMPDEST SUB SWAP1 LOG1 STOP JUMPDEST SWAP1 POP DUP4 ADD MLOAD CODESIZE PUSH2 0xCC1 JUMP JUMPDEST PUSH1 0x3 PUSH1 0x0 MSTORE PUSH1 0x1F NOT DUP3 AND SWAP1 PUSH32 0xC2575A0E9E593C00F959F8C92F12DB2869C3395A3B0502D05E2516446F71F85B SWAP2 PUSH1 0x0 JUMPDEST DUP2 DUP2 LT PUSH2 0xD84 JUMPI POP SWAP3 PUSH32 0x6741B2FC379FAD678116FE3D4D4B9A1A184AB53BA36B86AD0FA66340B1AB41AD SWAP5 SWAP3 PUSH1 0x1 SWAP3 DUP3 PUSH2 0xCE4 SWAP7 LT PUSH2 0xD6B JUMPI JUMPDEST POP POP DUP2 SHL ADD PUSH1 0x3 SSTORE PUSH2 0x46C JUMP JUMPDEST DUP5 ADD MLOAD PUSH1 0x0 NOT PUSH1 0xF8 DUP5 PUSH1 0x3 SHL AND SHR NOT AND SWAP1 SSTORE CODESIZE DUP1 PUSH2 0xD5E JUMP JUMPDEST SWAP2 SWAP3 PUSH1 0x20 PUSH1 0x1 DUP2 SWAP3 DUP7 DUP10 ADD MLOAD DUP2 SSTORE ADD SWAP5 ADD SWAP3 ADD PUSH2 0xD24 JUMP JUMPDEST PUSH1 0x40 MLOAD PUSH3 0x461BCD PUSH1 0xE5 SHL DUP2 MSTORE PUSH1 0x20 PUSH1 0x4 DUP3 ADD MSTORE PUSH1 0x10 PUSH1 0x24 DUP3 ADD MSTORE PUSH16 0x496E76616C6964206261736520555249 PUSH1 0x80 SHL PUSH1 0x44 DUP3 ADD MSTORE PUSH1 0x64 SWAP1 REVERT JUMPDEST CALLVALUE PUSH2 0x1C1 JUMPI PUSH1 0x40 CALLDATASIZE PUSH1 0x3 NOT ADD SLT PUSH2 0x1C1 JUMPI PUSH1 0x20 PUSH1 0xFF PUSH2 0xE28 PUSH1 0x4 CALLDATALOAD PUSH2 0xDF7 PUSH2 0x1C6 JUMP JUMPDEST SWAP1 PUSH1 0x0 MSTORE PUSH1 0x0 DUP1 MLOAD PUSH1 0x20 PUSH2 0x294D DUP4 CODECOPY DUP2 MLOAD SWAP2 MSTORE DUP5 MSTORE PUSH1 0x40 PUSH1 0x0 KECCAK256 SWAP1 PUSH1 0x1 DUP1 PUSH1 0xA0 SHL SUB AND PUSH1 0x0 MSTORE PUSH1 0x20 MSTORE PUSH1 0x40 PUSH1 0x0 KECCAK256 SWAP1 JUMP JUMPDEST SLOAD AND PUSH1 0x40 MLOAD SWAP1 ISZERO ISZERO DUP2 MSTORE RETURN JUMPDEST CALLVALUE PUSH2 0x1C1 JUMPI PUSH1 0x0 CALLDATASIZE PUSH1 0x3 NOT ADD SLT PUSH2 0x1C1 JUMPI PUSH1 0x20 PUSH1 0x40 MLOAD PUSH1 0x0 DUP2 MSTORE RETURN JUMPDEST CALLVALUE PUSH2 0x1C1 JUMPI PUSH1 0x40 CALLDATASIZE PUSH1 0x3 NOT ADD SLT PUSH2 0x1C1 JUMPI PUSH2 0xE69 PUSH2 0x1AB JUMP JUMPDEST PUSH1 0x24 CALLDATALOAD DUP1 ISZERO ISZERO DUP1 SWAP2 SUB PUSH2 0x1C1 JUMPI PUSH1 0x1 PUSH1 0x1 PUSH1 0xA0 SHL SUB DUP3 AND SWAP2 DUP3 ISZERO PUSH2 0xEE6 JUMPI PUSH2 0xEAB SWAP1 PUSH2 0xE94 CALLER PUSH2 0x13E2 JUMP JUMPDEST SWAP1 PUSH1 0x1 DUP1 PUSH1 0xA0 SHL SUB AND PUSH1 0x0 MSTORE PUSH1 0x20 MSTORE PUSH1 0x40 PUSH1 0x0 KECCAK256 SWAP1 JUMP JUMPDEST PUSH1 0xFF NOT DUP2 SLOAD AND PUSH1 0xFF DUP4 AND OR SWAP1 SSTORE PUSH1 0x40 MLOAD SWAP1 DUP2 MSTORE PUSH32 0x17307EAB39AB6107E8899845AD3D59BD9653F200F220920489CA2B5937696C31 PUSH1 0x20 CALLER SWAP3 LOG3 STOP JUMPDEST PUSH3 0xCED3E1 PUSH1 0xE8 SHL PUSH1 0x0 MSTORE PUSH1 0x0 PUSH1 0x4 MSTORE PUSH1 0x24 PUSH1 0x0 REVERT JUMPDEST PUSH1 0x40 MLOAD SWAP1 PUSH2 0xF0A PUSH1 0x20 DUP4 PUSH2 0x6CA JUMP JUMPDEST PUSH1 0x0 DUP3 MSTORE JUMP JUMPDEST CALLVALUE PUSH2 0x1C1 JUMPI PUSH1 0x0 CALLDATASIZE PUSH1 0x3 NOT ADD SLT PUSH2 0x1C1 JUMPI PUSH2 0x478 PUSH1 0x40 DUP1 MLOAD SWAP1 PUSH2 0xF33 DUP2 DUP4 PUSH2 0x6CA JUMP JUMPDEST PUSH1 0x5 DUP3 MSTORE PUSH5 0x352E302E3 PUSH1 0xDC SHL PUSH1 0x20 DUP4 ADD MSTORE MLOAD SWAP2 DUP3 SWAP2 PUSH1 0x20 DUP4 MSTORE PUSH1 0x20 DUP4 ADD SWAP1 PUSH2 0x31A JUMP JUMPDEST CALLVALUE PUSH2 0x1C1 JUMPI PUSH1 0x0 CALLDATASIZE PUSH1 0x3 NOT ADD SLT PUSH2 0x1C1 JUMPI PUSH1 0x20 PUSH1 0x40 MLOAD PUSH32 0x9F2DF0FED2C77648DE5860A4CC508CD0818C85B8B8A1AB4CEEEF8D981C8956A6 DUP2 MSTORE RETURN JUMPDEST CALLVALUE PUSH2 0x1C1 JUMPI PUSH1 0x40 CALLDATASIZE PUSH1 0x3 NOT ADD SLT PUSH2 0x1C1 JUMPI PUSH2 0x856 PUSH1 0x4 CALLDATALOAD PUSH2 0xFB1 PUSH2 0x1C6 JUMP JUMPDEST SWAP1 PUSH2 0xFBE PUSH2 0x884 DUP3 PUSH2 0x15FC JUMP JUMPDEST PUSH2 0x214C JUMP JUMPDEST CALLVALUE PUSH2 0x1C1 JUMPI PUSH1 0x40 CALLDATASIZE PUSH1 0x3 NOT ADD SLT PUSH2 0x1C1 JUMPI PUSH1 0x20 PUSH1 0xFF PUSH2 0xE28 PUSH2 0xFE3 PUSH2 0x1AB JUMP JUMPDEST PUSH2 0xE94 PUSH2 0xFEE PUSH2 0x1C6 JUMP JUMPDEST SWAP2 PUSH2 0x13E2 JUMP JUMPDEST CALLVALUE PUSH2 0x1C1 JUMPI PUSH1 0x20 CALLDATASIZE PUSH1 0x3 NOT ADD SLT PUSH2 0x1C1 JUMPI PUSH1 0x4 CALLDATALOAD PUSH2 0x1013 DUP2 ISZERO ISZERO PUSH2 0x1540 JUMP JUMPDEST DUP1 PUSH1 0x0 MSTORE PUSH1 0x2 PUSH1 0x20 MSTORE PUSH2 0x102D PUSH1 0xFF PUSH1 0x40 PUSH1 0x0 KECCAK256 SLOAD AND PUSH2 0x191D JUMP JUMPDEST PUSH1 0x0 MSTORE PUSH1 0x0 PUSH1 0x20 MSTORE PUSH1 0x20 PUSH1 0x40 PUSH1 0x0 KECCAK256 SLOAD PUSH1 0x40 MLOAD SWAP1 DUP2 MSTORE RETURN JUMPDEST CALLVALUE PUSH2 0x1C1 JUMPI PUSH1 0xA0 CALLDATASIZE PUSH1 0x3 NOT ADD SLT PUSH2 0x1C1 JUMPI PUSH2 0x105E PUSH2 0x1AB JUMP JUMPDEST PUSH2 0x1066 PUSH2 0x1C6 JUMP JUMPDEST PUSH1 0x44 CALLDATALOAD SWAP1 PUSH1 0x64 CALLDATALOAD SWAP3 PUSH1 0x84 CALLDATALOAD PUSH1 0x1 PUSH1 0x1 PUSH1 0x40 SHL SUB DUP2 GT PUSH2 0x1C1 JUMPI PUSH2 0x108D SWAP1 CALLDATASIZE SWAP1 PUSH1 0x4 ADD PUSH2 0x7B1 JUMP JUMPDEST SWAP3 PUSH1 0x1 PUSH1 0x1 PUSH1 0xA0 SHL SUB DUP3 AND CALLER DUP2 EQ ISZERO DUP1 PUSH2 0x1130 JUMPI JUMPDEST PUSH2 0x1118 JUMPI PUSH1 0x1 PUSH1 0x1 PUSH1 0xA0 SHL SUB DUP5 AND ISZERO PUSH2 0x1102 JUMPI ISZERO PUSH2 0x10ED JUMPI PUSH2 0x856 SWAP5 PUSH2 0x10E5 PUSH1 0x40 MLOAD SWAP3 PUSH1 0x1 DUP5 MSTORE PUSH1 0x20 DUP5 ADD MSTORE PUSH1 0x40 DUP4 ADD SWAP2 PUSH1 0x1 DUP4 MSTORE PUSH1 0x60 DUP5 ADD MSTORE PUSH1 0x80 DUP4 ADD PUSH1 0x40 MSTORE JUMP JUMPDEST SWAP3 SWAP1 SWAP2 PUSH2 0x236E JUMP JUMPDEST PUSH3 0x6A0D45 PUSH1 0xE2 SHL PUSH1 0x0 MSTORE PUSH1 0x0 PUSH1 0x4 MSTORE PUSH1 0x24 PUSH1 0x0 REVERT JUMPDEST PUSH4 0x2BFA23E7 PUSH1 0xE1 SHL PUSH1 0x0 MSTORE PUSH1 0x0 PUSH1 0x4 MSTORE PUSH1 0x24 PUSH1 0x0 REVERT JUMPDEST PUSH4 0x711BEC91 PUSH1 0xE1 SHL PUSH1 0x0 MSTORE CALLER PUSH1 0x4 MSTORE PUSH1 0x24 MSTORE PUSH1 0x44 PUSH1 0x0 REVERT JUMPDEST POP PUSH2 0x113B CALLER DUP5 PUSH2 0x1909 JUMP JUMPDEST ISZERO PUSH2 0x10A2 JUMP JUMPDEST CALLVALUE PUSH2 0x1C1 JUMPI PUSH2 0x5EF PUSH32 0xD215B5584879CAEECB087ED93B0D4013D83CED647FD0A905F4F54A948CF0EB8D PUSH2 0x1173 CALLDATASIZE PUSH2 0x50C JUMP JUMPDEST SWAP3 SWAP2 PUSH2 0x1180 SWAP5 SWAP2 SWAP5 PUSH2 0x1BAC JUMP JUMPDEST PUSH2 0x118B DUP6 ISZERO ISZERO PUSH2 0x1540 JUMP JUMPDEST PUSH2 0x1196 DUP5 ISZERO ISZERO PUSH2 0x1581 JUMP JUMPDEST DUP5 PUSH1 0x0 MSTORE PUSH1 0x2 PUSH1 0x20 MSTORE PUSH2 0x11B0 PUSH1 0xFF PUSH1 0x40 PUSH1 0x0 KECCAK256 SLOAD AND PUSH2 0x191D JUMP JUMPDEST DUP5 PUSH1 0x0 MSTORE PUSH1 0x0 PUSH1 0x20 MSTORE PUSH2 0x11CA PUSH1 0x40 PUSH1 0x0 KECCAK256 SLOAD DUP6 GT ISZERO PUSH2 0x1969 JUMP JUMPDEST PUSH2 0x11E3 DUP5 PUSH2 0x11DB DUP4 PUSH2 0xE94 DUP10 PUSH2 0x13B3 JUMP JUMPDEST SLOAD LT ISZERO PUSH2 0x19B5 JUMP JUMPDEST PUSH2 0x11F7 DUP6 PUSH1 0x0 MSTORE PUSH1 0x0 PUSH1 0x20 MSTORE PUSH1 0x40 PUSH1 0x0 KECCAK256 SWAP1 JUMP JUMPDEST PUSH2 0x1202 DUP6 DUP3 SLOAD PUSH2 0x19F8 JUMP JUMPDEST SWAP1 SSTORE PUSH2 0x5D5 DUP5 DUP7 DUP4 PUSH2 0x2200 JUMP JUMPDEST CALLVALUE PUSH2 0x1C1 JUMPI PUSH2 0x121D CALLDATASIZE PUSH2 0xC05 JUMP JUMPDEST PUSH1 0x0 DUP1 MLOAD PUSH1 0x20 PUSH2 0x296D DUP4 CODECOPY DUP2 MLOAD SWAP2 MSTORE SLOAD SWAP1 PUSH1 0x1 PUSH1 0x1 PUSH1 0x40 SHL SUB PUSH2 0x124F PUSH1 0xFF PUSH1 0x40 DUP6 SWAP1 SHR AND ISZERO SWAP4 PUSH1 0x1 PUSH1 0x1 PUSH1 0x40 SHL SUB AND SWAP1 JUMP JUMPDEST AND DUP1 ISZERO SWAP1 DUP2 PUSH2 0x1370 JUMPI JUMPDEST PUSH1 0x1 EQ SWAP1 DUP2 PUSH2 0x1366 JUMPI JUMPDEST ISZERO SWAP1 DUP2 PUSH2 0x135D JUMPI JUMPDEST POP PUSH2 0x134C JUMPI PUSH2 0x12B0 SWAP1 DUP3 PUSH2 0x12A7 PUSH1 0x1 PUSH1 0x1 PUSH1 0x1 PUSH1 0x40 SHL SUB NOT PUSH1 0x0 DUP1 MLOAD PUSH1 0x20 PUSH2 0x296D DUP4 CODECOPY DUP2 MLOAD SWAP2 MSTORE SLOAD AND OR PUSH1 0x0 DUP1 MLOAD PUSH1 0x20 PUSH2 0x296D DUP4 CODECOPY DUP2 MLOAD SWAP2 MSTORE SSTORE JUMP JUMPDEST PUSH2 0x1315 JUMPI PUSH2 0x1A05 JUMP JUMPDEST PUSH2 0x12B6 JUMPI STOP JUMPDEST PUSH2 0x12E2 PUSH1 0xFF PUSH1 0x40 SHL NOT PUSH1 0x0 DUP1 MLOAD PUSH1 0x20 PUSH2 0x296D DUP4 CODECOPY DUP2 MLOAD SWAP2 MSTORE SLOAD AND PUSH1 0x0 DUP1 MLOAD PUSH1 0x20 PUSH2 0x296D DUP4 CODECOPY DUP2 MLOAD SWAP2 MSTORE SSTORE JUMP JUMPDEST PUSH1 0x40 MLOAD PUSH1 0x1 DUP2 MSTORE PUSH32 0xC7F505B2F371AE2175EE4913F4499E1F2633A7B5936321EED1CDAEB6115181D2 SWAP1 DUP1 PUSH1 0x20 DUP2 ADD PUSH2 0xCE4 JUMP JUMPDEST PUSH2 0x1347 PUSH1 0x1 PUSH1 0x40 SHL PUSH1 0xFF PUSH1 0x40 SHL NOT PUSH1 0x0 DUP1 MLOAD PUSH1 0x20 PUSH2 0x296D DUP4 CODECOPY DUP2 MLOAD SWAP2 MSTORE SLOAD AND OR PUSH1 0x0 DUP1 MLOAD PUSH1 0x20 PUSH2 0x296D DUP4 CODECOPY DUP2 MLOAD SWAP2 MSTORE SSTORE JUMP JUMPDEST PUSH2 0x1A05 JUMP JUMPDEST PUSH4 0xF92EE8A9 PUSH1 0xE0 SHL PUSH1 0x0 MSTORE PUSH1 0x4 PUSH1 0x0 REVERT JUMPDEST SWAP1 POP ISZERO CODESIZE PUSH2 0x126B JUMP JUMPDEST ADDRESS EXTCODESIZE ISZERO SWAP2 POP PUSH2 0x1263 JUMP JUMPDEST DUP4 SWAP2 POP PUSH2 0x1259 JUMP JUMPDEST CALLVALUE PUSH2 0x1C1 JUMPI PUSH1 0x0 CALLDATASIZE PUSH1 0x3 NOT ADD SLT PUSH2 0x1C1 JUMPI PUSH1 0x20 PUSH1 0x40 MLOAD PUSH32 0x189AB7A9244DF0848122154315AF71FE140F3DB0FE014031783B0946B8C9D2E3 DUP2 MSTORE RETURN JUMPDEST PUSH1 0x0 MSTORE PUSH32 0x88BE536D5240C274A3B1D3A1BE54482FD9CAA294F08C62A7CDE569F49A3C4500 PUSH1 0x20 MSTORE PUSH1 0x40 PUSH1 0x0 KECCAK256 SWAP1 JUMP JUMPDEST PUSH1 0x1 PUSH1 0x1 PUSH1 0xA0 SHL SUB AND PUSH1 0x0 SWAP1 DUP2 MSTORE PUSH32 0x88BE536D5240C274A3B1D3A1BE54482FD9CAA294F08C62A7CDE569F49A3C4501 PUSH1 0x20 MSTORE PUSH1 0x40 SWAP1 KECCAK256 SWAP1 JUMP JUMPDEST PUSH2 0x1462 SWAP2 PUSH1 0x0 MSTORE PUSH32 0x88BE536D5240C274A3B1D3A1BE54482FD9CAA294F08C62A7CDE569F49A3C4500 PUSH1 0x20 MSTORE PUSH1 0x40 PUSH1 0x0 KECCAK256 SWAP1 PUSH1 0x1 DUP1 PUSH1 0xA0 SHL SUB AND PUSH1 0x0 MSTORE PUSH1 0x20 MSTORE PUSH1 0x40 PUSH1 0x0 KECCAK256 SWAP1 JUMP JUMPDEST SLOAD SWAP1 JUMP JUMPDEST SWAP1 PUSH1 0x1 DUP3 DUP2 SHR SWAP3 AND DUP1 ISZERO PUSH2 0x1496 JUMPI JUMPDEST PUSH1 0x20 DUP4 LT EQ PUSH2 0x1480 JUMPI JUMP JUMPDEST PUSH4 0x4E487B71 PUSH1 0xE0 SHL PUSH1 0x0 MSTORE PUSH1 0x22 PUSH1 0x4 MSTORE PUSH1 0x24 PUSH1 0x0 REVERT JUMPDEST SWAP2 PUSH1 0x7F AND SWAP2 PUSH2 0x1475 JUMP JUMPDEST PUSH1 0x3 SLOAD PUSH1 0x0 SWAP3 SWAP2 PUSH2 0x14B0 DUP3 PUSH2 0x1466 JUMP JUMPDEST SWAP2 PUSH1 0x1 DUP2 AND SWAP1 DUP2 ISZERO PUSH2 0x1517 JUMPI POP PUSH1 0x1 EQ PUSH2 0x14C8 JUMPI POP POP JUMP JUMPDEST PUSH1 0x3 PUSH1 0x0 SWAP1 DUP2 MSTORE SWAP3 SWAP4 POP SWAP1 SWAP2 PUSH32 0xC2575A0E9E593C00F959F8C92F12DB2869C3395A3B0502D05E2516446F71F85B JUMPDEST DUP4 DUP3 LT PUSH2 0x1503 JUMPI POP POP ADD SWAP1 JUMP JUMPDEST PUSH1 0x1 DUP2 PUSH1 0x20 SWAP3 SLOAD DUP5 DUP7 ADD MSTORE ADD SWAP2 ADD SWAP1 PUSH2 0x14F6 JUMP JUMPDEST PUSH1 0xFF NOT AND DUP3 MSTORE POP DUP2 ISZERO ISZERO SWAP1 SWAP2 MUL ADD SWAP2 POP JUMP JUMPDEST SWAP1 PUSH2 0x153C PUSH1 0x20 SWAP3 DUP3 DUP2 MLOAD SWAP5 DUP6 SWAP3 ADD PUSH2 0x2F7 JUMP JUMPDEST ADD SWAP1 JUMP JUMPDEST ISZERO PUSH2 0x1547 JUMPI JUMP JUMPDEST PUSH1 0x40 MLOAD PUSH3 0x461BCD PUSH1 0xE5 SHL DUP2 MSTORE PUSH1 0x20 PUSH1 0x4 DUP3 ADD MSTORE PUSH1 0x12 PUSH1 0x24 DUP3 ADD MSTORE PUSH18 0x125B9D985B1A59081C1C9BD91D58DD081251 PUSH1 0x72 SHL PUSH1 0x44 DUP3 ADD MSTORE PUSH1 0x64 SWAP1 REVERT JUMPDEST ISZERO PUSH2 0x1588 JUMPI JUMP JUMPDEST PUSH1 0x40 MLOAD PUSH3 0x461BCD PUSH1 0xE5 SHL DUP2 MSTORE PUSH1 0x20 PUSH1 0x4 DUP3 ADD MSTORE PUSH1 0xE PUSH1 0x24 DUP3 ADD MSTORE PUSH14 0x125B9D985B1A5908185B5BDD5B9D PUSH1 0x92 SHL PUSH1 0x44 DUP3 ADD MSTORE PUSH1 0x64 SWAP1 REVERT JUMPDEST PUSH4 0x4E487B71 PUSH1 0xE0 SHL PUSH1 0x0 MSTORE PUSH1 0x32 PUSH1 0x4 MSTORE PUSH1 0x24 PUSH1 0x0 REVERT JUMPDEST PUSH4 0x4E487B71 PUSH1 0xE0 SHL PUSH1 0x0 MSTORE PUSH1 0x11 PUSH1 0x4 MSTORE PUSH1 0x24 PUSH1 0x0 REVERT JUMPDEST SWAP2 SWAP1 DUP3 ADD DUP1 SWAP3 GT PUSH2 0x15F7 JUMPI JUMP JUMPDEST PUSH2 0x15D4 JUMP JUMPDEST PUSH1 0x0 MSTORE PUSH1 0x0 DUP1 MLOAD PUSH1 0x20 PUSH2 0x294D DUP4 CODECOPY DUP2 MLOAD SWAP2 MSTORE PUSH1 0x20 MSTORE PUSH1 0x1 PUSH1 0x40 PUSH1 0x0 KECCAK256 ADD SLOAD SWAP1 JUMP JUMPDEST SWAP4 SWAP3 SWAP2 SWAP1 PUSH1 0x1 PUSH1 0x1 PUSH1 0xA0 SHL SUB DUP6 AND CALLER DUP2 EQ ISZERO DUP1 PUSH2 0x1658 JUMPI JUMPDEST PUSH2 0x1118 JUMPI PUSH1 0x1 PUSH1 0x1 PUSH1 0xA0 SHL SUB DUP3 AND ISZERO PUSH2 0x1102 JUMPI ISZERO PUSH2 0x10ED JUMPI PUSH2 0x1656 SWAP5 PUSH2 0x236E JUMP JUMPDEST JUMP JUMPDEST POP PUSH1 0xFF PUSH2 0x1668 CALLER PUSH2 0xE94 DUP10 PUSH2 0x13E2 JUMP JUMPDEST SLOAD AND ISZERO PUSH2 0x1635 JUMP JUMPDEST DUP1 MLOAD DUP3 LT ISZERO PUSH2 0x684 JUMPI PUSH1 0x20 SWAP2 PUSH1 0x5 SHL ADD ADD SWAP1 JUMP JUMPDEST SWAP2 SWAP1 SWAP2 DUP1 MLOAD DUP4 MLOAD DUP1 DUP3 SUB PUSH2 0x1705 JUMPI POP POP DUP1 MLOAD SWAP1 PUSH2 0x16A0 DUP3 PUSH2 0x6EB JUMP JUMPDEST SWAP2 PUSH2 0x16AE PUSH1 0x40 MLOAD SWAP4 DUP5 PUSH2 0x6CA JUMP JUMPDEST DUP1 DUP4 MSTORE PUSH2 0x16BD PUSH1 0x1F NOT SWAP2 PUSH2 0x6EB JUMP JUMPDEST ADD CALLDATASIZE PUSH1 0x20 DUP5 ADD CALLDATACOPY PUSH1 0x0 JUMPDEST DUP2 MLOAD DUP2 LT ISZERO PUSH2 0x16FE JUMPI DUP1 PUSH2 0x16ED PUSH1 0x1 SWAP3 PUSH1 0x5 SHL PUSH1 0x20 DUP1 DUP3 DUP8 ADD ADD MLOAD SWAP2 DUP10 ADD ADD MLOAD SWAP1 PUSH2 0x141B JUMP JUMPDEST PUSH2 0x16F7 DUP3 DUP7 PUSH2 0x1670 JUMP JUMPDEST MSTORE ADD PUSH2 0x16C7 JUMP JUMPDEST POP SWAP1 SWAP3 POP POP JUMP JUMPDEST PUSH4 0x5B059991 PUSH1 0xE0 SHL PUSH1 0x0 MSTORE PUSH1 0x4 MSTORE PUSH1 0x24 MSTORE PUSH1 0x44 PUSH1 0x0 REVERT JUMPDEST PUSH1 0x1F DUP2 GT PUSH2 0x1728 JUMPI POP POP JUMP JUMPDEST PUSH1 0x3 PUSH1 0x0 MSTORE PUSH1 0x20 PUSH1 0x0 KECCAK256 SWAP1 PUSH1 0x20 PUSH1 0x1F DUP5 ADD PUSH1 0x5 SHR DUP4 ADD SWAP4 LT PUSH2 0x1765 JUMPI JUMPDEST PUSH1 0x1F ADD PUSH1 0x5 SHR ADD SWAP1 JUMPDEST DUP2 DUP2 LT PUSH2 0x1759 JUMPI POP POP JUMP JUMPDEST PUSH1 0x0 DUP2 SSTORE PUSH1 0x1 ADD PUSH2 0x174E JUMP JUMPDEST SWAP1 SWAP2 POP DUP2 SWAP1 PUSH2 0x1745 JUMP JUMPDEST PUSH1 0x1F DUP2 GT PUSH2 0x177B JUMPI POP POP JUMP JUMPDEST PUSH1 0x0 DUP1 MLOAD PUSH1 0x20 PUSH2 0x298D DUP4 CODECOPY DUP2 MLOAD SWAP2 MSTORE PUSH1 0x0 MSTORE PUSH1 0x20 PUSH1 0x0 KECCAK256 SWAP1 PUSH1 0x20 PUSH1 0x1F DUP5 ADD PUSH1 0x5 SHR DUP4 ADD SWAP4 LT PUSH2 0x17C5 JUMPI JUMPDEST PUSH1 0x1F ADD PUSH1 0x5 SHR ADD SWAP1 JUMPDEST DUP2 DUP2 LT PUSH2 0x17B9 JUMPI POP POP JUMP JUMPDEST PUSH1 0x0 DUP2 SSTORE PUSH1 0x1 ADD PUSH2 0x17AE JUMP JUMPDEST SWAP1 SWAP2 POP DUP2 SWAP1 PUSH2 0x17A5 JUMP JUMPDEST PUSH1 0x1F DUP3 GT PUSH2 0x17DC JUMPI POP POP POP JUMP JUMPDEST PUSH1 0x0 MSTORE PUSH1 0x20 PUSH1 0x0 KECCAK256 SWAP1 PUSH1 0x20 PUSH1 0x1F DUP5 ADD PUSH1 0x5 SHR DUP4 ADD SWAP4 LT PUSH2 0x1817 JUMPI JUMPDEST PUSH1 0x1F ADD PUSH1 0x5 SHR ADD SWAP1 JUMPDEST DUP2 DUP2 LT PUSH2 0x180B JUMPI POP POP JUMP JUMPDEST PUSH1 0x0 DUP2 SSTORE PUSH1 0x1 ADD PUSH2 0x1800 JUMP JUMPDEST SWAP1 SWAP2 POP DUP2 SWAP1 PUSH2 0x17F7 JUMP JUMPDEST SWAP1 DUP2 MLOAD PUSH1 0x1 PUSH1 0x1 PUSH1 0x40 SHL SUB DUP2 GT PUSH2 0x689 JUMPI PUSH2 0x1848 DUP2 PUSH2 0x1841 PUSH1 0x3 SLOAD PUSH2 0x1466 JUMP JUMPDEST PUSH1 0x3 PUSH2 0x17CF JUMP JUMPDEST PUSH1 0x20 SWAP3 PUSH1 0x1F DUP3 GT PUSH1 0x1 EQ PUSH2 0x188A JUMPI PUSH2 0x187A SWAP3 SWAP4 DUP3 SWAP2 PUSH1 0x0 SWAP3 PUSH2 0x187F JUMPI JUMPDEST POP POP DUP2 PUSH1 0x1 SHL SWAP2 PUSH1 0x0 NOT SWAP1 PUSH1 0x3 SHL SHR NOT AND OR SWAP1 JUMP JUMPDEST PUSH1 0x3 SSTORE JUMP JUMPDEST ADD MLOAD SWAP1 POP CODESIZE DUP1 PUSH2 0x1865 JUMP JUMPDEST PUSH1 0x3 PUSH1 0x0 MSTORE PUSH1 0x1F NOT DUP3 AND SWAP4 PUSH32 0xC2575A0E9E593C00F959F8C92F12DB2869C3395A3B0502D05E2516446F71F85B SWAP2 PUSH1 0x0 JUMPDEST DUP7 DUP2 LT PUSH2 0x18F1 JUMPI POP DUP4 PUSH1 0x1 SWAP6 SWAP7 LT PUSH2 0x18D8 JUMPI JUMPDEST POP POP POP DUP2 SHL ADD PUSH1 0x3 SSTORE JUMP JUMPDEST ADD MLOAD PUSH1 0x0 NOT PUSH1 0xF8 DUP5 PUSH1 0x3 SHL AND SHR NOT AND SWAP1 SSTORE CODESIZE DUP1 DUP1 PUSH2 0x18CD JUMP JUMPDEST SWAP2 SWAP3 PUSH1 0x20 PUSH1 0x1 DUP2 SWAP3 DUP7 DUP6 ADD MLOAD DUP2 SSTORE ADD SWAP5 ADD SWAP3 ADD PUSH2 0x18BA JUMP JUMPDEST PUSH1 0xFF SWAP2 PUSH2 0xE94 PUSH2 0x1918 SWAP3 PUSH2 0x13E2 JUMP JUMPDEST SLOAD AND SWAP1 JUMP JUMPDEST ISZERO PUSH2 0x1924 JUMPI JUMP JUMPDEST PUSH1 0x40 MLOAD PUSH3 0x461BCD PUSH1 0xE5 SHL DUP2 MSTORE PUSH1 0x20 PUSH1 0x4 DUP3 ADD MSTORE PUSH1 0x19 PUSH1 0x24 DUP3 ADD MSTORE PUSH32 0x50726F6475637420494420646F6573206E6F7420657869737400000000000000 PUSH1 0x44 DUP3 ADD MSTORE PUSH1 0x64 SWAP1 REVERT JUMPDEST ISZERO PUSH2 0x1970 JUMPI JUMP JUMPDEST PUSH1 0x40 MLOAD PUSH3 0x461BCD PUSH1 0xE5 SHL DUP2 MSTORE PUSH1 0x20 PUSH1 0x4 DUP3 ADD MSTORE PUSH1 0x1A PUSH1 0x24 DUP3 ADD MSTORE PUSH32 0x4275726E20616D6F756E74206578636565647320737570706C79000000000000 PUSH1 0x44 DUP3 ADD MSTORE PUSH1 0x64 SWAP1 REVERT JUMPDEST ISZERO PUSH2 0x19BC JUMPI JUMP JUMPDEST PUSH1 0x40 MLOAD PUSH3 0x461BCD PUSH1 0xE5 SHL DUP2 MSTORE PUSH1 0x20 PUSH1 0x4 DUP3 ADD MSTORE PUSH1 0x14 PUSH1 0x24 DUP3 ADD MSTORE PUSH20 0x496E73756666696369656E742062616C616E6365 PUSH1 0x60 SHL PUSH1 0x44 DUP3 ADD MSTORE PUSH1 0x64 SWAP1 REVERT JUMPDEST SWAP2 SWAP1 DUP3 SUB SWAP2 DUP3 GT PUSH2 0x15F7 JUMPI JUMP JUMPDEST PUSH1 0x40 MLOAD PUSH1 0x20 PUSH2 0x1A14 DUP2 DUP4 PUSH2 0x6CA JUMP JUMPDEST PUSH1 0x0 DUP3 MSTORE PUSH2 0x1A20 PUSH2 0x25D2 JUMP JUMPDEST PUSH2 0x1A28 PUSH2 0x25D2 JUMP JUMPDEST DUP2 MLOAD SWAP2 PUSH1 0x1 PUSH1 0x1 PUSH1 0x40 SHL SUB DUP4 GT PUSH2 0x689 JUMPI PUSH2 0x1A5A DUP4 PUSH2 0x1A55 PUSH1 0x0 DUP1 MLOAD PUSH1 0x20 PUSH2 0x298D DUP4 CODECOPY DUP2 MLOAD SWAP2 MSTORE SLOAD PUSH2 0x1466 JUMP JUMPDEST PUSH2 0x176F JUMP JUMPDEST DUP2 PUSH1 0x1F DUP5 GT PUSH1 0x1 EQ PUSH2 0x1AD4 JUMPI POP SWAP2 DUP1 PUSH2 0x1A8E SWAP3 PUSH2 0x1AB4 SWAP6 SWAP5 PUSH1 0x0 SWAP3 PUSH2 0x187F JUMPI POP POP DUP2 PUSH1 0x1 SHL SWAP2 PUSH1 0x0 NOT SWAP1 PUSH1 0x3 SHL SHR NOT AND OR SWAP1 JUMP JUMPDEST PUSH1 0x0 DUP1 MLOAD PUSH1 0x20 PUSH2 0x298D DUP4 CODECOPY DUP2 MLOAD SWAP2 MSTORE SSTORE JUMPDEST PUSH2 0x1AA7 PUSH2 0x25D2 JUMP JUMPDEST PUSH2 0x1AAF PUSH2 0x25D2 JUMP JUMPDEST PUSH2 0x1821 JUMP JUMPDEST PUSH2 0x1ABD CALLER PUSH2 0x1E86 JUMP JUMPDEST POP PUSH2 0x1AC7 CALLER PUSH2 0x1F26 JUMP JUMPDEST POP PUSH2 0x1AD1 CALLER PUSH2 0x1FEB JUMP JUMPDEST POP JUMP JUMPDEST PUSH1 0x0 DUP1 MLOAD PUSH1 0x20 PUSH2 0x298D DUP4 CODECOPY DUP2 MLOAD SWAP2 MSTORE PUSH1 0x0 MSTORE SWAP2 SWAP1 PUSH1 0x1F NOT DUP5 AND PUSH32 0xF429CB5E2EC84CBB765E76B31964A56CCDE03E7A6122D6CC4AFB19EDC55EDEED SWAP4 PUSH1 0x0 SWAP1 JUMPDEST DUP3 DUP3 LT PUSH2 0x1B62 JUMPI POP POP SWAP2 PUSH1 0x1 SWAP4 SWAP2 DUP6 PUSH2 0x1AB4 SWAP8 SWAP7 SWAP5 LT PUSH2 0x1B49 JUMPI JUMPDEST POP POP POP DUP2 SHL ADD PUSH1 0x0 DUP1 MLOAD PUSH1 0x20 PUSH2 0x298D DUP4 CODECOPY DUP2 MLOAD SWAP2 MSTORE SSTORE PUSH2 0x1A9F JUMP JUMPDEST ADD MLOAD PUSH1 0x0 NOT PUSH1 0xF8 DUP5 PUSH1 0x3 SHL AND SHR NOT AND SWAP1 SSTORE CODESIZE DUP1 DUP1 PUSH2 0x1B2E JUMP JUMPDEST DUP1 PUSH1 0x1 DUP7 SWAP8 DUP3 SWAP5 SWAP8 DUP8 ADD MLOAD DUP2 SSTORE ADD SWAP7 ADD SWAP5 ADD SWAP1 PUSH2 0x1B13 JUMP JUMPDEST SWAP1 PUSH2 0x1B84 DUP3 PUSH2 0x75F JUMP JUMPDEST PUSH2 0x1B91 PUSH1 0x40 MLOAD SWAP2 DUP3 PUSH2 0x6CA JUMP JUMPDEST DUP3 DUP2 MSTORE DUP1 SWAP3 PUSH2 0x1BA2 PUSH1 0x1F NOT SWAP2 PUSH2 0x75F JUMP JUMPDEST ADD SWAP1 PUSH1 0x20 CALLDATASIZE SWAP2 ADD CALLDATACOPY JUMP JUMPDEST CALLER PUSH1 0x0 SWAP1 DUP2 MSTORE PUSH32 0x549FE2656C81D2947B3B913F0A53B9EA86C71E049F3A1B8AA23C09A8A05CB8D4 PUSH1 0x20 MSTORE PUSH1 0x40 SWAP1 KECCAK256 SLOAD PUSH1 0xFF AND ISZERO PUSH2 0x1BE5 JUMPI JUMP JUMPDEST PUSH4 0xE2517D3F PUSH1 0xE0 SHL PUSH1 0x0 MSTORE CALLER PUSH1 0x4 MSTORE PUSH32 0x9F2DF0FED2C77648DE5860A4CC508CD0818C85B8B8A1AB4CEEEF8D981C8956A6 PUSH1 0x24 MSTORE PUSH1 0x44 PUSH1 0x0 REVERT JUMPDEST CALLER PUSH1 0x0 SWAP1 DUP2 MSTORE PUSH32 0xAB71E3F32666744D246EDFF3F96E4BDAFEE2E9867098CDD118A979A7464786A8 PUSH1 0x20 MSTORE PUSH1 0x40 SWAP1 KECCAK256 SLOAD PUSH1 0xFF AND ISZERO PUSH2 0x1C57 JUMPI JUMP JUMPDEST PUSH4 0xE2517D3F PUSH1 0xE0 SHL PUSH1 0x0 MSTORE CALLER PUSH1 0x4 MSTORE PUSH32 0x189AB7A9244DF0848122154315AF71FE140F3DB0FE014031783B0946B8C9D2E3 PUSH1 0x24 MSTORE PUSH1 0x44 PUSH1 0x0 REVERT JUMPDEST CALLER PUSH1 0x0 SWAP1 DUP2 MSTORE PUSH32 0xB7DB2DD08FCB62D0C9E08C51941CAE53C267786A0B75803FB7960902FC8EF97D PUSH1 0x20 MSTORE PUSH1 0x40 SWAP1 KECCAK256 SLOAD PUSH1 0xFF AND ISZERO PUSH2 0x1CC9 JUMPI JUMP JUMPDEST PUSH4 0xE2517D3F PUSH1 0xE0 SHL PUSH1 0x0 MSTORE CALLER PUSH1 0x4 MSTORE PUSH1 0x0 PUSH1 0x24 MSTORE PUSH1 0x44 PUSH1 0x0 REVERT JUMPDEST PUSH1 0x0 DUP2 DUP2 MSTORE PUSH1 0x0 DUP1 MLOAD PUSH1 0x20 PUSH2 0x294D DUP4 CODECOPY DUP2 MLOAD SWAP2 MSTORE PUSH1 0x20 SWAP1 DUP2 MSTORE PUSH1 0x40 DUP1 DUP4 KECCAK256 CALLER DUP5 MSTORE SWAP1 SWAP2 MSTORE SWAP1 KECCAK256 SLOAD PUSH1 0xFF AND ISZERO PUSH2 0x1D15 JUMPI POP JUMP JUMPDEST PUSH4 0xE2517D3F PUSH1 0xE0 SHL PUSH1 0x0 MSTORE CALLER PUSH1 0x4 MSTORE PUSH1 0x24 MSTORE PUSH1 0x44 PUSH1 0x0 REVERT JUMPDEST PUSH1 0x1 PUSH1 0x1 PUSH1 0xA0 SHL SUB DUP2 AND SWAP4 SWAP3 SWAP1 SWAP2 SWAP1 DUP5 ISZERO PUSH2 0x1102 JUMPI PUSH2 0x1D69 PUSH1 0x40 MLOAD SWAP3 PUSH1 0x1 DUP5 MSTORE PUSH1 0x20 DUP5 ADD MSTORE PUSH1 0x40 DUP4 ADD SWAP2 PUSH1 0x1 DUP4 MSTORE PUSH1 0x60 DUP5 ADD MSTORE PUSH1 0x80 DUP4 ADD PUSH1 0x40 MSTORE JUMP JUMPDEST SWAP3 DUP2 MLOAD DUP5 MLOAD SWAP1 DUP2 DUP2 SUB PUSH2 0x1E6F JUMPI POP POP PUSH1 0x0 JUMPDEST DUP3 MLOAD DUP2 LT ISZERO PUSH2 0x1DB8 JUMPI DUP1 PUSH1 0x1 SWAP2 PUSH1 0x5 SHL PUSH2 0x1DB0 PUSH2 0x1DA8 DUP8 PUSH2 0xE94 PUSH1 0x20 DUP1 DUP7 DUP12 ADD ADD MLOAD SWAP6 DUP13 ADD ADD MLOAD SWAP5 PUSH2 0x13B3 JUMP JUMPDEST SWAP2 DUP3 SLOAD PUSH2 0x15EA JUMP JUMPDEST SWAP1 SSTORE ADD PUSH2 0x1D7B JUMP JUMPDEST POP SWAP3 SWAP2 SWAP4 PUSH1 0x1 DUP3 MLOAD EQ PUSH1 0x0 EQ PUSH2 0x1E33 JUMPI PUSH1 0x20 DUP3 DUP2 ADD MLOAD DUP5 DUP3 ADD MLOAD PUSH1 0x40 DUP1 MLOAD SWAP3 DUP4 MSTORE SWAP3 DUP3 ADD MSTORE PUSH1 0x0 SWAP2 CALLER SWAP2 PUSH32 0xC3D58168C5AE7397731D063D5BBF3D657854427343F4C083240F7AACAA2D0F62 SWAP2 SWAP1 LOG4 JUMPDEST DUP1 MLOAD PUSH1 0x1 SUB PUSH2 0x1E27 JUMPI SWAP1 PUSH1 0x20 DUP1 PUSH2 0x1656 SWAP6 SWAP4 ADD MLOAD SWAP2 ADD MLOAD SWAP2 PUSH1 0x0 CALLER PUSH2 0x27F2 JUMP JUMPDEST PUSH2 0x1656 SWAP4 PUSH1 0x0 CALLER PUSH2 0x26BD JUMP JUMPDEST PUSH1 0x0 PUSH1 0x40 MLOAD PUSH32 0x4A39DC06D4C0DBC64B70AF90FD698A233A518AA5D07E595D983B8C0526C8F7FB CALLER SWAP2 DUP1 PUSH2 0x1E67 DUP9 DUP9 DUP4 PUSH2 0x2600 JUMP JUMPDEST SUB SWAP1 LOG4 PUSH2 0x1E07 JUMP JUMPDEST PUSH4 0x5B059991 PUSH1 0xE0 SHL PUSH1 0x0 MSTORE PUSH1 0x4 MSTORE PUSH1 0x24 MSTORE PUSH1 0x44 PUSH1 0x0 REVERT JUMPDEST PUSH1 0x1 PUSH1 0x1 PUSH1 0xA0 SHL SUB DUP2 AND PUSH1 0x0 SWAP1 DUP2 MSTORE PUSH32 0xB7DB2DD08FCB62D0C9E08C51941CAE53C267786A0B75803FB7960902FC8EF97D PUSH1 0x20 MSTORE PUSH1 0x40 SWAP1 KECCAK256 SLOAD PUSH1 0xFF AND PUSH2 0x1F20 JUMPI PUSH1 0x1 PUSH1 0x1 PUSH1 0xA0 SHL SUB AND PUSH1 0x0 DUP2 DUP2 MSTORE PUSH32 0xB7DB2DD08FCB62D0C9E08C51941CAE53C267786A0B75803FB7960902FC8EF97D PUSH1 0x20 MSTORE PUSH1 0x40 DUP2 KECCAK256 DUP1 SLOAD PUSH1 0xFF NOT AND PUSH1 0x1 OR SWAP1 SSTORE CALLER SWAP2 SWAP1 PUSH1 0x0 DUP1 MLOAD PUSH1 0x20 PUSH2 0x290D DUP4 CODECOPY DUP2 MLOAD SWAP2 MSTORE DUP2 DUP1 LOG4 PUSH1 0x1 SWAP1 JUMP JUMPDEST POP PUSH1 0x0 SWAP1 JUMP JUMPDEST PUSH1 0x1 PUSH1 0x1 PUSH1 0xA0 SHL SUB DUP2 AND PUSH1 0x0 SWAP1 DUP2 MSTORE PUSH32 0x549FE2656C81D2947B3B913F0A53B9EA86C71E049F3A1B8AA23C09A8A05CB8D4 PUSH1 0x20 MSTORE PUSH1 0x40 SWAP1 KECCAK256 SLOAD PUSH1 0xFF AND PUSH2 0x1F20 JUMPI PUSH1 0x1 PUSH1 0x1 PUSH1 0xA0 SHL SUB DUP2 AND PUSH1 0x0 SWAP1 DUP2 MSTORE PUSH32 0x549FE2656C81D2947B3B913F0A53B9EA86C71E049F3A1B8AA23C09A8A05CB8D4 PUSH1 0x20 MSTORE PUSH1 0x40 SWAP1 KECCAK256 DUP1 SLOAD PUSH1 0xFF NOT AND PUSH1 0x1 OR SWAP1 SSTORE CALLER SWAP1 PUSH1 0x1 PUSH1 0x1 PUSH1 0xA0 SHL SUB AND PUSH32 0x9F2DF0FED2C77648DE5860A4CC508CD0818C85B8B8A1AB4CEEEF8D981C8956A6 PUSH1 0x0 DUP1 MLOAD PUSH1 0x20 PUSH2 0x290D DUP4 CODECOPY DUP2 MLOAD SWAP2 MSTORE PUSH1 0x0 DUP1 LOG4 PUSH1 0x1 SWAP1 JUMP JUMPDEST PUSH1 0x1 PUSH1 0x1 PUSH1 0xA0 SHL SUB DUP2 AND PUSH1 0x0 SWAP1 DUP2 MSTORE PUSH32 0xAB71E3F32666744D246EDFF3F96E4BDAFEE2E9867098CDD118A979A7464786A8 PUSH1 0x20 MSTORE PUSH1 0x40 SWAP1 KECCAK256 SLOAD PUSH1 0xFF AND PUSH2 0x1F20 JUMPI PUSH1 0x1 PUSH1 0x1 PUSH1 0xA0 SHL SUB DUP2 AND PUSH1 0x0 SWAP1 DUP2 MSTORE PUSH32 0xAB71E3F32666744D246EDFF3F96E4BDAFEE2E9867098CDD118A979A7464786A8 PUSH1 0x20 MSTORE PUSH1 0x40 SWAP1 KECCAK256 DUP1 SLOAD PUSH1 0xFF NOT AND PUSH1 0x1 OR SWAP1 SSTORE CALLER SWAP1 PUSH1 0x1 PUSH1 0x1 PUSH1 0xA0 SHL SUB AND PUSH32 0x189AB7A9244DF0848122154315AF71FE140F3DB0FE014031783B0946B8C9D2E3 PUSH1 0x0 DUP1 MLOAD PUSH1 0x20 PUSH2 0x290D DUP4 CODECOPY DUP2 MLOAD SWAP2 MSTORE PUSH1 0x0 DUP1 LOG4 PUSH1 0x1 SWAP1 JUMP JUMPDEST PUSH1 0x0 DUP2 DUP2 MSTORE PUSH1 0x0 DUP1 MLOAD PUSH1 0x20 PUSH2 0x294D DUP4 CODECOPY DUP2 MLOAD SWAP2 MSTORE PUSH1 0x20 SWAP1 DUP2 MSTORE PUSH1 0x40 DUP1 DUP4 KECCAK256 PUSH1 0x1 PUSH1 0x1 PUSH1 0xA0 SHL SUB DUP7 AND DUP5 MSTORE SWAP1 SWAP2 MSTORE SWAP1 KECCAK256 SLOAD PUSH1 0xFF AND PUSH2 0x2145 JUMPI PUSH1 0x0 DUP2 DUP2 MSTORE PUSH1 0x0 DUP1 MLOAD PUSH1 0x20 PUSH2 0x294D DUP4 CODECOPY DUP2 MLOAD SWAP2 MSTORE PUSH1 0x20 SWAP1 DUP2 MSTORE PUSH1 0x40 DUP1 DUP4 KECCAK256 PUSH1 0x1 PUSH1 0x1 PUSH1 0xA0 SHL SUB DUP7 AND DUP5 MSTORE SWAP1 SWAP2 MSTORE SWAP1 KECCAK256 DUP1 SLOAD PUSH1 0xFF NOT AND PUSH1 0x1 OR SWAP1 SSTORE CALLER SWAP2 PUSH1 0x1 PUSH1 0x1 PUSH1 0xA0 SHL SUB AND SWAP1 PUSH1 0x0 DUP1 MLOAD PUSH1 0x20 PUSH2 0x290D DUP4 CODECOPY DUP2 MLOAD SWAP2 MSTORE PUSH1 0x0 DUP1 LOG4 PUSH1 0x1 SWAP1 JUMP JUMPDEST POP POP PUSH1 0x0 SWAP1 JUMP JUMPDEST PUSH1 0x0 DUP2 DUP2 MSTORE PUSH1 0x0 DUP1 MLOAD PUSH1 0x20 PUSH2 0x294D DUP4 CODECOPY DUP2 MLOAD SWAP2 MSTORE PUSH1 0x20 SWAP1 DUP2 MSTORE PUSH1 0x40 DUP1 DUP4 KECCAK256 PUSH1 0x1 PUSH1 0x1 PUSH1 0xA0 SHL SUB DUP7 AND DUP5 MSTORE SWAP1 SWAP2 MSTORE SWAP1 KECCAK256 SLOAD PUSH1 0xFF AND ISZERO PUSH2 0x2145 JUMPI PUSH1 0x0 DUP2 DUP2 MSTORE PUSH1 0x0 DUP1 MLOAD PUSH1 0x20 PUSH2 0x294D DUP4 CODECOPY DUP2 MLOAD SWAP2 MSTORE PUSH1 0x20 SWAP1 DUP2 MSTORE PUSH1 0x40 DUP1 DUP4 KECCAK256 PUSH1 0x1 PUSH1 0x1 PUSH1 0xA0 SHL SUB DUP7 AND DUP5 MSTORE SWAP1 SWAP2 MSTORE SWAP1 KECCAK256 DUP1 SLOAD PUSH1 0xFF NOT AND SWAP1 SSTORE CALLER SWAP2 PUSH1 0x1 PUSH1 0x1 PUSH1 0xA0 SHL SUB AND SWAP1 PUSH32 0xF6391F5C32D9C69D2A47EA670B442974B53935D1EDC7FD64EB21E047A839171B PUSH1 0x0 DUP1 LOG4 PUSH1 0x1 SWAP1 JUMP JUMPDEST SWAP1 DUP2 PUSH1 0x20 SWAP2 SUB SLT PUSH2 0x1C1 JUMPI MLOAD SWAP1 JUMP JUMPDEST SWAP3 PUSH1 0x1 PUSH1 0x1 PUSH1 0xA0 SHL SUB DUP5 AND SWAP3 SWAP1 SWAP2 SWAP1 DUP4 ISZERO PUSH2 0x10ED JUMPI PUSH2 0x223C PUSH1 0x40 MLOAD SWAP3 PUSH1 0x1 DUP5 MSTORE PUSH1 0x20 DUP5 ADD MSTORE PUSH1 0x40 DUP4 ADD SWAP2 PUSH1 0x1 DUP4 MSTORE PUSH1 0x60 DUP5 ADD MSTORE PUSH1 0x80 DUP4 ADD PUSH1 0x40 MSTORE JUMP JUMPDEST SWAP2 SWAP1 PUSH1 0x20 SWAP2 PUSH1 0x0 PUSH1 0x40 MLOAD PUSH2 0x2250 DUP6 DUP3 PUSH2 0x6CA JUMP JUMPDEST MSTORE DUP2 MLOAD DUP5 MLOAD SWAP1 DUP2 DUP2 SUB PUSH2 0x1E6F JUMPI POP POP PUSH1 0x0 JUMPDEST DUP3 MLOAD DUP2 LT ISZERO PUSH2 0x22E2 JUMPI DUP1 PUSH1 0x5 SHL DUP5 DUP1 DUP3 DUP7 ADD ADD MLOAD SWAP2 DUP8 ADD ADD MLOAD PUSH2 0x2288 DUP10 PUSH2 0xE94 DUP5 PUSH2 0x13B3 JUMP JUMPDEST SLOAD DUP2 DUP2 LT PUSH2 0x22AB JUMPI DUP10 PUSH2 0xE94 PUSH1 0x1 SWAP6 SWAP5 SWAP4 PUSH2 0x22A4 SWAP4 SUB SWAP4 PUSH2 0x13B3 JUMP JUMPDEST SSTORE ADD PUSH2 0x2262 JUMP JUMPDEST PUSH1 0x40 MLOAD PUSH4 0x3DEE4C5 PUSH1 0xE0 SHL DUP2 MSTORE PUSH1 0x1 PUSH1 0x1 PUSH1 0xA0 SHL SUB DUP12 AND PUSH1 0x4 DUP3 ADD MSTORE PUSH1 0x24 DUP2 ADD SWAP2 SWAP1 SWAP2 MSTORE PUSH1 0x44 DUP2 ADD DUP3 SWAP1 MSTORE PUSH1 0x64 DUP2 ADD DUP4 SWAP1 MSTORE PUSH1 0x84 SWAP1 REVERT JUMPDEST POP SWAP5 POP SWAP1 SWAP2 PUSH1 0x0 SWAP4 SWAP3 PUSH1 0x1 DUP4 MLOAD EQ DUP6 EQ PUSH2 0x233A JUMPI SWAP2 DUP3 ADD MLOAD SWAP2 ADD MLOAD PUSH1 0x40 DUP1 MLOAD SWAP3 DUP4 MSTORE PUSH1 0x20 DUP4 ADD SWAP2 SWAP1 SWAP2 MSTORE CALLER SWAP2 PUSH32 0xC3D58168C5AE7397731D063D5BBF3D657854427343F4C083240F7AACAA2D0F62 SWAP2 DUP2 SWAP1 DUP2 ADD JUMPDEST SUB SWAP1 LOG4 JUMP JUMPDEST POP PUSH2 0x2335 PUSH32 0x4A39DC06D4C0DBC64B70AF90FD698A233A518AA5D07E595D983B8C0526C8F7FB SWAP2 PUSH1 0x40 MLOAD SWAP2 DUP3 SWAP2 CALLER SWAP6 DUP4 PUSH2 0x2600 JUMP JUMPDEST SWAP5 SWAP4 SWAP3 SWAP1 SWAP2 SWAP4 DUP5 MLOAD DUP3 MLOAD SWAP1 DUP2 DUP2 SUB PUSH2 0x1E6F JUMPI POP POP PUSH1 0x1 PUSH1 0x1 PUSH1 0xA0 SHL SUB DUP7 DUP2 AND SWAP6 DUP7 ISZERO ISZERO SWAP6 SWAP2 DUP6 AND DUP1 ISZERO ISZERO SWAP4 SWAP2 SWAP3 SWAP1 PUSH1 0x0 JUMPDEST DUP5 MLOAD DUP2 LT ISZERO PUSH2 0x2460 JUMPI DUP1 PUSH1 0x5 SHL SWAP1 DUP10 DUP10 DUP9 PUSH1 0x20 DUP1 DUP7 DUP12 ADD ADD MLOAD SWAP6 DUP13 ADD ADD MLOAD SWAP3 PUSH2 0x23EF JUMPI JUMPDEST SWAP4 PUSH1 0x1 SWAP5 PUSH2 0x23D5 JUMPI JUMPDEST POP POP POP ADD PUSH2 0x239F JUMP JUMPDEST PUSH2 0x23E5 SWAP2 PUSH2 0xE94 PUSH2 0x1DA8 SWAP3 PUSH2 0x13B3 JUMP JUMPDEST SWAP1 SSTORE CODESIZE DUP10 DUP2 PUSH2 0x23CC JUMP JUMPDEST POP POP SWAP1 SWAP2 PUSH2 0x2400 DUP14 PUSH2 0xE94 DUP4 PUSH2 0x13B3 JUMP JUMPDEST SLOAD DUP3 DUP2 LT PUSH2 0x2429 JUMPI DUP3 SWAP2 DUP10 DUP16 PUSH2 0x2420 PUSH1 0x1 SWAP8 SWAP7 DUP16 SWAP6 SUB SWAP2 PUSH2 0xE94 DUP6 PUSH2 0x13B3 JUMP JUMPDEST SSTORE SWAP1 SWAP5 POP PUSH2 0x23C3 JUMP JUMPDEST PUSH1 0x40 MLOAD PUSH4 0x3DEE4C5 PUSH1 0xE0 SHL DUP2 MSTORE PUSH1 0x1 PUSH1 0x1 PUSH1 0xA0 SHL SUB DUP16 AND PUSH1 0x4 DUP3 ADD MSTORE PUSH1 0x24 DUP2 ADD SWAP2 SWAP1 SWAP2 MSTORE PUSH1 0x44 DUP2 ADD DUP4 SWAP1 MSTORE PUSH1 0x64 DUP2 ADD DUP3 SWAP1 MSTORE PUSH1 0x84 SWAP1 REVERT JUMPDEST POP SWAP2 SWAP9 SWAP6 SWAP4 SWAP3 SWAP8 SWAP1 SWAP7 POP PUSH1 0x1 DUP9 MLOAD EQ PUSH1 0x0 EQ PUSH2 0x24F4 JUMPI PUSH1 0x20 DUP9 DUP2 ADD MLOAD DUP7 DUP3 ADD MLOAD PUSH1 0x40 DUP1 MLOAD SWAP3 DUP4 MSTORE SWAP3 DUP3 ADD MSTORE CALLER SWAP2 PUSH32 0xC3D58168C5AE7397731D063D5BBF3D657854427343F4C083240F7AACAA2D0F62 SWAP2 LOG4 JUMPDEST PUSH2 0x24BD JUMPI JUMPDEST POP POP POP POP POP JUMP JUMPDEST DUP5 MLOAD PUSH1 0x1 SUB PUSH2 0x24E3 JUMPI PUSH1 0x20 DUP1 PUSH2 0x24D9 SWAP7 ADD MLOAD SWAP3 ADD MLOAD SWAP3 CALLER PUSH2 0x27F2 JUMP JUMPDEST CODESIZE DUP1 DUP1 DUP1 DUP1 PUSH2 0x24B6 JUMP JUMPDEST PUSH2 0x24EF SWAP5 SWAP2 SWAP3 CALLER PUSH2 0x26BD JUMP JUMPDEST PUSH2 0x24D9 JUMP JUMPDEST PUSH1 0x40 MLOAD PUSH32 0x4A39DC06D4C0DBC64B70AF90FD698A233A518AA5D07E595D983B8C0526C8F7FB CALLER SWAP2 DUP1 PUSH2 0x2526 DUP10 DUP14 DUP4 PUSH2 0x2600 JUMP JUMPDEST SUB SWAP1 LOG4 PUSH2 0x24B1 JUMP JUMPDEST SWAP1 DUP2 EXTCODESIZE ISZERO PUSH2 0x25B0 JUMPI PUSH1 0x0 DUP1 MLOAD PUSH1 0x20 PUSH2 0x292D DUP4 CODECOPY DUP2 MLOAD SWAP2 MSTORE DUP1 SLOAD PUSH1 0x1 PUSH1 0x1 PUSH1 0xA0 SHL SUB NOT AND PUSH1 0x1 PUSH1 0x1 PUSH1 0xA0 SHL SUB DUP5 AND SWAP1 DUP2 OR SWAP1 SWAP2 SSTORE PUSH32 0xBC7CD75A20EE27FD9ADEBAB32041F755214DBC6BFFA90CC0225B39DA2E5C2D3B PUSH1 0x0 DUP1 LOG2 DUP1 MLOAD ISZERO PUSH2 0x2596 JUMPI PUSH2 0x1AD1 SWAP2 PUSH2 0x2892 JUMP JUMPDEST POP POP CALLVALUE PUSH2 0x259F JUMPI JUMP JUMPDEST PUSH4 0xB398979F PUSH1 0xE0 SHL PUSH1 0x0 MSTORE PUSH1 0x4 PUSH1 0x0 REVERT JUMPDEST POP PUSH4 0x4C9C8CE3 PUSH1 0xE0 SHL PUSH1 0x0 SWAP1 DUP2 MSTORE PUSH1 0x1 PUSH1 0x1 PUSH1 0xA0 SHL SUB SWAP2 SWAP1 SWAP2 AND PUSH1 0x4 MSTORE PUSH1 0x24 SWAP1 REVERT JUMPDEST PUSH1 0xFF PUSH1 0x0 DUP1 MLOAD PUSH1 0x20 PUSH2 0x296D DUP4 CODECOPY DUP2 MLOAD SWAP2 MSTORE SLOAD PUSH1 0x40 SHR AND ISZERO PUSH2 0x25EF JUMPI JUMP JUMPDEST PUSH4 0x1AFCD79F PUSH1 0xE3 SHL PUSH1 0x0 MSTORE PUSH1 0x4 PUSH1 0x0 REVERT JUMPDEST SWAP1 SWAP2 PUSH2 0x2617 PUSH2 0x350 SWAP4 PUSH1 0x40 DUP5 MSTORE PUSH1 0x40 DUP5 ADD SWAP1 PUSH2 0x8D4 JUMP JUMPDEST SWAP2 PUSH1 0x20 DUP2 DUP5 SUB SWAP2 ADD MSTORE PUSH2 0x8D4 JUMP JUMPDEST SWAP1 DUP2 PUSH1 0x20 SWAP2 SUB SLT PUSH2 0x1C1 JUMPI MLOAD PUSH2 0x350 DUP2 PUSH2 0x25C JUMP JUMPDEST PUSH1 0x1 PUSH1 0x1 PUSH1 0xA0 SHL SUB SWAP2 DUP3 AND DUP2 MSTORE SWAP2 AND PUSH1 0x20 DUP3 ADD MSTORE PUSH1 0xA0 PUSH1 0x40 DUP3 ADD DUP2 SWAP1 MSTORE PUSH2 0x350 SWAP5 SWAP2 SWAP4 SWAP2 SWAP3 PUSH2 0x267F SWAP3 SWAP2 PUSH2 0x2671 SWAP2 SWAP1 DUP7 ADD SWAP1 PUSH2 0x8D4 JUMP JUMPDEST SWAP1 DUP5 DUP3 SUB PUSH1 0x60 DUP7 ADD MSTORE PUSH2 0x8D4 JUMP JUMPDEST SWAP2 PUSH1 0x80 DUP2 DUP5 SUB SWAP2 ADD MSTORE PUSH2 0x31A JUMP JUMPDEST RETURNDATASIZE ISZERO PUSH2 0x26B8 JUMPI RETURNDATASIZE SWAP1 PUSH2 0x269E DUP3 PUSH2 0x75F JUMP JUMPDEST SWAP2 PUSH2 0x26AC PUSH1 0x40 MLOAD SWAP4 DUP5 PUSH2 0x6CA JUMP JUMPDEST DUP3 MSTORE RETURNDATASIZE PUSH1 0x0 PUSH1 0x20 DUP5 ADD RETURNDATACOPY JUMP JUMPDEST PUSH1 0x60 SWAP1 JUMP JUMPDEST SWAP1 SWAP2 SWAP5 SWAP3 SWAP4 DUP6 EXTCODESIZE PUSH2 0x26D1 JUMPI JUMPDEST POP POP POP POP POP POP JUMP JUMPDEST PUSH1 0x20 SWAP4 PUSH2 0x26F3 SWAP2 PUSH1 0x40 MLOAD SWAP7 DUP8 SWAP6 DUP7 SWAP6 PUSH4 0xBC197C81 PUSH1 0xE0 SHL DUP8 MSTORE PUSH1 0x4 DUP8 ADD PUSH2 0x263A JUMP JUMPDEST SUB DUP2 PUSH1 0x0 PUSH1 0x1 PUSH1 0x1 PUSH1 0xA0 SHL SUB DUP8 AND GAS CALL PUSH1 0x0 SWAP2 DUP2 PUSH2 0x2788 JUMPI JUMPDEST POP PUSH2 0x2748 JUMPI POP PUSH2 0x271A PUSH2 0x268D JUMP JUMPDEST DUP1 MLOAD SWAP2 SWAP1 DUP3 PUSH2 0x2741 JUMPI PUSH4 0x2BFA23E7 PUSH1 0xE1 SHL PUSH1 0x0 MSTORE PUSH1 0x1 PUSH1 0x1 PUSH1 0xA0 SHL SUB DUP3 AND PUSH1 0x4 MSTORE PUSH1 0x24 PUSH1 0x0 REVERT JUMPDEST SWAP1 POP PUSH1 0x20 ADD REVERT JUMPDEST PUSH1 0x1 PUSH1 0x1 PUSH1 0xE0 SHL SUB NOT AND PUSH4 0x43E6837F PUSH1 0xE0 SHL ADD PUSH2 0x276B JUMPI POP CODESIZE DUP1 DUP1 DUP1 DUP1 DUP1 PUSH2 0x26C9 JUMP JUMPDEST PUSH4 0x2BFA23E7 PUSH1 0xE1 SHL PUSH1 0x0 MSTORE PUSH1 0x1 PUSH1 0x1 PUSH1 0xA0 SHL SUB AND PUSH1 0x4 MSTORE PUSH1 0x24 PUSH1 0x0 REVERT JUMPDEST PUSH2 0x27AB SWAP2 SWAP3 POP PUSH1 0x20 RETURNDATASIZE PUSH1 0x20 GT PUSH2 0x27B2 JUMPI JUMPDEST PUSH2 0x27A3 DUP2 DUP4 PUSH2 0x6CA JUMP JUMPDEST DUP2 ADD SWAP1 PUSH2 0x2625 JUMP JUMPDEST SWAP1 CODESIZE PUSH2 0x270C JUMP JUMPDEST POP RETURNDATASIZE PUSH2 0x2799 JUMP JUMPDEST PUSH1 0x1 PUSH1 0x1 PUSH1 0xA0 SHL SUB SWAP2 DUP3 AND DUP2 MSTORE SWAP2 AND PUSH1 0x20 DUP3 ADD MSTORE PUSH1 0x40 DUP2 ADD SWAP2 SWAP1 SWAP2 MSTORE PUSH1 0x60 DUP2 ADD SWAP2 SWAP1 SWAP2 MSTORE PUSH1 0xA0 PUSH1 0x80 DUP3 ADD DUP2 SWAP1 MSTORE PUSH2 0x350 SWAP3 SWAP2 ADD SWAP1 PUSH2 0x31A JUMP JUMPDEST SWAP1 SWAP2 SWAP5 SWAP3 SWAP4 DUP6 EXTCODESIZE PUSH2 0x2805 JUMPI POP POP POP POP POP POP JUMP JUMPDEST PUSH1 0x20 SWAP4 PUSH2 0x2827 SWAP2 PUSH1 0x40 MLOAD SWAP7 DUP8 SWAP6 DUP7 SWAP6 PUSH4 0xF23A6E61 PUSH1 0xE0 SHL DUP8 MSTORE PUSH1 0x4 DUP8 ADD PUSH2 0x27B9 JUMP JUMPDEST SUB DUP2 PUSH1 0x0 PUSH1 0x1 PUSH1 0x1 PUSH1 0xA0 SHL SUB DUP8 AND GAS CALL PUSH1 0x0 SWAP2 DUP2 PUSH2 0x2871 JUMPI JUMPDEST POP PUSH2 0x284E JUMPI POP PUSH2 0x271A PUSH2 0x268D JUMP JUMPDEST PUSH1 0x1 PUSH1 0x1 PUSH1 0xE0 SHL SUB NOT AND PUSH4 0xDC5919F PUSH1 0xE0 SHL ADD PUSH2 0x276B JUMPI POP CODESIZE DUP1 DUP1 DUP1 DUP1 DUP1 PUSH2 0x26C9 JUMP JUMPDEST PUSH2 0x288B SWAP2 SWAP3 POP PUSH1 0x20 RETURNDATASIZE PUSH1 0x20 GT PUSH2 0x27B2 JUMPI PUSH2 0x27A3 DUP2 DUP4 PUSH2 0x6CA JUMP JUMPDEST SWAP1 CODESIZE PUSH2 0x2840 JUMP JUMPDEST PUSH1 0x0 DUP1 PUSH2 0x350 SWAP4 PUSH1 0x20 DUP2 MLOAD SWAP2 ADD DUP5 GAS DELEGATECALL PUSH2 0x28AA PUSH2 0x268D JUMP JUMPDEST SWAP2 SWAP1 PUSH2 0x28D1 JUMPI POP DUP1 MLOAD ISZERO PUSH2 0x28C0 JUMPI DUP1 MLOAD SWAP1 PUSH1 0x20 ADD REVERT JUMPDEST PUSH4 0xD6BDA275 PUSH1 0xE0 SHL PUSH1 0x0 MSTORE PUSH1 0x4 PUSH1 0x0 REVERT JUMPDEST DUP2 MLOAD ISZERO DUP1 PUSH2 0x2903 JUMPI JUMPDEST PUSH2 0x28E2 JUMPI POP SWAP1 JUMP JUMPDEST PUSH4 0x9996B315 PUSH1 0xE0 SHL PUSH1 0x0 SWAP1 DUP2 MSTORE PUSH1 0x1 PUSH1 0x1 PUSH1 0xA0 SHL SUB SWAP2 SWAP1 SWAP2 AND PUSH1 0x4 MSTORE PUSH1 0x24 SWAP1 REVERT JUMPDEST POP DUP1 EXTCODESIZE ISZERO PUSH2 0x28DA JUMP INVALID 0x2F DUP8 DUP9 GT PUSH31 0x7EFF1D82E926EC794901D17C78024A50270940304540A733656F0D360894A1 EXTCODESIZE LOG1 LOG3 0x21 MOD PUSH8 0xC828492DB98DCA3E KECCAK256 PUSH23 0xCC3735A920A3CA505D382BBC02DD7BC7DEC4DCEEDDA775 0xE5 DUP14 0xD5 COINBASE 0xE0 DUP11 GT PUSH13 0x6C53815C0BD028192F7B626800 CREATE 0xC5 PUSH31 0x16840DF040F15088DC2F81FE391C3923BEC73E23A9662EFC9C229C6A0088BE MSTORE8 PUSH14 0x5240C274A3B1D3A1BE54482FD9CA LOG2 SWAP5 CREATE DUP13 PUSH3 0xA7CDE5 PUSH10 0xF49A3C4502A264697066 PUSH20 0x582212208E75664AA1D99035665650B3BDC4F98D 0xE6 PUSH3 0xBBC8C4 PUSH24 0x7EAF7656F78E37A9DA6964736F6C634300081B0033000000 "},"methodIdentifiers":{"DEFAULT_ADMIN_ROLE()":"a217fddf","MINTER_ROLE()":"d5391393","UPGRADER_ROLE()":"f72c0d8b","UPGRADE_INTERFACE_VERSION()":"ad3cb1cc","balanceOf(address,uint256)":"00fdd58e","balanceOfBatch(address[],uint256[])":"4e1273f4","burn(address,uint256,uint256)":"f5298aca","getProductIds()":"47428e7b","getRoleAdmin(bytes32)":"248a9ca3","grantRole(bytes32,address)":"2f2ff15d","hasRole(bytes32,address)":"91d14854","initialize(string)":"f62d1888","isApprovedForAll(address,address)":"e985e9c5","mint(address,uint256,uint256)":"156e29f6","productSupply(uint256)":"ef8593e7","proxiableUUID()":"52d1902d","renounceRole(bytes32,address)":"36568abe","revokeRole(bytes32,address)":"d547741f","safeBatchTransferFrom(address,address,uint256[],uint256[],bytes)":"2eb2c2d6","safeTransferFrom(address,address,uint256,uint256,bytes)":"f242432a","setApprovalForAll(address,bool)":"a22cb465","setBaseURI(string)":"55f804b3","supportsInterface(bytes4)":"01ffc9a7","upgradeToAndCall(address,bytes)":"4f1ef286","uri(uint256)":"0e89341c"}},"storageLayout":{"storage":[{"astId":10942,"contract":"contracts/ProductTokenUpgradeable.sol:ProductTokenUpgradeable","label":"_productSupply","offset":0,"slot":"0","type":"t_mapping(t_uint256,t_uint256)"},{"astId":10945,"contract":"contracts/ProductTokenUpgradeable.sol:ProductTokenUpgradeable","label":"_productIds","offset":0,"slot":"1","type":"t_array(t_uint256)dyn_storage"},{"astId":10949,"contract":"contracts/ProductTokenUpgradeable.sol:ProductTokenUpgradeable","label":"_productIdExists","offset":0,"slot":"2","type":"t_mapping(t_uint256,t_bool)"},{"astId":10951,"contract":"contracts/ProductTokenUpgradeable.sol:ProductTokenUpgradeable","label":"_baseUri","offset":0,"slot":"3","type":"t_string_storage"}],"types":{"t_array(t_uint256)dyn_storage":{"base":"t_uint256","encoding":"dynamic_array","label":"uint256[]","numberOfBytes":"32"},"t_bool":{"encoding":"inplace","label":"bool","numberOfBytes":"1"},"t_mapping(t_uint256,t_bool)":{"encoding":"mapping","key":"t_uint256","label":"mapping(uint256 => bool)","numberOfBytes":"32","value":"t_bool"},"t_mapping(t_uint256,t_uint256)":{"encoding":"mapping","key":"t_uint256","label":"mapping(uint256 => uint256)","numberOfBytes":"32","value":"t_uint256"},"t_string_storage":{"encoding":"bytes","label":"string","numberOfBytes":"32"},"t_uint256":{"encoding":"inplace","label":"uint256","numberOfBytes":"32"}}}}}}