{"contracts/USDCFundraiserFactoryUpgradeable.sol":{"USDCFundraiserFactoryUpgradeable":{"abi":[{"inputs":[],"stateMutability":"nonpayable","type":"constructor"},{"inputs":[{"internalType":"address","name":"target","type":"address"}],"name":"AddressEmptyCode","type":"error"},{"inputs":[{"internalType":"address","name":"implementation","type":"address"}],"name":"ERC1967InvalidImplementation","type":"error"},{"inputs":[],"name":"ERC1967NonPayable","type":"error"},{"inputs":[],"name":"FailedCall","type":"error"},{"inputs":[],"name":"FailedDeployment","type":"error"},{"inputs":[{"internalType":"uint256","name":"balance","type":"uint256"},{"internalType":"uint256","name":"needed","type":"uint256"}],"name":"InsufficientBalance","type":"error"},{"inputs":[],"name":"InvalidInitialization","type":"error"},{"inputs":[],"name":"NotInitializing","type":"error"},{"inputs":[{"internalType":"address","name":"owner","type":"address"}],"name":"OwnableInvalidOwner","type":"error"},{"inputs":[{"internalType":"address","name":"account","type":"address"}],"name":"OwnableUnauthorizedAccount","type":"error"},{"inputs":[],"name":"UUPSUnauthorizedCallContext","type":"error"},{"inputs":[{"internalType":"bytes32","name":"slot","type":"bytes32"}],"name":"UUPSUnsupportedProxiableUUID","type":"error"},{"anonymous":false,"inputs":[{"indexed":true,"internalType":"address","name":"fundraiser","type":"address"},{"indexed":true,"internalType":"address","name":"creator","type":"address"}],"name":"FundraiserCreated","type":"event"},{"anonymous":false,"inputs":[{"indexed":true,"internalType":"address","name":"newImplementation","type":"address"}],"name":"ImplementationUpdated","type":"event"},{"anonymous":false,"inputs":[{"indexed":false,"internalType":"uint64","name":"version","type":"uint64"}],"name":"Initialized","type":"event"},{"anonymous":false,"inputs":[{"indexed":true,"internalType":"address","name":"previousOwner","type":"address"},{"indexed":true,"internalType":"address","name":"newOwner","type":"address"}],"name":"OwnershipTransferred","type":"event"},{"anonymous":false,"inputs":[{"indexed":true,"internalType":"address","name":"fundraiser","type":"address"},{"indexed":true,"internalType":"uint256","name":"originalProductId","type":"uint256"},{"indexed":true,"internalType":"uint256","name":"uniqueProductId","type":"uint256"}],"name":"ProductIdMapped","type":"event"},{"anonymous":false,"inputs":[{"indexed":true,"internalType":"address","name":"newProductToken","type":"address"}],"name":"ProductTokenUpdated","type":"event"},{"anonymous":false,"inputs":[{"indexed":true,"internalType":"address","name":"implementation","type":"address"}],"name":"Upgraded","type":"event"},{"inputs":[],"name":"BASIS_POINTS","outputs":[{"internalType":"uint256","name":"","type":"uint256"}],"stateMutability":"view","type":"function"},{"inputs":[],"name":"UPGRADE_INTERFACE_VERSION","outputs":[{"internalType":"string","name":"","type":"string"}],"stateMutability":"view","type":"function"},{"inputs":[{"internalType":"address","name":"givenProductTokenAddress","type":"address"},{"internalType":"address","name":"from","type":"address"},{"internalType":"uint256","name":"productId","type":"uint256"},{"internalType":"uint256","name":"amount","type":"uint256"}],"name":"burnForFundraiser","outputs":[],"stateMutability":"nonpayable","type":"function"},{"inputs":[{"internalType":"uint256","name":"newFeePercentage","type":"uint256"}],"name":"changeDefaultFeePercentage","outputs":[],"stateMutability":"nonpayable","type":"function"},{"inputs":[{"internalType":"address","name":"newFeeWallet","type":"address"}],"name":"changeFeeWallet","outputs":[],"stateMutability":"nonpayable","type":"function"},{"inputs":[{"internalType":"address","name":"beneficiaryWallet","type":"address"},{"internalType":"uint256","name":"fundingType","type":"uint256"},{"internalType":"uint256","name":"minimumTarget","type":"uint256"},{"internalType":"uint256","name":"deadline","type":"uint256"},{"components":[{"internalType":"uint256","name":"productId","type":"uint256"},{"internalType":"uint256","name":"price","type":"uint256"},{"internalType":"uint256","name":"supplyLimit","type":"uint256"}],"internalType":"struct ProductConfig[]","name":"products","type":"tuple[]"}],"name":"createFundraiser","outputs":[{"internalType":"address","name":"","type":"address"}],"stateMutability":"nonpayable","type":"function"},{"inputs":[],"name":"defaultFeePercentage","outputs":[{"internalType":"uint256","name":"","type":"uint256"}],"stateMutability":"view","type":"function"},{"inputs":[{"internalType":"uint256","name":"","type":"uint256"}],"name":"deployedFundraisers","outputs":[{"internalType":"address","name":"","type":"address"}],"stateMutability":"view","type":"function"},{"inputs":[],"name":"feeWallet","outputs":[{"internalType":"address","name":"","type":"address"}],"stateMutability":"view","type":"function"},{"inputs":[],"name":"fundraiserImplementation","outputs":[{"internalType":"address","name":"","type":"address"}],"stateMutability":"view","type":"function"},{"inputs":[{"internalType":"uint256","name":"index","type":"uint256"}],"name":"getDeployedFundraiser","outputs":[{"internalType":"address","name":"","type":"address"}],"stateMutability":"view","type":"function"},{"inputs":[],"name":"getDeployedFundraisersCount","outputs":[{"internalType":"uint256","name":"","type":"uint256"}],"stateMutability":"view","type":"function"},{"inputs":[],"name":"getFeeWallet","outputs":[{"internalType":"address","name":"","type":"address"}],"stateMutability":"view","type":"function"},{"inputs":[{"internalType":"address","name":"_usdcAddress","type":"address"},{"internalType":"address","name":"_productTokenAddress","type":"address"},{"internalType":"uint256","name":"_defaultFeePercentage","type":"uint256"},{"internalType":"address","name":"_feeWallet","type":"address"},{"internalType":"address","name":"_fundraiserImplementation","type":"address"},{"internalType":"address","name":"_initialOwner","type":"address"}],"name":"initialize","outputs":[],"stateMutability":"nonpayable","type":"function"},{"inputs":[{"internalType":"address","name":"","type":"address"}],"name":"isFundraiser","outputs":[{"internalType":"bool","name":"","type":"bool"}],"stateMutability":"view","type":"function"},{"inputs":[{"internalType":"address","name":"givenProductTokenAddress","type":"address"},{"internalType":"address","name":"to","type":"address"},{"internalType":"uint256","name":"productId","type":"uint256"},{"internalType":"uint256","name":"amount","type":"uint256"}],"name":"mintForFundraiser","outputs":[],"stateMutability":"nonpayable","type":"function"},{"inputs":[],"name":"owner","outputs":[{"internalType":"address","name":"","type":"address"}],"stateMutability":"view","type":"function"},{"inputs":[],"name":"productTokenAddress","outputs":[{"internalType":"address","name":"","type":"address"}],"stateMutability":"view","type":"function"},{"inputs":[],"name":"proxiableUUID","outputs":[{"internalType":"bytes32","name":"","type":"bytes32"}],"stateMutability":"view","type":"function"},{"inputs":[],"name":"renounceOwnership","outputs":[],"stateMutability":"nonpayable","type":"function"},{"inputs":[{"internalType":"address","name":"newOwner","type":"address"}],"name":"transferOwnership","outputs":[],"stateMutability":"nonpayable","type":"function"},{"inputs":[{"internalType":"address","name":"newImplementation","type":"address"}],"name":"updateFundraiserImplementation","outputs":[],"stateMutability":"nonpayable","type":"function"},{"inputs":[{"internalType":"address","name":"newProductToken","type":"address"}],"name":"updateProductTokenAddress","outputs":[],"stateMutability":"nonpayable","type":"function"},{"inputs":[{"internalType":"address","name":"newImplementation","type":"address"},{"internalType":"bytes","name":"data","type":"bytes"}],"name":"upgradeToAndCall","outputs":[],"stateMutability":"payable","type":"function"},{"inputs":[],"name":"usdcAddress","outputs":[{"internalType":"address","name":"","type":"address"}],"stateMutability":"view","type":"function"}],"evm":{"bytecode":{"linkReferences":{},"object":"60a080604052346100ea57306080527ff0c57e16840df040f15088dc2f81fe391c3923bec73e23a9662efc9c229c6a005460ff8160401c166100d9576002600160401b03196001600160401b03821601610073575b60405161155d90816100f0823960805181818161084401526109150152f35b6001600160401b0319166001600160401b039081177ff0c57e16840df040f15088dc2f81fe391c3923bec73e23a9662efc9c229c6a005581527fc7f505b2f371ae2175ee4913f4499e1f2633a7b5936321eed1cdaeb6115181d290602090a13880610054565b63f92ee8a960e01b60005260046000fd5b600080fdfe608080604052600436101561001357600080fd5b600090813560e01c90816302d45457146111a45750806306f5e01814610ce85780632022285914610cbd578063270a2a6514610c045780633119e4b414610bdb578063396f970114610bb257806339d2c66914610b325780633e4d031014610ae65780634f1ef2861461089957806352d1902d146108315780635459060d1461041857806363025e97146107c2578063715018a6146107585780637a84379c146106e95780637f7977d1146106aa5780638ca0ebc6146105c85780638da5cb5b14610592578063ad3cb1cc14610518578063b4824034146104fa578063be531076146104dc578063e1f1c4a7146104bf578063eb85469014610441578063f25f4b5614610418578063f2fde38b146103f05763ff9935cb1461013457600080fd5b346103ed5760c03660031901126103ed5761014d6111c8565b6024356001600160a01b038116908190036103eb576064356001600160a01b038116908190036103e7576084356001600160a01b03811692908390036103e35760a435936001600160a01b038516908186036103df57600080516020611508833981519152549560ff8760401c16159667ffffffffffffffff8116801590816103d7575b60011490816103cd575b1590816103c4575b506103b55767ffffffffffffffff19811660011760008051602061150883398151915255610228919088610388575b5061021b611438565b610223611438565b61138c565b610230611438565b6001600160a01b031690811561034c5761024b8315156112fb565b6102568415156112ba565b610261851515611347565b15610317576001600160601b0360a01b8654161785556001600160601b0360a01b60015416176001556044356002556001600160601b0360a01b60035416176003556001600160601b0360a01b60045416176004556102bd5780f35b68ff0000000000000000196000805160206115088339815191525416600080516020611508833981519152557fc7f505b2f371ae2175ee4913f4499e1f2633a7b5936321eed1cdaeb6115181d2602060405160018152a180f35b60405162461bcd60e51b815260206004820152600d60248201526c24b73b30b634b21037bbb732b960991b6044820152606490fd5b60405162461bcd60e51b8152602060048201526014602482015273496e76616c69642055534443206164647265737360601b6044820152606490fd5b68ffffffffffffffffff191668010000000000000001176000805160206115088339815191525538610212565b63f92ee8a960e01b8952600489fd5b905015386101e3565b303b1591506101db565b8991506101d1565b8680fd5b8480fd5b8380fd5b825b80fd5b50346103ed5760203660031901126103ed5761041561040d6111c8565b610223611402565b80f35b50346103ed57806003193601126103ed576003546040516001600160a01b039091168152602090f35b50346103ed5760203660031901126103ed576004356005548110156104845761046b60209161121b565b905460405160039290921b1c6001600160a01b03168152f35b60405162461bcd60e51b8152602060048201526013602482015272496e646578206f7574206f6620626f756e647360681b6044820152606490fd5b50346103ed57806003193601126103ed5760206040516127108152f35b50346103ed57806003193601126103ed576020600554604051908152f35b50346103ed57806003193601126103ed576020600254604051908152f35b50346103ed57806003193601126103ed57604080519161053882846111e3565b60058352640352e302e360dc1b6020840152815192839160208352815191826020850152815b83811061057b575050828201840152601f01601f19168101030190f35b60208282018101518883018801528795500161055e565b50346103ed57806003193601126103ed576000805160206114c8833981519152546040516001600160a01b039091168152602090f35b50346103ed576105d73661124c565b919091338552600660205260ff604086205416156106655784936001600160a01b0316803b156103e357604051630ab714fb60e11b81526001600160a01b039093166004840152602483019390935260448201529082908290818381606481015b03925af1801561065a576106495750f35b81610653916111e3565b6103ed5780f35b6040513d84823e3d90fd5b60405162461bcd60e51b815260206004820152601960248201527f4f6e6c792066756e64726169736572732063616e206d696e74000000000000006044820152606490fd5b50346103ed5760203660031901126103ed5760209060ff906040906001600160a01b036106d56111c8565b168152600684522054166040519015158152f35b50346103ed5760203660031901126103ed576107036111c8565b61070b611402565b6001600160a01b031661071f811515611347565b600480546001600160a01b031916821790557f310ba5f1d2ed074b51e2eccd052a47ae9ab7c6b800d1fca3db3999d6a592ca038280a280f35b50346103ed57806003193601126103ed57610771611402565b6000805160206114c883398151915280546001600160a01b0319811690915581906001600160a01b03167f8be0079c531659141344cd1fd0a4f28419497f9722a3daafe3b4186f6b6457e08280a380f35b50346103ed5760203660031901126103ed576107dc6111c8565b6107e4611402565b6001600160a01b03166107f88115156112fb565b600180546001600160a01b031916821790557f46cec2ff6f514e8ed0cc9f2a26c0135dd76e3943279345141bcba88a5af63f518280a280f35b50346103ed57806003193601126103ed577f00000000000000000000000000000000000000000000000000000000000000006001600160a01b0316300361088a5760206040516000805160206114e88339815191528152f35b63703e46dd60e11b8152600490fd5b5060403660031901126103ed576108ae6111c8565b6024359067ffffffffffffffff82116103eb57366023830112156103eb57816004013590836108dc8361128a565b936108ea60405195866111e3565b838552602085019336602482840101116103eb57806024602093018637850101526001600160a01b037f000000000000000000000000000000000000000000000000000000000000000016308114908115610ac3575b50610ab45761094d611402565b6040516352d1902d60e01b81526001600160a01b0382169390602081600481885afa869181610a80575b5061099057634c9c8ce360e01b86526004859052602486fd5b93846000805160206114e8833981519152879603610a6e5750823b15610a5c576000805160206114e883398151915280546001600160a01b031916821790558491907fbc7cd75a20ee27fd9adebab32041f755214dbc6bffa90cc0225b39da2e5c2d3b8380a2805115610a4157610a359382915190845af43d15610a39573d91610a198361128a565b92610a2760405194856111e3565b83523d85602085013e611466565b5080f35b606091611466565b5050505034610a4d5780f35b63b398979f60e01b8152600490fd5b634c9c8ce360e01b8552600452602484fd5b632a87526960e21b8652600452602485fd5b9091506020813d602011610aac575b81610a9c602093836111e3565b810103126103df57519038610977565b3d9150610a8f565b63703e46dd60e11b8452600484fd5b6000805160206114e8833981519152546001600160a01b03161415905038610940565b50346103ed5760203660031901126103ed57610b006111c8565b610b08611402565b6001600160a01b0316610b1c8115156112ba565b6001600160601b0360a01b600354161760035580f35b50346103ed5760203660031901126103ed57600435610b4f611402565b612710811015610b5f5760025580f35b60405162461bcd60e51b815260206004820152602560248201527f4665652070657263656e74616765206d757374206265206c657373207468616e604482015264203130302560d81b6064820152608490fd5b50346103ed57806003193601126103ed576001546040516001600160a01b039091168152602090f35b50346103ed57806003193601126103ed576004546040516001600160a01b039091168152602090f35b50346103ed57610c133661124c565b919091338552600660205260ff60408620541615610c785784936001600160a01b0316803b156103e357604051637a94c56560e11b81526001600160a01b03909316600484015260248301939093526044820152908290829081838160648101610638565b60405162461bcd60e51b815260206004820152601960248201527f4f6e6c792066756e64726169736572732063616e206275726e000000000000006044820152606490fd5b50346103ed5760203660031901126103ed57600435906005548210156103ed57602061046b8361121b565b50346103ed5760a03660031901126103ed57610d026111c8565b608435916064359167ffffffffffffffff84116111a057366023850112156111a05783600401359067ffffffffffffffff821161118c5760405194610d4d60208460051b01876111e3565b8286526020860190602460608395028201019036821161118857602401915b818310611125575050506001600160a01b03169081156110ea57428411156110b25784511561107f57600454608881901c62ffffff16763d602d80600a3d3981f3363d3d373d3d3d363d7300000017845260781b6effffffffffffffffffffffffffffff19166e5af43d82803e903d91602b57fd5bf3176020526001600160a01b036037600985f0169384156110705783546003546002546001546000805160206114c8833981519152546001600160a01b0390811695948116949181169391929116893b1561106c57969492909188969492604051988997635cb0407960e01b895261018489019560048a0152602489015260448801526064870152602435608487015260443560a487015260c486015260e48501523061010485015261018061012485015288518091526101a484019290855b81811061103657505033610144850152506101648301528190038183875af1801561065a57611026575b5090815b8351811015610f8857610ee281856112a6565b51519060405191638500efa160e01b83526004830152602082602481865afa8015610f7d578490610f49575b60019250610f1c82876112a6565b5151847f1bcb4157b04f9d491f72619552c6b6c11567e00613bbb243fffe8e7a7e5e83368780a401610ecf565b50906020813d8211610f75575b81610f63602093836111e3565b810103126103e7579060019151610f0e565b3d9150610f56565b6040513d86823e3d90fd5b5090600554916801000000000000000083101561101257610fb18360016020950160055561121b565b81546001600160a01b0360039290921b91821b19169083901b179055808252600683526040808320805460ff191660011790555191339082907fa2398daac0c8053a1e3c0280916c2ec6bc884f0959c27e639a4db829b7eabfb19080a38152f35b634e487b7160e01b82526041600452602482fd5b81611030916111e3565b38610ecb565b92945092819550606060209160406001945180518352848101518584015201516040820152019501910190869492869492610ea1565b8880fd5b63b06ebf3d60e01b8452600484fd5b60405162461bcd60e51b815260206004820152600b60248201526a4e6f2070726f647563747360a81b6044820152606490fd5b60405162461bcd60e51b815260206004820152601060248201526f496e76616c696420646561646c696e6560801b6044820152606490fd5b60405162461bcd60e51b8152602060048201526013602482015272496e76616c69642062656e656669636961727960681b6044820152606490fd5b606083360312611188576040516060810181811067ffffffffffffffff821117611174579160209160609360405285358152828601358382015260408601356040820152815201920191610d6c565b634e487b7160e01b88526041600452602488fd5b8580fd5b634e487b7160e01b83526041600452602483fd5b5080fd5b9050346111a057816003193601126111a05790546001600160a01b03168152602090f35b600435906001600160a01b03821682036111de57565b600080fd5b90601f8019910116810190811067ffffffffffffffff82111761120557604052565b634e487b7160e01b600052604160045260246000fd5b60055481101561123657600560005260206000200190600090565b634e487b7160e01b600052603260045260246000fd5b60809060031901126111de576004356001600160a01b03811681036111de57906024356001600160a01b03811681036111de57906044359060643590565b67ffffffffffffffff811161120557601f01601f191660200190565b80518210156112365760209160051b010190565b156112c157565b60405162461bcd60e51b8152602060048201526012602482015271125b9d985b1a5908199959481dd85b1b195d60721b6044820152606490fd5b1561130257565b60405162461bcd60e51b815260206004820152601d60248201527f496e76616c69642070726f6475637420746f6b656e20616464726573730000006044820152606490fd5b1561134e57565b60405162461bcd60e51b815260206004820152601660248201527524b73b30b634b21034b6b83632b6b2b73a30ba34b7b760511b6044820152606490fd5b6001600160a01b031680156113ec576000805160206114c883398151915280546001600160a01b0319811683179091556001600160a01b03167f8be0079c531659141344cd1fd0a4f28419497f9722a3daafe3b4186f6b6457e0600080a3565b631e4fbdf760e01b600052600060045260246000fd5b6000805160206114c8833981519152546001600160a01b0316330361142357565b63118cdaa760e01b6000523360045260246000fd5b60ff6000805160206115088339815191525460401c161561145557565b631afcd79f60e31b60005260046000fd5b9061148c575080511561147b57805190602001fd5b63d6bda27560e01b60005260046000fd5b815115806114be575b61149d575090565b639996b31560e01b60009081526001600160a01b0391909116600452602490fd5b50803b1561149556fe9016d09d72d40fdae2fd8ceac6b6234c7706214fd39c1cd1e609a0528c199300360894a13ba1a3210667c828492db98dca3e2076cc3735a920a3ca505d382bbcf0c57e16840df040f15088dc2f81fe391c3923bec73e23a9662efc9c229c6a00a2646970667358221220dda13671841d1a89b2f55beb09ea07e47106fcaa7ba680e776ac9ea60997ef8164736f6c634300081b0033","opcodes":"PUSH1 0xA0 DUP1 PUSH1 0x40 MSTORE CALLVALUE PUSH2 0xEA JUMPI ADDRESS PUSH1 0x80 MSTORE PUSH32 0xF0C57E16840DF040F15088DC2F81FE391C3923BEC73E23A9662EFC9C229C6A00 SLOAD PUSH1 0xFF DUP2 PUSH1 0x40 SHR AND PUSH2 0xD9 JUMPI PUSH1 0x2 PUSH1 0x1 PUSH1 0x40 SHL SUB NOT PUSH1 0x1 PUSH1 0x1 PUSH1 0x40 SHL SUB DUP3 AND ADD PUSH2 0x73 JUMPI JUMPDEST PUSH1 0x40 MLOAD PUSH2 0x155D SWAP1 DUP2 PUSH2 0xF0 DUP3 CODECOPY PUSH1 0x80 MLOAD DUP2 DUP2 DUP2 PUSH2 0x844 ADD MSTORE PUSH2 0x915 ADD MSTORE RETURN JUMPDEST PUSH1 0x1 PUSH1 0x1 PUSH1 0x40 SHL SUB NOT AND PUSH1 0x1 PUSH1 0x1 PUSH1 0x40 SHL SUB SWAP1 DUP2 OR PUSH32 0xF0C57E16840DF040F15088DC2F81FE391C3923BEC73E23A9662EFC9C229C6A00 SSTORE DUP2 MSTORE PUSH32 0xC7F505B2F371AE2175EE4913F4499E1F2633A7B5936321EED1CDAEB6115181D2 SWAP1 PUSH1 0x20 SWAP1 LOG1 CODESIZE DUP1 PUSH2 0x54 JUMP JUMPDEST PUSH4 0xF92EE8A9 PUSH1 0xE0 SHL PUSH1 0x0 MSTORE PUSH1 0x4 PUSH1 0x0 REVERT JUMPDEST PUSH1 0x0 DUP1 REVERT INVALID PUSH1 0x80 DUP1 PUSH1 0x40 MSTORE PUSH1 0x4 CALLDATASIZE LT ISZERO PUSH2 0x13 JUMPI PUSH1 0x0 DUP1 REVERT JUMPDEST PUSH1 0x0 SWAP1 DUP2 CALLDATALOAD PUSH1 0xE0 SHR SWAP1 DUP2 PUSH4 0x2D45457 EQ PUSH2 0x11A4 JUMPI POP DUP1 PUSH4 0x6F5E018 EQ PUSH2 0xCE8 JUMPI DUP1 PUSH4 0x20222859 EQ PUSH2 0xCBD JUMPI DUP1 PUSH4 0x270A2A65 EQ PUSH2 0xC04 JUMPI DUP1 PUSH4 0x3119E4B4 EQ PUSH2 0xBDB JUMPI DUP1 PUSH4 0x396F9701 EQ PUSH2 0xBB2 JUMPI DUP1 PUSH4 0x39D2C669 EQ PUSH2 0xB32 JUMPI DUP1 PUSH4 0x3E4D0310 EQ PUSH2 0xAE6 JUMPI DUP1 PUSH4 0x4F1EF286 EQ PUSH2 0x899 JUMPI DUP1 PUSH4 0x52D1902D EQ PUSH2 0x831 JUMPI DUP1 PUSH4 0x5459060D EQ PUSH2 0x418 JUMPI DUP1 PUSH4 0x63025E97 EQ PUSH2 0x7C2 JUMPI DUP1 PUSH4 0x715018A6 EQ PUSH2 0x758 JUMPI DUP1 PUSH4 0x7A84379C EQ PUSH2 0x6E9 JUMPI DUP1 PUSH4 0x7F7977D1 EQ PUSH2 0x6AA JUMPI DUP1 PUSH4 0x8CA0EBC6 EQ PUSH2 0x5C8 JUMPI DUP1 PUSH4 0x8DA5CB5B EQ PUSH2 0x592 JUMPI DUP1 PUSH4 0xAD3CB1CC EQ PUSH2 0x518 JUMPI DUP1 PUSH4 0xB4824034 EQ PUSH2 0x4FA JUMPI DUP1 PUSH4 0xBE531076 EQ PUSH2 0x4DC JUMPI DUP1 PUSH4 0xE1F1C4A7 EQ PUSH2 0x4BF JUMPI DUP1 PUSH4 0xEB854690 EQ PUSH2 0x441 JUMPI DUP1 PUSH4 0xF25F4B56 EQ PUSH2 0x418 JUMPI DUP1 PUSH4 0xF2FDE38B EQ PUSH2 0x3F0 JUMPI PUSH4 0xFF9935CB EQ PUSH2 0x134 JUMPI PUSH1 0x0 DUP1 REVERT JUMPDEST CALLVALUE PUSH2 0x3ED JUMPI PUSH1 0xC0 CALLDATASIZE PUSH1 0x3 NOT ADD SLT PUSH2 0x3ED JUMPI PUSH2 0x14D PUSH2 0x11C8 JUMP JUMPDEST PUSH1 0x24 CALLDATALOAD PUSH1 0x1 PUSH1 0x1 PUSH1 0xA0 SHL SUB DUP2 AND SWAP1 DUP2 SWAP1 SUB PUSH2 0x3EB JUMPI PUSH1 0x64 CALLDATALOAD PUSH1 0x1 PUSH1 0x1 PUSH1 0xA0 SHL SUB DUP2 AND SWAP1 DUP2 SWAP1 SUB PUSH2 0x3E7 JUMPI PUSH1 0x84 CALLDATALOAD PUSH1 0x1 PUSH1 0x1 PUSH1 0xA0 SHL SUB DUP2 AND SWAP3 SWAP1 DUP4 SWAP1 SUB PUSH2 0x3E3 JUMPI PUSH1 0xA4 CALLDATALOAD SWAP4 PUSH1 0x1 PUSH1 0x1 PUSH1 0xA0 SHL SUB DUP6 AND SWAP1 DUP2 DUP7 SUB PUSH2 0x3DF JUMPI PUSH1 0x0 DUP1 MLOAD PUSH1 0x20 PUSH2 0x1508 DUP4 CODECOPY DUP2 MLOAD SWAP2 MSTORE SLOAD SWAP6 PUSH1 0xFF DUP8 PUSH1 0x40 SHR AND ISZERO SWAP7 PUSH8 0xFFFFFFFFFFFFFFFF DUP2 AND DUP1 ISZERO SWAP1 DUP2 PUSH2 0x3D7 JUMPI JUMPDEST PUSH1 0x1 EQ SWAP1 DUP2 PUSH2 0x3CD JUMPI JUMPDEST ISZERO SWAP1 DUP2 PUSH2 0x3C4 JUMPI JUMPDEST POP PUSH2 0x3B5 JUMPI PUSH8 0xFFFFFFFFFFFFFFFF NOT DUP2 AND PUSH1 0x1 OR PUSH1 0x0 DUP1 MLOAD PUSH1 0x20 PUSH2 0x1508 DUP4 CODECOPY DUP2 MLOAD SWAP2 MSTORE SSTORE PUSH2 0x228 SWAP2 SWAP1 DUP9 PUSH2 0x388 JUMPI JUMPDEST POP PUSH2 0x21B PUSH2 0x1438 JUMP JUMPDEST PUSH2 0x223 PUSH2 0x1438 JUMP JUMPDEST PUSH2 0x138C JUMP JUMPDEST PUSH2 0x230 PUSH2 0x1438 JUMP JUMPDEST PUSH1 0x1 PUSH1 0x1 PUSH1 0xA0 SHL SUB AND SWAP1 DUP2 ISZERO PUSH2 0x34C JUMPI PUSH2 0x24B DUP4 ISZERO ISZERO PUSH2 0x12FB JUMP JUMPDEST PUSH2 0x256 DUP5 ISZERO ISZERO PUSH2 0x12BA JUMP JUMPDEST PUSH2 0x261 DUP6 ISZERO ISZERO PUSH2 0x1347 JUMP JUMPDEST ISZERO PUSH2 0x317 JUMPI PUSH1 0x1 PUSH1 0x1 PUSH1 0x60 SHL SUB PUSH1 0xA0 SHL DUP7 SLOAD AND OR DUP6 SSTORE PUSH1 0x1 PUSH1 0x1 PUSH1 0x60 SHL SUB PUSH1 0xA0 SHL PUSH1 0x1 SLOAD AND OR PUSH1 0x1 SSTORE PUSH1 0x44 CALLDATALOAD PUSH1 0x2 SSTORE PUSH1 0x1 PUSH1 0x1 PUSH1 0x60 SHL SUB PUSH1 0xA0 SHL PUSH1 0x3 SLOAD AND OR PUSH1 0x3 SSTORE PUSH1 0x1 PUSH1 0x1 PUSH1 0x60 SHL SUB PUSH1 0xA0 SHL PUSH1 0x4 SLOAD AND OR PUSH1 0x4 SSTORE PUSH2 0x2BD JUMPI DUP1 RETURN JUMPDEST PUSH9 0xFF0000000000000000 NOT PUSH1 0x0 DUP1 MLOAD PUSH1 0x20 PUSH2 0x1508 DUP4 CODECOPY DUP2 MLOAD SWAP2 MSTORE SLOAD AND PUSH1 0x0 DUP1 MLOAD PUSH1 0x20 PUSH2 0x1508 DUP4 CODECOPY DUP2 MLOAD SWAP2 MSTORE SSTORE PUSH32 0xC7F505B2F371AE2175EE4913F4499E1F2633A7B5936321EED1CDAEB6115181D2 PUSH1 0x20 PUSH1 0x40 MLOAD PUSH1 0x1 DUP2 MSTORE LOG1 DUP1 RETURN JUMPDEST PUSH1 0x40 MLOAD PUSH3 0x461BCD PUSH1 0xE5 SHL DUP2 MSTORE PUSH1 0x20 PUSH1 0x4 DUP3 ADD MSTORE PUSH1 0xD PUSH1 0x24 DUP3 ADD MSTORE PUSH13 0x24B73B30B634B21037BBB732B9 PUSH1 0x99 SHL PUSH1 0x44 DUP3 ADD MSTORE PUSH1 0x64 SWAP1 REVERT JUMPDEST PUSH1 0x40 MLOAD PUSH3 0x461BCD PUSH1 0xE5 SHL DUP2 MSTORE PUSH1 0x20 PUSH1 0x4 DUP3 ADD MSTORE PUSH1 0x14 PUSH1 0x24 DUP3 ADD MSTORE PUSH20 0x496E76616C696420555344432061646472657373 PUSH1 0x60 SHL PUSH1 0x44 DUP3 ADD MSTORE PUSH1 0x64 SWAP1 REVERT JUMPDEST PUSH9 0xFFFFFFFFFFFFFFFFFF NOT AND PUSH9 0x10000000000000001 OR PUSH1 0x0 DUP1 MLOAD PUSH1 0x20 PUSH2 0x1508 DUP4 CODECOPY DUP2 MLOAD SWAP2 MSTORE SSTORE CODESIZE PUSH2 0x212 JUMP JUMPDEST PUSH4 0xF92EE8A9 PUSH1 0xE0 SHL DUP10 MSTORE PUSH1 0x4 DUP10 REVERT JUMPDEST SWAP1 POP ISZERO CODESIZE PUSH2 0x1E3 JUMP JUMPDEST ADDRESS EXTCODESIZE ISZERO SWAP2 POP PUSH2 0x1DB JUMP JUMPDEST DUP10 SWAP2 POP PUSH2 0x1D1 JUMP JUMPDEST DUP7 DUP1 REVERT JUMPDEST DUP5 DUP1 REVERT JUMPDEST DUP4 DUP1 REVERT JUMPDEST DUP3 JUMPDEST DUP1 REVERT JUMPDEST POP CALLVALUE PUSH2 0x3ED JUMPI PUSH1 0x20 CALLDATASIZE PUSH1 0x3 NOT ADD SLT PUSH2 0x3ED JUMPI PUSH2 0x415 PUSH2 0x40D PUSH2 0x11C8 JUMP JUMPDEST PUSH2 0x223 PUSH2 0x1402 JUMP JUMPDEST DUP1 RETURN JUMPDEST POP CALLVALUE PUSH2 0x3ED JUMPI DUP1 PUSH1 0x3 NOT CALLDATASIZE ADD SLT PUSH2 0x3ED JUMPI PUSH1 0x3 SLOAD PUSH1 0x40 MLOAD PUSH1 0x1 PUSH1 0x1 PUSH1 0xA0 SHL SUB SWAP1 SWAP2 AND DUP2 MSTORE PUSH1 0x20 SWAP1 RETURN JUMPDEST POP CALLVALUE PUSH2 0x3ED JUMPI PUSH1 0x20 CALLDATASIZE PUSH1 0x3 NOT ADD SLT PUSH2 0x3ED JUMPI PUSH1 0x4 CALLDATALOAD PUSH1 0x5 SLOAD DUP2 LT ISZERO PUSH2 0x484 JUMPI PUSH2 0x46B PUSH1 0x20 SWAP2 PUSH2 0x121B JUMP JUMPDEST SWAP1 SLOAD PUSH1 0x40 MLOAD PUSH1 0x3 SWAP3 SWAP1 SWAP3 SHL SHR PUSH1 0x1 PUSH1 0x1 PUSH1 0xA0 SHL SUB AND DUP2 MSTORE RETURN JUMPDEST PUSH1 0x40 MLOAD PUSH3 0x461BCD PUSH1 0xE5 SHL DUP2 MSTORE PUSH1 0x20 PUSH1 0x4 DUP3 ADD MSTORE PUSH1 0x13 PUSH1 0x24 DUP3 ADD MSTORE PUSH19 0x496E646578206F7574206F6620626F756E6473 PUSH1 0x68 SHL PUSH1 0x44 DUP3 ADD MSTORE PUSH1 0x64 SWAP1 REVERT JUMPDEST POP CALLVALUE PUSH2 0x3ED JUMPI DUP1 PUSH1 0x3 NOT CALLDATASIZE ADD SLT PUSH2 0x3ED JUMPI PUSH1 0x20 PUSH1 0x40 MLOAD PUSH2 0x2710 DUP2 MSTORE RETURN JUMPDEST POP CALLVALUE PUSH2 0x3ED JUMPI DUP1 PUSH1 0x3 NOT CALLDATASIZE ADD SLT PUSH2 0x3ED JUMPI PUSH1 0x20 PUSH1 0x5 SLOAD PUSH1 0x40 MLOAD SWAP1 DUP2 MSTORE RETURN JUMPDEST POP CALLVALUE PUSH2 0x3ED JUMPI DUP1 PUSH1 0x3 NOT CALLDATASIZE ADD SLT PUSH2 0x3ED JUMPI PUSH1 0x20 PUSH1 0x2 SLOAD PUSH1 0x40 MLOAD SWAP1 DUP2 MSTORE RETURN JUMPDEST POP CALLVALUE PUSH2 0x3ED JUMPI DUP1 PUSH1 0x3 NOT CALLDATASIZE ADD SLT PUSH2 0x3ED JUMPI PUSH1 0x40 DUP1 MLOAD SWAP2 PUSH2 0x538 DUP3 DUP5 PUSH2 0x11E3 JUMP JUMPDEST PUSH1 0x5 DUP4 MSTORE PUSH5 0x352E302E3 PUSH1 0xDC SHL PUSH1 0x20 DUP5 ADD MSTORE DUP2 MLOAD SWAP3 DUP4 SWAP2 PUSH1 0x20 DUP4 MSTORE DUP2 MLOAD SWAP2 DUP3 PUSH1 0x20 DUP6 ADD MSTORE DUP2 JUMPDEST DUP4 DUP2 LT PUSH2 0x57B JUMPI POP POP DUP3 DUP3 ADD DUP5 ADD MSTORE PUSH1 0x1F ADD PUSH1 0x1F NOT AND DUP2 ADD SUB ADD SWAP1 RETURN JUMPDEST PUSH1 0x20 DUP3 DUP3 ADD DUP2 ADD MLOAD DUP9 DUP4 ADD DUP9 ADD MSTORE DUP8 SWAP6 POP ADD PUSH2 0x55E JUMP JUMPDEST POP CALLVALUE PUSH2 0x3ED JUMPI DUP1 PUSH1 0x3 NOT CALLDATASIZE ADD SLT PUSH2 0x3ED JUMPI PUSH1 0x0 DUP1 MLOAD PUSH1 0x20 PUSH2 0x14C8 DUP4 CODECOPY DUP2 MLOAD SWAP2 MSTORE SLOAD PUSH1 0x40 MLOAD PUSH1 0x1 PUSH1 0x1 PUSH1 0xA0 SHL SUB SWAP1 SWAP2 AND DUP2 MSTORE PUSH1 0x20 SWAP1 RETURN JUMPDEST POP CALLVALUE PUSH2 0x3ED JUMPI PUSH2 0x5D7 CALLDATASIZE PUSH2 0x124C JUMP JUMPDEST SWAP2 SWAP1 SWAP2 CALLER DUP6 MSTORE PUSH1 0x6 PUSH1 0x20 MSTORE PUSH1 0xFF PUSH1 0x40 DUP7 KECCAK256 SLOAD AND ISZERO PUSH2 0x665 JUMPI DUP5 SWAP4 PUSH1 0x1 PUSH1 0x1 PUSH1 0xA0 SHL SUB AND DUP1 EXTCODESIZE ISZERO PUSH2 0x3E3 JUMPI PUSH1 0x40 MLOAD PUSH4 0xAB714FB PUSH1 0xE1 SHL DUP2 MSTORE PUSH1 0x1 PUSH1 0x1 PUSH1 0xA0 SHL SUB SWAP1 SWAP4 AND PUSH1 0x4 DUP5 ADD MSTORE PUSH1 0x24 DUP4 ADD SWAP4 SWAP1 SWAP4 MSTORE PUSH1 0x44 DUP3 ADD MSTORE SWAP1 DUP3 SWAP1 DUP3 SWAP1 DUP2 DUP4 DUP2 PUSH1 0x64 DUP2 ADD JUMPDEST SUB SWAP3 GAS CALL DUP1 ISZERO PUSH2 0x65A JUMPI PUSH2 0x649 JUMPI POP RETURN JUMPDEST DUP2 PUSH2 0x653 SWAP2 PUSH2 0x11E3 JUMP JUMPDEST PUSH2 0x3ED JUMPI DUP1 RETURN JUMPDEST PUSH1 0x40 MLOAD RETURNDATASIZE DUP5 DUP3 RETURNDATACOPY RETURNDATASIZE SWAP1 REVERT JUMPDEST PUSH1 0x40 MLOAD PUSH3 0x461BCD PUSH1 0xE5 SHL DUP2 MSTORE PUSH1 0x20 PUSH1 0x4 DUP3 ADD MSTORE PUSH1 0x19 PUSH1 0x24 DUP3 ADD MSTORE PUSH32 0x4F6E6C792066756E64726169736572732063616E206D696E7400000000000000 PUSH1 0x44 DUP3 ADD MSTORE PUSH1 0x64 SWAP1 REVERT JUMPDEST POP CALLVALUE PUSH2 0x3ED JUMPI PUSH1 0x20 CALLDATASIZE PUSH1 0x3 NOT ADD SLT PUSH2 0x3ED JUMPI PUSH1 0x20 SWAP1 PUSH1 0xFF SWAP1 PUSH1 0x40 SWAP1 PUSH1 0x1 PUSH1 0x1 PUSH1 0xA0 SHL SUB PUSH2 0x6D5 PUSH2 0x11C8 JUMP JUMPDEST AND DUP2 MSTORE PUSH1 0x6 DUP5 MSTORE KECCAK256 SLOAD AND PUSH1 0x40 MLOAD SWAP1 ISZERO ISZERO DUP2 MSTORE RETURN JUMPDEST POP CALLVALUE PUSH2 0x3ED JUMPI PUSH1 0x20 CALLDATASIZE PUSH1 0x3 NOT ADD SLT PUSH2 0x3ED JUMPI PUSH2 0x703 PUSH2 0x11C8 JUMP JUMPDEST PUSH2 0x70B PUSH2 0x1402 JUMP JUMPDEST PUSH1 0x1 PUSH1 0x1 PUSH1 0xA0 SHL SUB AND PUSH2 0x71F DUP2 ISZERO ISZERO PUSH2 0x1347 JUMP JUMPDEST PUSH1 0x4 DUP1 SLOAD PUSH1 0x1 PUSH1 0x1 PUSH1 0xA0 SHL SUB NOT AND DUP3 OR SWAP1 SSTORE PUSH32 0x310BA5F1D2ED074B51E2ECCD052A47AE9AB7C6B800D1FCA3DB3999D6A592CA03 DUP3 DUP1 LOG2 DUP1 RETURN JUMPDEST POP CALLVALUE PUSH2 0x3ED JUMPI DUP1 PUSH1 0x3 NOT CALLDATASIZE ADD SLT PUSH2 0x3ED JUMPI PUSH2 0x771 PUSH2 0x1402 JUMP JUMPDEST PUSH1 0x0 DUP1 MLOAD PUSH1 0x20 PUSH2 0x14C8 DUP4 CODECOPY DUP2 MLOAD SWAP2 MSTORE DUP1 SLOAD PUSH1 0x1 PUSH1 0x1 PUSH1 0xA0 SHL SUB NOT DUP2 AND SWAP1 SWAP2 SSTORE DUP2 SWAP1 PUSH1 0x1 PUSH1 0x1 PUSH1 0xA0 SHL SUB AND PUSH32 0x8BE0079C531659141344CD1FD0A4F28419497F9722A3DAAFE3B4186F6B6457E0 DUP3 DUP1 LOG3 DUP1 RETURN JUMPDEST POP CALLVALUE PUSH2 0x3ED JUMPI PUSH1 0x20 CALLDATASIZE PUSH1 0x3 NOT ADD SLT PUSH2 0x3ED JUMPI PUSH2 0x7DC PUSH2 0x11C8 JUMP JUMPDEST PUSH2 0x7E4 PUSH2 0x1402 JUMP JUMPDEST PUSH1 0x1 PUSH1 0x1 PUSH1 0xA0 SHL SUB AND PUSH2 0x7F8 DUP2 ISZERO ISZERO PUSH2 0x12FB JUMP JUMPDEST PUSH1 0x1 DUP1 SLOAD PUSH1 0x1 PUSH1 0x1 PUSH1 0xA0 SHL SUB NOT AND DUP3 OR SWAP1 SSTORE PUSH32 0x46CEC2FF6F514E8ED0CC9F2A26C0135DD76E3943279345141BCBA88A5AF63F51 DUP3 DUP1 LOG2 DUP1 RETURN JUMPDEST POP CALLVALUE PUSH2 0x3ED JUMPI DUP1 PUSH1 0x3 NOT CALLDATASIZE ADD SLT PUSH2 0x3ED JUMPI PUSH32 0x0 PUSH1 0x1 PUSH1 0x1 PUSH1 0xA0 SHL SUB AND ADDRESS SUB PUSH2 0x88A JUMPI PUSH1 0x20 PUSH1 0x40 MLOAD PUSH1 0x0 DUP1 MLOAD PUSH1 0x20 PUSH2 0x14E8 DUP4 CODECOPY DUP2 MLOAD SWAP2 MSTORE DUP2 MSTORE RETURN JUMPDEST PUSH4 0x703E46DD PUSH1 0xE1 SHL DUP2 MSTORE PUSH1 0x4 SWAP1 REVERT JUMPDEST POP PUSH1 0x40 CALLDATASIZE PUSH1 0x3 NOT ADD SLT PUSH2 0x3ED JUMPI PUSH2 0x8AE PUSH2 0x11C8 JUMP JUMPDEST PUSH1 0x24 CALLDATALOAD SWAP1 PUSH8 0xFFFFFFFFFFFFFFFF DUP3 GT PUSH2 0x3EB JUMPI CALLDATASIZE PUSH1 0x23 DUP4 ADD SLT ISZERO PUSH2 0x3EB JUMPI DUP2 PUSH1 0x4 ADD CALLDATALOAD SWAP1 DUP4 PUSH2 0x8DC DUP4 PUSH2 0x128A JUMP JUMPDEST SWAP4 PUSH2 0x8EA PUSH1 0x40 MLOAD SWAP6 DUP7 PUSH2 0x11E3 JUMP JUMPDEST DUP4 DUP6 MSTORE PUSH1 0x20 DUP6 ADD SWAP4 CALLDATASIZE PUSH1 0x24 DUP3 DUP5 ADD ADD GT PUSH2 0x3EB JUMPI DUP1 PUSH1 0x24 PUSH1 0x20 SWAP4 ADD DUP7 CALLDATACOPY DUP6 ADD ADD MSTORE PUSH1 0x1 PUSH1 0x1 PUSH1 0xA0 SHL SUB PUSH32 0x0 AND ADDRESS DUP2 EQ SWAP1 DUP2 ISZERO PUSH2 0xAC3 JUMPI JUMPDEST POP PUSH2 0xAB4 JUMPI PUSH2 0x94D PUSH2 0x1402 JUMP JUMPDEST PUSH1 0x40 MLOAD PUSH4 0x52D1902D PUSH1 0xE0 SHL DUP2 MSTORE PUSH1 0x1 PUSH1 0x1 PUSH1 0xA0 SHL SUB DUP3 AND SWAP4 SWAP1 PUSH1 0x20 DUP2 PUSH1 0x4 DUP2 DUP9 GAS STATICCALL DUP7 SWAP2 DUP2 PUSH2 0xA80 JUMPI JUMPDEST POP PUSH2 0x990 JUMPI PUSH4 0x4C9C8CE3 PUSH1 0xE0 SHL DUP7 MSTORE PUSH1 0x4 DUP6 SWAP1 MSTORE PUSH1 0x24 DUP7 REVERT JUMPDEST SWAP4 DUP5 PUSH1 0x0 DUP1 MLOAD PUSH1 0x20 PUSH2 0x14E8 DUP4 CODECOPY DUP2 MLOAD SWAP2 MSTORE DUP8 SWAP7 SUB PUSH2 0xA6E JUMPI POP DUP3 EXTCODESIZE ISZERO PUSH2 0xA5C JUMPI PUSH1 0x0 DUP1 MLOAD PUSH1 0x20 PUSH2 0x14E8 DUP4 CODECOPY DUP2 MLOAD SWAP2 MSTORE DUP1 SLOAD PUSH1 0x1 PUSH1 0x1 PUSH1 0xA0 SHL SUB NOT AND DUP3 OR SWAP1 SSTORE DUP5 SWAP2 SWAP1 PUSH32 0xBC7CD75A20EE27FD9ADEBAB32041F755214DBC6BFFA90CC0225B39DA2E5C2D3B DUP4 DUP1 LOG2 DUP1 MLOAD ISZERO PUSH2 0xA41 JUMPI PUSH2 0xA35 SWAP4 DUP3 SWAP2 MLOAD SWAP1 DUP5 GAS DELEGATECALL RETURNDATASIZE ISZERO PUSH2 0xA39 JUMPI RETURNDATASIZE SWAP2 PUSH2 0xA19 DUP4 PUSH2 0x128A JUMP JUMPDEST SWAP3 PUSH2 0xA27 PUSH1 0x40 MLOAD SWAP5 DUP6 PUSH2 0x11E3 JUMP JUMPDEST DUP4 MSTORE RETURNDATASIZE DUP6 PUSH1 0x20 DUP6 ADD RETURNDATACOPY PUSH2 0x1466 JUMP JUMPDEST POP DUP1 RETURN JUMPDEST PUSH1 0x60 SWAP2 PUSH2 0x1466 JUMP JUMPDEST POP POP POP POP CALLVALUE PUSH2 0xA4D JUMPI DUP1 RETURN JUMPDEST PUSH4 0xB398979F PUSH1 0xE0 SHL DUP2 MSTORE PUSH1 0x4 SWAP1 REVERT JUMPDEST PUSH4 0x4C9C8CE3 PUSH1 0xE0 SHL DUP6 MSTORE PUSH1 0x4 MSTORE PUSH1 0x24 DUP5 REVERT JUMPDEST PUSH4 0x2A875269 PUSH1 0xE2 SHL DUP7 MSTORE PUSH1 0x4 MSTORE PUSH1 0x24 DUP6 REVERT JUMPDEST SWAP1 SWAP2 POP PUSH1 0x20 DUP2 RETURNDATASIZE PUSH1 0x20 GT PUSH2 0xAAC JUMPI JUMPDEST DUP2 PUSH2 0xA9C PUSH1 0x20 SWAP4 DUP4 PUSH2 0x11E3 JUMP JUMPDEST DUP2 ADD SUB SLT PUSH2 0x3DF JUMPI MLOAD SWAP1 CODESIZE PUSH2 0x977 JUMP JUMPDEST RETURNDATASIZE SWAP2 POP PUSH2 0xA8F JUMP JUMPDEST PUSH4 0x703E46DD PUSH1 0xE1 SHL DUP5 MSTORE PUSH1 0x4 DUP5 REVERT JUMPDEST PUSH1 0x0 DUP1 MLOAD PUSH1 0x20 PUSH2 0x14E8 DUP4 CODECOPY DUP2 MLOAD SWAP2 MSTORE SLOAD PUSH1 0x1 PUSH1 0x1 PUSH1 0xA0 SHL SUB AND EQ ISZERO SWAP1 POP CODESIZE PUSH2 0x940 JUMP JUMPDEST POP CALLVALUE PUSH2 0x3ED JUMPI PUSH1 0x20 CALLDATASIZE PUSH1 0x3 NOT ADD SLT PUSH2 0x3ED JUMPI PUSH2 0xB00 PUSH2 0x11C8 JUMP JUMPDEST PUSH2 0xB08 PUSH2 0x1402 JUMP JUMPDEST PUSH1 0x1 PUSH1 0x1 PUSH1 0xA0 SHL SUB AND PUSH2 0xB1C DUP2 ISZERO ISZERO PUSH2 0x12BA JUMP JUMPDEST PUSH1 0x1 PUSH1 0x1 PUSH1 0x60 SHL SUB PUSH1 0xA0 SHL PUSH1 0x3 SLOAD AND OR PUSH1 0x3 SSTORE DUP1 RETURN JUMPDEST POP CALLVALUE PUSH2 0x3ED JUMPI PUSH1 0x20 CALLDATASIZE PUSH1 0x3 NOT ADD SLT PUSH2 0x3ED JUMPI PUSH1 0x4 CALLDATALOAD PUSH2 0xB4F PUSH2 0x1402 JUMP JUMPDEST PUSH2 0x2710 DUP2 LT ISZERO PUSH2 0xB5F JUMPI PUSH1 0x2 SSTORE DUP1 RETURN JUMPDEST PUSH1 0x40 MLOAD PUSH3 0x461BCD PUSH1 0xE5 SHL DUP2 MSTORE PUSH1 0x20 PUSH1 0x4 DUP3 ADD MSTORE PUSH1 0x25 PUSH1 0x24 DUP3 ADD MSTORE PUSH32 0x4665652070657263656E74616765206D757374206265206C657373207468616E PUSH1 0x44 DUP3 ADD MSTORE PUSH5 0x2031303025 PUSH1 0xD8 SHL PUSH1 0x64 DUP3 ADD MSTORE PUSH1 0x84 SWAP1 REVERT JUMPDEST POP CALLVALUE PUSH2 0x3ED JUMPI DUP1 PUSH1 0x3 NOT CALLDATASIZE ADD SLT PUSH2 0x3ED JUMPI PUSH1 0x1 SLOAD PUSH1 0x40 MLOAD PUSH1 0x1 PUSH1 0x1 PUSH1 0xA0 SHL SUB SWAP1 SWAP2 AND DUP2 MSTORE PUSH1 0x20 SWAP1 RETURN JUMPDEST POP CALLVALUE PUSH2 0x3ED JUMPI DUP1 PUSH1 0x3 NOT CALLDATASIZE ADD SLT PUSH2 0x3ED JUMPI PUSH1 0x4 SLOAD PUSH1 0x40 MLOAD PUSH1 0x1 PUSH1 0x1 PUSH1 0xA0 SHL SUB SWAP1 SWAP2 AND DUP2 MSTORE PUSH1 0x20 SWAP1 RETURN JUMPDEST POP CALLVALUE PUSH2 0x3ED JUMPI PUSH2 0xC13 CALLDATASIZE PUSH2 0x124C JUMP JUMPDEST SWAP2 SWAP1 SWAP2 CALLER DUP6 MSTORE PUSH1 0x6 PUSH1 0x20 MSTORE PUSH1 0xFF PUSH1 0x40 DUP7 KECCAK256 SLOAD AND ISZERO PUSH2 0xC78 JUMPI DUP5 SWAP4 PUSH1 0x1 PUSH1 0x1 PUSH1 0xA0 SHL SUB AND DUP1 EXTCODESIZE ISZERO PUSH2 0x3E3 JUMPI PUSH1 0x40 MLOAD PUSH4 0x7A94C565 PUSH1 0xE1 SHL DUP2 MSTORE PUSH1 0x1 PUSH1 0x1 PUSH1 0xA0 SHL SUB SWAP1 SWAP4 AND PUSH1 0x4 DUP5 ADD MSTORE PUSH1 0x24 DUP4 ADD SWAP4 SWAP1 SWAP4 MSTORE PUSH1 0x44 DUP3 ADD MSTORE SWAP1 DUP3 SWAP1 DUP3 SWAP1 DUP2 DUP4 DUP2 PUSH1 0x64 DUP2 ADD PUSH2 0x638 JUMP JUMPDEST PUSH1 0x40 MLOAD PUSH3 0x461BCD PUSH1 0xE5 SHL DUP2 MSTORE PUSH1 0x20 PUSH1 0x4 DUP3 ADD MSTORE PUSH1 0x19 PUSH1 0x24 DUP3 ADD MSTORE PUSH32 0x4F6E6C792066756E64726169736572732063616E206275726E00000000000000 PUSH1 0x44 DUP3 ADD MSTORE PUSH1 0x64 SWAP1 REVERT JUMPDEST POP CALLVALUE PUSH2 0x3ED JUMPI PUSH1 0x20 CALLDATASIZE PUSH1 0x3 NOT ADD SLT PUSH2 0x3ED JUMPI PUSH1 0x4 CALLDATALOAD SWAP1 PUSH1 0x5 SLOAD DUP3 LT ISZERO PUSH2 0x3ED JUMPI PUSH1 0x20 PUSH2 0x46B DUP4 PUSH2 0x121B JUMP JUMPDEST POP CALLVALUE PUSH2 0x3ED JUMPI PUSH1 0xA0 CALLDATASIZE PUSH1 0x3 NOT ADD SLT PUSH2 0x3ED JUMPI PUSH2 0xD02 PUSH2 0x11C8 JUMP JUMPDEST PUSH1 0x84 CALLDATALOAD SWAP2 PUSH1 0x64 CALLDATALOAD SWAP2 PUSH8 0xFFFFFFFFFFFFFFFF DUP5 GT PUSH2 0x11A0 JUMPI CALLDATASIZE PUSH1 0x23 DUP6 ADD SLT ISZERO PUSH2 0x11A0 JUMPI DUP4 PUSH1 0x4 ADD CALLDATALOAD SWAP1 PUSH8 0xFFFFFFFFFFFFFFFF DUP3 GT PUSH2 0x118C JUMPI PUSH1 0x40 MLOAD SWAP5 PUSH2 0xD4D PUSH1 0x20 DUP5 PUSH1 0x5 SHL ADD DUP8 PUSH2 0x11E3 JUMP JUMPDEST DUP3 DUP7 MSTORE PUSH1 0x20 DUP7 ADD SWAP1 PUSH1 0x24 PUSH1 0x60 DUP4 SWAP6 MUL DUP3 ADD ADD SWAP1 CALLDATASIZE DUP3 GT PUSH2 0x1188 JUMPI PUSH1 0x24 ADD SWAP2 JUMPDEST DUP2 DUP4 LT PUSH2 0x1125 JUMPI POP POP POP PUSH1 0x1 PUSH1 0x1 PUSH1 0xA0 SHL SUB AND SWAP1 DUP2 ISZERO PUSH2 0x10EA JUMPI TIMESTAMP DUP5 GT ISZERO PUSH2 0x10B2 JUMPI DUP5 MLOAD ISZERO PUSH2 0x107F JUMPI PUSH1 0x4 SLOAD PUSH1 0x88 DUP2 SWAP1 SHR PUSH3 0xFFFFFF AND PUSH23 0x3D602D80600A3D3981F3363D3D373D3D3D363D73000000 OR DUP5 MSTORE PUSH1 0x78 SHL PUSH15 0xFFFFFFFFFFFFFFFFFFFFFFFFFFFFFF NOT AND PUSH15 0x5AF43D82803E903D91602B57FD5BF3 OR PUSH1 0x20 MSTORE PUSH1 0x1 PUSH1 0x1 PUSH1 0xA0 SHL SUB PUSH1 0x37 PUSH1 0x9 DUP6 CREATE AND SWAP4 DUP5 ISZERO PUSH2 0x1070 JUMPI DUP4 SLOAD PUSH1 0x3 SLOAD PUSH1 0x2 SLOAD PUSH1 0x1 SLOAD PUSH1 0x0 DUP1 MLOAD PUSH1 0x20 PUSH2 0x14C8 DUP4 CODECOPY DUP2 MLOAD SWAP2 MSTORE SLOAD PUSH1 0x1 PUSH1 0x1 PUSH1 0xA0 SHL SUB SWAP1 DUP2 AND SWAP6 SWAP5 DUP2 AND SWAP5 SWAP2 DUP2 AND SWAP4 SWAP2 SWAP3 SWAP2 AND DUP10 EXTCODESIZE ISZERO PUSH2 0x106C JUMPI SWAP7 SWAP5 SWAP3 SWAP1 SWAP2 DUP9 SWAP7 SWAP5 SWAP3 PUSH1 0x40 MLOAD SWAP9 DUP10 SWAP8 PUSH4 0x5CB04079 PUSH1 0xE0 SHL DUP10 MSTORE PUSH2 0x184 DUP10 ADD SWAP6 PUSH1 0x4 DUP11 ADD MSTORE PUSH1 0x24 DUP10 ADD MSTORE PUSH1 0x44 DUP9 ADD MSTORE PUSH1 0x64 DUP8 ADD MSTORE PUSH1 0x24 CALLDATALOAD PUSH1 0x84 DUP8 ADD MSTORE PUSH1 0x44 CALLDATALOAD PUSH1 0xA4 DUP8 ADD MSTORE PUSH1 0xC4 DUP7 ADD MSTORE PUSH1 0xE4 DUP6 ADD MSTORE ADDRESS PUSH2 0x104 DUP6 ADD MSTORE PUSH2 0x180 PUSH2 0x124 DUP6 ADD MSTORE DUP9 MLOAD DUP1 SWAP2 MSTORE PUSH2 0x1A4 DUP5 ADD SWAP3 SWAP1 DUP6 JUMPDEST DUP2 DUP2 LT PUSH2 0x1036 JUMPI POP POP CALLER PUSH2 0x144 DUP6 ADD MSTORE POP PUSH2 0x164 DUP4 ADD MSTORE DUP2 SWAP1 SUB DUP2 DUP4 DUP8 GAS CALL DUP1 ISZERO PUSH2 0x65A JUMPI PUSH2 0x1026 JUMPI JUMPDEST POP SWAP1 DUP2 JUMPDEST DUP4 MLOAD DUP2 LT ISZERO PUSH2 0xF88 JUMPI PUSH2 0xEE2 DUP2 DUP6 PUSH2 0x12A6 JUMP JUMPDEST MLOAD MLOAD SWAP1 PUSH1 0x40 MLOAD SWAP2 PUSH4 0x8500EFA1 PUSH1 0xE0 SHL DUP4 MSTORE PUSH1 0x4 DUP4 ADD MSTORE PUSH1 0x20 DUP3 PUSH1 0x24 DUP2 DUP7 GAS STATICCALL DUP1 ISZERO PUSH2 0xF7D JUMPI DUP5 SWAP1 PUSH2 0xF49 JUMPI JUMPDEST PUSH1 0x1 SWAP3 POP PUSH2 0xF1C DUP3 DUP8 PUSH2 0x12A6 JUMP JUMPDEST MLOAD MLOAD DUP5 PUSH32 0x1BCB4157B04F9D491F72619552C6B6C11567E00613BBB243FFFE8E7A7E5E8336 DUP8 DUP1 LOG4 ADD PUSH2 0xECF JUMP JUMPDEST POP SWAP1 PUSH1 0x20 DUP2 RETURNDATASIZE DUP3 GT PUSH2 0xF75 JUMPI JUMPDEST DUP2 PUSH2 0xF63 PUSH1 0x20 SWAP4 DUP4 PUSH2 0x11E3 JUMP JUMPDEST DUP2 ADD SUB SLT PUSH2 0x3E7 JUMPI SWAP1 PUSH1 0x1 SWAP2 MLOAD PUSH2 0xF0E JUMP JUMPDEST RETURNDATASIZE SWAP2 POP PUSH2 0xF56 JUMP JUMPDEST PUSH1 0x40 MLOAD RETURNDATASIZE DUP7 DUP3 RETURNDATACOPY RETURNDATASIZE SWAP1 REVERT JUMPDEST POP SWAP1 PUSH1 0x5 SLOAD SWAP2 PUSH9 0x10000000000000000 DUP4 LT ISZERO PUSH2 0x1012 JUMPI PUSH2 0xFB1 DUP4 PUSH1 0x1 PUSH1 0x20 SWAP6 ADD PUSH1 0x5 SSTORE PUSH2 0x121B JUMP JUMPDEST DUP2 SLOAD PUSH1 0x1 PUSH1 0x1 PUSH1 0xA0 SHL SUB PUSH1 0x3 SWAP3 SWAP1 SWAP3 SHL SWAP2 DUP3 SHL NOT AND SWAP1 DUP4 SWAP1 SHL OR SWAP1 SSTORE DUP1 DUP3 MSTORE PUSH1 0x6 DUP4 MSTORE PUSH1 0x40 DUP1 DUP4 KECCAK256 DUP1 SLOAD PUSH1 0xFF NOT AND PUSH1 0x1 OR SWAP1 SSTORE MLOAD SWAP2 CALLER SWAP1 DUP3 SWAP1 PUSH32 0xA2398DAAC0C8053A1E3C0280916C2EC6BC884F0959C27E639A4DB829B7EABFB1 SWAP1 DUP1 LOG3 DUP2 MSTORE RETURN JUMPDEST PUSH4 0x4E487B71 PUSH1 0xE0 SHL DUP3 MSTORE PUSH1 0x41 PUSH1 0x4 MSTORE PUSH1 0x24 DUP3 REVERT JUMPDEST DUP2 PUSH2 0x1030 SWAP2 PUSH2 0x11E3 JUMP JUMPDEST CODESIZE PUSH2 0xECB JUMP JUMPDEST SWAP3 SWAP5 POP SWAP3 DUP2 SWAP6 POP PUSH1 0x60 PUSH1 0x20 SWAP2 PUSH1 0x40 PUSH1 0x1 SWAP5 MLOAD DUP1 MLOAD DUP4 MSTORE DUP5 DUP2 ADD MLOAD DUP6 DUP5 ADD MSTORE ADD MLOAD PUSH1 0x40 DUP3 ADD MSTORE ADD SWAP6 ADD SWAP2 ADD SWAP1 DUP7 SWAP5 SWAP3 DUP7 SWAP5 SWAP3 PUSH2 0xEA1 JUMP JUMPDEST DUP9 DUP1 REVERT JUMPDEST PUSH4 0xB06EBF3D PUSH1 0xE0 SHL DUP5 MSTORE PUSH1 0x4 DUP5 REVERT JUMPDEST PUSH1 0x40 MLOAD PUSH3 0x461BCD PUSH1 0xE5 SHL DUP2 MSTORE PUSH1 0x20 PUSH1 0x4 DUP3 ADD MSTORE PUSH1 0xB PUSH1 0x24 DUP3 ADD MSTORE PUSH11 0x4E6F2070726F6475637473 PUSH1 0xA8 SHL PUSH1 0x44 DUP3 ADD MSTORE PUSH1 0x64 SWAP1 REVERT JUMPDEST PUSH1 0x40 MLOAD PUSH3 0x461BCD PUSH1 0xE5 SHL DUP2 MSTORE PUSH1 0x20 PUSH1 0x4 DUP3 ADD MSTORE PUSH1 0x10 PUSH1 0x24 DUP3 ADD MSTORE PUSH16 0x496E76616C696420646561646C696E65 PUSH1 0x80 SHL PUSH1 0x44 DUP3 ADD MSTORE PUSH1 0x64 SWAP1 REVERT JUMPDEST PUSH1 0x40 MLOAD PUSH3 0x461BCD PUSH1 0xE5 SHL DUP2 MSTORE PUSH1 0x20 PUSH1 0x4 DUP3 ADD MSTORE PUSH1 0x13 PUSH1 0x24 DUP3 ADD MSTORE PUSH19 0x496E76616C69642062656E6566696369617279 PUSH1 0x68 SHL PUSH1 0x44 DUP3 ADD MSTORE PUSH1 0x64 SWAP1 REVERT JUMPDEST PUSH1 0x60 DUP4 CALLDATASIZE SUB SLT PUSH2 0x1188 JUMPI PUSH1 0x40 MLOAD PUSH1 0x60 DUP2 ADD DUP2 DUP2 LT PUSH8 0xFFFFFFFFFFFFFFFF DUP3 GT OR PUSH2 0x1174 JUMPI SWAP2 PUSH1 0x20 SWAP2 PUSH1 0x60 SWAP4 PUSH1 0x40 MSTORE DUP6 CALLDATALOAD DUP2 MSTORE DUP3 DUP7 ADD CALLDATALOAD DUP4 DUP3 ADD MSTORE PUSH1 0x40 DUP7 ADD CALLDATALOAD PUSH1 0x40 DUP3 ADD MSTORE DUP2 MSTORE ADD SWAP3 ADD SWAP2 PUSH2 0xD6C JUMP JUMPDEST PUSH4 0x4E487B71 PUSH1 0xE0 SHL DUP9 MSTORE PUSH1 0x41 PUSH1 0x4 MSTORE PUSH1 0x24 DUP9 REVERT JUMPDEST DUP6 DUP1 REVERT JUMPDEST PUSH4 0x4E487B71 PUSH1 0xE0 SHL DUP4 MSTORE PUSH1 0x41 PUSH1 0x4 MSTORE PUSH1 0x24 DUP4 REVERT JUMPDEST POP DUP1 REVERT JUMPDEST SWAP1 POP CALLVALUE PUSH2 0x11A0 JUMPI DUP2 PUSH1 0x3 NOT CALLDATASIZE ADD SLT PUSH2 0x11A0 JUMPI SWAP1 SLOAD PUSH1 0x1 PUSH1 0x1 PUSH1 0xA0 SHL SUB AND DUP2 MSTORE PUSH1 0x20 SWAP1 RETURN JUMPDEST PUSH1 0x4 CALLDATALOAD SWAP1 PUSH1 0x1 PUSH1 0x1 PUSH1 0xA0 SHL SUB DUP3 AND DUP3 SUB PUSH2 0x11DE JUMPI JUMP JUMPDEST PUSH1 0x0 DUP1 REVERT JUMPDEST SWAP1 PUSH1 0x1F DUP1 NOT SWAP2 ADD AND DUP2 ADD SWAP1 DUP2 LT PUSH8 0xFFFFFFFFFFFFFFFF DUP3 GT OR PUSH2 0x1205 JUMPI PUSH1 0x40 MSTORE JUMP JUMPDEST PUSH4 0x4E487B71 PUSH1 0xE0 SHL PUSH1 0x0 MSTORE PUSH1 0x41 PUSH1 0x4 MSTORE PUSH1 0x24 PUSH1 0x0 REVERT JUMPDEST PUSH1 0x5 SLOAD DUP2 LT ISZERO PUSH2 0x1236 JUMPI PUSH1 0x5 PUSH1 0x0 MSTORE PUSH1 0x20 PUSH1 0x0 KECCAK256 ADD SWAP1 PUSH1 0x0 SWAP1 JUMP JUMPDEST PUSH4 0x4E487B71 PUSH1 0xE0 SHL PUSH1 0x0 MSTORE PUSH1 0x32 PUSH1 0x4 MSTORE PUSH1 0x24 PUSH1 0x0 REVERT JUMPDEST PUSH1 0x80 SWAP1 PUSH1 0x3 NOT ADD SLT PUSH2 0x11DE JUMPI PUSH1 0x4 CALLDATALOAD PUSH1 0x1 PUSH1 0x1 PUSH1 0xA0 SHL SUB DUP2 AND DUP2 SUB PUSH2 0x11DE JUMPI SWAP1 PUSH1 0x24 CALLDATALOAD PUSH1 0x1 PUSH1 0x1 PUSH1 0xA0 SHL SUB DUP2 AND DUP2 SUB PUSH2 0x11DE JUMPI SWAP1 PUSH1 0x44 CALLDATALOAD SWAP1 PUSH1 0x64 CALLDATALOAD SWAP1 JUMP JUMPDEST PUSH8 0xFFFFFFFFFFFFFFFF DUP2 GT PUSH2 0x1205 JUMPI PUSH1 0x1F ADD PUSH1 0x1F NOT AND PUSH1 0x20 ADD SWAP1 JUMP JUMPDEST DUP1 MLOAD DUP3 LT ISZERO PUSH2 0x1236 JUMPI PUSH1 0x20 SWAP2 PUSH1 0x5 SHL ADD ADD SWAP1 JUMP JUMPDEST ISZERO PUSH2 0x12C1 JUMPI JUMP JUMPDEST PUSH1 0x40 MLOAD PUSH3 0x461BCD PUSH1 0xE5 SHL DUP2 MSTORE PUSH1 0x20 PUSH1 0x4 DUP3 ADD MSTORE PUSH1 0x12 PUSH1 0x24 DUP3 ADD MSTORE PUSH18 0x125B9D985B1A5908199959481DD85B1B195D PUSH1 0x72 SHL PUSH1 0x44 DUP3 ADD MSTORE PUSH1 0x64 SWAP1 REVERT JUMPDEST ISZERO PUSH2 0x1302 JUMPI JUMP JUMPDEST PUSH1 0x40 MLOAD PUSH3 0x461BCD PUSH1 0xE5 SHL DUP2 MSTORE PUSH1 0x20 PUSH1 0x4 DUP3 ADD MSTORE PUSH1 0x1D PUSH1 0x24 DUP3 ADD MSTORE PUSH32 0x496E76616C69642070726F6475637420746F6B656E2061646472657373000000 PUSH1 0x44 DUP3 ADD MSTORE PUSH1 0x64 SWAP1 REVERT JUMPDEST ISZERO PUSH2 0x134E JUMPI JUMP JUMPDEST PUSH1 0x40 MLOAD PUSH3 0x461BCD PUSH1 0xE5 SHL DUP2 MSTORE PUSH1 0x20 PUSH1 0x4 DUP3 ADD MSTORE PUSH1 0x16 PUSH1 0x24 DUP3 ADD MSTORE PUSH22 0x24B73B30B634B21034B6B83632B6B2B73A30BA34B7B7 PUSH1 0x51 SHL PUSH1 0x44 DUP3 ADD MSTORE PUSH1 0x64 SWAP1 REVERT JUMPDEST PUSH1 0x1 PUSH1 0x1 PUSH1 0xA0 SHL SUB AND DUP1 ISZERO PUSH2 0x13EC JUMPI PUSH1 0x0 DUP1 MLOAD PUSH1 0x20 PUSH2 0x14C8 DUP4 CODECOPY DUP2 MLOAD SWAP2 MSTORE DUP1 SLOAD PUSH1 0x1 PUSH1 0x1 PUSH1 0xA0 SHL SUB NOT DUP2 AND DUP4 OR SWAP1 SWAP2 SSTORE PUSH1 0x1 PUSH1 0x1 PUSH1 0xA0 SHL SUB AND PUSH32 0x8BE0079C531659141344CD1FD0A4F28419497F9722A3DAAFE3B4186F6B6457E0 PUSH1 0x0 DUP1 LOG3 JUMP JUMPDEST PUSH4 0x1E4FBDF7 PUSH1 0xE0 SHL PUSH1 0x0 MSTORE PUSH1 0x0 PUSH1 0x4 MSTORE PUSH1 0x24 PUSH1 0x0 REVERT JUMPDEST PUSH1 0x0 DUP1 MLOAD PUSH1 0x20 PUSH2 0x14C8 DUP4 CODECOPY DUP2 MLOAD SWAP2 MSTORE SLOAD PUSH1 0x1 PUSH1 0x1 PUSH1 0xA0 SHL SUB AND CALLER SUB PUSH2 0x1423 JUMPI JUMP JUMPDEST PUSH4 0x118CDAA7 PUSH1 0xE0 SHL PUSH1 0x0 MSTORE CALLER PUSH1 0x4 MSTORE PUSH1 0x24 PUSH1 0x0 REVERT JUMPDEST PUSH1 0xFF PUSH1 0x0 DUP1 MLOAD PUSH1 0x20 PUSH2 0x1508 DUP4 CODECOPY DUP2 MLOAD SWAP2 MSTORE SLOAD PUSH1 0x40 SHR AND ISZERO PUSH2 0x1455 JUMPI JUMP JUMPDEST PUSH4 0x1AFCD79F PUSH1 0xE3 SHL PUSH1 0x0 MSTORE PUSH1 0x4 PUSH1 0x0 REVERT JUMPDEST SWAP1 PUSH2 0x148C JUMPI POP DUP1 MLOAD ISZERO PUSH2 0x147B JUMPI DUP1 MLOAD SWAP1 PUSH1 0x20 ADD REVERT JUMPDEST PUSH4 0xD6BDA275 PUSH1 0xE0 SHL PUSH1 0x0 MSTORE PUSH1 0x4 PUSH1 0x0 REVERT JUMPDEST DUP2 MLOAD ISZERO DUP1 PUSH2 0x14BE JUMPI JUMPDEST PUSH2 0x149D JUMPI POP SWAP1 JUMP JUMPDEST PUSH4 0x9996B315 PUSH1 0xE0 SHL PUSH1 0x0 SWAP1 DUP2 MSTORE PUSH1 0x1 PUSH1 0x1 PUSH1 0xA0 SHL SUB SWAP2 SWAP1 SWAP2 AND PUSH1 0x4 MSTORE PUSH1 0x24 SWAP1 REVERT JUMPDEST POP DUP1 EXTCODESIZE ISZERO PUSH2 0x1495 JUMP INVALID SWAP1 AND 0xD0 SWAP14 PUSH19 0xD40FDAE2FD8CEAC6B6234C7706214FD39C1CD1 0xE6 MULMOD LOG0 MSTORE DUP13 NOT SWAP4 STOP CALLDATASIZE ADDMOD SWAP5 LOG1 EXTCODESIZE LOG1 LOG3 0x21 MOD PUSH8 0xC828492DB98DCA3E KECCAK256 PUSH23 0xCC3735A920A3CA505D382BBCF0C57E16840DF040F15088 0xDC 0x2F DUP2 INVALID CODECOPY SHR CODECOPY 0x23 0xBE 0xC7 RETURNDATACOPY 0x23 0xA9 PUSH7 0x2EFC9C229C6A00 LOG2 PUSH5 0x6970667358 0x22 SLT KECCAK256 0xDD LOG1 CALLDATASIZE PUSH18 0x841D1A89B2F55BEB09EA07E47106FCAA7BA6 DUP1 0xE7 PUSH23 0xAC9EA60997EF8164736F6C634300081B00330000000000 "},"methodIdentifiers":{"BASIS_POINTS()":"e1f1c4a7","UPGRADE_INTERFACE_VERSION()":"ad3cb1cc","burnForFundraiser(address,address,uint256,uint256)":"270a2a65","changeDefaultFeePercentage(uint256)":"39d2c669","changeFeeWallet(address)":"3e4d0310","createFundraiser(address,uint256,uint256,uint256,(uint256,uint256,uint256)[])":"06f5e018","defaultFeePercentage()":"b4824034","deployedFundraisers(uint256)":"20222859","feeWallet()":"f25f4b56","fundraiserImplementation()":"3119e4b4","getDeployedFundraiser(uint256)":"eb854690","getDeployedFundraisersCount()":"be531076","getFeeWallet()":"5459060d","initialize(address,address,uint256,address,address,address)":"ff9935cb","isFundraiser(address)":"7f7977d1","mintForFundraiser(address,address,uint256,uint256)":"8ca0ebc6","owner()":"8da5cb5b","productTokenAddress()":"396f9701","proxiableUUID()":"52d1902d","renounceOwnership()":"715018a6","transferOwnership(address)":"f2fde38b","updateFundraiserImplementation(address)":"7a84379c","updateProductTokenAddress(address)":"63025e97","upgradeToAndCall(address,bytes)":"4f1ef286","usdcAddress()":"02d45457"}},"storageLayout":{"storage":[{"astId":11317,"contract":"contracts/USDCFundraiserFactoryUpgradeable.sol:USDCFundraiserFactoryUpgradeable","label":"usdcAddress","offset":0,"slot":"0","type":"t_address"},{"astId":11319,"contract":"contracts/USDCFundraiserFactoryUpgradeable.sol:USDCFundraiserFactoryUpgradeable","label":"productTokenAddress","offset":0,"slot":"1","type":"t_address"},{"astId":11321,"contract":"contracts/USDCFundraiserFactoryUpgradeable.sol:USDCFundraiserFactoryUpgradeable","label":"defaultFeePercentage","offset":0,"slot":"2","type":"t_uint256"},{"astId":11323,"contract":"contracts/USDCFundraiserFactoryUpgradeable.sol:USDCFundraiserFactoryUpgradeable","label":"feeWallet","offset":0,"slot":"3","type":"t_address"},{"astId":11325,"contract":"contracts/USDCFundraiserFactoryUpgradeable.sol:USDCFundraiserFactoryUpgradeable","label":"fundraiserImplementation","offset":0,"slot":"4","type":"t_address"},{"astId":11328,"contract":"contracts/USDCFundraiserFactoryUpgradeable.sol:USDCFundraiserFactoryUpgradeable","label":"deployedFundraisers","offset":0,"slot":"5","type":"t_array(t_address)dyn_storage"},{"astId":11332,"contract":"contracts/USDCFundraiserFactoryUpgradeable.sol:USDCFundraiserFactoryUpgradeable","label":"isFundraiser","offset":0,"slot":"6","type":"t_mapping(t_address,t_bool)"}],"types":{"t_address":{"encoding":"inplace","label":"address","numberOfBytes":"20"},"t_array(t_address)dyn_storage":{"base":"t_address","encoding":"dynamic_array","label":"address[]","numberOfBytes":"32"},"t_bool":{"encoding":"inplace","label":"bool","numberOfBytes":"1"},"t_mapping(t_address,t_bool)":{"encoding":"mapping","key":"t_address","label":"mapping(address => bool)","numberOfBytes":"32","value":"t_bool"},"t_uint256":{"encoding":"inplace","label":"uint256","numberOfBytes":"32"}}}}}}