{"contracts/USDCFundraiserFactory.sol":{"USDCFundraiserFactory":{"abi":[{"inputs":[{"internalType":"address","name":"_usdcAddress","type":"address"},{"internalType":"address","name":"_productTokenAddress","type":"address"},{"internalType":"uint256","name":"_defaultFeePercentage","type":"uint256"},{"internalType":"address","name":"_feeWallet","type":"address"}],"stateMutability":"nonpayable","type":"constructor"},{"inputs":[{"internalType":"address","name":"owner","type":"address"}],"name":"OwnableInvalidOwner","type":"error"},{"inputs":[{"internalType":"address","name":"account","type":"address"}],"name":"OwnableUnauthorizedAccount","type":"error"},{"anonymous":false,"inputs":[{"indexed":false,"internalType":"string","name":"message","type":"string"}],"name":"Debug","type":"event"},{"anonymous":false,"inputs":[{"indexed":true,"internalType":"address","name":"fundraiser","type":"address"},{"indexed":true,"internalType":"address","name":"creator","type":"address"}],"name":"FundraiserCreated","type":"event"},{"anonymous":false,"inputs":[{"indexed":true,"internalType":"address","name":"previousOwner","type":"address"},{"indexed":true,"internalType":"address","name":"newOwner","type":"address"}],"name":"OwnershipTransferred","type":"event"},{"inputs":[{"internalType":"uint256","name":"newFeePercentage","type":"uint256"}],"name":"changeDefaultFeePercentage","outputs":[],"stateMutability":"nonpayable","type":"function"},{"inputs":[{"internalType":"address","name":"newFeeWallet","type":"address"}],"name":"changeFeeWallet","outputs":[],"stateMutability":"nonpayable","type":"function"},{"inputs":[{"internalType":"address","name":"beneficiaryWallet","type":"address"},{"internalType":"uint256","name":"fundingType","type":"uint256"},{"internalType":"uint256","name":"minimumTarget","type":"uint256"},{"internalType":"uint256","name":"deadline","type":"uint256"},{"components":[{"internalType":"uint256","name":"productId","type":"uint256"},{"internalType":"uint256","name":"price","type":"uint256"},{"internalType":"uint256","name":"supplyLimit","type":"uint256"}],"internalType":"struct ProductConfig[]","name":"products","type":"tuple[]"}],"name":"createFundraiser","outputs":[{"internalType":"address","name":"","type":"address"}],"stateMutability":"nonpayable","type":"function"},{"inputs":[],"name":"defaultFeePercentage","outputs":[{"internalType":"uint256","name":"","type":"uint256"}],"stateMutability":"view","type":"function"},{"inputs":[],"name":"feeWallet","outputs":[{"internalType":"address","name":"","type":"address"}],"stateMutability":"view","type":"function"},{"inputs":[],"name":"getFeeWallet","outputs":[{"internalType":"address","name":"","type":"address"}],"stateMutability":"view","type":"function"},{"inputs":[],"name":"owner","outputs":[{"internalType":"address","name":"","type":"address"}],"stateMutability":"view","type":"function"},{"inputs":[],"name":"productTokenAddress","outputs":[{"internalType":"address","name":"","type":"address"}],"stateMutability":"view","type":"function"},{"inputs":[],"name":"renounceOwnership","outputs":[],"stateMutability":"nonpayable","type":"function"},{"inputs":[{"internalType":"address","name":"newOwner","type":"address"}],"name":"transferOwnership","outputs":[],"stateMutability":"nonpayable","type":"function"},{"inputs":[],"name":"usdcAddress","outputs":[{"internalType":"address","name":"","type":"address"}],"stateMutability":"view","type":"function"}],"evm":{"bytecode":{"linkReferences":{},"object":"60803461011e57601f612e8f38819003918201601f19168301916001600160401b038311848410176101235780849260809460405283398101031261011e5761004781610139565b9061005460208201610139565b90610066606060408301519201610139565b9133156101085760008054336001600160a01b0319821681178355604051969290916001600160a01b0316907f8be0079c531659141344cd1fd0a4f28419497f9722a3daafe3b4186f6b6457e09080a3600180546001600160a01b03199081166001600160a01b0393841617909155600280548216938316939093179092556003929092556004805490911692909116919091179055612d41908161014e8239f35b631e4fbdf760e01b600052600060045260246000fd5b600080fd5b634e487b7160e01b600052604160045260246000fd5b51906001600160a01b038216820361011e5756fe608080604052600436101561001357600080fd5b600090813560e01c90816302d45457146105d75750806306f5e0181461027b578063396f97011461025257806339d2c6691461022f5780633e4d0310146101ea5780635459060d14610122578063715018a6146101905780638da5cb5b14610169578063b48240341461014b578063f25f4b56146101225763f2fde38b1461009a57600080fd5b3461011f57602036600319011261011f576100b3610600565b6100bb610653565b6001600160a01b0316801561010b5781546001600160a01b03198116821783556001600160a01b03167f8be0079c531659141344cd1fd0a4f28419497f9722a3daafe3b4186f6b6457e08380a380f35b631e4fbdf760e01b82526004829052602482fd5b80fd5b503461011f578060031936011261011f576004546040516001600160a01b039091168152602090f35b503461011f578060031936011261011f576020600354604051908152f35b503461011f578060031936011261011f57546040516001600160a01b039091168152602090f35b503461011f578060031936011261011f576101a9610653565b80546001600160a01b03198116825581906001600160a01b03167f8be0079c531659141344cd1fd0a4f28419497f9722a3daafe3b4186f6b6457e08280a380f35b503461011f57602036600319011261011f57610204610600565b61020c610653565b60018060a01b03166bffffffffffffffffffffffff60a01b600454161760045580f35b503461011f57602036600319011261011f57610249610653565b60043560035580f35b503461011f578060031936011261011f576002546040516001600160a01b039091168152602090f35b503461011f5760a036600319011261011f57610295610600565b6064359060843567ffffffffffffffff81116105d357366023820112156105d35780600401359167ffffffffffffffff83116105bf57604051916102df60208560051b018461061b565b838352602083019060246060839602820101903682116105bb57602401915b818310610558575050506001600160a01b031690811561051d57428411156104e5578051156104b2576001546004546003546002546040519761268f808a01976001600160a01b0396871697969384169592949390921691908a891067ffffffffffffffff8a111761049e57908a99989796959493929161067d8b396101408801968852602088015260408701526060860152602435608086015260443560a086015260c085015260e08401526101406101008401525180915261016082019290865b81811061046c5750505061012033910152039082f0801561045f5781546001600160a01b0390811692911690813b1561011f576040519263f2fde38b60e01b84526004840152808360248183865af192831561045f5760209361044f575b509060405191817fa2398daac0c8053a1e3c0280916c2ec6bc884f0959c27e639a4db829b7eabfb1339280a38152f35b816104599161061b565b3861041f565b50604051903d90823e3d90fd5b9194509192602060606001926040885180518352848101518584015201516040820152019501910191859493926103c1565b634e487b7160e01b8c52604160045260248cfd5b60405162461bcd60e51b815260206004820152600b60248201526a4e6f2070726f647563747360a81b6044820152606490fd5b60405162461bcd60e51b815260206004820152601060248201526f496e76616c696420646561646c696e6560801b6044820152606490fd5b60405162461bcd60e51b8152602060048201526013602482015272496e76616c69642062656e656669636961727960681b6044820152606490fd5b6060833603126105bb576040516060810181811067ffffffffffffffff8211176105a75791602091606093604052853581528286013583820152604086013560408201528152019201916102fe565b634e487b7160e01b8a52604160045260248afd5b8780fd5b634e487b7160e01b85526041600452602485fd5b8380fd5b9050346105fc57816003193601126105fc576001546001600160a01b03168152602090f35b5080fd5b600435906001600160a01b038216820361061657565b600080fd5b90601f8019910116810190811067ffffffffffffffff82111761063d57604052565b634e487b7160e01b600052604160045260246000fd5b6000546001600160a01b0316330361066757565b63118cdaa760e01b6000523360045260246000fdfe6080604052346105a75761268f80380380610019816105ac565b928339810190610140818303126105a757610033816105d1565b61003f602083016105d1565b9161004c604082016105d1565b60608201519060808301519460a08401519060c08501519261007060e087016105d1565b6101008701519096906001600160401b0381116105a75781018a601f820112156105a7578051906001600160401b0382116102ed5760209b8c60606100b9828660051b016105ac565b9e8f868152019402830101918183116105a757602001925b82841061055857505050506101206100e991016105d1565b9133156105425760008054604051999133906001600160a01b038316907f8be0079c531659141344cd1fd0a4f28419497f9722a3daafe3b4186f6b6457e09080a36001600160a81b0319163360ff60a01b191617600055600180556001600160a01b031697881561050057506001600160a01b03169081156104bb576001600160a01b03169182156104815789511561043c576001600160a01b03169687156103f75760018060a01b0319600254161760025560018060a01b0319600454161760045560018060a01b0319600554161760055560065560075560085560018060a01b031660018060a01b0319600354161760035560005b83518110156103825760206101f582866105e5565b5101511561033d5761020781856105e5565b5151156103035761021881856105e5565b515190600c5491680100000000000000008310156102ed576001830180600c558310156102d757600192600c6000526020600020015561025881866105e5565b5161026382876105e5565b5151600052600f6020526002604080600020928051845560208101518685015501519101557fb751835a12376750bd69b4b4c0c1d306480284514d2fa88f72edf3eeea8515f660406102b583886105e5565b515160206102c3858a6105e5565b51015182519182526020820152a1016101e0565b634e487b7160e01b600052603260045260246000fd5b634e487b7160e01b600052604160045260246000fd5b60405162461bcd60e51b8152602060048201526012602482015271125b9d985b1a59081c1c9bd91d58dd08125160721b6044820152606490fd5b60405162461bcd60e51b815260206004820152601560248201527f496e76616c69642070726f6475637420707269636500000000000000000000006044820152606490fd5b5090600281116103b257600e55601080546001600160a01b03191691909117905560405161209590816105fa8239f35b60405162461bcd60e51b815260206004820152601460248201527f496e76616c69642066756e64696e6720747970650000000000000000000000006044820152606490fd5b60405162461bcd60e51b815260206004820152601660248201527f496e76616c69642063616d706169676e2061646d696e000000000000000000006044820152606490fd5b60405162461bcd60e51b815260206004820152601460248201527f4e6f2070726f64756374732070726f76696465640000000000000000000000006044820152606490fd5b60405162461bcd60e51b8152602060048201526012602482015271125b9d985b1a5908199959481dd85b1b195d60721b6044820152606490fd5b60405162461bcd60e51b815260206004820152601a60248201527f496e76616c69642062656e65666963696172792077616c6c65740000000000006044820152606490fd5b62461bcd60e51b815260206004820152601460248201527f496e76616c6964205553444320616464726573730000000000000000000000006044820152606490fd5b631e4fbdf760e01b600052600060045260246000fd5b6060848303126105a7576040519060608201906001600160401b038211838310176102ed57606092602092604052865181528287015183820152604087015160408201528152019301926100d1565b600080fd5b6040519190601f01601f191682016001600160401b038111838210176102ed57604052565b51906001600160a01b03821682036105a757565b80518210156102d75760209160051b01019056fe608080604052600436101561001357600080fd5b600090813560e01c90816325b4f65f14611b075750806329dcb0cf14611ae95780633e413bee14611ac05780633f4ba83a14611a5257806342235da614611a3457806342af18841461190f57806344d3498a146118a257806347428e7b146117ec5780634bb278f3146116685780635c975abb146116435780635ee95cae146114b557806366bff1db1461148b578063715018a61461143157806372afddf0146114085780637acc0b20146113b85780638456cb59146113575780638527d58f14610f655780638da5cb5b14610f3e57806395ccea6714610d785780639c3bddb214610cb1578063a001ecdd14610c93578063b3f05b9714610c70578063bc072c2c14610b53578063c5c4744c14610b35578063c978863114610b0c578063cb51bba914610ad2578063dd5934b314610907578063e2bbb1581461030e578063ebd692ea146102e4578063ec8239711461025b578063f25f4b5614610232578063f2fde38b146101ac5763fa8ab0ee1461018c57600080fd5b346101a957806003193601126101a9576020600e54604051908152f35b80fd5b50346101a95760203660031901126101a9576101c6611b46565b6101ce611eae565b6001600160a01b0316801561021e5781546001600160a01b03198116821783556001600160a01b03167f8be0079c531659141344cd1fd0a4f28419497f9722a3daafe3b4186f6b6457e08380a380f35b631e4fbdf760e01b82526004829052602482fd5b50346101a957806003193601126101a9576005546040516001600160a01b039091168152602090f35b50346101a95760203660031901126101a957610275611b46565b61027d611eae565b6001600160a01b031680156102a7576bffffffffffffffffffffffff60a01b601054161760105580f35b60405162461bcd60e51b8152602060048201526015602482015274496e76616c69642061646d696e206164647265737360581b6044820152606490fd5b50346101a95760203660031901126101a95760406020916004358152600d83522054604051908152f35b50346101a95761031d36611b30565b90610326611ed7565b61032e611ef9565b808352600f6020526040832060405161034681611b8d565b8154815260406002600184015493602084019485520154910190815260ff600a54166108ca5781511561088d578084915161082b575b506103879151611d15565b9161271061039760085485611d15565b04916103a38385611cf2565b6002546040516323b872dd60e01b81523360048201523060248201526044810187905290602090829060649082908b906001600160a01b03165af18015610801576103f591889161080c575b50611d40565b8361075a575b6003546001600160a01b0316803b1561075657604051630ab714fb60e11b8152336004820152602481018490526044810185905290879081908390606490829084905af19182610741575b50506106c95785858160033d116106b9575b6308c379a0146105a3575b813d1561059757503d67ffffffffffffffff8111610583576104dd83926020926040519061049a85601f19601f8401160183611bbf565b815284843d92013e5b60025460405163a9059cbb60e01b81523360048201526024810192909252909384926001600160a01b039092169183919082906044820190565b03925af1908115610578576104f89291610549575b50611e3f565b60405162461bcd60e51b8152602060048201526024808201527f4e4654206d696e74206661696c65642077697468206c6f772d6c6576656c2065604482015263393937b960e11b6064820152608490fd5b61056b915060203d602011610571575b6105638183611bbf565b810190611d28565b826104f2565b503d610559565b6040513d84823e3d90fd5b634e487b7160e01b83526041600452602483fd5b906104dd6020916104a3565b816105ac611dc7565b90816105b9575050610463565b60025460405163a9059cbb60e01b815233600482015260248101949094529092906020908290604490829087906001600160a01b03165af19081156106ae576044929161060f91610681959161068f5750611e3f565b60405190610659603183602081019370027232a1036b4b73a103330b4b632b21d1607d1b85526106488151809260208686019101611e8b565b81010301601f198101845283611bbf565b60405193849262461bcd60e51b84526020600485015251809281602486015285850190611e8b565b601f01601f19168101030190fd5b6106a8915060203d602011610571576105638183611bbf565b856104f2565b6040513d85823e3d90fd5b50600482803e815160e01c610458565b6106d581600954611dba565b600955818652600b6020526106ef60408720918254611dba565b90558452600d60205261070760408520918254611dba565b905560405191825260208201527f90890809c654f11d6e72a28fa60149770a0d11ec6c92319d6ceb2bb0a4ea1a1560403392a26001805580f35b8161074b91611bbf565b610756578638610446565b8680fd5b60025460055460405163a9059cbb60e01b81526001600160a01b0391821660048201526024810187905291602091839160449183918c91165af19081156108015787916107e2575b506103fb5760405162461bcd60e51b8152602060048201526013602482015272119959481d1c985b9cd9995c8819985a5b1959606a1b6044820152606490fd5b6107fb915060203d602011610571576105638183611bbf565b386107a2565b6040513d89823e3d90fd5b610825915060203d602011610571576105638183611bbf565b386103ef565b9050828552600d602052610843846040872054611dba565b90511061085157823861037c565b60405162461bcd60e51b8152602060048201526014602482015273115e18d959591cc81cdd5c1c1b1e481b1a5b5a5d60621b6044820152606490fd5b60405162461bcd60e51b815260206004820152601560248201527450726f64756374206e6f7420617661696c61626c6560581b6044820152606490fd5b60405162461bcd60e51b815260206004820152601560248201527410d85b5c185a59db881a5cc8199a5b985b1a5e9959605a1b6044820152606490fd5b50346101a95760603660031901126101a9576040519061092682611b8d565b60043582526020820160243581526040830190604435825260018060a01b0383541633148015610abe575b61095a90611c70565b61096681511515611d7e565b835115610a845783518352600f6020526001604084200154610a465783518352600f602052604083208451908181558251600182015560028451910155600c5468010000000000000000811015610a325794610a0a610a2c926109f18860017f0bb34bc6bcdd4ba28b7de4669c2e7d94d1b828b2a6a14b82991e087b20d73549999a01600c55611b5c565b90919082549060031b91821b91600019901b1916179055565b5191519251604051938493846040919493926060820195825260208201520152565b0390a180f35b634e487b7160e01b85526041600452602485fd5b60405162461bcd60e51b815260206004820152601660248201527550726f6475637420616c72656164792065786973747360501b6044820152606490fd5b60405162461bcd60e51b8152602060048201526012602482015271125b9d985b1a59081c1c9bd91d58dd08125160721b6044820152606490fd5b506010546001600160a01b03163314610951565b50346101a95760203660031901126101a95760043590600c548210156101a9576020610afd83611b5c565b90549060031b1c604051908152f35b50346101a957806003193601126101a9576004546040516001600160a01b039091168152602090f35b50346101a957806003193601126101a9576020600954604051908152f35b50346101a957610b6236611b30565b82546001600160a01b031633148015610c5c575b610b7f90611c70565b818352600f602052610b9960016040852001541515611cad565b80610bf9575b818352600f60208181526040808620600201849055848652918152818520600101548251948552908401528201527fc598db734b93c7fd9412e07c1e464ebb4d3dcf9b02c03af26710b307f8b773db908060608101610a2c565b818352600d6020526040832054811015610b9f5760405162461bcd60e51b815260206004820152602160248201527f4e657720737570706c79206c696d69742062656c6f7720736f6c6420636f756e6044820152601d60fa1b6064820152608490fd5b506010546001600160a01b03163314610b76565b50346101a957806003193601126101a957602060ff600a54166040519015158152f35b50346101a957806003193601126101a9576020600854604051908152f35b50346101a9577fc598db734b93c7fd9412e07c1e464ebb4d3dcf9b02c03af26710b307f8b773db610ce136611b30565b9060018060a01b0384541633148015610d64575b610cfe90611c70565b610d09821515611d7e565b808452600f602052610d2360016040862001541515611cad565b808452600f602052816001604086200155808452600f602052610a2c6002604086200154604051938493846040919493926060820195825260208201520152565b506010546001600160a01b03163314610cf5565b50346101a95760403660031901126101a957610d92611b46565b60243590610d9e611eae565b6001600160a01b038116918215610f07576002546040516370a0823160e01b81523060048201526001600160a01b0390911690602081602481855afa908115610efc578691610ec5575b508211610e895760405163a9059cbb60e01b81526001600160a01b03939093166004840152602483018290526020908390604490829088905af1908115610e7e57610e5d6020927f5fafa99d0643513820be26656b45130b01e1c03062e1266bf36f88cbd3bd9695948791610e675750611d40565b604051908152a280f35b6108259150843d8611610571576105638183611bbf565b6040513d86823e3d90fd5b60405162461bcd60e51b8152602060048201526014602482015273496e73756666696369656e742062616c616e636560601b6044820152606490fd5b90506020813d602011610ef4575b81610ee060209383611bbf565b81010312610eef575138610de8565b600080fd5b3d9150610ed3565b6040513d88823e3d90fd5b60405162461bcd60e51b815260206004820152600f60248201526e496e76616c6964206164647265737360881b6044820152606490fd5b50346101a957806003193601126101a957546040516001600160a01b039091168152602090f35b50346101a957610f7436611b30565b90808352600f6020526040832091604051610f8e81611b8d565b8354815260018401549060406002602083019684885201549101521561132057600e546112ba5760ff600a5416806112ac575b611258575b600354604051627eeac760e11b8152336004820152602481018490526001600160a01b039091169390602081604481885afa908115610efc578691611222575b5080156111e75782116111a257816110348261271061102c611039955160085490611d15565b049051611cf2565b611d15565b92803b1561119e57604051637a94c56560e11b815233600482015260248101849052604481018390529085908290606490829084905af1801561117f5761118a575b50818452600d60205260408420611093828254611cf2565b90556110a183600954611cf2565b60095560025460405163a9059cbb60e01b815233600482015260248101859052906020908290604490829089906001600160a01b03165af190811561117f578591611160575b501561112b576040805193845260208401929092529082015233907fb7048c2ad36aadee977bb16b4543a18866044d27a2ca753e1c7dbcfa7d7a696290606090a280f35b60405162461bcd60e51b815260206004820152600d60248201526c1499599d5b990819985a5b1959609a1b6044820152606490fd5b611179915060203d602011610571576105638183611bbf565b386110e7565b6040513d87823e3d90fd5b8461119791959295611bbf565b923861107b565b8480fd5b60405162461bcd60e51b815260206004820152601d60248201527f496e73756666696369656e7420746f6b656e7320746f20726566756e640000006044820152606490fd5b60405162461bcd60e51b8152602060048201526013602482015272139bc81d1bdad95b9cc81d1bc81c99599d5b99606a1b6044820152606490fd5b90506020813d602011611250575b8161123d60209383611bbf565b8101031261124c575138611006565b8580fd5b3d9150611230565b60405162461bcd60e51b815260206004820152602660248201527f54617267657420776173206d65742c20726566756e6473206e6f7420617661696044820152653630b136329760d11b6064820152608490fd5b506009546006541115610fc1565b60ff600a541615610fc65760405162461bcd60e51b815260206004820152602d60248201527f43616d706169676e2069732066696e616c697a65642c20726566756e6473206e60448201526c37ba1030bb30b4b630b136329760991b6064820152608490fd5b60405162461bcd60e51b815260206004820152600f60248201526e125b9d985b1a59081c1c9bd91d58dd608a1b6044820152606490fd5b50346101a957806003193601126101a957611370611eae565b611378611ef9565b805460ff60a01b1916600160a01b1781556040513381527f62e78cea01bee320cd4e420270b5ea74000d11b0c9f74754ebdbfc544b05a25890602090a180f35b50346101a95760203660031901126101a9576040906004358152600f60205220805461140460026001840154930154604051938493846040919493926060820195825260208201520152565b0390f35b50346101a957806003193601126101a9576010546040516001600160a01b039091168152602090f35b50346101a957806003193601126101a95761144a611eae565b80546001600160a01b03198116825581906001600160a01b03167f8be0079c531659141344cd1fd0a4f28419497f9722a3daafe3b4186f6b6457e08280a380f35b50346101a95760203660031901126101a95760406020916004358152600b83522054604051908152f35b50346101a95760203660031901126101a95760043560018060a01b038254163314801561162f575b6114e690611c70565b808252600f60205261150060016040842001541515611cad565b808252600d602052611516604083205415611be1565b815b600c5480821015611604578261152d83611b5c565b90549060031b1c146115425750600101611518565b60001981019081116115f057906109f161155e61156b93611b5c565b90549060031b1c91611b5c565b600c5480156115dc577f07015631cff457b5b13492c2045e70c6305a0a4aa773e432e79abbe2cf52c1eb91602091600019016115a681611b5c565b8154906000199060031b1b19169055600c555b808452600f8252836002604082208281558260018201550155604051908152a180f35b634e487b7160e01b83526031600452602483fd5b634e487b7160e01b84526011600452602484fd5b505060207f07015631cff457b5b13492c2045e70c6305a0a4aa773e432e79abbe2cf52c1eb916115b9565b506010546001600160a01b031633146114dd565b50346101a957806003193601126101a95760ff6020915460a01c166040519015158152f35b50346101a957806003193601126101a957611681611ed7565b611689611ef9565b60ff600a54166117b357600e548061170957506116a96007544211611c2d565b6009546006548110156116f1575b505b600160ff19600a541617600a557f6823b073d48d6e3a7d385eeb601452d680e74bb46afe3255a7d778f3a9b176818180a16001805580f35b6116fc575b386116b7565b611704611f19565b6116f6565b6001810361178f575080546001600160a01b0316330361173857600954611730575b6116b9565b61172b611f19565b60405162461bcd60e51b815260206004820152602960248201527f4f6e6c79206f776e65722063616e2066696e616c697a65206c696d69746c6573604482015268732066756e64696e6760b81b6064820152608490fd5b6002036116b9576117a36007544211611c2d565b6009541561172b5761172b611f19565b60405162461bcd60e51b8152602060048201526011602482015270105b1c9958591e48199a5b985b1a5e9959607a1b6044820152606490fd5b50346101a957806003193601126101a957604051806020600c5491828152018091600c85527fdf6966c971051c3d54ec59162606531493a51404a002842f56009d7e5cf4a8c790855b81811061188c575050508261184b910383611bbf565b604051928392602084019060208552518091526040840192915b818110611873575050500390f35b8251845285945060209384019390920191600101611865565b8254845260209093019260019283019201611835565b50346101a9577fb751835a12376750bd69b4b4c0c1d306480284514d2fa88f72edf3eeea8515f660406118d436611b30565b6118dc611eae565b818552600d6020526118f18386205415611be1565b818552600f602052806001848720015582519182526020820152a180f35b50346101a95760203660031901126101a95760043561192c611eae565b60ff600a54166119ef576001600e5414611993574281111561194e5760075580f35b60405162461bcd60e51b815260206004820152601e60248201527f446561646c696e65206d75737420626520696e207468652066757475726500006044820152606490fd5b60405162461bcd60e51b815260206004820152602e60248201527f4c696d69746c6573732066756e64696e6720646f65736e277420737570706f7260448201526d3a103334b730b634bd30ba34b7b760911b6064820152608490fd5b60405162461bcd60e51b815260206004820152601760248201527f46756e647261697365722069732066696e616c697a65640000000000000000006044820152606490fd5b50346101a957806003193601126101a9576020600654604051908152f35b50346101a957806003193601126101a957611a6b611eae565b805460ff8160a01c1615611ab15760ff60a01b191681556040513381527f5db9ee0a495bf2e6ff9c91a7834c1ba4fdd244a5e8aa4e537bd38aeae4b073aa90602090a180f35b638dfc202b60e01b8252600482fd5b50346101a957806003193601126101a9576002546040516001600160a01b039091168152602090f35b50346101a957806003193601126101a9576020600754604051908152f35b905034611b2c5781600319360112611b2c576003546001600160a01b03168152602090f35b5080fd5b6040906003190112610eef576004359060243590565b600435906001600160a01b0382168203610eef57565b600c54811015611b7757600c60005260206000200190600090565b634e487b7160e01b600052603260045260246000fd5b6060810190811067ffffffffffffffff821117611ba957604052565b634e487b7160e01b600052604160045260246000fd5b90601f8019910116810190811067ffffffffffffffff821117611ba957604052565b15611be857565b60405162461bcd60e51b815260206004820152601860248201527f50726f6475637420686173206163746976652073616c657300000000000000006044820152606490fd5b15611c3457565b60405162461bcd60e51b8152602060048201526014602482015273111958591b1a5b99481b9bdd081c995858da195960621b6044820152606490fd5b15611c7757565b60405162461bcd60e51b815260206004820152600e60248201526d139bdd08185d5d1a1bdc9a5e995960921b6044820152606490fd5b15611cb457565b60405162461bcd60e51b8152602060048201526016602482015275141c9bd91d58dd08191bd95cc81b9bdd08195e1a5cdd60521b6044820152606490fd5b91908203918211611cff57565b634e487b7160e01b600052601160045260246000fd5b81810292918115918404141715611cff57565b90816020910312610eef57518015158103610eef5790565b15611d4757565b60405162461bcd60e51b815260206004820152600f60248201526e151c985b9cd9995c8819985a5b1959608a1b6044820152606490fd5b15611d8557565b60405162461bcd60e51b815260206004820152600d60248201526c496e76616c696420707269636560981b6044820152606490fd5b91908201809211611cff57565b600060443d10611e2e576040513d600319016004823e8051913d602484011167ffffffffffffffff841117611e39578282019283519167ffffffffffffffff8311611e31573d84016003190185840160200111611e315750611e2e92910160200190611bbf565b90565b949350505050565b92915050565b15611e4657565b60405162461bcd60e51b815260206004820152601e60248201527f526566756e64206661696c6564206166746572206d696e74206572726f7200006044820152606490fd5b60005b838110611e9e5750506000910152565b8181015183820152602001611e8e565b6000546001600160a01b03163303611ec257565b63118cdaa760e01b6000523360045260246000fd5b600260015414611ee8576002600155565b633ee5aeb560e01b60005260046000fd5b60ff60005460a01c16611f0857565b63d93c066560e01b60005260046000fd5b6002546040516370a0823160e01b8152306004820152906001600160a01b0316602082602481845afa918215611fe45760009261202b575b508115611ff0576004805460405163a9059cbb60e01b81526001600160a01b03909116918101919091526024810183905290602090829060449082906000905af18015611fe457611fa99160009161080c5750611d40565b6004546040519182526001600160a01b0316907f221c08a06b07a64803b3787861a3f276212fcccb51c2e6234077a9b8cb13047a90602090a2565b6040513d6000823e3d90fd5b60405162461bcd60e51b81526020600482015260136024820152724e6f2066756e647320746f2072656c6561736560681b6044820152606490fd5b90916020823d602011612057575b8161204660209383611bbf565b810103126101a95750519038611f51565b3d915061203956fea2646970667358221220d82b43278ea45b48737329c0902dc7609d66d8153a57125bcf419140fcfb2ab864736f6c634300081b0033a2646970667358221220030461e7ec83fe7ff58b6d3ad5e5ce956dea29bb43f67983933ea4046edceec264736f6c634300081b0033","opcodes":"PUSH1 0x80 CALLVALUE PUSH2 0x11E JUMPI PUSH1 0x1F PUSH2 0x2E8F CODESIZE DUP2 SWAP1 SUB SWAP2 DUP3 ADD PUSH1 0x1F NOT AND DUP4 ADD SWAP2 PUSH1 0x1 PUSH1 0x1 PUSH1 0x40 SHL SUB DUP4 GT DUP5 DUP5 LT OR PUSH2 0x123 JUMPI DUP1 DUP5 SWAP3 PUSH1 0x80 SWAP5 PUSH1 0x40 MSTORE DUP4 CODECOPY DUP2 ADD SUB SLT PUSH2 0x11E JUMPI PUSH2 0x47 DUP2 PUSH2 0x139 JUMP JUMPDEST SWAP1 PUSH2 0x54 PUSH1 0x20 DUP3 ADD PUSH2 0x139 JUMP JUMPDEST SWAP1 PUSH2 0x66 PUSH1 0x60 PUSH1 0x40 DUP4 ADD MLOAD SWAP3 ADD PUSH2 0x139 JUMP JUMPDEST SWAP2 CALLER ISZERO PUSH2 0x108 JUMPI PUSH1 0x0 DUP1 SLOAD CALLER PUSH1 0x1 PUSH1 0x1 PUSH1 0xA0 SHL SUB NOT DUP3 AND DUP2 OR DUP4 SSTORE PUSH1 0x40 MLOAD SWAP7 SWAP3 SWAP1 SWAP2 PUSH1 0x1 PUSH1 0x1 PUSH1 0xA0 SHL SUB AND SWAP1 PUSH32 0x8BE0079C531659141344CD1FD0A4F28419497F9722A3DAAFE3B4186F6B6457E0 SWAP1 DUP1 LOG3 PUSH1 0x1 DUP1 SLOAD PUSH1 0x1 PUSH1 0x1 PUSH1 0xA0 SHL SUB NOT SWAP1 DUP2 AND PUSH1 0x1 PUSH1 0x1 PUSH1 0xA0 SHL SUB SWAP4 DUP5 AND OR SWAP1 SWAP2 SSTORE PUSH1 0x2 DUP1 SLOAD DUP3 AND SWAP4 DUP4 AND SWAP4 SWAP1 SWAP4 OR SWAP1 SWAP3 SSTORE PUSH1 0x3 SWAP3 SWAP1 SWAP3 SSTORE PUSH1 0x4 DUP1 SLOAD SWAP1 SWAP2 AND SWAP3 SWAP1 SWAP2 AND SWAP2 SWAP1 SWAP2 OR SWAP1 SSTORE PUSH2 0x2D41 SWAP1 DUP2 PUSH2 0x14E DUP3 CODECOPY RETURN JUMPDEST PUSH4 0x1E4FBDF7 PUSH1 0xE0 SHL PUSH1 0x0 MSTORE PUSH1 0x0 PUSH1 0x4 MSTORE PUSH1 0x24 PUSH1 0x0 REVERT JUMPDEST PUSH1 0x0 DUP1 REVERT JUMPDEST PUSH4 0x4E487B71 PUSH1 0xE0 SHL PUSH1 0x0 MSTORE PUSH1 0x41 PUSH1 0x4 MSTORE PUSH1 0x24 PUSH1 0x0 REVERT JUMPDEST MLOAD SWAP1 PUSH1 0x1 PUSH1 0x1 PUSH1 0xA0 SHL SUB DUP3 AND DUP3 SUB PUSH2 0x11E JUMPI JUMP INVALID PUSH1 0x80 DUP1 PUSH1 0x40 MSTORE PUSH1 0x4 CALLDATASIZE LT ISZERO PUSH2 0x13 JUMPI PUSH1 0x0 DUP1 REVERT JUMPDEST PUSH1 0x0 SWAP1 DUP2 CALLDATALOAD PUSH1 0xE0 SHR SWAP1 DUP2 PUSH4 0x2D45457 EQ PUSH2 0x5D7 JUMPI POP DUP1 PUSH4 0x6F5E018 EQ PUSH2 0x27B JUMPI DUP1 PUSH4 0x396F9701 EQ PUSH2 0x252 JUMPI DUP1 PUSH4 0x39D2C669 EQ PUSH2 0x22F JUMPI DUP1 PUSH4 0x3E4D0310 EQ PUSH2 0x1EA JUMPI DUP1 PUSH4 0x5459060D EQ PUSH2 0x122 JUMPI DUP1 PUSH4 0x715018A6 EQ PUSH2 0x190 JUMPI DUP1 PUSH4 0x8DA5CB5B EQ PUSH2 0x169 JUMPI DUP1 PUSH4 0xB4824034 EQ PUSH2 0x14B JUMPI DUP1 PUSH4 0xF25F4B56 EQ PUSH2 0x122 JUMPI PUSH4 0xF2FDE38B EQ PUSH2 0x9A JUMPI PUSH1 0x0 DUP1 REVERT JUMPDEST CALLVALUE PUSH2 0x11F JUMPI PUSH1 0x20 CALLDATASIZE PUSH1 0x3 NOT ADD SLT PUSH2 0x11F JUMPI PUSH2 0xB3 PUSH2 0x600 JUMP JUMPDEST PUSH2 0xBB PUSH2 0x653 JUMP JUMPDEST PUSH1 0x1 PUSH1 0x1 PUSH1 0xA0 SHL SUB AND DUP1 ISZERO PUSH2 0x10B JUMPI DUP2 SLOAD PUSH1 0x1 PUSH1 0x1 PUSH1 0xA0 SHL SUB NOT DUP2 AND DUP3 OR DUP4 SSTORE PUSH1 0x1 PUSH1 0x1 PUSH1 0xA0 SHL SUB AND PUSH32 0x8BE0079C531659141344CD1FD0A4F28419497F9722A3DAAFE3B4186F6B6457E0 DUP4 DUP1 LOG3 DUP1 RETURN JUMPDEST PUSH4 0x1E4FBDF7 PUSH1 0xE0 SHL DUP3 MSTORE PUSH1 0x4 DUP3 SWAP1 MSTORE PUSH1 0x24 DUP3 REVERT JUMPDEST DUP1 REVERT JUMPDEST POP CALLVALUE PUSH2 0x11F JUMPI DUP1 PUSH1 0x3 NOT CALLDATASIZE ADD SLT PUSH2 0x11F JUMPI PUSH1 0x4 SLOAD PUSH1 0x40 MLOAD PUSH1 0x1 PUSH1 0x1 PUSH1 0xA0 SHL SUB SWAP1 SWAP2 AND DUP2 MSTORE PUSH1 0x20 SWAP1 RETURN JUMPDEST POP CALLVALUE PUSH2 0x11F JUMPI DUP1 PUSH1 0x3 NOT CALLDATASIZE ADD SLT PUSH2 0x11F JUMPI PUSH1 0x20 PUSH1 0x3 SLOAD PUSH1 0x40 MLOAD SWAP1 DUP2 MSTORE RETURN JUMPDEST POP CALLVALUE PUSH2 0x11F JUMPI DUP1 PUSH1 0x3 NOT CALLDATASIZE ADD SLT PUSH2 0x11F JUMPI SLOAD PUSH1 0x40 MLOAD PUSH1 0x1 PUSH1 0x1 PUSH1 0xA0 SHL SUB SWAP1 SWAP2 AND DUP2 MSTORE PUSH1 0x20 SWAP1 RETURN JUMPDEST POP CALLVALUE PUSH2 0x11F JUMPI DUP1 PUSH1 0x3 NOT CALLDATASIZE ADD SLT PUSH2 0x11F JUMPI PUSH2 0x1A9 PUSH2 0x653 JUMP JUMPDEST DUP1 SLOAD PUSH1 0x1 PUSH1 0x1 PUSH1 0xA0 SHL SUB NOT DUP2 AND DUP3 SSTORE DUP2 SWAP1 PUSH1 0x1 PUSH1 0x1 PUSH1 0xA0 SHL SUB AND PUSH32 0x8BE0079C531659141344CD1FD0A4F28419497F9722A3DAAFE3B4186F6B6457E0 DUP3 DUP1 LOG3 DUP1 RETURN JUMPDEST POP CALLVALUE PUSH2 0x11F JUMPI PUSH1 0x20 CALLDATASIZE PUSH1 0x3 NOT ADD SLT PUSH2 0x11F JUMPI PUSH2 0x204 PUSH2 0x600 JUMP JUMPDEST PUSH2 0x20C PUSH2 0x653 JUMP JUMPDEST PUSH1 0x1 DUP1 PUSH1 0xA0 SHL SUB AND PUSH12 0xFFFFFFFFFFFFFFFFFFFFFFFF PUSH1 0xA0 SHL PUSH1 0x4 SLOAD AND OR PUSH1 0x4 SSTORE DUP1 RETURN JUMPDEST POP CALLVALUE PUSH2 0x11F JUMPI PUSH1 0x20 CALLDATASIZE PUSH1 0x3 NOT ADD SLT PUSH2 0x11F JUMPI PUSH2 0x249 PUSH2 0x653 JUMP JUMPDEST PUSH1 0x4 CALLDATALOAD PUSH1 0x3 SSTORE DUP1 RETURN JUMPDEST POP CALLVALUE PUSH2 0x11F JUMPI DUP1 PUSH1 0x3 NOT CALLDATASIZE ADD SLT PUSH2 0x11F JUMPI PUSH1 0x2 SLOAD PUSH1 0x40 MLOAD PUSH1 0x1 PUSH1 0x1 PUSH1 0xA0 SHL SUB SWAP1 SWAP2 AND DUP2 MSTORE PUSH1 0x20 SWAP1 RETURN JUMPDEST POP CALLVALUE PUSH2 0x11F JUMPI PUSH1 0xA0 CALLDATASIZE PUSH1 0x3 NOT ADD SLT PUSH2 0x11F JUMPI PUSH2 0x295 PUSH2 0x600 JUMP JUMPDEST PUSH1 0x64 CALLDATALOAD SWAP1 PUSH1 0x84 CALLDATALOAD PUSH8 0xFFFFFFFFFFFFFFFF DUP2 GT PUSH2 0x5D3 JUMPI CALLDATASIZE PUSH1 0x23 DUP3 ADD SLT ISZERO PUSH2 0x5D3 JUMPI DUP1 PUSH1 0x4 ADD CALLDATALOAD SWAP2 PUSH8 0xFFFFFFFFFFFFFFFF DUP4 GT PUSH2 0x5BF JUMPI PUSH1 0x40 MLOAD SWAP2 PUSH2 0x2DF PUSH1 0x20 DUP6 PUSH1 0x5 SHL ADD DUP5 PUSH2 0x61B JUMP JUMPDEST DUP4 DUP4 MSTORE PUSH1 0x20 DUP4 ADD SWAP1 PUSH1 0x24 PUSH1 0x60 DUP4 SWAP7 MUL DUP3 ADD ADD SWAP1 CALLDATASIZE DUP3 GT PUSH2 0x5BB JUMPI PUSH1 0x24 ADD SWAP2 JUMPDEST DUP2 DUP4 LT PUSH2 0x558 JUMPI POP POP POP PUSH1 0x1 PUSH1 0x1 PUSH1 0xA0 SHL SUB AND SWAP1 DUP2 ISZERO PUSH2 0x51D JUMPI TIMESTAMP DUP5 GT ISZERO PUSH2 0x4E5 JUMPI DUP1 MLOAD ISZERO PUSH2 0x4B2 JUMPI PUSH1 0x1 SLOAD PUSH1 0x4 SLOAD PUSH1 0x3 SLOAD PUSH1 0x2 SLOAD PUSH1 0x40 MLOAD SWAP8 PUSH2 0x268F DUP1 DUP11 ADD SWAP8 PUSH1 0x1 PUSH1 0x1 PUSH1 0xA0 SHL SUB SWAP7 DUP8 AND SWAP8 SWAP7 SWAP4 DUP5 AND SWAP6 SWAP3 SWAP5 SWAP4 SWAP1 SWAP3 AND SWAP2 SWAP1 DUP11 DUP10 LT PUSH8 0xFFFFFFFFFFFFFFFF DUP11 GT OR PUSH2 0x49E JUMPI SWAP1 DUP11 SWAP10 SWAP9 SWAP8 SWAP7 SWAP6 SWAP5 SWAP4 SWAP3 SWAP2 PUSH2 0x67D DUP12 CODECOPY PUSH2 0x140 DUP9 ADD SWAP7 DUP9 MSTORE PUSH1 0x20 DUP9 ADD MSTORE PUSH1 0x40 DUP8 ADD MSTORE PUSH1 0x60 DUP7 ADD MSTORE PUSH1 0x24 CALLDATALOAD PUSH1 0x80 DUP7 ADD MSTORE PUSH1 0x44 CALLDATALOAD PUSH1 0xA0 DUP7 ADD MSTORE PUSH1 0xC0 DUP6 ADD MSTORE PUSH1 0xE0 DUP5 ADD MSTORE PUSH2 0x140 PUSH2 0x100 DUP5 ADD MSTORE MLOAD DUP1 SWAP2 MSTORE PUSH2 0x160 DUP3 ADD SWAP3 SWAP1 DUP7 JUMPDEST DUP2 DUP2 LT PUSH2 0x46C JUMPI POP POP POP PUSH2 0x120 CALLER SWAP2 ADD MSTORE SUB SWAP1 DUP3 CREATE DUP1 ISZERO PUSH2 0x45F JUMPI DUP2 SLOAD PUSH1 0x1 PUSH1 0x1 PUSH1 0xA0 SHL SUB SWAP1 DUP2 AND SWAP3 SWAP2 AND SWAP1 DUP2 EXTCODESIZE ISZERO PUSH2 0x11F JUMPI PUSH1 0x40 MLOAD SWAP3 PUSH4 0xF2FDE38B PUSH1 0xE0 SHL DUP5 MSTORE PUSH1 0x4 DUP5 ADD MSTORE DUP1 DUP4 PUSH1 0x24 DUP2 DUP4 DUP7 GAS CALL SWAP3 DUP4 ISZERO PUSH2 0x45F JUMPI PUSH1 0x20 SWAP4 PUSH2 0x44F JUMPI JUMPDEST POP SWAP1 PUSH1 0x40 MLOAD SWAP2 DUP2 PUSH32 0xA2398DAAC0C8053A1E3C0280916C2EC6BC884F0959C27E639A4DB829B7EABFB1 CALLER SWAP3 DUP1 LOG3 DUP2 MSTORE RETURN JUMPDEST DUP2 PUSH2 0x459 SWAP2 PUSH2 0x61B JUMP JUMPDEST CODESIZE PUSH2 0x41F JUMP JUMPDEST POP PUSH1 0x40 MLOAD SWAP1 RETURNDATASIZE SWAP1 DUP3 RETURNDATACOPY RETURNDATASIZE SWAP1 REVERT JUMPDEST SWAP2 SWAP5 POP SWAP2 SWAP3 PUSH1 0x20 PUSH1 0x60 PUSH1 0x1 SWAP3 PUSH1 0x40 DUP9 MLOAD DUP1 MLOAD DUP4 MSTORE DUP5 DUP2 ADD MLOAD DUP6 DUP5 ADD MSTORE ADD MLOAD PUSH1 0x40 DUP3 ADD MSTORE ADD SWAP6 ADD SWAP2 ADD SWAP2 DUP6 SWAP5 SWAP4 SWAP3 PUSH2 0x3C1 JUMP JUMPDEST PUSH4 0x4E487B71 PUSH1 0xE0 SHL DUP13 MSTORE PUSH1 0x41 PUSH1 0x4 MSTORE PUSH1 0x24 DUP13 REVERT JUMPDEST PUSH1 0x40 MLOAD PUSH3 0x461BCD PUSH1 0xE5 SHL DUP2 MSTORE PUSH1 0x20 PUSH1 0x4 DUP3 ADD MSTORE PUSH1 0xB PUSH1 0x24 DUP3 ADD MSTORE PUSH11 0x4E6F2070726F6475637473 PUSH1 0xA8 SHL PUSH1 0x44 DUP3 ADD MSTORE PUSH1 0x64 SWAP1 REVERT JUMPDEST PUSH1 0x40 MLOAD PUSH3 0x461BCD PUSH1 0xE5 SHL DUP2 MSTORE PUSH1 0x20 PUSH1 0x4 DUP3 ADD MSTORE PUSH1 0x10 PUSH1 0x24 DUP3 ADD MSTORE PUSH16 0x496E76616C696420646561646C696E65 PUSH1 0x80 SHL PUSH1 0x44 DUP3 ADD MSTORE PUSH1 0x64 SWAP1 REVERT JUMPDEST PUSH1 0x40 MLOAD PUSH3 0x461BCD PUSH1 0xE5 SHL DUP2 MSTORE PUSH1 0x20 PUSH1 0x4 DUP3 ADD MSTORE PUSH1 0x13 PUSH1 0x24 DUP3 ADD MSTORE PUSH19 0x496E76616C69642062656E6566696369617279 PUSH1 0x68 SHL PUSH1 0x44 DUP3 ADD MSTORE PUSH1 0x64 SWAP1 REVERT JUMPDEST PUSH1 0x60 DUP4 CALLDATASIZE SUB SLT PUSH2 0x5BB JUMPI PUSH1 0x40 MLOAD PUSH1 0x60 DUP2 ADD DUP2 DUP2 LT PUSH8 0xFFFFFFFFFFFFFFFF DUP3 GT OR PUSH2 0x5A7 JUMPI SWAP2 PUSH1 0x20 SWAP2 PUSH1 0x60 SWAP4 PUSH1 0x40 MSTORE DUP6 CALLDATALOAD DUP2 MSTORE DUP3 DUP7 ADD CALLDATALOAD DUP4 DUP3 ADD MSTORE PUSH1 0x40 DUP7 ADD CALLDATALOAD PUSH1 0x40 DUP3 ADD MSTORE DUP2 MSTORE ADD SWAP3 ADD SWAP2 PUSH2 0x2FE JUMP JUMPDEST PUSH4 0x4E487B71 PUSH1 0xE0 SHL DUP11 MSTORE PUSH1 0x41 PUSH1 0x4 MSTORE PUSH1 0x24 DUP11 REVERT JUMPDEST DUP8 DUP1 REVERT JUMPDEST PUSH4 0x4E487B71 PUSH1 0xE0 SHL DUP6 MSTORE PUSH1 0x41 PUSH1 0x4 MSTORE PUSH1 0x24 DUP6 REVERT JUMPDEST DUP4 DUP1 REVERT JUMPDEST SWAP1 POP CALLVALUE PUSH2 0x5FC JUMPI DUP2 PUSH1 0x3 NOT CALLDATASIZE ADD SLT PUSH2 0x5FC JUMPI PUSH1 0x1 SLOAD PUSH1 0x1 PUSH1 0x1 PUSH1 0xA0 SHL SUB AND DUP2 MSTORE PUSH1 0x20 SWAP1 RETURN JUMPDEST POP DUP1 REVERT JUMPDEST PUSH1 0x4 CALLDATALOAD SWAP1 PUSH1 0x1 PUSH1 0x1 PUSH1 0xA0 SHL SUB DUP3 AND DUP3 SUB PUSH2 0x616 JUMPI JUMP JUMPDEST PUSH1 0x0 DUP1 REVERT JUMPDEST SWAP1 PUSH1 0x1F DUP1 NOT SWAP2 ADD AND DUP2 ADD SWAP1 DUP2 LT PUSH8 0xFFFFFFFFFFFFFFFF DUP3 GT OR PUSH2 0x63D JUMPI PUSH1 0x40 MSTORE JUMP JUMPDEST PUSH4 0x4E487B71 PUSH1 0xE0 SHL PUSH1 0x0 MSTORE PUSH1 0x41 PUSH1 0x4 MSTORE PUSH1 0x24 PUSH1 0x0 REVERT JUMPDEST PUSH1 0x0 SLOAD PUSH1 0x1 PUSH1 0x1 PUSH1 0xA0 SHL SUB AND CALLER SUB PUSH2 0x667 JUMPI JUMP JUMPDEST PUSH4 0x118CDAA7 PUSH1 0xE0 SHL PUSH1 0x0 MSTORE CALLER PUSH1 0x4 MSTORE PUSH1 0x24 PUSH1 0x0 REVERT INVALID PUSH1 0x80 PUSH1 0x40 MSTORE CALLVALUE PUSH2 0x5A7 JUMPI PUSH2 0x268F DUP1 CODESIZE SUB DUP1 PUSH2 0x19 DUP2 PUSH2 0x5AC JUMP JUMPDEST SWAP3 DUP4 CODECOPY DUP2 ADD SWAP1 PUSH2 0x140 DUP2 DUP4 SUB SLT PUSH2 0x5A7 JUMPI PUSH2 0x33 DUP2 PUSH2 0x5D1 JUMP JUMPDEST PUSH2 0x3F PUSH1 0x20 DUP4 ADD PUSH2 0x5D1 JUMP JUMPDEST SWAP2 PUSH2 0x4C PUSH1 0x40 DUP3 ADD PUSH2 0x5D1 JUMP JUMPDEST PUSH1 0x60 DUP3 ADD MLOAD SWAP1 PUSH1 0x80 DUP4 ADD MLOAD SWAP5 PUSH1 0xA0 DUP5 ADD MLOAD SWAP1 PUSH1 0xC0 DUP6 ADD MLOAD SWAP3 PUSH2 0x70 PUSH1 0xE0 DUP8 ADD PUSH2 0x5D1 JUMP JUMPDEST PUSH2 0x100 DUP8 ADD MLOAD SWAP1 SWAP7 SWAP1 PUSH1 0x1 PUSH1 0x1 PUSH1 0x40 SHL SUB DUP2 GT PUSH2 0x5A7 JUMPI DUP2 ADD DUP11 PUSH1 0x1F DUP3 ADD SLT ISZERO PUSH2 0x5A7 JUMPI DUP1 MLOAD SWAP1 PUSH1 0x1 PUSH1 0x1 PUSH1 0x40 SHL SUB DUP3 GT PUSH2 0x2ED JUMPI PUSH1 0x20 SWAP12 DUP13 PUSH1 0x60 PUSH2 0xB9 DUP3 DUP7 PUSH1 0x5 SHL ADD PUSH2 0x5AC JUMP JUMPDEST SWAP15 DUP16 DUP7 DUP2 MSTORE ADD SWAP5 MUL DUP4 ADD ADD SWAP2 DUP2 DUP4 GT PUSH2 0x5A7 JUMPI PUSH1 0x20 ADD SWAP3 JUMPDEST DUP3 DUP5 LT PUSH2 0x558 JUMPI POP POP POP POP PUSH2 0x120 PUSH2 0xE9 SWAP2 ADD PUSH2 0x5D1 JUMP JUMPDEST SWAP2 CALLER ISZERO PUSH2 0x542 JUMPI PUSH1 0x0 DUP1 SLOAD PUSH1 0x40 MLOAD SWAP10 SWAP2 CALLER SWAP1 PUSH1 0x1 PUSH1 0x1 PUSH1 0xA0 SHL SUB DUP4 AND SWAP1 PUSH32 0x8BE0079C531659141344CD1FD0A4F28419497F9722A3DAAFE3B4186F6B6457E0 SWAP1 DUP1 LOG3 PUSH1 0x1 PUSH1 0x1 PUSH1 0xA8 SHL SUB NOT AND CALLER PUSH1 0xFF PUSH1 0xA0 SHL NOT AND OR PUSH1 0x0 SSTORE PUSH1 0x1 DUP1 SSTORE PUSH1 0x1 PUSH1 0x1 PUSH1 0xA0 SHL SUB AND SWAP8 DUP9 ISZERO PUSH2 0x500 JUMPI POP PUSH1 0x1 PUSH1 0x1 PUSH1 0xA0 SHL SUB AND SWAP1 DUP2 ISZERO PUSH2 0x4BB JUMPI PUSH1 0x1 PUSH1 0x1 PUSH1 0xA0 SHL SUB AND SWAP2 DUP3 ISZERO PUSH2 0x481 JUMPI DUP10 MLOAD ISZERO PUSH2 0x43C JUMPI PUSH1 0x1 PUSH1 0x1 PUSH1 0xA0 SHL SUB AND SWAP7 DUP8 ISZERO PUSH2 0x3F7 JUMPI PUSH1 0x1 DUP1 PUSH1 0xA0 SHL SUB NOT PUSH1 0x2 SLOAD AND OR PUSH1 0x2 SSTORE PUSH1 0x1 DUP1 PUSH1 0xA0 SHL SUB NOT PUSH1 0x4 SLOAD AND OR PUSH1 0x4 SSTORE PUSH1 0x1 DUP1 PUSH1 0xA0 SHL SUB NOT PUSH1 0x5 SLOAD AND OR PUSH1 0x5 SSTORE PUSH1 0x6 SSTORE PUSH1 0x7 SSTORE PUSH1 0x8 SSTORE PUSH1 0x1 DUP1 PUSH1 0xA0 SHL SUB AND PUSH1 0x1 DUP1 PUSH1 0xA0 SHL SUB NOT PUSH1 0x3 SLOAD AND OR PUSH1 0x3 SSTORE PUSH1 0x0 JUMPDEST DUP4 MLOAD DUP2 LT ISZERO PUSH2 0x382 JUMPI PUSH1 0x20 PUSH2 0x1F5 DUP3 DUP7 PUSH2 0x5E5 JUMP JUMPDEST MLOAD ADD MLOAD ISZERO PUSH2 0x33D JUMPI PUSH2 0x207 DUP2 DUP6 PUSH2 0x5E5 JUMP JUMPDEST MLOAD MLOAD ISZERO PUSH2 0x303 JUMPI PUSH2 0x218 DUP2 DUP6 PUSH2 0x5E5 JUMP JUMPDEST MLOAD MLOAD SWAP1 PUSH1 0xC SLOAD SWAP2 PUSH9 0x10000000000000000 DUP4 LT ISZERO PUSH2 0x2ED JUMPI PUSH1 0x1 DUP4 ADD DUP1 PUSH1 0xC SSTORE DUP4 LT ISZERO PUSH2 0x2D7 JUMPI PUSH1 0x1 SWAP3 PUSH1 0xC PUSH1 0x0 MSTORE PUSH1 0x20 PUSH1 0x0 KECCAK256 ADD SSTORE PUSH2 0x258 DUP2 DUP7 PUSH2 0x5E5 JUMP JUMPDEST MLOAD PUSH2 0x263 DUP3 DUP8 PUSH2 0x5E5 JUMP JUMPDEST MLOAD MLOAD PUSH1 0x0 MSTORE PUSH1 0xF PUSH1 0x20 MSTORE PUSH1 0x2 PUSH1 0x40 DUP1 PUSH1 0x0 KECCAK256 SWAP3 DUP1 MLOAD DUP5 SSTORE PUSH1 0x20 DUP2 ADD MLOAD DUP7 DUP6 ADD SSTORE ADD MLOAD SWAP2 ADD SSTORE PUSH32 0xB751835A12376750BD69B4B4C0C1D306480284514D2FA88F72EDF3EEEA8515F6 PUSH1 0x40 PUSH2 0x2B5 DUP4 DUP9 PUSH2 0x5E5 JUMP JUMPDEST MLOAD MLOAD PUSH1 0x20 PUSH2 0x2C3 DUP6 DUP11 PUSH2 0x5E5 JUMP JUMPDEST MLOAD ADD MLOAD DUP3 MLOAD SWAP2 DUP3 MSTORE PUSH1 0x20 DUP3 ADD MSTORE LOG1 ADD PUSH2 0x1E0 JUMP JUMPDEST PUSH4 0x4E487B71 PUSH1 0xE0 SHL PUSH1 0x0 MSTORE PUSH1 0x32 PUSH1 0x4 MSTORE PUSH1 0x24 PUSH1 0x0 REVERT JUMPDEST PUSH4 0x4E487B71 PUSH1 0xE0 SHL PUSH1 0x0 MSTORE PUSH1 0x41 PUSH1 0x4 MSTORE PUSH1 0x24 PUSH1 0x0 REVERT JUMPDEST PUSH1 0x40 MLOAD PUSH3 0x461BCD PUSH1 0xE5 SHL DUP2 MSTORE PUSH1 0x20 PUSH1 0x4 DUP3 ADD MSTORE PUSH1 0x12 PUSH1 0x24 DUP3 ADD MSTORE PUSH18 0x125B9D985B1A59081C1C9BD91D58DD081251 PUSH1 0x72 SHL PUSH1 0x44 DUP3 ADD MSTORE PUSH1 0x64 SWAP1 REVERT JUMPDEST PUSH1 0x40 MLOAD PUSH3 0x461BCD PUSH1 0xE5 SHL DUP2 MSTORE PUSH1 0x20 PUSH1 0x4 DUP3 ADD MSTORE PUSH1 0x15 PUSH1 0x24 DUP3 ADD MSTORE PUSH32 0x496E76616C69642070726F647563742070726963650000000000000000000000 PUSH1 0x44 DUP3 ADD MSTORE PUSH1 0x64 SWAP1 REVERT JUMPDEST POP SWAP1 PUSH1 0x2 DUP2 GT PUSH2 0x3B2 JUMPI PUSH1 0xE SSTORE PUSH1 0x10 DUP1 SLOAD PUSH1 0x1 PUSH1 0x1 PUSH1 0xA0 SHL SUB NOT AND SWAP2 SWAP1 SWAP2 OR SWAP1 SSTORE PUSH1 0x40 MLOAD PUSH2 0x2095 SWAP1 DUP2 PUSH2 0x5FA DUP3 CODECOPY RETURN JUMPDEST PUSH1 0x40 MLOAD PUSH3 0x461BCD PUSH1 0xE5 SHL DUP2 MSTORE PUSH1 0x20 PUSH1 0x4 DUP3 ADD MSTORE PUSH1 0x14 PUSH1 0x24 DUP3 ADD MSTORE PUSH32 0x496E76616C69642066756E64696E672074797065000000000000000000000000 PUSH1 0x44 DUP3 ADD MSTORE PUSH1 0x64 SWAP1 REVERT JUMPDEST PUSH1 0x40 MLOAD PUSH3 0x461BCD PUSH1 0xE5 SHL DUP2 MSTORE PUSH1 0x20 PUSH1 0x4 DUP3 ADD MSTORE PUSH1 0x16 PUSH1 0x24 DUP3 ADD MSTORE PUSH32 0x496E76616C69642063616D706169676E2061646D696E00000000000000000000 PUSH1 0x44 DUP3 ADD MSTORE PUSH1 0x64 SWAP1 REVERT JUMPDEST PUSH1 0x40 MLOAD PUSH3 0x461BCD PUSH1 0xE5 SHL DUP2 MSTORE PUSH1 0x20 PUSH1 0x4 DUP3 ADD MSTORE PUSH1 0x14 PUSH1 0x24 DUP3 ADD MSTORE PUSH32 0x4E6F2070726F64756374732070726F7669646564000000000000000000000000 PUSH1 0x44 DUP3 ADD MSTORE PUSH1 0x64 SWAP1 REVERT JUMPDEST PUSH1 0x40 MLOAD PUSH3 0x461BCD PUSH1 0xE5 SHL DUP2 MSTORE PUSH1 0x20 PUSH1 0x4 DUP3 ADD MSTORE PUSH1 0x12 PUSH1 0x24 DUP3 ADD MSTORE PUSH18 0x125B9D985B1A5908199959481DD85B1B195D PUSH1 0x72 SHL PUSH1 0x44 DUP3 ADD MSTORE PUSH1 0x64 SWAP1 REVERT JUMPDEST PUSH1 0x40 MLOAD PUSH3 0x461BCD PUSH1 0xE5 SHL DUP2 MSTORE PUSH1 0x20 PUSH1 0x4 DUP3 ADD MSTORE PUSH1 0x1A PUSH1 0x24 DUP3 ADD MSTORE PUSH32 0x496E76616C69642062656E65666963696172792077616C6C6574000000000000 PUSH1 0x44 DUP3 ADD MSTORE PUSH1 0x64 SWAP1 REVERT JUMPDEST PUSH3 0x461BCD PUSH1 0xE5 SHL DUP2 MSTORE PUSH1 0x20 PUSH1 0x4 DUP3 ADD MSTORE PUSH1 0x14 PUSH1 0x24 DUP3 ADD MSTORE PUSH32 0x496E76616C696420555344432061646472657373000000000000000000000000 PUSH1 0x44 DUP3 ADD MSTORE PUSH1 0x64 SWAP1 REVERT JUMPDEST PUSH4 0x1E4FBDF7 PUSH1 0xE0 SHL PUSH1 0x0 MSTORE PUSH1 0x0 PUSH1 0x4 MSTORE PUSH1 0x24 PUSH1 0x0 REVERT JUMPDEST PUSH1 0x60 DUP5 DUP4 SUB SLT PUSH2 0x5A7 JUMPI PUSH1 0x40 MLOAD SWAP1 PUSH1 0x60 DUP3 ADD SWAP1 PUSH1 0x1 PUSH1 0x1 PUSH1 0x40 SHL SUB DUP3 GT DUP4 DUP4 LT OR PUSH2 0x2ED JUMPI PUSH1 0x60 SWAP3 PUSH1 0x20 SWAP3 PUSH1 0x40 MSTORE DUP7 MLOAD DUP2 MSTORE DUP3 DUP8 ADD MLOAD DUP4 DUP3 ADD MSTORE PUSH1 0x40 DUP8 ADD MLOAD PUSH1 0x40 DUP3 ADD MSTORE DUP2 MSTORE ADD SWAP4 ADD SWAP3 PUSH2 0xD1 JUMP JUMPDEST PUSH1 0x0 DUP1 REVERT JUMPDEST PUSH1 0x40 MLOAD SWAP2 SWAP1 PUSH1 0x1F ADD PUSH1 0x1F NOT AND DUP3 ADD PUSH1 0x1 PUSH1 0x1 PUSH1 0x40 SHL SUB DUP2 GT DUP4 DUP3 LT OR PUSH2 0x2ED JUMPI PUSH1 0x40 MSTORE JUMP JUMPDEST MLOAD SWAP1 PUSH1 0x1 PUSH1 0x1 PUSH1 0xA0 SHL SUB DUP3 AND DUP3 SUB PUSH2 0x5A7 JUMPI JUMP JUMPDEST DUP1 MLOAD DUP3 LT ISZERO PUSH2 0x2D7 JUMPI PUSH1 0x20 SWAP2 PUSH1 0x5 SHL ADD ADD SWAP1 JUMP INVALID PUSH1 0x80 DUP1 PUSH1 0x40 MSTORE PUSH1 0x4 CALLDATASIZE LT ISZERO PUSH2 0x13 JUMPI PUSH1 0x0 DUP1 REVERT JUMPDEST PUSH1 0x0 SWAP1 DUP2 CALLDATALOAD PUSH1 0xE0 SHR SWAP1 DUP2 PUSH4 0x25B4F65F EQ PUSH2 0x1B07 JUMPI POP DUP1 PUSH4 0x29DCB0CF EQ PUSH2 0x1AE9 JUMPI DUP1 PUSH4 0x3E413BEE EQ PUSH2 0x1AC0 JUMPI DUP1 PUSH4 0x3F4BA83A EQ PUSH2 0x1A52 JUMPI DUP1 PUSH4 0x42235DA6 EQ PUSH2 0x1A34 JUMPI DUP1 PUSH4 0x42AF1884 EQ PUSH2 0x190F JUMPI DUP1 PUSH4 0x44D3498A EQ PUSH2 0x18A2 JUMPI DUP1 PUSH4 0x47428E7B EQ PUSH2 0x17EC JUMPI DUP1 PUSH4 0x4BB278F3 EQ PUSH2 0x1668 JUMPI DUP1 PUSH4 0x5C975ABB EQ PUSH2 0x1643 JUMPI DUP1 PUSH4 0x5EE95CAE EQ PUSH2 0x14B5 JUMPI DUP1 PUSH4 0x66BFF1DB EQ PUSH2 0x148B JUMPI DUP1 PUSH4 0x715018A6 EQ PUSH2 0x1431 JUMPI DUP1 PUSH4 0x72AFDDF0 EQ PUSH2 0x1408 JUMPI DUP1 PUSH4 0x7ACC0B20 EQ PUSH2 0x13B8 JUMPI DUP1 PUSH4 0x8456CB59 EQ PUSH2 0x1357 JUMPI DUP1 PUSH4 0x8527D58F EQ PUSH2 0xF65 JUMPI DUP1 PUSH4 0x8DA5CB5B EQ PUSH2 0xF3E JUMPI DUP1 PUSH4 0x95CCEA67 EQ PUSH2 0xD78 JUMPI DUP1 PUSH4 0x9C3BDDB2 EQ PUSH2 0xCB1 JUMPI DUP1 PUSH4 0xA001ECDD EQ PUSH2 0xC93 JUMPI DUP1 PUSH4 0xB3F05B97 EQ PUSH2 0xC70 JUMPI DUP1 PUSH4 0xBC072C2C EQ PUSH2 0xB53 JUMPI DUP1 PUSH4 0xC5C4744C EQ PUSH2 0xB35 JUMPI DUP1 PUSH4 0xC9788631 EQ PUSH2 0xB0C JUMPI DUP1 PUSH4 0xCB51BBA9 EQ PUSH2 0xAD2 JUMPI DUP1 PUSH4 0xDD5934B3 EQ PUSH2 0x907 JUMPI DUP1 PUSH4 0xE2BBB158 EQ PUSH2 0x30E JUMPI DUP1 PUSH4 0xEBD692EA EQ PUSH2 0x2E4 JUMPI DUP1 PUSH4 0xEC823971 EQ PUSH2 0x25B JUMPI DUP1 PUSH4 0xF25F4B56 EQ PUSH2 0x232 JUMPI DUP1 PUSH4 0xF2FDE38B EQ PUSH2 0x1AC JUMPI PUSH4 0xFA8AB0EE EQ PUSH2 0x18C JUMPI PUSH1 0x0 DUP1 REVERT JUMPDEST CALLVALUE PUSH2 0x1A9 JUMPI DUP1 PUSH1 0x3 NOT CALLDATASIZE ADD SLT PUSH2 0x1A9 JUMPI PUSH1 0x20 PUSH1 0xE SLOAD PUSH1 0x40 MLOAD SWAP1 DUP2 MSTORE RETURN JUMPDEST DUP1 REVERT JUMPDEST POP CALLVALUE PUSH2 0x1A9 JUMPI PUSH1 0x20 CALLDATASIZE PUSH1 0x3 NOT ADD SLT PUSH2 0x1A9 JUMPI PUSH2 0x1C6 PUSH2 0x1B46 JUMP JUMPDEST PUSH2 0x1CE PUSH2 0x1EAE JUMP JUMPDEST PUSH1 0x1 PUSH1 0x1 PUSH1 0xA0 SHL SUB AND DUP1 ISZERO PUSH2 0x21E JUMPI DUP2 SLOAD PUSH1 0x1 PUSH1 0x1 PUSH1 0xA0 SHL SUB NOT DUP2 AND DUP3 OR DUP4 SSTORE PUSH1 0x1 PUSH1 0x1 PUSH1 0xA0 SHL SUB AND PUSH32 0x8BE0079C531659141344CD1FD0A4F28419497F9722A3DAAFE3B4186F6B6457E0 DUP4 DUP1 LOG3 DUP1 RETURN JUMPDEST PUSH4 0x1E4FBDF7 PUSH1 0xE0 SHL DUP3 MSTORE PUSH1 0x4 DUP3 SWAP1 MSTORE PUSH1 0x24 DUP3 REVERT JUMPDEST POP CALLVALUE PUSH2 0x1A9 JUMPI DUP1 PUSH1 0x3 NOT CALLDATASIZE ADD SLT PUSH2 0x1A9 JUMPI PUSH1 0x5 SLOAD PUSH1 0x40 MLOAD PUSH1 0x1 PUSH1 0x1 PUSH1 0xA0 SHL SUB SWAP1 SWAP2 AND DUP2 MSTORE PUSH1 0x20 SWAP1 RETURN JUMPDEST POP CALLVALUE PUSH2 0x1A9 JUMPI PUSH1 0x20 CALLDATASIZE PUSH1 0x3 NOT ADD SLT PUSH2 0x1A9 JUMPI PUSH2 0x275 PUSH2 0x1B46 JUMP JUMPDEST PUSH2 0x27D PUSH2 0x1EAE JUMP JUMPDEST PUSH1 0x1 PUSH1 0x1 PUSH1 0xA0 SHL SUB AND DUP1 ISZERO PUSH2 0x2A7 JUMPI PUSH12 0xFFFFFFFFFFFFFFFFFFFFFFFF PUSH1 0xA0 SHL PUSH1 0x10 SLOAD AND OR PUSH1 0x10 SSTORE DUP1 RETURN JUMPDEST PUSH1 0x40 MLOAD PUSH3 0x461BCD PUSH1 0xE5 SHL DUP2 MSTORE PUSH1 0x20 PUSH1 0x4 DUP3 ADD MSTORE PUSH1 0x15 PUSH1 0x24 DUP3 ADD MSTORE PUSH21 0x496E76616C69642061646D696E2061646472657373 PUSH1 0x58 SHL PUSH1 0x44 DUP3 ADD MSTORE PUSH1 0x64 SWAP1 REVERT JUMPDEST POP CALLVALUE PUSH2 0x1A9 JUMPI PUSH1 0x20 CALLDATASIZE PUSH1 0x3 NOT ADD SLT PUSH2 0x1A9 JUMPI PUSH1 0x40 PUSH1 0x20 SWAP2 PUSH1 0x4 CALLDATALOAD DUP2 MSTORE PUSH1 0xD DUP4 MSTORE KECCAK256 SLOAD PUSH1 0x40 MLOAD SWAP1 DUP2 MSTORE RETURN JUMPDEST POP CALLVALUE PUSH2 0x1A9 JUMPI PUSH2 0x31D CALLDATASIZE PUSH2 0x1B30 JUMP JUMPDEST SWAP1 PUSH2 0x326 PUSH2 0x1ED7 JUMP JUMPDEST PUSH2 0x32E PUSH2 0x1EF9 JUMP JUMPDEST DUP1 DUP4 MSTORE PUSH1 0xF PUSH1 0x20 MSTORE PUSH1 0x40 DUP4 KECCAK256 PUSH1 0x40 MLOAD PUSH2 0x346 DUP2 PUSH2 0x1B8D JUMP JUMPDEST DUP2 SLOAD DUP2 MSTORE PUSH1 0x40 PUSH1 0x2 PUSH1 0x1 DUP5 ADD SLOAD SWAP4 PUSH1 0x20 DUP5 ADD SWAP5 DUP6 MSTORE ADD SLOAD SWAP2 ADD SWAP1 DUP2 MSTORE PUSH1 0xFF PUSH1 0xA SLOAD AND PUSH2 0x8CA JUMPI DUP2 MLOAD ISZERO PUSH2 0x88D JUMPI DUP1 DUP5 SWAP2 MLOAD PUSH2 0x82B JUMPI JUMPDEST POP PUSH2 0x387 SWAP2 MLOAD PUSH2 0x1D15 JUMP JUMPDEST SWAP2 PUSH2 0x2710 PUSH2 0x397 PUSH1 0x8 SLOAD DUP6 PUSH2 0x1D15 JUMP JUMPDEST DIV SWAP2 PUSH2 0x3A3 DUP4 DUP6 PUSH2 0x1CF2 JUMP JUMPDEST PUSH1 0x2 SLOAD PUSH1 0x40 MLOAD PUSH4 0x23B872DD PUSH1 0xE0 SHL DUP2 MSTORE CALLER PUSH1 0x4 DUP3 ADD MSTORE ADDRESS PUSH1 0x24 DUP3 ADD MSTORE PUSH1 0x44 DUP2 ADD DUP8 SWAP1 MSTORE SWAP1 PUSH1 0x20 SWAP1 DUP3 SWAP1 PUSH1 0x64 SWAP1 DUP3 SWAP1 DUP12 SWAP1 PUSH1 0x1 PUSH1 0x1 PUSH1 0xA0 SHL SUB AND GAS CALL DUP1 ISZERO PUSH2 0x801 JUMPI PUSH2 0x3F5 SWAP2 DUP9 SWAP2 PUSH2 0x80C JUMPI JUMPDEST POP PUSH2 0x1D40 JUMP JUMPDEST DUP4 PUSH2 0x75A JUMPI JUMPDEST PUSH1 0x3 SLOAD PUSH1 0x1 PUSH1 0x1 PUSH1 0xA0 SHL SUB AND DUP1 EXTCODESIZE ISZERO PUSH2 0x756 JUMPI PUSH1 0x40 MLOAD PUSH4 0xAB714FB PUSH1 0xE1 SHL DUP2 MSTORE CALLER PUSH1 0x4 DUP3 ADD MSTORE PUSH1 0x24 DUP2 ADD DUP5 SWAP1 MSTORE PUSH1 0x44 DUP2 ADD DUP6 SWAP1 MSTORE SWAP1 DUP8 SWAP1 DUP2 SWAP1 DUP4 SWAP1 PUSH1 0x64 SWAP1 DUP3 SWAP1 DUP5 SWAP1 GAS CALL SWAP2 DUP3 PUSH2 0x741 JUMPI JUMPDEST POP POP PUSH2 0x6C9 JUMPI DUP6 DUP6 DUP2 PUSH1 0x3 RETURNDATASIZE GT PUSH2 0x6B9 JUMPI JUMPDEST PUSH4 0x8C379A0 EQ PUSH2 0x5A3 JUMPI JUMPDEST DUP2 RETURNDATASIZE ISZERO PUSH2 0x597 JUMPI POP RETURNDATASIZE PUSH8 0xFFFFFFFFFFFFFFFF DUP2 GT PUSH2 0x583 JUMPI PUSH2 0x4DD DUP4 SWAP3 PUSH1 0x20 SWAP3 PUSH1 0x40 MLOAD SWAP1 PUSH2 0x49A DUP6 PUSH1 0x1F NOT PUSH1 0x1F DUP5 ADD AND ADD DUP4 PUSH2 0x1BBF JUMP JUMPDEST DUP2 MSTORE DUP5 DUP5 RETURNDATASIZE SWAP3 ADD RETURNDATACOPY JUMPDEST PUSH1 0x2 SLOAD PUSH1 0x40 MLOAD PUSH4 0xA9059CBB PUSH1 0xE0 SHL DUP2 MSTORE CALLER PUSH1 0x4 DUP3 ADD MSTORE PUSH1 0x24 DUP2 ADD SWAP3 SWAP1 SWAP3 MSTORE SWAP1 SWAP4 DUP5 SWAP3 PUSH1 0x1 PUSH1 0x1 PUSH1 0xA0 SHL SUB SWAP1 SWAP3 AND SWAP2 DUP4 SWAP2 SWAP1 DUP3 SWAP1 PUSH1 0x44 DUP3 ADD SWAP1 JUMP JUMPDEST SUB SWAP3 GAS CALL SWAP1 DUP2 ISZERO PUSH2 0x578 JUMPI PUSH2 0x4F8 SWAP3 SWAP2 PUSH2 0x549 JUMPI JUMPDEST POP PUSH2 0x1E3F JUMP JUMPDEST PUSH1 0x40 MLOAD PUSH3 0x461BCD PUSH1 0xE5 SHL DUP2 MSTORE PUSH1 0x20 PUSH1 0x4 DUP3 ADD MSTORE PUSH1 0x24 DUP1 DUP3 ADD MSTORE PUSH32 0x4E4654206D696E74206661696C65642077697468206C6F772D6C6576656C2065 PUSH1 0x44 DUP3 ADD MSTORE PUSH4 0x393937B9 PUSH1 0xE1 SHL PUSH1 0x64 DUP3 ADD MSTORE PUSH1 0x84 SWAP1 REVERT JUMPDEST PUSH2 0x56B SWAP2 POP PUSH1 0x20 RETURNDATASIZE PUSH1 0x20 GT PUSH2 0x571 JUMPI JUMPDEST PUSH2 0x563 DUP2 DUP4 PUSH2 0x1BBF JUMP JUMPDEST DUP2 ADD SWAP1 PUSH2 0x1D28 JUMP JUMPDEST DUP3 PUSH2 0x4F2 JUMP JUMPDEST POP RETURNDATASIZE PUSH2 0x559 JUMP JUMPDEST PUSH1 0x40 MLOAD RETURNDATASIZE DUP5 DUP3 RETURNDATACOPY RETURNDATASIZE SWAP1 REVERT JUMPDEST PUSH4 0x4E487B71 PUSH1 0xE0 SHL DUP4 MSTORE PUSH1 0x41 PUSH1 0x4 MSTORE PUSH1 0x24 DUP4 REVERT JUMPDEST SWAP1 PUSH2 0x4DD PUSH1 0x20 SWAP2 PUSH2 0x4A3 JUMP JUMPDEST DUP2 PUSH2 0x5AC PUSH2 0x1DC7 JUMP JUMPDEST SWAP1 DUP2 PUSH2 0x5B9 JUMPI POP POP PUSH2 0x463 JUMP JUMPDEST PUSH1 0x2 SLOAD PUSH1 0x40 MLOAD PUSH4 0xA9059CBB PUSH1 0xE0 SHL DUP2 MSTORE CALLER PUSH1 0x4 DUP3 ADD MSTORE PUSH1 0x24 DUP2 ADD SWAP5 SWAP1 SWAP5 MSTORE SWAP1 SWAP3 SWAP1 PUSH1 0x20 SWAP1 DUP3 SWAP1 PUSH1 0x44 SWAP1 DUP3 SWAP1 DUP8 SWAP1 PUSH1 0x1 PUSH1 0x1 PUSH1 0xA0 SHL SUB AND GAS CALL SWAP1 DUP2 ISZERO PUSH2 0x6AE JUMPI PUSH1 0x44 SWAP3 SWAP2 PUSH2 0x60F SWAP2 PUSH2 0x681 SWAP6 SWAP2 PUSH2 0x68F JUMPI POP PUSH2 0x1E3F JUMP JUMPDEST PUSH1 0x40 MLOAD SWAP1 PUSH2 0x659 PUSH1 0x31 DUP4 PUSH1 0x20 DUP2 ADD SWAP4 PUSH17 0x27232A1036B4B73A103330B4B632B21D1 PUSH1 0x7D SHL DUP6 MSTORE PUSH2 0x648 DUP2 MLOAD DUP1 SWAP3 PUSH1 0x20 DUP7 DUP7 ADD SWAP2 ADD PUSH2 0x1E8B JUMP JUMPDEST DUP2 ADD SUB ADD PUSH1 0x1F NOT DUP2 ADD DUP5 MSTORE DUP4 PUSH2 0x1BBF JUMP JUMPDEST PUSH1 0x40 MLOAD SWAP4 DUP5 SWAP3 PUSH3 0x461BCD PUSH1 0xE5 SHL DUP5 MSTORE PUSH1 0x20 PUSH1 0x4 DUP6 ADD MSTORE MLOAD DUP1 SWAP3 DUP2 PUSH1 0x24 DUP7 ADD MSTORE DUP6 DUP6 ADD SWAP1 PUSH2 0x1E8B JUMP JUMPDEST PUSH1 0x1F ADD PUSH1 0x1F NOT AND DUP2 ADD SUB ADD SWAP1 REVERT JUMPDEST PUSH2 0x6A8 SWAP2 POP PUSH1 0x20 RETURNDATASIZE PUSH1 0x20 GT PUSH2 0x571 JUMPI PUSH2 0x563 DUP2 DUP4 PUSH2 0x1BBF JUMP JUMPDEST DUP6 PUSH2 0x4F2 JUMP JUMPDEST PUSH1 0x40 MLOAD RETURNDATASIZE DUP6 DUP3 RETURNDATACOPY RETURNDATASIZE SWAP1 REVERT JUMPDEST POP PUSH1 0x4 DUP3 DUP1 RETURNDATACOPY DUP2 MLOAD PUSH1 0xE0 SHR PUSH2 0x458 JUMP JUMPDEST PUSH2 0x6D5 DUP2 PUSH1 0x9 SLOAD PUSH2 0x1DBA JUMP JUMPDEST PUSH1 0x9 SSTORE DUP2 DUP7 MSTORE PUSH1 0xB PUSH1 0x20 MSTORE PUSH2 0x6EF PUSH1 0x40 DUP8 KECCAK256 SWAP2 DUP3 SLOAD PUSH2 0x1DBA JUMP JUMPDEST SWAP1 SSTORE DUP5 MSTORE PUSH1 0xD PUSH1 0x20 MSTORE PUSH2 0x707 PUSH1 0x40 DUP6 KECCAK256 SWAP2 DUP3 SLOAD PUSH2 0x1DBA JUMP JUMPDEST SWAP1 SSTORE PUSH1 0x40 MLOAD SWAP2 DUP3 MSTORE PUSH1 0x20 DUP3 ADD MSTORE PUSH32 0x90890809C654F11D6E72A28FA60149770A0D11EC6C92319D6CEB2BB0A4EA1A15 PUSH1 0x40 CALLER SWAP3 LOG2 PUSH1 0x1 DUP1 SSTORE DUP1 RETURN JUMPDEST DUP2 PUSH2 0x74B SWAP2 PUSH2 0x1BBF JUMP JUMPDEST PUSH2 0x756 JUMPI DUP7 CODESIZE PUSH2 0x446 JUMP JUMPDEST DUP7 DUP1 REVERT JUMPDEST PUSH1 0x2 SLOAD PUSH1 0x5 SLOAD PUSH1 0x40 MLOAD PUSH4 0xA9059CBB PUSH1 0xE0 SHL DUP2 MSTORE PUSH1 0x1 PUSH1 0x1 PUSH1 0xA0 SHL SUB SWAP2 DUP3 AND PUSH1 0x4 DUP3 ADD MSTORE PUSH1 0x24 DUP2 ADD DUP8 SWAP1 MSTORE SWAP2 PUSH1 0x20 SWAP2 DUP4 SWAP2 PUSH1 0x44 SWAP2 DUP4 SWAP2 DUP13 SWAP2 AND GAS CALL SWAP1 DUP2 ISZERO PUSH2 0x801 JUMPI DUP8 SWAP2 PUSH2 0x7E2 JUMPI JUMPDEST POP PUSH2 0x3FB JUMPI PUSH1 0x40 MLOAD PUSH3 0x461BCD PUSH1 0xE5 SHL DUP2 MSTORE PUSH1 0x20 PUSH1 0x4 DUP3 ADD MSTORE PUSH1 0x13 PUSH1 0x24 DUP3 ADD MSTORE PUSH19 0x119959481D1C985B9CD9995C8819985A5B1959 PUSH1 0x6A SHL PUSH1 0x44 DUP3 ADD MSTORE PUSH1 0x64 SWAP1 REVERT JUMPDEST PUSH2 0x7FB SWAP2 POP PUSH1 0x20 RETURNDATASIZE PUSH1 0x20 GT PUSH2 0x571 JUMPI PUSH2 0x563 DUP2 DUP4 PUSH2 0x1BBF JUMP JUMPDEST CODESIZE PUSH2 0x7A2 JUMP JUMPDEST PUSH1 0x40 MLOAD RETURNDATASIZE DUP10 DUP3 RETURNDATACOPY RETURNDATASIZE SWAP1 REVERT JUMPDEST PUSH2 0x825 SWAP2 POP PUSH1 0x20 RETURNDATASIZE PUSH1 0x20 GT PUSH2 0x571 JUMPI PUSH2 0x563 DUP2 DUP4 PUSH2 0x1BBF JUMP JUMPDEST CODESIZE PUSH2 0x3EF JUMP JUMPDEST SWAP1 POP DUP3 DUP6 MSTORE PUSH1 0xD PUSH1 0x20 MSTORE PUSH2 0x843 DUP5 PUSH1 0x40 DUP8 KECCAK256 SLOAD PUSH2 0x1DBA JUMP JUMPDEST SWAP1 MLOAD LT PUSH2 0x851 JUMPI DUP3 CODESIZE PUSH2 0x37C JUMP JUMPDEST PUSH1 0x40 MLOAD PUSH3 0x461BCD PUSH1 0xE5 SHL DUP2 MSTORE PUSH1 0x20 PUSH1 0x4 DUP3 ADD MSTORE PUSH1 0x14 PUSH1 0x24 DUP3 ADD MSTORE PUSH20 0x115E18D959591CC81CDD5C1C1B1E481B1A5B5A5D PUSH1 0x62 SHL PUSH1 0x44 DUP3 ADD MSTORE PUSH1 0x64 SWAP1 REVERT JUMPDEST PUSH1 0x40 MLOAD PUSH3 0x461BCD PUSH1 0xE5 SHL DUP2 MSTORE PUSH1 0x20 PUSH1 0x4 DUP3 ADD MSTORE PUSH1 0x15 PUSH1 0x24 DUP3 ADD MSTORE PUSH21 0x50726F64756374206E6F7420617661696C61626C65 PUSH1 0x58 SHL PUSH1 0x44 DUP3 ADD MSTORE PUSH1 0x64 SWAP1 REVERT JUMPDEST PUSH1 0x40 MLOAD PUSH3 0x461BCD PUSH1 0xE5 SHL DUP2 MSTORE PUSH1 0x20 PUSH1 0x4 DUP3 ADD MSTORE PUSH1 0x15 PUSH1 0x24 DUP3 ADD MSTORE PUSH21 0x10D85B5C185A59DB881A5CC8199A5B985B1A5E9959 PUSH1 0x5A SHL PUSH1 0x44 DUP3 ADD MSTORE PUSH1 0x64 SWAP1 REVERT JUMPDEST POP CALLVALUE PUSH2 0x1A9 JUMPI PUSH1 0x60 CALLDATASIZE PUSH1 0x3 NOT ADD SLT PUSH2 0x1A9 JUMPI PUSH1 0x40 MLOAD SWAP1 PUSH2 0x926 DUP3 PUSH2 0x1B8D JUMP JUMPDEST PUSH1 0x4 CALLDATALOAD DUP3 MSTORE PUSH1 0x20 DUP3 ADD PUSH1 0x24 CALLDATALOAD DUP2 MSTORE PUSH1 0x40 DUP4 ADD SWAP1 PUSH1 0x44 CALLDATALOAD DUP3 MSTORE PUSH1 0x1 DUP1 PUSH1 0xA0 SHL SUB DUP4 SLOAD AND CALLER EQ DUP1 ISZERO PUSH2 0xABE JUMPI JUMPDEST PUSH2 0x95A SWAP1 PUSH2 0x1C70 JUMP JUMPDEST PUSH2 0x966 DUP2 MLOAD ISZERO ISZERO PUSH2 0x1D7E JUMP JUMPDEST DUP4 MLOAD ISZERO PUSH2 0xA84 JUMPI DUP4 MLOAD DUP4 MSTORE PUSH1 0xF PUSH1 0x20 MSTORE PUSH1 0x1 PUSH1 0x40 DUP5 KECCAK256 ADD SLOAD PUSH2 0xA46 JUMPI DUP4 MLOAD DUP4 MSTORE PUSH1 0xF PUSH1 0x20 MSTORE PUSH1 0x40 DUP4 KECCAK256 DUP5 MLOAD SWAP1 DUP2 DUP2 SSTORE DUP3 MLOAD PUSH1 0x1 DUP3 ADD SSTORE PUSH1 0x2 DUP5 MLOAD SWAP2 ADD SSTORE PUSH1 0xC SLOAD PUSH9 0x10000000000000000 DUP2 LT ISZERO PUSH2 0xA32 JUMPI SWAP5 PUSH2 0xA0A PUSH2 0xA2C SWAP3 PUSH2 0x9F1 DUP9 PUSH1 0x1 PUSH32 0xBB34BC6BCDD4BA28B7DE4669C2E7D94D1B828B2A6A14B82991E087B20D73549 SWAP10 SWAP11 ADD PUSH1 0xC SSTORE PUSH2 0x1B5C JUMP JUMPDEST SWAP1 SWAP2 SWAP1 DUP3 SLOAD SWAP1 PUSH1 0x3 SHL SWAP2 DUP3 SHL SWAP2 PUSH1 0x0 NOT SWAP1 SHL NOT AND OR SWAP1 SSTORE JUMP JUMPDEST MLOAD SWAP2 MLOAD SWAP3 MLOAD PUSH1 0x40 MLOAD SWAP4 DUP5 SWAP4 DUP5 PUSH1 0x40 SWAP2 SWAP5 SWAP4 SWAP3 PUSH1 0x60 DUP3 ADD SWAP6 DUP3 MSTORE PUSH1 0x20 DUP3 ADD MSTORE ADD MSTORE JUMP JUMPDEST SUB SWAP1 LOG1 DUP1 RETURN JUMPDEST PUSH4 0x4E487B71 PUSH1 0xE0 SHL DUP6 MSTORE PUSH1 0x41 PUSH1 0x4 MSTORE PUSH1 0x24 DUP6 REVERT JUMPDEST PUSH1 0x40 MLOAD PUSH3 0x461BCD PUSH1 0xE5 SHL DUP2 MSTORE PUSH1 0x20 PUSH1 0x4 DUP3 ADD MSTORE PUSH1 0x16 PUSH1 0x24 DUP3 ADD MSTORE PUSH22 0x50726F6475637420616C726561647920657869737473 PUSH1 0x50 SHL PUSH1 0x44 DUP3 ADD MSTORE PUSH1 0x64 SWAP1 REVERT JUMPDEST PUSH1 0x40 MLOAD PUSH3 0x461BCD PUSH1 0xE5 SHL DUP2 MSTORE PUSH1 0x20 PUSH1 0x4 DUP3 ADD MSTORE PUSH1 0x12 PUSH1 0x24 DUP3 ADD MSTORE PUSH18 0x125B9D985B1A59081C1C9BD91D58DD081251 PUSH1 0x72 SHL PUSH1 0x44 DUP3 ADD MSTORE PUSH1 0x64 SWAP1 REVERT JUMPDEST POP PUSH1 0x10 SLOAD PUSH1 0x1 PUSH1 0x1 PUSH1 0xA0 SHL SUB AND CALLER EQ PUSH2 0x951 JUMP JUMPDEST POP CALLVALUE PUSH2 0x1A9 JUMPI PUSH1 0x20 CALLDATASIZE PUSH1 0x3 NOT ADD SLT PUSH2 0x1A9 JUMPI PUSH1 0x4 CALLDATALOAD SWAP1 PUSH1 0xC SLOAD DUP3 LT ISZERO PUSH2 0x1A9 JUMPI PUSH1 0x20 PUSH2 0xAFD DUP4 PUSH2 0x1B5C JUMP JUMPDEST SWAP1 SLOAD SWAP1 PUSH1 0x3 SHL SHR PUSH1 0x40 MLOAD SWAP1 DUP2 MSTORE RETURN JUMPDEST POP CALLVALUE PUSH2 0x1A9 JUMPI DUP1 PUSH1 0x3 NOT CALLDATASIZE ADD SLT PUSH2 0x1A9 JUMPI PUSH1 0x4 SLOAD PUSH1 0x40 MLOAD PUSH1 0x1 PUSH1 0x1 PUSH1 0xA0 SHL SUB SWAP1 SWAP2 AND DUP2 MSTORE PUSH1 0x20 SWAP1 RETURN JUMPDEST POP CALLVALUE PUSH2 0x1A9 JUMPI DUP1 PUSH1 0x3 NOT CALLDATASIZE ADD SLT PUSH2 0x1A9 JUMPI PUSH1 0x20 PUSH1 0x9 SLOAD PUSH1 0x40 MLOAD SWAP1 DUP2 MSTORE RETURN JUMPDEST POP CALLVALUE PUSH2 0x1A9 JUMPI PUSH2 0xB62 CALLDATASIZE PUSH2 0x1B30 JUMP JUMPDEST DUP3 SLOAD PUSH1 0x1 PUSH1 0x1 PUSH1 0xA0 SHL SUB AND CALLER EQ DUP1 ISZERO PUSH2 0xC5C JUMPI JUMPDEST PUSH2 0xB7F SWAP1 PUSH2 0x1C70 JUMP JUMPDEST DUP2 DUP4 MSTORE PUSH1 0xF PUSH1 0x20 MSTORE PUSH2 0xB99 PUSH1 0x1 PUSH1 0x40 DUP6 KECCAK256 ADD SLOAD ISZERO ISZERO PUSH2 0x1CAD JUMP JUMPDEST DUP1 PUSH2 0xBF9 JUMPI JUMPDEST DUP2 DUP4 MSTORE PUSH1 0xF PUSH1 0x20 DUP2 DUP2 MSTORE PUSH1 0x40 DUP1 DUP7 KECCAK256 PUSH1 0x2 ADD DUP5 SWAP1 SSTORE DUP5 DUP7 MSTORE SWAP2 DUP2 MSTORE DUP2 DUP6 KECCAK256 PUSH1 0x1 ADD SLOAD DUP3 MLOAD SWAP5 DUP6 MSTORE SWAP1 DUP5 ADD MSTORE DUP3 ADD MSTORE PUSH32 0xC598DB734B93C7FD9412E07C1E464EBB4D3DCF9B02C03AF26710B307F8B773DB SWAP1 DUP1 PUSH1 0x60 DUP2 ADD PUSH2 0xA2C JUMP JUMPDEST DUP2 DUP4 MSTORE PUSH1 0xD PUSH1 0x20 MSTORE PUSH1 0x40 DUP4 KECCAK256 SLOAD DUP2 LT ISZERO PUSH2 0xB9F JUMPI PUSH1 0x40 MLOAD PUSH3 0x461BCD PUSH1 0xE5 SHL DUP2 MSTORE PUSH1 0x20 PUSH1 0x4 DUP3 ADD MSTORE PUSH1 0x21 PUSH1 0x24 DUP3 ADD MSTORE PUSH32 0x4E657720737570706C79206C696D69742062656C6F7720736F6C6420636F756E PUSH1 0x44 DUP3 ADD MSTORE PUSH1 0x1D PUSH1 0xFA SHL PUSH1 0x64 DUP3 ADD MSTORE PUSH1 0x84 SWAP1 REVERT JUMPDEST POP PUSH1 0x10 SLOAD PUSH1 0x1 PUSH1 0x1 PUSH1 0xA0 SHL SUB AND CALLER EQ PUSH2 0xB76 JUMP JUMPDEST POP CALLVALUE PUSH2 0x1A9 JUMPI DUP1 PUSH1 0x3 NOT CALLDATASIZE ADD SLT PUSH2 0x1A9 JUMPI PUSH1 0x20 PUSH1 0xFF PUSH1 0xA SLOAD AND PUSH1 0x40 MLOAD SWAP1 ISZERO ISZERO DUP2 MSTORE RETURN JUMPDEST POP CALLVALUE PUSH2 0x1A9 JUMPI DUP1 PUSH1 0x3 NOT CALLDATASIZE ADD SLT PUSH2 0x1A9 JUMPI PUSH1 0x20 PUSH1 0x8 SLOAD PUSH1 0x40 MLOAD SWAP1 DUP2 MSTORE RETURN JUMPDEST POP CALLVALUE PUSH2 0x1A9 JUMPI PUSH32 0xC598DB734B93C7FD9412E07C1E464EBB4D3DCF9B02C03AF26710B307F8B773DB PUSH2 0xCE1 CALLDATASIZE PUSH2 0x1B30 JUMP JUMPDEST SWAP1 PUSH1 0x1 DUP1 PUSH1 0xA0 SHL SUB DUP5 SLOAD AND CALLER EQ DUP1 ISZERO PUSH2 0xD64 JUMPI JUMPDEST PUSH2 0xCFE SWAP1 PUSH2 0x1C70 JUMP JUMPDEST PUSH2 0xD09 DUP3 ISZERO ISZERO PUSH2 0x1D7E JUMP JUMPDEST DUP1 DUP5 MSTORE PUSH1 0xF PUSH1 0x20 MSTORE PUSH2 0xD23 PUSH1 0x1 PUSH1 0x40 DUP7 KECCAK256 ADD SLOAD ISZERO ISZERO PUSH2 0x1CAD JUMP JUMPDEST DUP1 DUP5 MSTORE PUSH1 0xF PUSH1 0x20 MSTORE DUP2 PUSH1 0x1 PUSH1 0x40 DUP7 KECCAK256 ADD SSTORE DUP1 DUP5 MSTORE PUSH1 0xF PUSH1 0x20 MSTORE PUSH2 0xA2C PUSH1 0x2 PUSH1 0x40 DUP7 KECCAK256 ADD SLOAD PUSH1 0x40 MLOAD SWAP4 DUP5 SWAP4 DUP5 PUSH1 0x40 SWAP2 SWAP5 SWAP4 SWAP3 PUSH1 0x60 DUP3 ADD SWAP6 DUP3 MSTORE PUSH1 0x20 DUP3 ADD MSTORE ADD MSTORE JUMP JUMPDEST POP PUSH1 0x10 SLOAD PUSH1 0x1 PUSH1 0x1 PUSH1 0xA0 SHL SUB AND CALLER EQ PUSH2 0xCF5 JUMP JUMPDEST POP CALLVALUE PUSH2 0x1A9 JUMPI PUSH1 0x40 CALLDATASIZE PUSH1 0x3 NOT ADD SLT PUSH2 0x1A9 JUMPI PUSH2 0xD92 PUSH2 0x1B46 JUMP JUMPDEST PUSH1 0x24 CALLDATALOAD SWAP1 PUSH2 0xD9E PUSH2 0x1EAE JUMP JUMPDEST PUSH1 0x1 PUSH1 0x1 PUSH1 0xA0 SHL SUB DUP2 AND SWAP2 DUP3 ISZERO PUSH2 0xF07 JUMPI PUSH1 0x2 SLOAD PUSH1 0x40 MLOAD PUSH4 0x70A08231 PUSH1 0xE0 SHL DUP2 MSTORE ADDRESS PUSH1 0x4 DUP3 ADD MSTORE PUSH1 0x1 PUSH1 0x1 PUSH1 0xA0 SHL SUB SWAP1 SWAP2 AND SWAP1 PUSH1 0x20 DUP2 PUSH1 0x24 DUP2 DUP6 GAS STATICCALL SWAP1 DUP2 ISZERO PUSH2 0xEFC JUMPI DUP7 SWAP2 PUSH2 0xEC5 JUMPI JUMPDEST POP DUP3 GT PUSH2 0xE89 JUMPI PUSH1 0x40 MLOAD PUSH4 0xA9059CBB PUSH1 0xE0 SHL DUP2 MSTORE PUSH1 0x1 PUSH1 0x1 PUSH1 0xA0 SHL SUB SWAP4 SWAP1 SWAP4 AND PUSH1 0x4 DUP5 ADD MSTORE PUSH1 0x24 DUP4 ADD DUP3 SWAP1 MSTORE PUSH1 0x20 SWAP1 DUP4 SWAP1 PUSH1 0x44 SWAP1 DUP3 SWAP1 DUP9 SWAP1 GAS CALL SWAP1 DUP2 ISZERO PUSH2 0xE7E JUMPI PUSH2 0xE5D PUSH1 0x20 SWAP3 PUSH32 0x5FAFA99D0643513820BE26656B45130B01E1C03062E1266BF36F88CBD3BD9695 SWAP5 DUP8 SWAP2 PUSH2 0xE67 JUMPI POP PUSH2 0x1D40 JUMP JUMPDEST PUSH1 0x40 MLOAD SWAP1 DUP2 MSTORE LOG2 DUP1 RETURN JUMPDEST PUSH2 0x825 SWAP2 POP DUP5 RETURNDATASIZE DUP7 GT PUSH2 0x571 JUMPI PUSH2 0x563 DUP2 DUP4 PUSH2 0x1BBF JUMP JUMPDEST PUSH1 0x40 MLOAD RETURNDATASIZE DUP7 DUP3 RETURNDATACOPY RETURNDATASIZE SWAP1 REVERT JUMPDEST PUSH1 0x40 MLOAD PUSH3 0x461BCD PUSH1 0xE5 SHL DUP2 MSTORE PUSH1 0x20 PUSH1 0x4 DUP3 ADD MSTORE PUSH1 0x14 PUSH1 0x24 DUP3 ADD MSTORE PUSH20 0x496E73756666696369656E742062616C616E6365 PUSH1 0x60 SHL PUSH1 0x44 DUP3 ADD MSTORE PUSH1 0x64 SWAP1 REVERT JUMPDEST SWAP1 POP PUSH1 0x20 DUP2 RETURNDATASIZE PUSH1 0x20 GT PUSH2 0xEF4 JUMPI JUMPDEST DUP2 PUSH2 0xEE0 PUSH1 0x20 SWAP4 DUP4 PUSH2 0x1BBF JUMP JUMPDEST DUP2 ADD SUB SLT PUSH2 0xEEF JUMPI MLOAD CODESIZE PUSH2 0xDE8 JUMP JUMPDEST PUSH1 0x0 DUP1 REVERT JUMPDEST RETURNDATASIZE SWAP2 POP PUSH2 0xED3 JUMP JUMPDEST PUSH1 0x40 MLOAD RETURNDATASIZE DUP9 DUP3 RETURNDATACOPY RETURNDATASIZE SWAP1 REVERT JUMPDEST PUSH1 0x40 MLOAD PUSH3 0x461BCD PUSH1 0xE5 SHL DUP2 MSTORE PUSH1 0x20 PUSH1 0x4 DUP3 ADD MSTORE PUSH1 0xF PUSH1 0x24 DUP3 ADD MSTORE PUSH15 0x496E76616C69642061646472657373 PUSH1 0x88 SHL PUSH1 0x44 DUP3 ADD MSTORE PUSH1 0x64 SWAP1 REVERT JUMPDEST POP CALLVALUE PUSH2 0x1A9 JUMPI DUP1 PUSH1 0x3 NOT CALLDATASIZE ADD SLT PUSH2 0x1A9 JUMPI SLOAD PUSH1 0x40 MLOAD PUSH1 0x1 PUSH1 0x1 PUSH1 0xA0 SHL SUB SWAP1 SWAP2 AND DUP2 MSTORE PUSH1 0x20 SWAP1 RETURN JUMPDEST POP CALLVALUE PUSH2 0x1A9 JUMPI PUSH2 0xF74 CALLDATASIZE PUSH2 0x1B30 JUMP JUMPDEST SWAP1 DUP1 DUP4 MSTORE PUSH1 0xF PUSH1 0x20 MSTORE PUSH1 0x40 DUP4 KECCAK256 SWAP2 PUSH1 0x40 MLOAD PUSH2 0xF8E DUP2 PUSH2 0x1B8D JUMP JUMPDEST DUP4 SLOAD DUP2 MSTORE PUSH1 0x1 DUP5 ADD SLOAD SWAP1 PUSH1 0x40 PUSH1 0x2 PUSH1 0x20 DUP4 ADD SWAP7 DUP5 DUP9 MSTORE ADD SLOAD SWAP2 ADD MSTORE ISZERO PUSH2 0x1320 JUMPI PUSH1 0xE SLOAD PUSH2 0x12BA JUMPI PUSH1 0xFF PUSH1 0xA SLOAD AND DUP1 PUSH2 0x12AC JUMPI JUMPDEST PUSH2 0x1258 JUMPI JUMPDEST PUSH1 0x3 SLOAD PUSH1 0x40 MLOAD PUSH3 0x7EEAC7 PUSH1 0xE1 SHL DUP2 MSTORE CALLER PUSH1 0x4 DUP3 ADD MSTORE PUSH1 0x24 DUP2 ADD DUP5 SWAP1 MSTORE PUSH1 0x1 PUSH1 0x1 PUSH1 0xA0 SHL SUB SWAP1 SWAP2 AND SWAP4 SWAP1 PUSH1 0x20 DUP2 PUSH1 0x44 DUP2 DUP9 GAS STATICCALL SWAP1 DUP2 ISZERO PUSH2 0xEFC JUMPI DUP7 SWAP2 PUSH2 0x1222 JUMPI JUMPDEST POP DUP1 ISZERO PUSH2 0x11E7 JUMPI DUP3 GT PUSH2 0x11A2 JUMPI DUP2 PUSH2 0x1034 DUP3 PUSH2 0x2710 PUSH2 0x102C PUSH2 0x1039 SWAP6 MLOAD PUSH1 0x8 SLOAD SWAP1 PUSH2 0x1D15 JUMP JUMPDEST DIV SWAP1 MLOAD PUSH2 0x1CF2 JUMP JUMPDEST PUSH2 0x1D15 JUMP JUMPDEST SWAP3 DUP1 EXTCODESIZE ISZERO PUSH2 0x119E JUMPI PUSH1 0x40 MLOAD PUSH4 0x7A94C565 PUSH1 0xE1 SHL DUP2 MSTORE CALLER PUSH1 0x4 DUP3 ADD MSTORE PUSH1 0x24 DUP2 ADD DUP5 SWAP1 MSTORE PUSH1 0x44 DUP2 ADD DUP4 SWAP1 MSTORE SWAP1 DUP6 SWAP1 DUP3 SWAP1 PUSH1 0x64 SWAP1 DUP3 SWAP1 DUP5 SWAP1 GAS CALL DUP1 ISZERO PUSH2 0x117F JUMPI PUSH2 0x118A JUMPI JUMPDEST POP DUP2 DUP5 MSTORE PUSH1 0xD PUSH1 0x20 MSTORE PUSH1 0x40 DUP5 KECCAK256 PUSH2 0x1093 DUP3 DUP3 SLOAD PUSH2 0x1CF2 JUMP JUMPDEST SWAP1 SSTORE PUSH2 0x10A1 DUP4 PUSH1 0x9 SLOAD PUSH2 0x1CF2 JUMP JUMPDEST PUSH1 0x9 SSTORE PUSH1 0x2 SLOAD PUSH1 0x40 MLOAD PUSH4 0xA9059CBB PUSH1 0xE0 SHL DUP2 MSTORE CALLER PUSH1 0x4 DUP3 ADD MSTORE PUSH1 0x24 DUP2 ADD DUP6 SWAP1 MSTORE SWAP1 PUSH1 0x20 SWAP1 DUP3 SWAP1 PUSH1 0x44 SWAP1 DUP3 SWAP1 DUP10 SWAP1 PUSH1 0x1 PUSH1 0x1 PUSH1 0xA0 SHL SUB AND GAS CALL SWAP1 DUP2 ISZERO PUSH2 0x117F JUMPI DUP6 SWAP2 PUSH2 0x1160 JUMPI JUMPDEST POP ISZERO PUSH2 0x112B JUMPI PUSH1 0x40 DUP1 MLOAD SWAP4 DUP5 MSTORE PUSH1 0x20 DUP5 ADD SWAP3 SWAP1 SWAP3 MSTORE SWAP1 DUP3 ADD MSTORE CALLER SWAP1 PUSH32 0xB7048C2AD36AADEE977BB16B4543A18866044D27A2CA753E1C7DBCFA7D7A6962 SWAP1 PUSH1 0x60 SWAP1 LOG2 DUP1 RETURN JUMPDEST PUSH1 0x40 MLOAD PUSH3 0x461BCD PUSH1 0xE5 SHL DUP2 MSTORE PUSH1 0x20 PUSH1 0x4 DUP3 ADD MSTORE PUSH1 0xD PUSH1 0x24 DUP3 ADD MSTORE PUSH13 0x1499599D5B990819985A5B1959 PUSH1 0x9A SHL PUSH1 0x44 DUP3 ADD MSTORE PUSH1 0x64 SWAP1 REVERT JUMPDEST PUSH2 0x1179 SWAP2 POP PUSH1 0x20 RETURNDATASIZE PUSH1 0x20 GT PUSH2 0x571 JUMPI PUSH2 0x563 DUP2 DUP4 PUSH2 0x1BBF JUMP JUMPDEST CODESIZE PUSH2 0x10E7 JUMP JUMPDEST PUSH1 0x40 MLOAD RETURNDATASIZE DUP8 DUP3 RETURNDATACOPY RETURNDATASIZE SWAP1 REVERT JUMPDEST DUP5 PUSH2 0x1197 SWAP2 SWAP6 SWAP3 SWAP6 PUSH2 0x1BBF JUMP JUMPDEST SWAP3 CODESIZE PUSH2 0x107B JUMP JUMPDEST DUP5 DUP1 REVERT JUMPDEST PUSH1 0x40 MLOAD PUSH3 0x461BCD PUSH1 0xE5 SHL DUP2 MSTORE PUSH1 0x20 PUSH1 0x4 DUP3 ADD MSTORE PUSH1 0x1D PUSH1 0x24 DUP3 ADD MSTORE PUSH32 0x496E73756666696369656E7420746F6B656E7320746F20726566756E64000000 PUSH1 0x44 DUP3 ADD MSTORE PUSH1 0x64 SWAP1 REVERT JUMPDEST PUSH1 0x40 MLOAD PUSH3 0x461BCD PUSH1 0xE5 SHL DUP2 MSTORE PUSH1 0x20 PUSH1 0x4 DUP3 ADD MSTORE PUSH1 0x13 PUSH1 0x24 DUP3 ADD MSTORE PUSH19 0x139BC81D1BDAD95B9CC81D1BC81C99599D5B99 PUSH1 0x6A SHL PUSH1 0x44 DUP3 ADD MSTORE PUSH1 0x64 SWAP1 REVERT JUMPDEST SWAP1 POP PUSH1 0x20 DUP2 RETURNDATASIZE PUSH1 0x20 GT PUSH2 0x1250 JUMPI JUMPDEST DUP2 PUSH2 0x123D PUSH1 0x20 SWAP4 DUP4 PUSH2 0x1BBF JUMP JUMPDEST DUP2 ADD SUB SLT PUSH2 0x124C JUMPI MLOAD CODESIZE PUSH2 0x1006 JUMP JUMPDEST DUP6 DUP1 REVERT JUMPDEST RETURNDATASIZE SWAP2 POP PUSH2 0x1230 JUMP JUMPDEST PUSH1 0x40 MLOAD PUSH3 0x461BCD PUSH1 0xE5 SHL DUP2 MSTORE PUSH1 0x20 PUSH1 0x4 DUP3 ADD MSTORE PUSH1 0x26 PUSH1 0x24 DUP3 ADD MSTORE PUSH32 0x54617267657420776173206D65742C20726566756E6473206E6F742061766169 PUSH1 0x44 DUP3 ADD MSTORE PUSH6 0x3630B1363297 PUSH1 0xD1 SHL PUSH1 0x64 DUP3 ADD MSTORE PUSH1 0x84 SWAP1 REVERT JUMPDEST POP PUSH1 0x9 SLOAD PUSH1 0x6 SLOAD GT ISZERO PUSH2 0xFC1 JUMP JUMPDEST PUSH1 0xFF PUSH1 0xA SLOAD AND ISZERO PUSH2 0xFC6 JUMPI PUSH1 0x40 MLOAD PUSH3 0x461BCD PUSH1 0xE5 SHL DUP2 MSTORE PUSH1 0x20 PUSH1 0x4 DUP3 ADD MSTORE PUSH1 0x2D PUSH1 0x24 DUP3 ADD MSTORE PUSH32 0x43616D706169676E2069732066696E616C697A65642C20726566756E6473206E PUSH1 0x44 DUP3 ADD MSTORE PUSH13 0x37BA1030BB30B4B630B1363297 PUSH1 0x99 SHL PUSH1 0x64 DUP3 ADD MSTORE PUSH1 0x84 SWAP1 REVERT JUMPDEST PUSH1 0x40 MLOAD PUSH3 0x461BCD PUSH1 0xE5 SHL DUP2 MSTORE PUSH1 0x20 PUSH1 0x4 DUP3 ADD MSTORE PUSH1 0xF PUSH1 0x24 DUP3 ADD MSTORE PUSH15 0x125B9D985B1A59081C1C9BD91D58DD PUSH1 0x8A SHL PUSH1 0x44 DUP3 ADD MSTORE PUSH1 0x64 SWAP1 REVERT JUMPDEST POP CALLVALUE PUSH2 0x1A9 JUMPI DUP1 PUSH1 0x3 NOT CALLDATASIZE ADD SLT PUSH2 0x1A9 JUMPI PUSH2 0x1370 PUSH2 0x1EAE JUMP JUMPDEST PUSH2 0x1378 PUSH2 0x1EF9 JUMP JUMPDEST DUP1 SLOAD PUSH1 0xFF PUSH1 0xA0 SHL NOT AND PUSH1 0x1 PUSH1 0xA0 SHL OR DUP2 SSTORE PUSH1 0x40 MLOAD CALLER DUP2 MSTORE PUSH32 0x62E78CEA01BEE320CD4E420270B5EA74000D11B0C9F74754EBDBFC544B05A258 SWAP1 PUSH1 0x20 SWAP1 LOG1 DUP1 RETURN JUMPDEST POP CALLVALUE PUSH2 0x1A9 JUMPI PUSH1 0x20 CALLDATASIZE PUSH1 0x3 NOT ADD SLT PUSH2 0x1A9 JUMPI PUSH1 0x40 SWAP1 PUSH1 0x4 CALLDATALOAD DUP2 MSTORE PUSH1 0xF PUSH1 0x20 MSTORE KECCAK256 DUP1 SLOAD PUSH2 0x1404 PUSH1 0x2 PUSH1 0x1 DUP5 ADD SLOAD SWAP4 ADD SLOAD PUSH1 0x40 MLOAD SWAP4 DUP5 SWAP4 DUP5 PUSH1 0x40 SWAP2 SWAP5 SWAP4 SWAP3 PUSH1 0x60 DUP3 ADD SWAP6 DUP3 MSTORE PUSH1 0x20 DUP3 ADD MSTORE ADD MSTORE JUMP JUMPDEST SUB SWAP1 RETURN JUMPDEST POP CALLVALUE PUSH2 0x1A9 JUMPI DUP1 PUSH1 0x3 NOT CALLDATASIZE ADD SLT PUSH2 0x1A9 JUMPI PUSH1 0x10 SLOAD PUSH1 0x40 MLOAD PUSH1 0x1 PUSH1 0x1 PUSH1 0xA0 SHL SUB SWAP1 SWAP2 AND DUP2 MSTORE PUSH1 0x20 SWAP1 RETURN JUMPDEST POP CALLVALUE PUSH2 0x1A9 JUMPI DUP1 PUSH1 0x3 NOT CALLDATASIZE ADD SLT PUSH2 0x1A9 JUMPI PUSH2 0x144A PUSH2 0x1EAE JUMP JUMPDEST DUP1 SLOAD PUSH1 0x1 PUSH1 0x1 PUSH1 0xA0 SHL SUB NOT DUP2 AND DUP3 SSTORE DUP2 SWAP1 PUSH1 0x1 PUSH1 0x1 PUSH1 0xA0 SHL SUB AND PUSH32 0x8BE0079C531659141344CD1FD0A4F28419497F9722A3DAAFE3B4186F6B6457E0 DUP3 DUP1 LOG3 DUP1 RETURN JUMPDEST POP CALLVALUE PUSH2 0x1A9 JUMPI PUSH1 0x20 CALLDATASIZE PUSH1 0x3 NOT ADD SLT PUSH2 0x1A9 JUMPI PUSH1 0x40 PUSH1 0x20 SWAP2 PUSH1 0x4 CALLDATALOAD DUP2 MSTORE PUSH1 0xB DUP4 MSTORE KECCAK256 SLOAD PUSH1 0x40 MLOAD SWAP1 DUP2 MSTORE RETURN JUMPDEST POP CALLVALUE PUSH2 0x1A9 JUMPI PUSH1 0x20 CALLDATASIZE PUSH1 0x3 NOT ADD SLT PUSH2 0x1A9 JUMPI PUSH1 0x4 CALLDATALOAD PUSH1 0x1 DUP1 PUSH1 0xA0 SHL SUB DUP3 SLOAD AND CALLER EQ DUP1 ISZERO PUSH2 0x162F JUMPI JUMPDEST PUSH2 0x14E6 SWAP1 PUSH2 0x1C70 JUMP JUMPDEST DUP1 DUP3 MSTORE PUSH1 0xF PUSH1 0x20 MSTORE PUSH2 0x1500 PUSH1 0x1 PUSH1 0x40 DUP5 KECCAK256 ADD SLOAD ISZERO ISZERO PUSH2 0x1CAD JUMP JUMPDEST DUP1 DUP3 MSTORE PUSH1 0xD PUSH1 0x20 MSTORE PUSH2 0x1516 PUSH1 0x40 DUP4 KECCAK256 SLOAD ISZERO PUSH2 0x1BE1 JUMP JUMPDEST DUP2 JUMPDEST PUSH1 0xC SLOAD DUP1 DUP3 LT ISZERO PUSH2 0x1604 JUMPI DUP3 PUSH2 0x152D DUP4 PUSH2 0x1B5C JUMP JUMPDEST SWAP1 SLOAD SWAP1 PUSH1 0x3 SHL SHR EQ PUSH2 0x1542 JUMPI POP PUSH1 0x1 ADD PUSH2 0x1518 JUMP JUMPDEST PUSH1 0x0 NOT DUP2 ADD SWAP1 DUP2 GT PUSH2 0x15F0 JUMPI SWAP1 PUSH2 0x9F1 PUSH2 0x155E PUSH2 0x156B SWAP4 PUSH2 0x1B5C JUMP JUMPDEST SWAP1 SLOAD SWAP1 PUSH1 0x3 SHL SHR SWAP2 PUSH2 0x1B5C JUMP JUMPDEST PUSH1 0xC SLOAD DUP1 ISZERO PUSH2 0x15DC JUMPI PUSH32 0x7015631CFF457B5B13492C2045E70C6305A0A4AA773E432E79ABBE2CF52C1EB SWAP2 PUSH1 0x20 SWAP2 PUSH1 0x0 NOT ADD PUSH2 0x15A6 DUP2 PUSH2 0x1B5C JUMP JUMPDEST DUP2 SLOAD SWAP1 PUSH1 0x0 NOT SWAP1 PUSH1 0x3 SHL SHL NOT AND SWAP1 SSTORE PUSH1 0xC SSTORE JUMPDEST DUP1 DUP5 MSTORE PUSH1 0xF DUP3 MSTORE DUP4 PUSH1 0x2 PUSH1 0x40 DUP3 KECCAK256 DUP3 DUP2 SSTORE DUP3 PUSH1 0x1 DUP3 ADD SSTORE ADD SSTORE PUSH1 0x40 MLOAD SWAP1 DUP2 MSTORE LOG1 DUP1 RETURN JUMPDEST PUSH4 0x4E487B71 PUSH1 0xE0 SHL DUP4 MSTORE PUSH1 0x31 PUSH1 0x4 MSTORE PUSH1 0x24 DUP4 REVERT JUMPDEST PUSH4 0x4E487B71 PUSH1 0xE0 SHL DUP5 MSTORE PUSH1 0x11 PUSH1 0x4 MSTORE PUSH1 0x24 DUP5 REVERT JUMPDEST POP POP PUSH1 0x20 PUSH32 0x7015631CFF457B5B13492C2045E70C6305A0A4AA773E432E79ABBE2CF52C1EB SWAP2 PUSH2 0x15B9 JUMP JUMPDEST POP PUSH1 0x10 SLOAD PUSH1 0x1 PUSH1 0x1 PUSH1 0xA0 SHL SUB AND CALLER EQ PUSH2 0x14DD JUMP JUMPDEST POP CALLVALUE PUSH2 0x1A9 JUMPI DUP1 PUSH1 0x3 NOT CALLDATASIZE ADD SLT PUSH2 0x1A9 JUMPI PUSH1 0xFF PUSH1 0x20 SWAP2 SLOAD PUSH1 0xA0 SHR AND PUSH1 0x40 MLOAD SWAP1 ISZERO ISZERO DUP2 MSTORE RETURN JUMPDEST POP CALLVALUE PUSH2 0x1A9 JUMPI DUP1 PUSH1 0x3 NOT CALLDATASIZE ADD SLT PUSH2 0x1A9 JUMPI PUSH2 0x1681 PUSH2 0x1ED7 JUMP JUMPDEST PUSH2 0x1689 PUSH2 0x1EF9 JUMP JUMPDEST PUSH1 0xFF PUSH1 0xA SLOAD AND PUSH2 0x17B3 JUMPI PUSH1 0xE SLOAD DUP1 PUSH2 0x1709 JUMPI POP PUSH2 0x16A9 PUSH1 0x7 SLOAD TIMESTAMP GT PUSH2 0x1C2D JUMP JUMPDEST PUSH1 0x9 SLOAD PUSH1 0x6 SLOAD DUP2 LT ISZERO PUSH2 0x16F1 JUMPI JUMPDEST POP JUMPDEST PUSH1 0x1 PUSH1 0xFF NOT PUSH1 0xA SLOAD AND OR PUSH1 0xA SSTORE PUSH32 0x6823B073D48D6E3A7D385EEB601452D680E74BB46AFE3255A7D778F3A9B17681 DUP2 DUP1 LOG1 PUSH1 0x1 DUP1 SSTORE DUP1 RETURN JUMPDEST PUSH2 0x16FC JUMPI JUMPDEST CODESIZE PUSH2 0x16B7 JUMP JUMPDEST PUSH2 0x1704 PUSH2 0x1F19 JUMP JUMPDEST PUSH2 0x16F6 JUMP JUMPDEST PUSH1 0x1 DUP2 SUB PUSH2 0x178F JUMPI POP DUP1 SLOAD PUSH1 0x1 PUSH1 0x1 PUSH1 0xA0 SHL SUB AND CALLER SUB PUSH2 0x1738 JUMPI PUSH1 0x9 SLOAD PUSH2 0x1730 JUMPI JUMPDEST PUSH2 0x16B9 JUMP JUMPDEST PUSH2 0x172B PUSH2 0x1F19 JUMP JUMPDEST PUSH1 0x40 MLOAD PUSH3 0x461BCD PUSH1 0xE5 SHL DUP2 MSTORE PUSH1 0x20 PUSH1 0x4 DUP3 ADD MSTORE PUSH1 0x29 PUSH1 0x24 DUP3 ADD MSTORE PUSH32 0x4F6E6C79206F776E65722063616E2066696E616C697A65206C696D69746C6573 PUSH1 0x44 DUP3 ADD MSTORE PUSH9 0x732066756E64696E67 PUSH1 0xB8 SHL PUSH1 0x64 DUP3 ADD MSTORE PUSH1 0x84 SWAP1 REVERT JUMPDEST PUSH1 0x2 SUB PUSH2 0x16B9 JUMPI PUSH2 0x17A3 PUSH1 0x7 SLOAD TIMESTAMP GT PUSH2 0x1C2D JUMP JUMPDEST PUSH1 0x9 SLOAD ISZERO PUSH2 0x172B JUMPI PUSH2 0x172B PUSH2 0x1F19 JUMP JUMPDEST PUSH1 0x40 MLOAD PUSH3 0x461BCD PUSH1 0xE5 SHL DUP2 MSTORE PUSH1 0x20 PUSH1 0x4 DUP3 ADD MSTORE PUSH1 0x11 PUSH1 0x24 DUP3 ADD MSTORE PUSH17 0x105B1C9958591E48199A5B985B1A5E9959 PUSH1 0x7A SHL PUSH1 0x44 DUP3 ADD MSTORE PUSH1 0x64 SWAP1 REVERT JUMPDEST POP CALLVALUE PUSH2 0x1A9 JUMPI DUP1 PUSH1 0x3 NOT CALLDATASIZE ADD SLT PUSH2 0x1A9 JUMPI PUSH1 0x40 MLOAD DUP1 PUSH1 0x20 PUSH1 0xC SLOAD SWAP2 DUP3 DUP2 MSTORE ADD DUP1 SWAP2 PUSH1 0xC DUP6 MSTORE PUSH32 0xDF6966C971051C3D54EC59162606531493A51404A002842F56009D7E5CF4A8C7 SWAP1 DUP6 JUMPDEST DUP2 DUP2 LT PUSH2 0x188C JUMPI POP POP POP DUP3 PUSH2 0x184B SWAP2 SUB DUP4 PUSH2 0x1BBF JUMP JUMPDEST PUSH1 0x40 MLOAD SWAP3 DUP4 SWAP3 PUSH1 0x20 DUP5 ADD SWAP1 PUSH1 0x20 DUP6 MSTORE MLOAD DUP1 SWAP2 MSTORE PUSH1 0x40 DUP5 ADD SWAP3 SWAP2 JUMPDEST DUP2 DUP2 LT PUSH2 0x1873 JUMPI POP POP POP SUB SWAP1 RETURN JUMPDEST DUP3 MLOAD DUP5 MSTORE DUP6 SWAP5 POP PUSH1 0x20 SWAP4 DUP5 ADD SWAP4 SWAP1 SWAP3 ADD SWAP2 PUSH1 0x1 ADD PUSH2 0x1865 JUMP JUMPDEST DUP3 SLOAD DUP5 MSTORE PUSH1 0x20 SWAP1 SWAP4 ADD SWAP3 PUSH1 0x1 SWAP3 DUP4 ADD SWAP3 ADD PUSH2 0x1835 JUMP JUMPDEST POP CALLVALUE PUSH2 0x1A9 JUMPI PUSH32 0xB751835A12376750BD69B4B4C0C1D306480284514D2FA88F72EDF3EEEA8515F6 PUSH1 0x40 PUSH2 0x18D4 CALLDATASIZE PUSH2 0x1B30 JUMP JUMPDEST PUSH2 0x18DC PUSH2 0x1EAE JUMP JUMPDEST DUP2 DUP6 MSTORE PUSH1 0xD PUSH1 0x20 MSTORE PUSH2 0x18F1 DUP4 DUP7 KECCAK256 SLOAD ISZERO PUSH2 0x1BE1 JUMP JUMPDEST DUP2 DUP6 MSTORE PUSH1 0xF PUSH1 0x20 MSTORE DUP1 PUSH1 0x1 DUP5 DUP8 KECCAK256 ADD SSTORE DUP3 MLOAD SWAP2 DUP3 MSTORE PUSH1 0x20 DUP3 ADD MSTORE LOG1 DUP1 RETURN JUMPDEST POP CALLVALUE PUSH2 0x1A9 JUMPI PUSH1 0x20 CALLDATASIZE PUSH1 0x3 NOT ADD SLT PUSH2 0x1A9 JUMPI PUSH1 0x4 CALLDATALOAD PUSH2 0x192C PUSH2 0x1EAE JUMP JUMPDEST PUSH1 0xFF PUSH1 0xA SLOAD AND PUSH2 0x19EF JUMPI PUSH1 0x1 PUSH1 0xE SLOAD EQ PUSH2 0x1993 JUMPI TIMESTAMP DUP2 GT ISZERO PUSH2 0x194E JUMPI PUSH1 0x7 SSTORE DUP1 RETURN JUMPDEST PUSH1 0x40 MLOAD PUSH3 0x461BCD PUSH1 0xE5 SHL DUP2 MSTORE PUSH1 0x20 PUSH1 0x4 DUP3 ADD MSTORE PUSH1 0x1E PUSH1 0x24 DUP3 ADD MSTORE PUSH32 0x446561646C696E65206D75737420626520696E20746865206675747572650000 PUSH1 0x44 DUP3 ADD MSTORE PUSH1 0x64 SWAP1 REVERT JUMPDEST PUSH1 0x40 MLOAD PUSH3 0x461BCD PUSH1 0xE5 SHL DUP2 MSTORE PUSH1 0x20 PUSH1 0x4 DUP3 ADD MSTORE PUSH1 0x2E PUSH1 0x24 DUP3 ADD MSTORE PUSH32 0x4C696D69746C6573732066756E64696E6720646F65736E277420737570706F72 PUSH1 0x44 DUP3 ADD MSTORE PUSH14 0x3A103334B730B634BD30BA34B7B7 PUSH1 0x91 SHL PUSH1 0x64 DUP3 ADD MSTORE PUSH1 0x84 SWAP1 REVERT JUMPDEST PUSH1 0x40 MLOAD PUSH3 0x461BCD PUSH1 0xE5 SHL DUP2 MSTORE PUSH1 0x20 PUSH1 0x4 DUP3 ADD MSTORE PUSH1 0x17 PUSH1 0x24 DUP3 ADD MSTORE PUSH32 0x46756E647261697365722069732066696E616C697A6564000000000000000000 PUSH1 0x44 DUP3 ADD MSTORE PUSH1 0x64 SWAP1 REVERT JUMPDEST POP CALLVALUE PUSH2 0x1A9 JUMPI DUP1 PUSH1 0x3 NOT CALLDATASIZE ADD SLT PUSH2 0x1A9 JUMPI PUSH1 0x20 PUSH1 0x6 SLOAD PUSH1 0x40 MLOAD SWAP1 DUP2 MSTORE RETURN JUMPDEST POP CALLVALUE PUSH2 0x1A9 JUMPI DUP1 PUSH1 0x3 NOT CALLDATASIZE ADD SLT PUSH2 0x1A9 JUMPI PUSH2 0x1A6B PUSH2 0x1EAE JUMP JUMPDEST DUP1 SLOAD PUSH1 0xFF DUP2 PUSH1 0xA0 SHR AND ISZERO PUSH2 0x1AB1 JUMPI PUSH1 0xFF PUSH1 0xA0 SHL NOT AND DUP2 SSTORE PUSH1 0x40 MLOAD CALLER DUP2 MSTORE PUSH32 0x5DB9EE0A495BF2E6FF9C91A7834C1BA4FDD244A5E8AA4E537BD38AEAE4B073AA SWAP1 PUSH1 0x20 SWAP1 LOG1 DUP1 RETURN JUMPDEST PUSH4 0x8DFC202B PUSH1 0xE0 SHL DUP3 MSTORE PUSH1 0x4 DUP3 REVERT JUMPDEST POP CALLVALUE PUSH2 0x1A9 JUMPI DUP1 PUSH1 0x3 NOT CALLDATASIZE ADD SLT PUSH2 0x1A9 JUMPI PUSH1 0x2 SLOAD PUSH1 0x40 MLOAD PUSH1 0x1 PUSH1 0x1 PUSH1 0xA0 SHL SUB SWAP1 SWAP2 AND DUP2 MSTORE PUSH1 0x20 SWAP1 RETURN JUMPDEST POP CALLVALUE PUSH2 0x1A9 JUMPI DUP1 PUSH1 0x3 NOT CALLDATASIZE ADD SLT PUSH2 0x1A9 JUMPI PUSH1 0x20 PUSH1 0x7 SLOAD PUSH1 0x40 MLOAD SWAP1 DUP2 MSTORE RETURN JUMPDEST SWAP1 POP CALLVALUE PUSH2 0x1B2C JUMPI DUP2 PUSH1 0x3 NOT CALLDATASIZE ADD SLT PUSH2 0x1B2C JUMPI PUSH1 0x3 SLOAD PUSH1 0x1 PUSH1 0x1 PUSH1 0xA0 SHL SUB AND DUP2 MSTORE PUSH1 0x20 SWAP1 RETURN JUMPDEST POP DUP1 REVERT JUMPDEST PUSH1 0x40 SWAP1 PUSH1 0x3 NOT ADD SLT PUSH2 0xEEF JUMPI PUSH1 0x4 CALLDATALOAD SWAP1 PUSH1 0x24 CALLDATALOAD SWAP1 JUMP JUMPDEST PUSH1 0x4 CALLDATALOAD SWAP1 PUSH1 0x1 PUSH1 0x1 PUSH1 0xA0 SHL SUB DUP3 AND DUP3 SUB PUSH2 0xEEF JUMPI JUMP JUMPDEST PUSH1 0xC SLOAD DUP2 LT ISZERO PUSH2 0x1B77 JUMPI PUSH1 0xC PUSH1 0x0 MSTORE PUSH1 0x20 PUSH1 0x0 KECCAK256 ADD SWAP1 PUSH1 0x0 SWAP1 JUMP JUMPDEST PUSH4 0x4E487B71 PUSH1 0xE0 SHL PUSH1 0x0 MSTORE PUSH1 0x32 PUSH1 0x4 MSTORE PUSH1 0x24 PUSH1 0x0 REVERT JUMPDEST PUSH1 0x60 DUP2 ADD SWAP1 DUP2 LT PUSH8 0xFFFFFFFFFFFFFFFF DUP3 GT OR PUSH2 0x1BA9 JUMPI PUSH1 0x40 MSTORE JUMP JUMPDEST PUSH4 0x4E487B71 PUSH1 0xE0 SHL PUSH1 0x0 MSTORE PUSH1 0x41 PUSH1 0x4 MSTORE PUSH1 0x24 PUSH1 0x0 REVERT JUMPDEST SWAP1 PUSH1 0x1F DUP1 NOT SWAP2 ADD AND DUP2 ADD SWAP1 DUP2 LT PUSH8 0xFFFFFFFFFFFFFFFF DUP3 GT OR PUSH2 0x1BA9 JUMPI PUSH1 0x40 MSTORE JUMP JUMPDEST ISZERO PUSH2 0x1BE8 JUMPI JUMP JUMPDEST PUSH1 0x40 MLOAD PUSH3 0x461BCD PUSH1 0xE5 SHL DUP2 MSTORE PUSH1 0x20 PUSH1 0x4 DUP3 ADD MSTORE PUSH1 0x18 PUSH1 0x24 DUP3 ADD MSTORE PUSH32 0x50726F6475637420686173206163746976652073616C65730000000000000000 PUSH1 0x44 DUP3 ADD MSTORE PUSH1 0x64 SWAP1 REVERT JUMPDEST ISZERO PUSH2 0x1C34 JUMPI JUMP JUMPDEST PUSH1 0x40 MLOAD PUSH3 0x461BCD PUSH1 0xE5 SHL DUP2 MSTORE PUSH1 0x20 PUSH1 0x4 DUP3 ADD MSTORE PUSH1 0x14 PUSH1 0x24 DUP3 ADD MSTORE PUSH20 0x111958591B1A5B99481B9BDD081C995858DA1959 PUSH1 0x62 SHL PUSH1 0x44 DUP3 ADD MSTORE PUSH1 0x64 SWAP1 REVERT JUMPDEST ISZERO PUSH2 0x1C77 JUMPI JUMP JUMPDEST PUSH1 0x40 MLOAD PUSH3 0x461BCD PUSH1 0xE5 SHL DUP2 MSTORE PUSH1 0x20 PUSH1 0x4 DUP3 ADD MSTORE PUSH1 0xE PUSH1 0x24 DUP3 ADD MSTORE PUSH14 0x139BDD08185D5D1A1BDC9A5E9959 PUSH1 0x92 SHL PUSH1 0x44 DUP3 ADD MSTORE PUSH1 0x64 SWAP1 REVERT JUMPDEST ISZERO PUSH2 0x1CB4 JUMPI JUMP JUMPDEST PUSH1 0x40 MLOAD PUSH3 0x461BCD PUSH1 0xE5 SHL DUP2 MSTORE PUSH1 0x20 PUSH1 0x4 DUP3 ADD MSTORE PUSH1 0x16 PUSH1 0x24 DUP3 ADD MSTORE PUSH22 0x141C9BD91D58DD08191BD95CC81B9BDD08195E1A5CDD PUSH1 0x52 SHL PUSH1 0x44 DUP3 ADD MSTORE PUSH1 0x64 SWAP1 REVERT JUMPDEST SWAP2 SWAP1 DUP3 SUB SWAP2 DUP3 GT PUSH2 0x1CFF JUMPI JUMP JUMPDEST PUSH4 0x4E487B71 PUSH1 0xE0 SHL PUSH1 0x0 MSTORE PUSH1 0x11 PUSH1 0x4 MSTORE PUSH1 0x24 PUSH1 0x0 REVERT JUMPDEST DUP2 DUP2 MUL SWAP3 SWAP2 DUP2 ISZERO SWAP2 DUP5 DIV EQ OR ISZERO PUSH2 0x1CFF JUMPI JUMP JUMPDEST SWAP1 DUP2 PUSH1 0x20 SWAP2 SUB SLT PUSH2 0xEEF JUMPI MLOAD DUP1 ISZERO ISZERO DUP2 SUB PUSH2 0xEEF JUMPI SWAP1 JUMP JUMPDEST ISZERO PUSH2 0x1D47 JUMPI JUMP JUMPDEST PUSH1 0x40 MLOAD PUSH3 0x461BCD PUSH1 0xE5 SHL DUP2 MSTORE PUSH1 0x20 PUSH1 0x4 DUP3 ADD MSTORE PUSH1 0xF PUSH1 0x24 DUP3 ADD MSTORE PUSH15 0x151C985B9CD9995C8819985A5B1959 PUSH1 0x8A SHL PUSH1 0x44 DUP3 ADD MSTORE PUSH1 0x64 SWAP1 REVERT JUMPDEST ISZERO PUSH2 0x1D85 JUMPI JUMP JUMPDEST PUSH1 0x40 MLOAD PUSH3 0x461BCD PUSH1 0xE5 SHL DUP2 MSTORE PUSH1 0x20 PUSH1 0x4 DUP3 ADD MSTORE PUSH1 0xD PUSH1 0x24 DUP3 ADD MSTORE PUSH13 0x496E76616C6964207072696365 PUSH1 0x98 SHL PUSH1 0x44 DUP3 ADD MSTORE PUSH1 0x64 SWAP1 REVERT JUMPDEST SWAP2 SWAP1 DUP3 ADD DUP1 SWAP3 GT PUSH2 0x1CFF JUMPI JUMP JUMPDEST PUSH1 0x0 PUSH1 0x44 RETURNDATASIZE LT PUSH2 0x1E2E JUMPI PUSH1 0x40 MLOAD RETURNDATASIZE PUSH1 0x3 NOT ADD PUSH1 0x4 DUP3 RETURNDATACOPY DUP1 MLOAD SWAP2 RETURNDATASIZE PUSH1 0x24 DUP5 ADD GT PUSH8 0xFFFFFFFFFFFFFFFF DUP5 GT OR PUSH2 0x1E39 JUMPI DUP3 DUP3 ADD SWAP3 DUP4 MLOAD SWAP2 PUSH8 0xFFFFFFFFFFFFFFFF DUP4 GT PUSH2 0x1E31 JUMPI RETURNDATASIZE DUP5 ADD PUSH1 0x3 NOT ADD DUP6 DUP5 ADD PUSH1 0x20 ADD GT PUSH2 0x1E31 JUMPI POP PUSH2 0x1E2E SWAP3 SWAP2 ADD PUSH1 0x20 ADD SWAP1 PUSH2 0x1BBF JUMP JUMPDEST SWAP1 JUMP JUMPDEST SWAP5 SWAP4 POP POP POP POP JUMP JUMPDEST SWAP3 SWAP2 POP POP JUMP JUMPDEST ISZERO PUSH2 0x1E46 JUMPI JUMP JUMPDEST PUSH1 0x40 MLOAD PUSH3 0x461BCD PUSH1 0xE5 SHL DUP2 MSTORE PUSH1 0x20 PUSH1 0x4 DUP3 ADD MSTORE PUSH1 0x1E PUSH1 0x24 DUP3 ADD MSTORE PUSH32 0x526566756E64206661696C6564206166746572206D696E74206572726F720000 PUSH1 0x44 DUP3 ADD MSTORE PUSH1 0x64 SWAP1 REVERT JUMPDEST PUSH1 0x0 JUMPDEST DUP4 DUP2 LT PUSH2 0x1E9E JUMPI POP POP PUSH1 0x0 SWAP2 ADD MSTORE JUMP JUMPDEST DUP2 DUP2 ADD MLOAD DUP4 DUP3 ADD MSTORE PUSH1 0x20 ADD PUSH2 0x1E8E JUMP JUMPDEST PUSH1 0x0 SLOAD PUSH1 0x1 PUSH1 0x1 PUSH1 0xA0 SHL SUB AND CALLER SUB PUSH2 0x1EC2 JUMPI JUMP JUMPDEST PUSH4 0x118CDAA7 PUSH1 0xE0 SHL PUSH1 0x0 MSTORE CALLER PUSH1 0x4 MSTORE PUSH1 0x24 PUSH1 0x0 REVERT JUMPDEST PUSH1 0x2 PUSH1 0x1 SLOAD EQ PUSH2 0x1EE8 JUMPI PUSH1 0x2 PUSH1 0x1 SSTORE JUMP JUMPDEST PUSH4 0x3EE5AEB5 PUSH1 0xE0 SHL PUSH1 0x0 MSTORE PUSH1 0x4 PUSH1 0x0 REVERT JUMPDEST PUSH1 0xFF PUSH1 0x0 SLOAD PUSH1 0xA0 SHR AND PUSH2 0x1F08 JUMPI JUMP JUMPDEST PUSH4 0xD93C0665 PUSH1 0xE0 SHL PUSH1 0x0 MSTORE PUSH1 0x4 PUSH1 0x0 REVERT JUMPDEST PUSH1 0x2 SLOAD PUSH1 0x40 MLOAD PUSH4 0x70A08231 PUSH1 0xE0 SHL DUP2 MSTORE ADDRESS PUSH1 0x4 DUP3 ADD MSTORE SWAP1 PUSH1 0x1 PUSH1 0x1 PUSH1 0xA0 SHL SUB AND PUSH1 0x20 DUP3 PUSH1 0x24 DUP2 DUP5 GAS STATICCALL SWAP2 DUP3 ISZERO PUSH2 0x1FE4 JUMPI PUSH1 0x0 SWAP3 PUSH2 0x202B JUMPI JUMPDEST POP DUP2 ISZERO PUSH2 0x1FF0 JUMPI PUSH1 0x4 DUP1 SLOAD PUSH1 0x40 MLOAD PUSH4 0xA9059CBB PUSH1 0xE0 SHL DUP2 MSTORE PUSH1 0x1 PUSH1 0x1 PUSH1 0xA0 SHL SUB SWAP1 SWAP2 AND SWAP2 DUP2 ADD SWAP2 SWAP1 SWAP2 MSTORE PUSH1 0x24 DUP2 ADD DUP4 SWAP1 MSTORE SWAP1 PUSH1 0x20 SWAP1 DUP3 SWAP1 PUSH1 0x44 SWAP1 DUP3 SWAP1 PUSH1 0x0 SWAP1 GAS CALL DUP1 ISZERO PUSH2 0x1FE4 JUMPI PUSH2 0x1FA9 SWAP2 PUSH1 0x0 SWAP2 PUSH2 0x80C JUMPI POP PUSH2 0x1D40 JUMP JUMPDEST PUSH1 0x4 SLOAD PUSH1 0x40 MLOAD SWAP2 DUP3 MSTORE PUSH1 0x1 PUSH1 0x1 PUSH1 0xA0 SHL SUB AND SWAP1 PUSH32 0x221C08A06B07A64803B3787861A3F276212FCCCB51C2E6234077A9B8CB13047A SWAP1 PUSH1 0x20 SWAP1 LOG2 JUMP JUMPDEST PUSH1 0x40 MLOAD RETURNDATASIZE PUSH1 0x0 DUP3 RETURNDATACOPY RETURNDATASIZE SWAP1 REVERT JUMPDEST PUSH1 0x40 MLOAD PUSH3 0x461BCD PUSH1 0xE5 SHL DUP2 MSTORE PUSH1 0x20 PUSH1 0x4 DUP3 ADD MSTORE PUSH1 0x13 PUSH1 0x24 DUP3 ADD MSTORE PUSH19 0x4E6F2066756E647320746F2072656C65617365 PUSH1 0x68 SHL PUSH1 0x44 DUP3 ADD MSTORE PUSH1 0x64 SWAP1 REVERT JUMPDEST SWAP1 SWAP2 PUSH1 0x20 DUP3 RETURNDATASIZE PUSH1 0x20 GT PUSH2 0x2057 JUMPI JUMPDEST DUP2 PUSH2 0x2046 PUSH1 0x20 SWAP4 DUP4 PUSH2 0x1BBF JUMP JUMPDEST DUP2 ADD SUB SLT PUSH2 0x1A9 JUMPI POP MLOAD SWAP1 CODESIZE PUSH2 0x1F51 JUMP JUMPDEST RETURNDATASIZE SWAP2 POP PUSH2 0x2039 JUMP INVALID LOG2 PUSH5 0x6970667358 0x22 SLT KECCAK256 0xD8 0x2B NUMBER 0x27 DUP15 LOG4 JUMPDEST BASEFEE PUSH20 0x7329C0902DC7609D66D8153A57125BCF419140FC 0xFB 0x2A 0xB8 PUSH5 0x736F6C6343 STOP ADDMOD SHL STOP CALLER LOG2 PUSH5 0x6970667358 0x22 SLT KECCAK256 SUB DIV PUSH2 0xE7EC DUP4 INVALID PUSH32 0xF58B6D3AD5E5CE956DEA29BB43F67983933EA4046EDCEEC264736F6C63430008 SHL STOP CALLER "},"methodIdentifiers":{"changeDefaultFeePercentage(uint256)":"39d2c669","changeFeeWallet(address)":"3e4d0310","createFundraiser(address,uint256,uint256,uint256,(uint256,uint256,uint256)[])":"06f5e018","defaultFeePercentage()":"b4824034","feeWallet()":"f25f4b56","getFeeWallet()":"5459060d","owner()":"8da5cb5b","productTokenAddress()":"396f9701","renounceOwnership()":"715018a6","transferOwnership(address)":"f2fde38b","usdcAddress()":"02d45457"}}}}}