{"contracts/ProductToken.sol":{"ProductToken":{"abi":[{"inputs":[{"internalType":"string","name":"baseUri","type":"string"}],"stateMutability":"nonpayable","type":"constructor"},{"inputs":[],"name":"AccessControlBadConfirmation","type":"error"},{"inputs":[{"internalType":"address","name":"account","type":"address"},{"internalType":"bytes32","name":"neededRole","type":"bytes32"}],"name":"AccessControlUnauthorizedAccount","type":"error"},{"inputs":[{"internalType":"address","name":"sender","type":"address"},{"internalType":"uint256","name":"balance","type":"uint256"},{"internalType":"uint256","name":"needed","type":"uint256"},{"internalType":"uint256","name":"tokenId","type":"uint256"}],"name":"ERC1155InsufficientBalance","type":"error"},{"inputs":[{"internalType":"address","name":"approver","type":"address"}],"name":"ERC1155InvalidApprover","type":"error"},{"inputs":[{"internalType":"uint256","name":"idsLength","type":"uint256"},{"internalType":"uint256","name":"valuesLength","type":"uint256"}],"name":"ERC1155InvalidArrayLength","type":"error"},{"inputs":[{"internalType":"address","name":"operator","type":"address"}],"name":"ERC1155InvalidOperator","type":"error"},{"inputs":[{"internalType":"address","name":"receiver","type":"address"}],"name":"ERC1155InvalidReceiver","type":"error"},{"inputs":[{"internalType":"address","name":"sender","type":"address"}],"name":"ERC1155InvalidSender","type":"error"},{"inputs":[{"internalType":"address","name":"operator","type":"address"},{"internalType":"address","name":"owner","type":"address"}],"name":"ERC1155MissingApprovalForAll","type":"error"},{"anonymous":false,"inputs":[{"indexed":true,"internalType":"address","name":"account","type":"address"},{"indexed":true,"internalType":"address","name":"operator","type":"address"},{"indexed":false,"internalType":"bool","name":"approved","type":"bool"}],"name":"ApprovalForAll","type":"event"},{"anonymous":false,"inputs":[{"indexed":false,"internalType":"string","name":"newUri","type":"string"}],"name":"BaseURIUpdated","type":"event"},{"anonymous":false,"inputs":[{"indexed":true,"internalType":"address","name":"to","type":"address"},{"indexed":true,"internalType":"uint256","name":"productId","type":"uint256"},{"indexed":false,"internalType":"uint256","name":"amount","type":"uint256"}],"name":"ProductMinted","type":"event"},{"anonymous":false,"inputs":[{"indexed":true,"internalType":"bytes32","name":"role","type":"bytes32"},{"indexed":true,"internalType":"bytes32","name":"previousAdminRole","type":"bytes32"},{"indexed":true,"internalType":"bytes32","name":"newAdminRole","type":"bytes32"}],"name":"RoleAdminChanged","type":"event"},{"anonymous":false,"inputs":[{"indexed":true,"internalType":"bytes32","name":"role","type":"bytes32"},{"indexed":true,"internalType":"address","name":"account","type":"address"},{"indexed":true,"internalType":"address","name":"sender","type":"address"}],"name":"RoleGranted","type":"event"},{"anonymous":false,"inputs":[{"indexed":true,"internalType":"bytes32","name":"role","type":"bytes32"},{"indexed":true,"internalType":"address","name":"account","type":"address"},{"indexed":true,"internalType":"address","name":"sender","type":"address"}],"name":"RoleRevoked","type":"event"},{"anonymous":false,"inputs":[{"indexed":true,"internalType":"address","name":"operator","type":"address"},{"indexed":true,"internalType":"address","name":"from","type":"address"},{"indexed":true,"internalType":"address","name":"to","type":"address"},{"indexed":false,"internalType":"uint256[]","name":"ids","type":"uint256[]"},{"indexed":false,"internalType":"uint256[]","name":"values","type":"uint256[]"}],"name":"TransferBatch","type":"event"},{"anonymous":false,"inputs":[{"indexed":true,"internalType":"address","name":"operator","type":"address"},{"indexed":true,"internalType":"address","name":"from","type":"address"},{"indexed":true,"internalType":"address","name":"to","type":"address"},{"indexed":false,"internalType":"uint256","name":"id","type":"uint256"},{"indexed":false,"internalType":"uint256","name":"value","type":"uint256"}],"name":"TransferSingle","type":"event"},{"anonymous":false,"inputs":[{"indexed":false,"internalType":"string","name":"value","type":"string"},{"indexed":true,"internalType":"uint256","name":"id","type":"uint256"}],"name":"URI","type":"event"},{"inputs":[],"name":"DEFAULT_ADMIN_ROLE","outputs":[{"internalType":"bytes32","name":"","type":"bytes32"}],"stateMutability":"view","type":"function"},{"inputs":[],"name":"MINTER_ROLE","outputs":[{"internalType":"bytes32","name":"","type":"bytes32"}],"stateMutability":"view","type":"function"},{"inputs":[{"internalType":"address","name":"account","type":"address"},{"internalType":"uint256","name":"id","type":"uint256"}],"name":"balanceOf","outputs":[{"internalType":"uint256","name":"","type":"uint256"}],"stateMutability":"view","type":"function"},{"inputs":[{"internalType":"address[]","name":"accounts","type":"address[]"},{"internalType":"uint256[]","name":"ids","type":"uint256[]"}],"name":"balanceOfBatch","outputs":[{"internalType":"uint256[]","name":"","type":"uint256[]"}],"stateMutability":"view","type":"function"},{"inputs":[{"internalType":"address","name":"from","type":"address"},{"internalType":"uint256","name":"productId","type":"uint256"},{"internalType":"uint256","name":"amount","type":"uint256"}],"name":"burn","outputs":[],"stateMutability":"nonpayable","type":"function"},{"inputs":[],"name":"getProductIds","outputs":[{"internalType":"uint256[]","name":"","type":"uint256[]"}],"stateMutability":"view","type":"function"},{"inputs":[{"internalType":"bytes32","name":"role","type":"bytes32"}],"name":"getRoleAdmin","outputs":[{"internalType":"bytes32","name":"","type":"bytes32"}],"stateMutability":"view","type":"function"},{"inputs":[{"internalType":"bytes32","name":"role","type":"bytes32"},{"internalType":"address","name":"account","type":"address"}],"name":"grantRole","outputs":[],"stateMutability":"nonpayable","type":"function"},{"inputs":[{"internalType":"bytes32","name":"role","type":"bytes32"},{"internalType":"address","name":"account","type":"address"}],"name":"hasRole","outputs":[{"internalType":"bool","name":"","type":"bool"}],"stateMutability":"view","type":"function"},{"inputs":[{"internalType":"address","name":"account","type":"address"},{"internalType":"address","name":"operator","type":"address"}],"name":"isApprovedForAll","outputs":[{"internalType":"bool","name":"","type":"bool"}],"stateMutability":"view","type":"function"},{"inputs":[{"internalType":"address","name":"to","type":"address"},{"internalType":"uint256","name":"productId","type":"uint256"},{"internalType":"uint256","name":"amount","type":"uint256"}],"name":"mint","outputs":[],"stateMutability":"nonpayable","type":"function"},{"inputs":[{"internalType":"uint256","name":"productId","type":"uint256"}],"name":"productSupply","outputs":[{"internalType":"uint256","name":"","type":"uint256"}],"stateMutability":"view","type":"function"},{"inputs":[{"internalType":"bytes32","name":"role","type":"bytes32"},{"internalType":"address","name":"callerConfirmation","type":"address"}],"name":"renounceRole","outputs":[],"stateMutability":"nonpayable","type":"function"},{"inputs":[{"internalType":"bytes32","name":"role","type":"bytes32"},{"internalType":"address","name":"account","type":"address"}],"name":"revokeRole","outputs":[],"stateMutability":"nonpayable","type":"function"},{"inputs":[{"internalType":"address","name":"from","type":"address"},{"internalType":"address","name":"to","type":"address"},{"internalType":"uint256[]","name":"ids","type":"uint256[]"},{"internalType":"uint256[]","name":"values","type":"uint256[]"},{"internalType":"bytes","name":"data","type":"bytes"}],"name":"safeBatchTransferFrom","outputs":[],"stateMutability":"nonpayable","type":"function"},{"inputs":[{"internalType":"address","name":"from","type":"address"},{"internalType":"address","name":"to","type":"address"},{"internalType":"uint256","name":"id","type":"uint256"},{"internalType":"uint256","name":"value","type":"uint256"},{"internalType":"bytes","name":"data","type":"bytes"}],"name":"safeTransferFrom","outputs":[],"stateMutability":"nonpayable","type":"function"},{"inputs":[{"internalType":"address","name":"operator","type":"address"},{"internalType":"bool","name":"approved","type":"bool"}],"name":"setApprovalForAll","outputs":[],"stateMutability":"nonpayable","type":"function"},{"inputs":[{"internalType":"string","name":"newUri","type":"string"}],"name":"setBaseURI","outputs":[],"stateMutability":"nonpayable","type":"function"},{"inputs":[{"internalType":"bytes4","name":"interfaceId","type":"bytes4"}],"name":"supportsInterface","outputs":[{"internalType":"bool","name":"","type":"bool"}],"stateMutability":"view","type":"function"},{"inputs":[{"internalType":"uint256","name":"tokenId","type":"uint256"}],"name":"uri","outputs":[{"internalType":"string","name":"","type":"string"}],"stateMutability":"view","type":"function"}],"evm":{"bytecode":{"linkReferences":{},"object":"6080604052346102a5576000612016908138038061001c816102aa565b9384398201916020818403126102a1578051906001600160401b038211610289570182601f820112156102a1578051906001600160401b03821161028d5761006d601f8301601f19166020016102aa565b938285526020838301011161028957908291825b828110610272575050602090840101526020908061009e836102aa565b5250600254600181811c91168015610268575b8282101461020557601f811161023b575b5060006002558151906001600160401b03821161022557600654600181811c9116801561021b575b8282101461020557601f81116101be575b5080601f83116001146101575750819260009261014c575b50508160011b916000199060031b1c1916176006555b610132336102cf565b5061013c3361034b565b50604051611bd290816103e48239f35b015190503880610113565b90601f19831693600660005282600020926000905b8682106101a6575050836001951061018d575b505050811b01600655610129565b015160001960f88460031b161c1916905538808061017f565b8060018596829496860151815501950193019061016c565b600660005281600020601f840160051c8101918385106101fb575b601f0160051c01905b8181106101ef57506100fb565b600081556001016101e2565b90915081906101d9565b634e487b7160e01b600052602260045260246000fd5b90607f16906100ea565b634e487b7160e01b600052604160045260246000fd5b6002600052601f82600020910160051c8101905b81811061025c57506100c2565b6000815560010161024f565b90607f16906100b1565b602082820181015187830182015285945001610081565b8280fd5b634e487b7160e01b83526041600452602483fd5b5080fd5b600080fd5b6040519190601f01601f191682016001600160401b0381118382101761022557604052565b6001600160a01b0381166000908152600080516020611ff6833981519152602052604090205460ff16610345576001600160a01b03166000818152600080516020611ff683398151915260205260408120805460ff19166001179055339190600080516020611fb68339815191528180a4600190565b50600090565b6001600160a01b0381166000908152600080516020611fd6833981519152602052604090205460ff16610345576001600160a01b03166000818152600080516020611fd683398151915260205260408120805460ff191660011790553391907f9f2df0fed2c77648de5860a4cc508cd0818c85b8b8a1ab4ceeef8d981c8956a690600080516020611fb68339815191529080a460019056fe6080604052600436101561001257600080fd5b60003560e01c8062fdd58e1461015657806301ffc9a7146101515780630e89341c1461014c578063156e29f614610147578063248a9ca3146101425780632eb2c2d61461013d5780632f2ff15d1461013857806336568abe1461013357806347428e7b1461012e5780634e1273f41461012957806355f804b31461012457806391d148541461011f578063a217fddf1461011a578063a22cb46514610115578063d539139314610110578063d547741f1461010b578063e985e9c514610106578063ef8593e714610101578063f242432a146100fc5763f5298aca146100f757600080fd5b610e8f565b610d7f565b610d53565b610d02565b610cc2565b610c87565b610bce565b610bb2565b610b5f565b6109d5565b610920565b61089d565b610812565b6107cd565b61073e565b6105e9565b6104c7565b6102e4565b6101ff565b6101a0565b600435906001600160a01b038216820361017157565b600080fd5b602435906001600160a01b038216820361017157565b35906001600160a01b038216820361017157565b346101715760403660031901126101715760206101e46101be61015b565b6024356000526000835260406000209060018060a01b0316600052602052604060002090565b54604051908152f35b6001600160e01b031981160361017157565b346101715760203660031901126101715760043561021c816101ed565b63ffffffff60e01b16637965db0b60e01b8114908115610245575b506040519015158152602090f35b636cdb3d1360e11b811491508115610277575b8115610266575b5038610237565b6301ffc9a760e01b1490503861025f565b6303a24d0760e21b81149150610258565b60005b83811061029b5750506000910152565b818101518382015260200161028b565b906020916102c481518092818552858086019101610288565b601f01601f1916010190565b9060206102e19281815201906102ab565b90565b346101715760203660031901126101715760006004358072184f03e93ff9f4daa797ed6e38ed64bf6a1f0160401b81101561047a575b806d04ee2d6d415b85acef8100000000600a92101561045e575b662386f26fc10000811015610449575b6305f5e100811015610437575b612710811015610427575b6064811015610418575b101561040d575b6103aa602161037e60018501611389565b938401015b60001901916f181899199a1a9b1b9c1cb0b131b232b360811b600a82061a8353600a900490565b9081156103ba576103aa90610383565b604051610409906103fd816103ef6103de886103d8602085016110ce565b90611157565b64173539b7b760d91b815260050190565b03601f198101835282610634565b604051918291826102d0565b0390f35b60019091019061036d565b60029060649004930192610366565b600490612710900493019261035c565b6008906305f5e1009004930192610351565b601090662386f26fc100009004930192610344565b6020906d04ee2d6d415b85acef81000000009004930192610334565b506040915072184f03e93ff9f4daa797ed6e38ed64bf6a1f0160401b810461031a565b6060906003190112610171576004356001600160a01b038116810361017157906024359060443590565b34610171576104d53661049d565b90916104df6113bb565b6005548015908115610579575b507f1ace3364065011f2a2f041ccf777c9f5394104fb5c15ec40e2ed753531e33b21916105669161056b575b61052c856000526004602052604060002090565b6105378582546111e9565b905561054c6105446111f6565b8587846114bd565b6040519384526001600160a01b0316929081906020820190565b0390a3005b6105748561119a565b610518565b905060001981018181116105e4578111156105df5760056000527f036b6384b5eca791c62761152d0c79bb0604c104a5fb6f4eb0703f3154bb3daf01548314157f1ace3364065011f2a2f041ccf777c9f5394104fb5c15ec40e2ed753531e33b216104ec565b611184565b61116e565b34610171576020366003190112610171576020610616600435600052600360205260016040600020015490565b604051908152f35b634e487b7160e01b600052604160045260246000fd5b90601f8019910116810190811067ffffffffffffffff82111761065657604052565b61061e565b67ffffffffffffffff81116106565760051b60200190565b9080601f8301121561017157813561068a8161065b565b926106986040519485610634565b81845260208085019260051b82010192831161017157602001905b8282106106c05750505090565b81358152602091820191016106b3565b67ffffffffffffffff811161065657601f01601f191660200190565b9291926106f8826106d0565b916107066040519384610634565b829481845281830111610171578281602093846000960137010152565b9080601f83011215610171578160206102e1933591016106ec565b346101715760a03660031901126101715761075761015b565b61075f610176565b9060443567ffffffffffffffff811161017157610780903690600401610673565b60643567ffffffffffffffff8111610171576107a0903690600401610673565b906084359367ffffffffffffffff8511610171576107c56107cb953690600401610723565b9361120b565b005b34610171576040366003190112610171576107cb6004356107ec610176565b9061080d61080882600052600360205260016040600020015490565b611480565b61160a565b346101715760403660031901126101715760043561082e610176565b336001600160a01b03821603610847576107cb9161169e565b63334bd91960e11b60005260046000fd5b906020808351928381520192019060005b8181106108765750505090565b8251845260209384019390920191600101610869565b9060206102e1928181520190610858565b346101715760003660031901126101715760405180602060055491828152019060056000527f036b6384b5eca791c62761152d0c79bb0604c104a5fb6f4eb0703f3154bb3db09060005b81811061090a57610409856108fe81870382610634565b6040519182918261088c565b82548452602090930192600192830192016108e7565b346101715760403660031901126101715760043567ffffffffffffffff811161017157366023820112156101715780600401359061095d8261065b565b9161096b6040519384610634565b8083526024602084019160051b8301019136831161017157602401905b8282106109bd578360243567ffffffffffffffff811161017157610409916109b76108fe923690600401610673565b9061127e565b602080916109ca8461018c565b815201910190610988565b346101715760203660031901126101715760043567ffffffffffffffff8111610171573660238201121561017157610a179036906024816004013591016106ec565b610a1f61142d565b805167ffffffffffffffff811161065657610a4481610a3f600654611094565b611336565b6020601f8211600114610ab75791610a9882610aa7937f6741b2fc379fad678116fe3d4d4b9a1a184ab53ba36b86ad0fa66340b1ab41ad95600091610aac575b508160011b916000199060031b1c19161790565b600655604051918291826102d0565b0390a1005b905083015138610a84565b6006600052601f198216907ff652222313e28459528d920b65115c16c04f3efc82aaedc97be59f3f377c0d3f9160005b818110610b475750927f6741b2fc379fad678116fe3d4d4b9a1a184ab53ba36b86ad0fa66340b1ab41ad949260019282610aa79610610b2e575b5050811b016006556103fd565b84015160001960f88460031b161c191690553880610b21565b91926020600181928689015181550194019201610ae7565b3461017157604036600319011261017157602060ff610ba6600435610b82610176565b906000526003845260406000209060018060a01b0316600052602052604060002090565b54166040519015158152f35b3461017157600036600319011261017157602060405160008152f35b3461017157604036600319011261017157610be761015b565b6024359081151590818303610171576001600160a01b038116928315610c7257610c33610c449233600052600160205260406000209060018060a01b0316600052602052604060002090565b9060ff801983541691151516179055565b6040519081527f17307eab39ab6107e8899845ad3d59bd9653f200f220920489ca2b5937696c3160203392a3005b62ced3e160e81b600052600060045260246000fd5b346101715760003660031901126101715760206040517f9f2df0fed2c77648de5860a4cc508cd0818c85b8b8a1ab4ceeef8d981c8956a68152f35b34610171576040366003190112610171576107cb600435610ce1610176565b90610cfd61080882600052600360205260016040600020015490565b61169e565b3461017157604036600319011261017157602060ff610ba6610d2261015b565b610d2a610176565b6001600160a01b0391821660009081526001865260408082209290931681526020919091522090565b346101715760203660031901126101715760043560005260046020526020604060002054604051908152f35b346101715760a036600319011261017157610d9861015b565b610da0610176565b604435906064359260843567ffffffffffffffff811161017157610dc8903690600401610723565b926001600160a01b0382163381141580610e6b575b610e53576001600160a01b03841615610e3d5715610e28576107cb94610e2060405192600184526020840152604083019160018352606084015260808301604052565b929091611729565b626a0d4560e21b600052600060045260246000fd5b632bfa23e760e11b600052600060045260246000fd5b63711bec9160e11b6000523360045260245260446000fd5b50600081815260016020908152604080832033845290915290205460ff1615610ddd565b3461017157610e9d3661049d565b9091610ea76113bb565b6001600160a01b03811615610e2857610ee082849160405192600184526020840152604083019160018352606084015260808301604052565b91906020906000604051610ef48482610634565b52805184519081810361107d5750506001600160a01b0383168015159690959060005b8351811015610fd6578060051b8986808388010151928a01015190610f41575b5050600101610f17565b610f7088610f59846000526000602052604060002090565b9060018060a01b0316600052602052604060002090565b54818110610f9f5788610f596001959493610f979303936000526000602052604060002090565b559038610f37565b6040516303dee4c560e01b81526001600160a01b038a16600482015260248101919091526044810182905260648101839052608490fd5b5083600491600089868a8560018351148514611041579182015191015160408051928352602083019190915233917fc3d58168c5ae7397731d063d5bbf3d657854427343f4c083240f7aacaa2d0f629190a45b60005252604060002080549182039182116105e45755005b506110757f4a39dc06d4c0dbc64b70af90fd698a233a518aa5d07e595d983b8c0526c8f7fb9160405191829133958361190a565b0390a4611029565b635b05999160e01b60005260045260245260446000fd5b90600182811c921680156110c4575b60208310146110ae57565b634e487b7160e01b600052602260045260246000fd5b91607f16916110a3565b600654600092916110de82611094565b916001811690811561114557506001146110f6575050565b6006600090815292935090917ff652222313e28459528d920b65115c16c04f3efc82aaedc97be59f3f377c0d3f5b8382106111315750500190565b600181602092548486015201910190611124565b60ff1916825250811515909102019150565b9061116a60209282815194859201610288565b0190565b634e487b7160e01b600052601160045260246000fd5b634e487b7160e01b600052603260045260246000fd5b6005546801000000000000000081101561065657600181016005556005548110156105df5760056000527f036b6384b5eca791c62761152d0c79bb0604c104a5fb6f4eb0703f3154bb3db00155565b919082018092116105e457565b60405190611205602083610634565b60008252565b939291906001600160a01b0385163381141580611246575b610e53576001600160a01b03821615610e3d5715610e285761124494611729565b565b50600081815260016020908152604080832033845290915290205460ff1615611223565b80518210156105df5760209160051b010190565b9190918051835180820361131f57505080519061129a8261065b565b916112a86040519384610634565b8083526112b7601f199161065b565b0136602084013760005b8151811015611318578061130760019260051b60208082870101519189010151906000918252602082815260408084206001600160a01b03909316845291905290205490565b611311828661126a565b52016112c1565b5090925050565b635b05999160e01b60005260045260245260446000fd5b601f8111611342575050565b60066000526020600020906020601f840160051c8301931061137f575b601f0160051c01905b818110611373575050565b60008155600101611368565b909150819061135f565b90611393826106d0565b6113a06040519182610634565b82815280926113b1601f19916106d0565b0190602036910137565b3360009081527f5562e70da342db81569f3094d36be279beaca7ad8e08f434ea188e79d2bfe10c602052604090205460ff16156113f457565b63e2517d3f60e01b600052336004527f9f2df0fed2c77648de5860a4cc508cd0818c85b8b8a1ab4ceeef8d981c8956a660245260446000fd5b3360009081527f3617319a054d772f909f7c479a2cebe5066e836a939412e32403c99029b92eff602052604090205460ff161561146657565b63e2517d3f60e01b60005233600452600060245260446000fd5b600081815260036020908152604080832033845290915290205460ff16156114a55750565b63e2517d3f60e01b6000523360045260245260446000fd5b6001600160a01b03811693929091908415610e3d576114f960405192600184526020840152604083019160018352606084015260808301604052565b92815184519081810361107d57505060005b8251811015611553578060019160051b61154b61154387610f59602080868b010151958c010151946000526000602052604060002090565b9182546111e9565b90550161150b565b5092919360018251146000146115ce5760208281015184820151604080519283529282015260009133917fc3d58168c5ae7397731d063d5bbf3d657854427343f4c083240f7aacaa2d0f629190a45b80516001036115c257906020806112449593015191015191600033611afc565b611244936000336119c7565b60006040517f4a39dc06d4c0dbc64b70af90fd698a233a518aa5d07e595d983b8c0526c8f7fb33918061160288888361190a565b0390a46115a2565b60008181526003602090815260408083206001600160a01b038616845290915290205460ff166116975760008181526003602090815260408083206001600160a01b03861684529091529020805460ff1916600117905533916001600160a01b0316907f2f8788117e7eff1d82e926ec794901d17c78024a50270940304540a733656f0d600080a4600190565b5050600090565b60008181526003602090815260408083206001600160a01b038616845290915290205460ff16156116975760008181526003602090815260408083206001600160a01b03861684529091529020805460ff1916905533916001600160a01b0316907ff6391f5c32d9c69d2a47ea670b442974b53935d1edc7fd64eb21e047a839171b600080a4600190565b949392909193845182519081810361107d5750506001600160a01b0386811695861515959185168015159391929060005b845181101561183c578060051b90898988602080868b010151958c010151926117b5575b93600194611790575b5050500161175a565b6117ab91610f59611543926000526000602052604060002090565b9055388981611787565b505090916117d18d610f59836000526000602052604060002090565b54828110611805578291898f6117fc600197968f950391610f59856000526000602052604060002090565b5590945061177e565b6040516303dee4c560e01b81526001600160a01b038f16600482015260248101919091526044810183905260648101829052608490fd5b5091989593929790965060018851146000146118d05760208881015186820151604080519283529282015233917fc3d58168c5ae7397731d063d5bbf3d657854427343f4c083240f7aacaa2d0f6291a45b611899575b5050505050565b84516001036118bf576020806118b59601519201519233611afc565b3880808080611892565b6118cb949192336119c7565b6118b5565b6040517f4a39dc06d4c0dbc64b70af90fd698a233a518aa5d07e595d983b8c0526c8f7fb339180611902898d8361190a565b0390a461188d565b90916119216102e193604084526040840190610858565b916020818403910152610858565b9081602091031261017157516102e1816101ed565b6001600160a01b0391821681529116602082015260a0604082018190526102e19491939192611989929161197b9190860190610858565b908482036060860152610858565b9160808184039101526102ab565b3d156119c2573d906119a8826106d0565b916119b66040519384610634565b82523d6000602084013e565b606090565b9091949293853b6119db575b505050505050565b6020936119fd91604051968795869563bc197c8160e01b875260048701611944565b038160006001600160a01b0387165af160009181611a92575b50611a525750611a24611997565b8051919082611a4b57632bfa23e760e11b6000526001600160a01b03821660045260246000fd5b9050602001fd5b6001600160e01b0319166343e6837f60e01b01611a7557503880808080806119d3565b632bfa23e760e11b6000526001600160a01b031660045260246000fd5b611ab591925060203d602011611abc575b611aad8183610634565b81019061192f565b9038611a16565b503d611aa3565b6001600160a01b039182168152911660208201526040810191909152606081019190915260a0608082018190526102e1929101906102ab565b9091949293853b611b0f57505050505050565b602093611b3191604051968795869563f23a6e6160e01b875260048701611ac3565b038160006001600160a01b0387165af160009181611b7b575b50611b585750611a24611997565b6001600160e01b031916630dc5919f60e01b01611a7557503880808080806119d3565b611b9591925060203d602011611abc57611aad8183610634565b9038611b4a56fea2646970667358221220a2eecec26ffb5c66a76300aa8457550fc50dfbe5a30ad09afde152616decfa8864736f6c634300081b00332f8788117e7eff1d82e926ec794901d17c78024a50270940304540a733656f0d5562e70da342db81569f3094d36be279beaca7ad8e08f434ea188e79d2bfe10c3617319a054d772f909f7c479a2cebe5066e836a939412e32403c99029b92eff","opcodes":"PUSH1 0x80 PUSH1 0x40 MSTORE CALLVALUE PUSH2 0x2A5 JUMPI PUSH1 0x0 PUSH2 0x2016 SWAP1 DUP2 CODESIZE SUB DUP1 PUSH2 0x1C DUP2 PUSH2 0x2AA JUMP JUMPDEST SWAP4 DUP5 CODECOPY DUP3 ADD SWAP2 PUSH1 0x20 DUP2 DUP5 SUB SLT PUSH2 0x2A1 JUMPI DUP1 MLOAD SWAP1 PUSH1 0x1 PUSH1 0x1 PUSH1 0x40 SHL SUB DUP3 GT PUSH2 0x289 JUMPI ADD DUP3 PUSH1 0x1F DUP3 ADD SLT ISZERO PUSH2 0x2A1 JUMPI DUP1 MLOAD SWAP1 PUSH1 0x1 PUSH1 0x1 PUSH1 0x40 SHL SUB DUP3 GT PUSH2 0x28D JUMPI PUSH2 0x6D PUSH1 0x1F DUP4 ADD PUSH1 0x1F NOT AND PUSH1 0x20 ADD PUSH2 0x2AA JUMP JUMPDEST SWAP4 DUP3 DUP6 MSTORE PUSH1 0x20 DUP4 DUP4 ADD ADD GT PUSH2 0x289 JUMPI SWAP1 DUP3 SWAP2 DUP3 JUMPDEST DUP3 DUP2 LT PUSH2 0x272 JUMPI POP POP PUSH1 0x20 SWAP1 DUP5 ADD ADD MSTORE PUSH1 0x20 SWAP1 DUP1 PUSH2 0x9E DUP4 PUSH2 0x2AA JUMP JUMPDEST MSTORE POP PUSH1 0x2 SLOAD PUSH1 0x1 DUP2 DUP2 SHR SWAP2 AND DUP1 ISZERO PUSH2 0x268 JUMPI JUMPDEST DUP3 DUP3 LT EQ PUSH2 0x205 JUMPI PUSH1 0x1F DUP2 GT PUSH2 0x23B JUMPI JUMPDEST POP PUSH1 0x0 PUSH1 0x2 SSTORE DUP2 MLOAD SWAP1 PUSH1 0x1 PUSH1 0x1 PUSH1 0x40 SHL SUB DUP3 GT PUSH2 0x225 JUMPI PUSH1 0x6 SLOAD PUSH1 0x1 DUP2 DUP2 SHR SWAP2 AND DUP1 ISZERO PUSH2 0x21B JUMPI JUMPDEST DUP3 DUP3 LT EQ PUSH2 0x205 JUMPI PUSH1 0x1F DUP2 GT PUSH2 0x1BE JUMPI JUMPDEST POP DUP1 PUSH1 0x1F DUP4 GT PUSH1 0x1 EQ PUSH2 0x157 JUMPI POP DUP2 SWAP3 PUSH1 0x0 SWAP3 PUSH2 0x14C JUMPI JUMPDEST POP POP DUP2 PUSH1 0x1 SHL SWAP2 PUSH1 0x0 NOT SWAP1 PUSH1 0x3 SHL SHR NOT AND OR PUSH1 0x6 SSTORE JUMPDEST PUSH2 0x132 CALLER PUSH2 0x2CF JUMP JUMPDEST POP PUSH2 0x13C CALLER PUSH2 0x34B JUMP JUMPDEST POP PUSH1 0x40 MLOAD PUSH2 0x1BD2 SWAP1 DUP2 PUSH2 0x3E4 DUP3 CODECOPY RETURN JUMPDEST ADD MLOAD SWAP1 POP CODESIZE DUP1 PUSH2 0x113 JUMP JUMPDEST SWAP1 PUSH1 0x1F NOT DUP4 AND SWAP4 PUSH1 0x6 PUSH1 0x0 MSTORE DUP3 PUSH1 0x0 KECCAK256 SWAP3 PUSH1 0x0 SWAP1 JUMPDEST DUP7 DUP3 LT PUSH2 0x1A6 JUMPI POP POP DUP4 PUSH1 0x1 SWAP6 LT PUSH2 0x18D JUMPI JUMPDEST POP POP POP DUP2 SHL ADD PUSH1 0x6 SSTORE PUSH2 0x129 JUMP JUMPDEST ADD MLOAD PUSH1 0x0 NOT PUSH1 0xF8 DUP5 PUSH1 0x3 SHL AND SHR NOT AND SWAP1 SSTORE CODESIZE DUP1 DUP1 PUSH2 0x17F JUMP JUMPDEST DUP1 PUSH1 0x1 DUP6 SWAP7 DUP3 SWAP5 SWAP7 DUP7 ADD MLOAD DUP2 SSTORE ADD SWAP6 ADD SWAP4 ADD SWAP1 PUSH2 0x16C JUMP JUMPDEST PUSH1 0x6 PUSH1 0x0 MSTORE DUP2 PUSH1 0x0 KECCAK256 PUSH1 0x1F DUP5 ADD PUSH1 0x5 SHR DUP2 ADD SWAP2 DUP4 DUP6 LT PUSH2 0x1FB JUMPI JUMPDEST PUSH1 0x1F ADD PUSH1 0x5 SHR ADD SWAP1 JUMPDEST DUP2 DUP2 LT PUSH2 0x1EF JUMPI POP PUSH2 0xFB JUMP JUMPDEST PUSH1 0x0 DUP2 SSTORE PUSH1 0x1 ADD PUSH2 0x1E2 JUMP JUMPDEST SWAP1 SWAP2 POP DUP2 SWAP1 PUSH2 0x1D9 JUMP JUMPDEST PUSH4 0x4E487B71 PUSH1 0xE0 SHL PUSH1 0x0 MSTORE PUSH1 0x22 PUSH1 0x4 MSTORE PUSH1 0x24 PUSH1 0x0 REVERT JUMPDEST SWAP1 PUSH1 0x7F AND SWAP1 PUSH2 0xEA JUMP JUMPDEST PUSH4 0x4E487B71 PUSH1 0xE0 SHL PUSH1 0x0 MSTORE PUSH1 0x41 PUSH1 0x4 MSTORE PUSH1 0x24 PUSH1 0x0 REVERT JUMPDEST PUSH1 0x2 PUSH1 0x0 MSTORE PUSH1 0x1F DUP3 PUSH1 0x0 KECCAK256 SWAP2 ADD PUSH1 0x5 SHR DUP2 ADD SWAP1 JUMPDEST DUP2 DUP2 LT PUSH2 0x25C JUMPI POP PUSH2 0xC2 JUMP JUMPDEST PUSH1 0x0 DUP2 SSTORE PUSH1 0x1 ADD PUSH2 0x24F JUMP JUMPDEST SWAP1 PUSH1 0x7F AND SWAP1 PUSH2 0xB1 JUMP JUMPDEST PUSH1 0x20 DUP3 DUP3 ADD DUP2 ADD MLOAD DUP8 DUP4 ADD DUP3 ADD MSTORE DUP6 SWAP5 POP ADD PUSH2 0x81 JUMP JUMPDEST DUP3 DUP1 REVERT JUMPDEST PUSH4 0x4E487B71 PUSH1 0xE0 SHL DUP4 MSTORE PUSH1 0x41 PUSH1 0x4 MSTORE PUSH1 0x24 DUP4 REVERT JUMPDEST POP DUP1 REVERT JUMPDEST PUSH1 0x0 DUP1 REVERT JUMPDEST PUSH1 0x40 MLOAD SWAP2 SWAP1 PUSH1 0x1F ADD PUSH1 0x1F NOT AND DUP3 ADD PUSH1 0x1 PUSH1 0x1 PUSH1 0x40 SHL SUB DUP2 GT DUP4 DUP3 LT OR PUSH2 0x225 JUMPI PUSH1 0x40 MSTORE JUMP JUMPDEST PUSH1 0x1 PUSH1 0x1 PUSH1 0xA0 SHL SUB DUP2 AND PUSH1 0x0 SWAP1 DUP2 MSTORE PUSH1 0x0 DUP1 MLOAD PUSH1 0x20 PUSH2 0x1FF6 DUP4 CODECOPY DUP2 MLOAD SWAP2 MSTORE PUSH1 0x20 MSTORE PUSH1 0x40 SWAP1 KECCAK256 SLOAD PUSH1 0xFF AND PUSH2 0x345 JUMPI PUSH1 0x1 PUSH1 0x1 PUSH1 0xA0 SHL SUB AND PUSH1 0x0 DUP2 DUP2 MSTORE PUSH1 0x0 DUP1 MLOAD PUSH1 0x20 PUSH2 0x1FF6 DUP4 CODECOPY DUP2 MLOAD SWAP2 MSTORE PUSH1 0x20 MSTORE PUSH1 0x40 DUP2 KECCAK256 DUP1 SLOAD PUSH1 0xFF NOT AND PUSH1 0x1 OR SWAP1 SSTORE CALLER SWAP2 SWAP1 PUSH1 0x0 DUP1 MLOAD PUSH1 0x20 PUSH2 0x1FB6 DUP4 CODECOPY DUP2 MLOAD SWAP2 MSTORE DUP2 DUP1 LOG4 PUSH1 0x1 SWAP1 JUMP JUMPDEST POP PUSH1 0x0 SWAP1 JUMP JUMPDEST PUSH1 0x1 PUSH1 0x1 PUSH1 0xA0 SHL SUB DUP2 AND PUSH1 0x0 SWAP1 DUP2 MSTORE PUSH1 0x0 DUP1 MLOAD PUSH1 0x20 PUSH2 0x1FD6 DUP4 CODECOPY DUP2 MLOAD SWAP2 MSTORE PUSH1 0x20 MSTORE PUSH1 0x40 SWAP1 KECCAK256 SLOAD PUSH1 0xFF AND PUSH2 0x345 JUMPI PUSH1 0x1 PUSH1 0x1 PUSH1 0xA0 SHL SUB AND PUSH1 0x0 DUP2 DUP2 MSTORE PUSH1 0x0 DUP1 MLOAD PUSH1 0x20 PUSH2 0x1FD6 DUP4 CODECOPY DUP2 MLOAD SWAP2 MSTORE PUSH1 0x20 MSTORE PUSH1 0x40 DUP2 KECCAK256 DUP1 SLOAD PUSH1 0xFF NOT AND PUSH1 0x1 OR SWAP1 SSTORE CALLER SWAP2 SWAP1 PUSH32 0x9F2DF0FED2C77648DE5860A4CC508CD0818C85B8B8A1AB4CEEEF8D981C8956A6 SWAP1 PUSH1 0x0 DUP1 MLOAD PUSH1 0x20 PUSH2 0x1FB6 DUP4 CODECOPY DUP2 MLOAD SWAP2 MSTORE SWAP1 DUP1 LOG4 PUSH1 0x1 SWAP1 JUMP INVALID PUSH1 0x80 PUSH1 0x40 MSTORE PUSH1 0x4 CALLDATASIZE LT ISZERO PUSH2 0x12 JUMPI PUSH1 0x0 DUP1 REVERT JUMPDEST PUSH1 0x0 CALLDATALOAD PUSH1 0xE0 SHR DUP1 PUSH3 0xFDD58E EQ PUSH2 0x156 JUMPI DUP1 PUSH4 0x1FFC9A7 EQ PUSH2 0x151 JUMPI DUP1 PUSH4 0xE89341C EQ PUSH2 0x14C JUMPI DUP1 PUSH4 0x156E29F6 EQ PUSH2 0x147 JUMPI DUP1 PUSH4 0x248A9CA3 EQ PUSH2 0x142 JUMPI DUP1 PUSH4 0x2EB2C2D6 EQ PUSH2 0x13D JUMPI DUP1 PUSH4 0x2F2FF15D EQ PUSH2 0x138 JUMPI DUP1 PUSH4 0x36568ABE EQ PUSH2 0x133 JUMPI DUP1 PUSH4 0x47428E7B EQ PUSH2 0x12E JUMPI DUP1 PUSH4 0x4E1273F4 EQ PUSH2 0x129 JUMPI DUP1 PUSH4 0x55F804B3 EQ PUSH2 0x124 JUMPI DUP1 PUSH4 0x91D14854 EQ PUSH2 0x11F JUMPI DUP1 PUSH4 0xA217FDDF EQ PUSH2 0x11A JUMPI DUP1 PUSH4 0xA22CB465 EQ PUSH2 0x115 JUMPI DUP1 PUSH4 0xD5391393 EQ PUSH2 0x110 JUMPI DUP1 PUSH4 0xD547741F EQ PUSH2 0x10B JUMPI DUP1 PUSH4 0xE985E9C5 EQ PUSH2 0x106 JUMPI DUP1 PUSH4 0xEF8593E7 EQ PUSH2 0x101 JUMPI DUP1 PUSH4 0xF242432A EQ PUSH2 0xFC JUMPI PUSH4 0xF5298ACA EQ PUSH2 0xF7 JUMPI PUSH1 0x0 DUP1 REVERT JUMPDEST PUSH2 0xE8F JUMP JUMPDEST PUSH2 0xD7F JUMP JUMPDEST PUSH2 0xD53 JUMP JUMPDEST PUSH2 0xD02 JUMP JUMPDEST PUSH2 0xCC2 JUMP JUMPDEST PUSH2 0xC87 JUMP JUMPDEST PUSH2 0xBCE JUMP JUMPDEST PUSH2 0xBB2 JUMP JUMPDEST PUSH2 0xB5F JUMP JUMPDEST PUSH2 0x9D5 JUMP JUMPDEST PUSH2 0x920 JUMP JUMPDEST PUSH2 0x89D JUMP JUMPDEST PUSH2 0x812 JUMP JUMPDEST PUSH2 0x7CD JUMP JUMPDEST PUSH2 0x73E JUMP JUMPDEST PUSH2 0x5E9 JUMP JUMPDEST PUSH2 0x4C7 JUMP JUMPDEST PUSH2 0x2E4 JUMP JUMPDEST PUSH2 0x1FF JUMP JUMPDEST PUSH2 0x1A0 JUMP JUMPDEST PUSH1 0x4 CALLDATALOAD SWAP1 PUSH1 0x1 PUSH1 0x1 PUSH1 0xA0 SHL SUB DUP3 AND DUP3 SUB PUSH2 0x171 JUMPI JUMP JUMPDEST PUSH1 0x0 DUP1 REVERT JUMPDEST PUSH1 0x24 CALLDATALOAD SWAP1 PUSH1 0x1 PUSH1 0x1 PUSH1 0xA0 SHL SUB DUP3 AND DUP3 SUB PUSH2 0x171 JUMPI JUMP JUMPDEST CALLDATALOAD SWAP1 PUSH1 0x1 PUSH1 0x1 PUSH1 0xA0 SHL SUB DUP3 AND DUP3 SUB PUSH2 0x171 JUMPI JUMP JUMPDEST CALLVALUE PUSH2 0x171 JUMPI PUSH1 0x40 CALLDATASIZE PUSH1 0x3 NOT ADD SLT PUSH2 0x171 JUMPI PUSH1 0x20 PUSH2 0x1E4 PUSH2 0x1BE PUSH2 0x15B JUMP JUMPDEST PUSH1 0x24 CALLDATALOAD PUSH1 0x0 MSTORE PUSH1 0x0 DUP4 MSTORE PUSH1 0x40 PUSH1 0x0 KECCAK256 SWAP1 PUSH1 0x1 DUP1 PUSH1 0xA0 SHL SUB AND PUSH1 0x0 MSTORE PUSH1 0x20 MSTORE PUSH1 0x40 PUSH1 0x0 KECCAK256 SWAP1 JUMP JUMPDEST SLOAD PUSH1 0x40 MLOAD SWAP1 DUP2 MSTORE RETURN JUMPDEST PUSH1 0x1 PUSH1 0x1 PUSH1 0xE0 SHL SUB NOT DUP2 AND SUB PUSH2 0x171 JUMPI JUMP JUMPDEST CALLVALUE PUSH2 0x171 JUMPI PUSH1 0x20 CALLDATASIZE PUSH1 0x3 NOT ADD SLT PUSH2 0x171 JUMPI PUSH1 0x4 CALLDATALOAD PUSH2 0x21C DUP2 PUSH2 0x1ED JUMP JUMPDEST PUSH4 0xFFFFFFFF PUSH1 0xE0 SHL AND PUSH4 0x7965DB0B PUSH1 0xE0 SHL DUP2 EQ SWAP1 DUP2 ISZERO PUSH2 0x245 JUMPI JUMPDEST POP PUSH1 0x40 MLOAD SWAP1 ISZERO ISZERO DUP2 MSTORE PUSH1 0x20 SWAP1 RETURN JUMPDEST PUSH4 0x6CDB3D13 PUSH1 0xE1 SHL DUP2 EQ SWAP2 POP DUP2 ISZERO PUSH2 0x277 JUMPI JUMPDEST DUP2 ISZERO PUSH2 0x266 JUMPI JUMPDEST POP CODESIZE PUSH2 0x237 JUMP JUMPDEST PUSH4 0x1FFC9A7 PUSH1 0xE0 SHL EQ SWAP1 POP CODESIZE PUSH2 0x25F JUMP JUMPDEST PUSH4 0x3A24D07 PUSH1 0xE2 SHL DUP2 EQ SWAP2 POP PUSH2 0x258 JUMP JUMPDEST PUSH1 0x0 JUMPDEST DUP4 DUP2 LT PUSH2 0x29B JUMPI POP POP PUSH1 0x0 SWAP2 ADD MSTORE JUMP JUMPDEST DUP2 DUP2 ADD MLOAD DUP4 DUP3 ADD MSTORE PUSH1 0x20 ADD PUSH2 0x28B JUMP JUMPDEST SWAP1 PUSH1 0x20 SWAP2 PUSH2 0x2C4 DUP2 MLOAD DUP1 SWAP3 DUP2 DUP6 MSTORE DUP6 DUP1 DUP7 ADD SWAP2 ADD PUSH2 0x288 JUMP JUMPDEST PUSH1 0x1F ADD PUSH1 0x1F NOT AND ADD ADD SWAP1 JUMP JUMPDEST SWAP1 PUSH1 0x20 PUSH2 0x2E1 SWAP3 DUP2 DUP2 MSTORE ADD SWAP1 PUSH2 0x2AB JUMP JUMPDEST SWAP1 JUMP JUMPDEST CALLVALUE PUSH2 0x171 JUMPI PUSH1 0x20 CALLDATASIZE PUSH1 0x3 NOT ADD SLT PUSH2 0x171 JUMPI PUSH1 0x0 PUSH1 0x4 CALLDATALOAD DUP1 PUSH19 0x184F03E93FF9F4DAA797ED6E38ED64BF6A1F01 PUSH1 0x40 SHL DUP2 LT ISZERO PUSH2 0x47A JUMPI JUMPDEST DUP1 PUSH14 0x4EE2D6D415B85ACEF8100000000 PUSH1 0xA SWAP3 LT ISZERO PUSH2 0x45E JUMPI JUMPDEST PUSH7 0x2386F26FC10000 DUP2 LT ISZERO PUSH2 0x449 JUMPI JUMPDEST PUSH4 0x5F5E100 DUP2 LT ISZERO PUSH2 0x437 JUMPI JUMPDEST PUSH2 0x2710 DUP2 LT ISZERO PUSH2 0x427 JUMPI JUMPDEST PUSH1 0x64 DUP2 LT ISZERO PUSH2 0x418 JUMPI JUMPDEST LT ISZERO PUSH2 0x40D JUMPI JUMPDEST PUSH2 0x3AA PUSH1 0x21 PUSH2 0x37E PUSH1 0x1 DUP6 ADD PUSH2 0x1389 JUMP JUMPDEST SWAP4 DUP5 ADD ADD JUMPDEST PUSH1 0x0 NOT ADD SWAP2 PUSH16 0x181899199A1A9B1B9C1CB0B131B232B3 PUSH1 0x81 SHL PUSH1 0xA DUP3 MOD BYTE DUP4 MSTORE8 PUSH1 0xA SWAP1 DIV SWAP1 JUMP JUMPDEST SWAP1 DUP2 ISZERO PUSH2 0x3BA JUMPI PUSH2 0x3AA SWAP1 PUSH2 0x383 JUMP JUMPDEST PUSH1 0x40 MLOAD PUSH2 0x409 SWAP1 PUSH2 0x3FD DUP2 PUSH2 0x3EF PUSH2 0x3DE DUP9 PUSH2 0x3D8 PUSH1 0x20 DUP6 ADD PUSH2 0x10CE JUMP JUMPDEST SWAP1 PUSH2 0x1157 JUMP JUMPDEST PUSH5 0x173539B7B7 PUSH1 0xD9 SHL DUP2 MSTORE PUSH1 0x5 ADD SWAP1 JUMP JUMPDEST SUB PUSH1 0x1F NOT DUP2 ADD DUP4 MSTORE DUP3 PUSH2 0x634 JUMP JUMPDEST PUSH1 0x40 MLOAD SWAP2 DUP3 SWAP2 DUP3 PUSH2 0x2D0 JUMP JUMPDEST SUB SWAP1 RETURN JUMPDEST PUSH1 0x1 SWAP1 SWAP2 ADD SWAP1 PUSH2 0x36D JUMP JUMPDEST PUSH1 0x2 SWAP1 PUSH1 0x64 SWAP1 DIV SWAP4 ADD SWAP3 PUSH2 0x366 JUMP JUMPDEST PUSH1 0x4 SWAP1 PUSH2 0x2710 SWAP1 DIV SWAP4 ADD SWAP3 PUSH2 0x35C JUMP JUMPDEST PUSH1 0x8 SWAP1 PUSH4 0x5F5E100 SWAP1 DIV SWAP4 ADD SWAP3 PUSH2 0x351 JUMP JUMPDEST PUSH1 0x10 SWAP1 PUSH7 0x2386F26FC10000 SWAP1 DIV SWAP4 ADD SWAP3 PUSH2 0x344 JUMP JUMPDEST PUSH1 0x20 SWAP1 PUSH14 0x4EE2D6D415B85ACEF8100000000 SWAP1 DIV SWAP4 ADD SWAP3 PUSH2 0x334 JUMP JUMPDEST POP PUSH1 0x40 SWAP2 POP PUSH19 0x184F03E93FF9F4DAA797ED6E38ED64BF6A1F01 PUSH1 0x40 SHL DUP2 DIV PUSH2 0x31A JUMP JUMPDEST PUSH1 0x60 SWAP1 PUSH1 0x3 NOT ADD SLT PUSH2 0x171 JUMPI PUSH1 0x4 CALLDATALOAD PUSH1 0x1 PUSH1 0x1 PUSH1 0xA0 SHL SUB DUP2 AND DUP2 SUB PUSH2 0x171 JUMPI SWAP1 PUSH1 0x24 CALLDATALOAD SWAP1 PUSH1 0x44 CALLDATALOAD SWAP1 JUMP JUMPDEST CALLVALUE PUSH2 0x171 JUMPI PUSH2 0x4D5 CALLDATASIZE PUSH2 0x49D JUMP JUMPDEST SWAP1 SWAP2 PUSH2 0x4DF PUSH2 0x13BB JUMP JUMPDEST PUSH1 0x5 SLOAD DUP1 ISZERO SWAP1 DUP2 ISZERO PUSH2 0x579 JUMPI JUMPDEST POP PUSH32 0x1ACE3364065011F2A2F041CCF777C9F5394104FB5C15EC40E2ED753531E33B21 SWAP2 PUSH2 0x566 SWAP2 PUSH2 0x56B JUMPI JUMPDEST PUSH2 0x52C DUP6 PUSH1 0x0 MSTORE PUSH1 0x4 PUSH1 0x20 MSTORE PUSH1 0x40 PUSH1 0x0 KECCAK256 SWAP1 JUMP JUMPDEST PUSH2 0x537 DUP6 DUP3 SLOAD PUSH2 0x11E9 JUMP JUMPDEST SWAP1 SSTORE PUSH2 0x54C PUSH2 0x544 PUSH2 0x11F6 JUMP JUMPDEST DUP6 DUP8 DUP5 PUSH2 0x14BD JUMP JUMPDEST PUSH1 0x40 MLOAD SWAP4 DUP5 MSTORE PUSH1 0x1 PUSH1 0x1 PUSH1 0xA0 SHL SUB AND SWAP3 SWAP1 DUP2 SWAP1 PUSH1 0x20 DUP3 ADD SWAP1 JUMP JUMPDEST SUB SWAP1 LOG3 STOP JUMPDEST PUSH2 0x574 DUP6 PUSH2 0x119A JUMP JUMPDEST PUSH2 0x518 JUMP JUMPDEST SWAP1 POP PUSH1 0x0 NOT DUP2 ADD DUP2 DUP2 GT PUSH2 0x5E4 JUMPI DUP2 GT ISZERO PUSH2 0x5DF JUMPI PUSH1 0x5 PUSH1 0x0 MSTORE PUSH32 0x36B6384B5ECA791C62761152D0C79BB0604C104A5FB6F4EB0703F3154BB3DAF ADD SLOAD DUP4 EQ ISZERO PUSH32 0x1ACE3364065011F2A2F041CCF777C9F5394104FB5C15EC40E2ED753531E33B21 PUSH2 0x4EC JUMP JUMPDEST PUSH2 0x1184 JUMP JUMPDEST PUSH2 0x116E JUMP JUMPDEST CALLVALUE PUSH2 0x171 JUMPI PUSH1 0x20 CALLDATASIZE PUSH1 0x3 NOT ADD SLT PUSH2 0x171 JUMPI PUSH1 0x20 PUSH2 0x616 PUSH1 0x4 CALLDATALOAD PUSH1 0x0 MSTORE PUSH1 0x3 PUSH1 0x20 MSTORE PUSH1 0x1 PUSH1 0x40 PUSH1 0x0 KECCAK256 ADD SLOAD SWAP1 JUMP JUMPDEST PUSH1 0x40 MLOAD SWAP1 DUP2 MSTORE RETURN JUMPDEST PUSH4 0x4E487B71 PUSH1 0xE0 SHL PUSH1 0x0 MSTORE PUSH1 0x41 PUSH1 0x4 MSTORE PUSH1 0x24 PUSH1 0x0 REVERT JUMPDEST SWAP1 PUSH1 0x1F DUP1 NOT SWAP2 ADD AND DUP2 ADD SWAP1 DUP2 LT PUSH8 0xFFFFFFFFFFFFFFFF DUP3 GT OR PUSH2 0x656 JUMPI PUSH1 0x40 MSTORE JUMP JUMPDEST PUSH2 0x61E JUMP JUMPDEST PUSH8 0xFFFFFFFFFFFFFFFF DUP2 GT PUSH2 0x656 JUMPI PUSH1 0x5 SHL PUSH1 0x20 ADD SWAP1 JUMP JUMPDEST SWAP1 DUP1 PUSH1 0x1F DUP4 ADD SLT ISZERO PUSH2 0x171 JUMPI DUP2 CALLDATALOAD PUSH2 0x68A DUP2 PUSH2 0x65B JUMP JUMPDEST SWAP3 PUSH2 0x698 PUSH1 0x40 MLOAD SWAP5 DUP6 PUSH2 0x634 JUMP JUMPDEST DUP2 DUP5 MSTORE PUSH1 0x20 DUP1 DUP6 ADD SWAP3 PUSH1 0x5 SHL DUP3 ADD ADD SWAP3 DUP4 GT PUSH2 0x171 JUMPI PUSH1 0x20 ADD SWAP1 JUMPDEST DUP3 DUP3 LT PUSH2 0x6C0 JUMPI POP POP POP SWAP1 JUMP JUMPDEST DUP2 CALLDATALOAD DUP2 MSTORE PUSH1 0x20 SWAP2 DUP3 ADD SWAP2 ADD PUSH2 0x6B3 JUMP JUMPDEST PUSH8 0xFFFFFFFFFFFFFFFF DUP2 GT PUSH2 0x656 JUMPI PUSH1 0x1F ADD PUSH1 0x1F NOT AND PUSH1 0x20 ADD SWAP1 JUMP JUMPDEST SWAP3 SWAP2 SWAP3 PUSH2 0x6F8 DUP3 PUSH2 0x6D0 JUMP JUMPDEST SWAP2 PUSH2 0x706 PUSH1 0x40 MLOAD SWAP4 DUP5 PUSH2 0x634 JUMP JUMPDEST DUP3 SWAP5 DUP2 DUP5 MSTORE DUP2 DUP4 ADD GT PUSH2 0x171 JUMPI DUP3 DUP2 PUSH1 0x20 SWAP4 DUP5 PUSH1 0x0 SWAP7 ADD CALLDATACOPY ADD ADD MSTORE JUMP JUMPDEST SWAP1 DUP1 PUSH1 0x1F DUP4 ADD SLT ISZERO PUSH2 0x171 JUMPI DUP2 PUSH1 0x20 PUSH2 0x2E1 SWAP4 CALLDATALOAD SWAP2 ADD PUSH2 0x6EC JUMP JUMPDEST CALLVALUE PUSH2 0x171 JUMPI PUSH1 0xA0 CALLDATASIZE PUSH1 0x3 NOT ADD SLT PUSH2 0x171 JUMPI PUSH2 0x757 PUSH2 0x15B JUMP JUMPDEST PUSH2 0x75F PUSH2 0x176 JUMP JUMPDEST SWAP1 PUSH1 0x44 CALLDATALOAD PUSH8 0xFFFFFFFFFFFFFFFF DUP2 GT PUSH2 0x171 JUMPI PUSH2 0x780 SWAP1 CALLDATASIZE SWAP1 PUSH1 0x4 ADD PUSH2 0x673 JUMP JUMPDEST PUSH1 0x64 CALLDATALOAD PUSH8 0xFFFFFFFFFFFFFFFF DUP2 GT PUSH2 0x171 JUMPI PUSH2 0x7A0 SWAP1 CALLDATASIZE SWAP1 PUSH1 0x4 ADD PUSH2 0x673 JUMP JUMPDEST SWAP1 PUSH1 0x84 CALLDATALOAD SWAP4 PUSH8 0xFFFFFFFFFFFFFFFF DUP6 GT PUSH2 0x171 JUMPI PUSH2 0x7C5 PUSH2 0x7CB SWAP6 CALLDATASIZE SWAP1 PUSH1 0x4 ADD PUSH2 0x723 JUMP JUMPDEST SWAP4 PUSH2 0x120B JUMP JUMPDEST STOP JUMPDEST CALLVALUE PUSH2 0x171 JUMPI PUSH1 0x40 CALLDATASIZE PUSH1 0x3 NOT ADD SLT PUSH2 0x171 JUMPI PUSH2 0x7CB PUSH1 0x4 CALLDATALOAD PUSH2 0x7EC PUSH2 0x176 JUMP JUMPDEST SWAP1 PUSH2 0x80D PUSH2 0x808 DUP3 PUSH1 0x0 MSTORE PUSH1 0x3 PUSH1 0x20 MSTORE PUSH1 0x1 PUSH1 0x40 PUSH1 0x0 KECCAK256 ADD SLOAD SWAP1 JUMP JUMPDEST PUSH2 0x1480 JUMP JUMPDEST PUSH2 0x160A JUMP JUMPDEST CALLVALUE PUSH2 0x171 JUMPI PUSH1 0x40 CALLDATASIZE PUSH1 0x3 NOT ADD SLT PUSH2 0x171 JUMPI PUSH1 0x4 CALLDATALOAD PUSH2 0x82E PUSH2 0x176 JUMP JUMPDEST CALLER PUSH1 0x1 PUSH1 0x1 PUSH1 0xA0 SHL SUB DUP3 AND SUB PUSH2 0x847 JUMPI PUSH2 0x7CB SWAP2 PUSH2 0x169E JUMP JUMPDEST PUSH4 0x334BD919 PUSH1 0xE1 SHL PUSH1 0x0 MSTORE PUSH1 0x4 PUSH1 0x0 REVERT JUMPDEST SWAP1 PUSH1 0x20 DUP1 DUP4 MLOAD SWAP3 DUP4 DUP2 MSTORE ADD SWAP3 ADD SWAP1 PUSH1 0x0 JUMPDEST DUP2 DUP2 LT PUSH2 0x876 JUMPI POP POP POP SWAP1 JUMP JUMPDEST DUP3 MLOAD DUP5 MSTORE PUSH1 0x20 SWAP4 DUP5 ADD SWAP4 SWAP1 SWAP3 ADD SWAP2 PUSH1 0x1 ADD PUSH2 0x869 JUMP JUMPDEST SWAP1 PUSH1 0x20 PUSH2 0x2E1 SWAP3 DUP2 DUP2 MSTORE ADD SWAP1 PUSH2 0x858 JUMP JUMPDEST CALLVALUE PUSH2 0x171 JUMPI PUSH1 0x0 CALLDATASIZE PUSH1 0x3 NOT ADD SLT PUSH2 0x171 JUMPI PUSH1 0x40 MLOAD DUP1 PUSH1 0x20 PUSH1 0x5 SLOAD SWAP2 DUP3 DUP2 MSTORE ADD SWAP1 PUSH1 0x5 PUSH1 0x0 MSTORE PUSH32 0x36B6384B5ECA791C62761152D0C79BB0604C104A5FB6F4EB0703F3154BB3DB0 SWAP1 PUSH1 0x0 JUMPDEST DUP2 DUP2 LT PUSH2 0x90A JUMPI PUSH2 0x409 DUP6 PUSH2 0x8FE DUP2 DUP8 SUB DUP3 PUSH2 0x634 JUMP JUMPDEST PUSH1 0x40 MLOAD SWAP2 DUP3 SWAP2 DUP3 PUSH2 0x88C JUMP JUMPDEST DUP3 SLOAD DUP5 MSTORE PUSH1 0x20 SWAP1 SWAP4 ADD SWAP3 PUSH1 0x1 SWAP3 DUP4 ADD SWAP3 ADD PUSH2 0x8E7 JUMP JUMPDEST CALLVALUE PUSH2 0x171 JUMPI PUSH1 0x40 CALLDATASIZE PUSH1 0x3 NOT ADD SLT PUSH2 0x171 JUMPI PUSH1 0x4 CALLDATALOAD PUSH8 0xFFFFFFFFFFFFFFFF DUP2 GT PUSH2 0x171 JUMPI CALLDATASIZE PUSH1 0x23 DUP3 ADD SLT ISZERO PUSH2 0x171 JUMPI DUP1 PUSH1 0x4 ADD CALLDATALOAD SWAP1 PUSH2 0x95D DUP3 PUSH2 0x65B JUMP JUMPDEST SWAP2 PUSH2 0x96B PUSH1 0x40 MLOAD SWAP4 DUP5 PUSH2 0x634 JUMP JUMPDEST DUP1 DUP4 MSTORE PUSH1 0x24 PUSH1 0x20 DUP5 ADD SWAP2 PUSH1 0x5 SHL DUP4 ADD ADD SWAP2 CALLDATASIZE DUP4 GT PUSH2 0x171 JUMPI PUSH1 0x24 ADD SWAP1 JUMPDEST DUP3 DUP3 LT PUSH2 0x9BD JUMPI DUP4 PUSH1 0x24 CALLDATALOAD PUSH8 0xFFFFFFFFFFFFFFFF DUP2 GT PUSH2 0x171 JUMPI PUSH2 0x409 SWAP2 PUSH2 0x9B7 PUSH2 0x8FE SWAP3 CALLDATASIZE SWAP1 PUSH1 0x4 ADD PUSH2 0x673 JUMP JUMPDEST SWAP1 PUSH2 0x127E JUMP JUMPDEST PUSH1 0x20 DUP1 SWAP2 PUSH2 0x9CA DUP5 PUSH2 0x18C JUMP JUMPDEST DUP2 MSTORE ADD SWAP2 ADD SWAP1 PUSH2 0x988 JUMP JUMPDEST CALLVALUE PUSH2 0x171 JUMPI PUSH1 0x20 CALLDATASIZE PUSH1 0x3 NOT ADD SLT PUSH2 0x171 JUMPI PUSH1 0x4 CALLDATALOAD PUSH8 0xFFFFFFFFFFFFFFFF DUP2 GT PUSH2 0x171 JUMPI CALLDATASIZE PUSH1 0x23 DUP3 ADD SLT ISZERO PUSH2 0x171 JUMPI PUSH2 0xA17 SWAP1 CALLDATASIZE SWAP1 PUSH1 0x24 DUP2 PUSH1 0x4 ADD CALLDATALOAD SWAP2 ADD PUSH2 0x6EC JUMP JUMPDEST PUSH2 0xA1F PUSH2 0x142D JUMP JUMPDEST DUP1 MLOAD PUSH8 0xFFFFFFFFFFFFFFFF DUP2 GT PUSH2 0x656 JUMPI PUSH2 0xA44 DUP2 PUSH2 0xA3F PUSH1 0x6 SLOAD PUSH2 0x1094 JUMP JUMPDEST PUSH2 0x1336 JUMP JUMPDEST PUSH1 0x20 PUSH1 0x1F DUP3 GT PUSH1 0x1 EQ PUSH2 0xAB7 JUMPI SWAP2 PUSH2 0xA98 DUP3 PUSH2 0xAA7 SWAP4 PUSH32 0x6741B2FC379FAD678116FE3D4D4B9A1A184AB53BA36B86AD0FA66340B1AB41AD SWAP6 PUSH1 0x0 SWAP2 PUSH2 0xAAC JUMPI JUMPDEST POP DUP2 PUSH1 0x1 SHL SWAP2 PUSH1 0x0 NOT SWAP1 PUSH1 0x3 SHL SHR NOT AND OR SWAP1 JUMP JUMPDEST PUSH1 0x6 SSTORE PUSH1 0x40 MLOAD SWAP2 DUP3 SWAP2 DUP3 PUSH2 0x2D0 JUMP JUMPDEST SUB SWAP1 LOG1 STOP JUMPDEST SWAP1 POP DUP4 ADD MLOAD CODESIZE PUSH2 0xA84 JUMP JUMPDEST PUSH1 0x6 PUSH1 0x0 MSTORE PUSH1 0x1F NOT DUP3 AND SWAP1 PUSH32 0xF652222313E28459528D920B65115C16C04F3EFC82AAEDC97BE59F3F377C0D3F SWAP2 PUSH1 0x0 JUMPDEST DUP2 DUP2 LT PUSH2 0xB47 JUMPI POP SWAP3 PUSH32 0x6741B2FC379FAD678116FE3D4D4B9A1A184AB53BA36B86AD0FA66340B1AB41AD SWAP5 SWAP3 PUSH1 0x1 SWAP3 DUP3 PUSH2 0xAA7 SWAP7 LT PUSH2 0xB2E JUMPI JUMPDEST POP POP DUP2 SHL ADD PUSH1 0x6 SSTORE PUSH2 0x3FD JUMP JUMPDEST DUP5 ADD MLOAD PUSH1 0x0 NOT PUSH1 0xF8 DUP5 PUSH1 0x3 SHL AND SHR NOT AND SWAP1 SSTORE CODESIZE DUP1 PUSH2 0xB21 JUMP JUMPDEST SWAP2 SWAP3 PUSH1 0x20 PUSH1 0x1 DUP2 SWAP3 DUP7 DUP10 ADD MLOAD DUP2 SSTORE ADD SWAP5 ADD SWAP3 ADD PUSH2 0xAE7 JUMP JUMPDEST CALLVALUE PUSH2 0x171 JUMPI PUSH1 0x40 CALLDATASIZE PUSH1 0x3 NOT ADD SLT PUSH2 0x171 JUMPI PUSH1 0x20 PUSH1 0xFF PUSH2 0xBA6 PUSH1 0x4 CALLDATALOAD PUSH2 0xB82 PUSH2 0x176 JUMP JUMPDEST SWAP1 PUSH1 0x0 MSTORE PUSH1 0x3 DUP5 MSTORE PUSH1 0x40 PUSH1 0x0 KECCAK256 SWAP1 PUSH1 0x1 DUP1 PUSH1 0xA0 SHL SUB AND PUSH1 0x0 MSTORE PUSH1 0x20 MSTORE PUSH1 0x40 PUSH1 0x0 KECCAK256 SWAP1 JUMP JUMPDEST SLOAD AND PUSH1 0x40 MLOAD SWAP1 ISZERO ISZERO DUP2 MSTORE RETURN JUMPDEST CALLVALUE PUSH2 0x171 JUMPI PUSH1 0x0 CALLDATASIZE PUSH1 0x3 NOT ADD SLT PUSH2 0x171 JUMPI PUSH1 0x20 PUSH1 0x40 MLOAD PUSH1 0x0 DUP2 MSTORE RETURN JUMPDEST CALLVALUE PUSH2 0x171 JUMPI PUSH1 0x40 CALLDATASIZE PUSH1 0x3 NOT ADD SLT PUSH2 0x171 JUMPI PUSH2 0xBE7 PUSH2 0x15B JUMP JUMPDEST PUSH1 0x24 CALLDATALOAD SWAP1 DUP2 ISZERO ISZERO SWAP1 DUP2 DUP4 SUB PUSH2 0x171 JUMPI PUSH1 0x1 PUSH1 0x1 PUSH1 0xA0 SHL SUB DUP2 AND SWAP3 DUP4 ISZERO PUSH2 0xC72 JUMPI PUSH2 0xC33 PUSH2 0xC44 SWAP3 CALLER PUSH1 0x0 MSTORE PUSH1 0x1 PUSH1 0x20 MSTORE PUSH1 0x40 PUSH1 0x0 KECCAK256 SWAP1 PUSH1 0x1 DUP1 PUSH1 0xA0 SHL SUB AND PUSH1 0x0 MSTORE PUSH1 0x20 MSTORE PUSH1 0x40 PUSH1 0x0 KECCAK256 SWAP1 JUMP JUMPDEST SWAP1 PUSH1 0xFF DUP1 NOT DUP4 SLOAD AND SWAP2 ISZERO ISZERO AND OR SWAP1 SSTORE JUMP JUMPDEST PUSH1 0x40 MLOAD SWAP1 DUP2 MSTORE PUSH32 0x17307EAB39AB6107E8899845AD3D59BD9653F200F220920489CA2B5937696C31 PUSH1 0x20 CALLER SWAP3 LOG3 STOP JUMPDEST PUSH3 0xCED3E1 PUSH1 0xE8 SHL PUSH1 0x0 MSTORE PUSH1 0x0 PUSH1 0x4 MSTORE PUSH1 0x24 PUSH1 0x0 REVERT JUMPDEST CALLVALUE PUSH2 0x171 JUMPI PUSH1 0x0 CALLDATASIZE PUSH1 0x3 NOT ADD SLT PUSH2 0x171 JUMPI PUSH1 0x20 PUSH1 0x40 MLOAD PUSH32 0x9F2DF0FED2C77648DE5860A4CC508CD0818C85B8B8A1AB4CEEEF8D981C8956A6 DUP2 MSTORE RETURN JUMPDEST CALLVALUE PUSH2 0x171 JUMPI PUSH1 0x40 CALLDATASIZE PUSH1 0x3 NOT ADD SLT PUSH2 0x171 JUMPI PUSH2 0x7CB PUSH1 0x4 CALLDATALOAD PUSH2 0xCE1 PUSH2 0x176 JUMP JUMPDEST SWAP1 PUSH2 0xCFD PUSH2 0x808 DUP3 PUSH1 0x0 MSTORE PUSH1 0x3 PUSH1 0x20 MSTORE PUSH1 0x1 PUSH1 0x40 PUSH1 0x0 KECCAK256 ADD SLOAD SWAP1 JUMP JUMPDEST PUSH2 0x169E JUMP JUMPDEST CALLVALUE PUSH2 0x171 JUMPI PUSH1 0x40 CALLDATASIZE PUSH1 0x3 NOT ADD SLT PUSH2 0x171 JUMPI PUSH1 0x20 PUSH1 0xFF PUSH2 0xBA6 PUSH2 0xD22 PUSH2 0x15B JUMP JUMPDEST PUSH2 0xD2A PUSH2 0x176 JUMP JUMPDEST PUSH1 0x1 PUSH1 0x1 PUSH1 0xA0 SHL SUB SWAP2 DUP3 AND PUSH1 0x0 SWAP1 DUP2 MSTORE PUSH1 0x1 DUP7 MSTORE PUSH1 0x40 DUP1 DUP3 KECCAK256 SWAP3 SWAP1 SWAP4 AND DUP2 MSTORE PUSH1 0x20 SWAP2 SWAP1 SWAP2 MSTORE KECCAK256 SWAP1 JUMP JUMPDEST CALLVALUE PUSH2 0x171 JUMPI PUSH1 0x20 CALLDATASIZE PUSH1 0x3 NOT ADD SLT PUSH2 0x171 JUMPI PUSH1 0x4 CALLDATALOAD PUSH1 0x0 MSTORE PUSH1 0x4 PUSH1 0x20 MSTORE PUSH1 0x20 PUSH1 0x40 PUSH1 0x0 KECCAK256 SLOAD PUSH1 0x40 MLOAD SWAP1 DUP2 MSTORE RETURN JUMPDEST CALLVALUE PUSH2 0x171 JUMPI PUSH1 0xA0 CALLDATASIZE PUSH1 0x3 NOT ADD SLT PUSH2 0x171 JUMPI PUSH2 0xD98 PUSH2 0x15B JUMP JUMPDEST PUSH2 0xDA0 PUSH2 0x176 JUMP JUMPDEST PUSH1 0x44 CALLDATALOAD SWAP1 PUSH1 0x64 CALLDATALOAD SWAP3 PUSH1 0x84 CALLDATALOAD PUSH8 0xFFFFFFFFFFFFFFFF DUP2 GT PUSH2 0x171 JUMPI PUSH2 0xDC8 SWAP1 CALLDATASIZE SWAP1 PUSH1 0x4 ADD PUSH2 0x723 JUMP JUMPDEST SWAP3 PUSH1 0x1 PUSH1 0x1 PUSH1 0xA0 SHL SUB DUP3 AND CALLER DUP2 EQ ISZERO DUP1 PUSH2 0xE6B JUMPI JUMPDEST PUSH2 0xE53 JUMPI PUSH1 0x1 PUSH1 0x1 PUSH1 0xA0 SHL SUB DUP5 AND ISZERO PUSH2 0xE3D JUMPI ISZERO PUSH2 0xE28 JUMPI PUSH2 0x7CB SWAP5 PUSH2 0xE20 PUSH1 0x40 MLOAD SWAP3 PUSH1 0x1 DUP5 MSTORE PUSH1 0x20 DUP5 ADD MSTORE PUSH1 0x40 DUP4 ADD SWAP2 PUSH1 0x1 DUP4 MSTORE PUSH1 0x60 DUP5 ADD MSTORE PUSH1 0x80 DUP4 ADD PUSH1 0x40 MSTORE JUMP JUMPDEST SWAP3 SWAP1 SWAP2 PUSH2 0x1729 JUMP JUMPDEST PUSH3 0x6A0D45 PUSH1 0xE2 SHL PUSH1 0x0 MSTORE PUSH1 0x0 PUSH1 0x4 MSTORE PUSH1 0x24 PUSH1 0x0 REVERT JUMPDEST PUSH4 0x2BFA23E7 PUSH1 0xE1 SHL PUSH1 0x0 MSTORE PUSH1 0x0 PUSH1 0x4 MSTORE PUSH1 0x24 PUSH1 0x0 REVERT JUMPDEST PUSH4 0x711BEC91 PUSH1 0xE1 SHL PUSH1 0x0 MSTORE CALLER PUSH1 0x4 MSTORE PUSH1 0x24 MSTORE PUSH1 0x44 PUSH1 0x0 REVERT JUMPDEST POP PUSH1 0x0 DUP2 DUP2 MSTORE PUSH1 0x1 PUSH1 0x20 SWAP1 DUP2 MSTORE PUSH1 0x40 DUP1 DUP4 KECCAK256 CALLER DUP5 MSTORE SWAP1 SWAP2 MSTORE SWAP1 KECCAK256 SLOAD PUSH1 0xFF AND ISZERO PUSH2 0xDDD JUMP JUMPDEST CALLVALUE PUSH2 0x171 JUMPI PUSH2 0xE9D CALLDATASIZE PUSH2 0x49D JUMP JUMPDEST SWAP1 SWAP2 PUSH2 0xEA7 PUSH2 0x13BB JUMP JUMPDEST PUSH1 0x1 PUSH1 0x1 PUSH1 0xA0 SHL SUB DUP2 AND ISZERO PUSH2 0xE28 JUMPI PUSH2 0xEE0 DUP3 DUP5 SWAP2 PUSH1 0x40 MLOAD SWAP3 PUSH1 0x1 DUP5 MSTORE PUSH1 0x20 DUP5 ADD MSTORE PUSH1 0x40 DUP4 ADD SWAP2 PUSH1 0x1 DUP4 MSTORE PUSH1 0x60 DUP5 ADD MSTORE PUSH1 0x80 DUP4 ADD PUSH1 0x40 MSTORE JUMP JUMPDEST SWAP2 SWAP1 PUSH1 0x20 SWAP1 PUSH1 0x0 PUSH1 0x40 MLOAD PUSH2 0xEF4 DUP5 DUP3 PUSH2 0x634 JUMP JUMPDEST MSTORE DUP1 MLOAD DUP5 MLOAD SWAP1 DUP2 DUP2 SUB PUSH2 0x107D JUMPI POP POP PUSH1 0x1 PUSH1 0x1 PUSH1 0xA0 SHL SUB DUP4 AND DUP1 ISZERO ISZERO SWAP7 SWAP1 SWAP6 SWAP1 PUSH1 0x0 JUMPDEST DUP4 MLOAD DUP2 LT ISZERO PUSH2 0xFD6 JUMPI DUP1 PUSH1 0x5 SHL DUP10 DUP7 DUP1 DUP4 DUP9 ADD ADD MLOAD SWAP3 DUP11 ADD ADD MLOAD SWAP1 PUSH2 0xF41 JUMPI JUMPDEST POP POP PUSH1 0x1 ADD PUSH2 0xF17 JUMP JUMPDEST PUSH2 0xF70 DUP9 PUSH2 0xF59 DUP5 PUSH1 0x0 MSTORE PUSH1 0x0 PUSH1 0x20 MSTORE PUSH1 0x40 PUSH1 0x0 KECCAK256 SWAP1 JUMP JUMPDEST SWAP1 PUSH1 0x1 DUP1 PUSH1 0xA0 SHL SUB AND PUSH1 0x0 MSTORE PUSH1 0x20 MSTORE PUSH1 0x40 PUSH1 0x0 KECCAK256 SWAP1 JUMP JUMPDEST SLOAD DUP2 DUP2 LT PUSH2 0xF9F JUMPI DUP9 PUSH2 0xF59 PUSH1 0x1 SWAP6 SWAP5 SWAP4 PUSH2 0xF97 SWAP4 SUB SWAP4 PUSH1 0x0 MSTORE PUSH1 0x0 PUSH1 0x20 MSTORE PUSH1 0x40 PUSH1 0x0 KECCAK256 SWAP1 JUMP JUMPDEST SSTORE SWAP1 CODESIZE PUSH2 0xF37 JUMP JUMPDEST PUSH1 0x40 MLOAD PUSH4 0x3DEE4C5 PUSH1 0xE0 SHL DUP2 MSTORE PUSH1 0x1 PUSH1 0x1 PUSH1 0xA0 SHL SUB DUP11 AND PUSH1 0x4 DUP3 ADD MSTORE PUSH1 0x24 DUP2 ADD SWAP2 SWAP1 SWAP2 MSTORE PUSH1 0x44 DUP2 ADD DUP3 SWAP1 MSTORE PUSH1 0x64 DUP2 ADD DUP4 SWAP1 MSTORE PUSH1 0x84 SWAP1 REVERT JUMPDEST POP DUP4 PUSH1 0x4 SWAP2 PUSH1 0x0 DUP10 DUP7 DUP11 DUP6 PUSH1 0x1 DUP4 MLOAD EQ DUP6 EQ PUSH2 0x1041 JUMPI SWAP2 DUP3 ADD MLOAD SWAP2 ADD MLOAD PUSH1 0x40 DUP1 MLOAD SWAP3 DUP4 MSTORE PUSH1 0x20 DUP4 ADD SWAP2 SWAP1 SWAP2 MSTORE CALLER SWAP2 PUSH32 0xC3D58168C5AE7397731D063D5BBF3D657854427343F4C083240F7AACAA2D0F62 SWAP2 SWAP1 LOG4 JUMPDEST PUSH1 0x0 MSTORE MSTORE PUSH1 0x40 PUSH1 0x0 KECCAK256 DUP1 SLOAD SWAP2 DUP3 SUB SWAP2 DUP3 GT PUSH2 0x5E4 JUMPI SSTORE STOP JUMPDEST POP PUSH2 0x1075 PUSH32 0x4A39DC06D4C0DBC64B70AF90FD698A233A518AA5D07E595D983B8C0526C8F7FB SWAP2 PUSH1 0x40 MLOAD SWAP2 DUP3 SWAP2 CALLER SWAP6 DUP4 PUSH2 0x190A JUMP JUMPDEST SUB SWAP1 LOG4 PUSH2 0x1029 JUMP JUMPDEST PUSH4 0x5B059991 PUSH1 0xE0 SHL PUSH1 0x0 MSTORE PUSH1 0x4 MSTORE PUSH1 0x24 MSTORE PUSH1 0x44 PUSH1 0x0 REVERT JUMPDEST SWAP1 PUSH1 0x1 DUP3 DUP2 SHR SWAP3 AND DUP1 ISZERO PUSH2 0x10C4 JUMPI JUMPDEST PUSH1 0x20 DUP4 LT EQ PUSH2 0x10AE JUMPI JUMP JUMPDEST PUSH4 0x4E487B71 PUSH1 0xE0 SHL PUSH1 0x0 MSTORE PUSH1 0x22 PUSH1 0x4 MSTORE PUSH1 0x24 PUSH1 0x0 REVERT JUMPDEST SWAP2 PUSH1 0x7F AND SWAP2 PUSH2 0x10A3 JUMP JUMPDEST PUSH1 0x6 SLOAD PUSH1 0x0 SWAP3 SWAP2 PUSH2 0x10DE DUP3 PUSH2 0x1094 JUMP JUMPDEST SWAP2 PUSH1 0x1 DUP2 AND SWAP1 DUP2 ISZERO PUSH2 0x1145 JUMPI POP PUSH1 0x1 EQ PUSH2 0x10F6 JUMPI POP POP JUMP JUMPDEST PUSH1 0x6 PUSH1 0x0 SWAP1 DUP2 MSTORE SWAP3 SWAP4 POP SWAP1 SWAP2 PUSH32 0xF652222313E28459528D920B65115C16C04F3EFC82AAEDC97BE59F3F377C0D3F JUMPDEST DUP4 DUP3 LT PUSH2 0x1131 JUMPI POP POP ADD SWAP1 JUMP JUMPDEST PUSH1 0x1 DUP2 PUSH1 0x20 SWAP3 SLOAD DUP5 DUP7 ADD MSTORE ADD SWAP2 ADD SWAP1 PUSH2 0x1124 JUMP JUMPDEST PUSH1 0xFF NOT AND DUP3 MSTORE POP DUP2 ISZERO ISZERO SWAP1 SWAP2 MUL ADD SWAP2 POP JUMP JUMPDEST SWAP1 PUSH2 0x116A PUSH1 0x20 SWAP3 DUP3 DUP2 MLOAD SWAP5 DUP6 SWAP3 ADD PUSH2 0x288 JUMP JUMPDEST ADD SWAP1 JUMP JUMPDEST PUSH4 0x4E487B71 PUSH1 0xE0 SHL PUSH1 0x0 MSTORE PUSH1 0x11 PUSH1 0x4 MSTORE PUSH1 0x24 PUSH1 0x0 REVERT JUMPDEST PUSH4 0x4E487B71 PUSH1 0xE0 SHL PUSH1 0x0 MSTORE PUSH1 0x32 PUSH1 0x4 MSTORE PUSH1 0x24 PUSH1 0x0 REVERT JUMPDEST PUSH1 0x5 SLOAD PUSH9 0x10000000000000000 DUP2 LT ISZERO PUSH2 0x656 JUMPI PUSH1 0x1 DUP2 ADD PUSH1 0x5 SSTORE PUSH1 0x5 SLOAD DUP2 LT ISZERO PUSH2 0x5DF JUMPI PUSH1 0x5 PUSH1 0x0 MSTORE PUSH32 0x36B6384B5ECA791C62761152D0C79BB0604C104A5FB6F4EB0703F3154BB3DB0 ADD SSTORE JUMP JUMPDEST SWAP2 SWAP1 DUP3 ADD DUP1 SWAP3 GT PUSH2 0x5E4 JUMPI JUMP JUMPDEST PUSH1 0x40 MLOAD SWAP1 PUSH2 0x1205 PUSH1 0x20 DUP4 PUSH2 0x634 JUMP JUMPDEST PUSH1 0x0 DUP3 MSTORE JUMP JUMPDEST SWAP4 SWAP3 SWAP2 SWAP1 PUSH1 0x1 PUSH1 0x1 PUSH1 0xA0 SHL SUB DUP6 AND CALLER DUP2 EQ ISZERO DUP1 PUSH2 0x1246 JUMPI JUMPDEST PUSH2 0xE53 JUMPI PUSH1 0x1 PUSH1 0x1 PUSH1 0xA0 SHL SUB DUP3 AND ISZERO PUSH2 0xE3D JUMPI ISZERO PUSH2 0xE28 JUMPI PUSH2 0x1244 SWAP5 PUSH2 0x1729 JUMP JUMPDEST JUMP JUMPDEST POP PUSH1 0x0 DUP2 DUP2 MSTORE PUSH1 0x1 PUSH1 0x20 SWAP1 DUP2 MSTORE PUSH1 0x40 DUP1 DUP4 KECCAK256 CALLER DUP5 MSTORE SWAP1 SWAP2 MSTORE SWAP1 KECCAK256 SLOAD PUSH1 0xFF AND ISZERO PUSH2 0x1223 JUMP JUMPDEST DUP1 MLOAD DUP3 LT ISZERO PUSH2 0x5DF JUMPI PUSH1 0x20 SWAP2 PUSH1 0x5 SHL ADD ADD SWAP1 JUMP JUMPDEST SWAP2 SWAP1 SWAP2 DUP1 MLOAD DUP4 MLOAD DUP1 DUP3 SUB PUSH2 0x131F JUMPI POP POP DUP1 MLOAD SWAP1 PUSH2 0x129A DUP3 PUSH2 0x65B JUMP JUMPDEST SWAP2 PUSH2 0x12A8 PUSH1 0x40 MLOAD SWAP4 DUP5 PUSH2 0x634 JUMP JUMPDEST DUP1 DUP4 MSTORE PUSH2 0x12B7 PUSH1 0x1F NOT SWAP2 PUSH2 0x65B JUMP JUMPDEST ADD CALLDATASIZE PUSH1 0x20 DUP5 ADD CALLDATACOPY PUSH1 0x0 JUMPDEST DUP2 MLOAD DUP2 LT ISZERO PUSH2 0x1318 JUMPI DUP1 PUSH2 0x1307 PUSH1 0x1 SWAP3 PUSH1 0x5 SHL PUSH1 0x20 DUP1 DUP3 DUP8 ADD ADD MLOAD SWAP2 DUP10 ADD ADD MLOAD SWAP1 PUSH1 0x0 SWAP2 DUP3 MSTORE PUSH1 0x20 DUP3 DUP2 MSTORE PUSH1 0x40 DUP1 DUP5 KECCAK256 PUSH1 0x1 PUSH1 0x1 PUSH1 0xA0 SHL SUB SWAP1 SWAP4 AND DUP5 MSTORE SWAP2 SWAP1 MSTORE SWAP1 KECCAK256 SLOAD SWAP1 JUMP JUMPDEST PUSH2 0x1311 DUP3 DUP7 PUSH2 0x126A JUMP JUMPDEST MSTORE ADD PUSH2 0x12C1 JUMP JUMPDEST POP SWAP1 SWAP3 POP POP JUMP JUMPDEST PUSH4 0x5B059991 PUSH1 0xE0 SHL PUSH1 0x0 MSTORE PUSH1 0x4 MSTORE PUSH1 0x24 MSTORE PUSH1 0x44 PUSH1 0x0 REVERT JUMPDEST PUSH1 0x1F DUP2 GT PUSH2 0x1342 JUMPI POP POP JUMP JUMPDEST PUSH1 0x6 PUSH1 0x0 MSTORE PUSH1 0x20 PUSH1 0x0 KECCAK256 SWAP1 PUSH1 0x20 PUSH1 0x1F DUP5 ADD PUSH1 0x5 SHR DUP4 ADD SWAP4 LT PUSH2 0x137F JUMPI JUMPDEST PUSH1 0x1F ADD PUSH1 0x5 SHR ADD SWAP1 JUMPDEST DUP2 DUP2 LT PUSH2 0x1373 JUMPI POP POP JUMP JUMPDEST PUSH1 0x0 DUP2 SSTORE PUSH1 0x1 ADD PUSH2 0x1368 JUMP JUMPDEST SWAP1 SWAP2 POP DUP2 SWAP1 PUSH2 0x135F JUMP JUMPDEST SWAP1 PUSH2 0x1393 DUP3 PUSH2 0x6D0 JUMP JUMPDEST PUSH2 0x13A0 PUSH1 0x40 MLOAD SWAP2 DUP3 PUSH2 0x634 JUMP JUMPDEST DUP3 DUP2 MSTORE DUP1 SWAP3 PUSH2 0x13B1 PUSH1 0x1F NOT SWAP2 PUSH2 0x6D0 JUMP JUMPDEST ADD SWAP1 PUSH1 0x20 CALLDATASIZE SWAP2 ADD CALLDATACOPY JUMP JUMPDEST CALLER PUSH1 0x0 SWAP1 DUP2 MSTORE PUSH32 0x5562E70DA342DB81569F3094D36BE279BEACA7AD8E08F434EA188E79D2BFE10C PUSH1 0x20 MSTORE PUSH1 0x40 SWAP1 KECCAK256 SLOAD PUSH1 0xFF AND ISZERO PUSH2 0x13F4 JUMPI JUMP JUMPDEST PUSH4 0xE2517D3F PUSH1 0xE0 SHL PUSH1 0x0 MSTORE CALLER PUSH1 0x4 MSTORE PUSH32 0x9F2DF0FED2C77648DE5860A4CC508CD0818C85B8B8A1AB4CEEEF8D981C8956A6 PUSH1 0x24 MSTORE PUSH1 0x44 PUSH1 0x0 REVERT JUMPDEST CALLER PUSH1 0x0 SWAP1 DUP2 MSTORE PUSH32 0x3617319A054D772F909F7C479A2CEBE5066E836A939412E32403C99029B92EFF PUSH1 0x20 MSTORE PUSH1 0x40 SWAP1 KECCAK256 SLOAD PUSH1 0xFF AND ISZERO PUSH2 0x1466 JUMPI JUMP JUMPDEST PUSH4 0xE2517D3F PUSH1 0xE0 SHL PUSH1 0x0 MSTORE CALLER PUSH1 0x4 MSTORE PUSH1 0x0 PUSH1 0x24 MSTORE PUSH1 0x44 PUSH1 0x0 REVERT JUMPDEST PUSH1 0x0 DUP2 DUP2 MSTORE PUSH1 0x3 PUSH1 0x20 SWAP1 DUP2 MSTORE PUSH1 0x40 DUP1 DUP4 KECCAK256 CALLER DUP5 MSTORE SWAP1 SWAP2 MSTORE SWAP1 KECCAK256 SLOAD PUSH1 0xFF AND ISZERO PUSH2 0x14A5 JUMPI POP JUMP JUMPDEST PUSH4 0xE2517D3F PUSH1 0xE0 SHL PUSH1 0x0 MSTORE CALLER PUSH1 0x4 MSTORE PUSH1 0x24 MSTORE PUSH1 0x44 PUSH1 0x0 REVERT JUMPDEST PUSH1 0x1 PUSH1 0x1 PUSH1 0xA0 SHL SUB DUP2 AND SWAP4 SWAP3 SWAP1 SWAP2 SWAP1 DUP5 ISZERO PUSH2 0xE3D JUMPI PUSH2 0x14F9 PUSH1 0x40 MLOAD SWAP3 PUSH1 0x1 DUP5 MSTORE PUSH1 0x20 DUP5 ADD MSTORE PUSH1 0x40 DUP4 ADD SWAP2 PUSH1 0x1 DUP4 MSTORE PUSH1 0x60 DUP5 ADD MSTORE PUSH1 0x80 DUP4 ADD PUSH1 0x40 MSTORE JUMP JUMPDEST SWAP3 DUP2 MLOAD DUP5 MLOAD SWAP1 DUP2 DUP2 SUB PUSH2 0x107D JUMPI POP POP PUSH1 0x0 JUMPDEST DUP3 MLOAD DUP2 LT ISZERO PUSH2 0x1553 JUMPI DUP1 PUSH1 0x1 SWAP2 PUSH1 0x5 SHL PUSH2 0x154B PUSH2 0x1543 DUP8 PUSH2 0xF59 PUSH1 0x20 DUP1 DUP7 DUP12 ADD ADD MLOAD SWAP6 DUP13 ADD ADD MLOAD SWAP5 PUSH1 0x0 MSTORE PUSH1 0x0 PUSH1 0x20 MSTORE PUSH1 0x40 PUSH1 0x0 KECCAK256 SWAP1 JUMP JUMPDEST SWAP2 DUP3 SLOAD PUSH2 0x11E9 JUMP JUMPDEST SWAP1 SSTORE ADD PUSH2 0x150B JUMP JUMPDEST POP SWAP3 SWAP2 SWAP4 PUSH1 0x1 DUP3 MLOAD EQ PUSH1 0x0 EQ PUSH2 0x15CE JUMPI PUSH1 0x20 DUP3 DUP2 ADD MLOAD DUP5 DUP3 ADD MLOAD PUSH1 0x40 DUP1 MLOAD SWAP3 DUP4 MSTORE SWAP3 DUP3 ADD MSTORE PUSH1 0x0 SWAP2 CALLER SWAP2 PUSH32 0xC3D58168C5AE7397731D063D5BBF3D657854427343F4C083240F7AACAA2D0F62 SWAP2 SWAP1 LOG4 JUMPDEST DUP1 MLOAD PUSH1 0x1 SUB PUSH2 0x15C2 JUMPI SWAP1 PUSH1 0x20 DUP1 PUSH2 0x1244 SWAP6 SWAP4 ADD MLOAD SWAP2 ADD MLOAD SWAP2 PUSH1 0x0 CALLER PUSH2 0x1AFC JUMP JUMPDEST PUSH2 0x1244 SWAP4 PUSH1 0x0 CALLER PUSH2 0x19C7 JUMP JUMPDEST PUSH1 0x0 PUSH1 0x40 MLOAD PUSH32 0x4A39DC06D4C0DBC64B70AF90FD698A233A518AA5D07E595D983B8C0526C8F7FB CALLER SWAP2 DUP1 PUSH2 0x1602 DUP9 DUP9 DUP4 PUSH2 0x190A JUMP JUMPDEST SUB SWAP1 LOG4 PUSH2 0x15A2 JUMP JUMPDEST PUSH1 0x0 DUP2 DUP2 MSTORE PUSH1 0x3 PUSH1 0x20 SWAP1 DUP2 MSTORE PUSH1 0x40 DUP1 DUP4 KECCAK256 PUSH1 0x1 PUSH1 0x1 PUSH1 0xA0 SHL SUB DUP7 AND DUP5 MSTORE SWAP1 SWAP2 MSTORE SWAP1 KECCAK256 SLOAD PUSH1 0xFF AND PUSH2 0x1697 JUMPI PUSH1 0x0 DUP2 DUP2 MSTORE PUSH1 0x3 PUSH1 0x20 SWAP1 DUP2 MSTORE PUSH1 0x40 DUP1 DUP4 KECCAK256 PUSH1 0x1 PUSH1 0x1 PUSH1 0xA0 SHL SUB DUP7 AND DUP5 MSTORE SWAP1 SWAP2 MSTORE SWAP1 KECCAK256 DUP1 SLOAD PUSH1 0xFF NOT AND PUSH1 0x1 OR SWAP1 SSTORE CALLER SWAP2 PUSH1 0x1 PUSH1 0x1 PUSH1 0xA0 SHL SUB AND SWAP1 PUSH32 0x2F8788117E7EFF1D82E926EC794901D17C78024A50270940304540A733656F0D PUSH1 0x0 DUP1 LOG4 PUSH1 0x1 SWAP1 JUMP JUMPDEST POP POP PUSH1 0x0 SWAP1 JUMP JUMPDEST PUSH1 0x0 DUP2 DUP2 MSTORE PUSH1 0x3 PUSH1 0x20 SWAP1 DUP2 MSTORE PUSH1 0x40 DUP1 DUP4 KECCAK256 PUSH1 0x1 PUSH1 0x1 PUSH1 0xA0 SHL SUB DUP7 AND DUP5 MSTORE SWAP1 SWAP2 MSTORE SWAP1 KECCAK256 SLOAD PUSH1 0xFF AND ISZERO PUSH2 0x1697 JUMPI PUSH1 0x0 DUP2 DUP2 MSTORE PUSH1 0x3 PUSH1 0x20 SWAP1 DUP2 MSTORE PUSH1 0x40 DUP1 DUP4 KECCAK256 PUSH1 0x1 PUSH1 0x1 PUSH1 0xA0 SHL SUB DUP7 AND DUP5 MSTORE SWAP1 SWAP2 MSTORE SWAP1 KECCAK256 DUP1 SLOAD PUSH1 0xFF NOT AND SWAP1 SSTORE CALLER SWAP2 PUSH1 0x1 PUSH1 0x1 PUSH1 0xA0 SHL SUB AND SWAP1 PUSH32 0xF6391F5C32D9C69D2A47EA670B442974B53935D1EDC7FD64EB21E047A839171B PUSH1 0x0 DUP1 LOG4 PUSH1 0x1 SWAP1 JUMP JUMPDEST SWAP5 SWAP4 SWAP3 SWAP1 SWAP2 SWAP4 DUP5 MLOAD DUP3 MLOAD SWAP1 DUP2 DUP2 SUB PUSH2 0x107D JUMPI POP POP PUSH1 0x1 PUSH1 0x1 PUSH1 0xA0 SHL SUB DUP7 DUP2 AND SWAP6 DUP7 ISZERO ISZERO SWAP6 SWAP2 DUP6 AND DUP1 ISZERO ISZERO SWAP4 SWAP2 SWAP3 SWAP1 PUSH1 0x0 JUMPDEST DUP5 MLOAD DUP2 LT ISZERO PUSH2 0x183C JUMPI DUP1 PUSH1 0x5 SHL SWAP1 DUP10 DUP10 DUP9 PUSH1 0x20 DUP1 DUP7 DUP12 ADD ADD MLOAD SWAP6 DUP13 ADD ADD MLOAD SWAP3 PUSH2 0x17B5 JUMPI JUMPDEST SWAP4 PUSH1 0x1 SWAP5 PUSH2 0x1790 JUMPI JUMPDEST POP POP POP ADD PUSH2 0x175A JUMP JUMPDEST PUSH2 0x17AB SWAP2 PUSH2 0xF59 PUSH2 0x1543 SWAP3 PUSH1 0x0 MSTORE PUSH1 0x0 PUSH1 0x20 MSTORE PUSH1 0x40 PUSH1 0x0 KECCAK256 SWAP1 JUMP JUMPDEST SWAP1 SSTORE CODESIZE DUP10 DUP2 PUSH2 0x1787 JUMP JUMPDEST POP POP SWAP1 SWAP2 PUSH2 0x17D1 DUP14 PUSH2 0xF59 DUP4 PUSH1 0x0 MSTORE PUSH1 0x0 PUSH1 0x20 MSTORE PUSH1 0x40 PUSH1 0x0 KECCAK256 SWAP1 JUMP JUMPDEST SLOAD DUP3 DUP2 LT PUSH2 0x1805 JUMPI DUP3 SWAP2 DUP10 DUP16 PUSH2 0x17FC PUSH1 0x1 SWAP8 SWAP7 DUP16 SWAP6 SUB SWAP2 PUSH2 0xF59 DUP6 PUSH1 0x0 MSTORE PUSH1 0x0 PUSH1 0x20 MSTORE PUSH1 0x40 PUSH1 0x0 KECCAK256 SWAP1 JUMP JUMPDEST SSTORE SWAP1 SWAP5 POP PUSH2 0x177E JUMP JUMPDEST PUSH1 0x40 MLOAD PUSH4 0x3DEE4C5 PUSH1 0xE0 SHL DUP2 MSTORE PUSH1 0x1 PUSH1 0x1 PUSH1 0xA0 SHL SUB DUP16 AND PUSH1 0x4 DUP3 ADD MSTORE PUSH1 0x24 DUP2 ADD SWAP2 SWAP1 SWAP2 MSTORE PUSH1 0x44 DUP2 ADD DUP4 SWAP1 MSTORE PUSH1 0x64 DUP2 ADD DUP3 SWAP1 MSTORE PUSH1 0x84 SWAP1 REVERT JUMPDEST POP SWAP2 SWAP9 SWAP6 SWAP4 SWAP3 SWAP8 SWAP1 SWAP7 POP PUSH1 0x1 DUP9 MLOAD EQ PUSH1 0x0 EQ PUSH2 0x18D0 JUMPI PUSH1 0x20 DUP9 DUP2 ADD MLOAD DUP7 DUP3 ADD MLOAD PUSH1 0x40 DUP1 MLOAD SWAP3 DUP4 MSTORE SWAP3 DUP3 ADD MSTORE CALLER SWAP2 PUSH32 0xC3D58168C5AE7397731D063D5BBF3D657854427343F4C083240F7AACAA2D0F62 SWAP2 LOG4 JUMPDEST PUSH2 0x1899 JUMPI JUMPDEST POP POP POP POP POP JUMP JUMPDEST DUP5 MLOAD PUSH1 0x1 SUB PUSH2 0x18BF JUMPI PUSH1 0x20 DUP1 PUSH2 0x18B5 SWAP7 ADD MLOAD SWAP3 ADD MLOAD SWAP3 CALLER PUSH2 0x1AFC JUMP JUMPDEST CODESIZE DUP1 DUP1 DUP1 DUP1 PUSH2 0x1892 JUMP JUMPDEST PUSH2 0x18CB SWAP5 SWAP2 SWAP3 CALLER PUSH2 0x19C7 JUMP JUMPDEST PUSH2 0x18B5 JUMP JUMPDEST PUSH1 0x40 MLOAD PUSH32 0x4A39DC06D4C0DBC64B70AF90FD698A233A518AA5D07E595D983B8C0526C8F7FB CALLER SWAP2 DUP1 PUSH2 0x1902 DUP10 DUP14 DUP4 PUSH2 0x190A JUMP JUMPDEST SUB SWAP1 LOG4 PUSH2 0x188D JUMP JUMPDEST SWAP1 SWAP2 PUSH2 0x1921 PUSH2 0x2E1 SWAP4 PUSH1 0x40 DUP5 MSTORE PUSH1 0x40 DUP5 ADD SWAP1 PUSH2 0x858 JUMP JUMPDEST SWAP2 PUSH1 0x20 DUP2 DUP5 SUB SWAP2 ADD MSTORE PUSH2 0x858 JUMP JUMPDEST SWAP1 DUP2 PUSH1 0x20 SWAP2 SUB SLT PUSH2 0x171 JUMPI MLOAD PUSH2 0x2E1 DUP2 PUSH2 0x1ED JUMP JUMPDEST PUSH1 0x1 PUSH1 0x1 PUSH1 0xA0 SHL SUB SWAP2 DUP3 AND DUP2 MSTORE SWAP2 AND PUSH1 0x20 DUP3 ADD MSTORE PUSH1 0xA0 PUSH1 0x40 DUP3 ADD DUP2 SWAP1 MSTORE PUSH2 0x2E1 SWAP5 SWAP2 SWAP4 SWAP2 SWAP3 PUSH2 0x1989 SWAP3 SWAP2 PUSH2 0x197B SWAP2 SWAP1 DUP7 ADD SWAP1 PUSH2 0x858 JUMP JUMPDEST SWAP1 DUP5 DUP3 SUB PUSH1 0x60 DUP7 ADD MSTORE PUSH2 0x858 JUMP JUMPDEST SWAP2 PUSH1 0x80 DUP2 DUP5 SUB SWAP2 ADD MSTORE PUSH2 0x2AB JUMP JUMPDEST RETURNDATASIZE ISZERO PUSH2 0x19C2 JUMPI RETURNDATASIZE SWAP1 PUSH2 0x19A8 DUP3 PUSH2 0x6D0 JUMP JUMPDEST SWAP2 PUSH2 0x19B6 PUSH1 0x40 MLOAD SWAP4 DUP5 PUSH2 0x634 JUMP JUMPDEST DUP3 MSTORE RETURNDATASIZE PUSH1 0x0 PUSH1 0x20 DUP5 ADD RETURNDATACOPY JUMP JUMPDEST PUSH1 0x60 SWAP1 JUMP JUMPDEST SWAP1 SWAP2 SWAP5 SWAP3 SWAP4 DUP6 EXTCODESIZE PUSH2 0x19DB JUMPI JUMPDEST POP POP POP POP POP POP JUMP JUMPDEST PUSH1 0x20 SWAP4 PUSH2 0x19FD SWAP2 PUSH1 0x40 MLOAD SWAP7 DUP8 SWAP6 DUP7 SWAP6 PUSH4 0xBC197C81 PUSH1 0xE0 SHL DUP8 MSTORE PUSH1 0x4 DUP8 ADD PUSH2 0x1944 JUMP JUMPDEST SUB DUP2 PUSH1 0x0 PUSH1 0x1 PUSH1 0x1 PUSH1 0xA0 SHL SUB DUP8 AND GAS CALL PUSH1 0x0 SWAP2 DUP2 PUSH2 0x1A92 JUMPI JUMPDEST POP PUSH2 0x1A52 JUMPI POP PUSH2 0x1A24 PUSH2 0x1997 JUMP JUMPDEST DUP1 MLOAD SWAP2 SWAP1 DUP3 PUSH2 0x1A4B JUMPI PUSH4 0x2BFA23E7 PUSH1 0xE1 SHL PUSH1 0x0 MSTORE PUSH1 0x1 PUSH1 0x1 PUSH1 0xA0 SHL SUB DUP3 AND PUSH1 0x4 MSTORE PUSH1 0x24 PUSH1 0x0 REVERT JUMPDEST SWAP1 POP PUSH1 0x20 ADD REVERT JUMPDEST PUSH1 0x1 PUSH1 0x1 PUSH1 0xE0 SHL SUB NOT AND PUSH4 0x43E6837F PUSH1 0xE0 SHL ADD PUSH2 0x1A75 JUMPI POP CODESIZE DUP1 DUP1 DUP1 DUP1 DUP1 PUSH2 0x19D3 JUMP JUMPDEST PUSH4 0x2BFA23E7 PUSH1 0xE1 SHL PUSH1 0x0 MSTORE PUSH1 0x1 PUSH1 0x1 PUSH1 0xA0 SHL SUB AND PUSH1 0x4 MSTORE PUSH1 0x24 PUSH1 0x0 REVERT JUMPDEST PUSH2 0x1AB5 SWAP2 SWAP3 POP PUSH1 0x20 RETURNDATASIZE PUSH1 0x20 GT PUSH2 0x1ABC JUMPI JUMPDEST PUSH2 0x1AAD DUP2 DUP4 PUSH2 0x634 JUMP JUMPDEST DUP2 ADD SWAP1 PUSH2 0x192F JUMP JUMPDEST SWAP1 CODESIZE PUSH2 0x1A16 JUMP JUMPDEST POP RETURNDATASIZE PUSH2 0x1AA3 JUMP JUMPDEST PUSH1 0x1 PUSH1 0x1 PUSH1 0xA0 SHL SUB SWAP2 DUP3 AND DUP2 MSTORE SWAP2 AND PUSH1 0x20 DUP3 ADD MSTORE PUSH1 0x40 DUP2 ADD SWAP2 SWAP1 SWAP2 MSTORE PUSH1 0x60 DUP2 ADD SWAP2 SWAP1 SWAP2 MSTORE PUSH1 0xA0 PUSH1 0x80 DUP3 ADD DUP2 SWAP1 MSTORE PUSH2 0x2E1 SWAP3 SWAP2 ADD SWAP1 PUSH2 0x2AB JUMP JUMPDEST SWAP1 SWAP2 SWAP5 SWAP3 SWAP4 DUP6 EXTCODESIZE PUSH2 0x1B0F JUMPI POP POP POP POP POP POP JUMP JUMPDEST PUSH1 0x20 SWAP4 PUSH2 0x1B31 SWAP2 PUSH1 0x40 MLOAD SWAP7 DUP8 SWAP6 DUP7 SWAP6 PUSH4 0xF23A6E61 PUSH1 0xE0 SHL DUP8 MSTORE PUSH1 0x4 DUP8 ADD PUSH2 0x1AC3 JUMP JUMPDEST SUB DUP2 PUSH1 0x0 PUSH1 0x1 PUSH1 0x1 PUSH1 0xA0 SHL SUB DUP8 AND GAS CALL PUSH1 0x0 SWAP2 DUP2 PUSH2 0x1B7B JUMPI JUMPDEST POP PUSH2 0x1B58 JUMPI POP PUSH2 0x1A24 PUSH2 0x1997 JUMP JUMPDEST PUSH1 0x1 PUSH1 0x1 PUSH1 0xE0 SHL SUB NOT AND PUSH4 0xDC5919F PUSH1 0xE0 SHL ADD PUSH2 0x1A75 JUMPI POP CODESIZE DUP1 DUP1 DUP1 DUP1 DUP1 PUSH2 0x19D3 JUMP JUMPDEST PUSH2 0x1B95 SWAP2 SWAP3 POP PUSH1 0x20 RETURNDATASIZE PUSH1 0x20 GT PUSH2 0x1ABC JUMPI PUSH2 0x1AAD DUP2 DUP4 PUSH2 0x634 JUMP JUMPDEST SWAP1 CODESIZE PUSH2 0x1B4A JUMP INVALID LOG2 PUSH5 0x6970667358 0x22 SLT KECCAK256 LOG2 0xEE 0xCE 0xC2 PUSH16 0xFB5C66A76300AA8457550FC50DFBE5A3 EXP 0xD0 SWAP11 REVERT 0xE1 MSTORE PUSH2 0x6DEC STATICCALL DUP9 PUSH5 0x736F6C6343 STOP ADDMOD SHL STOP CALLER 0x2F DUP8 DUP9 GT PUSH31 0x7EFF1D82E926EC794901D17C78024A50270940304540A733656F0D5562E70D LOG3 TIMESTAMP 0xDB DUP2 JUMP SWAP16 ADDRESS SWAP5 0xD3 PUSH12 0xE279BEACA7AD8E08F434EA18 DUP15 PUSH26 0xD2BFE10C3617319A054D772F909F7C479A2CEBE5066E836A9394 SLT 0xE3 0x24 SUB 0xC9 SWAP1 0x29 0xB9 0x2E SELFDESTRUCT "},"methodIdentifiers":{"DEFAULT_ADMIN_ROLE()":"a217fddf","MINTER_ROLE()":"d5391393","balanceOf(address,uint256)":"00fdd58e","balanceOfBatch(address[],uint256[])":"4e1273f4","burn(address,uint256,uint256)":"f5298aca","getProductIds()":"47428e7b","getRoleAdmin(bytes32)":"248a9ca3","grantRole(bytes32,address)":"2f2ff15d","hasRole(bytes32,address)":"91d14854","isApprovedForAll(address,address)":"e985e9c5","mint(address,uint256,uint256)":"156e29f6","productSupply(uint256)":"ef8593e7","renounceRole(bytes32,address)":"36568abe","revokeRole(bytes32,address)":"d547741f","safeBatchTransferFrom(address,address,uint256[],uint256[],bytes)":"2eb2c2d6","safeTransferFrom(address,address,uint256,uint256,bytes)":"f242432a","setApprovalForAll(address,bool)":"a22cb465","setBaseURI(string)":"55f804b3","supportsInterface(bytes4)":"01ffc9a7","uri(uint256)":"0e89341c"}}}}}