{"contracts/USDCFundraiser.sol":{"USDCFundraiser":{"abi":[{"inputs":[{"internalType":"address","name":"_usdcAddress","type":"address"},{"internalType":"address","name":"_beneficiaryWallet","type":"address"},{"internalType":"address","name":"_feeWallet","type":"address"},{"internalType":"uint256","name":"_fundingType","type":"uint256"},{"internalType":"uint256","name":"_minimumTarget","type":"uint256"},{"internalType":"uint256","name":"_deadline","type":"uint256"},{"internalType":"bool","name":"_enforceConditions","type":"bool"},{"internalType":"address","name":"_productTokenAddress","type":"address"},{"internalType":"uint256[]","name":"_productIds","type":"uint256[]"},{"internalType":"uint256[]","name":"_productPrices","type":"uint256[]"},{"internalType":"address","name":"_linkToken","type":"address"},{"internalType":"address","name":"_chainlinkRegistrar","type":"address"},{"internalType":"address","name":"_chainlinkRegistry","type":"address"},{"internalType":"bytes4","name":"_chainlinkRegistrarSelector","type":"bytes4"}],"stateMutability":"nonpayable","type":"constructor"},{"inputs":[],"name":"EnforcedPause","type":"error"},{"inputs":[],"name":"ExpectedPause","type":"error"},{"inputs":[{"internalType":"address","name":"owner","type":"address"}],"name":"OwnableInvalidOwner","type":"error"},{"inputs":[{"internalType":"address","name":"account","type":"address"}],"name":"OwnableUnauthorizedAccount","type":"error"},{"inputs":[],"name":"ReentrancyGuardReentrantCall","type":"error"},{"anonymous":false,"inputs":[{"indexed":false,"internalType":"string","name":"message","type":"string"},{"indexed":false,"internalType":"uint256","name":"value","type":"uint256"}],"name":"Debug","type":"event"},{"anonymous":false,"inputs":[{"indexed":false,"internalType":"string","name":"message","type":"string"},{"indexed":false,"internalType":"bytes","name":"value","type":"bytes"}],"name":"DebugBytes","type":"event"},{"anonymous":false,"inputs":[{"indexed":true,"internalType":"address","name":"depositor","type":"address"},{"indexed":false,"internalType":"uint256","name":"amount","type":"uint256"},{"indexed":false,"internalType":"uint256","name":"fee","type":"uint256"}],"name":"Deposit","type":"event"},{"anonymous":false,"inputs":[{"indexed":true,"internalType":"address","name":"to","type":"address"},{"indexed":false,"internalType":"uint256","name":"amount","type":"uint256"}],"name":"EmergencyWithdraw","type":"event"},{"anonymous":false,"inputs":[{"indexed":false,"internalType":"uint256","name":"newFeePercentage","type":"uint256"}],"name":"FeeUpdated","type":"event"},{"anonymous":false,"inputs":[],"name":"Finalized","type":"event"},{"anonymous":false,"inputs":[{"indexed":true,"internalType":"address","name":"forwarder","type":"address"}],"name":"ForwarderChanged","type":"event"},{"anonymous":false,"inputs":[{"indexed":true,"internalType":"address","name":"beneficiary","type":"address"},{"indexed":false,"internalType":"uint256","name":"amount","type":"uint256"}],"name":"FundsReleased","type":"event"},{"anonymous":false,"inputs":[{"indexed":true,"internalType":"address","name":"previousOwner","type":"address"},{"indexed":true,"internalType":"address","name":"newOwner","type":"address"}],"name":"OwnershipTransferred","type":"event"},{"anonymous":false,"inputs":[{"indexed":false,"internalType":"address","name":"account","type":"address"}],"name":"Paused","type":"event"},{"anonymous":false,"inputs":[{"indexed":false,"internalType":"uint256","name":"productId","type":"uint256"},{"indexed":false,"internalType":"uint256","name":"price","type":"uint256"}],"name":"ProductPriceSet","type":"event"},{"anonymous":false,"inputs":[{"indexed":true,"internalType":"address","name":"depositor","type":"address"},{"indexed":false,"internalType":"uint256","name":"amount","type":"uint256"},{"indexed":false,"internalType":"uint256","name":"productId","type":"uint256"},{"indexed":false,"internalType":"uint256","name":"quantity","type":"uint256"}],"name":"Refund","type":"event"},{"anonymous":false,"inputs":[{"indexed":false,"internalType":"address","name":"account","type":"address"}],"name":"Unpaused","type":"event"},{"anonymous":false,"inputs":[],"name":"UpkeepPerformed","type":"event"},{"anonymous":false,"inputs":[{"indexed":false,"internalType":"uint256","name":"upkeepID","type":"uint256"}],"name":"UpkeepRegistered","type":"event"},{"inputs":[],"name":"beneficiaryWallet","outputs":[{"internalType":"address","name":"","type":"address"}],"stateMutability":"view","type":"function"},{"inputs":[{"internalType":"bytes","name":"","type":"bytes"}],"name":"checkUpkeep","outputs":[{"internalType":"bool","name":"upkeepNeeded","type":"bool"},{"internalType":"bytes","name":"","type":"bytes"}],"stateMutability":"view","type":"function"},{"inputs":[{"internalType":"uint256","name":"productId","type":"uint256"},{"internalType":"uint256","name":"quantity","type":"uint256"}],"name":"claimRefund","outputs":[],"stateMutability":"nonpayable","type":"function"},{"inputs":[],"name":"deadline","outputs":[{"internalType":"uint256","name":"","type":"uint256"}],"stateMutability":"view","type":"function"},{"inputs":[{"internalType":"uint256","name":"productId","type":"uint256"},{"internalType":"uint256","name":"quantity","type":"uint256"}],"name":"deposit","outputs":[],"stateMutability":"nonpayable","type":"function"},{"inputs":[{"internalType":"address","name":"","type":"address"}],"name":"deposits","outputs":[{"internalType":"uint256","name":"","type":"uint256"}],"stateMutability":"view","type":"function"},{"inputs":[{"internalType":"address","name":"to","type":"address"},{"internalType":"uint256","name":"amount","type":"uint256"}],"name":"emergencyWithdraw","outputs":[],"stateMutability":"nonpayable","type":"function"},{"inputs":[],"name":"enforceConditions","outputs":[{"internalType":"bool","name":"","type":"bool"}],"stateMutability":"view","type":"function"},{"inputs":[],"name":"feePercentage","outputs":[{"internalType":"uint256","name":"","type":"uint256"}],"stateMutability":"view","type":"function"},{"inputs":[],"name":"feeWallet","outputs":[{"internalType":"address","name":"","type":"address"}],"stateMutability":"view","type":"function"},{"inputs":[],"name":"finalize","outputs":[],"stateMutability":"nonpayable","type":"function"},{"inputs":[],"name":"finalized","outputs":[{"internalType":"bool","name":"","type":"bool"}],"stateMutability":"view","type":"function"},{"inputs":[],"name":"fundingType","outputs":[{"internalType":"uint256","name":"","type":"uint256"}],"stateMutability":"view","type":"function"},{"inputs":[],"name":"getStationUpkeepID","outputs":[{"internalType":"uint256","name":"","type":"uint256"}],"stateMutability":"view","type":"function"},{"inputs":[{"internalType":"bytes","name":"registrationParams","type":"bytes"}],"name":"initializeChainlink","outputs":[{"internalType":"uint256","name":"stationUpkeepID","type":"uint256"}],"stateMutability":"nonpayable","type":"function"},{"inputs":[],"name":"minimumTarget","outputs":[{"internalType":"uint256","name":"","type":"uint256"}],"stateMutability":"view","type":"function"},{"inputs":[],"name":"owner","outputs":[{"internalType":"address","name":"","type":"address"}],"stateMutability":"view","type":"function"},{"inputs":[],"name":"pause","outputs":[],"stateMutability":"nonpayable","type":"function"},{"inputs":[],"name":"paused","outputs":[{"internalType":"bool","name":"","type":"bool"}],"stateMutability":"view","type":"function"},{"inputs":[{"internalType":"bytes","name":"","type":"bytes"}],"name":"performUpkeep","outputs":[],"stateMutability":"nonpayable","type":"function"},{"inputs":[{"internalType":"uint256","name":"","type":"uint256"}],"name":"productPrices","outputs":[{"internalType":"uint256","name":"","type":"uint256"}],"stateMutability":"view","type":"function"},{"inputs":[],"name":"productToken","outputs":[{"internalType":"contract ProductToken","name":"","type":"address"}],"stateMutability":"view","type":"function"},{"inputs":[],"name":"renounceOwnership","outputs":[],"stateMutability":"nonpayable","type":"function"},{"inputs":[{"internalType":"uint256","name":"productId","type":"uint256"},{"internalType":"uint256","name":"price","type":"uint256"}],"name":"setProductPrice","outputs":[],"stateMutability":"nonpayable","type":"function"},{"inputs":[{"internalType":"uint256","name":"","type":"uint256"}],"name":"tokenDeposits","outputs":[{"internalType":"uint256","name":"","type":"uint256"}],"stateMutability":"view","type":"function"},{"inputs":[],"name":"totalRaised","outputs":[{"internalType":"uint256","name":"","type":"uint256"}],"stateMutability":"view","type":"function"},{"inputs":[{"internalType":"address","name":"newOwner","type":"address"}],"name":"transferOwnership","outputs":[],"stateMutability":"nonpayable","type":"function"},{"inputs":[],"name":"unpause","outputs":[],"stateMutability":"nonpayable","type":"function"},{"inputs":[{"internalType":"uint256","name":"newDeadline","type":"uint256"}],"name":"updateDeadline","outputs":[],"stateMutability":"nonpayable","type":"function"},{"inputs":[{"internalType":"uint256","name":"newFeePercentage","type":"uint256"}],"name":"updateFeePercentage","outputs":[],"stateMutability":"nonpayable","type":"function"},{"inputs":[],"name":"usdc","outputs":[{"internalType":"contract IERC20","name":"","type":"address"}],"stateMutability":"view","type":"function"}],"evm":{"bytecode":{"linkReferences":{},"object":"6080604052346104e657611fb180380380610019816104eb565b9283398101906101c0818303126104e65761003381610526565b61003f60208301610526565b9261004c60408401610526565b60608401519160808501519560a086015160c08701518015158091036104e65761007860e08901610526565b6101008901519092906001600160401b0381116104e6578561009b918b0161053a565b6101208a0151909a906001600160401b0381116104e6578a966100bf91880161053a565b986100cd6101408801610526565b976101a06100eb6101806100e46101608c01610526565b9a01610526565b9c0151966001600160e01b0319881688036104e65733156104d05760008054604051949133906001600160a01b038316907f8be0079c531659141344cd1fd0a4f28419497f9722a3daafe3b4186f6b6457e09080a36001600160a81b0319163360ff60a01b191617600055600180556001600160a01b031692831561048e57506001600160a01b0316908115610449576001600160a01b031691821561040f578d518c51036103ca578d51156103855760018060a01b0319600254161760025560018060a01b0319600454161760045560018060a01b0319600554161760055560065560075560ff80196008541691161760085560fa60095560018060a01b031660018060a01b0319600354161760035560005b87518110156102ce57610212818761059c565b511561028957806102256001928861059c565b51610230828b61059c565b51600052600f6020526040600020557fb751835a12376750bd69b4b4c0c1d306480284514d2fa88f72edf3eeea8515f6604061026c838c61059c565b51610277848b61059c565b5182519182526020820152a1016101ff565b60405162461bcd60e51b815260206004820152601560248201527f496e76616c69642070726f6475637420707269636500000000000000000000006044820152606490fd5b5060128054601080546001600160a01b03199081166001600160a01b039687161790915560118054909116858a161790556001600160c01b031916939092169290921760409290921c63ffffffff60a01b1691909117905560028111610340576015556040516119ea90816105c78239f35b60405162461bcd60e51b815260206004820152601460248201527f496e76616c69642066756e64696e6720747970650000000000000000000000006044820152606490fd5b60405162461bcd60e51b815260206004820152601460248201527f4e6f2070726f64756374732070726f76696465640000000000000000000000006044820152606490fd5b60405162461bcd60e51b815260206004820152601660248201527f417272617973206c656e677468206d69736d61746368000000000000000000006044820152606490fd5b60405162461bcd60e51b8152602060048201526012602482015271125b9d985b1a5908199959481dd85b1b195d60721b6044820152606490fd5b60405162461bcd60e51b815260206004820152601a60248201527f496e76616c69642062656e65666963696172792077616c6c65740000000000006044820152606490fd5b62461bcd60e51b815260206004820152601460248201527f496e76616c6964205553444320616464726573730000000000000000000000006044820152606490fd5b631e4fbdf760e01b600052600060045260246000fd5b600080fd5b6040519190601f01601f191682016001600160401b0381118382101761051057604052565b634e487b7160e01b600052604160045260246000fd5b51906001600160a01b03821682036104e657565b9080601f830112156104e6578151916001600160401b038311610510578260051b9060208061056a8185016104eb565b8096815201928201019283116104e657602001905b82821061058c5750505090565b815181526020918201910161057f565b80518210156105b05760209160051b010190565b634e487b7160e01b600052603260045260246000fdfe608080604052600436101561001357600080fd5b600090813560e01c90816302f8baa1146115895750806325b4f65f146115605780632897f6a01461153d57806329dcb0cf1461151f57806338eb6a19146114f55780633e413bee146114cc5780633f4ba83a1461145e57806342235da6146114405780634232d7f81461113657806342af18841461105157806344d3498a14610ffc5780634585e33b14610ef05780634bb278f314610d975780635c975abb14610d7257806366bff1db14610d485780636cad3fb014610cb35780636e04ff0d14610c57578063715018a614610bfd5780638456cb5914610b9c5780638527d58f146108385780638da5cb5b1461081157806395ccea671461064b578063a001ecdd1461062d578063b3f05b971461060a578063c5c4744c146105ec578063c9788631146105c3578063e2bbb1581461027e578063f25f4b5614610255578063f2fde38b146101cf578063fa8ab0ee146101b15763fc7e286d1461017657600080fd5b346101ae5760203660031901126101ae576020906040906001600160a01b0361019d61164d565b168152600a83522054604051908152f35b80fd5b50346101ae57806003193601126101ae576020601554604051908152f35b50346101ae5760203660031901126101ae576101e961164d565b6101f1611803565b6001600160a01b031680156102415781546001600160a01b03198116821783556001600160a01b03167f8be0079c531659141344cd1fd0a4f28419497f9722a3daafe3b4186f6b6457e08380a380f35b631e4fbdf760e01b82526004829052602482fd5b50346101ae57806003193601126101ae576005546040516001600160a01b039091168152602090f35b50346101ae5761028d366115f6565b9061029661182c565b61029e61184e565b811561057e5760ff600c5416158015610572575b6102bb906116f3565b808352600f60205260408320541561051d57808352600f6020526102e3826040852054611782565b916127106102f360095485611782565b04918461030084866117ab565b9281602060018060a01b03600254166064604051809481936323b872dd60e01b83523360048401523060248401528c60448401525af180156105125761034d9184916104f3575b506117b8565b84610427575b61035f84600b546117f6565b600b556003546001600160a01b0316803b1561042357604051630ab714fb60e11b815233600482015260248101859052604481019290925282908290606490829084905af18015610418576103ff575b5052600e6020526103c5604085209182546117f6565b905560405191825260208201527f90890809c654f11d6e72a28fa60149770a0d11ec6c92319d6ceb2bb0a4ea1a1560403392a26001805580f35b8161040991611663565b6104145784386103af565b8480fd5b6040513d84823e3d90fd5b8280fd5b60025460055460405163a9059cbb60e01b81526001600160a01b03918216600482015260248101889052929350602091839160449183918c91165af19081156104e85787916104b9575b501561047e578590610353565b60405162461bcd60e51b8152602060048201526013602482015272119959481d1c985b9cd9995c8819985a5b1959606a1b6044820152606490fd5b6104db915060203d6020116104e1575b6104d38183611663565b81019061169b565b38610471565b503d6104c9565b6040513d89823e3d90fd5b61050c915060203d6020116104e1576104d38183611663565b38610347565b6040513d85823e3d90fd5b60405162461bcd60e51b815260206004820152602760248201527f50726f64756374206e6f7420617661696c61626c6520666f722074686973206360448201526630b6b830b4b3b760c91b6064820152608490fd5b506015546001146102b2565b60405162461bcd60e51b815260206004820152601f60248201527f5175616e74697479206d7573742062652067726561746572207468616e2030006044820152606490fd5b50346101ae57806003193601126101ae576004546040516001600160a01b039091168152602090f35b50346101ae57806003193601126101ae576020600b54604051908152f35b50346101ae57806003193601126101ae57602060ff600c54166040519015158152f35b50346101ae57806003193601126101ae576020600954604051908152f35b50346101ae5760403660031901126101ae5761066561164d565b60243590610671611803565b6001600160a01b0381169182156107da576002546040516370a0823160e01b81523060048201526001600160a01b0390911690602081602481855afa9081156107cf578691610798575b50821161075c5760405163a9059cbb60e01b81526001600160a01b03939093166004840152602483018290526020908390604490829088905af1908115610751576107306020927f5fafa99d0643513820be26656b45130b01e1c03062e1266bf36f88cbd3bd969594879161073a57506117b8565b604051908152a280f35b61050c9150843d86116104e1576104d38183611663565b6040513d86823e3d90fd5b60405162461bcd60e51b8152602060048201526014602482015273496e73756666696369656e742062616c616e636560601b6044820152606490fd5b90506020813d6020116107c7575b816107b360209383611663565b810103126107c25751386106bb565b600080fd5b3d91506107a6565b6040513d88823e3d90fd5b60405162461bcd60e51b815260206004820152600f60248201526e496e76616c6964206164647265737360881b6044820152606490fd5b50346101ae57806003193601126101ae57546040516001600160a01b039091168152602090f35b50346101ae57610847366115f6565b601554610b365760ff600c541680610b28575b610ad4575b600354604051627eeac760e11b8152336004820152602481018490526001600160a01b039091169290602081604481875afa908115610a03578591610aa2575b508015610a67578211610a2257808452600f6020526108db826108d660408720546127106108cf60095483611782565b04906117ab565b611782565b92803b1561041457604051637a94c56560e11b815233600482015260248101839052604481018490529085908290606490829084905af18015610a0357610a0e575b5061092a83600b546117ab565b600b5560025460405163a9059cbb60e01b815233600482015260248101859052906020908290604490829089906001600160a01b03165af1908115610a035785916109e4575b50156109af57604051928352602083015260408201527fb7048c2ad36aadee977bb16b4543a18866044d27a2ca753e1c7dbcfa7d7a696260603392a280f35b60405162461bcd60e51b815260206004820152600d60248201526c1499599d5b990819985a5b1959609a1b6044820152606490fd5b6109fd915060203d6020116104e1576104d38183611663565b38610970565b6040513d87823e3d90fd5b84610a1b91959295611663565b923861091d565b60405162461bcd60e51b815260206004820152601d60248201527f496e73756666696369656e7420746f6b656e7320746f20726566756e640000006044820152606490fd5b60405162461bcd60e51b8152602060048201526013602482015272139bc81d1bdad95b9cc81d1bc81c99599d5b99606a1b6044820152606490fd5b90506020813d602011610acc575b81610abd60209383611663565b8101031261041457513861089f565b3d9150610ab0565b60405162461bcd60e51b815260206004820152602660248201527f54617267657420776173206d65742c20726566756e6473206e6f7420617661696044820152653630b136329760d11b6064820152608490fd5b50600b54600654111561085a565b60ff600c54161561085f5760405162461bcd60e51b815260206004820152602d60248201527f43616d706169676e2069732066696e616c697a65642c20726566756e6473206e60448201526c37ba1030bb30b4b630b136329760991b6064820152608490fd5b50346101ae57806003193601126101ae57610bb5611803565b610bbd61184e565b805460ff60a01b1916600160a01b1781556040513381527f62e78cea01bee320cd4e420270b5ea74000d11b0c9f74754ebdbfc544b05a25890602090a180f35b50346101ae57806003193601126101ae57610c16611803565b80546001600160a01b03198116825581906001600160a01b03167f8be0079c531659141344cd1fd0a4f28419497f9722a3daafe3b4186f6b6457e08280a380f35b50346101ae57610c66366115a5565b505060ff600c54161580610ca8575b60405191610c84602084611663565b8252610ca46040519283921515835260406020840152604083019061160c565b0390f35b506007544211610c75565b50346101ae5760203660031901126101ae57600435610cd0611803565b6103e88111610d0b576020817f8c4d35e54a3f2ef1134138fd8ea3daee6a3c89e10d2665996babdf70261e2c7692600955604051908152a180f35b60405162461bcd60e51b81526020600482015260156024820152744665652063616e6e6f74206578636565642031302560581b6044820152606490fd5b50346101ae5760203660031901126101ae5760406020916004358152600e83522054604051908152f35b50346101ae57806003193601126101ae5760ff6020915460a01c166040519015158152f35b50346101ae57806003193601126101ae57610db061182c565b610db861184e565b60ff600c5416610eb75760155480610e2a5750610dd8600754421161173f565b600b546006541115610e1d575b600160ff19600c541617600c557f6823b073d48d6e3a7d385eeb601452d680e74bb46afe3255a7d778f3a9b176818180a16001805580f35b610e2561186e565b610de5565b60018103610ea3575080546001600160a01b03163303610e4c57610e2561186e565b60405162461bcd60e51b815260206004820152602960248201527f4f6e6c79206f776e65722063616e2066696e616c697a65206c696d69746c6573604482015268732066756e64696e6760b81b6064820152608490fd5b600203610de557610e1d600754421161173f565b60405162461bcd60e51b8152602060048201526011602482015270105b1c9958591e48199a5b985b1a5e9959607a1b6044820152606490fd5b50346101ae57610eff366115a5565b505060ff600c54161580610ff1575b610f155780f35b610f1d61182c565b610f2561184e565b60ff600c5416610eb75760155480610fbb5750610f45600754421161173f565b600b546006541115610fae575b600160ff19600c541617600c557f6823b073d48d6e3a7d385eeb601452d680e74bb46afe3255a7d778f3a9b176818180a1600180557f966a2cf4da2fe388fb461e726e2765451662471d3e61fb50c4191dd71434cb588180a180f35b610fb661186e565b610f52565b60018103610fdd575080546001600160a01b03163303610e4c57610fb661186e565b600203610f5257610fae600754421161173f565b506007544211610f0e565b50346101ae577fb751835a12376750bd69b4b4c0c1d306480284514d2fa88f72edf3eeea8515f6604061102e366115f6565b611036611803565b818552600f602052808386205582519182526020820152a180f35b50346101ae5760203660031901126101ae5760043561106e611803565b61107d60ff600c5416156116f3565b6001601554146110da57428111156110955760075580f35b60405162461bcd60e51b815260206004820152601e60248201527f446561646c696e65206d75737420626520696e207468652066757475726500006044820152606490fd5b60405162461bcd60e51b815260206004820152602e60248201527f4c696d69746c6573732066756e64696e6720646f65736e277420737570706f7260448201526d3a103334b730b634bd30ba34b7b760911b6064820152608490fd5b50346101ae57611145366115a5565b9061114e611803565b60125460105460405163095ea7b360e01b81526001600160a01b039182166004820152670de0b6b3a7640000602482015291602091839160449183918991165af1908115610751578491611421575b50156113e557829182918260018060a01b0360105416926111f1602463ffffffff60e01b60125460401b1694836040519485926020840198895284840137810185838201520301601f198101835282611663565b51925af16111fd6116b3565b9015611322575b6020815191818082019384920101031261131e575160138190556012805460ff60c01b1916600160c01b1790556040518181527fdd37d6770a1595ddc0378e5e9e41ef525b6bd7f43b2c0e14582e99ee0373df8b90602090a16011546001600160a01b03168061127a575b602082604051908152f35b82809160405160208101906379ea994360e01b8252856024820152602481526112a4604482611663565b51915afa6112b06116b3565b901561126f5760208180518101031261042357602001516001600160a01b03811690819003610423577f9ecfd97bf22760e90779a4364f3646d6cbb7e6207b75280c803ca569a34234a0602093826bffffffffffffffffffffffff60a01b601454161760145580a23861126f565b5080fd5b7f3c5ad147104e56be34a9176a6692f7df8d2f4b29a5af06bc6b98970d329d65776080825160405190604082526013604083015272149959da5cdd1c985d1a5bdb8819985a5b1959606a1b60608301526020820152a1805115611204577fd54ba61ed4070561dcc6d272cdd44f051344b2c11b31180228f79dcb0003cf83604051604081526011604082015270526567697374726174696f6e206461746160781b606082015260806020820152806113dd608082018561160c565b0390a1611204565b60405162461bcd60e51b815260206004820152601460248201527313125392c8185c1c1c9bdd985b0819985a5b195960621b6044820152606490fd5b61143a915060203d6020116104e1576104d38183611663565b3861119d565b50346101ae57806003193601126101ae576020600654604051908152f35b50346101ae57806003193601126101ae57611477611803565b805460ff8160a01c16156114bd5760ff60a01b191681556040513381527f5db9ee0a495bf2e6ff9c91a7834c1ba4fdd244a5e8aa4e537bd38aeae4b073aa90602090a180f35b638dfc202b60e01b8252600482fd5b50346101ae57806003193601126101ae576002546040516001600160a01b039091168152602090f35b50346101ae5760203660031901126101ae5760406020916004358152600f83522054604051908152f35b50346101ae57806003193601126101ae576020600754604051908152f35b50346101ae57806003193601126101ae57602060ff600854166040519015158152f35b50346101ae57806003193601126101ae576003546040516001600160a01b039091168152602090f35b90503461131e578160031936011261131e576020906013548152f35b9060206003198301126107c25760043567ffffffffffffffff81116107c257826023820112156107c25780600401359267ffffffffffffffff84116107c257602484830101116107c2576024019190565b60409060031901126107c2576004359060243590565b919082519283825260005b848110611638575050826000602080949584010152601f8019910116010190565b80602080928401015182828601015201611617565b600435906001600160a01b03821682036107c257565b90601f8019910116810190811067ffffffffffffffff82111761168557604052565b634e487b7160e01b600052604160045260246000fd5b908160209103126107c2575180151581036107c25790565b3d156116ee573d9067ffffffffffffffff821161168557604051916116e2601f8201601f191660200184611663565b82523d6000602084013e565b606090565b156116fa57565b60405162461bcd60e51b815260206004820152601760248201527f46756e647261697365722069732066696e616c697a65640000000000000000006044820152606490fd5b1561174657565b60405162461bcd60e51b8152602060048201526014602482015273111958591b1a5b99481b9bdd081c995858da195960621b6044820152606490fd5b8181029291811591840414171561179557565b634e487b7160e01b600052601160045260246000fd5b9190820391821161179557565b156117bf57565b60405162461bcd60e51b815260206004820152600f60248201526e151c985b9cd9995c8819985a5b1959608a1b6044820152606490fd5b9190820180921161179557565b6000546001600160a01b0316330361181757565b63118cdaa760e01b6000523360045260246000fd5b60026001541461183d576002600155565b633ee5aeb560e01b60005260046000fd5b60ff60005460a01c1661185d57565b63d93c066560e01b60005260046000fd5b6002546040516370a0823160e01b8152306004820152906001600160a01b0316602082602481845afa91821561193957600092611980575b508115611945576004805460405163a9059cbb60e01b81526001600160a01b03909116918101919091526024810183905290602090829060449082906000905af18015611939576118fe916000916104f357506117b8565b6004546040519182526001600160a01b0316907f221c08a06b07a64803b3787861a3f276212fcccb51c2e6234077a9b8cb13047a90602090a2565b6040513d6000823e3d90fd5b60405162461bcd60e51b81526020600482015260136024820152724e6f2066756e647320746f2072656c6561736560681b6044820152606490fd5b90916020823d6020116119ac575b8161199b60209383611663565b810103126101ae57505190386118a6565b3d915061198e56fea2646970667358221220b2aa66ef9af532511dbb7b60a336a14b36adb79d27c6d7f95506b03e77c1361364736f6c634300081b0033","opcodes":"PUSH1 0x80 PUSH1 0x40 MSTORE CALLVALUE PUSH2 0x4E6 JUMPI PUSH2 0x1FB1 DUP1 CODESIZE SUB DUP1 PUSH2 0x19 DUP2 PUSH2 0x4EB JUMP JUMPDEST SWAP3 DUP4 CODECOPY DUP2 ADD SWAP1 PUSH2 0x1C0 DUP2 DUP4 SUB SLT PUSH2 0x4E6 JUMPI PUSH2 0x33 DUP2 PUSH2 0x526 JUMP JUMPDEST PUSH2 0x3F PUSH1 0x20 DUP4 ADD PUSH2 0x526 JUMP JUMPDEST SWAP3 PUSH2 0x4C PUSH1 0x40 DUP5 ADD PUSH2 0x526 JUMP JUMPDEST PUSH1 0x60 DUP5 ADD MLOAD SWAP2 PUSH1 0x80 DUP6 ADD MLOAD SWAP6 PUSH1 0xA0 DUP7 ADD MLOAD PUSH1 0xC0 DUP8 ADD MLOAD DUP1 ISZERO ISZERO DUP1 SWAP2 SUB PUSH2 0x4E6 JUMPI PUSH2 0x78 PUSH1 0xE0 DUP10 ADD PUSH2 0x526 JUMP JUMPDEST PUSH2 0x100 DUP10 ADD MLOAD SWAP1 SWAP3 SWAP1 PUSH1 0x1 PUSH1 0x1 PUSH1 0x40 SHL SUB DUP2 GT PUSH2 0x4E6 JUMPI DUP6 PUSH2 0x9B SWAP2 DUP12 ADD PUSH2 0x53A JUMP JUMPDEST PUSH2 0x120 DUP11 ADD MLOAD SWAP1 SWAP11 SWAP1 PUSH1 0x1 PUSH1 0x1 PUSH1 0x40 SHL SUB DUP2 GT PUSH2 0x4E6 JUMPI DUP11 SWAP7 PUSH2 0xBF SWAP2 DUP9 ADD PUSH2 0x53A JUMP JUMPDEST SWAP9 PUSH2 0xCD PUSH2 0x140 DUP9 ADD PUSH2 0x526 JUMP JUMPDEST SWAP8 PUSH2 0x1A0 PUSH2 0xEB PUSH2 0x180 PUSH2 0xE4 PUSH2 0x160 DUP13 ADD PUSH2 0x526 JUMP JUMPDEST SWAP11 ADD PUSH2 0x526 JUMP JUMPDEST SWAP13 ADD MLOAD SWAP7 PUSH1 0x1 PUSH1 0x1 PUSH1 0xE0 SHL SUB NOT DUP9 AND DUP9 SUB PUSH2 0x4E6 JUMPI CALLER ISZERO PUSH2 0x4D0 JUMPI PUSH1 0x0 DUP1 SLOAD PUSH1 0x40 MLOAD SWAP5 SWAP2 CALLER SWAP1 PUSH1 0x1 PUSH1 0x1 PUSH1 0xA0 SHL SUB DUP4 AND SWAP1 PUSH32 0x8BE0079C531659141344CD1FD0A4F28419497F9722A3DAAFE3B4186F6B6457E0 SWAP1 DUP1 LOG3 PUSH1 0x1 PUSH1 0x1 PUSH1 0xA8 SHL SUB NOT AND CALLER PUSH1 0xFF PUSH1 0xA0 SHL NOT AND OR PUSH1 0x0 SSTORE PUSH1 0x1 DUP1 SSTORE PUSH1 0x1 PUSH1 0x1 PUSH1 0xA0 SHL SUB AND SWAP3 DUP4 ISZERO PUSH2 0x48E JUMPI POP PUSH1 0x1 PUSH1 0x1 PUSH1 0xA0 SHL SUB AND SWAP1 DUP2 ISZERO PUSH2 0x449 JUMPI PUSH1 0x1 PUSH1 0x1 PUSH1 0xA0 SHL SUB AND SWAP2 DUP3 ISZERO PUSH2 0x40F JUMPI DUP14 MLOAD DUP13 MLOAD SUB PUSH2 0x3CA JUMPI DUP14 MLOAD ISZERO PUSH2 0x385 JUMPI PUSH1 0x1 DUP1 PUSH1 0xA0 SHL SUB NOT PUSH1 0x2 SLOAD AND OR PUSH1 0x2 SSTORE PUSH1 0x1 DUP1 PUSH1 0xA0 SHL SUB NOT PUSH1 0x4 SLOAD AND OR PUSH1 0x4 SSTORE PUSH1 0x1 DUP1 PUSH1 0xA0 SHL SUB NOT PUSH1 0x5 SLOAD AND OR PUSH1 0x5 SSTORE PUSH1 0x6 SSTORE PUSH1 0x7 SSTORE PUSH1 0xFF DUP1 NOT PUSH1 0x8 SLOAD AND SWAP2 AND OR PUSH1 0x8 SSTORE PUSH1 0xFA PUSH1 0x9 SSTORE PUSH1 0x1 DUP1 PUSH1 0xA0 SHL SUB AND PUSH1 0x1 DUP1 PUSH1 0xA0 SHL SUB NOT PUSH1 0x3 SLOAD AND OR PUSH1 0x3 SSTORE PUSH1 0x0 JUMPDEST DUP8 MLOAD DUP2 LT ISZERO PUSH2 0x2CE JUMPI PUSH2 0x212 DUP2 DUP8 PUSH2 0x59C JUMP JUMPDEST MLOAD ISZERO PUSH2 0x289 JUMPI DUP1 PUSH2 0x225 PUSH1 0x1 SWAP3 DUP9 PUSH2 0x59C JUMP JUMPDEST MLOAD PUSH2 0x230 DUP3 DUP12 PUSH2 0x59C JUMP JUMPDEST MLOAD PUSH1 0x0 MSTORE PUSH1 0xF PUSH1 0x20 MSTORE PUSH1 0x40 PUSH1 0x0 KECCAK256 SSTORE PUSH32 0xB751835A12376750BD69B4B4C0C1D306480284514D2FA88F72EDF3EEEA8515F6 PUSH1 0x40 PUSH2 0x26C DUP4 DUP13 PUSH2 0x59C JUMP JUMPDEST MLOAD PUSH2 0x277 DUP5 DUP12 PUSH2 0x59C JUMP JUMPDEST MLOAD DUP3 MLOAD SWAP2 DUP3 MSTORE PUSH1 0x20 DUP3 ADD MSTORE LOG1 ADD PUSH2 0x1FF JUMP JUMPDEST PUSH1 0x40 MLOAD PUSH3 0x461BCD PUSH1 0xE5 SHL DUP2 MSTORE PUSH1 0x20 PUSH1 0x4 DUP3 ADD MSTORE PUSH1 0x15 PUSH1 0x24 DUP3 ADD MSTORE PUSH32 0x496E76616C69642070726F647563742070726963650000000000000000000000 PUSH1 0x44 DUP3 ADD MSTORE PUSH1 0x64 SWAP1 REVERT JUMPDEST POP PUSH1 0x12 DUP1 SLOAD PUSH1 0x10 DUP1 SLOAD PUSH1 0x1 PUSH1 0x1 PUSH1 0xA0 SHL SUB NOT SWAP1 DUP2 AND PUSH1 0x1 PUSH1 0x1 PUSH1 0xA0 SHL SUB SWAP7 DUP8 AND OR SWAP1 SWAP2 SSTORE PUSH1 0x11 DUP1 SLOAD SWAP1 SWAP2 AND DUP6 DUP11 AND OR SWAP1 SSTORE PUSH1 0x1 PUSH1 0x1 PUSH1 0xC0 SHL SUB NOT AND SWAP4 SWAP1 SWAP3 AND SWAP3 SWAP1 SWAP3 OR PUSH1 0x40 SWAP3 SWAP1 SWAP3 SHR PUSH4 0xFFFFFFFF PUSH1 0xA0 SHL AND SWAP2 SWAP1 SWAP2 OR SWAP1 SSTORE PUSH1 0x2 DUP2 GT PUSH2 0x340 JUMPI PUSH1 0x15 SSTORE PUSH1 0x40 MLOAD PUSH2 0x19EA SWAP1 DUP2 PUSH2 0x5C7 DUP3 CODECOPY RETURN JUMPDEST PUSH1 0x40 MLOAD PUSH3 0x461BCD PUSH1 0xE5 SHL DUP2 MSTORE PUSH1 0x20 PUSH1 0x4 DUP3 ADD MSTORE PUSH1 0x14 PUSH1 0x24 DUP3 ADD MSTORE PUSH32 0x496E76616C69642066756E64696E672074797065000000000000000000000000 PUSH1 0x44 DUP3 ADD MSTORE PUSH1 0x64 SWAP1 REVERT JUMPDEST PUSH1 0x40 MLOAD PUSH3 0x461BCD PUSH1 0xE5 SHL DUP2 MSTORE PUSH1 0x20 PUSH1 0x4 DUP3 ADD MSTORE PUSH1 0x14 PUSH1 0x24 DUP3 ADD MSTORE PUSH32 0x4E6F2070726F64756374732070726F7669646564000000000000000000000000 PUSH1 0x44 DUP3 ADD MSTORE PUSH1 0x64 SWAP1 REVERT JUMPDEST PUSH1 0x40 MLOAD PUSH3 0x461BCD PUSH1 0xE5 SHL DUP2 MSTORE PUSH1 0x20 PUSH1 0x4 DUP3 ADD MSTORE PUSH1 0x16 PUSH1 0x24 DUP3 ADD MSTORE PUSH32 0x417272617973206C656E677468206D69736D6174636800000000000000000000 PUSH1 0x44 DUP3 ADD MSTORE PUSH1 0x64 SWAP1 REVERT JUMPDEST PUSH1 0x40 MLOAD PUSH3 0x461BCD PUSH1 0xE5 SHL DUP2 MSTORE PUSH1 0x20 PUSH1 0x4 DUP3 ADD MSTORE PUSH1 0x12 PUSH1 0x24 DUP3 ADD MSTORE PUSH18 0x125B9D985B1A5908199959481DD85B1B195D PUSH1 0x72 SHL PUSH1 0x44 DUP3 ADD MSTORE PUSH1 0x64 SWAP1 REVERT JUMPDEST PUSH1 0x40 MLOAD PUSH3 0x461BCD PUSH1 0xE5 SHL DUP2 MSTORE PUSH1 0x20 PUSH1 0x4 DUP3 ADD MSTORE PUSH1 0x1A PUSH1 0x24 DUP3 ADD MSTORE PUSH32 0x496E76616C69642062656E65666963696172792077616C6C6574000000000000 PUSH1 0x44 DUP3 ADD MSTORE PUSH1 0x64 SWAP1 REVERT JUMPDEST PUSH3 0x461BCD PUSH1 0xE5 SHL DUP2 MSTORE PUSH1 0x20 PUSH1 0x4 DUP3 ADD MSTORE PUSH1 0x14 PUSH1 0x24 DUP3 ADD MSTORE PUSH32 0x496E76616C696420555344432061646472657373000000000000000000000000 PUSH1 0x44 DUP3 ADD MSTORE PUSH1 0x64 SWAP1 REVERT JUMPDEST PUSH4 0x1E4FBDF7 PUSH1 0xE0 SHL PUSH1 0x0 MSTORE PUSH1 0x0 PUSH1 0x4 MSTORE PUSH1 0x24 PUSH1 0x0 REVERT JUMPDEST PUSH1 0x0 DUP1 REVERT JUMPDEST PUSH1 0x40 MLOAD SWAP2 SWAP1 PUSH1 0x1F ADD PUSH1 0x1F NOT AND DUP3 ADD PUSH1 0x1 PUSH1 0x1 PUSH1 0x40 SHL SUB DUP2 GT DUP4 DUP3 LT OR PUSH2 0x510 JUMPI PUSH1 0x40 MSTORE JUMP JUMPDEST PUSH4 0x4E487B71 PUSH1 0xE0 SHL PUSH1 0x0 MSTORE PUSH1 0x41 PUSH1 0x4 MSTORE PUSH1 0x24 PUSH1 0x0 REVERT JUMPDEST MLOAD SWAP1 PUSH1 0x1 PUSH1 0x1 PUSH1 0xA0 SHL SUB DUP3 AND DUP3 SUB PUSH2 0x4E6 JUMPI JUMP JUMPDEST SWAP1 DUP1 PUSH1 0x1F DUP4 ADD SLT ISZERO PUSH2 0x4E6 JUMPI DUP2 MLOAD SWAP2 PUSH1 0x1 PUSH1 0x1 PUSH1 0x40 SHL SUB DUP4 GT PUSH2 0x510 JUMPI DUP3 PUSH1 0x5 SHL SWAP1 PUSH1 0x20 DUP1 PUSH2 0x56A DUP2 DUP6 ADD PUSH2 0x4EB JUMP JUMPDEST DUP1 SWAP7 DUP2 MSTORE ADD SWAP3 DUP3 ADD ADD SWAP3 DUP4 GT PUSH2 0x4E6 JUMPI PUSH1 0x20 ADD SWAP1 JUMPDEST DUP3 DUP3 LT PUSH2 0x58C JUMPI POP POP POP SWAP1 JUMP JUMPDEST DUP2 MLOAD DUP2 MSTORE PUSH1 0x20 SWAP2 DUP3 ADD SWAP2 ADD PUSH2 0x57F JUMP JUMPDEST DUP1 MLOAD DUP3 LT ISZERO PUSH2 0x5B0 JUMPI PUSH1 0x20 SWAP2 PUSH1 0x5 SHL ADD ADD SWAP1 JUMP JUMPDEST PUSH4 0x4E487B71 PUSH1 0xE0 SHL PUSH1 0x0 MSTORE PUSH1 0x32 PUSH1 0x4 MSTORE PUSH1 0x24 PUSH1 0x0 REVERT INVALID PUSH1 0x80 DUP1 PUSH1 0x40 MSTORE PUSH1 0x4 CALLDATASIZE LT ISZERO PUSH2 0x13 JUMPI PUSH1 0x0 DUP1 REVERT JUMPDEST PUSH1 0x0 SWAP1 DUP2 CALLDATALOAD PUSH1 0xE0 SHR SWAP1 DUP2 PUSH4 0x2F8BAA1 EQ PUSH2 0x1589 JUMPI POP DUP1 PUSH4 0x25B4F65F EQ PUSH2 0x1560 JUMPI DUP1 PUSH4 0x2897F6A0 EQ PUSH2 0x153D JUMPI DUP1 PUSH4 0x29DCB0CF EQ PUSH2 0x151F JUMPI DUP1 PUSH4 0x38EB6A19 EQ PUSH2 0x14F5 JUMPI DUP1 PUSH4 0x3E413BEE EQ PUSH2 0x14CC JUMPI DUP1 PUSH4 0x3F4BA83A EQ PUSH2 0x145E JUMPI DUP1 PUSH4 0x42235DA6 EQ PUSH2 0x1440 JUMPI DUP1 PUSH4 0x4232D7F8 EQ PUSH2 0x1136 JUMPI DUP1 PUSH4 0x42AF1884 EQ PUSH2 0x1051 JUMPI DUP1 PUSH4 0x44D3498A EQ PUSH2 0xFFC JUMPI DUP1 PUSH4 0x4585E33B EQ PUSH2 0xEF0 JUMPI DUP1 PUSH4 0x4BB278F3 EQ PUSH2 0xD97 JUMPI DUP1 PUSH4 0x5C975ABB EQ PUSH2 0xD72 JUMPI DUP1 PUSH4 0x66BFF1DB EQ PUSH2 0xD48 JUMPI DUP1 PUSH4 0x6CAD3FB0 EQ PUSH2 0xCB3 JUMPI DUP1 PUSH4 0x6E04FF0D EQ PUSH2 0xC57 JUMPI DUP1 PUSH4 0x715018A6 EQ PUSH2 0xBFD JUMPI DUP1 PUSH4 0x8456CB59 EQ PUSH2 0xB9C JUMPI DUP1 PUSH4 0x8527D58F EQ PUSH2 0x838 JUMPI DUP1 PUSH4 0x8DA5CB5B EQ PUSH2 0x811 JUMPI DUP1 PUSH4 0x95CCEA67 EQ PUSH2 0x64B JUMPI DUP1 PUSH4 0xA001ECDD EQ PUSH2 0x62D JUMPI DUP1 PUSH4 0xB3F05B97 EQ PUSH2 0x60A JUMPI DUP1 PUSH4 0xC5C4744C EQ PUSH2 0x5EC JUMPI DUP1 PUSH4 0xC9788631 EQ PUSH2 0x5C3 JUMPI DUP1 PUSH4 0xE2BBB158 EQ PUSH2 0x27E JUMPI DUP1 PUSH4 0xF25F4B56 EQ PUSH2 0x255 JUMPI DUP1 PUSH4 0xF2FDE38B EQ PUSH2 0x1CF JUMPI DUP1 PUSH4 0xFA8AB0EE EQ PUSH2 0x1B1 JUMPI PUSH4 0xFC7E286D EQ PUSH2 0x176 JUMPI PUSH1 0x0 DUP1 REVERT JUMPDEST CALLVALUE PUSH2 0x1AE JUMPI PUSH1 0x20 CALLDATASIZE PUSH1 0x3 NOT ADD SLT PUSH2 0x1AE JUMPI PUSH1 0x20 SWAP1 PUSH1 0x40 SWAP1 PUSH1 0x1 PUSH1 0x1 PUSH1 0xA0 SHL SUB PUSH2 0x19D PUSH2 0x164D JUMP JUMPDEST AND DUP2 MSTORE PUSH1 0xA DUP4 MSTORE KECCAK256 SLOAD PUSH1 0x40 MLOAD SWAP1 DUP2 MSTORE RETURN JUMPDEST DUP1 REVERT JUMPDEST POP CALLVALUE PUSH2 0x1AE JUMPI DUP1 PUSH1 0x3 NOT CALLDATASIZE ADD SLT PUSH2 0x1AE JUMPI PUSH1 0x20 PUSH1 0x15 SLOAD PUSH1 0x40 MLOAD SWAP1 DUP2 MSTORE RETURN JUMPDEST POP CALLVALUE PUSH2 0x1AE JUMPI PUSH1 0x20 CALLDATASIZE PUSH1 0x3 NOT ADD SLT PUSH2 0x1AE JUMPI PUSH2 0x1E9 PUSH2 0x164D JUMP JUMPDEST PUSH2 0x1F1 PUSH2 0x1803 JUMP JUMPDEST PUSH1 0x1 PUSH1 0x1 PUSH1 0xA0 SHL SUB AND DUP1 ISZERO PUSH2 0x241 JUMPI DUP2 SLOAD PUSH1 0x1 PUSH1 0x1 PUSH1 0xA0 SHL SUB NOT DUP2 AND DUP3 OR DUP4 SSTORE PUSH1 0x1 PUSH1 0x1 PUSH1 0xA0 SHL SUB AND PUSH32 0x8BE0079C531659141344CD1FD0A4F28419497F9722A3DAAFE3B4186F6B6457E0 DUP4 DUP1 LOG3 DUP1 RETURN JUMPDEST PUSH4 0x1E4FBDF7 PUSH1 0xE0 SHL DUP3 MSTORE PUSH1 0x4 DUP3 SWAP1 MSTORE PUSH1 0x24 DUP3 REVERT JUMPDEST POP CALLVALUE PUSH2 0x1AE JUMPI DUP1 PUSH1 0x3 NOT CALLDATASIZE ADD SLT PUSH2 0x1AE JUMPI PUSH1 0x5 SLOAD PUSH1 0x40 MLOAD PUSH1 0x1 PUSH1 0x1 PUSH1 0xA0 SHL SUB SWAP1 SWAP2 AND DUP2 MSTORE PUSH1 0x20 SWAP1 RETURN JUMPDEST POP CALLVALUE PUSH2 0x1AE JUMPI PUSH2 0x28D CALLDATASIZE PUSH2 0x15F6 JUMP JUMPDEST SWAP1 PUSH2 0x296 PUSH2 0x182C JUMP JUMPDEST PUSH2 0x29E PUSH2 0x184E JUMP JUMPDEST DUP2 ISZERO PUSH2 0x57E JUMPI PUSH1 0xFF PUSH1 0xC SLOAD AND ISZERO DUP1 ISZERO PUSH2 0x572 JUMPI JUMPDEST PUSH2 0x2BB SWAP1 PUSH2 0x16F3 JUMP JUMPDEST DUP1 DUP4 MSTORE PUSH1 0xF PUSH1 0x20 MSTORE PUSH1 0x40 DUP4 KECCAK256 SLOAD ISZERO PUSH2 0x51D JUMPI DUP1 DUP4 MSTORE PUSH1 0xF PUSH1 0x20 MSTORE PUSH2 0x2E3 DUP3 PUSH1 0x40 DUP6 KECCAK256 SLOAD PUSH2 0x1782 JUMP JUMPDEST SWAP2 PUSH2 0x2710 PUSH2 0x2F3 PUSH1 0x9 SLOAD DUP6 PUSH2 0x1782 JUMP JUMPDEST DIV SWAP2 DUP5 PUSH2 0x300 DUP5 DUP7 PUSH2 0x17AB JUMP JUMPDEST SWAP3 DUP2 PUSH1 0x20 PUSH1 0x1 DUP1 PUSH1 0xA0 SHL SUB PUSH1 0x2 SLOAD AND PUSH1 0x64 PUSH1 0x40 MLOAD DUP1 SWAP5 DUP2 SWAP4 PUSH4 0x23B872DD PUSH1 0xE0 SHL DUP4 MSTORE CALLER PUSH1 0x4 DUP5 ADD MSTORE ADDRESS PUSH1 0x24 DUP5 ADD MSTORE DUP13 PUSH1 0x44 DUP5 ADD MSTORE GAS CALL DUP1 ISZERO PUSH2 0x512 JUMPI PUSH2 0x34D SWAP2 DUP5 SWAP2 PUSH2 0x4F3 JUMPI JUMPDEST POP PUSH2 0x17B8 JUMP JUMPDEST DUP5 PUSH2 0x427 JUMPI JUMPDEST PUSH2 0x35F DUP5 PUSH1 0xB SLOAD PUSH2 0x17F6 JUMP JUMPDEST PUSH1 0xB SSTORE PUSH1 0x3 SLOAD PUSH1 0x1 PUSH1 0x1 PUSH1 0xA0 SHL SUB AND DUP1 EXTCODESIZE ISZERO PUSH2 0x423 JUMPI PUSH1 0x40 MLOAD PUSH4 0xAB714FB PUSH1 0xE1 SHL DUP2 MSTORE CALLER PUSH1 0x4 DUP3 ADD MSTORE PUSH1 0x24 DUP2 ADD DUP6 SWAP1 MSTORE PUSH1 0x44 DUP2 ADD SWAP3 SWAP1 SWAP3 MSTORE DUP3 SWAP1 DUP3 SWAP1 PUSH1 0x64 SWAP1 DUP3 SWAP1 DUP5 SWAP1 GAS CALL DUP1 ISZERO PUSH2 0x418 JUMPI PUSH2 0x3FF JUMPI JUMPDEST POP MSTORE PUSH1 0xE PUSH1 0x20 MSTORE PUSH2 0x3C5 PUSH1 0x40 DUP6 KECCAK256 SWAP2 DUP3 SLOAD PUSH2 0x17F6 JUMP JUMPDEST SWAP1 SSTORE PUSH1 0x40 MLOAD SWAP2 DUP3 MSTORE PUSH1 0x20 DUP3 ADD MSTORE PUSH32 0x90890809C654F11D6E72A28FA60149770A0D11EC6C92319D6CEB2BB0A4EA1A15 PUSH1 0x40 CALLER SWAP3 LOG2 PUSH1 0x1 DUP1 SSTORE DUP1 RETURN JUMPDEST DUP2 PUSH2 0x409 SWAP2 PUSH2 0x1663 JUMP JUMPDEST PUSH2 0x414 JUMPI DUP5 CODESIZE PUSH2 0x3AF JUMP JUMPDEST DUP5 DUP1 REVERT JUMPDEST PUSH1 0x40 MLOAD RETURNDATASIZE DUP5 DUP3 RETURNDATACOPY RETURNDATASIZE SWAP1 REVERT JUMPDEST DUP3 DUP1 REVERT JUMPDEST PUSH1 0x2 SLOAD PUSH1 0x5 SLOAD PUSH1 0x40 MLOAD PUSH4 0xA9059CBB PUSH1 0xE0 SHL DUP2 MSTORE PUSH1 0x1 PUSH1 0x1 PUSH1 0xA0 SHL SUB SWAP2 DUP3 AND PUSH1 0x4 DUP3 ADD MSTORE PUSH1 0x24 DUP2 ADD DUP9 SWAP1 MSTORE SWAP3 SWAP4 POP PUSH1 0x20 SWAP2 DUP4 SWAP2 PUSH1 0x44 SWAP2 DUP4 SWAP2 DUP13 SWAP2 AND GAS CALL SWAP1 DUP2 ISZERO PUSH2 0x4E8 JUMPI DUP8 SWAP2 PUSH2 0x4B9 JUMPI JUMPDEST POP ISZERO PUSH2 0x47E JUMPI DUP6 SWAP1 PUSH2 0x353 JUMP JUMPDEST PUSH1 0x40 MLOAD PUSH3 0x461BCD PUSH1 0xE5 SHL DUP2 MSTORE PUSH1 0x20 PUSH1 0x4 DUP3 ADD MSTORE PUSH1 0x13 PUSH1 0x24 DUP3 ADD MSTORE PUSH19 0x119959481D1C985B9CD9995C8819985A5B1959 PUSH1 0x6A SHL PUSH1 0x44 DUP3 ADD MSTORE PUSH1 0x64 SWAP1 REVERT JUMPDEST PUSH2 0x4DB SWAP2 POP PUSH1 0x20 RETURNDATASIZE PUSH1 0x20 GT PUSH2 0x4E1 JUMPI JUMPDEST PUSH2 0x4D3 DUP2 DUP4 PUSH2 0x1663 JUMP JUMPDEST DUP2 ADD SWAP1 PUSH2 0x169B JUMP JUMPDEST CODESIZE PUSH2 0x471 JUMP JUMPDEST POP RETURNDATASIZE PUSH2 0x4C9 JUMP JUMPDEST PUSH1 0x40 MLOAD RETURNDATASIZE DUP10 DUP3 RETURNDATACOPY RETURNDATASIZE SWAP1 REVERT JUMPDEST PUSH2 0x50C SWAP2 POP PUSH1 0x20 RETURNDATASIZE PUSH1 0x20 GT PUSH2 0x4E1 JUMPI PUSH2 0x4D3 DUP2 DUP4 PUSH2 0x1663 JUMP JUMPDEST CODESIZE PUSH2 0x347 JUMP JUMPDEST PUSH1 0x40 MLOAD RETURNDATASIZE DUP6 DUP3 RETURNDATACOPY RETURNDATASIZE SWAP1 REVERT JUMPDEST PUSH1 0x40 MLOAD PUSH3 0x461BCD PUSH1 0xE5 SHL DUP2 MSTORE PUSH1 0x20 PUSH1 0x4 DUP3 ADD MSTORE PUSH1 0x27 PUSH1 0x24 DUP3 ADD MSTORE PUSH32 0x50726F64756374206E6F7420617661696C61626C6520666F7220746869732063 PUSH1 0x44 DUP3 ADD MSTORE PUSH7 0x30B6B830B4B3B7 PUSH1 0xC9 SHL PUSH1 0x64 DUP3 ADD MSTORE PUSH1 0x84 SWAP1 REVERT JUMPDEST POP PUSH1 0x15 SLOAD PUSH1 0x1 EQ PUSH2 0x2B2 JUMP JUMPDEST PUSH1 0x40 MLOAD PUSH3 0x461BCD PUSH1 0xE5 SHL DUP2 MSTORE PUSH1 0x20 PUSH1 0x4 DUP3 ADD MSTORE PUSH1 0x1F PUSH1 0x24 DUP3 ADD MSTORE PUSH32 0x5175616E74697479206D7573742062652067726561746572207468616E203000 PUSH1 0x44 DUP3 ADD MSTORE PUSH1 0x64 SWAP1 REVERT JUMPDEST POP CALLVALUE PUSH2 0x1AE JUMPI DUP1 PUSH1 0x3 NOT CALLDATASIZE ADD SLT PUSH2 0x1AE JUMPI PUSH1 0x4 SLOAD PUSH1 0x40 MLOAD PUSH1 0x1 PUSH1 0x1 PUSH1 0xA0 SHL SUB SWAP1 SWAP2 AND DUP2 MSTORE PUSH1 0x20 SWAP1 RETURN JUMPDEST POP CALLVALUE PUSH2 0x1AE JUMPI DUP1 PUSH1 0x3 NOT CALLDATASIZE ADD SLT PUSH2 0x1AE JUMPI PUSH1 0x20 PUSH1 0xB SLOAD PUSH1 0x40 MLOAD SWAP1 DUP2 MSTORE RETURN JUMPDEST POP CALLVALUE PUSH2 0x1AE JUMPI DUP1 PUSH1 0x3 NOT CALLDATASIZE ADD SLT PUSH2 0x1AE JUMPI PUSH1 0x20 PUSH1 0xFF PUSH1 0xC SLOAD AND PUSH1 0x40 MLOAD SWAP1 ISZERO ISZERO DUP2 MSTORE RETURN JUMPDEST POP CALLVALUE PUSH2 0x1AE JUMPI DUP1 PUSH1 0x3 NOT CALLDATASIZE ADD SLT PUSH2 0x1AE JUMPI PUSH1 0x20 PUSH1 0x9 SLOAD PUSH1 0x40 MLOAD SWAP1 DUP2 MSTORE RETURN JUMPDEST POP CALLVALUE PUSH2 0x1AE JUMPI PUSH1 0x40 CALLDATASIZE PUSH1 0x3 NOT ADD SLT PUSH2 0x1AE JUMPI PUSH2 0x665 PUSH2 0x164D JUMP JUMPDEST PUSH1 0x24 CALLDATALOAD SWAP1 PUSH2 0x671 PUSH2 0x1803 JUMP JUMPDEST PUSH1 0x1 PUSH1 0x1 PUSH1 0xA0 SHL SUB DUP2 AND SWAP2 DUP3 ISZERO PUSH2 0x7DA JUMPI PUSH1 0x2 SLOAD PUSH1 0x40 MLOAD PUSH4 0x70A08231 PUSH1 0xE0 SHL DUP2 MSTORE ADDRESS PUSH1 0x4 DUP3 ADD MSTORE PUSH1 0x1 PUSH1 0x1 PUSH1 0xA0 SHL SUB SWAP1 SWAP2 AND SWAP1 PUSH1 0x20 DUP2 PUSH1 0x24 DUP2 DUP6 GAS STATICCALL SWAP1 DUP2 ISZERO PUSH2 0x7CF JUMPI DUP7 SWAP2 PUSH2 0x798 JUMPI JUMPDEST POP DUP3 GT PUSH2 0x75C JUMPI PUSH1 0x40 MLOAD PUSH4 0xA9059CBB PUSH1 0xE0 SHL DUP2 MSTORE PUSH1 0x1 PUSH1 0x1 PUSH1 0xA0 SHL SUB SWAP4 SWAP1 SWAP4 AND PUSH1 0x4 DUP5 ADD MSTORE PUSH1 0x24 DUP4 ADD DUP3 SWAP1 MSTORE PUSH1 0x20 SWAP1 DUP4 SWAP1 PUSH1 0x44 SWAP1 DUP3 SWAP1 DUP9 SWAP1 GAS CALL SWAP1 DUP2 ISZERO PUSH2 0x751 JUMPI PUSH2 0x730 PUSH1 0x20 SWAP3 PUSH32 0x5FAFA99D0643513820BE26656B45130B01E1C03062E1266BF36F88CBD3BD9695 SWAP5 DUP8 SWAP2 PUSH2 0x73A JUMPI POP PUSH2 0x17B8 JUMP JUMPDEST PUSH1 0x40 MLOAD SWAP1 DUP2 MSTORE LOG2 DUP1 RETURN JUMPDEST PUSH2 0x50C SWAP2 POP DUP5 RETURNDATASIZE DUP7 GT PUSH2 0x4E1 JUMPI PUSH2 0x4D3 DUP2 DUP4 PUSH2 0x1663 JUMP JUMPDEST PUSH1 0x40 MLOAD RETURNDATASIZE DUP7 DUP3 RETURNDATACOPY RETURNDATASIZE SWAP1 REVERT JUMPDEST PUSH1 0x40 MLOAD PUSH3 0x461BCD PUSH1 0xE5 SHL DUP2 MSTORE PUSH1 0x20 PUSH1 0x4 DUP3 ADD MSTORE PUSH1 0x14 PUSH1 0x24 DUP3 ADD MSTORE PUSH20 0x496E73756666696369656E742062616C616E6365 PUSH1 0x60 SHL PUSH1 0x44 DUP3 ADD MSTORE PUSH1 0x64 SWAP1 REVERT JUMPDEST SWAP1 POP PUSH1 0x20 DUP2 RETURNDATASIZE PUSH1 0x20 GT PUSH2 0x7C7 JUMPI JUMPDEST DUP2 PUSH2 0x7B3 PUSH1 0x20 SWAP4 DUP4 PUSH2 0x1663 JUMP JUMPDEST DUP2 ADD SUB SLT PUSH2 0x7C2 JUMPI MLOAD CODESIZE PUSH2 0x6BB JUMP JUMPDEST PUSH1 0x0 DUP1 REVERT JUMPDEST RETURNDATASIZE SWAP2 POP PUSH2 0x7A6 JUMP JUMPDEST PUSH1 0x40 MLOAD RETURNDATASIZE DUP9 DUP3 RETURNDATACOPY RETURNDATASIZE SWAP1 REVERT JUMPDEST PUSH1 0x40 MLOAD PUSH3 0x461BCD PUSH1 0xE5 SHL DUP2 MSTORE PUSH1 0x20 PUSH1 0x4 DUP3 ADD MSTORE PUSH1 0xF PUSH1 0x24 DUP3 ADD MSTORE PUSH15 0x496E76616C69642061646472657373 PUSH1 0x88 SHL PUSH1 0x44 DUP3 ADD MSTORE PUSH1 0x64 SWAP1 REVERT JUMPDEST POP CALLVALUE PUSH2 0x1AE JUMPI DUP1 PUSH1 0x3 NOT CALLDATASIZE ADD SLT PUSH2 0x1AE JUMPI SLOAD PUSH1 0x40 MLOAD PUSH1 0x1 PUSH1 0x1 PUSH1 0xA0 SHL SUB SWAP1 SWAP2 AND DUP2 MSTORE PUSH1 0x20 SWAP1 RETURN JUMPDEST POP CALLVALUE PUSH2 0x1AE JUMPI PUSH2 0x847 CALLDATASIZE PUSH2 0x15F6 JUMP JUMPDEST PUSH1 0x15 SLOAD PUSH2 0xB36 JUMPI PUSH1 0xFF PUSH1 0xC SLOAD AND DUP1 PUSH2 0xB28 JUMPI JUMPDEST PUSH2 0xAD4 JUMPI JUMPDEST PUSH1 0x3 SLOAD PUSH1 0x40 MLOAD PUSH3 0x7EEAC7 PUSH1 0xE1 SHL DUP2 MSTORE CALLER PUSH1 0x4 DUP3 ADD MSTORE PUSH1 0x24 DUP2 ADD DUP5 SWAP1 MSTORE PUSH1 0x1 PUSH1 0x1 PUSH1 0xA0 SHL SUB SWAP1 SWAP2 AND SWAP3 SWAP1 PUSH1 0x20 DUP2 PUSH1 0x44 DUP2 DUP8 GAS STATICCALL SWAP1 DUP2 ISZERO PUSH2 0xA03 JUMPI DUP6 SWAP2 PUSH2 0xAA2 JUMPI JUMPDEST POP DUP1 ISZERO PUSH2 0xA67 JUMPI DUP3 GT PUSH2 0xA22 JUMPI DUP1 DUP5 MSTORE PUSH1 0xF PUSH1 0x20 MSTORE PUSH2 0x8DB DUP3 PUSH2 0x8D6 PUSH1 0x40 DUP8 KECCAK256 SLOAD PUSH2 0x2710 PUSH2 0x8CF PUSH1 0x9 SLOAD DUP4 PUSH2 0x1782 JUMP JUMPDEST DIV SWAP1 PUSH2 0x17AB JUMP JUMPDEST PUSH2 0x1782 JUMP JUMPDEST SWAP3 DUP1 EXTCODESIZE ISZERO PUSH2 0x414 JUMPI PUSH1 0x40 MLOAD PUSH4 0x7A94C565 PUSH1 0xE1 SHL DUP2 MSTORE CALLER PUSH1 0x4 DUP3 ADD MSTORE PUSH1 0x24 DUP2 ADD DUP4 SWAP1 MSTORE PUSH1 0x44 DUP2 ADD DUP5 SWAP1 MSTORE SWAP1 DUP6 SWAP1 DUP3 SWAP1 PUSH1 0x64 SWAP1 DUP3 SWAP1 DUP5 SWAP1 GAS CALL DUP1 ISZERO PUSH2 0xA03 JUMPI PUSH2 0xA0E JUMPI JUMPDEST POP PUSH2 0x92A DUP4 PUSH1 0xB SLOAD PUSH2 0x17AB JUMP JUMPDEST PUSH1 0xB SSTORE PUSH1 0x2 SLOAD PUSH1 0x40 MLOAD PUSH4 0xA9059CBB PUSH1 0xE0 SHL DUP2 MSTORE CALLER PUSH1 0x4 DUP3 ADD MSTORE PUSH1 0x24 DUP2 ADD DUP6 SWAP1 MSTORE SWAP1 PUSH1 0x20 SWAP1 DUP3 SWAP1 PUSH1 0x44 SWAP1 DUP3 SWAP1 DUP10 SWAP1 PUSH1 0x1 PUSH1 0x1 PUSH1 0xA0 SHL SUB AND GAS CALL SWAP1 DUP2 ISZERO PUSH2 0xA03 JUMPI DUP6 SWAP2 PUSH2 0x9E4 JUMPI JUMPDEST POP ISZERO PUSH2 0x9AF JUMPI PUSH1 0x40 MLOAD SWAP3 DUP4 MSTORE PUSH1 0x20 DUP4 ADD MSTORE PUSH1 0x40 DUP3 ADD MSTORE PUSH32 0xB7048C2AD36AADEE977BB16B4543A18866044D27A2CA753E1C7DBCFA7D7A6962 PUSH1 0x60 CALLER SWAP3 LOG2 DUP1 RETURN JUMPDEST PUSH1 0x40 MLOAD PUSH3 0x461BCD PUSH1 0xE5 SHL DUP2 MSTORE PUSH1 0x20 PUSH1 0x4 DUP3 ADD MSTORE PUSH1 0xD PUSH1 0x24 DUP3 ADD MSTORE PUSH13 0x1499599D5B990819985A5B1959 PUSH1 0x9A SHL PUSH1 0x44 DUP3 ADD MSTORE PUSH1 0x64 SWAP1 REVERT JUMPDEST PUSH2 0x9FD SWAP2 POP PUSH1 0x20 RETURNDATASIZE PUSH1 0x20 GT PUSH2 0x4E1 JUMPI PUSH2 0x4D3 DUP2 DUP4 PUSH2 0x1663 JUMP JUMPDEST CODESIZE PUSH2 0x970 JUMP JUMPDEST PUSH1 0x40 MLOAD RETURNDATASIZE DUP8 DUP3 RETURNDATACOPY RETURNDATASIZE SWAP1 REVERT JUMPDEST DUP5 PUSH2 0xA1B SWAP2 SWAP6 SWAP3 SWAP6 PUSH2 0x1663 JUMP JUMPDEST SWAP3 CODESIZE PUSH2 0x91D JUMP JUMPDEST PUSH1 0x40 MLOAD PUSH3 0x461BCD PUSH1 0xE5 SHL DUP2 MSTORE PUSH1 0x20 PUSH1 0x4 DUP3 ADD MSTORE PUSH1 0x1D PUSH1 0x24 DUP3 ADD MSTORE PUSH32 0x496E73756666696369656E7420746F6B656E7320746F20726566756E64000000 PUSH1 0x44 DUP3 ADD MSTORE PUSH1 0x64 SWAP1 REVERT JUMPDEST PUSH1 0x40 MLOAD PUSH3 0x461BCD PUSH1 0xE5 SHL DUP2 MSTORE PUSH1 0x20 PUSH1 0x4 DUP3 ADD MSTORE PUSH1 0x13 PUSH1 0x24 DUP3 ADD MSTORE PUSH19 0x139BC81D1BDAD95B9CC81D1BC81C99599D5B99 PUSH1 0x6A SHL PUSH1 0x44 DUP3 ADD MSTORE PUSH1 0x64 SWAP1 REVERT JUMPDEST SWAP1 POP PUSH1 0x20 DUP2 RETURNDATASIZE PUSH1 0x20 GT PUSH2 0xACC JUMPI JUMPDEST DUP2 PUSH2 0xABD PUSH1 0x20 SWAP4 DUP4 PUSH2 0x1663 JUMP JUMPDEST DUP2 ADD SUB SLT PUSH2 0x414 JUMPI MLOAD CODESIZE PUSH2 0x89F JUMP JUMPDEST RETURNDATASIZE SWAP2 POP PUSH2 0xAB0 JUMP JUMPDEST PUSH1 0x40 MLOAD PUSH3 0x461BCD PUSH1 0xE5 SHL DUP2 MSTORE PUSH1 0x20 PUSH1 0x4 DUP3 ADD MSTORE PUSH1 0x26 PUSH1 0x24 DUP3 ADD MSTORE PUSH32 0x54617267657420776173206D65742C20726566756E6473206E6F742061766169 PUSH1 0x44 DUP3 ADD MSTORE PUSH6 0x3630B1363297 PUSH1 0xD1 SHL PUSH1 0x64 DUP3 ADD MSTORE PUSH1 0x84 SWAP1 REVERT JUMPDEST POP PUSH1 0xB SLOAD PUSH1 0x6 SLOAD GT ISZERO PUSH2 0x85A JUMP JUMPDEST PUSH1 0xFF PUSH1 0xC SLOAD AND ISZERO PUSH2 0x85F JUMPI PUSH1 0x40 MLOAD PUSH3 0x461BCD PUSH1 0xE5 SHL DUP2 MSTORE PUSH1 0x20 PUSH1 0x4 DUP3 ADD MSTORE PUSH1 0x2D PUSH1 0x24 DUP3 ADD MSTORE PUSH32 0x43616D706169676E2069732066696E616C697A65642C20726566756E6473206E PUSH1 0x44 DUP3 ADD MSTORE PUSH13 0x37BA1030BB30B4B630B1363297 PUSH1 0x99 SHL PUSH1 0x64 DUP3 ADD MSTORE PUSH1 0x84 SWAP1 REVERT JUMPDEST POP CALLVALUE PUSH2 0x1AE JUMPI DUP1 PUSH1 0x3 NOT CALLDATASIZE ADD SLT PUSH2 0x1AE JUMPI PUSH2 0xBB5 PUSH2 0x1803 JUMP JUMPDEST PUSH2 0xBBD PUSH2 0x184E JUMP JUMPDEST DUP1 SLOAD PUSH1 0xFF PUSH1 0xA0 SHL NOT AND PUSH1 0x1 PUSH1 0xA0 SHL OR DUP2 SSTORE PUSH1 0x40 MLOAD CALLER DUP2 MSTORE PUSH32 0x62E78CEA01BEE320CD4E420270B5EA74000D11B0C9F74754EBDBFC544B05A258 SWAP1 PUSH1 0x20 SWAP1 LOG1 DUP1 RETURN JUMPDEST POP CALLVALUE PUSH2 0x1AE JUMPI DUP1 PUSH1 0x3 NOT CALLDATASIZE ADD SLT PUSH2 0x1AE JUMPI PUSH2 0xC16 PUSH2 0x1803 JUMP JUMPDEST DUP1 SLOAD PUSH1 0x1 PUSH1 0x1 PUSH1 0xA0 SHL SUB NOT DUP2 AND DUP3 SSTORE DUP2 SWAP1 PUSH1 0x1 PUSH1 0x1 PUSH1 0xA0 SHL SUB AND PUSH32 0x8BE0079C531659141344CD1FD0A4F28419497F9722A3DAAFE3B4186F6B6457E0 DUP3 DUP1 LOG3 DUP1 RETURN JUMPDEST POP CALLVALUE PUSH2 0x1AE JUMPI PUSH2 0xC66 CALLDATASIZE PUSH2 0x15A5 JUMP JUMPDEST POP POP PUSH1 0xFF PUSH1 0xC SLOAD AND ISZERO DUP1 PUSH2 0xCA8 JUMPI JUMPDEST PUSH1 0x40 MLOAD SWAP2 PUSH2 0xC84 PUSH1 0x20 DUP5 PUSH2 0x1663 JUMP JUMPDEST DUP3 MSTORE PUSH2 0xCA4 PUSH1 0x40 MLOAD SWAP3 DUP4 SWAP3 ISZERO ISZERO DUP4 MSTORE PUSH1 0x40 PUSH1 0x20 DUP5 ADD MSTORE PUSH1 0x40 DUP4 ADD SWAP1 PUSH2 0x160C JUMP JUMPDEST SUB SWAP1 RETURN JUMPDEST POP PUSH1 0x7 SLOAD TIMESTAMP GT PUSH2 0xC75 JUMP JUMPDEST POP CALLVALUE PUSH2 0x1AE JUMPI PUSH1 0x20 CALLDATASIZE PUSH1 0x3 NOT ADD SLT PUSH2 0x1AE JUMPI PUSH1 0x4 CALLDATALOAD PUSH2 0xCD0 PUSH2 0x1803 JUMP JUMPDEST PUSH2 0x3E8 DUP2 GT PUSH2 0xD0B JUMPI PUSH1 0x20 DUP2 PUSH32 0x8C4D35E54A3F2EF1134138FD8EA3DAEE6A3C89E10D2665996BABDF70261E2C76 SWAP3 PUSH1 0x9 SSTORE PUSH1 0x40 MLOAD SWAP1 DUP2 MSTORE LOG1 DUP1 RETURN JUMPDEST PUSH1 0x40 MLOAD PUSH3 0x461BCD PUSH1 0xE5 SHL DUP2 MSTORE PUSH1 0x20 PUSH1 0x4 DUP3 ADD MSTORE PUSH1 0x15 PUSH1 0x24 DUP3 ADD MSTORE PUSH21 0x4665652063616E6E6F742065786365656420313025 PUSH1 0x58 SHL PUSH1 0x44 DUP3 ADD MSTORE PUSH1 0x64 SWAP1 REVERT JUMPDEST POP CALLVALUE PUSH2 0x1AE JUMPI PUSH1 0x20 CALLDATASIZE PUSH1 0x3 NOT ADD SLT PUSH2 0x1AE JUMPI PUSH1 0x40 PUSH1 0x20 SWAP2 PUSH1 0x4 CALLDATALOAD DUP2 MSTORE PUSH1 0xE DUP4 MSTORE KECCAK256 SLOAD PUSH1 0x40 MLOAD SWAP1 DUP2 MSTORE RETURN JUMPDEST POP CALLVALUE PUSH2 0x1AE JUMPI DUP1 PUSH1 0x3 NOT CALLDATASIZE ADD SLT PUSH2 0x1AE JUMPI PUSH1 0xFF PUSH1 0x20 SWAP2 SLOAD PUSH1 0xA0 SHR AND PUSH1 0x40 MLOAD SWAP1 ISZERO ISZERO DUP2 MSTORE RETURN JUMPDEST POP CALLVALUE PUSH2 0x1AE JUMPI DUP1 PUSH1 0x3 NOT CALLDATASIZE ADD SLT PUSH2 0x1AE JUMPI PUSH2 0xDB0 PUSH2 0x182C JUMP JUMPDEST PUSH2 0xDB8 PUSH2 0x184E JUMP JUMPDEST PUSH1 0xFF PUSH1 0xC SLOAD AND PUSH2 0xEB7 JUMPI PUSH1 0x15 SLOAD DUP1 PUSH2 0xE2A JUMPI POP PUSH2 0xDD8 PUSH1 0x7 SLOAD TIMESTAMP GT PUSH2 0x173F JUMP JUMPDEST PUSH1 0xB SLOAD PUSH1 0x6 SLOAD GT ISZERO PUSH2 0xE1D JUMPI JUMPDEST PUSH1 0x1 PUSH1 0xFF NOT PUSH1 0xC SLOAD AND OR PUSH1 0xC SSTORE PUSH32 0x6823B073D48D6E3A7D385EEB601452D680E74BB46AFE3255A7D778F3A9B17681 DUP2 DUP1 LOG1 PUSH1 0x1 DUP1 SSTORE DUP1 RETURN JUMPDEST PUSH2 0xE25 PUSH2 0x186E JUMP JUMPDEST PUSH2 0xDE5 JUMP JUMPDEST PUSH1 0x1 DUP2 SUB PUSH2 0xEA3 JUMPI POP DUP1 SLOAD PUSH1 0x1 PUSH1 0x1 PUSH1 0xA0 SHL SUB AND CALLER SUB PUSH2 0xE4C JUMPI PUSH2 0xE25 PUSH2 0x186E JUMP JUMPDEST PUSH1 0x40 MLOAD PUSH3 0x461BCD PUSH1 0xE5 SHL DUP2 MSTORE PUSH1 0x20 PUSH1 0x4 DUP3 ADD MSTORE PUSH1 0x29 PUSH1 0x24 DUP3 ADD MSTORE PUSH32 0x4F6E6C79206F776E65722063616E2066696E616C697A65206C696D69746C6573 PUSH1 0x44 DUP3 ADD MSTORE PUSH9 0x732066756E64696E67 PUSH1 0xB8 SHL PUSH1 0x64 DUP3 ADD MSTORE PUSH1 0x84 SWAP1 REVERT JUMPDEST PUSH1 0x2 SUB PUSH2 0xDE5 JUMPI PUSH2 0xE1D PUSH1 0x7 SLOAD TIMESTAMP GT PUSH2 0x173F JUMP JUMPDEST PUSH1 0x40 MLOAD PUSH3 0x461BCD PUSH1 0xE5 SHL DUP2 MSTORE PUSH1 0x20 PUSH1 0x4 DUP3 ADD MSTORE PUSH1 0x11 PUSH1 0x24 DUP3 ADD MSTORE PUSH17 0x105B1C9958591E48199A5B985B1A5E9959 PUSH1 0x7A SHL PUSH1 0x44 DUP3 ADD MSTORE PUSH1 0x64 SWAP1 REVERT JUMPDEST POP CALLVALUE PUSH2 0x1AE JUMPI PUSH2 0xEFF CALLDATASIZE PUSH2 0x15A5 JUMP JUMPDEST POP POP PUSH1 0xFF PUSH1 0xC SLOAD AND ISZERO DUP1 PUSH2 0xFF1 JUMPI JUMPDEST PUSH2 0xF15 JUMPI DUP1 RETURN JUMPDEST PUSH2 0xF1D PUSH2 0x182C JUMP JUMPDEST PUSH2 0xF25 PUSH2 0x184E JUMP JUMPDEST PUSH1 0xFF PUSH1 0xC SLOAD AND PUSH2 0xEB7 JUMPI PUSH1 0x15 SLOAD DUP1 PUSH2 0xFBB JUMPI POP PUSH2 0xF45 PUSH1 0x7 SLOAD TIMESTAMP GT PUSH2 0x173F JUMP JUMPDEST PUSH1 0xB SLOAD PUSH1 0x6 SLOAD GT ISZERO PUSH2 0xFAE JUMPI JUMPDEST PUSH1 0x1 PUSH1 0xFF NOT PUSH1 0xC SLOAD AND OR PUSH1 0xC SSTORE PUSH32 0x6823B073D48D6E3A7D385EEB601452D680E74BB46AFE3255A7D778F3A9B17681 DUP2 DUP1 LOG1 PUSH1 0x1 DUP1 SSTORE PUSH32 0x966A2CF4DA2FE388FB461E726E2765451662471D3E61FB50C4191DD71434CB58 DUP2 DUP1 LOG1 DUP1 RETURN JUMPDEST PUSH2 0xFB6 PUSH2 0x186E JUMP JUMPDEST PUSH2 0xF52 JUMP JUMPDEST PUSH1 0x1 DUP2 SUB PUSH2 0xFDD JUMPI POP DUP1 SLOAD PUSH1 0x1 PUSH1 0x1 PUSH1 0xA0 SHL SUB AND CALLER SUB PUSH2 0xE4C JUMPI PUSH2 0xFB6 PUSH2 0x186E JUMP JUMPDEST PUSH1 0x2 SUB PUSH2 0xF52 JUMPI PUSH2 0xFAE PUSH1 0x7 SLOAD TIMESTAMP GT PUSH2 0x173F JUMP JUMPDEST POP PUSH1 0x7 SLOAD TIMESTAMP GT PUSH2 0xF0E JUMP JUMPDEST POP CALLVALUE PUSH2 0x1AE JUMPI PUSH32 0xB751835A12376750BD69B4B4C0C1D306480284514D2FA88F72EDF3EEEA8515F6 PUSH1 0x40 PUSH2 0x102E CALLDATASIZE PUSH2 0x15F6 JUMP JUMPDEST PUSH2 0x1036 PUSH2 0x1803 JUMP JUMPDEST DUP2 DUP6 MSTORE PUSH1 0xF PUSH1 0x20 MSTORE DUP1 DUP4 DUP7 KECCAK256 SSTORE DUP3 MLOAD SWAP2 DUP3 MSTORE PUSH1 0x20 DUP3 ADD MSTORE LOG1 DUP1 RETURN JUMPDEST POP CALLVALUE PUSH2 0x1AE JUMPI PUSH1 0x20 CALLDATASIZE PUSH1 0x3 NOT ADD SLT PUSH2 0x1AE JUMPI PUSH1 0x4 CALLDATALOAD PUSH2 0x106E PUSH2 0x1803 JUMP JUMPDEST PUSH2 0x107D PUSH1 0xFF PUSH1 0xC SLOAD AND ISZERO PUSH2 0x16F3 JUMP JUMPDEST PUSH1 0x1 PUSH1 0x15 SLOAD EQ PUSH2 0x10DA JUMPI TIMESTAMP DUP2 GT ISZERO PUSH2 0x1095 JUMPI PUSH1 0x7 SSTORE DUP1 RETURN JUMPDEST PUSH1 0x40 MLOAD PUSH3 0x461BCD PUSH1 0xE5 SHL DUP2 MSTORE PUSH1 0x20 PUSH1 0x4 DUP3 ADD MSTORE PUSH1 0x1E PUSH1 0x24 DUP3 ADD MSTORE PUSH32 0x446561646C696E65206D75737420626520696E20746865206675747572650000 PUSH1 0x44 DUP3 ADD MSTORE PUSH1 0x64 SWAP1 REVERT JUMPDEST PUSH1 0x40 MLOAD PUSH3 0x461BCD PUSH1 0xE5 SHL DUP2 MSTORE PUSH1 0x20 PUSH1 0x4 DUP3 ADD MSTORE PUSH1 0x2E PUSH1 0x24 DUP3 ADD MSTORE PUSH32 0x4C696D69746C6573732066756E64696E6720646F65736E277420737570706F72 PUSH1 0x44 DUP3 ADD MSTORE PUSH14 0x3A103334B730B634BD30BA34B7B7 PUSH1 0x91 SHL PUSH1 0x64 DUP3 ADD MSTORE PUSH1 0x84 SWAP1 REVERT JUMPDEST POP CALLVALUE PUSH2 0x1AE JUMPI PUSH2 0x1145 CALLDATASIZE PUSH2 0x15A5 JUMP JUMPDEST SWAP1 PUSH2 0x114E PUSH2 0x1803 JUMP JUMPDEST PUSH1 0x12 SLOAD PUSH1 0x10 SLOAD PUSH1 0x40 MLOAD PUSH4 0x95EA7B3 PUSH1 0xE0 SHL DUP2 MSTORE PUSH1 0x1 PUSH1 0x1 PUSH1 0xA0 SHL SUB SWAP2 DUP3 AND PUSH1 0x4 DUP3 ADD MSTORE PUSH8 0xDE0B6B3A7640000 PUSH1 0x24 DUP3 ADD MSTORE SWAP2 PUSH1 0x20 SWAP2 DUP4 SWAP2 PUSH1 0x44 SWAP2 DUP4 SWAP2 DUP10 SWAP2 AND GAS CALL SWAP1 DUP2 ISZERO PUSH2 0x751 JUMPI DUP5 SWAP2 PUSH2 0x1421 JUMPI JUMPDEST POP ISZERO PUSH2 0x13E5 JUMPI DUP3 SWAP2 DUP3 SWAP2 DUP3 PUSH1 0x1 DUP1 PUSH1 0xA0 SHL SUB PUSH1 0x10 SLOAD AND SWAP3 PUSH2 0x11F1 PUSH1 0x24 PUSH4 0xFFFFFFFF PUSH1 0xE0 SHL PUSH1 0x12 SLOAD PUSH1 0x40 SHL AND SWAP5 DUP4 PUSH1 0x40 MLOAD SWAP5 DUP6 SWAP3 PUSH1 0x20 DUP5 ADD SWAP9 DUP10 MSTORE DUP5 DUP5 ADD CALLDATACOPY DUP2 ADD DUP6 DUP4 DUP3 ADD MSTORE SUB ADD PUSH1 0x1F NOT DUP2 ADD DUP4 MSTORE DUP3 PUSH2 0x1663 JUMP JUMPDEST MLOAD SWAP3 GAS CALL PUSH2 0x11FD PUSH2 0x16B3 JUMP JUMPDEST SWAP1 ISZERO PUSH2 0x1322 JUMPI JUMPDEST PUSH1 0x20 DUP2 MLOAD SWAP2 DUP2 DUP1 DUP3 ADD SWAP4 DUP5 SWAP3 ADD ADD SUB SLT PUSH2 0x131E JUMPI MLOAD PUSH1 0x13 DUP2 SWAP1 SSTORE PUSH1 0x12 DUP1 SLOAD PUSH1 0xFF PUSH1 0xC0 SHL NOT AND PUSH1 0x1 PUSH1 0xC0 SHL OR SWAP1 SSTORE PUSH1 0x40 MLOAD DUP2 DUP2 MSTORE PUSH32 0xDD37D6770A1595DDC0378E5E9E41EF525B6BD7F43B2C0E14582E99EE0373DF8B SWAP1 PUSH1 0x20 SWAP1 LOG1 PUSH1 0x11 SLOAD PUSH1 0x1 PUSH1 0x1 PUSH1 0xA0 SHL SUB AND DUP1 PUSH2 0x127A JUMPI JUMPDEST PUSH1 0x20 DUP3 PUSH1 0x40 MLOAD SWAP1 DUP2 MSTORE RETURN JUMPDEST DUP3 DUP1 SWAP2 PUSH1 0x40 MLOAD PUSH1 0x20 DUP2 ADD SWAP1 PUSH4 0x79EA9943 PUSH1 0xE0 SHL DUP3 MSTORE DUP6 PUSH1 0x24 DUP3 ADD MSTORE PUSH1 0x24 DUP2 MSTORE PUSH2 0x12A4 PUSH1 0x44 DUP3 PUSH2 0x1663 JUMP JUMPDEST MLOAD SWAP2 GAS STATICCALL PUSH2 0x12B0 PUSH2 0x16B3 JUMP JUMPDEST SWAP1 ISZERO PUSH2 0x126F JUMPI PUSH1 0x20 DUP2 DUP1 MLOAD DUP2 ADD SUB SLT PUSH2 0x423 JUMPI PUSH1 0x20 ADD MLOAD PUSH1 0x1 PUSH1 0x1 PUSH1 0xA0 SHL SUB DUP2 AND SWAP1 DUP2 SWAP1 SUB PUSH2 0x423 JUMPI PUSH32 0x9ECFD97BF22760E90779A4364F3646D6CBB7E6207B75280C803CA569A34234A0 PUSH1 0x20 SWAP4 DUP3 PUSH12 0xFFFFFFFFFFFFFFFFFFFFFFFF PUSH1 0xA0 SHL PUSH1 0x14 SLOAD AND OR PUSH1 0x14 SSTORE DUP1 LOG2 CODESIZE PUSH2 0x126F JUMP JUMPDEST POP DUP1 REVERT JUMPDEST PUSH32 0x3C5AD147104E56BE34A9176A6692F7DF8D2F4B29A5AF06BC6B98970D329D6577 PUSH1 0x80 DUP3 MLOAD PUSH1 0x40 MLOAD SWAP1 PUSH1 0x40 DUP3 MSTORE PUSH1 0x13 PUSH1 0x40 DUP4 ADD MSTORE PUSH19 0x149959DA5CDD1C985D1A5BDB8819985A5B1959 PUSH1 0x6A SHL PUSH1 0x60 DUP4 ADD MSTORE PUSH1 0x20 DUP3 ADD MSTORE LOG1 DUP1 MLOAD ISZERO PUSH2 0x1204 JUMPI PUSH32 0xD54BA61ED4070561DCC6D272CDD44F051344B2C11B31180228F79DCB0003CF83 PUSH1 0x40 MLOAD PUSH1 0x40 DUP2 MSTORE PUSH1 0x11 PUSH1 0x40 DUP3 ADD MSTORE PUSH17 0x526567697374726174696F6E2064617461 PUSH1 0x78 SHL PUSH1 0x60 DUP3 ADD MSTORE PUSH1 0x80 PUSH1 0x20 DUP3 ADD MSTORE DUP1 PUSH2 0x13DD PUSH1 0x80 DUP3 ADD DUP6 PUSH2 0x160C JUMP JUMPDEST SUB SWAP1 LOG1 PUSH2 0x1204 JUMP JUMPDEST PUSH1 0x40 MLOAD PUSH3 0x461BCD PUSH1 0xE5 SHL DUP2 MSTORE PUSH1 0x20 PUSH1 0x4 DUP3 ADD MSTORE PUSH1 0x14 PUSH1 0x24 DUP3 ADD MSTORE PUSH20 0x13125392C8185C1C1C9BDD985B0819985A5B1959 PUSH1 0x62 SHL PUSH1 0x44 DUP3 ADD MSTORE PUSH1 0x64 SWAP1 REVERT JUMPDEST PUSH2 0x143A SWAP2 POP PUSH1 0x20 RETURNDATASIZE PUSH1 0x20 GT PUSH2 0x4E1 JUMPI PUSH2 0x4D3 DUP2 DUP4 PUSH2 0x1663 JUMP JUMPDEST CODESIZE PUSH2 0x119D JUMP JUMPDEST POP CALLVALUE PUSH2 0x1AE JUMPI DUP1 PUSH1 0x3 NOT CALLDATASIZE ADD SLT PUSH2 0x1AE JUMPI PUSH1 0x20 PUSH1 0x6 SLOAD PUSH1 0x40 MLOAD SWAP1 DUP2 MSTORE RETURN JUMPDEST POP CALLVALUE PUSH2 0x1AE JUMPI DUP1 PUSH1 0x3 NOT CALLDATASIZE ADD SLT PUSH2 0x1AE JUMPI PUSH2 0x1477 PUSH2 0x1803 JUMP JUMPDEST DUP1 SLOAD PUSH1 0xFF DUP2 PUSH1 0xA0 SHR AND ISZERO PUSH2 0x14BD JUMPI PUSH1 0xFF PUSH1 0xA0 SHL NOT AND DUP2 SSTORE PUSH1 0x40 MLOAD CALLER DUP2 MSTORE PUSH32 0x5DB9EE0A495BF2E6FF9C91A7834C1BA4FDD244A5E8AA4E537BD38AEAE4B073AA SWAP1 PUSH1 0x20 SWAP1 LOG1 DUP1 RETURN JUMPDEST PUSH4 0x8DFC202B PUSH1 0xE0 SHL DUP3 MSTORE PUSH1 0x4 DUP3 REVERT JUMPDEST POP CALLVALUE PUSH2 0x1AE JUMPI DUP1 PUSH1 0x3 NOT CALLDATASIZE ADD SLT PUSH2 0x1AE JUMPI PUSH1 0x2 SLOAD PUSH1 0x40 MLOAD PUSH1 0x1 PUSH1 0x1 PUSH1 0xA0 SHL SUB SWAP1 SWAP2 AND DUP2 MSTORE PUSH1 0x20 SWAP1 RETURN JUMPDEST POP CALLVALUE PUSH2 0x1AE JUMPI PUSH1 0x20 CALLDATASIZE PUSH1 0x3 NOT ADD SLT PUSH2 0x1AE JUMPI PUSH1 0x40 PUSH1 0x20 SWAP2 PUSH1 0x4 CALLDATALOAD DUP2 MSTORE PUSH1 0xF DUP4 MSTORE KECCAK256 SLOAD PUSH1 0x40 MLOAD SWAP1 DUP2 MSTORE RETURN JUMPDEST POP CALLVALUE PUSH2 0x1AE JUMPI DUP1 PUSH1 0x3 NOT CALLDATASIZE ADD SLT PUSH2 0x1AE JUMPI PUSH1 0x20 PUSH1 0x7 SLOAD PUSH1 0x40 MLOAD SWAP1 DUP2 MSTORE RETURN JUMPDEST POP CALLVALUE PUSH2 0x1AE JUMPI DUP1 PUSH1 0x3 NOT CALLDATASIZE ADD SLT PUSH2 0x1AE JUMPI PUSH1 0x20 PUSH1 0xFF PUSH1 0x8 SLOAD AND PUSH1 0x40 MLOAD SWAP1 ISZERO ISZERO DUP2 MSTORE RETURN JUMPDEST POP CALLVALUE PUSH2 0x1AE JUMPI DUP1 PUSH1 0x3 NOT CALLDATASIZE ADD SLT PUSH2 0x1AE JUMPI PUSH1 0x3 SLOAD PUSH1 0x40 MLOAD PUSH1 0x1 PUSH1 0x1 PUSH1 0xA0 SHL SUB SWAP1 SWAP2 AND DUP2 MSTORE PUSH1 0x20 SWAP1 RETURN JUMPDEST SWAP1 POP CALLVALUE PUSH2 0x131E JUMPI DUP2 PUSH1 0x3 NOT CALLDATASIZE ADD SLT PUSH2 0x131E JUMPI PUSH1 0x20 SWAP1 PUSH1 0x13 SLOAD DUP2 MSTORE RETURN JUMPDEST SWAP1 PUSH1 0x20 PUSH1 0x3 NOT DUP4 ADD SLT PUSH2 0x7C2 JUMPI PUSH1 0x4 CALLDATALOAD PUSH8 0xFFFFFFFFFFFFFFFF DUP2 GT PUSH2 0x7C2 JUMPI DUP3 PUSH1 0x23 DUP3 ADD SLT ISZERO PUSH2 0x7C2 JUMPI DUP1 PUSH1 0x4 ADD CALLDATALOAD SWAP3 PUSH8 0xFFFFFFFFFFFFFFFF DUP5 GT PUSH2 0x7C2 JUMPI PUSH1 0x24 DUP5 DUP4 ADD ADD GT PUSH2 0x7C2 JUMPI PUSH1 0x24 ADD SWAP2 SWAP1 JUMP JUMPDEST PUSH1 0x40 SWAP1 PUSH1 0x3 NOT ADD SLT PUSH2 0x7C2 JUMPI PUSH1 0x4 CALLDATALOAD SWAP1 PUSH1 0x24 CALLDATALOAD SWAP1 JUMP JUMPDEST SWAP2 SWAP1 DUP3 MLOAD SWAP3 DUP4 DUP3 MSTORE PUSH1 0x0 JUMPDEST DUP5 DUP2 LT PUSH2 0x1638 JUMPI POP POP DUP3 PUSH1 0x0 PUSH1 0x20 DUP1 SWAP5 SWAP6 DUP5 ADD ADD MSTORE PUSH1 0x1F DUP1 NOT SWAP2 ADD AND ADD ADD SWAP1 JUMP JUMPDEST DUP1 PUSH1 0x20 DUP1 SWAP3 DUP5 ADD ADD MLOAD DUP3 DUP3 DUP7 ADD ADD MSTORE ADD PUSH2 0x1617 JUMP JUMPDEST PUSH1 0x4 CALLDATALOAD SWAP1 PUSH1 0x1 PUSH1 0x1 PUSH1 0xA0 SHL SUB DUP3 AND DUP3 SUB PUSH2 0x7C2 JUMPI JUMP JUMPDEST SWAP1 PUSH1 0x1F DUP1 NOT SWAP2 ADD AND DUP2 ADD SWAP1 DUP2 LT PUSH8 0xFFFFFFFFFFFFFFFF DUP3 GT OR PUSH2 0x1685 JUMPI PUSH1 0x40 MSTORE JUMP JUMPDEST PUSH4 0x4E487B71 PUSH1 0xE0 SHL PUSH1 0x0 MSTORE PUSH1 0x41 PUSH1 0x4 MSTORE PUSH1 0x24 PUSH1 0x0 REVERT JUMPDEST SWAP1 DUP2 PUSH1 0x20 SWAP2 SUB SLT PUSH2 0x7C2 JUMPI MLOAD DUP1 ISZERO ISZERO DUP2 SUB PUSH2 0x7C2 JUMPI SWAP1 JUMP JUMPDEST RETURNDATASIZE ISZERO PUSH2 0x16EE JUMPI RETURNDATASIZE SWAP1 PUSH8 0xFFFFFFFFFFFFFFFF DUP3 GT PUSH2 0x1685 JUMPI PUSH1 0x40 MLOAD SWAP2 PUSH2 0x16E2 PUSH1 0x1F DUP3 ADD PUSH1 0x1F NOT AND PUSH1 0x20 ADD DUP5 PUSH2 0x1663 JUMP JUMPDEST DUP3 MSTORE RETURNDATASIZE PUSH1 0x0 PUSH1 0x20 DUP5 ADD RETURNDATACOPY JUMP JUMPDEST PUSH1 0x60 SWAP1 JUMP JUMPDEST ISZERO PUSH2 0x16FA JUMPI JUMP JUMPDEST PUSH1 0x40 MLOAD PUSH3 0x461BCD PUSH1 0xE5 SHL DUP2 MSTORE PUSH1 0x20 PUSH1 0x4 DUP3 ADD MSTORE PUSH1 0x17 PUSH1 0x24 DUP3 ADD MSTORE PUSH32 0x46756E647261697365722069732066696E616C697A6564000000000000000000 PUSH1 0x44 DUP3 ADD MSTORE PUSH1 0x64 SWAP1 REVERT JUMPDEST ISZERO PUSH2 0x1746 JUMPI JUMP JUMPDEST PUSH1 0x40 MLOAD PUSH3 0x461BCD PUSH1 0xE5 SHL DUP2 MSTORE PUSH1 0x20 PUSH1 0x4 DUP3 ADD MSTORE PUSH1 0x14 PUSH1 0x24 DUP3 ADD MSTORE PUSH20 0x111958591B1A5B99481B9BDD081C995858DA1959 PUSH1 0x62 SHL PUSH1 0x44 DUP3 ADD MSTORE PUSH1 0x64 SWAP1 REVERT JUMPDEST DUP2 DUP2 MUL SWAP3 SWAP2 DUP2 ISZERO SWAP2 DUP5 DIV EQ OR ISZERO PUSH2 0x1795 JUMPI JUMP JUMPDEST PUSH4 0x4E487B71 PUSH1 0xE0 SHL PUSH1 0x0 MSTORE PUSH1 0x11 PUSH1 0x4 MSTORE PUSH1 0x24 PUSH1 0x0 REVERT JUMPDEST SWAP2 SWAP1 DUP3 SUB SWAP2 DUP3 GT PUSH2 0x1795 JUMPI JUMP JUMPDEST ISZERO PUSH2 0x17BF JUMPI JUMP JUMPDEST PUSH1 0x40 MLOAD PUSH3 0x461BCD PUSH1 0xE5 SHL DUP2 MSTORE PUSH1 0x20 PUSH1 0x4 DUP3 ADD MSTORE PUSH1 0xF PUSH1 0x24 DUP3 ADD MSTORE PUSH15 0x151C985B9CD9995C8819985A5B1959 PUSH1 0x8A SHL PUSH1 0x44 DUP3 ADD MSTORE PUSH1 0x64 SWAP1 REVERT JUMPDEST SWAP2 SWAP1 DUP3 ADD DUP1 SWAP3 GT PUSH2 0x1795 JUMPI JUMP JUMPDEST PUSH1 0x0 SLOAD PUSH1 0x1 PUSH1 0x1 PUSH1 0xA0 SHL SUB AND CALLER SUB PUSH2 0x1817 JUMPI JUMP JUMPDEST PUSH4 0x118CDAA7 PUSH1 0xE0 SHL PUSH1 0x0 MSTORE CALLER PUSH1 0x4 MSTORE PUSH1 0x24 PUSH1 0x0 REVERT JUMPDEST PUSH1 0x2 PUSH1 0x1 SLOAD EQ PUSH2 0x183D JUMPI PUSH1 0x2 PUSH1 0x1 SSTORE JUMP JUMPDEST PUSH4 0x3EE5AEB5 PUSH1 0xE0 SHL PUSH1 0x0 MSTORE PUSH1 0x4 PUSH1 0x0 REVERT JUMPDEST PUSH1 0xFF PUSH1 0x0 SLOAD PUSH1 0xA0 SHR AND PUSH2 0x185D JUMPI JUMP JUMPDEST PUSH4 0xD93C0665 PUSH1 0xE0 SHL PUSH1 0x0 MSTORE PUSH1 0x4 PUSH1 0x0 REVERT JUMPDEST PUSH1 0x2 SLOAD PUSH1 0x40 MLOAD PUSH4 0x70A08231 PUSH1 0xE0 SHL DUP2 MSTORE ADDRESS PUSH1 0x4 DUP3 ADD MSTORE SWAP1 PUSH1 0x1 PUSH1 0x1 PUSH1 0xA0 SHL SUB AND PUSH1 0x20 DUP3 PUSH1 0x24 DUP2 DUP5 GAS STATICCALL SWAP2 DUP3 ISZERO PUSH2 0x1939 JUMPI PUSH1 0x0 SWAP3 PUSH2 0x1980 JUMPI JUMPDEST POP DUP2 ISZERO PUSH2 0x1945 JUMPI PUSH1 0x4 DUP1 SLOAD PUSH1 0x40 MLOAD PUSH4 0xA9059CBB PUSH1 0xE0 SHL DUP2 MSTORE PUSH1 0x1 PUSH1 0x1 PUSH1 0xA0 SHL SUB SWAP1 SWAP2 AND SWAP2 DUP2 ADD SWAP2 SWAP1 SWAP2 MSTORE PUSH1 0x24 DUP2 ADD DUP4 SWAP1 MSTORE SWAP1 PUSH1 0x20 SWAP1 DUP3 SWAP1 PUSH1 0x44 SWAP1 DUP3 SWAP1 PUSH1 0x0 SWAP1 GAS CALL DUP1 ISZERO PUSH2 0x1939 JUMPI PUSH2 0x18FE SWAP2 PUSH1 0x0 SWAP2 PUSH2 0x4F3 JUMPI POP PUSH2 0x17B8 JUMP JUMPDEST PUSH1 0x4 SLOAD PUSH1 0x40 MLOAD SWAP2 DUP3 MSTORE PUSH1 0x1 PUSH1 0x1 PUSH1 0xA0 SHL SUB AND SWAP1 PUSH32 0x221C08A06B07A64803B3787861A3F276212FCCCB51C2E6234077A9B8CB13047A SWAP1 PUSH1 0x20 SWAP1 LOG2 JUMP JUMPDEST PUSH1 0x40 MLOAD RETURNDATASIZE PUSH1 0x0 DUP3 RETURNDATACOPY RETURNDATASIZE SWAP1 REVERT JUMPDEST PUSH1 0x40 MLOAD PUSH3 0x461BCD PUSH1 0xE5 SHL DUP2 MSTORE PUSH1 0x20 PUSH1 0x4 DUP3 ADD MSTORE PUSH1 0x13 PUSH1 0x24 DUP3 ADD MSTORE PUSH19 0x4E6F2066756E647320746F2072656C65617365 PUSH1 0x68 SHL PUSH1 0x44 DUP3 ADD MSTORE PUSH1 0x64 SWAP1 REVERT JUMPDEST SWAP1 SWAP2 PUSH1 0x20 DUP3 RETURNDATASIZE PUSH1 0x20 GT PUSH2 0x19AC JUMPI JUMPDEST DUP2 PUSH2 0x199B PUSH1 0x20 SWAP4 DUP4 PUSH2 0x1663 JUMP JUMPDEST DUP2 ADD SUB SLT PUSH2 0x1AE JUMPI POP MLOAD SWAP1 CODESIZE PUSH2 0x18A6 JUMP JUMPDEST RETURNDATASIZE SWAP2 POP PUSH2 0x198E JUMP INVALID LOG2 PUSH5 0x6970667358 0x22 SLT KECCAK256 0xB2 0xAA PUSH7 0xEF9AF532511DBB PUSH28 0x60A336A14B36ADB79D27C6D7F95506B03E77C1361364736F6C634300 ADDMOD SHL STOP CALLER "},"methodIdentifiers":{"beneficiaryWallet()":"c9788631","checkUpkeep(bytes)":"6e04ff0d","claimRefund(uint256,uint256)":"8527d58f","deadline()":"29dcb0cf","deposit(uint256,uint256)":"e2bbb158","deposits(address)":"fc7e286d","emergencyWithdraw(address,uint256)":"95ccea67","enforceConditions()":"2897f6a0","feePercentage()":"a001ecdd","feeWallet()":"f25f4b56","finalize()":"4bb278f3","finalized()":"b3f05b97","fundingType()":"fa8ab0ee","getStationUpkeepID()":"02f8baa1","initializeChainlink(bytes)":"4232d7f8","minimumTarget()":"42235da6","owner()":"8da5cb5b","pause()":"8456cb59","paused()":"5c975abb","performUpkeep(bytes)":"4585e33b","productPrices(uint256)":"38eb6a19","productToken()":"25b4f65f","renounceOwnership()":"715018a6","setProductPrice(uint256,uint256)":"44d3498a","tokenDeposits(uint256)":"66bff1db","totalRaised()":"c5c4744c","transferOwnership(address)":"f2fde38b","unpause()":"3f4ba83a","updateDeadline(uint256)":"42af1884","updateFeePercentage(uint256)":"6cad3fb0","usdc()":"3e413bee"}}}}}