{"contracts/USDCFundraiser.sol":{"USDCFundraiser":{"abi":[{"inputs":[{"internalType":"address","name":"_usdcAddress","type":"address"},{"internalType":"address","name":"_beneficiaryWallet","type":"address"},{"internalType":"address","name":"_feeWallet","type":"address"},{"internalType":"uint256","name":"_minimumTarget","type":"uint256"},{"internalType":"uint256","name":"_deadline","type":"uint256"},{"internalType":"bool","name":"_enforceConditions","type":"bool"},{"internalType":"address","name":"_productTokenAddress","type":"address"},{"internalType":"uint256[]","name":"_productIds","type":"uint256[]"},{"internalType":"uint256[]","name":"_productPrices","type":"uint256[]"},{"internalType":"address","name":"_linkToken","type":"address"},{"internalType":"address","name":"_chainlinkRegistrar","type":"address"},{"internalType":"address","name":"_chainlinkRegistry","type":"address"},{"internalType":"bytes4","name":"_chainlinkRegistrarSelector","type":"bytes4"}],"stateMutability":"nonpayable","type":"constructor"},{"inputs":[],"name":"EnforcedPause","type":"error"},{"inputs":[],"name":"ExpectedPause","type":"error"},{"inputs":[{"internalType":"address","name":"owner","type":"address"}],"name":"OwnableInvalidOwner","type":"error"},{"inputs":[{"internalType":"address","name":"account","type":"address"}],"name":"OwnableUnauthorizedAccount","type":"error"},{"inputs":[],"name":"ReentrancyGuardReentrantCall","type":"error"},{"anonymous":false,"inputs":[{"indexed":false,"internalType":"string","name":"message","type":"string"},{"indexed":false,"internalType":"uint256","name":"value","type":"uint256"}],"name":"Debug","type":"event"},{"anonymous":false,"inputs":[{"indexed":false,"internalType":"string","name":"message","type":"string"},{"indexed":false,"internalType":"bytes","name":"value","type":"bytes"}],"name":"DebugBytes","type":"event"},{"anonymous":false,"inputs":[{"indexed":true,"internalType":"address","name":"depositor","type":"address"},{"indexed":false,"internalType":"uint256","name":"amount","type":"uint256"},{"indexed":false,"internalType":"uint256","name":"fee","type":"uint256"}],"name":"Deposit","type":"event"},{"anonymous":false,"inputs":[{"indexed":true,"internalType":"address","name":"to","type":"address"},{"indexed":false,"internalType":"uint256","name":"amount","type":"uint256"}],"name":"EmergencyWithdraw","type":"event"},{"anonymous":false,"inputs":[{"indexed":false,"internalType":"uint256","name":"newFeePercentage","type":"uint256"}],"name":"FeeUpdated","type":"event"},{"anonymous":false,"inputs":[{"indexed":true,"internalType":"address","name":"forwarder","type":"address"}],"name":"ForwarderChanged","type":"event"},{"anonymous":false,"inputs":[{"indexed":true,"internalType":"address","name":"beneficiary","type":"address"},{"indexed":false,"internalType":"uint256","name":"amount","type":"uint256"}],"name":"FundsReleased","type":"event"},{"anonymous":false,"inputs":[{"indexed":true,"internalType":"address","name":"previousOwner","type":"address"},{"indexed":true,"internalType":"address","name":"newOwner","type":"address"}],"name":"OwnershipTransferred","type":"event"},{"anonymous":false,"inputs":[{"indexed":false,"internalType":"address","name":"account","type":"address"}],"name":"Paused","type":"event"},{"anonymous":false,"inputs":[{"indexed":false,"internalType":"uint256","name":"productId","type":"uint256"},{"indexed":false,"internalType":"uint256","name":"price","type":"uint256"}],"name":"ProductPriceSet","type":"event"},{"anonymous":false,"inputs":[{"indexed":true,"internalType":"address","name":"depositor","type":"address"},{"indexed":false,"internalType":"uint256","name":"amount","type":"uint256"}],"name":"Refund","type":"event"},{"anonymous":false,"inputs":[{"indexed":false,"internalType":"address","name":"account","type":"address"}],"name":"Unpaused","type":"event"},{"anonymous":false,"inputs":[],"name":"UpkeepPerformed","type":"event"},{"inputs":[],"name":"beneficiaryWallet","outputs":[{"internalType":"address","name":"","type":"address"}],"stateMutability":"view","type":"function"},{"inputs":[{"internalType":"bytes","name":"","type":"bytes"}],"name":"checkUpkeep","outputs":[{"internalType":"bool","name":"upkeepNeeded","type":"bool"},{"internalType":"bytes","name":"","type":"bytes"}],"stateMutability":"view","type":"function"},{"inputs":[{"internalType":"uint256","name":"productId","type":"uint256"}],"name":"claimRefund","outputs":[],"stateMutability":"nonpayable","type":"function"},{"inputs":[],"name":"deadline","outputs":[{"internalType":"uint256","name":"","type":"uint256"}],"stateMutability":"view","type":"function"},{"inputs":[{"internalType":"uint256","name":"productId","type":"uint256"},{"internalType":"uint256","name":"quantity","type":"uint256"}],"name":"deposit","outputs":[],"stateMutability":"nonpayable","type":"function"},{"inputs":[{"internalType":"address","name":"","type":"address"}],"name":"deposits","outputs":[{"internalType":"uint256","name":"","type":"uint256"}],"stateMutability":"view","type":"function"},{"inputs":[{"internalType":"address","name":"to","type":"address"},{"internalType":"uint256","name":"amount","type":"uint256"}],"name":"emergencyWithdraw","outputs":[],"stateMutability":"nonpayable","type":"function"},{"inputs":[],"name":"enforceConditions","outputs":[{"internalType":"bool","name":"","type":"bool"}],"stateMutability":"view","type":"function"},{"inputs":[],"name":"feePercentage","outputs":[{"internalType":"uint256","name":"","type":"uint256"}],"stateMutability":"view","type":"function"},{"inputs":[],"name":"feeWallet","outputs":[{"internalType":"address","name":"","type":"address"}],"stateMutability":"view","type":"function"},{"inputs":[],"name":"finalize","outputs":[],"stateMutability":"nonpayable","type":"function"},{"inputs":[],"name":"finalized","outputs":[{"internalType":"bool","name":"","type":"bool"}],"stateMutability":"view","type":"function"},{"inputs":[],"name":"getStationUpkeepID","outputs":[{"internalType":"uint256","name":"","type":"uint256"}],"stateMutability":"view","type":"function"},{"inputs":[{"internalType":"bytes","name":"registrationParams","type":"bytes"}],"name":"initializeChainlink","outputs":[{"internalType":"uint256","name":"stationUpkeepID","type":"uint256"}],"stateMutability":"nonpayable","type":"function"},{"inputs":[],"name":"minimumTarget","outputs":[{"internalType":"uint256","name":"","type":"uint256"}],"stateMutability":"view","type":"function"},{"inputs":[],"name":"owner","outputs":[{"internalType":"address","name":"","type":"address"}],"stateMutability":"view","type":"function"},{"inputs":[],"name":"pause","outputs":[],"stateMutability":"nonpayable","type":"function"},{"inputs":[],"name":"paused","outputs":[{"internalType":"bool","name":"","type":"bool"}],"stateMutability":"view","type":"function"},{"inputs":[{"internalType":"bytes","name":"","type":"bytes"}],"name":"performUpkeep","outputs":[],"stateMutability":"nonpayable","type":"function"},{"inputs":[{"internalType":"uint256","name":"","type":"uint256"}],"name":"productPrices","outputs":[{"internalType":"uint256","name":"","type":"uint256"}],"stateMutability":"view","type":"function"},{"inputs":[],"name":"productToken","outputs":[{"internalType":"contract ProductToken","name":"","type":"address"}],"stateMutability":"view","type":"function"},{"inputs":[],"name":"renounceOwnership","outputs":[],"stateMutability":"nonpayable","type":"function"},{"inputs":[{"internalType":"uint256","name":"productId","type":"uint256"},{"internalType":"uint256","name":"price","type":"uint256"}],"name":"setProductPrice","outputs":[],"stateMutability":"nonpayable","type":"function"},{"inputs":[{"internalType":"uint256","name":"","type":"uint256"}],"name":"tokenDeposits","outputs":[{"internalType":"uint256","name":"","type":"uint256"}],"stateMutability":"view","type":"function"},{"inputs":[],"name":"totalRaised","outputs":[{"internalType":"uint256","name":"","type":"uint256"}],"stateMutability":"view","type":"function"},{"inputs":[{"internalType":"address","name":"newOwner","type":"address"}],"name":"transferOwnership","outputs":[],"stateMutability":"nonpayable","type":"function"},{"inputs":[],"name":"unpause","outputs":[],"stateMutability":"nonpayable","type":"function"},{"inputs":[{"internalType":"uint256","name":"newDeadline","type":"uint256"}],"name":"updateDeadline","outputs":[],"stateMutability":"nonpayable","type":"function"},{"inputs":[{"internalType":"uint256","name":"newFeePercentage","type":"uint256"}],"name":"updateFeePercentage","outputs":[],"stateMutability":"nonpayable","type":"function"},{"inputs":[],"name":"usdc","outputs":[{"internalType":"contract IERC20","name":"","type":"address"}],"stateMutability":"view","type":"function"}],"evm":{"bytecode":{"linkReferences":{},"object":"60806040523461048757611f3a803803806100198161048c565b9283398101906101a08183031261048757610033816104c7565b61003f602083016104c7565b9061004c604084016104c7565b606084015192608085015160a08601518015158091036104875761007260c088016104c7565b60e08801519092906001600160401b0381116104875789610094918a016104db565b61010089015190996001600160401b038211610487576100b5918a016104db565b966100c36101208a016104c7565b966100d16101408b016104c7565b966101806100e26101608d016104c7565b9b0151966001600160e01b0319881688036104875733156104715760008054604051949133906001600160a01b038316907f8be0079c531659141344cd1fd0a4f28419497f9722a3daafe3b4186f6b6457e09080a36001600160a81b0319163360ff60a01b191617600055600180556001600160a01b031692831561042f57506001600160a01b03169081156103ea576001600160a01b03169182156103b0578c518b510361036b578c51156103265760018060a01b0319600254161760025560018060a01b0319600454161760045560018060a01b0319600554161760055560065560075560ff80196008541691161760085560fa60095560018060a01b031660018060a01b0319600354161760035560005b86518110156102c557610209818661053d565b5115610280578061021c6001928761053d565b51610227828a61053d565b51600052600f6020526040600020557fb751835a12376750bd69b4b4c0c1d306480284514d2fa88f72edf3eeea8515f66040610263838b61053d565b5161026e848a61053d565b5182519182526020820152a1016101f6565b60405162461bcd60e51b815260206004820152601560248201527f496e76616c69642070726f6475637420707269636500000000000000000000006044820152606490fd5b5060128054601080546001600160a01b03199081166001600160a01b0396871617909155601180549091168589161790556001600160c01b0319169390921692909217604092831c63ffffffff60a01b16179055516119d290816105688239f35b60405162461bcd60e51b815260206004820152601460248201527f4e6f2070726f64756374732070726f76696465640000000000000000000000006044820152606490fd5b60405162461bcd60e51b815260206004820152601660248201527f417272617973206c656e677468206d69736d61746368000000000000000000006044820152606490fd5b60405162461bcd60e51b8152602060048201526012602482015271125b9d985b1a5908199959481dd85b1b195d60721b6044820152606490fd5b60405162461bcd60e51b815260206004820152601a60248201527f496e76616c69642062656e65666963696172792077616c6c65740000000000006044820152606490fd5b62461bcd60e51b815260206004820152601460248201527f496e76616c6964205553444320616464726573730000000000000000000000006044820152606490fd5b631e4fbdf760e01b600052600060045260246000fd5b600080fd5b6040519190601f01601f191682016001600160401b038111838210176104b157604052565b634e487b7160e01b600052604160045260246000fd5b51906001600160a01b038216820361048757565b9080601f83011215610487578151916001600160401b0383116104b1578260051b9060208061050b81850161048c565b80968152019282010192831161048757602001905b82821061052d5750505090565b8151815260209182019101610520565b80518210156105515760209160051b010190565b634e487b7160e01b600052603260045260246000fdfe608080604052600436101561001357600080fd5b600090813560e01c90816302f8baa1146116215750806325b4f65f146115f85780632897f6a0146115d557806329dcb0cf146115b757806338eb6a191461158d5780633e413bee146115645780633f4ba83a146114f657806342235da6146114d85780634232d7f8146111fe57806342af18841461117f57806344d3498a1461112a5780634585e33b14610ef05780634bb278f314610d445780635b7baf6414610a2e5780635c975abb14610a0957806366bff1db146109df5780636cad3fb01461094a5780636e04ff0d146108ee578063715018a6146108945780638456cb59146108335780638da5cb5b1461080c57806395ccea6714610646578063a001ecdd14610628578063b3f05b9714610605578063c5c4744c146105e7578063c9788631146105be578063e2bbb15814610255578063f25f4b561461022c578063f2fde38b146101a65763fc7e286d1461016b57600080fd5b346101a35760203660031901126101a3576020906040906001600160a01b036101926116e5565b168152600a83522054604051908152f35b80fd5b50346101a35760203660031901126101a3576101c06116e5565b6101c8611894565b6001600160a01b031680156102185781546001600160a01b03198116821783556001600160a01b03167f8be0079c531659141344cd1fd0a4f28419497f9722a3daafe3b4186f6b6457e08380a380f35b631e4fbdf760e01b82526004829052602482fd5b50346101a357806003193601126101a3576005546040516001600160a01b039091168152602090f35b50346101a3576102643661168e565b61026c6118bd565b6102746118df565b80156105795761028960ff600c54161561178b565b818352600f60205260408320541561053c5760ff600854166104f7575b818352600f6020526102bc8160408520546117d7565b916127106102cc600954856117d7565b0491846102d98486611800565b9181602060018060a01b03600254166064604051809481936323b872dd60e01b83523360048401523060248401528c60448401525af180156104ec576103269184916104cd575b50611849565b84610401575b6003546001600160a01b0316803b156103fd57604051630ab714fb60e11b815233600482015260248101869052604481019290925282908290606490829084905af180156103f2576103d9575b509161039e9252600e60205260408520610394828254611887565b9055600b54611887565b600b5560405191825260208201527f90890809c654f11d6e72a28fa60149770a0d11ec6c92319d6ceb2bb0a4ea1a1560403392a26001805580f35b816103e3916116fb565b6103ee578438610379565b8480fd5b6040513d84823e3d90fd5b8280fd5b60025460055460405163a9059cbb60e01b81526001600160a01b03918216600482015260248101889052929350602091839160449183918c91165af19081156104c2578791610493575b501561045857859061032c565b60405162461bcd60e51b8152602060048201526013602482015272119959481d1c985b9cd9995c8819985a5b1959606a1b6044820152606490fd5b6104b5915060203d6020116104bb575b6104ad81836116fb565b810190611733565b3861044b565b503d6104a3565b6040513d89823e3d90fd5b6104e6915060203d6020116104bb576104ad81836116fb565b38610320565b6040513d85823e3d90fd5b6007544211156102a65760405162461bcd60e51b8152602060048201526013602482015272111958591b1a5b99481a185cc81c185cdcd959606a1b6044820152606490fd5b60405162461bcd60e51b815260206004820152601560248201527450726f64756374206e6f7420617661696c61626c6560581b6044820152606490fd5b60405162461bcd60e51b815260206004820152601f60248201527f5175616e74697479206d7573742062652067726561746572207468616e2030006044820152606490fd5b50346101a357806003193601126101a3576004546040516001600160a01b039091168152602090f35b50346101a357806003193601126101a3576020600b54604051908152f35b50346101a357806003193601126101a357602060ff600c54166040519015158152f35b50346101a357806003193601126101a3576020600954604051908152f35b50346101a35760403660031901126101a3576106606116e5565b6024359061066c611894565b6001600160a01b0381169182156107d5576002546040516370a0823160e01b81523060048201526001600160a01b0390911690602081602481855afa9081156107ca578691610793575b5082116107575760405163a9059cbb60e01b81526001600160a01b03939093166004840152602483018290526020908390604490829088905af190811561074c5761072b6020927f5fafa99d0643513820be26656b45130b01e1c03062e1266bf36f88cbd3bd96959487916107355750611849565b604051908152a280f35b6104e69150843d86116104bb576104ad81836116fb565b6040513d86823e3d90fd5b60405162461bcd60e51b8152602060048201526014602482015273496e73756666696369656e742062616c616e636560601b6044820152606490fd5b90506020813d6020116107c2575b816107ae602093836116fb565b810103126107bd5751386106b6565b600080fd5b3d91506107a1565b6040513d88823e3d90fd5b60405162461bcd60e51b815260206004820152600f60248201526e496e76616c6964206164647265737360881b6044820152606490fd5b50346101a357806003193601126101a357546040516001600160a01b039091168152602090f35b50346101a357806003193601126101a35761084c611894565b6108546118df565b805460ff60a01b1916600160a01b1781556040513381527f62e78cea01bee320cd4e420270b5ea74000d11b0c9f74754ebdbfc544b05a25890602090a180f35b50346101a357806003193601126101a3576108ad611894565b80546001600160a01b03198116825581906001600160a01b03167f8be0079c531659141344cd1fd0a4f28419497f9722a3daafe3b4186f6b6457e08280a380f35b50346101a3576108fd3661163d565b505060ff600c5416158061093f575b6040519161091b6020846116fb565b825261093b604051928392151583526040602084015260408301906116a4565b0390f35b50600754421161090c565b50346101a35760203660031901126101a357600435610967611894565b6103e881116109a2576020817f8c4d35e54a3f2ef1134138fd8ea3daee6a3c89e10d2665996babdf70261e2c7692600955604051908152a180f35b60405162461bcd60e51b81526020600482015260156024820152744665652063616e6e6f74206578636565642031302560581b6044820152606490fd5b50346101a35760203660031901126101a35760406020916004358152600e83522054604051908152f35b50346101a357806003193601126101a35760ff6020915460a01c166040519015158152f35b50346101a35760203660031901126101a35760043560ff600c541615610d0f57600b546006541115610cd957600354604051627eeac760e11b815233600482015260248101839052906001600160a01b0316602082604481845afa91821561074c578492610ca5575b508115610c6a57602490838552600e6020526020610ab98460408820546117d7565b916040519384809263ef8593e760e01b82528860048301525afa918215610c5f578592610c2b575b508115610c1757908492910492808352600e602052610b04846040852054611800565b818452600e60205260408420556003546001600160a01b031691823b15610c1357604051637a94c56560e11b8152336004820152602481019290925260448201529082908290606490829084905af180156103f257610bfa575b505060025460405163a9059cbb60e01b815233600482015260248101839052906020908290604490829087906001600160a01b03165af180156104ec57610bac918491610bdb575b5061180d565b6040519081527fbb28353e4598c3b9199101a66e0989549b659a59a54d2c27fbb183f1932c8e6d60203392a280f35b610bf4915060203d6020116104bb576104ad81836116fb565b38610ba6565b81610c04916116fb565b610c0f578138610b5e565b5080fd5b8380fd5b634e487b7160e01b85526012600452602485fd5b9091506020813d602011610c57575b81610c47602093836116fb565b810103126107bd57519038610ae1565b3d9150610c3a565b6040513d87823e3d90fd5b60405162461bcd60e51b8152602060048201526013602482015272139bc81d1bdad95b9cc81d1bc81c99599d5b99606a1b6044820152606490fd5b9091506020813d602011610cd1575b81610cc1602093836116fb565b810103126107bd57519038610a97565b3d9150610cb4565b60405162461bcd60e51b815260206004820152600e60248201526d15185c99d95d081dd85cc81b595d60921b6044820152606490fd5b60405162461bcd60e51b815260206004820152600d60248201526c139bdd08199a5b985b1a5e9959609a1b6044820152606490fd5b50346101a357806003193601126101a357610d5d6118bd565b610d656118df565b60ff600c5416610eb75760085460ff1615610eaf57600754421115610e7357600b5460065411610dab57610d976118ff565b600160ff19600c541617600c556001805580f35b808052600a602052604081205415610e6e57808052600a6020818152604080842054848052928252808420849055600254905163a9059cbb60e01b815260006004820152602481018490528493909290918390604490829087906001600160a01b03165af19081156104ec57610e4b6020927fbb28353e4598c3b9199101a66e0989549b659a59a54d2c27fbb183f1932c8e6d948691610e57575061180d565b604051908152a2610dab565b610bf49150843d81116104bb576104ad81836116fb565b610d97565b60405162461bcd60e51b8152602060048201526014602482015273111958591b1a5b99481b9bdd081c995858da195960621b6044820152606490fd5b610e6e6118ff565b60405162461bcd60e51b8152602060048201526011602482015270105b1c9958591e48199a5b985b1a5e9959607a1b6044820152606490fd5b50346101a357610eff3661163d565b505060ff600c5416158061111f575b610f155780f35b610f1d6118bd565b610f256118df565b60ff600c5416610eb75760085460ff161561111757600754421115610e7357600b546006541161106957610f576118ff565b600160ff19600c541617600c55600180556040517f966a2cf4da2fe388fb461e726e2765451662471d3e61fb50c4191dd71434cb588280a1601454635ab1bd5360e01b8252602090829060049082906001600160a01b03165afa9081156103f2578291611027575b5060135482546001600160a01b039283169284929116833b156103fd576044839283604051968794859363744bfe6160e01b8552600485015260248401525af1801561101a5761100e57505080f35b611017916116fb565b80f35b50604051903d90823e3d90fd5b90506020813d602011611061575b81611042602093836116fb565b81010312610c0f57516001600160a01b0381168103610c0f5738610fbf565b3d9150611035565b808052600a60205260408120541561111257808052600a602052806040812054818052600a60205281604081205560018060a01b0360025416906020604051809363a9059cbb60e01b82528186816004810187876040830192858152015203925af19081156104ec576111066020927fbb28353e4598c3b9199101a66e0989549b659a59a54d2c27fbb183f1932c8e6d948691610e57575061180d565b604051908152a2611069565b610f57565b6111126118ff565b506007544211610f0e565b50346101a3577fb751835a12376750bd69b4b4c0c1d306480284514d2fa88f72edf3eeea8515f6604061115c3661168e565b611164611894565b818552600f602052808386205582519182526020820152a180f35b50346101a35760203660031901126101a35760043561119c611894565b6111ab60ff600c54161561178b565b428111156111b95760075580f35b60405162461bcd60e51b815260206004820152601e60248201527f446561646c696e65206d75737420626520696e207468652066757475726500006044820152606490fd5b50346101a35761120d3661163d565b90611216611894565b60125460105460405163095ea7b360e01b81526001600160a01b039182166004820152670de0b6b3a7640000602482015291602091839160449183918991165af190811561074c5784916114b9575b501561147d57829182918260018060a01b0360105416926112b9602463ffffffff60e01b60125460401b1694836040519485926020840198895284840137810185838201520301601f1981018352826116fb565b51925af16112c561174b565b90156113ba575b60208151918180820193849201010312610c0f575160138190556012805460ff60c01b1916600160c01b1790556011546001600160a01b031680611316575b602082604051908152f35b82809160405160208101906379ea994360e01b8252856024820152602481526113406044826116fb565b51915afa61134c61174b565b901561130b576020818051810103126103fd57602001516001600160a01b038116908190036103fd577f9ecfd97bf22760e90779a4364f3646d6cbb7e6207b75280c803ca569a34234a0602093826bffffffffffffffffffffffff60a01b601454161760145580a23861130b565b7f3c5ad147104e56be34a9176a6692f7df8d2f4b29a5af06bc6b98970d329d65776080825160405190604082526013604083015272149959da5cdd1c985d1a5bdb8819985a5b1959606a1b60608301526020820152a18051156112cc577fd54ba61ed4070561dcc6d272cdd44f051344b2c11b31180228f79dcb0003cf83604051604081526011604082015270526567697374726174696f6e206461746160781b6060820152608060208201528061147560808201856116a4565b0390a16112cc565b60405162461bcd60e51b815260206004820152601460248201527313125392c8185c1c1c9bdd985b0819985a5b195960621b6044820152606490fd5b6114d2915060203d6020116104bb576104ad81836116fb565b38611265565b50346101a357806003193601126101a3576020600654604051908152f35b50346101a357806003193601126101a35761150f611894565b805460ff8160a01c16156115555760ff60a01b191681556040513381527f5db9ee0a495bf2e6ff9c91a7834c1ba4fdd244a5e8aa4e537bd38aeae4b073aa90602090a180f35b638dfc202b60e01b8252600482fd5b50346101a357806003193601126101a3576002546040516001600160a01b039091168152602090f35b50346101a35760203660031901126101a35760406020916004358152600f83522054604051908152f35b50346101a357806003193601126101a3576020600754604051908152f35b50346101a357806003193601126101a357602060ff600854166040519015158152f35b50346101a357806003193601126101a3576003546040516001600160a01b039091168152602090f35b905034610c0f5781600319360112610c0f576020906013548152f35b9060206003198301126107bd5760043567ffffffffffffffff81116107bd57826023820112156107bd5780600401359267ffffffffffffffff84116107bd57602484830101116107bd576024019190565b60409060031901126107bd576004359060243590565b919082519283825260005b8481106116d0575050826000602080949584010152601f8019910116010190565b806020809284010151828286010152016116af565b600435906001600160a01b03821682036107bd57565b90601f8019910116810190811067ffffffffffffffff82111761171d57604052565b634e487b7160e01b600052604160045260246000fd5b908160209103126107bd575180151581036107bd5790565b3d15611786573d9067ffffffffffffffff821161171d576040519161177a601f8201601f1916602001846116fb565b82523d6000602084013e565b606090565b1561179257565b60405162461bcd60e51b815260206004820152601760248201527f46756e647261697365722069732066696e616c697a65640000000000000000006044820152606490fd5b818102929181159184041417156117ea57565b634e487b7160e01b600052601160045260246000fd5b919082039182116117ea57565b1561181457565b60405162461bcd60e51b815260206004820152600d60248201526c1499599d5b990819985a5b1959609a1b6044820152606490fd5b1561185057565b60405162461bcd60e51b815260206004820152600f60248201526e151c985b9cd9995c8819985a5b1959608a1b6044820152606490fd5b919082018092116117ea57565b6000546001600160a01b031633036118a857565b63118cdaa760e01b6000523360045260246000fd5b6002600154146118ce576002600155565b633ee5aeb560e01b60005260046000fd5b60ff60005460a01c166118ee57565b63d93c066560e01b60005260046000fd5b60025460048054600b5460405163a9059cbb60e01b81526001600160a01b03928316938101939093526024830152909160209183916044918391600091165af1801561199057611956916000916104cd5750611849565b60018060a01b03600454167f221c08a06b07a64803b3787861a3f276212fcccb51c2e6234077a9b8cb13047a6020600b54604051908152a2565b6040513d6000823e3d90fdfea26469706673582212203a4ca1504cb017f1a4fcd840cbb5ec31bff26ba9b4abd8e2cfbce85dc837607964736f6c634300081b0033","opcodes":"PUSH1 0x80 PUSH1 0x40 MSTORE CALLVALUE PUSH2 0x487 JUMPI PUSH2 0x1F3A DUP1 CODESIZE SUB DUP1 PUSH2 0x19 DUP2 PUSH2 0x48C JUMP JUMPDEST SWAP3 DUP4 CODECOPY DUP2 ADD SWAP1 PUSH2 0x1A0 DUP2 DUP4 SUB SLT PUSH2 0x487 JUMPI PUSH2 0x33 DUP2 PUSH2 0x4C7 JUMP JUMPDEST PUSH2 0x3F PUSH1 0x20 DUP4 ADD PUSH2 0x4C7 JUMP JUMPDEST SWAP1 PUSH2 0x4C PUSH1 0x40 DUP5 ADD PUSH2 0x4C7 JUMP JUMPDEST PUSH1 0x60 DUP5 ADD MLOAD SWAP3 PUSH1 0x80 DUP6 ADD MLOAD PUSH1 0xA0 DUP7 ADD MLOAD DUP1 ISZERO ISZERO DUP1 SWAP2 SUB PUSH2 0x487 JUMPI PUSH2 0x72 PUSH1 0xC0 DUP9 ADD PUSH2 0x4C7 JUMP JUMPDEST PUSH1 0xE0 DUP9 ADD MLOAD SWAP1 SWAP3 SWAP1 PUSH1 0x1 PUSH1 0x1 PUSH1 0x40 SHL SUB DUP2 GT PUSH2 0x487 JUMPI DUP10 PUSH2 0x94 SWAP2 DUP11 ADD PUSH2 0x4DB JUMP JUMPDEST PUSH2 0x100 DUP10 ADD MLOAD SWAP1 SWAP10 PUSH1 0x1 PUSH1 0x1 PUSH1 0x40 SHL SUB DUP3 GT PUSH2 0x487 JUMPI PUSH2 0xB5 SWAP2 DUP11 ADD PUSH2 0x4DB JUMP JUMPDEST SWAP7 PUSH2 0xC3 PUSH2 0x120 DUP11 ADD PUSH2 0x4C7 JUMP JUMPDEST SWAP7 PUSH2 0xD1 PUSH2 0x140 DUP12 ADD PUSH2 0x4C7 JUMP JUMPDEST SWAP7 PUSH2 0x180 PUSH2 0xE2 PUSH2 0x160 DUP14 ADD PUSH2 0x4C7 JUMP JUMPDEST SWAP12 ADD MLOAD SWAP7 PUSH1 0x1 PUSH1 0x1 PUSH1 0xE0 SHL SUB NOT DUP9 AND DUP9 SUB PUSH2 0x487 JUMPI CALLER ISZERO PUSH2 0x471 JUMPI PUSH1 0x0 DUP1 SLOAD PUSH1 0x40 MLOAD SWAP5 SWAP2 CALLER SWAP1 PUSH1 0x1 PUSH1 0x1 PUSH1 0xA0 SHL SUB DUP4 AND SWAP1 PUSH32 0x8BE0079C531659141344CD1FD0A4F28419497F9722A3DAAFE3B4186F6B6457E0 SWAP1 DUP1 LOG3 PUSH1 0x1 PUSH1 0x1 PUSH1 0xA8 SHL SUB NOT AND CALLER PUSH1 0xFF PUSH1 0xA0 SHL NOT AND OR PUSH1 0x0 SSTORE PUSH1 0x1 DUP1 SSTORE PUSH1 0x1 PUSH1 0x1 PUSH1 0xA0 SHL SUB AND SWAP3 DUP4 ISZERO PUSH2 0x42F JUMPI POP PUSH1 0x1 PUSH1 0x1 PUSH1 0xA0 SHL SUB AND SWAP1 DUP2 ISZERO PUSH2 0x3EA JUMPI PUSH1 0x1 PUSH1 0x1 PUSH1 0xA0 SHL SUB AND SWAP2 DUP3 ISZERO PUSH2 0x3B0 JUMPI DUP13 MLOAD DUP12 MLOAD SUB PUSH2 0x36B JUMPI DUP13 MLOAD ISZERO PUSH2 0x326 JUMPI PUSH1 0x1 DUP1 PUSH1 0xA0 SHL SUB NOT PUSH1 0x2 SLOAD AND OR PUSH1 0x2 SSTORE PUSH1 0x1 DUP1 PUSH1 0xA0 SHL SUB NOT PUSH1 0x4 SLOAD AND OR PUSH1 0x4 SSTORE PUSH1 0x1 DUP1 PUSH1 0xA0 SHL SUB NOT PUSH1 0x5 SLOAD AND OR PUSH1 0x5 SSTORE PUSH1 0x6 SSTORE PUSH1 0x7 SSTORE PUSH1 0xFF DUP1 NOT PUSH1 0x8 SLOAD AND SWAP2 AND OR PUSH1 0x8 SSTORE PUSH1 0xFA PUSH1 0x9 SSTORE PUSH1 0x1 DUP1 PUSH1 0xA0 SHL SUB AND PUSH1 0x1 DUP1 PUSH1 0xA0 SHL SUB NOT PUSH1 0x3 SLOAD AND OR PUSH1 0x3 SSTORE PUSH1 0x0 JUMPDEST DUP7 MLOAD DUP2 LT ISZERO PUSH2 0x2C5 JUMPI PUSH2 0x209 DUP2 DUP7 PUSH2 0x53D JUMP JUMPDEST MLOAD ISZERO PUSH2 0x280 JUMPI DUP1 PUSH2 0x21C PUSH1 0x1 SWAP3 DUP8 PUSH2 0x53D JUMP JUMPDEST MLOAD PUSH2 0x227 DUP3 DUP11 PUSH2 0x53D JUMP JUMPDEST MLOAD PUSH1 0x0 MSTORE PUSH1 0xF PUSH1 0x20 MSTORE PUSH1 0x40 PUSH1 0x0 KECCAK256 SSTORE PUSH32 0xB751835A12376750BD69B4B4C0C1D306480284514D2FA88F72EDF3EEEA8515F6 PUSH1 0x40 PUSH2 0x263 DUP4 DUP12 PUSH2 0x53D JUMP JUMPDEST MLOAD PUSH2 0x26E DUP5 DUP11 PUSH2 0x53D JUMP JUMPDEST MLOAD DUP3 MLOAD SWAP2 DUP3 MSTORE PUSH1 0x20 DUP3 ADD MSTORE LOG1 ADD PUSH2 0x1F6 JUMP JUMPDEST PUSH1 0x40 MLOAD PUSH3 0x461BCD PUSH1 0xE5 SHL DUP2 MSTORE PUSH1 0x20 PUSH1 0x4 DUP3 ADD MSTORE PUSH1 0x15 PUSH1 0x24 DUP3 ADD MSTORE PUSH32 0x496E76616C69642070726F647563742070726963650000000000000000000000 PUSH1 0x44 DUP3 ADD MSTORE PUSH1 0x64 SWAP1 REVERT JUMPDEST POP PUSH1 0x12 DUP1 SLOAD PUSH1 0x10 DUP1 SLOAD PUSH1 0x1 PUSH1 0x1 PUSH1 0xA0 SHL SUB NOT SWAP1 DUP2 AND PUSH1 0x1 PUSH1 0x1 PUSH1 0xA0 SHL SUB SWAP7 DUP8 AND OR SWAP1 SWAP2 SSTORE PUSH1 0x11 DUP1 SLOAD SWAP1 SWAP2 AND DUP6 DUP10 AND OR SWAP1 SSTORE PUSH1 0x1 PUSH1 0x1 PUSH1 0xC0 SHL SUB NOT AND SWAP4 SWAP1 SWAP3 AND SWAP3 SWAP1 SWAP3 OR PUSH1 0x40 SWAP3 DUP4 SHR PUSH4 0xFFFFFFFF PUSH1 0xA0 SHL AND OR SWAP1 SSTORE MLOAD PUSH2 0x19D2 SWAP1 DUP2 PUSH2 0x568 DUP3 CODECOPY RETURN JUMPDEST PUSH1 0x40 MLOAD PUSH3 0x461BCD PUSH1 0xE5 SHL DUP2 MSTORE PUSH1 0x20 PUSH1 0x4 DUP3 ADD MSTORE PUSH1 0x14 PUSH1 0x24 DUP3 ADD MSTORE PUSH32 0x4E6F2070726F64756374732070726F7669646564000000000000000000000000 PUSH1 0x44 DUP3 ADD MSTORE PUSH1 0x64 SWAP1 REVERT JUMPDEST PUSH1 0x40 MLOAD PUSH3 0x461BCD PUSH1 0xE5 SHL DUP2 MSTORE PUSH1 0x20 PUSH1 0x4 DUP3 ADD MSTORE PUSH1 0x16 PUSH1 0x24 DUP3 ADD MSTORE PUSH32 0x417272617973206C656E677468206D69736D6174636800000000000000000000 PUSH1 0x44 DUP3 ADD MSTORE PUSH1 0x64 SWAP1 REVERT JUMPDEST PUSH1 0x40 MLOAD PUSH3 0x461BCD PUSH1 0xE5 SHL DUP2 MSTORE PUSH1 0x20 PUSH1 0x4 DUP3 ADD MSTORE PUSH1 0x12 PUSH1 0x24 DUP3 ADD MSTORE PUSH18 0x125B9D985B1A5908199959481DD85B1B195D PUSH1 0x72 SHL PUSH1 0x44 DUP3 ADD MSTORE PUSH1 0x64 SWAP1 REVERT JUMPDEST PUSH1 0x40 MLOAD PUSH3 0x461BCD PUSH1 0xE5 SHL DUP2 MSTORE PUSH1 0x20 PUSH1 0x4 DUP3 ADD MSTORE PUSH1 0x1A PUSH1 0x24 DUP3 ADD MSTORE PUSH32 0x496E76616C69642062656E65666963696172792077616C6C6574000000000000 PUSH1 0x44 DUP3 ADD MSTORE PUSH1 0x64 SWAP1 REVERT JUMPDEST PUSH3 0x461BCD PUSH1 0xE5 SHL DUP2 MSTORE PUSH1 0x20 PUSH1 0x4 DUP3 ADD MSTORE PUSH1 0x14 PUSH1 0x24 DUP3 ADD MSTORE PUSH32 0x496E76616C696420555344432061646472657373000000000000000000000000 PUSH1 0x44 DUP3 ADD MSTORE PUSH1 0x64 SWAP1 REVERT JUMPDEST PUSH4 0x1E4FBDF7 PUSH1 0xE0 SHL PUSH1 0x0 MSTORE PUSH1 0x0 PUSH1 0x4 MSTORE PUSH1 0x24 PUSH1 0x0 REVERT JUMPDEST PUSH1 0x0 DUP1 REVERT JUMPDEST PUSH1 0x40 MLOAD SWAP2 SWAP1 PUSH1 0x1F ADD PUSH1 0x1F NOT AND DUP3 ADD PUSH1 0x1 PUSH1 0x1 PUSH1 0x40 SHL SUB DUP2 GT DUP4 DUP3 LT OR PUSH2 0x4B1 JUMPI PUSH1 0x40 MSTORE JUMP JUMPDEST PUSH4 0x4E487B71 PUSH1 0xE0 SHL PUSH1 0x0 MSTORE PUSH1 0x41 PUSH1 0x4 MSTORE PUSH1 0x24 PUSH1 0x0 REVERT JUMPDEST MLOAD SWAP1 PUSH1 0x1 PUSH1 0x1 PUSH1 0xA0 SHL SUB DUP3 AND DUP3 SUB PUSH2 0x487 JUMPI JUMP JUMPDEST SWAP1 DUP1 PUSH1 0x1F DUP4 ADD SLT ISZERO PUSH2 0x487 JUMPI DUP2 MLOAD SWAP2 PUSH1 0x1 PUSH1 0x1 PUSH1 0x40 SHL SUB DUP4 GT PUSH2 0x4B1 JUMPI DUP3 PUSH1 0x5 SHL SWAP1 PUSH1 0x20 DUP1 PUSH2 0x50B DUP2 DUP6 ADD PUSH2 0x48C JUMP JUMPDEST DUP1 SWAP7 DUP2 MSTORE ADD SWAP3 DUP3 ADD ADD SWAP3 DUP4 GT PUSH2 0x487 JUMPI PUSH1 0x20 ADD SWAP1 JUMPDEST DUP3 DUP3 LT PUSH2 0x52D JUMPI POP POP POP SWAP1 JUMP JUMPDEST DUP2 MLOAD DUP2 MSTORE PUSH1 0x20 SWAP2 DUP3 ADD SWAP2 ADD PUSH2 0x520 JUMP JUMPDEST DUP1 MLOAD DUP3 LT ISZERO PUSH2 0x551 JUMPI PUSH1 0x20 SWAP2 PUSH1 0x5 SHL ADD ADD SWAP1 JUMP JUMPDEST PUSH4 0x4E487B71 PUSH1 0xE0 SHL PUSH1 0x0 MSTORE PUSH1 0x32 PUSH1 0x4 MSTORE PUSH1 0x24 PUSH1 0x0 REVERT INVALID PUSH1 0x80 DUP1 PUSH1 0x40 MSTORE PUSH1 0x4 CALLDATASIZE LT ISZERO PUSH2 0x13 JUMPI PUSH1 0x0 DUP1 REVERT JUMPDEST PUSH1 0x0 SWAP1 DUP2 CALLDATALOAD PUSH1 0xE0 SHR SWAP1 DUP2 PUSH4 0x2F8BAA1 EQ PUSH2 0x1621 JUMPI POP DUP1 PUSH4 0x25B4F65F EQ PUSH2 0x15F8 JUMPI DUP1 PUSH4 0x2897F6A0 EQ PUSH2 0x15D5 JUMPI DUP1 PUSH4 0x29DCB0CF EQ PUSH2 0x15B7 JUMPI DUP1 PUSH4 0x38EB6A19 EQ PUSH2 0x158D JUMPI DUP1 PUSH4 0x3E413BEE EQ PUSH2 0x1564 JUMPI DUP1 PUSH4 0x3F4BA83A EQ PUSH2 0x14F6 JUMPI DUP1 PUSH4 0x42235DA6 EQ PUSH2 0x14D8 JUMPI DUP1 PUSH4 0x4232D7F8 EQ PUSH2 0x11FE JUMPI DUP1 PUSH4 0x42AF1884 EQ PUSH2 0x117F JUMPI DUP1 PUSH4 0x44D3498A EQ PUSH2 0x112A JUMPI DUP1 PUSH4 0x4585E33B EQ PUSH2 0xEF0 JUMPI DUP1 PUSH4 0x4BB278F3 EQ PUSH2 0xD44 JUMPI DUP1 PUSH4 0x5B7BAF64 EQ PUSH2 0xA2E JUMPI DUP1 PUSH4 0x5C975ABB EQ PUSH2 0xA09 JUMPI DUP1 PUSH4 0x66BFF1DB EQ PUSH2 0x9DF JUMPI DUP1 PUSH4 0x6CAD3FB0 EQ PUSH2 0x94A JUMPI DUP1 PUSH4 0x6E04FF0D EQ PUSH2 0x8EE JUMPI DUP1 PUSH4 0x715018A6 EQ PUSH2 0x894 JUMPI DUP1 PUSH4 0x8456CB59 EQ PUSH2 0x833 JUMPI DUP1 PUSH4 0x8DA5CB5B EQ PUSH2 0x80C JUMPI DUP1 PUSH4 0x95CCEA67 EQ PUSH2 0x646 JUMPI DUP1 PUSH4 0xA001ECDD EQ PUSH2 0x628 JUMPI DUP1 PUSH4 0xB3F05B97 EQ PUSH2 0x605 JUMPI DUP1 PUSH4 0xC5C4744C EQ PUSH2 0x5E7 JUMPI DUP1 PUSH4 0xC9788631 EQ PUSH2 0x5BE JUMPI DUP1 PUSH4 0xE2BBB158 EQ PUSH2 0x255 JUMPI DUP1 PUSH4 0xF25F4B56 EQ PUSH2 0x22C JUMPI DUP1 PUSH4 0xF2FDE38B EQ PUSH2 0x1A6 JUMPI PUSH4 0xFC7E286D EQ PUSH2 0x16B JUMPI PUSH1 0x0 DUP1 REVERT JUMPDEST CALLVALUE PUSH2 0x1A3 JUMPI PUSH1 0x20 CALLDATASIZE PUSH1 0x3 NOT ADD SLT PUSH2 0x1A3 JUMPI PUSH1 0x20 SWAP1 PUSH1 0x40 SWAP1 PUSH1 0x1 PUSH1 0x1 PUSH1 0xA0 SHL SUB PUSH2 0x192 PUSH2 0x16E5 JUMP JUMPDEST AND DUP2 MSTORE PUSH1 0xA DUP4 MSTORE KECCAK256 SLOAD PUSH1 0x40 MLOAD SWAP1 DUP2 MSTORE RETURN JUMPDEST DUP1 REVERT JUMPDEST POP CALLVALUE PUSH2 0x1A3 JUMPI PUSH1 0x20 CALLDATASIZE PUSH1 0x3 NOT ADD SLT PUSH2 0x1A3 JUMPI PUSH2 0x1C0 PUSH2 0x16E5 JUMP JUMPDEST PUSH2 0x1C8 PUSH2 0x1894 JUMP JUMPDEST PUSH1 0x1 PUSH1 0x1 PUSH1 0xA0 SHL SUB AND DUP1 ISZERO PUSH2 0x218 JUMPI DUP2 SLOAD PUSH1 0x1 PUSH1 0x1 PUSH1 0xA0 SHL SUB NOT DUP2 AND DUP3 OR DUP4 SSTORE PUSH1 0x1 PUSH1 0x1 PUSH1 0xA0 SHL SUB AND PUSH32 0x8BE0079C531659141344CD1FD0A4F28419497F9722A3DAAFE3B4186F6B6457E0 DUP4 DUP1 LOG3 DUP1 RETURN JUMPDEST PUSH4 0x1E4FBDF7 PUSH1 0xE0 SHL DUP3 MSTORE PUSH1 0x4 DUP3 SWAP1 MSTORE PUSH1 0x24 DUP3 REVERT JUMPDEST POP CALLVALUE PUSH2 0x1A3 JUMPI DUP1 PUSH1 0x3 NOT CALLDATASIZE ADD SLT PUSH2 0x1A3 JUMPI PUSH1 0x5 SLOAD PUSH1 0x40 MLOAD PUSH1 0x1 PUSH1 0x1 PUSH1 0xA0 SHL SUB SWAP1 SWAP2 AND DUP2 MSTORE PUSH1 0x20 SWAP1 RETURN JUMPDEST POP CALLVALUE PUSH2 0x1A3 JUMPI PUSH2 0x264 CALLDATASIZE PUSH2 0x168E JUMP JUMPDEST PUSH2 0x26C PUSH2 0x18BD JUMP JUMPDEST PUSH2 0x274 PUSH2 0x18DF JUMP JUMPDEST DUP1 ISZERO PUSH2 0x579 JUMPI PUSH2 0x289 PUSH1 0xFF PUSH1 0xC SLOAD AND ISZERO PUSH2 0x178B JUMP JUMPDEST DUP2 DUP4 MSTORE PUSH1 0xF PUSH1 0x20 MSTORE PUSH1 0x40 DUP4 KECCAK256 SLOAD ISZERO PUSH2 0x53C JUMPI PUSH1 0xFF PUSH1 0x8 SLOAD AND PUSH2 0x4F7 JUMPI JUMPDEST DUP2 DUP4 MSTORE PUSH1 0xF PUSH1 0x20 MSTORE PUSH2 0x2BC DUP2 PUSH1 0x40 DUP6 KECCAK256 SLOAD PUSH2 0x17D7 JUMP JUMPDEST SWAP2 PUSH2 0x2710 PUSH2 0x2CC PUSH1 0x9 SLOAD DUP6 PUSH2 0x17D7 JUMP JUMPDEST DIV SWAP2 DUP5 PUSH2 0x2D9 DUP5 DUP7 PUSH2 0x1800 JUMP JUMPDEST SWAP2 DUP2 PUSH1 0x20 PUSH1 0x1 DUP1 PUSH1 0xA0 SHL SUB PUSH1 0x2 SLOAD AND PUSH1 0x64 PUSH1 0x40 MLOAD DUP1 SWAP5 DUP2 SWAP4 PUSH4 0x23B872DD PUSH1 0xE0 SHL DUP4 MSTORE CALLER PUSH1 0x4 DUP5 ADD MSTORE ADDRESS PUSH1 0x24 DUP5 ADD MSTORE DUP13 PUSH1 0x44 DUP5 ADD MSTORE GAS CALL DUP1 ISZERO PUSH2 0x4EC JUMPI PUSH2 0x326 SWAP2 DUP5 SWAP2 PUSH2 0x4CD JUMPI JUMPDEST POP PUSH2 0x1849 JUMP JUMPDEST DUP5 PUSH2 0x401 JUMPI JUMPDEST PUSH1 0x3 SLOAD PUSH1 0x1 PUSH1 0x1 PUSH1 0xA0 SHL SUB AND DUP1 EXTCODESIZE ISZERO PUSH2 0x3FD JUMPI PUSH1 0x40 MLOAD PUSH4 0xAB714FB PUSH1 0xE1 SHL DUP2 MSTORE CALLER PUSH1 0x4 DUP3 ADD MSTORE PUSH1 0x24 DUP2 ADD DUP7 SWAP1 MSTORE PUSH1 0x44 DUP2 ADD SWAP3 SWAP1 SWAP3 MSTORE DUP3 SWAP1 DUP3 SWAP1 PUSH1 0x64 SWAP1 DUP3 SWAP1 DUP5 SWAP1 GAS CALL DUP1 ISZERO PUSH2 0x3F2 JUMPI PUSH2 0x3D9 JUMPI JUMPDEST POP SWAP2 PUSH2 0x39E SWAP3 MSTORE PUSH1 0xE PUSH1 0x20 MSTORE PUSH1 0x40 DUP6 KECCAK256 PUSH2 0x394 DUP3 DUP3 SLOAD PUSH2 0x1887 JUMP JUMPDEST SWAP1 SSTORE PUSH1 0xB SLOAD PUSH2 0x1887 JUMP JUMPDEST PUSH1 0xB SSTORE PUSH1 0x40 MLOAD SWAP2 DUP3 MSTORE PUSH1 0x20 DUP3 ADD MSTORE PUSH32 0x90890809C654F11D6E72A28FA60149770A0D11EC6C92319D6CEB2BB0A4EA1A15 PUSH1 0x40 CALLER SWAP3 LOG2 PUSH1 0x1 DUP1 SSTORE DUP1 RETURN JUMPDEST DUP2 PUSH2 0x3E3 SWAP2 PUSH2 0x16FB JUMP JUMPDEST PUSH2 0x3EE JUMPI DUP5 CODESIZE PUSH2 0x379 JUMP JUMPDEST DUP5 DUP1 REVERT JUMPDEST PUSH1 0x40 MLOAD RETURNDATASIZE DUP5 DUP3 RETURNDATACOPY RETURNDATASIZE SWAP1 REVERT JUMPDEST DUP3 DUP1 REVERT JUMPDEST PUSH1 0x2 SLOAD PUSH1 0x5 SLOAD PUSH1 0x40 MLOAD PUSH4 0xA9059CBB PUSH1 0xE0 SHL DUP2 MSTORE PUSH1 0x1 PUSH1 0x1 PUSH1 0xA0 SHL SUB SWAP2 DUP3 AND PUSH1 0x4 DUP3 ADD MSTORE PUSH1 0x24 DUP2 ADD DUP9 SWAP1 MSTORE SWAP3 SWAP4 POP PUSH1 0x20 SWAP2 DUP4 SWAP2 PUSH1 0x44 SWAP2 DUP4 SWAP2 DUP13 SWAP2 AND GAS CALL SWAP1 DUP2 ISZERO PUSH2 0x4C2 JUMPI DUP8 SWAP2 PUSH2 0x493 JUMPI JUMPDEST POP ISZERO PUSH2 0x458 JUMPI DUP6 SWAP1 PUSH2 0x32C JUMP JUMPDEST PUSH1 0x40 MLOAD PUSH3 0x461BCD PUSH1 0xE5 SHL DUP2 MSTORE PUSH1 0x20 PUSH1 0x4 DUP3 ADD MSTORE PUSH1 0x13 PUSH1 0x24 DUP3 ADD MSTORE PUSH19 0x119959481D1C985B9CD9995C8819985A5B1959 PUSH1 0x6A SHL PUSH1 0x44 DUP3 ADD MSTORE PUSH1 0x64 SWAP1 REVERT JUMPDEST PUSH2 0x4B5 SWAP2 POP PUSH1 0x20 RETURNDATASIZE PUSH1 0x20 GT PUSH2 0x4BB JUMPI JUMPDEST PUSH2 0x4AD DUP2 DUP4 PUSH2 0x16FB JUMP JUMPDEST DUP2 ADD SWAP1 PUSH2 0x1733 JUMP JUMPDEST CODESIZE PUSH2 0x44B JUMP JUMPDEST POP RETURNDATASIZE PUSH2 0x4A3 JUMP JUMPDEST PUSH1 0x40 MLOAD RETURNDATASIZE DUP10 DUP3 RETURNDATACOPY RETURNDATASIZE SWAP1 REVERT JUMPDEST PUSH2 0x4E6 SWAP2 POP PUSH1 0x20 RETURNDATASIZE PUSH1 0x20 GT PUSH2 0x4BB JUMPI PUSH2 0x4AD DUP2 DUP4 PUSH2 0x16FB JUMP JUMPDEST CODESIZE PUSH2 0x320 JUMP JUMPDEST PUSH1 0x40 MLOAD RETURNDATASIZE DUP6 DUP3 RETURNDATACOPY RETURNDATASIZE SWAP1 REVERT JUMPDEST PUSH1 0x7 SLOAD TIMESTAMP GT ISZERO PUSH2 0x2A6 JUMPI PUSH1 0x40 MLOAD PUSH3 0x461BCD PUSH1 0xE5 SHL DUP2 MSTORE PUSH1 0x20 PUSH1 0x4 DUP3 ADD MSTORE PUSH1 0x13 PUSH1 0x24 DUP3 ADD MSTORE PUSH19 0x111958591B1A5B99481A185CC81C185CDCD959 PUSH1 0x6A SHL PUSH1 0x44 DUP3 ADD MSTORE PUSH1 0x64 SWAP1 REVERT JUMPDEST PUSH1 0x40 MLOAD PUSH3 0x461BCD PUSH1 0xE5 SHL DUP2 MSTORE PUSH1 0x20 PUSH1 0x4 DUP3 ADD MSTORE PUSH1 0x15 PUSH1 0x24 DUP3 ADD MSTORE PUSH21 0x50726F64756374206E6F7420617661696C61626C65 PUSH1 0x58 SHL PUSH1 0x44 DUP3 ADD MSTORE PUSH1 0x64 SWAP1 REVERT JUMPDEST PUSH1 0x40 MLOAD PUSH3 0x461BCD PUSH1 0xE5 SHL DUP2 MSTORE PUSH1 0x20 PUSH1 0x4 DUP3 ADD MSTORE PUSH1 0x1F PUSH1 0x24 DUP3 ADD MSTORE PUSH32 0x5175616E74697479206D7573742062652067726561746572207468616E203000 PUSH1 0x44 DUP3 ADD MSTORE PUSH1 0x64 SWAP1 REVERT JUMPDEST POP CALLVALUE PUSH2 0x1A3 JUMPI DUP1 PUSH1 0x3 NOT CALLDATASIZE ADD SLT PUSH2 0x1A3 JUMPI PUSH1 0x4 SLOAD PUSH1 0x40 MLOAD PUSH1 0x1 PUSH1 0x1 PUSH1 0xA0 SHL SUB SWAP1 SWAP2 AND DUP2 MSTORE PUSH1 0x20 SWAP1 RETURN JUMPDEST POP CALLVALUE PUSH2 0x1A3 JUMPI DUP1 PUSH1 0x3 NOT CALLDATASIZE ADD SLT PUSH2 0x1A3 JUMPI PUSH1 0x20 PUSH1 0xB SLOAD PUSH1 0x40 MLOAD SWAP1 DUP2 MSTORE RETURN JUMPDEST POP CALLVALUE PUSH2 0x1A3 JUMPI DUP1 PUSH1 0x3 NOT CALLDATASIZE ADD SLT PUSH2 0x1A3 JUMPI PUSH1 0x20 PUSH1 0xFF PUSH1 0xC SLOAD AND PUSH1 0x40 MLOAD SWAP1 ISZERO ISZERO DUP2 MSTORE RETURN JUMPDEST POP CALLVALUE PUSH2 0x1A3 JUMPI DUP1 PUSH1 0x3 NOT CALLDATASIZE ADD SLT PUSH2 0x1A3 JUMPI PUSH1 0x20 PUSH1 0x9 SLOAD PUSH1 0x40 MLOAD SWAP1 DUP2 MSTORE RETURN JUMPDEST POP CALLVALUE PUSH2 0x1A3 JUMPI PUSH1 0x40 CALLDATASIZE PUSH1 0x3 NOT ADD SLT PUSH2 0x1A3 JUMPI PUSH2 0x660 PUSH2 0x16E5 JUMP JUMPDEST PUSH1 0x24 CALLDATALOAD SWAP1 PUSH2 0x66C PUSH2 0x1894 JUMP JUMPDEST PUSH1 0x1 PUSH1 0x1 PUSH1 0xA0 SHL SUB DUP2 AND SWAP2 DUP3 ISZERO PUSH2 0x7D5 JUMPI PUSH1 0x2 SLOAD PUSH1 0x40 MLOAD PUSH4 0x70A08231 PUSH1 0xE0 SHL DUP2 MSTORE ADDRESS PUSH1 0x4 DUP3 ADD MSTORE PUSH1 0x1 PUSH1 0x1 PUSH1 0xA0 SHL SUB SWAP1 SWAP2 AND SWAP1 PUSH1 0x20 DUP2 PUSH1 0x24 DUP2 DUP6 GAS STATICCALL SWAP1 DUP2 ISZERO PUSH2 0x7CA JUMPI DUP7 SWAP2 PUSH2 0x793 JUMPI JUMPDEST POP DUP3 GT PUSH2 0x757 JUMPI PUSH1 0x40 MLOAD PUSH4 0xA9059CBB PUSH1 0xE0 SHL DUP2 MSTORE PUSH1 0x1 PUSH1 0x1 PUSH1 0xA0 SHL SUB SWAP4 SWAP1 SWAP4 AND PUSH1 0x4 DUP5 ADD MSTORE PUSH1 0x24 DUP4 ADD DUP3 SWAP1 MSTORE PUSH1 0x20 SWAP1 DUP4 SWAP1 PUSH1 0x44 SWAP1 DUP3 SWAP1 DUP9 SWAP1 GAS CALL SWAP1 DUP2 ISZERO PUSH2 0x74C JUMPI PUSH2 0x72B PUSH1 0x20 SWAP3 PUSH32 0x5FAFA99D0643513820BE26656B45130B01E1C03062E1266BF36F88CBD3BD9695 SWAP5 DUP8 SWAP2 PUSH2 0x735 JUMPI POP PUSH2 0x1849 JUMP JUMPDEST PUSH1 0x40 MLOAD SWAP1 DUP2 MSTORE LOG2 DUP1 RETURN JUMPDEST PUSH2 0x4E6 SWAP2 POP DUP5 RETURNDATASIZE DUP7 GT PUSH2 0x4BB JUMPI PUSH2 0x4AD DUP2 DUP4 PUSH2 0x16FB JUMP JUMPDEST PUSH1 0x40 MLOAD RETURNDATASIZE DUP7 DUP3 RETURNDATACOPY RETURNDATASIZE SWAP1 REVERT JUMPDEST PUSH1 0x40 MLOAD PUSH3 0x461BCD PUSH1 0xE5 SHL DUP2 MSTORE PUSH1 0x20 PUSH1 0x4 DUP3 ADD MSTORE PUSH1 0x14 PUSH1 0x24 DUP3 ADD MSTORE PUSH20 0x496E73756666696369656E742062616C616E6365 PUSH1 0x60 SHL PUSH1 0x44 DUP3 ADD MSTORE PUSH1 0x64 SWAP1 REVERT JUMPDEST SWAP1 POP PUSH1 0x20 DUP2 RETURNDATASIZE PUSH1 0x20 GT PUSH2 0x7C2 JUMPI JUMPDEST DUP2 PUSH2 0x7AE PUSH1 0x20 SWAP4 DUP4 PUSH2 0x16FB JUMP JUMPDEST DUP2 ADD SUB SLT PUSH2 0x7BD JUMPI MLOAD CODESIZE PUSH2 0x6B6 JUMP JUMPDEST PUSH1 0x0 DUP1 REVERT JUMPDEST RETURNDATASIZE SWAP2 POP PUSH2 0x7A1 JUMP JUMPDEST PUSH1 0x40 MLOAD RETURNDATASIZE DUP9 DUP3 RETURNDATACOPY RETURNDATASIZE SWAP1 REVERT JUMPDEST PUSH1 0x40 MLOAD PUSH3 0x461BCD PUSH1 0xE5 SHL DUP2 MSTORE PUSH1 0x20 PUSH1 0x4 DUP3 ADD MSTORE PUSH1 0xF PUSH1 0x24 DUP3 ADD MSTORE PUSH15 0x496E76616C69642061646472657373 PUSH1 0x88 SHL PUSH1 0x44 DUP3 ADD MSTORE PUSH1 0x64 SWAP1 REVERT JUMPDEST POP CALLVALUE PUSH2 0x1A3 JUMPI DUP1 PUSH1 0x3 NOT CALLDATASIZE ADD SLT PUSH2 0x1A3 JUMPI SLOAD PUSH1 0x40 MLOAD PUSH1 0x1 PUSH1 0x1 PUSH1 0xA0 SHL SUB SWAP1 SWAP2 AND DUP2 MSTORE PUSH1 0x20 SWAP1 RETURN JUMPDEST POP CALLVALUE PUSH2 0x1A3 JUMPI DUP1 PUSH1 0x3 NOT CALLDATASIZE ADD SLT PUSH2 0x1A3 JUMPI PUSH2 0x84C PUSH2 0x1894 JUMP JUMPDEST PUSH2 0x854 PUSH2 0x18DF JUMP JUMPDEST DUP1 SLOAD PUSH1 0xFF PUSH1 0xA0 SHL NOT AND PUSH1 0x1 PUSH1 0xA0 SHL OR DUP2 SSTORE PUSH1 0x40 MLOAD CALLER DUP2 MSTORE PUSH32 0x62E78CEA01BEE320CD4E420270B5EA74000D11B0C9F74754EBDBFC544B05A258 SWAP1 PUSH1 0x20 SWAP1 LOG1 DUP1 RETURN JUMPDEST POP CALLVALUE PUSH2 0x1A3 JUMPI DUP1 PUSH1 0x3 NOT CALLDATASIZE ADD SLT PUSH2 0x1A3 JUMPI PUSH2 0x8AD PUSH2 0x1894 JUMP JUMPDEST DUP1 SLOAD PUSH1 0x1 PUSH1 0x1 PUSH1 0xA0 SHL SUB NOT DUP2 AND DUP3 SSTORE DUP2 SWAP1 PUSH1 0x1 PUSH1 0x1 PUSH1 0xA0 SHL SUB AND PUSH32 0x8BE0079C531659141344CD1FD0A4F28419497F9722A3DAAFE3B4186F6B6457E0 DUP3 DUP1 LOG3 DUP1 RETURN JUMPDEST POP CALLVALUE PUSH2 0x1A3 JUMPI PUSH2 0x8FD CALLDATASIZE PUSH2 0x163D JUMP JUMPDEST POP POP PUSH1 0xFF PUSH1 0xC SLOAD AND ISZERO DUP1 PUSH2 0x93F JUMPI JUMPDEST PUSH1 0x40 MLOAD SWAP2 PUSH2 0x91B PUSH1 0x20 DUP5 PUSH2 0x16FB JUMP JUMPDEST DUP3 MSTORE PUSH2 0x93B PUSH1 0x40 MLOAD SWAP3 DUP4 SWAP3 ISZERO ISZERO DUP4 MSTORE PUSH1 0x40 PUSH1 0x20 DUP5 ADD MSTORE PUSH1 0x40 DUP4 ADD SWAP1 PUSH2 0x16A4 JUMP JUMPDEST SUB SWAP1 RETURN JUMPDEST POP PUSH1 0x7 SLOAD TIMESTAMP GT PUSH2 0x90C JUMP JUMPDEST POP CALLVALUE PUSH2 0x1A3 JUMPI PUSH1 0x20 CALLDATASIZE PUSH1 0x3 NOT ADD SLT PUSH2 0x1A3 JUMPI PUSH1 0x4 CALLDATALOAD PUSH2 0x967 PUSH2 0x1894 JUMP JUMPDEST PUSH2 0x3E8 DUP2 GT PUSH2 0x9A2 JUMPI PUSH1 0x20 DUP2 PUSH32 0x8C4D35E54A3F2EF1134138FD8EA3DAEE6A3C89E10D2665996BABDF70261E2C76 SWAP3 PUSH1 0x9 SSTORE PUSH1 0x40 MLOAD SWAP1 DUP2 MSTORE LOG1 DUP1 RETURN JUMPDEST PUSH1 0x40 MLOAD PUSH3 0x461BCD PUSH1 0xE5 SHL DUP2 MSTORE PUSH1 0x20 PUSH1 0x4 DUP3 ADD MSTORE PUSH1 0x15 PUSH1 0x24 DUP3 ADD MSTORE PUSH21 0x4665652063616E6E6F742065786365656420313025 PUSH1 0x58 SHL PUSH1 0x44 DUP3 ADD MSTORE PUSH1 0x64 SWAP1 REVERT JUMPDEST POP CALLVALUE PUSH2 0x1A3 JUMPI PUSH1 0x20 CALLDATASIZE PUSH1 0x3 NOT ADD SLT PUSH2 0x1A3 JUMPI PUSH1 0x40 PUSH1 0x20 SWAP2 PUSH1 0x4 CALLDATALOAD DUP2 MSTORE PUSH1 0xE DUP4 MSTORE KECCAK256 SLOAD PUSH1 0x40 MLOAD SWAP1 DUP2 MSTORE RETURN JUMPDEST POP CALLVALUE PUSH2 0x1A3 JUMPI DUP1 PUSH1 0x3 NOT CALLDATASIZE ADD SLT PUSH2 0x1A3 JUMPI PUSH1 0xFF PUSH1 0x20 SWAP2 SLOAD PUSH1 0xA0 SHR AND PUSH1 0x40 MLOAD SWAP1 ISZERO ISZERO DUP2 MSTORE RETURN JUMPDEST POP CALLVALUE PUSH2 0x1A3 JUMPI PUSH1 0x20 CALLDATASIZE PUSH1 0x3 NOT ADD SLT PUSH2 0x1A3 JUMPI PUSH1 0x4 CALLDATALOAD PUSH1 0xFF PUSH1 0xC SLOAD AND ISZERO PUSH2 0xD0F JUMPI PUSH1 0xB SLOAD PUSH1 0x6 SLOAD GT ISZERO PUSH2 0xCD9 JUMPI PUSH1 0x3 SLOAD PUSH1 0x40 MLOAD PUSH3 0x7EEAC7 PUSH1 0xE1 SHL DUP2 MSTORE CALLER PUSH1 0x4 DUP3 ADD MSTORE PUSH1 0x24 DUP2 ADD DUP4 SWAP1 MSTORE SWAP1 PUSH1 0x1 PUSH1 0x1 PUSH1 0xA0 SHL SUB AND PUSH1 0x20 DUP3 PUSH1 0x44 DUP2 DUP5 GAS STATICCALL SWAP2 DUP3 ISZERO PUSH2 0x74C JUMPI DUP5 SWAP3 PUSH2 0xCA5 JUMPI JUMPDEST POP DUP2 ISZERO PUSH2 0xC6A JUMPI PUSH1 0x24 SWAP1 DUP4 DUP6 MSTORE PUSH1 0xE PUSH1 0x20 MSTORE PUSH1 0x20 PUSH2 0xAB9 DUP5 PUSH1 0x40 DUP9 KECCAK256 SLOAD PUSH2 0x17D7 JUMP JUMPDEST SWAP2 PUSH1 0x40 MLOAD SWAP4 DUP5 DUP1 SWAP3 PUSH4 0xEF8593E7 PUSH1 0xE0 SHL DUP3 MSTORE DUP9 PUSH1 0x4 DUP4 ADD MSTORE GAS STATICCALL SWAP2 DUP3 ISZERO PUSH2 0xC5F JUMPI DUP6 SWAP3 PUSH2 0xC2B JUMPI JUMPDEST POP DUP2 ISZERO PUSH2 0xC17 JUMPI SWAP1 DUP5 SWAP3 SWAP2 DIV SWAP3 DUP1 DUP4 MSTORE PUSH1 0xE PUSH1 0x20 MSTORE PUSH2 0xB04 DUP5 PUSH1 0x40 DUP6 KECCAK256 SLOAD PUSH2 0x1800 JUMP JUMPDEST DUP2 DUP5 MSTORE PUSH1 0xE PUSH1 0x20 MSTORE PUSH1 0x40 DUP5 KECCAK256 SSTORE PUSH1 0x3 SLOAD PUSH1 0x1 PUSH1 0x1 PUSH1 0xA0 SHL SUB AND SWAP2 DUP3 EXTCODESIZE ISZERO PUSH2 0xC13 JUMPI PUSH1 0x40 MLOAD PUSH4 0x7A94C565 PUSH1 0xE1 SHL DUP2 MSTORE CALLER PUSH1 0x4 DUP3 ADD MSTORE PUSH1 0x24 DUP2 ADD SWAP3 SWAP1 SWAP3 MSTORE PUSH1 0x44 DUP3 ADD MSTORE SWAP1 DUP3 SWAP1 DUP3 SWAP1 PUSH1 0x64 SWAP1 DUP3 SWAP1 DUP5 SWAP1 GAS CALL DUP1 ISZERO PUSH2 0x3F2 JUMPI PUSH2 0xBFA JUMPI JUMPDEST POP POP PUSH1 0x2 SLOAD PUSH1 0x40 MLOAD PUSH4 0xA9059CBB PUSH1 0xE0 SHL DUP2 MSTORE CALLER PUSH1 0x4 DUP3 ADD MSTORE PUSH1 0x24 DUP2 ADD DUP4 SWAP1 MSTORE SWAP1 PUSH1 0x20 SWAP1 DUP3 SWAP1 PUSH1 0x44 SWAP1 DUP3 SWAP1 DUP8 SWAP1 PUSH1 0x1 PUSH1 0x1 PUSH1 0xA0 SHL SUB AND GAS CALL DUP1 ISZERO PUSH2 0x4EC JUMPI PUSH2 0xBAC SWAP2 DUP5 SWAP2 PUSH2 0xBDB JUMPI JUMPDEST POP PUSH2 0x180D JUMP JUMPDEST PUSH1 0x40 MLOAD SWAP1 DUP2 MSTORE PUSH32 0xBB28353E4598C3B9199101A66E0989549B659A59A54D2C27FBB183F1932C8E6D PUSH1 0x20 CALLER SWAP3 LOG2 DUP1 RETURN JUMPDEST PUSH2 0xBF4 SWAP2 POP PUSH1 0x20 RETURNDATASIZE PUSH1 0x20 GT PUSH2 0x4BB JUMPI PUSH2 0x4AD DUP2 DUP4 PUSH2 0x16FB JUMP JUMPDEST CODESIZE PUSH2 0xBA6 JUMP JUMPDEST DUP2 PUSH2 0xC04 SWAP2 PUSH2 0x16FB JUMP JUMPDEST PUSH2 0xC0F JUMPI DUP2 CODESIZE PUSH2 0xB5E JUMP JUMPDEST POP DUP1 REVERT JUMPDEST DUP4 DUP1 REVERT JUMPDEST PUSH4 0x4E487B71 PUSH1 0xE0 SHL DUP6 MSTORE PUSH1 0x12 PUSH1 0x4 MSTORE PUSH1 0x24 DUP6 REVERT JUMPDEST SWAP1 SWAP2 POP PUSH1 0x20 DUP2 RETURNDATASIZE PUSH1 0x20 GT PUSH2 0xC57 JUMPI JUMPDEST DUP2 PUSH2 0xC47 PUSH1 0x20 SWAP4 DUP4 PUSH2 0x16FB JUMP JUMPDEST DUP2 ADD SUB SLT PUSH2 0x7BD JUMPI MLOAD SWAP1 CODESIZE PUSH2 0xAE1 JUMP JUMPDEST RETURNDATASIZE SWAP2 POP PUSH2 0xC3A JUMP JUMPDEST PUSH1 0x40 MLOAD RETURNDATASIZE DUP8 DUP3 RETURNDATACOPY RETURNDATASIZE SWAP1 REVERT JUMPDEST PUSH1 0x40 MLOAD PUSH3 0x461BCD PUSH1 0xE5 SHL DUP2 MSTORE PUSH1 0x20 PUSH1 0x4 DUP3 ADD MSTORE PUSH1 0x13 PUSH1 0x24 DUP3 ADD MSTORE PUSH19 0x139BC81D1BDAD95B9CC81D1BC81C99599D5B99 PUSH1 0x6A SHL PUSH1 0x44 DUP3 ADD MSTORE PUSH1 0x64 SWAP1 REVERT JUMPDEST SWAP1 SWAP2 POP PUSH1 0x20 DUP2 RETURNDATASIZE PUSH1 0x20 GT PUSH2 0xCD1 JUMPI JUMPDEST DUP2 PUSH2 0xCC1 PUSH1 0x20 SWAP4 DUP4 PUSH2 0x16FB JUMP JUMPDEST DUP2 ADD SUB SLT PUSH2 0x7BD JUMPI MLOAD SWAP1 CODESIZE PUSH2 0xA97 JUMP JUMPDEST RETURNDATASIZE SWAP2 POP PUSH2 0xCB4 JUMP JUMPDEST PUSH1 0x40 MLOAD PUSH3 0x461BCD PUSH1 0xE5 SHL DUP2 MSTORE PUSH1 0x20 PUSH1 0x4 DUP3 ADD MSTORE PUSH1 0xE PUSH1 0x24 DUP3 ADD MSTORE PUSH14 0x15185C99D95D081DD85CC81B595D PUSH1 0x92 SHL PUSH1 0x44 DUP3 ADD MSTORE PUSH1 0x64 SWAP1 REVERT JUMPDEST PUSH1 0x40 MLOAD PUSH3 0x461BCD PUSH1 0xE5 SHL DUP2 MSTORE PUSH1 0x20 PUSH1 0x4 DUP3 ADD MSTORE PUSH1 0xD PUSH1 0x24 DUP3 ADD MSTORE PUSH13 0x139BDD08199A5B985B1A5E9959 PUSH1 0x9A SHL PUSH1 0x44 DUP3 ADD MSTORE PUSH1 0x64 SWAP1 REVERT JUMPDEST POP CALLVALUE PUSH2 0x1A3 JUMPI DUP1 PUSH1 0x3 NOT CALLDATASIZE ADD SLT PUSH2 0x1A3 JUMPI PUSH2 0xD5D PUSH2 0x18BD JUMP JUMPDEST PUSH2 0xD65 PUSH2 0x18DF JUMP JUMPDEST PUSH1 0xFF PUSH1 0xC SLOAD AND PUSH2 0xEB7 JUMPI PUSH1 0x8 SLOAD PUSH1 0xFF AND ISZERO PUSH2 0xEAF JUMPI PUSH1 0x7 SLOAD TIMESTAMP GT ISZERO PUSH2 0xE73 JUMPI PUSH1 0xB SLOAD PUSH1 0x6 SLOAD GT PUSH2 0xDAB JUMPI PUSH2 0xD97 PUSH2 0x18FF JUMP JUMPDEST PUSH1 0x1 PUSH1 0xFF NOT PUSH1 0xC SLOAD AND OR PUSH1 0xC SSTORE PUSH1 0x1 DUP1 SSTORE DUP1 RETURN JUMPDEST DUP1 DUP1 MSTORE PUSH1 0xA PUSH1 0x20 MSTORE PUSH1 0x40 DUP2 KECCAK256 SLOAD ISZERO PUSH2 0xE6E JUMPI DUP1 DUP1 MSTORE PUSH1 0xA PUSH1 0x20 DUP2 DUP2 MSTORE PUSH1 0x40 DUP1 DUP5 KECCAK256 SLOAD DUP5 DUP1 MSTORE SWAP3 DUP3 MSTORE DUP1 DUP5 KECCAK256 DUP5 SWAP1 SSTORE PUSH1 0x2 SLOAD SWAP1 MLOAD PUSH4 0xA9059CBB PUSH1 0xE0 SHL DUP2 MSTORE PUSH1 0x0 PUSH1 0x4 DUP3 ADD MSTORE PUSH1 0x24 DUP2 ADD DUP5 SWAP1 MSTORE DUP5 SWAP4 SWAP1 SWAP3 SWAP1 SWAP2 DUP4 SWAP1 PUSH1 0x44 SWAP1 DUP3 SWAP1 DUP8 SWAP1 PUSH1 0x1 PUSH1 0x1 PUSH1 0xA0 SHL SUB AND GAS CALL SWAP1 DUP2 ISZERO PUSH2 0x4EC JUMPI PUSH2 0xE4B PUSH1 0x20 SWAP3 PUSH32 0xBB28353E4598C3B9199101A66E0989549B659A59A54D2C27FBB183F1932C8E6D SWAP5 DUP7 SWAP2 PUSH2 0xE57 JUMPI POP PUSH2 0x180D JUMP JUMPDEST PUSH1 0x40 MLOAD SWAP1 DUP2 MSTORE LOG2 PUSH2 0xDAB JUMP JUMPDEST PUSH2 0xBF4 SWAP2 POP DUP5 RETURNDATASIZE DUP2 GT PUSH2 0x4BB JUMPI PUSH2 0x4AD DUP2 DUP4 PUSH2 0x16FB JUMP JUMPDEST PUSH2 0xD97 JUMP JUMPDEST PUSH1 0x40 MLOAD PUSH3 0x461BCD PUSH1 0xE5 SHL DUP2 MSTORE PUSH1 0x20 PUSH1 0x4 DUP3 ADD MSTORE PUSH1 0x14 PUSH1 0x24 DUP3 ADD MSTORE PUSH20 0x111958591B1A5B99481B9BDD081C995858DA1959 PUSH1 0x62 SHL PUSH1 0x44 DUP3 ADD MSTORE PUSH1 0x64 SWAP1 REVERT JUMPDEST PUSH2 0xE6E PUSH2 0x18FF JUMP JUMPDEST PUSH1 0x40 MLOAD PUSH3 0x461BCD PUSH1 0xE5 SHL DUP2 MSTORE PUSH1 0x20 PUSH1 0x4 DUP3 ADD MSTORE PUSH1 0x11 PUSH1 0x24 DUP3 ADD MSTORE PUSH17 0x105B1C9958591E48199A5B985B1A5E9959 PUSH1 0x7A SHL PUSH1 0x44 DUP3 ADD MSTORE PUSH1 0x64 SWAP1 REVERT JUMPDEST POP CALLVALUE PUSH2 0x1A3 JUMPI PUSH2 0xEFF CALLDATASIZE PUSH2 0x163D JUMP JUMPDEST POP POP PUSH1 0xFF PUSH1 0xC SLOAD AND ISZERO DUP1 PUSH2 0x111F JUMPI JUMPDEST PUSH2 0xF15 JUMPI DUP1 RETURN JUMPDEST PUSH2 0xF1D PUSH2 0x18BD JUMP JUMPDEST PUSH2 0xF25 PUSH2 0x18DF JUMP JUMPDEST PUSH1 0xFF PUSH1 0xC SLOAD AND PUSH2 0xEB7 JUMPI PUSH1 0x8 SLOAD PUSH1 0xFF AND ISZERO PUSH2 0x1117 JUMPI PUSH1 0x7 SLOAD TIMESTAMP GT ISZERO PUSH2 0xE73 JUMPI PUSH1 0xB SLOAD PUSH1 0x6 SLOAD GT PUSH2 0x1069 JUMPI PUSH2 0xF57 PUSH2 0x18FF JUMP JUMPDEST PUSH1 0x1 PUSH1 0xFF NOT PUSH1 0xC SLOAD AND OR PUSH1 0xC SSTORE PUSH1 0x1 DUP1 SSTORE PUSH1 0x40 MLOAD PUSH32 0x966A2CF4DA2FE388FB461E726E2765451662471D3E61FB50C4191DD71434CB58 DUP3 DUP1 LOG1 PUSH1 0x14 SLOAD PUSH4 0x5AB1BD53 PUSH1 0xE0 SHL DUP3 MSTORE PUSH1 0x20 SWAP1 DUP3 SWAP1 PUSH1 0x4 SWAP1 DUP3 SWAP1 PUSH1 0x1 PUSH1 0x1 PUSH1 0xA0 SHL SUB AND GAS STATICCALL SWAP1 DUP2 ISZERO PUSH2 0x3F2 JUMPI DUP3 SWAP2 PUSH2 0x1027 JUMPI JUMPDEST POP PUSH1 0x13 SLOAD DUP3 SLOAD PUSH1 0x1 PUSH1 0x1 PUSH1 0xA0 SHL SUB SWAP3 DUP4 AND SWAP3 DUP5 SWAP3 SWAP2 AND DUP4 EXTCODESIZE ISZERO PUSH2 0x3FD JUMPI PUSH1 0x44 DUP4 SWAP3 DUP4 PUSH1 0x40 MLOAD SWAP7 DUP8 SWAP5 DUP6 SWAP4 PUSH4 0x744BFE61 PUSH1 0xE0 SHL DUP6 MSTORE PUSH1 0x4 DUP6 ADD MSTORE PUSH1 0x24 DUP5 ADD MSTORE GAS CALL DUP1 ISZERO PUSH2 0x101A JUMPI PUSH2 0x100E JUMPI POP POP DUP1 RETURN JUMPDEST PUSH2 0x1017 SWAP2 PUSH2 0x16FB JUMP JUMPDEST DUP1 RETURN JUMPDEST POP PUSH1 0x40 MLOAD SWAP1 RETURNDATASIZE SWAP1 DUP3 RETURNDATACOPY RETURNDATASIZE SWAP1 REVERT JUMPDEST SWAP1 POP PUSH1 0x20 DUP2 RETURNDATASIZE PUSH1 0x20 GT PUSH2 0x1061 JUMPI JUMPDEST DUP2 PUSH2 0x1042 PUSH1 0x20 SWAP4 DUP4 PUSH2 0x16FB JUMP JUMPDEST DUP2 ADD SUB SLT PUSH2 0xC0F JUMPI MLOAD PUSH1 0x1 PUSH1 0x1 PUSH1 0xA0 SHL SUB DUP2 AND DUP2 SUB PUSH2 0xC0F JUMPI CODESIZE PUSH2 0xFBF JUMP JUMPDEST RETURNDATASIZE SWAP2 POP PUSH2 0x1035 JUMP JUMPDEST DUP1 DUP1 MSTORE PUSH1 0xA PUSH1 0x20 MSTORE PUSH1 0x40 DUP2 KECCAK256 SLOAD ISZERO PUSH2 0x1112 JUMPI DUP1 DUP1 MSTORE PUSH1 0xA PUSH1 0x20 MSTORE DUP1 PUSH1 0x40 DUP2 KECCAK256 SLOAD DUP2 DUP1 MSTORE PUSH1 0xA PUSH1 0x20 MSTORE DUP2 PUSH1 0x40 DUP2 KECCAK256 SSTORE PUSH1 0x1 DUP1 PUSH1 0xA0 SHL SUB PUSH1 0x2 SLOAD AND SWAP1 PUSH1 0x20 PUSH1 0x40 MLOAD DUP1 SWAP4 PUSH4 0xA9059CBB PUSH1 0xE0 SHL DUP3 MSTORE DUP2 DUP7 DUP2 PUSH1 0x4 DUP2 ADD DUP8 DUP8 PUSH1 0x40 DUP4 ADD SWAP3 DUP6 DUP2 MSTORE ADD MSTORE SUB SWAP3 GAS CALL SWAP1 DUP2 ISZERO PUSH2 0x4EC JUMPI PUSH2 0x1106 PUSH1 0x20 SWAP3 PUSH32 0xBB28353E4598C3B9199101A66E0989549B659A59A54D2C27FBB183F1932C8E6D SWAP5 DUP7 SWAP2 PUSH2 0xE57 JUMPI POP PUSH2 0x180D JUMP JUMPDEST PUSH1 0x40 MLOAD SWAP1 DUP2 MSTORE LOG2 PUSH2 0x1069 JUMP JUMPDEST PUSH2 0xF57 JUMP JUMPDEST PUSH2 0x1112 PUSH2 0x18FF JUMP JUMPDEST POP PUSH1 0x7 SLOAD TIMESTAMP GT PUSH2 0xF0E JUMP JUMPDEST POP CALLVALUE PUSH2 0x1A3 JUMPI PUSH32 0xB751835A12376750BD69B4B4C0C1D306480284514D2FA88F72EDF3EEEA8515F6 PUSH1 0x40 PUSH2 0x115C CALLDATASIZE PUSH2 0x168E JUMP JUMPDEST PUSH2 0x1164 PUSH2 0x1894 JUMP JUMPDEST DUP2 DUP6 MSTORE PUSH1 0xF PUSH1 0x20 MSTORE DUP1 DUP4 DUP7 KECCAK256 SSTORE DUP3 MLOAD SWAP2 DUP3 MSTORE PUSH1 0x20 DUP3 ADD MSTORE LOG1 DUP1 RETURN JUMPDEST POP CALLVALUE PUSH2 0x1A3 JUMPI PUSH1 0x20 CALLDATASIZE PUSH1 0x3 NOT ADD SLT PUSH2 0x1A3 JUMPI PUSH1 0x4 CALLDATALOAD PUSH2 0x119C PUSH2 0x1894 JUMP JUMPDEST PUSH2 0x11AB PUSH1 0xFF PUSH1 0xC SLOAD AND ISZERO PUSH2 0x178B JUMP JUMPDEST TIMESTAMP DUP2 GT ISZERO PUSH2 0x11B9 JUMPI PUSH1 0x7 SSTORE DUP1 RETURN JUMPDEST PUSH1 0x40 MLOAD PUSH3 0x461BCD PUSH1 0xE5 SHL DUP2 MSTORE PUSH1 0x20 PUSH1 0x4 DUP3 ADD MSTORE PUSH1 0x1E PUSH1 0x24 DUP3 ADD MSTORE PUSH32 0x446561646C696E65206D75737420626520696E20746865206675747572650000 PUSH1 0x44 DUP3 ADD MSTORE PUSH1 0x64 SWAP1 REVERT JUMPDEST POP CALLVALUE PUSH2 0x1A3 JUMPI PUSH2 0x120D CALLDATASIZE PUSH2 0x163D JUMP JUMPDEST SWAP1 PUSH2 0x1216 PUSH2 0x1894 JUMP JUMPDEST PUSH1 0x12 SLOAD PUSH1 0x10 SLOAD PUSH1 0x40 MLOAD PUSH4 0x95EA7B3 PUSH1 0xE0 SHL DUP2 MSTORE PUSH1 0x1 PUSH1 0x1 PUSH1 0xA0 SHL SUB SWAP2 DUP3 AND PUSH1 0x4 DUP3 ADD MSTORE PUSH8 0xDE0B6B3A7640000 PUSH1 0x24 DUP3 ADD MSTORE SWAP2 PUSH1 0x20 SWAP2 DUP4 SWAP2 PUSH1 0x44 SWAP2 DUP4 SWAP2 DUP10 SWAP2 AND GAS CALL SWAP1 DUP2 ISZERO PUSH2 0x74C JUMPI DUP5 SWAP2 PUSH2 0x14B9 JUMPI JUMPDEST POP ISZERO PUSH2 0x147D JUMPI DUP3 SWAP2 DUP3 SWAP2 DUP3 PUSH1 0x1 DUP1 PUSH1 0xA0 SHL SUB PUSH1 0x10 SLOAD AND SWAP3 PUSH2 0x12B9 PUSH1 0x24 PUSH4 0xFFFFFFFF PUSH1 0xE0 SHL PUSH1 0x12 SLOAD PUSH1 0x40 SHL AND SWAP5 DUP4 PUSH1 0x40 MLOAD SWAP5 DUP6 SWAP3 PUSH1 0x20 DUP5 ADD SWAP9 DUP10 MSTORE DUP5 DUP5 ADD CALLDATACOPY DUP2 ADD DUP6 DUP4 DUP3 ADD MSTORE SUB ADD PUSH1 0x1F NOT DUP2 ADD DUP4 MSTORE DUP3 PUSH2 0x16FB JUMP JUMPDEST MLOAD SWAP3 GAS CALL PUSH2 0x12C5 PUSH2 0x174B JUMP JUMPDEST SWAP1 ISZERO PUSH2 0x13BA JUMPI JUMPDEST PUSH1 0x20 DUP2 MLOAD SWAP2 DUP2 DUP1 DUP3 ADD SWAP4 DUP5 SWAP3 ADD ADD SUB SLT PUSH2 0xC0F JUMPI MLOAD PUSH1 0x13 DUP2 SWAP1 SSTORE PUSH1 0x12 DUP1 SLOAD PUSH1 0xFF PUSH1 0xC0 SHL NOT AND PUSH1 0x1 PUSH1 0xC0 SHL OR SWAP1 SSTORE PUSH1 0x11 SLOAD PUSH1 0x1 PUSH1 0x1 PUSH1 0xA0 SHL SUB AND DUP1 PUSH2 0x1316 JUMPI JUMPDEST PUSH1 0x20 DUP3 PUSH1 0x40 MLOAD SWAP1 DUP2 MSTORE RETURN JUMPDEST DUP3 DUP1 SWAP2 PUSH1 0x40 MLOAD PUSH1 0x20 DUP2 ADD SWAP1 PUSH4 0x79EA9943 PUSH1 0xE0 SHL DUP3 MSTORE DUP6 PUSH1 0x24 DUP3 ADD MSTORE PUSH1 0x24 DUP2 MSTORE PUSH2 0x1340 PUSH1 0x44 DUP3 PUSH2 0x16FB JUMP JUMPDEST MLOAD SWAP2 GAS STATICCALL PUSH2 0x134C PUSH2 0x174B JUMP JUMPDEST SWAP1 ISZERO PUSH2 0x130B JUMPI PUSH1 0x20 DUP2 DUP1 MLOAD DUP2 ADD SUB SLT PUSH2 0x3FD JUMPI PUSH1 0x20 ADD MLOAD PUSH1 0x1 PUSH1 0x1 PUSH1 0xA0 SHL SUB DUP2 AND SWAP1 DUP2 SWAP1 SUB PUSH2 0x3FD JUMPI PUSH32 0x9ECFD97BF22760E90779A4364F3646D6CBB7E6207B75280C803CA569A34234A0 PUSH1 0x20 SWAP4 DUP3 PUSH12 0xFFFFFFFFFFFFFFFFFFFFFFFF PUSH1 0xA0 SHL PUSH1 0x14 SLOAD AND OR PUSH1 0x14 SSTORE DUP1 LOG2 CODESIZE PUSH2 0x130B JUMP JUMPDEST PUSH32 0x3C5AD147104E56BE34A9176A6692F7DF8D2F4B29A5AF06BC6B98970D329D6577 PUSH1 0x80 DUP3 MLOAD PUSH1 0x40 MLOAD SWAP1 PUSH1 0x40 DUP3 MSTORE PUSH1 0x13 PUSH1 0x40 DUP4 ADD MSTORE PUSH19 0x149959DA5CDD1C985D1A5BDB8819985A5B1959 PUSH1 0x6A SHL PUSH1 0x60 DUP4 ADD MSTORE PUSH1 0x20 DUP3 ADD MSTORE LOG1 DUP1 MLOAD ISZERO PUSH2 0x12CC JUMPI PUSH32 0xD54BA61ED4070561DCC6D272CDD44F051344B2C11B31180228F79DCB0003CF83 PUSH1 0x40 MLOAD PUSH1 0x40 DUP2 MSTORE PUSH1 0x11 PUSH1 0x40 DUP3 ADD MSTORE PUSH17 0x526567697374726174696F6E2064617461 PUSH1 0x78 SHL PUSH1 0x60 DUP3 ADD MSTORE PUSH1 0x80 PUSH1 0x20 DUP3 ADD MSTORE DUP1 PUSH2 0x1475 PUSH1 0x80 DUP3 ADD DUP6 PUSH2 0x16A4 JUMP JUMPDEST SUB SWAP1 LOG1 PUSH2 0x12CC JUMP JUMPDEST PUSH1 0x40 MLOAD PUSH3 0x461BCD PUSH1 0xE5 SHL DUP2 MSTORE PUSH1 0x20 PUSH1 0x4 DUP3 ADD MSTORE PUSH1 0x14 PUSH1 0x24 DUP3 ADD MSTORE PUSH20 0x13125392C8185C1C1C9BDD985B0819985A5B1959 PUSH1 0x62 SHL PUSH1 0x44 DUP3 ADD MSTORE PUSH1 0x64 SWAP1 REVERT JUMPDEST PUSH2 0x14D2 SWAP2 POP PUSH1 0x20 RETURNDATASIZE PUSH1 0x20 GT PUSH2 0x4BB JUMPI PUSH2 0x4AD DUP2 DUP4 PUSH2 0x16FB JUMP JUMPDEST CODESIZE PUSH2 0x1265 JUMP JUMPDEST POP CALLVALUE PUSH2 0x1A3 JUMPI DUP1 PUSH1 0x3 NOT CALLDATASIZE ADD SLT PUSH2 0x1A3 JUMPI PUSH1 0x20 PUSH1 0x6 SLOAD PUSH1 0x40 MLOAD SWAP1 DUP2 MSTORE RETURN JUMPDEST POP CALLVALUE PUSH2 0x1A3 JUMPI DUP1 PUSH1 0x3 NOT CALLDATASIZE ADD SLT PUSH2 0x1A3 JUMPI PUSH2 0x150F PUSH2 0x1894 JUMP JUMPDEST DUP1 SLOAD PUSH1 0xFF DUP2 PUSH1 0xA0 SHR AND ISZERO PUSH2 0x1555 JUMPI PUSH1 0xFF PUSH1 0xA0 SHL NOT AND DUP2 SSTORE PUSH1 0x40 MLOAD CALLER DUP2 MSTORE PUSH32 0x5DB9EE0A495BF2E6FF9C91A7834C1BA4FDD244A5E8AA4E537BD38AEAE4B073AA SWAP1 PUSH1 0x20 SWAP1 LOG1 DUP1 RETURN JUMPDEST PUSH4 0x8DFC202B PUSH1 0xE0 SHL DUP3 MSTORE PUSH1 0x4 DUP3 REVERT JUMPDEST POP CALLVALUE PUSH2 0x1A3 JUMPI DUP1 PUSH1 0x3 NOT CALLDATASIZE ADD SLT PUSH2 0x1A3 JUMPI PUSH1 0x2 SLOAD PUSH1 0x40 MLOAD PUSH1 0x1 PUSH1 0x1 PUSH1 0xA0 SHL SUB SWAP1 SWAP2 AND DUP2 MSTORE PUSH1 0x20 SWAP1 RETURN JUMPDEST POP CALLVALUE PUSH2 0x1A3 JUMPI PUSH1 0x20 CALLDATASIZE PUSH1 0x3 NOT ADD SLT PUSH2 0x1A3 JUMPI PUSH1 0x40 PUSH1 0x20 SWAP2 PUSH1 0x4 CALLDATALOAD DUP2 MSTORE PUSH1 0xF DUP4 MSTORE KECCAK256 SLOAD PUSH1 0x40 MLOAD SWAP1 DUP2 MSTORE RETURN JUMPDEST POP CALLVALUE PUSH2 0x1A3 JUMPI DUP1 PUSH1 0x3 NOT CALLDATASIZE ADD SLT PUSH2 0x1A3 JUMPI PUSH1 0x20 PUSH1 0x7 SLOAD PUSH1 0x40 MLOAD SWAP1 DUP2 MSTORE RETURN JUMPDEST POP CALLVALUE PUSH2 0x1A3 JUMPI DUP1 PUSH1 0x3 NOT CALLDATASIZE ADD SLT PUSH2 0x1A3 JUMPI PUSH1 0x20 PUSH1 0xFF PUSH1 0x8 SLOAD AND PUSH1 0x40 MLOAD SWAP1 ISZERO ISZERO DUP2 MSTORE RETURN JUMPDEST POP CALLVALUE PUSH2 0x1A3 JUMPI DUP1 PUSH1 0x3 NOT CALLDATASIZE ADD SLT PUSH2 0x1A3 JUMPI PUSH1 0x3 SLOAD PUSH1 0x40 MLOAD PUSH1 0x1 PUSH1 0x1 PUSH1 0xA0 SHL SUB SWAP1 SWAP2 AND DUP2 MSTORE PUSH1 0x20 SWAP1 RETURN JUMPDEST SWAP1 POP CALLVALUE PUSH2 0xC0F JUMPI DUP2 PUSH1 0x3 NOT CALLDATASIZE ADD SLT PUSH2 0xC0F JUMPI PUSH1 0x20 SWAP1 PUSH1 0x13 SLOAD DUP2 MSTORE RETURN JUMPDEST SWAP1 PUSH1 0x20 PUSH1 0x3 NOT DUP4 ADD SLT PUSH2 0x7BD JUMPI PUSH1 0x4 CALLDATALOAD PUSH8 0xFFFFFFFFFFFFFFFF DUP2 GT PUSH2 0x7BD JUMPI DUP3 PUSH1 0x23 DUP3 ADD SLT ISZERO PUSH2 0x7BD JUMPI DUP1 PUSH1 0x4 ADD CALLDATALOAD SWAP3 PUSH8 0xFFFFFFFFFFFFFFFF DUP5 GT PUSH2 0x7BD JUMPI PUSH1 0x24 DUP5 DUP4 ADD ADD GT PUSH2 0x7BD JUMPI PUSH1 0x24 ADD SWAP2 SWAP1 JUMP JUMPDEST PUSH1 0x40 SWAP1 PUSH1 0x3 NOT ADD SLT PUSH2 0x7BD JUMPI PUSH1 0x4 CALLDATALOAD SWAP1 PUSH1 0x24 CALLDATALOAD SWAP1 JUMP JUMPDEST SWAP2 SWAP1 DUP3 MLOAD SWAP3 DUP4 DUP3 MSTORE PUSH1 0x0 JUMPDEST DUP5 DUP2 LT PUSH2 0x16D0 JUMPI POP POP DUP3 PUSH1 0x0 PUSH1 0x20 DUP1 SWAP5 SWAP6 DUP5 ADD ADD MSTORE PUSH1 0x1F DUP1 NOT SWAP2 ADD AND ADD ADD SWAP1 JUMP JUMPDEST DUP1 PUSH1 0x20 DUP1 SWAP3 DUP5 ADD ADD MLOAD DUP3 DUP3 DUP7 ADD ADD MSTORE ADD PUSH2 0x16AF JUMP JUMPDEST PUSH1 0x4 CALLDATALOAD SWAP1 PUSH1 0x1 PUSH1 0x1 PUSH1 0xA0 SHL SUB DUP3 AND DUP3 SUB PUSH2 0x7BD JUMPI JUMP JUMPDEST SWAP1 PUSH1 0x1F DUP1 NOT SWAP2 ADD AND DUP2 ADD SWAP1 DUP2 LT PUSH8 0xFFFFFFFFFFFFFFFF DUP3 GT OR PUSH2 0x171D JUMPI PUSH1 0x40 MSTORE JUMP JUMPDEST PUSH4 0x4E487B71 PUSH1 0xE0 SHL PUSH1 0x0 MSTORE PUSH1 0x41 PUSH1 0x4 MSTORE PUSH1 0x24 PUSH1 0x0 REVERT JUMPDEST SWAP1 DUP2 PUSH1 0x20 SWAP2 SUB SLT PUSH2 0x7BD JUMPI MLOAD DUP1 ISZERO ISZERO DUP2 SUB PUSH2 0x7BD JUMPI SWAP1 JUMP JUMPDEST RETURNDATASIZE ISZERO PUSH2 0x1786 JUMPI RETURNDATASIZE SWAP1 PUSH8 0xFFFFFFFFFFFFFFFF DUP3 GT PUSH2 0x171D JUMPI PUSH1 0x40 MLOAD SWAP2 PUSH2 0x177A PUSH1 0x1F DUP3 ADD PUSH1 0x1F NOT AND PUSH1 0x20 ADD DUP5 PUSH2 0x16FB JUMP JUMPDEST DUP3 MSTORE RETURNDATASIZE PUSH1 0x0 PUSH1 0x20 DUP5 ADD RETURNDATACOPY JUMP JUMPDEST PUSH1 0x60 SWAP1 JUMP JUMPDEST ISZERO PUSH2 0x1792 JUMPI JUMP JUMPDEST PUSH1 0x40 MLOAD PUSH3 0x461BCD PUSH1 0xE5 SHL DUP2 MSTORE PUSH1 0x20 PUSH1 0x4 DUP3 ADD MSTORE PUSH1 0x17 PUSH1 0x24 DUP3 ADD MSTORE PUSH32 0x46756E647261697365722069732066696E616C697A6564000000000000000000 PUSH1 0x44 DUP3 ADD MSTORE PUSH1 0x64 SWAP1 REVERT JUMPDEST DUP2 DUP2 MUL SWAP3 SWAP2 DUP2 ISZERO SWAP2 DUP5 DIV EQ OR ISZERO PUSH2 0x17EA JUMPI JUMP JUMPDEST PUSH4 0x4E487B71 PUSH1 0xE0 SHL PUSH1 0x0 MSTORE PUSH1 0x11 PUSH1 0x4 MSTORE PUSH1 0x24 PUSH1 0x0 REVERT JUMPDEST SWAP2 SWAP1 DUP3 SUB SWAP2 DUP3 GT PUSH2 0x17EA JUMPI JUMP JUMPDEST ISZERO PUSH2 0x1814 JUMPI JUMP JUMPDEST PUSH1 0x40 MLOAD PUSH3 0x461BCD PUSH1 0xE5 SHL DUP2 MSTORE PUSH1 0x20 PUSH1 0x4 DUP3 ADD MSTORE PUSH1 0xD PUSH1 0x24 DUP3 ADD MSTORE PUSH13 0x1499599D5B990819985A5B1959 PUSH1 0x9A SHL PUSH1 0x44 DUP3 ADD MSTORE PUSH1 0x64 SWAP1 REVERT JUMPDEST ISZERO PUSH2 0x1850 JUMPI JUMP JUMPDEST PUSH1 0x40 MLOAD PUSH3 0x461BCD PUSH1 0xE5 SHL DUP2 MSTORE PUSH1 0x20 PUSH1 0x4 DUP3 ADD MSTORE PUSH1 0xF PUSH1 0x24 DUP3 ADD MSTORE PUSH15 0x151C985B9CD9995C8819985A5B1959 PUSH1 0x8A SHL PUSH1 0x44 DUP3 ADD MSTORE PUSH1 0x64 SWAP1 REVERT JUMPDEST SWAP2 SWAP1 DUP3 ADD DUP1 SWAP3 GT PUSH2 0x17EA JUMPI JUMP JUMPDEST PUSH1 0x0 SLOAD PUSH1 0x1 PUSH1 0x1 PUSH1 0xA0 SHL SUB AND CALLER SUB PUSH2 0x18A8 JUMPI JUMP JUMPDEST PUSH4 0x118CDAA7 PUSH1 0xE0 SHL PUSH1 0x0 MSTORE CALLER PUSH1 0x4 MSTORE PUSH1 0x24 PUSH1 0x0 REVERT JUMPDEST PUSH1 0x2 PUSH1 0x1 SLOAD EQ PUSH2 0x18CE JUMPI PUSH1 0x2 PUSH1 0x1 SSTORE JUMP JUMPDEST PUSH4 0x3EE5AEB5 PUSH1 0xE0 SHL PUSH1 0x0 MSTORE PUSH1 0x4 PUSH1 0x0 REVERT JUMPDEST PUSH1 0xFF PUSH1 0x0 SLOAD PUSH1 0xA0 SHR AND PUSH2 0x18EE JUMPI JUMP JUMPDEST PUSH4 0xD93C0665 PUSH1 0xE0 SHL PUSH1 0x0 MSTORE PUSH1 0x4 PUSH1 0x0 REVERT JUMPDEST PUSH1 0x2 SLOAD PUSH1 0x4 DUP1 SLOAD PUSH1 0xB SLOAD PUSH1 0x40 MLOAD PUSH4 0xA9059CBB PUSH1 0xE0 SHL DUP2 MSTORE PUSH1 0x1 PUSH1 0x1 PUSH1 0xA0 SHL SUB SWAP3 DUP4 AND SWAP4 DUP2 ADD SWAP4 SWAP1 SWAP4 MSTORE PUSH1 0x24 DUP4 ADD MSTORE SWAP1 SWAP2 PUSH1 0x20 SWAP2 DUP4 SWAP2 PUSH1 0x44 SWAP2 DUP4 SWAP2 PUSH1 0x0 SWAP2 AND GAS CALL DUP1 ISZERO PUSH2 0x1990 JUMPI PUSH2 0x1956 SWAP2 PUSH1 0x0 SWAP2 PUSH2 0x4CD JUMPI POP PUSH2 0x1849 JUMP JUMPDEST PUSH1 0x1 DUP1 PUSH1 0xA0 SHL SUB PUSH1 0x4 SLOAD AND PUSH32 0x221C08A06B07A64803B3787861A3F276212FCCCB51C2E6234077A9B8CB13047A PUSH1 0x20 PUSH1 0xB SLOAD PUSH1 0x40 MLOAD SWAP1 DUP2 MSTORE LOG2 JUMP JUMPDEST PUSH1 0x40 MLOAD RETURNDATASIZE PUSH1 0x0 DUP3 RETURNDATACOPY RETURNDATASIZE SWAP1 REVERT INVALID LOG2 PUSH5 0x6970667358 0x22 SLT KECCAK256 GASPRICE 0x4C LOG1 POP 0x4C 0xB0 OR CALL LOG4 0xFC 0xD8 BLOCKHASH 0xCB 0xB5 0xEC BALANCE 0xBF CALLCODE PUSH12 0xA9B4ABD8E2CFBCE85DC83760 PUSH26 0x64736F6C634300081B0033000000000000000000000000000000 "},"methodIdentifiers":{"beneficiaryWallet()":"c9788631","checkUpkeep(bytes)":"6e04ff0d","claimRefund(uint256)":"5b7baf64","deadline()":"29dcb0cf","deposit(uint256,uint256)":"e2bbb158","deposits(address)":"fc7e286d","emergencyWithdraw(address,uint256)":"95ccea67","enforceConditions()":"2897f6a0","feePercentage()":"a001ecdd","feeWallet()":"f25f4b56","finalize()":"4bb278f3","finalized()":"b3f05b97","getStationUpkeepID()":"02f8baa1","initializeChainlink(bytes)":"4232d7f8","minimumTarget()":"42235da6","owner()":"8da5cb5b","pause()":"8456cb59","paused()":"5c975abb","performUpkeep(bytes)":"4585e33b","productPrices(uint256)":"38eb6a19","productToken()":"25b4f65f","renounceOwnership()":"715018a6","setProductPrice(uint256,uint256)":"44d3498a","tokenDeposits(uint256)":"66bff1db","totalRaised()":"c5c4744c","transferOwnership(address)":"f2fde38b","unpause()":"3f4ba83a","updateDeadline(uint256)":"42af1884","updateFeePercentage(uint256)":"6cad3fb0","usdc()":"3e413bee"}}}}}