{"contracts/ProductToken.sol":{"ProductToken":{"abi":[{"inputs":[{"internalType":"string","name":"baseUri","type":"string"}],"stateMutability":"nonpayable","type":"constructor"},{"inputs":[],"name":"AccessControlBadConfirmation","type":"error"},{"inputs":[{"internalType":"address","name":"account","type":"address"},{"internalType":"bytes32","name":"neededRole","type":"bytes32"}],"name":"AccessControlUnauthorizedAccount","type":"error"},{"inputs":[{"internalType":"address","name":"sender","type":"address"},{"internalType":"uint256","name":"balance","type":"uint256"},{"internalType":"uint256","name":"needed","type":"uint256"},{"internalType":"uint256","name":"tokenId","type":"uint256"}],"name":"ERC1155InsufficientBalance","type":"error"},{"inputs":[{"internalType":"address","name":"approver","type":"address"}],"name":"ERC1155InvalidApprover","type":"error"},{"inputs":[{"internalType":"uint256","name":"idsLength","type":"uint256"},{"internalType":"uint256","name":"valuesLength","type":"uint256"}],"name":"ERC1155InvalidArrayLength","type":"error"},{"inputs":[{"internalType":"address","name":"operator","type":"address"}],"name":"ERC1155InvalidOperator","type":"error"},{"inputs":[{"internalType":"address","name":"receiver","type":"address"}],"name":"ERC1155InvalidReceiver","type":"error"},{"inputs":[{"internalType":"address","name":"sender","type":"address"}],"name":"ERC1155InvalidSender","type":"error"},{"inputs":[{"internalType":"address","name":"operator","type":"address"},{"internalType":"address","name":"owner","type":"address"}],"name":"ERC1155MissingApprovalForAll","type":"error"},{"anonymous":false,"inputs":[{"indexed":true,"internalType":"address","name":"account","type":"address"},{"indexed":true,"internalType":"address","name":"operator","type":"address"},{"indexed":false,"internalType":"bool","name":"approved","type":"bool"}],"name":"ApprovalForAll","type":"event"},{"anonymous":false,"inputs":[{"indexed":false,"internalType":"string","name":"newUri","type":"string"}],"name":"BaseURIUpdated","type":"event"},{"anonymous":false,"inputs":[{"indexed":true,"internalType":"address","name":"to","type":"address"},{"indexed":true,"internalType":"uint256","name":"productId","type":"uint256"},{"indexed":false,"internalType":"uint256","name":"amount","type":"uint256"}],"name":"ProductMinted","type":"event"},{"anonymous":false,"inputs":[{"indexed":true,"internalType":"bytes32","name":"role","type":"bytes32"},{"indexed":true,"internalType":"bytes32","name":"previousAdminRole","type":"bytes32"},{"indexed":true,"internalType":"bytes32","name":"newAdminRole","type":"bytes32"}],"name":"RoleAdminChanged","type":"event"},{"anonymous":false,"inputs":[{"indexed":true,"internalType":"bytes32","name":"role","type":"bytes32"},{"indexed":true,"internalType":"address","name":"account","type":"address"},{"indexed":true,"internalType":"address","name":"sender","type":"address"}],"name":"RoleGranted","type":"event"},{"anonymous":false,"inputs":[{"indexed":true,"internalType":"bytes32","name":"role","type":"bytes32"},{"indexed":true,"internalType":"address","name":"account","type":"address"},{"indexed":true,"internalType":"address","name":"sender","type":"address"}],"name":"RoleRevoked","type":"event"},{"anonymous":false,"inputs":[{"indexed":true,"internalType":"address","name":"operator","type":"address"},{"indexed":true,"internalType":"address","name":"from","type":"address"},{"indexed":true,"internalType":"address","name":"to","type":"address"},{"indexed":false,"internalType":"uint256[]","name":"ids","type":"uint256[]"},{"indexed":false,"internalType":"uint256[]","name":"values","type":"uint256[]"}],"name":"TransferBatch","type":"event"},{"anonymous":false,"inputs":[{"indexed":true,"internalType":"address","name":"operator","type":"address"},{"indexed":true,"internalType":"address","name":"from","type":"address"},{"indexed":true,"internalType":"address","name":"to","type":"address"},{"indexed":false,"internalType":"uint256","name":"id","type":"uint256"},{"indexed":false,"internalType":"uint256","name":"value","type":"uint256"}],"name":"TransferSingle","type":"event"},{"anonymous":false,"inputs":[{"indexed":false,"internalType":"string","name":"value","type":"string"},{"indexed":true,"internalType":"uint256","name":"id","type":"uint256"}],"name":"URI","type":"event"},{"inputs":[],"name":"DEFAULT_ADMIN_ROLE","outputs":[{"internalType":"bytes32","name":"","type":"bytes32"}],"stateMutability":"view","type":"function"},{"inputs":[],"name":"MINTER_ROLE","outputs":[{"internalType":"bytes32","name":"","type":"bytes32"}],"stateMutability":"view","type":"function"},{"inputs":[{"internalType":"address","name":"account","type":"address"},{"internalType":"uint256","name":"id","type":"uint256"}],"name":"balanceOf","outputs":[{"internalType":"uint256","name":"","type":"uint256"}],"stateMutability":"view","type":"function"},{"inputs":[{"internalType":"address[]","name":"accounts","type":"address[]"},{"internalType":"uint256[]","name":"ids","type":"uint256[]"}],"name":"balanceOfBatch","outputs":[{"internalType":"uint256[]","name":"","type":"uint256[]"}],"stateMutability":"view","type":"function"},{"inputs":[{"internalType":"address","name":"from","type":"address"},{"internalType":"uint256","name":"productId","type":"uint256"},{"internalType":"uint256","name":"amount","type":"uint256"}],"name":"burn","outputs":[],"stateMutability":"nonpayable","type":"function"},{"inputs":[{"internalType":"bytes32","name":"role","type":"bytes32"}],"name":"getRoleAdmin","outputs":[{"internalType":"bytes32","name":"","type":"bytes32"}],"stateMutability":"view","type":"function"},{"inputs":[{"internalType":"bytes32","name":"role","type":"bytes32"},{"internalType":"address","name":"account","type":"address"}],"name":"grantRole","outputs":[],"stateMutability":"nonpayable","type":"function"},{"inputs":[{"internalType":"bytes32","name":"role","type":"bytes32"},{"internalType":"address","name":"account","type":"address"}],"name":"hasRole","outputs":[{"internalType":"bool","name":"","type":"bool"}],"stateMutability":"view","type":"function"},{"inputs":[{"internalType":"address","name":"account","type":"address"},{"internalType":"address","name":"operator","type":"address"}],"name":"isApprovedForAll","outputs":[{"internalType":"bool","name":"","type":"bool"}],"stateMutability":"view","type":"function"},{"inputs":[{"internalType":"address","name":"to","type":"address"},{"internalType":"uint256","name":"productId","type":"uint256"},{"internalType":"uint256","name":"amount","type":"uint256"}],"name":"mint","outputs":[],"stateMutability":"nonpayable","type":"function"},{"inputs":[{"internalType":"uint256","name":"productId","type":"uint256"}],"name":"productSupply","outputs":[{"internalType":"uint256","name":"","type":"uint256"}],"stateMutability":"view","type":"function"},{"inputs":[{"internalType":"bytes32","name":"role","type":"bytes32"},{"internalType":"address","name":"callerConfirmation","type":"address"}],"name":"renounceRole","outputs":[],"stateMutability":"nonpayable","type":"function"},{"inputs":[{"internalType":"bytes32","name":"role","type":"bytes32"},{"internalType":"address","name":"account","type":"address"}],"name":"revokeRole","outputs":[],"stateMutability":"nonpayable","type":"function"},{"inputs":[{"internalType":"address","name":"from","type":"address"},{"internalType":"address","name":"to","type":"address"},{"internalType":"uint256[]","name":"ids","type":"uint256[]"},{"internalType":"uint256[]","name":"values","type":"uint256[]"},{"internalType":"bytes","name":"data","type":"bytes"}],"name":"safeBatchTransferFrom","outputs":[],"stateMutability":"nonpayable","type":"function"},{"inputs":[{"internalType":"address","name":"from","type":"address"},{"internalType":"address","name":"to","type":"address"},{"internalType":"uint256","name":"id","type":"uint256"},{"internalType":"uint256","name":"value","type":"uint256"},{"internalType":"bytes","name":"data","type":"bytes"}],"name":"safeTransferFrom","outputs":[],"stateMutability":"nonpayable","type":"function"},{"inputs":[{"internalType":"address","name":"operator","type":"address"},{"internalType":"bool","name":"approved","type":"bool"}],"name":"setApprovalForAll","outputs":[],"stateMutability":"nonpayable","type":"function"},{"inputs":[{"internalType":"string","name":"newUri","type":"string"}],"name":"setBaseURI","outputs":[],"stateMutability":"nonpayable","type":"function"},{"inputs":[{"internalType":"bytes4","name":"interfaceId","type":"bytes4"}],"name":"supportsInterface","outputs":[{"internalType":"bool","name":"","type":"bool"}],"stateMutability":"view","type":"function"},{"inputs":[{"internalType":"uint256","name":"tokenId","type":"uint256"}],"name":"uri","outputs":[{"internalType":"string","name":"","type":"string"}],"stateMutability":"view","type":"function"}],"evm":{"bytecode":{"linkReferences":{},"object":"6080604052346102a5576000611eaf908138038061001c816102aa565b9384398201916020818403126102a1578051906001600160401b038211610289570182601f820112156102a1578051906001600160401b03821161028d5761006d601f8301601f19166020016102aa565b938285526020838301011161028957908291825b828110610272575050602090840101526020908061009e836102aa565b5250600254600181811c91168015610268575b8282101461020557601f811161023b575b5060006002558151906001600160401b03821161022557600554600181811c9116801561021b575b8282101461020557601f81116101be575b5080601f83116001146101575750819260009261014c575b50508160011b916000199060031b1c1916176005555b610132336102cf565b5061013c3361034b565b50604051611a6b90816103e48239f35b015190503880610113565b90601f19831693600560005282600020926000905b8682106101a6575050836001951061018d575b505050811b01600555610129565b015160001960f88460031b161c1916905538808061017f565b8060018596829496860151815501950193019061016c565b600560005281600020601f840160051c8101918385106101fb575b601f0160051c01905b8181106101ef57506100fb565b600081556001016101e2565b90915081906101d9565b634e487b7160e01b600052602260045260246000fd5b90607f16906100ea565b634e487b7160e01b600052604160045260246000fd5b6002600052601f82600020910160051c8101905b81811061025c57506100c2565b6000815560010161024f565b90607f16906100b1565b602082820181015187830182015285945001610081565b8280fd5b634e487b7160e01b83526041600452602483fd5b5080fd5b600080fd5b6040519190601f01601f191682016001600160401b0381118382101761022557604052565b6001600160a01b0381166000908152600080516020611e8f833981519152602052604090205460ff16610345576001600160a01b03166000818152600080516020611e8f83398151915260205260408120805460ff19166001179055339190600080516020611e4f8339815191528180a4600190565b50600090565b6001600160a01b0381166000908152600080516020611e6f833981519152602052604090205460ff16610345576001600160a01b03166000818152600080516020611e6f83398151915260205260408120805460ff191660011790553391907f9f2df0fed2c77648de5860a4cc508cd0818c85b8b8a1ab4ceeef8d981c8956a690600080516020611e4f8339815191529080a460019056fe6080604052600436101561001257600080fd5b60003560e01c8062fdd58e1461014657806301ffc9a7146101415780630e89341c1461013c578063156e29f614610137578063248a9ca3146101325780632eb2c2d61461012d5780632f2ff15d1461012857806336568abe146101235780634e1273f41461011e57806355f804b31461011957806391d1485414610114578063a217fddf1461010f578063a22cb4651461010a578063d539139314610105578063d547741f14610100578063e985e9c5146100fb578063ef8593e7146100f6578063f242432a146100f15763f5298aca146100ec57600080fd5b610f2b565b610e31565b610e05565b610db4565b610d74565b610d39565b610c80565b610c64565b610c11565b610a87565b6109c6565b61093b565b6108f6565b610867565b610712565b6104b7565b6102d4565b6101ef565b610190565b600435906001600160a01b038216820361016157565b600080fd5b602435906001600160a01b038216820361016157565b35906001600160a01b038216820361016157565b346101615760403660031901126101615760206101d46101ae61014b565b6024356000526000835260406000209060018060a01b0316600052602052604060002090565b54604051908152f35b6001600160e01b031981160361016157565b346101615760203660031901126101615760043561020c816101dd565b63ffffffff60e01b16637965db0b60e01b8114908115610235575b506040519015158152602090f35b636cdb3d1360e11b811491508115610267575b8115610256575b5038610227565b6301ffc9a760e01b1490503861024f565b6303a24d0760e21b81149150610248565b60005b83811061028b5750506000910152565b818101518382015260200161027b565b906020916102b481518092818552858086019101610278565b601f01601f1916010190565b9060206102d192818152019061029b565b90565b346101615760203660031901126101615760006004358072184f03e93ff9f4daa797ed6e38ed64bf6a1f0160401b81101561046a575b806d04ee2d6d415b85acef8100000000600a92101561044e575b662386f26fc10000811015610439575b6305f5e100811015610427575b612710811015610417575b6064811015610408575b10156103fd575b61039a602161036e6001850161136f565b938401015b60001901916f181899199a1a9b1b9c1cb0b131b232b360811b600a82061a8353600a900490565b9081156103aa5761039a90610373565b6040516103f9906103ed816103df6103ce886103c860208501611118565b906111a1565b64173539b7b760d91b815260050190565b03601f19810183528261075d565b604051918291826102c0565b0390f35b60019091019061035d565b60029060649004930192610356565b600490612710900493019261034c565b6008906305f5e1009004930192610341565b601090662386f26fc100009004930192610334565b6020906d04ee2d6d415b85acef81000000009004930192610324565b506040915072184f03e93ff9f4daa797ed6e38ed64bf6a1f0160401b810461030a565b6060906003190112610161576004356001600160a01b038116810361016157906024359060443590565b34610161576104c53661048d565b90916104cf6113a1565b826000526004602052604060002080549083820180921161070d57556040519060206104fb818461075d565b600083526001600160a01b0382169081156106f75761053a85879160405192600184526020840152604083019160018352606084015260808301604052565b9281518451908181036106e057509596811515965060005b83518110156105c35780888860019360051b8880828a010151918b0101519261057f575b50505001610552565b6105b99161059a6105b1926000526000602052604060002090565b9060018060a01b0316600052602052604060002090565b9182546111ce565b9055388881610576565b509361066495919792937f1ace3364065011f2a2f041ccf777c9f5394104fb5c15ec40e2ed753531e33b219760018651146000146106a357896000838801517fc3d58168c5ae7397731d063d5bbf3d657854427343f4c083240f7aacaa2d0f626106458688015160405191829133958360209093929193604081019481520152565b0390a45b610669575b5050505050604051918291829190602083019252565b0390a3005b845160010361068f578061068595015191015191600033611995565b388080808061064e565b50909261069e93600033611860565b610685565b8960006040517f4a39dc06d4c0dbc64b70af90fd698a233a518aa5d07e595d983b8c0526c8f7fb3391806106d8898d836117a3565b0390a4610649565b635b05999160e01b60005260045260245260446000fd5b632bfa23e760e11b600052600060045260246000fd5b6111b8565b3461016157602036600319011261016157602061073f600435600052600360205260016040600020015490565b604051908152f35b634e487b7160e01b600052604160045260246000fd5b90601f8019910116810190811067ffffffffffffffff82111761077f57604052565b610747565b67ffffffffffffffff811161077f5760051b60200190565b9080601f830112156101615781356107b381610784565b926107c1604051948561075d565b81845260208085019260051b82010192831161016157602001905b8282106107e95750505090565b81358152602091820191016107dc565b67ffffffffffffffff811161077f57601f01601f191660200190565b929192610821826107f9565b9161082f604051938461075d565b829481845281830111610161578281602093846000960137010152565b9080601f83011215610161578160206102d193359101610815565b346101615760a03660031901126101615761088061014b565b610888610166565b9060443567ffffffffffffffff8111610161576108a990369060040161079c565b60643567ffffffffffffffff8111610161576108c990369060040161079c565b906084359367ffffffffffffffff8511610161576108ee6108f495369060040161084c565b936111db565b005b34610161576040366003190112610161576108f4600435610915610166565b9061093661093182600052600360205260016040600020015490565b611466565b6114a3565b3461016157604036600319011261016157600435610957610166565b336001600160a01b03821603610970576108f491611537565b63334bd91960e11b60005260046000fd5b906020808351928381520192019060005b81811061099f5750505090565b8251845260209384019390920191600101610992565b9060206102d1928181520190610981565b346101615760403660031901126101615760043567ffffffffffffffff8111610161573660238201121561016157806004013590610a0382610784565b91610a11604051938461075d565b8083526024602084019160051b8301019136831161016157602401905b828210610a6f578360243567ffffffffffffffff8111610161576103f991610a5d610a6392369060040161079c565b90611264565b604051918291826109b5565b60208091610a7c8461017c565b815201910190610a2e565b346101615760203660031901126101615760043567ffffffffffffffff8111610161573660238201121561016157610ac9903690602481600401359101610815565b610ad1611413565b805167ffffffffffffffff811161077f57610af681610af16005546110de565b61131c565b6020601f8211600114610b695791610b4a82610b59937f6741b2fc379fad678116fe3d4d4b9a1a184ab53ba36b86ad0fa66340b1ab41ad95600091610b5e575b508160011b916000199060031b1c19161790565b600555604051918291826102c0565b0390a1005b905083015138610b36565b6005600052601f198216907f036b6384b5eca791c62761152d0c79bb0604c104a5fb6f4eb0703f3154bb3db09160005b818110610bf95750927f6741b2fc379fad678116fe3d4d4b9a1a184ab53ba36b86ad0fa66340b1ab41ad949260019282610b599610610be0575b5050811b016005556103ed565b84015160001960f88460031b161c191690553880610bd3565b91926020600181928689015181550194019201610b99565b3461016157604036600319011261016157602060ff610c58600435610c34610166565b906000526003845260406000209060018060a01b0316600052602052604060002090565b54166040519015158152f35b3461016157600036600319011261016157602060405160008152f35b3461016157604036600319011261016157610c9961014b565b6024359081151590818303610161576001600160a01b038116928315610d2457610ce5610cf69233600052600160205260406000209060018060a01b0316600052602052604060002090565b9060ff801983541691151516179055565b6040519081527f17307eab39ab6107e8899845ad3d59bd9653f200f220920489ca2b5937696c3160203392a3005b62ced3e160e81b600052600060045260246000fd5b346101615760003660031901126101615760206040517f9f2df0fed2c77648de5860a4cc508cd0818c85b8b8a1ab4ceeef8d981c8956a68152f35b34610161576040366003190112610161576108f4600435610d93610166565b90610daf61093182600052600360205260016040600020015490565b611537565b3461016157604036600319011261016157602060ff610c58610dd461014b565b610ddc610166565b6001600160a01b0391821660009081526001865260408082209290931681526020919091522090565b346101615760203660031901126101615760043560005260046020526020604060002054604051908152f35b346101615760a036600319011261016157610e4a61014b565b610e52610166565b604435906064359260843567ffffffffffffffff811161016157610e7a90369060040161084c565b926001600160a01b0382163381141580610f07575b610eef576001600160a01b038416156106f75715610eda576108f494610ed260405192600184526020840152604083019160018352606084015260808301604052565b9290916115c2565b626a0d4560e21b600052600060045260246000fd5b63711bec9160e11b6000523360045260245260446000fd5b50600081815260016020908152604080832033845290915290205460ff1615610e8f565b3461016157610f393661048d565b610f416113a1565b6001600160a01b038316918215610eda57610f7c82829160405192600184526020840152604083019160018352606084015260808301604052565b926020926000604051610f8f868261075d565b5282518551908181036106e057505060005b8351811015611037578060051b858082870101519188010151610fd28a61059a846000526000602052604060002090565b54818110611000578a61059a6001959493610ff99303936000526000602052604060002090565b5501610fa1565b6040516303dee4c560e01b81526001600160a01b038c16600482015260248101919091526044810182905260648101839052608490fd5b5091946000919560049585600183511485146110a2579182015191015160408051928352602083019190915233917fc3d58168c5ae7397731d063d5bbf3d657854427343f4c083240f7aacaa2d0f629190a45b600052526040600020805491820391821161070d5755005b506110d67f4a39dc06d4c0dbc64b70af90fd698a233a518aa5d07e595d983b8c0526c8f7fb916040519182913395836117a3565b0390a461108a565b90600182811c9216801561110e575b60208310146110f857565b634e487b7160e01b600052602260045260246000fd5b91607f16916110ed565b60055460009291611128826110de565b916001811690811561118f5750600114611140575050565b6005600090815292935090917f036b6384b5eca791c62761152d0c79bb0604c104a5fb6f4eb0703f3154bb3db05b83821061117b5750500190565b60018160209254848601520191019061116e565b60ff1916825250811515909102019150565b906111b460209282815194859201610278565b0190565b634e487b7160e01b600052601160045260246000fd5b9190820180921161070d57565b939291906001600160a01b0385163381141580611216575b610eef576001600160a01b038216156106f75715610eda57611214946115c2565b565b50600081815260016020908152604080832033845290915290205460ff16156111f3565b805182101561124e5760209160051b010190565b634e487b7160e01b600052603260045260246000fd5b9190918051835180820361130557505080519061128082610784565b9161128e604051938461075d565b80835261129d601f1991610784565b0136602084013760005b81518110156112fe57806112ed60019260051b60208082870101519189010151906000918252602082815260408084206001600160a01b03909316845291905290205490565b6112f7828661123a565b52016112a7565b5090925050565b635b05999160e01b60005260045260245260446000fd5b601f8111611328575050565b60056000526020600020906020601f840160051c83019310611365575b601f0160051c01905b818110611359575050565b6000815560010161134e565b9091508190611345565b90611379826107f9565b611386604051918261075d565b8281528092611397601f19916107f9565b0190602036910137565b3360009081527f5562e70da342db81569f3094d36be279beaca7ad8e08f434ea188e79d2bfe10c602052604090205460ff16156113da57565b63e2517d3f60e01b600052336004527f9f2df0fed2c77648de5860a4cc508cd0818c85b8b8a1ab4ceeef8d981c8956a660245260446000fd5b3360009081527f3617319a054d772f909f7c479a2cebe5066e836a939412e32403c99029b92eff602052604090205460ff161561144c57565b63e2517d3f60e01b60005233600452600060245260446000fd5b600081815260036020908152604080832033845290915290205460ff161561148b5750565b63e2517d3f60e01b6000523360045260245260446000fd5b60008181526003602090815260408083206001600160a01b038616845290915290205460ff166115305760008181526003602090815260408083206001600160a01b03861684529091529020805460ff1916600117905533916001600160a01b0316907f2f8788117e7eff1d82e926ec794901d17c78024a50270940304540a733656f0d600080a4600190565b5050600090565b60008181526003602090815260408083206001600160a01b038616845290915290205460ff16156115305760008181526003602090815260408083206001600160a01b03861684529091529020805460ff1916905533916001600160a01b0316907ff6391f5c32d9c69d2a47ea670b442974b53935d1edc7fd64eb21e047a839171b600080a4600190565b94939290919384518251908181036106e05750506001600160a01b0386811695861515959185168015159391929060005b84518110156116d5578060051b90898988602080868b010151958c0101519261164e575b93600194611629575b505050016115f3565b6116449161059a6105b1926000526000602052604060002090565b9055388981611620565b5050909161166a8d61059a836000526000602052604060002090565b5482811061169e578291898f611695600197968f95039161059a856000526000602052604060002090565b55909450611617565b6040516303dee4c560e01b81526001600160a01b038f16600482015260248101919091526044810183905260648101829052608490fd5b5091989593929790965060018851146000146117695760208881015186820151604080519283529282015233917fc3d58168c5ae7397731d063d5bbf3d657854427343f4c083240f7aacaa2d0f6291a45b611732575b5050505050565b84516001036117585760208061174e9601519201519233611995565b388080808061172b565b61176494919233611860565b61174e565b6040517f4a39dc06d4c0dbc64b70af90fd698a233a518aa5d07e595d983b8c0526c8f7fb33918061179b898d836117a3565b0390a4611726565b90916117ba6102d193604084526040840190610981565b916020818403910152610981565b9081602091031261016157516102d1816101dd565b6001600160a01b0391821681529116602082015260a0604082018190526102d1949193919261182292916118149190860190610981565b908482036060860152610981565b91608081840391015261029b565b3d1561185b573d90611841826107f9565b9161184f604051938461075d565b82523d6000602084013e565b606090565b9091949293853b611874575b505050505050565b60209361189691604051968795869563bc197c8160e01b8752600487016117dd565b038160006001600160a01b0387165af16000918161192b575b506118eb57506118bd611830565b80519190826118e457632bfa23e760e11b6000526001600160a01b03821660045260246000fd5b9050602001fd5b6001600160e01b0319166343e6837f60e01b0161190e575038808080808061186c565b632bfa23e760e11b6000526001600160a01b031660045260246000fd5b61194e91925060203d602011611955575b611946818361075d565b8101906117c8565b90386118af565b503d61193c565b6001600160a01b039182168152911660208201526040810191909152606081019190915260a0608082018190526102d19291019061029b565b9091949293853b6119a857505050505050565b6020936119ca91604051968795869563f23a6e6160e01b87526004870161195c565b038160006001600160a01b0387165af160009181611a14575b506119f157506118bd611830565b6001600160e01b031916630dc5919f60e01b0161190e575038808080808061186c565b611a2e91925060203d60201161195557611946818361075d565b90386119e356fea2646970667358221220991cc3b76147d5e1fa6850a4beafea47843a8b9d350ad78f01b4c211df67e99864736f6c634300081b00332f8788117e7eff1d82e926ec794901d17c78024a50270940304540a733656f0d5562e70da342db81569f3094d36be279beaca7ad8e08f434ea188e79d2bfe10c3617319a054d772f909f7c479a2cebe5066e836a939412e32403c99029b92eff","opcodes":"PUSH1 0x80 PUSH1 0x40 MSTORE CALLVALUE PUSH2 0x2A5 JUMPI PUSH1 0x0 PUSH2 0x1EAF SWAP1 DUP2 CODESIZE SUB DUP1 PUSH2 0x1C DUP2 PUSH2 0x2AA JUMP JUMPDEST SWAP4 DUP5 CODECOPY DUP3 ADD SWAP2 PUSH1 0x20 DUP2 DUP5 SUB SLT PUSH2 0x2A1 JUMPI DUP1 MLOAD SWAP1 PUSH1 0x1 PUSH1 0x1 PUSH1 0x40 SHL SUB DUP3 GT PUSH2 0x289 JUMPI ADD DUP3 PUSH1 0x1F DUP3 ADD SLT ISZERO PUSH2 0x2A1 JUMPI DUP1 MLOAD SWAP1 PUSH1 0x1 PUSH1 0x1 PUSH1 0x40 SHL SUB DUP3 GT PUSH2 0x28D JUMPI PUSH2 0x6D PUSH1 0x1F DUP4 ADD PUSH1 0x1F NOT AND PUSH1 0x20 ADD PUSH2 0x2AA JUMP JUMPDEST SWAP4 DUP3 DUP6 MSTORE PUSH1 0x20 DUP4 DUP4 ADD ADD GT PUSH2 0x289 JUMPI SWAP1 DUP3 SWAP2 DUP3 JUMPDEST DUP3 DUP2 LT PUSH2 0x272 JUMPI POP POP PUSH1 0x20 SWAP1 DUP5 ADD ADD MSTORE PUSH1 0x20 SWAP1 DUP1 PUSH2 0x9E DUP4 PUSH2 0x2AA JUMP JUMPDEST MSTORE POP PUSH1 0x2 SLOAD PUSH1 0x1 DUP2 DUP2 SHR SWAP2 AND DUP1 ISZERO PUSH2 0x268 JUMPI JUMPDEST DUP3 DUP3 LT EQ PUSH2 0x205 JUMPI PUSH1 0x1F DUP2 GT PUSH2 0x23B JUMPI JUMPDEST POP PUSH1 0x0 PUSH1 0x2 SSTORE DUP2 MLOAD SWAP1 PUSH1 0x1 PUSH1 0x1 PUSH1 0x40 SHL SUB DUP3 GT PUSH2 0x225 JUMPI PUSH1 0x5 SLOAD PUSH1 0x1 DUP2 DUP2 SHR SWAP2 AND DUP1 ISZERO PUSH2 0x21B JUMPI JUMPDEST DUP3 DUP3 LT EQ PUSH2 0x205 JUMPI PUSH1 0x1F DUP2 GT PUSH2 0x1BE JUMPI JUMPDEST POP DUP1 PUSH1 0x1F DUP4 GT PUSH1 0x1 EQ PUSH2 0x157 JUMPI POP DUP2 SWAP3 PUSH1 0x0 SWAP3 PUSH2 0x14C JUMPI JUMPDEST POP POP DUP2 PUSH1 0x1 SHL SWAP2 PUSH1 0x0 NOT SWAP1 PUSH1 0x3 SHL SHR NOT AND OR PUSH1 0x5 SSTORE JUMPDEST PUSH2 0x132 CALLER PUSH2 0x2CF JUMP JUMPDEST POP PUSH2 0x13C CALLER PUSH2 0x34B JUMP JUMPDEST POP PUSH1 0x40 MLOAD PUSH2 0x1A6B SWAP1 DUP2 PUSH2 0x3E4 DUP3 CODECOPY RETURN JUMPDEST ADD MLOAD SWAP1 POP CODESIZE DUP1 PUSH2 0x113 JUMP JUMPDEST SWAP1 PUSH1 0x1F NOT DUP4 AND SWAP4 PUSH1 0x5 PUSH1 0x0 MSTORE DUP3 PUSH1 0x0 KECCAK256 SWAP3 PUSH1 0x0 SWAP1 JUMPDEST DUP7 DUP3 LT PUSH2 0x1A6 JUMPI POP POP DUP4 PUSH1 0x1 SWAP6 LT PUSH2 0x18D JUMPI JUMPDEST POP POP POP DUP2 SHL ADD PUSH1 0x5 SSTORE PUSH2 0x129 JUMP JUMPDEST ADD MLOAD PUSH1 0x0 NOT PUSH1 0xF8 DUP5 PUSH1 0x3 SHL AND SHR NOT AND SWAP1 SSTORE CODESIZE DUP1 DUP1 PUSH2 0x17F JUMP JUMPDEST DUP1 PUSH1 0x1 DUP6 SWAP7 DUP3 SWAP5 SWAP7 DUP7 ADD MLOAD DUP2 SSTORE ADD SWAP6 ADD SWAP4 ADD SWAP1 PUSH2 0x16C JUMP JUMPDEST PUSH1 0x5 PUSH1 0x0 MSTORE DUP2 PUSH1 0x0 KECCAK256 PUSH1 0x1F DUP5 ADD PUSH1 0x5 SHR DUP2 ADD SWAP2 DUP4 DUP6 LT PUSH2 0x1FB JUMPI JUMPDEST PUSH1 0x1F ADD PUSH1 0x5 SHR ADD SWAP1 JUMPDEST DUP2 DUP2 LT PUSH2 0x1EF JUMPI POP PUSH2 0xFB JUMP JUMPDEST PUSH1 0x0 DUP2 SSTORE PUSH1 0x1 ADD PUSH2 0x1E2 JUMP JUMPDEST SWAP1 SWAP2 POP DUP2 SWAP1 PUSH2 0x1D9 JUMP JUMPDEST PUSH4 0x4E487B71 PUSH1 0xE0 SHL PUSH1 0x0 MSTORE PUSH1 0x22 PUSH1 0x4 MSTORE PUSH1 0x24 PUSH1 0x0 REVERT JUMPDEST SWAP1 PUSH1 0x7F AND SWAP1 PUSH2 0xEA JUMP JUMPDEST PUSH4 0x4E487B71 PUSH1 0xE0 SHL PUSH1 0x0 MSTORE PUSH1 0x41 PUSH1 0x4 MSTORE PUSH1 0x24 PUSH1 0x0 REVERT JUMPDEST PUSH1 0x2 PUSH1 0x0 MSTORE PUSH1 0x1F DUP3 PUSH1 0x0 KECCAK256 SWAP2 ADD PUSH1 0x5 SHR DUP2 ADD SWAP1 JUMPDEST DUP2 DUP2 LT PUSH2 0x25C JUMPI POP PUSH2 0xC2 JUMP JUMPDEST PUSH1 0x0 DUP2 SSTORE PUSH1 0x1 ADD PUSH2 0x24F JUMP JUMPDEST SWAP1 PUSH1 0x7F AND SWAP1 PUSH2 0xB1 JUMP JUMPDEST PUSH1 0x20 DUP3 DUP3 ADD DUP2 ADD MLOAD DUP8 DUP4 ADD DUP3 ADD MSTORE DUP6 SWAP5 POP ADD PUSH2 0x81 JUMP JUMPDEST DUP3 DUP1 REVERT JUMPDEST PUSH4 0x4E487B71 PUSH1 0xE0 SHL DUP4 MSTORE PUSH1 0x41 PUSH1 0x4 MSTORE PUSH1 0x24 DUP4 REVERT JUMPDEST POP DUP1 REVERT JUMPDEST PUSH1 0x0 DUP1 REVERT JUMPDEST PUSH1 0x40 MLOAD SWAP2 SWAP1 PUSH1 0x1F ADD PUSH1 0x1F NOT AND DUP3 ADD PUSH1 0x1 PUSH1 0x1 PUSH1 0x40 SHL SUB DUP2 GT DUP4 DUP3 LT OR PUSH2 0x225 JUMPI PUSH1 0x40 MSTORE JUMP JUMPDEST PUSH1 0x1 PUSH1 0x1 PUSH1 0xA0 SHL SUB DUP2 AND PUSH1 0x0 SWAP1 DUP2 MSTORE PUSH1 0x0 DUP1 MLOAD PUSH1 0x20 PUSH2 0x1E8F DUP4 CODECOPY DUP2 MLOAD SWAP2 MSTORE PUSH1 0x20 MSTORE PUSH1 0x40 SWAP1 KECCAK256 SLOAD PUSH1 0xFF AND PUSH2 0x345 JUMPI PUSH1 0x1 PUSH1 0x1 PUSH1 0xA0 SHL SUB AND PUSH1 0x0 DUP2 DUP2 MSTORE PUSH1 0x0 DUP1 MLOAD PUSH1 0x20 PUSH2 0x1E8F DUP4 CODECOPY DUP2 MLOAD SWAP2 MSTORE PUSH1 0x20 MSTORE PUSH1 0x40 DUP2 KECCAK256 DUP1 SLOAD PUSH1 0xFF NOT AND PUSH1 0x1 OR SWAP1 SSTORE CALLER SWAP2 SWAP1 PUSH1 0x0 DUP1 MLOAD PUSH1 0x20 PUSH2 0x1E4F DUP4 CODECOPY DUP2 MLOAD SWAP2 MSTORE DUP2 DUP1 LOG4 PUSH1 0x1 SWAP1 JUMP JUMPDEST POP PUSH1 0x0 SWAP1 JUMP JUMPDEST PUSH1 0x1 PUSH1 0x1 PUSH1 0xA0 SHL SUB DUP2 AND PUSH1 0x0 SWAP1 DUP2 MSTORE PUSH1 0x0 DUP1 MLOAD PUSH1 0x20 PUSH2 0x1E6F DUP4 CODECOPY DUP2 MLOAD SWAP2 MSTORE PUSH1 0x20 MSTORE PUSH1 0x40 SWAP1 KECCAK256 SLOAD PUSH1 0xFF AND PUSH2 0x345 JUMPI PUSH1 0x1 PUSH1 0x1 PUSH1 0xA0 SHL SUB AND PUSH1 0x0 DUP2 DUP2 MSTORE PUSH1 0x0 DUP1 MLOAD PUSH1 0x20 PUSH2 0x1E6F DUP4 CODECOPY DUP2 MLOAD SWAP2 MSTORE PUSH1 0x20 MSTORE PUSH1 0x40 DUP2 KECCAK256 DUP1 SLOAD PUSH1 0xFF NOT AND PUSH1 0x1 OR SWAP1 SSTORE CALLER SWAP2 SWAP1 PUSH32 0x9F2DF0FED2C77648DE5860A4CC508CD0818C85B8B8A1AB4CEEEF8D981C8956A6 SWAP1 PUSH1 0x0 DUP1 MLOAD PUSH1 0x20 PUSH2 0x1E4F DUP4 CODECOPY DUP2 MLOAD SWAP2 MSTORE SWAP1 DUP1 LOG4 PUSH1 0x1 SWAP1 JUMP INVALID PUSH1 0x80 PUSH1 0x40 MSTORE PUSH1 0x4 CALLDATASIZE LT ISZERO PUSH2 0x12 JUMPI PUSH1 0x0 DUP1 REVERT JUMPDEST PUSH1 0x0 CALLDATALOAD PUSH1 0xE0 SHR DUP1 PUSH3 0xFDD58E EQ PUSH2 0x146 JUMPI DUP1 PUSH4 0x1FFC9A7 EQ PUSH2 0x141 JUMPI DUP1 PUSH4 0xE89341C EQ PUSH2 0x13C JUMPI DUP1 PUSH4 0x156E29F6 EQ PUSH2 0x137 JUMPI DUP1 PUSH4 0x248A9CA3 EQ PUSH2 0x132 JUMPI DUP1 PUSH4 0x2EB2C2D6 EQ PUSH2 0x12D JUMPI DUP1 PUSH4 0x2F2FF15D EQ PUSH2 0x128 JUMPI DUP1 PUSH4 0x36568ABE EQ PUSH2 0x123 JUMPI DUP1 PUSH4 0x4E1273F4 EQ PUSH2 0x11E JUMPI DUP1 PUSH4 0x55F804B3 EQ PUSH2 0x119 JUMPI DUP1 PUSH4 0x91D14854 EQ PUSH2 0x114 JUMPI DUP1 PUSH4 0xA217FDDF EQ PUSH2 0x10F JUMPI DUP1 PUSH4 0xA22CB465 EQ PUSH2 0x10A JUMPI DUP1 PUSH4 0xD5391393 EQ PUSH2 0x105 JUMPI DUP1 PUSH4 0xD547741F EQ PUSH2 0x100 JUMPI DUP1 PUSH4 0xE985E9C5 EQ PUSH2 0xFB JUMPI DUP1 PUSH4 0xEF8593E7 EQ PUSH2 0xF6 JUMPI DUP1 PUSH4 0xF242432A EQ PUSH2 0xF1 JUMPI PUSH4 0xF5298ACA EQ PUSH2 0xEC JUMPI PUSH1 0x0 DUP1 REVERT JUMPDEST PUSH2 0xF2B JUMP JUMPDEST PUSH2 0xE31 JUMP JUMPDEST PUSH2 0xE05 JUMP JUMPDEST PUSH2 0xDB4 JUMP JUMPDEST PUSH2 0xD74 JUMP JUMPDEST PUSH2 0xD39 JUMP JUMPDEST PUSH2 0xC80 JUMP JUMPDEST PUSH2 0xC64 JUMP JUMPDEST PUSH2 0xC11 JUMP JUMPDEST PUSH2 0xA87 JUMP JUMPDEST PUSH2 0x9C6 JUMP JUMPDEST PUSH2 0x93B JUMP JUMPDEST PUSH2 0x8F6 JUMP JUMPDEST PUSH2 0x867 JUMP JUMPDEST PUSH2 0x712 JUMP JUMPDEST PUSH2 0x4B7 JUMP JUMPDEST PUSH2 0x2D4 JUMP JUMPDEST PUSH2 0x1EF JUMP JUMPDEST PUSH2 0x190 JUMP JUMPDEST PUSH1 0x4 CALLDATALOAD SWAP1 PUSH1 0x1 PUSH1 0x1 PUSH1 0xA0 SHL SUB DUP3 AND DUP3 SUB PUSH2 0x161 JUMPI JUMP JUMPDEST PUSH1 0x0 DUP1 REVERT JUMPDEST PUSH1 0x24 CALLDATALOAD SWAP1 PUSH1 0x1 PUSH1 0x1 PUSH1 0xA0 SHL SUB DUP3 AND DUP3 SUB PUSH2 0x161 JUMPI JUMP JUMPDEST CALLDATALOAD SWAP1 PUSH1 0x1 PUSH1 0x1 PUSH1 0xA0 SHL SUB DUP3 AND DUP3 SUB PUSH2 0x161 JUMPI JUMP JUMPDEST CALLVALUE PUSH2 0x161 JUMPI PUSH1 0x40 CALLDATASIZE PUSH1 0x3 NOT ADD SLT PUSH2 0x161 JUMPI PUSH1 0x20 PUSH2 0x1D4 PUSH2 0x1AE PUSH2 0x14B JUMP JUMPDEST PUSH1 0x24 CALLDATALOAD PUSH1 0x0 MSTORE PUSH1 0x0 DUP4 MSTORE PUSH1 0x40 PUSH1 0x0 KECCAK256 SWAP1 PUSH1 0x1 DUP1 PUSH1 0xA0 SHL SUB AND PUSH1 0x0 MSTORE PUSH1 0x20 MSTORE PUSH1 0x40 PUSH1 0x0 KECCAK256 SWAP1 JUMP JUMPDEST SLOAD PUSH1 0x40 MLOAD SWAP1 DUP2 MSTORE RETURN JUMPDEST PUSH1 0x1 PUSH1 0x1 PUSH1 0xE0 SHL SUB NOT DUP2 AND SUB PUSH2 0x161 JUMPI JUMP JUMPDEST CALLVALUE PUSH2 0x161 JUMPI PUSH1 0x20 CALLDATASIZE PUSH1 0x3 NOT ADD SLT PUSH2 0x161 JUMPI PUSH1 0x4 CALLDATALOAD PUSH2 0x20C DUP2 PUSH2 0x1DD JUMP JUMPDEST PUSH4 0xFFFFFFFF PUSH1 0xE0 SHL AND PUSH4 0x7965DB0B PUSH1 0xE0 SHL DUP2 EQ SWAP1 DUP2 ISZERO PUSH2 0x235 JUMPI JUMPDEST POP PUSH1 0x40 MLOAD SWAP1 ISZERO ISZERO DUP2 MSTORE PUSH1 0x20 SWAP1 RETURN JUMPDEST PUSH4 0x6CDB3D13 PUSH1 0xE1 SHL DUP2 EQ SWAP2 POP DUP2 ISZERO PUSH2 0x267 JUMPI JUMPDEST DUP2 ISZERO PUSH2 0x256 JUMPI JUMPDEST POP CODESIZE PUSH2 0x227 JUMP JUMPDEST PUSH4 0x1FFC9A7 PUSH1 0xE0 SHL EQ SWAP1 POP CODESIZE PUSH2 0x24F JUMP JUMPDEST PUSH4 0x3A24D07 PUSH1 0xE2 SHL DUP2 EQ SWAP2 POP PUSH2 0x248 JUMP JUMPDEST PUSH1 0x0 JUMPDEST DUP4 DUP2 LT PUSH2 0x28B JUMPI POP POP PUSH1 0x0 SWAP2 ADD MSTORE JUMP JUMPDEST DUP2 DUP2 ADD MLOAD DUP4 DUP3 ADD MSTORE PUSH1 0x20 ADD PUSH2 0x27B JUMP JUMPDEST SWAP1 PUSH1 0x20 SWAP2 PUSH2 0x2B4 DUP2 MLOAD DUP1 SWAP3 DUP2 DUP6 MSTORE DUP6 DUP1 DUP7 ADD SWAP2 ADD PUSH2 0x278 JUMP JUMPDEST PUSH1 0x1F ADD PUSH1 0x1F NOT AND ADD ADD SWAP1 JUMP JUMPDEST SWAP1 PUSH1 0x20 PUSH2 0x2D1 SWAP3 DUP2 DUP2 MSTORE ADD SWAP1 PUSH2 0x29B JUMP JUMPDEST SWAP1 JUMP JUMPDEST CALLVALUE PUSH2 0x161 JUMPI PUSH1 0x20 CALLDATASIZE PUSH1 0x3 NOT ADD SLT PUSH2 0x161 JUMPI PUSH1 0x0 PUSH1 0x4 CALLDATALOAD DUP1 PUSH19 0x184F03E93FF9F4DAA797ED6E38ED64BF6A1F01 PUSH1 0x40 SHL DUP2 LT ISZERO PUSH2 0x46A JUMPI JUMPDEST DUP1 PUSH14 0x4EE2D6D415B85ACEF8100000000 PUSH1 0xA SWAP3 LT ISZERO PUSH2 0x44E JUMPI JUMPDEST PUSH7 0x2386F26FC10000 DUP2 LT ISZERO PUSH2 0x439 JUMPI JUMPDEST PUSH4 0x5F5E100 DUP2 LT ISZERO PUSH2 0x427 JUMPI JUMPDEST PUSH2 0x2710 DUP2 LT ISZERO PUSH2 0x417 JUMPI JUMPDEST PUSH1 0x64 DUP2 LT ISZERO PUSH2 0x408 JUMPI JUMPDEST LT ISZERO PUSH2 0x3FD JUMPI JUMPDEST PUSH2 0x39A PUSH1 0x21 PUSH2 0x36E PUSH1 0x1 DUP6 ADD PUSH2 0x136F JUMP JUMPDEST SWAP4 DUP5 ADD ADD JUMPDEST PUSH1 0x0 NOT ADD SWAP2 PUSH16 0x181899199A1A9B1B9C1CB0B131B232B3 PUSH1 0x81 SHL PUSH1 0xA DUP3 MOD BYTE DUP4 MSTORE8 PUSH1 0xA SWAP1 DIV SWAP1 JUMP JUMPDEST SWAP1 DUP2 ISZERO PUSH2 0x3AA JUMPI PUSH2 0x39A SWAP1 PUSH2 0x373 JUMP JUMPDEST PUSH1 0x40 MLOAD PUSH2 0x3F9 SWAP1 PUSH2 0x3ED DUP2 PUSH2 0x3DF PUSH2 0x3CE DUP9 PUSH2 0x3C8 PUSH1 0x20 DUP6 ADD PUSH2 0x1118 JUMP JUMPDEST SWAP1 PUSH2 0x11A1 JUMP JUMPDEST PUSH5 0x173539B7B7 PUSH1 0xD9 SHL DUP2 MSTORE PUSH1 0x5 ADD SWAP1 JUMP JUMPDEST SUB PUSH1 0x1F NOT DUP2 ADD DUP4 MSTORE DUP3 PUSH2 0x75D JUMP JUMPDEST PUSH1 0x40 MLOAD SWAP2 DUP3 SWAP2 DUP3 PUSH2 0x2C0 JUMP JUMPDEST SUB SWAP1 RETURN JUMPDEST PUSH1 0x1 SWAP1 SWAP2 ADD SWAP1 PUSH2 0x35D JUMP JUMPDEST PUSH1 0x2 SWAP1 PUSH1 0x64 SWAP1 DIV SWAP4 ADD SWAP3 PUSH2 0x356 JUMP JUMPDEST PUSH1 0x4 SWAP1 PUSH2 0x2710 SWAP1 DIV SWAP4 ADD SWAP3 PUSH2 0x34C JUMP JUMPDEST PUSH1 0x8 SWAP1 PUSH4 0x5F5E100 SWAP1 DIV SWAP4 ADD SWAP3 PUSH2 0x341 JUMP JUMPDEST PUSH1 0x10 SWAP1 PUSH7 0x2386F26FC10000 SWAP1 DIV SWAP4 ADD SWAP3 PUSH2 0x334 JUMP JUMPDEST PUSH1 0x20 SWAP1 PUSH14 0x4EE2D6D415B85ACEF8100000000 SWAP1 DIV SWAP4 ADD SWAP3 PUSH2 0x324 JUMP JUMPDEST POP PUSH1 0x40 SWAP2 POP PUSH19 0x184F03E93FF9F4DAA797ED6E38ED64BF6A1F01 PUSH1 0x40 SHL DUP2 DIV PUSH2 0x30A JUMP JUMPDEST PUSH1 0x60 SWAP1 PUSH1 0x3 NOT ADD SLT PUSH2 0x161 JUMPI PUSH1 0x4 CALLDATALOAD PUSH1 0x1 PUSH1 0x1 PUSH1 0xA0 SHL SUB DUP2 AND DUP2 SUB PUSH2 0x161 JUMPI SWAP1 PUSH1 0x24 CALLDATALOAD SWAP1 PUSH1 0x44 CALLDATALOAD SWAP1 JUMP JUMPDEST CALLVALUE PUSH2 0x161 JUMPI PUSH2 0x4C5 CALLDATASIZE PUSH2 0x48D JUMP JUMPDEST SWAP1 SWAP2 PUSH2 0x4CF PUSH2 0x13A1 JUMP JUMPDEST DUP3 PUSH1 0x0 MSTORE PUSH1 0x4 PUSH1 0x20 MSTORE PUSH1 0x40 PUSH1 0x0 KECCAK256 DUP1 SLOAD SWAP1 DUP4 DUP3 ADD DUP1 SWAP3 GT PUSH2 0x70D JUMPI SSTORE PUSH1 0x40 MLOAD SWAP1 PUSH1 0x20 PUSH2 0x4FB DUP2 DUP5 PUSH2 0x75D JUMP JUMPDEST PUSH1 0x0 DUP4 MSTORE PUSH1 0x1 PUSH1 0x1 PUSH1 0xA0 SHL SUB DUP3 AND SWAP1 DUP2 ISZERO PUSH2 0x6F7 JUMPI PUSH2 0x53A DUP6 DUP8 SWAP2 PUSH1 0x40 MLOAD SWAP3 PUSH1 0x1 DUP5 MSTORE PUSH1 0x20 DUP5 ADD MSTORE PUSH1 0x40 DUP4 ADD SWAP2 PUSH1 0x1 DUP4 MSTORE PUSH1 0x60 DUP5 ADD MSTORE PUSH1 0x80 DUP4 ADD PUSH1 0x40 MSTORE JUMP JUMPDEST SWAP3 DUP2 MLOAD DUP5 MLOAD SWAP1 DUP2 DUP2 SUB PUSH2 0x6E0 JUMPI POP SWAP6 SWAP7 DUP2 ISZERO ISZERO SWAP7 POP PUSH1 0x0 JUMPDEST DUP4 MLOAD DUP2 LT ISZERO PUSH2 0x5C3 JUMPI DUP1 DUP9 DUP9 PUSH1 0x1 SWAP4 PUSH1 0x5 SHL DUP9 DUP1 DUP3 DUP11 ADD ADD MLOAD SWAP2 DUP12 ADD ADD MLOAD SWAP3 PUSH2 0x57F JUMPI JUMPDEST POP POP POP ADD PUSH2 0x552 JUMP JUMPDEST PUSH2 0x5B9 SWAP2 PUSH2 0x59A PUSH2 0x5B1 SWAP3 PUSH1 0x0 MSTORE PUSH1 0x0 PUSH1 0x20 MSTORE PUSH1 0x40 PUSH1 0x0 KECCAK256 SWAP1 JUMP JUMPDEST SWAP1 PUSH1 0x1 DUP1 PUSH1 0xA0 SHL SUB AND PUSH1 0x0 MSTORE PUSH1 0x20 MSTORE PUSH1 0x40 PUSH1 0x0 KECCAK256 SWAP1 JUMP JUMPDEST SWAP2 DUP3 SLOAD PUSH2 0x11CE JUMP JUMPDEST SWAP1 SSTORE CODESIZE DUP9 DUP2 PUSH2 0x576 JUMP JUMPDEST POP SWAP4 PUSH2 0x664 SWAP6 SWAP2 SWAP8 SWAP3 SWAP4 PUSH32 0x1ACE3364065011F2A2F041CCF777C9F5394104FB5C15EC40E2ED753531E33B21 SWAP8 PUSH1 0x1 DUP7 MLOAD EQ PUSH1 0x0 EQ PUSH2 0x6A3 JUMPI DUP10 PUSH1 0x0 DUP4 DUP9 ADD MLOAD PUSH32 0xC3D58168C5AE7397731D063D5BBF3D657854427343F4C083240F7AACAA2D0F62 PUSH2 0x645 DUP7 DUP9 ADD MLOAD PUSH1 0x40 MLOAD SWAP2 DUP3 SWAP2 CALLER SWAP6 DUP4 PUSH1 0x20 SWAP1 SWAP4 SWAP3 SWAP2 SWAP4 PUSH1 0x40 DUP2 ADD SWAP5 DUP2 MSTORE ADD MSTORE JUMP JUMPDEST SUB SWAP1 LOG4 JUMPDEST PUSH2 0x669 JUMPI JUMPDEST POP POP POP POP POP PUSH1 0x40 MLOAD SWAP2 DUP3 SWAP2 DUP3 SWAP2 SWAP1 PUSH1 0x20 DUP4 ADD SWAP3 MSTORE JUMP JUMPDEST SUB SWAP1 LOG3 STOP JUMPDEST DUP5 MLOAD PUSH1 0x1 SUB PUSH2 0x68F JUMPI DUP1 PUSH2 0x685 SWAP6 ADD MLOAD SWAP2 ADD MLOAD SWAP2 PUSH1 0x0 CALLER PUSH2 0x1995 JUMP JUMPDEST CODESIZE DUP1 DUP1 DUP1 DUP1 PUSH2 0x64E JUMP JUMPDEST POP SWAP1 SWAP3 PUSH2 0x69E SWAP4 PUSH1 0x0 CALLER PUSH2 0x1860 JUMP JUMPDEST PUSH2 0x685 JUMP JUMPDEST DUP10 PUSH1 0x0 PUSH1 0x40 MLOAD PUSH32 0x4A39DC06D4C0DBC64B70AF90FD698A233A518AA5D07E595D983B8C0526C8F7FB CALLER SWAP2 DUP1 PUSH2 0x6D8 DUP10 DUP14 DUP4 PUSH2 0x17A3 JUMP JUMPDEST SUB SWAP1 LOG4 PUSH2 0x649 JUMP JUMPDEST PUSH4 0x5B059991 PUSH1 0xE0 SHL PUSH1 0x0 MSTORE PUSH1 0x4 MSTORE PUSH1 0x24 MSTORE PUSH1 0x44 PUSH1 0x0 REVERT JUMPDEST PUSH4 0x2BFA23E7 PUSH1 0xE1 SHL PUSH1 0x0 MSTORE PUSH1 0x0 PUSH1 0x4 MSTORE PUSH1 0x24 PUSH1 0x0 REVERT JUMPDEST PUSH2 0x11B8 JUMP JUMPDEST CALLVALUE PUSH2 0x161 JUMPI PUSH1 0x20 CALLDATASIZE PUSH1 0x3 NOT ADD SLT PUSH2 0x161 JUMPI PUSH1 0x20 PUSH2 0x73F PUSH1 0x4 CALLDATALOAD PUSH1 0x0 MSTORE PUSH1 0x3 PUSH1 0x20 MSTORE PUSH1 0x1 PUSH1 0x40 PUSH1 0x0 KECCAK256 ADD SLOAD SWAP1 JUMP JUMPDEST PUSH1 0x40 MLOAD SWAP1 DUP2 MSTORE RETURN JUMPDEST PUSH4 0x4E487B71 PUSH1 0xE0 SHL PUSH1 0x0 MSTORE PUSH1 0x41 PUSH1 0x4 MSTORE PUSH1 0x24 PUSH1 0x0 REVERT JUMPDEST SWAP1 PUSH1 0x1F DUP1 NOT SWAP2 ADD AND DUP2 ADD SWAP1 DUP2 LT PUSH8 0xFFFFFFFFFFFFFFFF DUP3 GT OR PUSH2 0x77F JUMPI PUSH1 0x40 MSTORE JUMP JUMPDEST PUSH2 0x747 JUMP JUMPDEST PUSH8 0xFFFFFFFFFFFFFFFF DUP2 GT PUSH2 0x77F JUMPI PUSH1 0x5 SHL PUSH1 0x20 ADD SWAP1 JUMP JUMPDEST SWAP1 DUP1 PUSH1 0x1F DUP4 ADD SLT ISZERO PUSH2 0x161 JUMPI DUP2 CALLDATALOAD PUSH2 0x7B3 DUP2 PUSH2 0x784 JUMP JUMPDEST SWAP3 PUSH2 0x7C1 PUSH1 0x40 MLOAD SWAP5 DUP6 PUSH2 0x75D JUMP JUMPDEST DUP2 DUP5 MSTORE PUSH1 0x20 DUP1 DUP6 ADD SWAP3 PUSH1 0x5 SHL DUP3 ADD ADD SWAP3 DUP4 GT PUSH2 0x161 JUMPI PUSH1 0x20 ADD SWAP1 JUMPDEST DUP3 DUP3 LT PUSH2 0x7E9 JUMPI POP POP POP SWAP1 JUMP JUMPDEST DUP2 CALLDATALOAD DUP2 MSTORE PUSH1 0x20 SWAP2 DUP3 ADD SWAP2 ADD PUSH2 0x7DC JUMP JUMPDEST PUSH8 0xFFFFFFFFFFFFFFFF DUP2 GT PUSH2 0x77F JUMPI PUSH1 0x1F ADD PUSH1 0x1F NOT AND PUSH1 0x20 ADD SWAP1 JUMP JUMPDEST SWAP3 SWAP2 SWAP3 PUSH2 0x821 DUP3 PUSH2 0x7F9 JUMP JUMPDEST SWAP2 PUSH2 0x82F PUSH1 0x40 MLOAD SWAP4 DUP5 PUSH2 0x75D JUMP JUMPDEST DUP3 SWAP5 DUP2 DUP5 MSTORE DUP2 DUP4 ADD GT PUSH2 0x161 JUMPI DUP3 DUP2 PUSH1 0x20 SWAP4 DUP5 PUSH1 0x0 SWAP7 ADD CALLDATACOPY ADD ADD MSTORE JUMP JUMPDEST SWAP1 DUP1 PUSH1 0x1F DUP4 ADD SLT ISZERO PUSH2 0x161 JUMPI DUP2 PUSH1 0x20 PUSH2 0x2D1 SWAP4 CALLDATALOAD SWAP2 ADD PUSH2 0x815 JUMP JUMPDEST CALLVALUE PUSH2 0x161 JUMPI PUSH1 0xA0 CALLDATASIZE PUSH1 0x3 NOT ADD SLT PUSH2 0x161 JUMPI PUSH2 0x880 PUSH2 0x14B JUMP JUMPDEST PUSH2 0x888 PUSH2 0x166 JUMP JUMPDEST SWAP1 PUSH1 0x44 CALLDATALOAD PUSH8 0xFFFFFFFFFFFFFFFF DUP2 GT PUSH2 0x161 JUMPI PUSH2 0x8A9 SWAP1 CALLDATASIZE SWAP1 PUSH1 0x4 ADD PUSH2 0x79C JUMP JUMPDEST PUSH1 0x64 CALLDATALOAD PUSH8 0xFFFFFFFFFFFFFFFF DUP2 GT PUSH2 0x161 JUMPI PUSH2 0x8C9 SWAP1 CALLDATASIZE SWAP1 PUSH1 0x4 ADD PUSH2 0x79C JUMP JUMPDEST SWAP1 PUSH1 0x84 CALLDATALOAD SWAP4 PUSH8 0xFFFFFFFFFFFFFFFF DUP6 GT PUSH2 0x161 JUMPI PUSH2 0x8EE PUSH2 0x8F4 SWAP6 CALLDATASIZE SWAP1 PUSH1 0x4 ADD PUSH2 0x84C JUMP JUMPDEST SWAP4 PUSH2 0x11DB JUMP JUMPDEST STOP JUMPDEST CALLVALUE PUSH2 0x161 JUMPI PUSH1 0x40 CALLDATASIZE PUSH1 0x3 NOT ADD SLT PUSH2 0x161 JUMPI PUSH2 0x8F4 PUSH1 0x4 CALLDATALOAD PUSH2 0x915 PUSH2 0x166 JUMP JUMPDEST SWAP1 PUSH2 0x936 PUSH2 0x931 DUP3 PUSH1 0x0 MSTORE PUSH1 0x3 PUSH1 0x20 MSTORE PUSH1 0x1 PUSH1 0x40 PUSH1 0x0 KECCAK256 ADD SLOAD SWAP1 JUMP JUMPDEST PUSH2 0x1466 JUMP JUMPDEST PUSH2 0x14A3 JUMP JUMPDEST CALLVALUE PUSH2 0x161 JUMPI PUSH1 0x40 CALLDATASIZE PUSH1 0x3 NOT ADD SLT PUSH2 0x161 JUMPI PUSH1 0x4 CALLDATALOAD PUSH2 0x957 PUSH2 0x166 JUMP JUMPDEST CALLER PUSH1 0x1 PUSH1 0x1 PUSH1 0xA0 SHL SUB DUP3 AND SUB PUSH2 0x970 JUMPI PUSH2 0x8F4 SWAP2 PUSH2 0x1537 JUMP JUMPDEST PUSH4 0x334BD919 PUSH1 0xE1 SHL PUSH1 0x0 MSTORE PUSH1 0x4 PUSH1 0x0 REVERT JUMPDEST SWAP1 PUSH1 0x20 DUP1 DUP4 MLOAD SWAP3 DUP4 DUP2 MSTORE ADD SWAP3 ADD SWAP1 PUSH1 0x0 JUMPDEST DUP2 DUP2 LT PUSH2 0x99F JUMPI POP POP POP SWAP1 JUMP JUMPDEST DUP3 MLOAD DUP5 MSTORE PUSH1 0x20 SWAP4 DUP5 ADD SWAP4 SWAP1 SWAP3 ADD SWAP2 PUSH1 0x1 ADD PUSH2 0x992 JUMP JUMPDEST SWAP1 PUSH1 0x20 PUSH2 0x2D1 SWAP3 DUP2 DUP2 MSTORE ADD SWAP1 PUSH2 0x981 JUMP JUMPDEST CALLVALUE PUSH2 0x161 JUMPI PUSH1 0x40 CALLDATASIZE PUSH1 0x3 NOT ADD SLT PUSH2 0x161 JUMPI PUSH1 0x4 CALLDATALOAD PUSH8 0xFFFFFFFFFFFFFFFF DUP2 GT PUSH2 0x161 JUMPI CALLDATASIZE PUSH1 0x23 DUP3 ADD SLT ISZERO PUSH2 0x161 JUMPI DUP1 PUSH1 0x4 ADD CALLDATALOAD SWAP1 PUSH2 0xA03 DUP3 PUSH2 0x784 JUMP JUMPDEST SWAP2 PUSH2 0xA11 PUSH1 0x40 MLOAD SWAP4 DUP5 PUSH2 0x75D JUMP JUMPDEST DUP1 DUP4 MSTORE PUSH1 0x24 PUSH1 0x20 DUP5 ADD SWAP2 PUSH1 0x5 SHL DUP4 ADD ADD SWAP2 CALLDATASIZE DUP4 GT PUSH2 0x161 JUMPI PUSH1 0x24 ADD SWAP1 JUMPDEST DUP3 DUP3 LT PUSH2 0xA6F JUMPI DUP4 PUSH1 0x24 CALLDATALOAD PUSH8 0xFFFFFFFFFFFFFFFF DUP2 GT PUSH2 0x161 JUMPI PUSH2 0x3F9 SWAP2 PUSH2 0xA5D PUSH2 0xA63 SWAP3 CALLDATASIZE SWAP1 PUSH1 0x4 ADD PUSH2 0x79C JUMP JUMPDEST SWAP1 PUSH2 0x1264 JUMP JUMPDEST PUSH1 0x40 MLOAD SWAP2 DUP3 SWAP2 DUP3 PUSH2 0x9B5 JUMP JUMPDEST PUSH1 0x20 DUP1 SWAP2 PUSH2 0xA7C DUP5 PUSH2 0x17C JUMP JUMPDEST DUP2 MSTORE ADD SWAP2 ADD SWAP1 PUSH2 0xA2E JUMP JUMPDEST CALLVALUE PUSH2 0x161 JUMPI PUSH1 0x20 CALLDATASIZE PUSH1 0x3 NOT ADD SLT PUSH2 0x161 JUMPI PUSH1 0x4 CALLDATALOAD PUSH8 0xFFFFFFFFFFFFFFFF DUP2 GT PUSH2 0x161 JUMPI CALLDATASIZE PUSH1 0x23 DUP3 ADD SLT ISZERO PUSH2 0x161 JUMPI PUSH2 0xAC9 SWAP1 CALLDATASIZE SWAP1 PUSH1 0x24 DUP2 PUSH1 0x4 ADD CALLDATALOAD SWAP2 ADD PUSH2 0x815 JUMP JUMPDEST PUSH2 0xAD1 PUSH2 0x1413 JUMP JUMPDEST DUP1 MLOAD PUSH8 0xFFFFFFFFFFFFFFFF DUP2 GT PUSH2 0x77F JUMPI PUSH2 0xAF6 DUP2 PUSH2 0xAF1 PUSH1 0x5 SLOAD PUSH2 0x10DE JUMP JUMPDEST PUSH2 0x131C JUMP JUMPDEST PUSH1 0x20 PUSH1 0x1F DUP3 GT PUSH1 0x1 EQ PUSH2 0xB69 JUMPI SWAP2 PUSH2 0xB4A DUP3 PUSH2 0xB59 SWAP4 PUSH32 0x6741B2FC379FAD678116FE3D4D4B9A1A184AB53BA36B86AD0FA66340B1AB41AD SWAP6 PUSH1 0x0 SWAP2 PUSH2 0xB5E JUMPI JUMPDEST POP DUP2 PUSH1 0x1 SHL SWAP2 PUSH1 0x0 NOT SWAP1 PUSH1 0x3 SHL SHR NOT AND OR SWAP1 JUMP JUMPDEST PUSH1 0x5 SSTORE PUSH1 0x40 MLOAD SWAP2 DUP3 SWAP2 DUP3 PUSH2 0x2C0 JUMP JUMPDEST SUB SWAP1 LOG1 STOP JUMPDEST SWAP1 POP DUP4 ADD MLOAD CODESIZE PUSH2 0xB36 JUMP JUMPDEST PUSH1 0x5 PUSH1 0x0 MSTORE PUSH1 0x1F NOT DUP3 AND SWAP1 PUSH32 0x36B6384B5ECA791C62761152D0C79BB0604C104A5FB6F4EB0703F3154BB3DB0 SWAP2 PUSH1 0x0 JUMPDEST DUP2 DUP2 LT PUSH2 0xBF9 JUMPI POP SWAP3 PUSH32 0x6741B2FC379FAD678116FE3D4D4B9A1A184AB53BA36B86AD0FA66340B1AB41AD SWAP5 SWAP3 PUSH1 0x1 SWAP3 DUP3 PUSH2 0xB59 SWAP7 LT PUSH2 0xBE0 JUMPI JUMPDEST POP POP DUP2 SHL ADD PUSH1 0x5 SSTORE PUSH2 0x3ED JUMP JUMPDEST DUP5 ADD MLOAD PUSH1 0x0 NOT PUSH1 0xF8 DUP5 PUSH1 0x3 SHL AND SHR NOT AND SWAP1 SSTORE CODESIZE DUP1 PUSH2 0xBD3 JUMP JUMPDEST SWAP2 SWAP3 PUSH1 0x20 PUSH1 0x1 DUP2 SWAP3 DUP7 DUP10 ADD MLOAD DUP2 SSTORE ADD SWAP5 ADD SWAP3 ADD PUSH2 0xB99 JUMP JUMPDEST CALLVALUE PUSH2 0x161 JUMPI PUSH1 0x40 CALLDATASIZE PUSH1 0x3 NOT ADD SLT PUSH2 0x161 JUMPI PUSH1 0x20 PUSH1 0xFF PUSH2 0xC58 PUSH1 0x4 CALLDATALOAD PUSH2 0xC34 PUSH2 0x166 JUMP JUMPDEST SWAP1 PUSH1 0x0 MSTORE PUSH1 0x3 DUP5 MSTORE PUSH1 0x40 PUSH1 0x0 KECCAK256 SWAP1 PUSH1 0x1 DUP1 PUSH1 0xA0 SHL SUB AND PUSH1 0x0 MSTORE PUSH1 0x20 MSTORE PUSH1 0x40 PUSH1 0x0 KECCAK256 SWAP1 JUMP JUMPDEST SLOAD AND PUSH1 0x40 MLOAD SWAP1 ISZERO ISZERO DUP2 MSTORE RETURN JUMPDEST CALLVALUE PUSH2 0x161 JUMPI PUSH1 0x0 CALLDATASIZE PUSH1 0x3 NOT ADD SLT PUSH2 0x161 JUMPI PUSH1 0x20 PUSH1 0x40 MLOAD PUSH1 0x0 DUP2 MSTORE RETURN JUMPDEST CALLVALUE PUSH2 0x161 JUMPI PUSH1 0x40 CALLDATASIZE PUSH1 0x3 NOT ADD SLT PUSH2 0x161 JUMPI PUSH2 0xC99 PUSH2 0x14B JUMP JUMPDEST PUSH1 0x24 CALLDATALOAD SWAP1 DUP2 ISZERO ISZERO SWAP1 DUP2 DUP4 SUB PUSH2 0x161 JUMPI PUSH1 0x1 PUSH1 0x1 PUSH1 0xA0 SHL SUB DUP2 AND SWAP3 DUP4 ISZERO PUSH2 0xD24 JUMPI PUSH2 0xCE5 PUSH2 0xCF6 SWAP3 CALLER PUSH1 0x0 MSTORE PUSH1 0x1 PUSH1 0x20 MSTORE PUSH1 0x40 PUSH1 0x0 KECCAK256 SWAP1 PUSH1 0x1 DUP1 PUSH1 0xA0 SHL SUB AND PUSH1 0x0 MSTORE PUSH1 0x20 MSTORE PUSH1 0x40 PUSH1 0x0 KECCAK256 SWAP1 JUMP JUMPDEST SWAP1 PUSH1 0xFF DUP1 NOT DUP4 SLOAD AND SWAP2 ISZERO ISZERO AND OR SWAP1 SSTORE JUMP JUMPDEST PUSH1 0x40 MLOAD SWAP1 DUP2 MSTORE PUSH32 0x17307EAB39AB6107E8899845AD3D59BD9653F200F220920489CA2B5937696C31 PUSH1 0x20 CALLER SWAP3 LOG3 STOP JUMPDEST PUSH3 0xCED3E1 PUSH1 0xE8 SHL PUSH1 0x0 MSTORE PUSH1 0x0 PUSH1 0x4 MSTORE PUSH1 0x24 PUSH1 0x0 REVERT JUMPDEST CALLVALUE PUSH2 0x161 JUMPI PUSH1 0x0 CALLDATASIZE PUSH1 0x3 NOT ADD SLT PUSH2 0x161 JUMPI PUSH1 0x20 PUSH1 0x40 MLOAD PUSH32 0x9F2DF0FED2C77648DE5860A4CC508CD0818C85B8B8A1AB4CEEEF8D981C8956A6 DUP2 MSTORE RETURN JUMPDEST CALLVALUE PUSH2 0x161 JUMPI PUSH1 0x40 CALLDATASIZE PUSH1 0x3 NOT ADD SLT PUSH2 0x161 JUMPI PUSH2 0x8F4 PUSH1 0x4 CALLDATALOAD PUSH2 0xD93 PUSH2 0x166 JUMP JUMPDEST SWAP1 PUSH2 0xDAF PUSH2 0x931 DUP3 PUSH1 0x0 MSTORE PUSH1 0x3 PUSH1 0x20 MSTORE PUSH1 0x1 PUSH1 0x40 PUSH1 0x0 KECCAK256 ADD SLOAD SWAP1 JUMP JUMPDEST PUSH2 0x1537 JUMP JUMPDEST CALLVALUE PUSH2 0x161 JUMPI PUSH1 0x40 CALLDATASIZE PUSH1 0x3 NOT ADD SLT PUSH2 0x161 JUMPI PUSH1 0x20 PUSH1 0xFF PUSH2 0xC58 PUSH2 0xDD4 PUSH2 0x14B JUMP JUMPDEST PUSH2 0xDDC PUSH2 0x166 JUMP JUMPDEST PUSH1 0x1 PUSH1 0x1 PUSH1 0xA0 SHL SUB SWAP2 DUP3 AND PUSH1 0x0 SWAP1 DUP2 MSTORE PUSH1 0x1 DUP7 MSTORE PUSH1 0x40 DUP1 DUP3 KECCAK256 SWAP3 SWAP1 SWAP4 AND DUP2 MSTORE PUSH1 0x20 SWAP2 SWAP1 SWAP2 MSTORE KECCAK256 SWAP1 JUMP JUMPDEST CALLVALUE PUSH2 0x161 JUMPI PUSH1 0x20 CALLDATASIZE PUSH1 0x3 NOT ADD SLT PUSH2 0x161 JUMPI PUSH1 0x4 CALLDATALOAD PUSH1 0x0 MSTORE PUSH1 0x4 PUSH1 0x20 MSTORE PUSH1 0x20 PUSH1 0x40 PUSH1 0x0 KECCAK256 SLOAD PUSH1 0x40 MLOAD SWAP1 DUP2 MSTORE RETURN JUMPDEST CALLVALUE PUSH2 0x161 JUMPI PUSH1 0xA0 CALLDATASIZE PUSH1 0x3 NOT ADD SLT PUSH2 0x161 JUMPI PUSH2 0xE4A PUSH2 0x14B JUMP JUMPDEST PUSH2 0xE52 PUSH2 0x166 JUMP JUMPDEST PUSH1 0x44 CALLDATALOAD SWAP1 PUSH1 0x64 CALLDATALOAD SWAP3 PUSH1 0x84 CALLDATALOAD PUSH8 0xFFFFFFFFFFFFFFFF DUP2 GT PUSH2 0x161 JUMPI PUSH2 0xE7A SWAP1 CALLDATASIZE SWAP1 PUSH1 0x4 ADD PUSH2 0x84C JUMP JUMPDEST SWAP3 PUSH1 0x1 PUSH1 0x1 PUSH1 0xA0 SHL SUB DUP3 AND CALLER DUP2 EQ ISZERO DUP1 PUSH2 0xF07 JUMPI JUMPDEST PUSH2 0xEEF JUMPI PUSH1 0x1 PUSH1 0x1 PUSH1 0xA0 SHL SUB DUP5 AND ISZERO PUSH2 0x6F7 JUMPI ISZERO PUSH2 0xEDA JUMPI PUSH2 0x8F4 SWAP5 PUSH2 0xED2 PUSH1 0x40 MLOAD SWAP3 PUSH1 0x1 DUP5 MSTORE PUSH1 0x20 DUP5 ADD MSTORE PUSH1 0x40 DUP4 ADD SWAP2 PUSH1 0x1 DUP4 MSTORE PUSH1 0x60 DUP5 ADD MSTORE PUSH1 0x80 DUP4 ADD PUSH1 0x40 MSTORE JUMP JUMPDEST SWAP3 SWAP1 SWAP2 PUSH2 0x15C2 JUMP JUMPDEST PUSH3 0x6A0D45 PUSH1 0xE2 SHL PUSH1 0x0 MSTORE PUSH1 0x0 PUSH1 0x4 MSTORE PUSH1 0x24 PUSH1 0x0 REVERT JUMPDEST PUSH4 0x711BEC91 PUSH1 0xE1 SHL PUSH1 0x0 MSTORE CALLER PUSH1 0x4 MSTORE PUSH1 0x24 MSTORE PUSH1 0x44 PUSH1 0x0 REVERT JUMPDEST POP PUSH1 0x0 DUP2 DUP2 MSTORE PUSH1 0x1 PUSH1 0x20 SWAP1 DUP2 MSTORE PUSH1 0x40 DUP1 DUP4 KECCAK256 CALLER DUP5 MSTORE SWAP1 SWAP2 MSTORE SWAP1 KECCAK256 SLOAD PUSH1 0xFF AND ISZERO PUSH2 0xE8F JUMP JUMPDEST CALLVALUE PUSH2 0x161 JUMPI PUSH2 0xF39 CALLDATASIZE PUSH2 0x48D JUMP JUMPDEST PUSH2 0xF41 PUSH2 0x13A1 JUMP JUMPDEST PUSH1 0x1 PUSH1 0x1 PUSH1 0xA0 SHL SUB DUP4 AND SWAP2 DUP3 ISZERO PUSH2 0xEDA JUMPI PUSH2 0xF7C DUP3 DUP3 SWAP2 PUSH1 0x40 MLOAD SWAP3 PUSH1 0x1 DUP5 MSTORE PUSH1 0x20 DUP5 ADD MSTORE PUSH1 0x40 DUP4 ADD SWAP2 PUSH1 0x1 DUP4 MSTORE PUSH1 0x60 DUP5 ADD MSTORE PUSH1 0x80 DUP4 ADD PUSH1 0x40 MSTORE JUMP JUMPDEST SWAP3 PUSH1 0x20 SWAP3 PUSH1 0x0 PUSH1 0x40 MLOAD PUSH2 0xF8F DUP7 DUP3 PUSH2 0x75D JUMP JUMPDEST MSTORE DUP3 MLOAD DUP6 MLOAD SWAP1 DUP2 DUP2 SUB PUSH2 0x6E0 JUMPI POP POP PUSH1 0x0 JUMPDEST DUP4 MLOAD DUP2 LT ISZERO PUSH2 0x1037 JUMPI DUP1 PUSH1 0x5 SHL DUP6 DUP1 DUP3 DUP8 ADD ADD MLOAD SWAP2 DUP9 ADD ADD MLOAD PUSH2 0xFD2 DUP11 PUSH2 0x59A DUP5 PUSH1 0x0 MSTORE PUSH1 0x0 PUSH1 0x20 MSTORE PUSH1 0x40 PUSH1 0x0 KECCAK256 SWAP1 JUMP JUMPDEST SLOAD DUP2 DUP2 LT PUSH2 0x1000 JUMPI DUP11 PUSH2 0x59A PUSH1 0x1 SWAP6 SWAP5 SWAP4 PUSH2 0xFF9 SWAP4 SUB SWAP4 PUSH1 0x0 MSTORE PUSH1 0x0 PUSH1 0x20 MSTORE PUSH1 0x40 PUSH1 0x0 KECCAK256 SWAP1 JUMP JUMPDEST SSTORE ADD PUSH2 0xFA1 JUMP JUMPDEST PUSH1 0x40 MLOAD PUSH4 0x3DEE4C5 PUSH1 0xE0 SHL DUP2 MSTORE PUSH1 0x1 PUSH1 0x1 PUSH1 0xA0 SHL SUB DUP13 AND PUSH1 0x4 DUP3 ADD MSTORE PUSH1 0x24 DUP2 ADD SWAP2 SWAP1 SWAP2 MSTORE PUSH1 0x44 DUP2 ADD DUP3 SWAP1 MSTORE PUSH1 0x64 DUP2 ADD DUP4 SWAP1 MSTORE PUSH1 0x84 SWAP1 REVERT JUMPDEST POP SWAP2 SWAP5 PUSH1 0x0 SWAP2 SWAP6 PUSH1 0x4 SWAP6 DUP6 PUSH1 0x1 DUP4 MLOAD EQ DUP6 EQ PUSH2 0x10A2 JUMPI SWAP2 DUP3 ADD MLOAD SWAP2 ADD MLOAD PUSH1 0x40 DUP1 MLOAD SWAP3 DUP4 MSTORE PUSH1 0x20 DUP4 ADD SWAP2 SWAP1 SWAP2 MSTORE CALLER SWAP2 PUSH32 0xC3D58168C5AE7397731D063D5BBF3D657854427343F4C083240F7AACAA2D0F62 SWAP2 SWAP1 LOG4 JUMPDEST PUSH1 0x0 MSTORE MSTORE PUSH1 0x40 PUSH1 0x0 KECCAK256 DUP1 SLOAD SWAP2 DUP3 SUB SWAP2 DUP3 GT PUSH2 0x70D JUMPI SSTORE STOP JUMPDEST POP PUSH2 0x10D6 PUSH32 0x4A39DC06D4C0DBC64B70AF90FD698A233A518AA5D07E595D983B8C0526C8F7FB SWAP2 PUSH1 0x40 MLOAD SWAP2 DUP3 SWAP2 CALLER SWAP6 DUP4 PUSH2 0x17A3 JUMP JUMPDEST SUB SWAP1 LOG4 PUSH2 0x108A JUMP JUMPDEST SWAP1 PUSH1 0x1 DUP3 DUP2 SHR SWAP3 AND DUP1 ISZERO PUSH2 0x110E JUMPI JUMPDEST PUSH1 0x20 DUP4 LT EQ PUSH2 0x10F8 JUMPI JUMP JUMPDEST PUSH4 0x4E487B71 PUSH1 0xE0 SHL PUSH1 0x0 MSTORE PUSH1 0x22 PUSH1 0x4 MSTORE PUSH1 0x24 PUSH1 0x0 REVERT JUMPDEST SWAP2 PUSH1 0x7F AND SWAP2 PUSH2 0x10ED JUMP JUMPDEST PUSH1 0x5 SLOAD PUSH1 0x0 SWAP3 SWAP2 PUSH2 0x1128 DUP3 PUSH2 0x10DE JUMP JUMPDEST SWAP2 PUSH1 0x1 DUP2 AND SWAP1 DUP2 ISZERO PUSH2 0x118F JUMPI POP PUSH1 0x1 EQ PUSH2 0x1140 JUMPI POP POP JUMP JUMPDEST PUSH1 0x5 PUSH1 0x0 SWAP1 DUP2 MSTORE SWAP3 SWAP4 POP SWAP1 SWAP2 PUSH32 0x36B6384B5ECA791C62761152D0C79BB0604C104A5FB6F4EB0703F3154BB3DB0 JUMPDEST DUP4 DUP3 LT PUSH2 0x117B JUMPI POP POP ADD SWAP1 JUMP JUMPDEST PUSH1 0x1 DUP2 PUSH1 0x20 SWAP3 SLOAD DUP5 DUP7 ADD MSTORE ADD SWAP2 ADD SWAP1 PUSH2 0x116E JUMP JUMPDEST PUSH1 0xFF NOT AND DUP3 MSTORE POP DUP2 ISZERO ISZERO SWAP1 SWAP2 MUL ADD SWAP2 POP JUMP JUMPDEST SWAP1 PUSH2 0x11B4 PUSH1 0x20 SWAP3 DUP3 DUP2 MLOAD SWAP5 DUP6 SWAP3 ADD PUSH2 0x278 JUMP JUMPDEST ADD SWAP1 JUMP JUMPDEST PUSH4 0x4E487B71 PUSH1 0xE0 SHL PUSH1 0x0 MSTORE PUSH1 0x11 PUSH1 0x4 MSTORE PUSH1 0x24 PUSH1 0x0 REVERT JUMPDEST SWAP2 SWAP1 DUP3 ADD DUP1 SWAP3 GT PUSH2 0x70D JUMPI JUMP JUMPDEST SWAP4 SWAP3 SWAP2 SWAP1 PUSH1 0x1 PUSH1 0x1 PUSH1 0xA0 SHL SUB DUP6 AND CALLER DUP2 EQ ISZERO DUP1 PUSH2 0x1216 JUMPI JUMPDEST PUSH2 0xEEF JUMPI PUSH1 0x1 PUSH1 0x1 PUSH1 0xA0 SHL SUB DUP3 AND ISZERO PUSH2 0x6F7 JUMPI ISZERO PUSH2 0xEDA JUMPI PUSH2 0x1214 SWAP5 PUSH2 0x15C2 JUMP JUMPDEST JUMP JUMPDEST POP PUSH1 0x0 DUP2 DUP2 MSTORE PUSH1 0x1 PUSH1 0x20 SWAP1 DUP2 MSTORE PUSH1 0x40 DUP1 DUP4 KECCAK256 CALLER DUP5 MSTORE SWAP1 SWAP2 MSTORE SWAP1 KECCAK256 SLOAD PUSH1 0xFF AND ISZERO PUSH2 0x11F3 JUMP JUMPDEST DUP1 MLOAD DUP3 LT ISZERO PUSH2 0x124E JUMPI PUSH1 0x20 SWAP2 PUSH1 0x5 SHL ADD ADD SWAP1 JUMP JUMPDEST PUSH4 0x4E487B71 PUSH1 0xE0 SHL PUSH1 0x0 MSTORE PUSH1 0x32 PUSH1 0x4 MSTORE PUSH1 0x24 PUSH1 0x0 REVERT JUMPDEST SWAP2 SWAP1 SWAP2 DUP1 MLOAD DUP4 MLOAD DUP1 DUP3 SUB PUSH2 0x1305 JUMPI POP POP DUP1 MLOAD SWAP1 PUSH2 0x1280 DUP3 PUSH2 0x784 JUMP JUMPDEST SWAP2 PUSH2 0x128E PUSH1 0x40 MLOAD SWAP4 DUP5 PUSH2 0x75D JUMP JUMPDEST DUP1 DUP4 MSTORE PUSH2 0x129D PUSH1 0x1F NOT SWAP2 PUSH2 0x784 JUMP JUMPDEST ADD CALLDATASIZE PUSH1 0x20 DUP5 ADD CALLDATACOPY PUSH1 0x0 JUMPDEST DUP2 MLOAD DUP2 LT ISZERO PUSH2 0x12FE JUMPI DUP1 PUSH2 0x12ED PUSH1 0x1 SWAP3 PUSH1 0x5 SHL PUSH1 0x20 DUP1 DUP3 DUP8 ADD ADD MLOAD SWAP2 DUP10 ADD ADD MLOAD SWAP1 PUSH1 0x0 SWAP2 DUP3 MSTORE PUSH1 0x20 DUP3 DUP2 MSTORE PUSH1 0x40 DUP1 DUP5 KECCAK256 PUSH1 0x1 PUSH1 0x1 PUSH1 0xA0 SHL SUB SWAP1 SWAP4 AND DUP5 MSTORE SWAP2 SWAP1 MSTORE SWAP1 KECCAK256 SLOAD SWAP1 JUMP JUMPDEST PUSH2 0x12F7 DUP3 DUP7 PUSH2 0x123A JUMP JUMPDEST MSTORE ADD PUSH2 0x12A7 JUMP JUMPDEST POP SWAP1 SWAP3 POP POP JUMP JUMPDEST PUSH4 0x5B059991 PUSH1 0xE0 SHL PUSH1 0x0 MSTORE PUSH1 0x4 MSTORE PUSH1 0x24 MSTORE PUSH1 0x44 PUSH1 0x0 REVERT JUMPDEST PUSH1 0x1F DUP2 GT PUSH2 0x1328 JUMPI POP POP JUMP JUMPDEST PUSH1 0x5 PUSH1 0x0 MSTORE PUSH1 0x20 PUSH1 0x0 KECCAK256 SWAP1 PUSH1 0x20 PUSH1 0x1F DUP5 ADD PUSH1 0x5 SHR DUP4 ADD SWAP4 LT PUSH2 0x1365 JUMPI JUMPDEST PUSH1 0x1F ADD PUSH1 0x5 SHR ADD SWAP1 JUMPDEST DUP2 DUP2 LT PUSH2 0x1359 JUMPI POP POP JUMP JUMPDEST PUSH1 0x0 DUP2 SSTORE PUSH1 0x1 ADD PUSH2 0x134E JUMP JUMPDEST SWAP1 SWAP2 POP DUP2 SWAP1 PUSH2 0x1345 JUMP JUMPDEST SWAP1 PUSH2 0x1379 DUP3 PUSH2 0x7F9 JUMP JUMPDEST PUSH2 0x1386 PUSH1 0x40 MLOAD SWAP2 DUP3 PUSH2 0x75D JUMP JUMPDEST DUP3 DUP2 MSTORE DUP1 SWAP3 PUSH2 0x1397 PUSH1 0x1F NOT SWAP2 PUSH2 0x7F9 JUMP JUMPDEST ADD SWAP1 PUSH1 0x20 CALLDATASIZE SWAP2 ADD CALLDATACOPY JUMP JUMPDEST CALLER PUSH1 0x0 SWAP1 DUP2 MSTORE PUSH32 0x5562E70DA342DB81569F3094D36BE279BEACA7AD8E08F434EA188E79D2BFE10C PUSH1 0x20 MSTORE PUSH1 0x40 SWAP1 KECCAK256 SLOAD PUSH1 0xFF AND ISZERO PUSH2 0x13DA JUMPI JUMP JUMPDEST PUSH4 0xE2517D3F PUSH1 0xE0 SHL PUSH1 0x0 MSTORE CALLER PUSH1 0x4 MSTORE PUSH32 0x9F2DF0FED2C77648DE5860A4CC508CD0818C85B8B8A1AB4CEEEF8D981C8956A6 PUSH1 0x24 MSTORE PUSH1 0x44 PUSH1 0x0 REVERT JUMPDEST CALLER PUSH1 0x0 SWAP1 DUP2 MSTORE PUSH32 0x3617319A054D772F909F7C479A2CEBE5066E836A939412E32403C99029B92EFF PUSH1 0x20 MSTORE PUSH1 0x40 SWAP1 KECCAK256 SLOAD PUSH1 0xFF AND ISZERO PUSH2 0x144C JUMPI JUMP JUMPDEST PUSH4 0xE2517D3F PUSH1 0xE0 SHL PUSH1 0x0 MSTORE CALLER PUSH1 0x4 MSTORE PUSH1 0x0 PUSH1 0x24 MSTORE PUSH1 0x44 PUSH1 0x0 REVERT JUMPDEST PUSH1 0x0 DUP2 DUP2 MSTORE PUSH1 0x3 PUSH1 0x20 SWAP1 DUP2 MSTORE PUSH1 0x40 DUP1 DUP4 KECCAK256 CALLER DUP5 MSTORE SWAP1 SWAP2 MSTORE SWAP1 KECCAK256 SLOAD PUSH1 0xFF AND ISZERO PUSH2 0x148B JUMPI POP JUMP JUMPDEST PUSH4 0xE2517D3F PUSH1 0xE0 SHL PUSH1 0x0 MSTORE CALLER PUSH1 0x4 MSTORE PUSH1 0x24 MSTORE PUSH1 0x44 PUSH1 0x0 REVERT JUMPDEST PUSH1 0x0 DUP2 DUP2 MSTORE PUSH1 0x3 PUSH1 0x20 SWAP1 DUP2 MSTORE PUSH1 0x40 DUP1 DUP4 KECCAK256 PUSH1 0x1 PUSH1 0x1 PUSH1 0xA0 SHL SUB DUP7 AND DUP5 MSTORE SWAP1 SWAP2 MSTORE SWAP1 KECCAK256 SLOAD PUSH1 0xFF AND PUSH2 0x1530 JUMPI PUSH1 0x0 DUP2 DUP2 MSTORE PUSH1 0x3 PUSH1 0x20 SWAP1 DUP2 MSTORE PUSH1 0x40 DUP1 DUP4 KECCAK256 PUSH1 0x1 PUSH1 0x1 PUSH1 0xA0 SHL SUB DUP7 AND DUP5 MSTORE SWAP1 SWAP2 MSTORE SWAP1 KECCAK256 DUP1 SLOAD PUSH1 0xFF NOT AND PUSH1 0x1 OR SWAP1 SSTORE CALLER SWAP2 PUSH1 0x1 PUSH1 0x1 PUSH1 0xA0 SHL SUB AND SWAP1 PUSH32 0x2F8788117E7EFF1D82E926EC794901D17C78024A50270940304540A733656F0D PUSH1 0x0 DUP1 LOG4 PUSH1 0x1 SWAP1 JUMP JUMPDEST POP POP PUSH1 0x0 SWAP1 JUMP JUMPDEST PUSH1 0x0 DUP2 DUP2 MSTORE PUSH1 0x3 PUSH1 0x20 SWAP1 DUP2 MSTORE PUSH1 0x40 DUP1 DUP4 KECCAK256 PUSH1 0x1 PUSH1 0x1 PUSH1 0xA0 SHL SUB DUP7 AND DUP5 MSTORE SWAP1 SWAP2 MSTORE SWAP1 KECCAK256 SLOAD PUSH1 0xFF AND ISZERO PUSH2 0x1530 JUMPI PUSH1 0x0 DUP2 DUP2 MSTORE PUSH1 0x3 PUSH1 0x20 SWAP1 DUP2 MSTORE PUSH1 0x40 DUP1 DUP4 KECCAK256 PUSH1 0x1 PUSH1 0x1 PUSH1 0xA0 SHL SUB DUP7 AND DUP5 MSTORE SWAP1 SWAP2 MSTORE SWAP1 KECCAK256 DUP1 SLOAD PUSH1 0xFF NOT AND SWAP1 SSTORE CALLER SWAP2 PUSH1 0x1 PUSH1 0x1 PUSH1 0xA0 SHL SUB AND SWAP1 PUSH32 0xF6391F5C32D9C69D2A47EA670B442974B53935D1EDC7FD64EB21E047A839171B PUSH1 0x0 DUP1 LOG4 PUSH1 0x1 SWAP1 JUMP JUMPDEST SWAP5 SWAP4 SWAP3 SWAP1 SWAP2 SWAP4 DUP5 MLOAD DUP3 MLOAD SWAP1 DUP2 DUP2 SUB PUSH2 0x6E0 JUMPI POP POP PUSH1 0x1 PUSH1 0x1 PUSH1 0xA0 SHL SUB DUP7 DUP2 AND SWAP6 DUP7 ISZERO ISZERO SWAP6 SWAP2 DUP6 AND DUP1 ISZERO ISZERO SWAP4 SWAP2 SWAP3 SWAP1 PUSH1 0x0 JUMPDEST DUP5 MLOAD DUP2 LT ISZERO PUSH2 0x16D5 JUMPI DUP1 PUSH1 0x5 SHL SWAP1 DUP10 DUP10 DUP9 PUSH1 0x20 DUP1 DUP7 DUP12 ADD ADD MLOAD SWAP6 DUP13 ADD ADD MLOAD SWAP3 PUSH2 0x164E JUMPI JUMPDEST SWAP4 PUSH1 0x1 SWAP5 PUSH2 0x1629 JUMPI JUMPDEST POP POP POP ADD PUSH2 0x15F3 JUMP JUMPDEST PUSH2 0x1644 SWAP2 PUSH2 0x59A PUSH2 0x5B1 SWAP3 PUSH1 0x0 MSTORE PUSH1 0x0 PUSH1 0x20 MSTORE PUSH1 0x40 PUSH1 0x0 KECCAK256 SWAP1 JUMP JUMPDEST SWAP1 SSTORE CODESIZE DUP10 DUP2 PUSH2 0x1620 JUMP JUMPDEST POP POP SWAP1 SWAP2 PUSH2 0x166A DUP14 PUSH2 0x59A DUP4 PUSH1 0x0 MSTORE PUSH1 0x0 PUSH1 0x20 MSTORE PUSH1 0x40 PUSH1 0x0 KECCAK256 SWAP1 JUMP JUMPDEST SLOAD DUP3 DUP2 LT PUSH2 0x169E JUMPI DUP3 SWAP2 DUP10 DUP16 PUSH2 0x1695 PUSH1 0x1 SWAP8 SWAP7 DUP16 SWAP6 SUB SWAP2 PUSH2 0x59A DUP6 PUSH1 0x0 MSTORE PUSH1 0x0 PUSH1 0x20 MSTORE PUSH1 0x40 PUSH1 0x0 KECCAK256 SWAP1 JUMP JUMPDEST SSTORE SWAP1 SWAP5 POP PUSH2 0x1617 JUMP JUMPDEST PUSH1 0x40 MLOAD PUSH4 0x3DEE4C5 PUSH1 0xE0 SHL DUP2 MSTORE PUSH1 0x1 PUSH1 0x1 PUSH1 0xA0 SHL SUB DUP16 AND PUSH1 0x4 DUP3 ADD MSTORE PUSH1 0x24 DUP2 ADD SWAP2 SWAP1 SWAP2 MSTORE PUSH1 0x44 DUP2 ADD DUP4 SWAP1 MSTORE PUSH1 0x64 DUP2 ADD DUP3 SWAP1 MSTORE PUSH1 0x84 SWAP1 REVERT JUMPDEST POP SWAP2 SWAP9 SWAP6 SWAP4 SWAP3 SWAP8 SWAP1 SWAP7 POP PUSH1 0x1 DUP9 MLOAD EQ PUSH1 0x0 EQ PUSH2 0x1769 JUMPI PUSH1 0x20 DUP9 DUP2 ADD MLOAD DUP7 DUP3 ADD MLOAD PUSH1 0x40 DUP1 MLOAD SWAP3 DUP4 MSTORE SWAP3 DUP3 ADD MSTORE CALLER SWAP2 PUSH32 0xC3D58168C5AE7397731D063D5BBF3D657854427343F4C083240F7AACAA2D0F62 SWAP2 LOG4 JUMPDEST PUSH2 0x1732 JUMPI JUMPDEST POP POP POP POP POP JUMP JUMPDEST DUP5 MLOAD PUSH1 0x1 SUB PUSH2 0x1758 JUMPI PUSH1 0x20 DUP1 PUSH2 0x174E SWAP7 ADD MLOAD SWAP3 ADD MLOAD SWAP3 CALLER PUSH2 0x1995 JUMP JUMPDEST CODESIZE DUP1 DUP1 DUP1 DUP1 PUSH2 0x172B JUMP JUMPDEST PUSH2 0x1764 SWAP5 SWAP2 SWAP3 CALLER PUSH2 0x1860 JUMP JUMPDEST PUSH2 0x174E JUMP JUMPDEST PUSH1 0x40 MLOAD PUSH32 0x4A39DC06D4C0DBC64B70AF90FD698A233A518AA5D07E595D983B8C0526C8F7FB CALLER SWAP2 DUP1 PUSH2 0x179B DUP10 DUP14 DUP4 PUSH2 0x17A3 JUMP JUMPDEST SUB SWAP1 LOG4 PUSH2 0x1726 JUMP JUMPDEST SWAP1 SWAP2 PUSH2 0x17BA PUSH2 0x2D1 SWAP4 PUSH1 0x40 DUP5 MSTORE PUSH1 0x40 DUP5 ADD SWAP1 PUSH2 0x981 JUMP JUMPDEST SWAP2 PUSH1 0x20 DUP2 DUP5 SUB SWAP2 ADD MSTORE PUSH2 0x981 JUMP JUMPDEST SWAP1 DUP2 PUSH1 0x20 SWAP2 SUB SLT PUSH2 0x161 JUMPI MLOAD PUSH2 0x2D1 DUP2 PUSH2 0x1DD JUMP JUMPDEST PUSH1 0x1 PUSH1 0x1 PUSH1 0xA0 SHL SUB SWAP2 DUP3 AND DUP2 MSTORE SWAP2 AND PUSH1 0x20 DUP3 ADD MSTORE PUSH1 0xA0 PUSH1 0x40 DUP3 ADD DUP2 SWAP1 MSTORE PUSH2 0x2D1 SWAP5 SWAP2 SWAP4 SWAP2 SWAP3 PUSH2 0x1822 SWAP3 SWAP2 PUSH2 0x1814 SWAP2 SWAP1 DUP7 ADD SWAP1 PUSH2 0x981 JUMP JUMPDEST SWAP1 DUP5 DUP3 SUB PUSH1 0x60 DUP7 ADD MSTORE PUSH2 0x981 JUMP JUMPDEST SWAP2 PUSH1 0x80 DUP2 DUP5 SUB SWAP2 ADD MSTORE PUSH2 0x29B JUMP JUMPDEST RETURNDATASIZE ISZERO PUSH2 0x185B JUMPI RETURNDATASIZE SWAP1 PUSH2 0x1841 DUP3 PUSH2 0x7F9 JUMP JUMPDEST SWAP2 PUSH2 0x184F PUSH1 0x40 MLOAD SWAP4 DUP5 PUSH2 0x75D JUMP JUMPDEST DUP3 MSTORE RETURNDATASIZE PUSH1 0x0 PUSH1 0x20 DUP5 ADD RETURNDATACOPY JUMP JUMPDEST PUSH1 0x60 SWAP1 JUMP JUMPDEST SWAP1 SWAP2 SWAP5 SWAP3 SWAP4 DUP6 EXTCODESIZE PUSH2 0x1874 JUMPI JUMPDEST POP POP POP POP POP POP JUMP JUMPDEST PUSH1 0x20 SWAP4 PUSH2 0x1896 SWAP2 PUSH1 0x40 MLOAD SWAP7 DUP8 SWAP6 DUP7 SWAP6 PUSH4 0xBC197C81 PUSH1 0xE0 SHL DUP8 MSTORE PUSH1 0x4 DUP8 ADD PUSH2 0x17DD JUMP JUMPDEST SUB DUP2 PUSH1 0x0 PUSH1 0x1 PUSH1 0x1 PUSH1 0xA0 SHL SUB DUP8 AND GAS CALL PUSH1 0x0 SWAP2 DUP2 PUSH2 0x192B JUMPI JUMPDEST POP PUSH2 0x18EB JUMPI POP PUSH2 0x18BD PUSH2 0x1830 JUMP JUMPDEST DUP1 MLOAD SWAP2 SWAP1 DUP3 PUSH2 0x18E4 JUMPI PUSH4 0x2BFA23E7 PUSH1 0xE1 SHL PUSH1 0x0 MSTORE PUSH1 0x1 PUSH1 0x1 PUSH1 0xA0 SHL SUB DUP3 AND PUSH1 0x4 MSTORE PUSH1 0x24 PUSH1 0x0 REVERT JUMPDEST SWAP1 POP PUSH1 0x20 ADD REVERT JUMPDEST PUSH1 0x1 PUSH1 0x1 PUSH1 0xE0 SHL SUB NOT AND PUSH4 0x43E6837F PUSH1 0xE0 SHL ADD PUSH2 0x190E JUMPI POP CODESIZE DUP1 DUP1 DUP1 DUP1 DUP1 PUSH2 0x186C JUMP JUMPDEST PUSH4 0x2BFA23E7 PUSH1 0xE1 SHL PUSH1 0x0 MSTORE PUSH1 0x1 PUSH1 0x1 PUSH1 0xA0 SHL SUB AND PUSH1 0x4 MSTORE PUSH1 0x24 PUSH1 0x0 REVERT JUMPDEST PUSH2 0x194E SWAP2 SWAP3 POP PUSH1 0x20 RETURNDATASIZE PUSH1 0x20 GT PUSH2 0x1955 JUMPI JUMPDEST PUSH2 0x1946 DUP2 DUP4 PUSH2 0x75D JUMP JUMPDEST DUP2 ADD SWAP1 PUSH2 0x17C8 JUMP JUMPDEST SWAP1 CODESIZE PUSH2 0x18AF JUMP JUMPDEST POP RETURNDATASIZE PUSH2 0x193C JUMP JUMPDEST PUSH1 0x1 PUSH1 0x1 PUSH1 0xA0 SHL SUB SWAP2 DUP3 AND DUP2 MSTORE SWAP2 AND PUSH1 0x20 DUP3 ADD MSTORE PUSH1 0x40 DUP2 ADD SWAP2 SWAP1 SWAP2 MSTORE PUSH1 0x60 DUP2 ADD SWAP2 SWAP1 SWAP2 MSTORE PUSH1 0xA0 PUSH1 0x80 DUP3 ADD DUP2 SWAP1 MSTORE PUSH2 0x2D1 SWAP3 SWAP2 ADD SWAP1 PUSH2 0x29B JUMP JUMPDEST SWAP1 SWAP2 SWAP5 SWAP3 SWAP4 DUP6 EXTCODESIZE PUSH2 0x19A8 JUMPI POP POP POP POP POP POP JUMP JUMPDEST PUSH1 0x20 SWAP4 PUSH2 0x19CA SWAP2 PUSH1 0x40 MLOAD SWAP7 DUP8 SWAP6 DUP7 SWAP6 PUSH4 0xF23A6E61 PUSH1 0xE0 SHL DUP8 MSTORE PUSH1 0x4 DUP8 ADD PUSH2 0x195C JUMP JUMPDEST SUB DUP2 PUSH1 0x0 PUSH1 0x1 PUSH1 0x1 PUSH1 0xA0 SHL SUB DUP8 AND GAS CALL PUSH1 0x0 SWAP2 DUP2 PUSH2 0x1A14 JUMPI JUMPDEST POP PUSH2 0x19F1 JUMPI POP PUSH2 0x18BD PUSH2 0x1830 JUMP JUMPDEST PUSH1 0x1 PUSH1 0x1 PUSH1 0xE0 SHL SUB NOT AND PUSH4 0xDC5919F PUSH1 0xE0 SHL ADD PUSH2 0x190E JUMPI POP CODESIZE DUP1 DUP1 DUP1 DUP1 DUP1 PUSH2 0x186C JUMP JUMPDEST PUSH2 0x1A2E SWAP2 SWAP3 POP PUSH1 0x20 RETURNDATASIZE PUSH1 0x20 GT PUSH2 0x1955 JUMPI PUSH2 0x1946 DUP2 DUP4 PUSH2 0x75D JUMP JUMPDEST SWAP1 CODESIZE PUSH2 0x19E3 JUMP INVALID LOG2 PUSH5 0x6970667358 0x22 SLT KECCAK256 SWAP10 SHR 0xC3 0xB7 PUSH2 0x47D5 0xE1 STATICCALL PUSH9 0x50A4BEAFEA47843A8B SWAP14 CALLDATALOAD EXP 0xD7 DUP16 ADD 0xB4 0xC2 GT 0xDF PUSH8 0xE99864736F6C6343 STOP ADDMOD SHL STOP CALLER 0x2F DUP8 DUP9 GT PUSH31 0x7EFF1D82E926EC794901D17C78024A50270940304540A733656F0D5562E70D LOG3 TIMESTAMP 0xDB DUP2 JUMP SWAP16 ADDRESS SWAP5 0xD3 PUSH12 0xE279BEACA7AD8E08F434EA18 DUP15 PUSH26 0xD2BFE10C3617319A054D772F909F7C479A2CEBE5066E836A9394 SLT 0xE3 0x24 SUB 0xC9 SWAP1 0x29 0xB9 0x2E SELFDESTRUCT "},"methodIdentifiers":{"DEFAULT_ADMIN_ROLE()":"a217fddf","MINTER_ROLE()":"d5391393","balanceOf(address,uint256)":"00fdd58e","balanceOfBatch(address[],uint256[])":"4e1273f4","burn(address,uint256,uint256)":"f5298aca","getRoleAdmin(bytes32)":"248a9ca3","grantRole(bytes32,address)":"2f2ff15d","hasRole(bytes32,address)":"91d14854","isApprovedForAll(address,address)":"e985e9c5","mint(address,uint256,uint256)":"156e29f6","productSupply(uint256)":"ef8593e7","renounceRole(bytes32,address)":"36568abe","revokeRole(bytes32,address)":"d547741f","safeBatchTransferFrom(address,address,uint256[],uint256[],bytes)":"2eb2c2d6","safeTransferFrom(address,address,uint256,uint256,bytes)":"f242432a","setApprovalForAll(address,bool)":"a22cb465","setBaseURI(string)":"55f804b3","supportsInterface(bytes4)":"01ffc9a7","uri(uint256)":"0e89341c"}}}}}