{"contracts/mocks/MockAutomationRegistrar.sol":{"MockAutomationRegistrar":{"abi":[{"anonymous":false,"inputs":[{"indexed":false,"internalType":"string","name":"name","type":"string"},{"indexed":false,"internalType":"bytes","name":"encryptedEmail","type":"bytes"},{"indexed":false,"internalType":"address","name":"upkeepContract","type":"address"},{"indexed":false,"internalType":"uint32","name":"gasLimit","type":"uint32"},{"indexed":false,"internalType":"address","name":"adminAddress","type":"address"},{"indexed":false,"internalType":"bytes","name":"checkData","type":"bytes"},{"indexed":false,"internalType":"uint96","name":"amount","type":"uint96"},{"indexed":false,"internalType":"uint8","name":"source","type":"uint8"}],"name":"RegistrationRequested","type":"event"},{"inputs":[{"internalType":"string","name":"name","type":"string"},{"internalType":"bytes","name":"encryptedEmail","type":"bytes"},{"internalType":"address","name":"upkeepContract","type":"address"},{"internalType":"uint32","name":"gasLimit","type":"uint32"},{"internalType":"address","name":"adminAddress","type":"address"},{"internalType":"bytes","name":"checkData","type":"bytes"},{"internalType":"uint96","name":"amount","type":"uint96"},{"internalType":"uint8","name":"source","type":"uint8"}],"name":"register","outputs":[{"internalType":"bool","name":"","type":"bool"}],"stateMutability":"nonpayable","type":"function"}],"evm":{"bytecode":{"linkReferences":{},"object":"608080604052346015576102a6908161001b8239f35b600080fdfe6080604052600436101561001257600080fd5b60003560e01c63c4110e5c1461002757600080fd5b3461019a5761010036600319011261019a5760043567ffffffffffffffff811161019a573660238201121561019a5761006a90369060248160040135910161019f565b60243567ffffffffffffffff811161019a5761008a903690600401610211565b906044356001600160a01b038116919082900361019a576064359163ffffffff831680930361019a576084356001600160a01b038116949085900361019a5760a43567ffffffffffffffff811161019a576100e9903690600401610211565b9060c435926bffffffffffffffffffffffff841680940361019a5760e4359260ff841680940361019a577fea3d9a7b7ea302e8330a22297188500bda7e831aea0b89bfeb7ab2ee773131029761015697610164610181956040519a8b9a6101008c526101008c019061022f565b908a820360208c015261022f565b9360408901526060880152608087015285820360a087015261022f565b9160c084015260e08301520390a1602060405160018152f35b600080fd5b92919267ffffffffffffffff82116101fb57601f19601f8301169160405192603f601f19910116830183811067ffffffffffffffff8211176101fb5760405282948184528183011161019a578281602093846000960137010152565b634e487b7160e01b600052604160045260246000fd5b9080601f8301121561019a5781602061022c9335910161019f565b90565b919082519283825260005b84811061025b575050826000602080949584010152601f8019910116010190565b8060208092840101518282860101520161023a56fea26469706673582212200e2d5354478ad6079acb0c2419de6e94026202d856ae6fe052924dac685e7d8e64736f6c634300081b0033","opcodes":"PUSH1 0x80 DUP1 PUSH1 0x40 MSTORE CALLVALUE PUSH1 0x15 JUMPI PUSH2 0x2A6 SWAP1 DUP2 PUSH2 0x1B DUP3 CODECOPY RETURN JUMPDEST PUSH1 0x0 DUP1 REVERT INVALID PUSH1 0x80 PUSH1 0x40 MSTORE PUSH1 0x4 CALLDATASIZE LT ISZERO PUSH2 0x12 JUMPI PUSH1 0x0 DUP1 REVERT JUMPDEST PUSH1 0x0 CALLDATALOAD PUSH1 0xE0 SHR PUSH4 0xC4110E5C EQ PUSH2 0x27 JUMPI PUSH1 0x0 DUP1 REVERT JUMPDEST CALLVALUE PUSH2 0x19A JUMPI PUSH2 0x100 CALLDATASIZE PUSH1 0x3 NOT ADD SLT PUSH2 0x19A JUMPI PUSH1 0x4 CALLDATALOAD PUSH8 0xFFFFFFFFFFFFFFFF DUP2 GT PUSH2 0x19A JUMPI CALLDATASIZE PUSH1 0x23 DUP3 ADD SLT ISZERO PUSH2 0x19A JUMPI PUSH2 0x6A SWAP1 CALLDATASIZE SWAP1 PUSH1 0x24 DUP2 PUSH1 0x4 ADD CALLDATALOAD SWAP2 ADD PUSH2 0x19F JUMP JUMPDEST PUSH1 0x24 CALLDATALOAD PUSH8 0xFFFFFFFFFFFFFFFF DUP2 GT PUSH2 0x19A JUMPI PUSH2 0x8A SWAP1 CALLDATASIZE SWAP1 PUSH1 0x4 ADD PUSH2 0x211 JUMP JUMPDEST SWAP1 PUSH1 0x44 CALLDATALOAD PUSH1 0x1 PUSH1 0x1 PUSH1 0xA0 SHL SUB DUP2 AND SWAP2 SWAP1 DUP3 SWAP1 SUB PUSH2 0x19A JUMPI PUSH1 0x64 CALLDATALOAD SWAP2 PUSH4 0xFFFFFFFF DUP4 AND DUP1 SWAP4 SUB PUSH2 0x19A JUMPI PUSH1 0x84 CALLDATALOAD PUSH1 0x1 PUSH1 0x1 PUSH1 0xA0 SHL SUB DUP2 AND SWAP5 SWAP1 DUP6 SWAP1 SUB PUSH2 0x19A JUMPI PUSH1 0xA4 CALLDATALOAD PUSH8 0xFFFFFFFFFFFFFFFF DUP2 GT PUSH2 0x19A JUMPI PUSH2 0xE9 SWAP1 CALLDATASIZE SWAP1 PUSH1 0x4 ADD PUSH2 0x211 JUMP JUMPDEST SWAP1 PUSH1 0xC4 CALLDATALOAD SWAP3 PUSH12 0xFFFFFFFFFFFFFFFFFFFFFFFF DUP5 AND DUP1 SWAP5 SUB PUSH2 0x19A JUMPI PUSH1 0xE4 CALLDATALOAD SWAP3 PUSH1 0xFF DUP5 AND DUP1 SWAP5 SUB PUSH2 0x19A JUMPI PUSH32 0xEA3D9A7B7EA302E8330A22297188500BDA7E831AEA0B89BFEB7AB2EE77313102 SWAP8 PUSH2 0x156 SWAP8 PUSH2 0x164 PUSH2 0x181 SWAP6 PUSH1 0x40 MLOAD SWAP11 DUP12 SWAP11 PUSH2 0x100 DUP13 MSTORE PUSH2 0x100 DUP13 ADD SWAP1 PUSH2 0x22F JUMP JUMPDEST SWAP1 DUP11 DUP3 SUB PUSH1 0x20 DUP13 ADD MSTORE PUSH2 0x22F JUMP JUMPDEST SWAP4 PUSH1 0x40 DUP10 ADD MSTORE PUSH1 0x60 DUP9 ADD MSTORE PUSH1 0x80 DUP8 ADD MSTORE DUP6 DUP3 SUB PUSH1 0xA0 DUP8 ADD MSTORE PUSH2 0x22F JUMP JUMPDEST SWAP2 PUSH1 0xC0 DUP5 ADD MSTORE PUSH1 0xE0 DUP4 ADD MSTORE SUB SWAP1 LOG1 PUSH1 0x20 PUSH1 0x40 MLOAD PUSH1 0x1 DUP2 MSTORE RETURN JUMPDEST PUSH1 0x0 DUP1 REVERT JUMPDEST SWAP3 SWAP2 SWAP3 PUSH8 0xFFFFFFFFFFFFFFFF DUP3 GT PUSH2 0x1FB JUMPI PUSH1 0x1F NOT PUSH1 0x1F DUP4 ADD AND SWAP2 PUSH1 0x40 MLOAD SWAP3 PUSH1 0x3F PUSH1 0x1F NOT SWAP2 ADD AND DUP4 ADD DUP4 DUP2 LT PUSH8 0xFFFFFFFFFFFFFFFF DUP3 GT OR PUSH2 0x1FB JUMPI PUSH1 0x40 MSTORE DUP3 SWAP5 DUP2 DUP5 MSTORE DUP2 DUP4 ADD GT PUSH2 0x19A JUMPI DUP3 DUP2 PUSH1 0x20 SWAP4 DUP5 PUSH1 0x0 SWAP7 ADD CALLDATACOPY ADD ADD MSTORE JUMP JUMPDEST PUSH4 0x4E487B71 PUSH1 0xE0 SHL PUSH1 0x0 MSTORE PUSH1 0x41 PUSH1 0x4 MSTORE PUSH1 0x24 PUSH1 0x0 REVERT JUMPDEST SWAP1 DUP1 PUSH1 0x1F DUP4 ADD SLT ISZERO PUSH2 0x19A JUMPI DUP2 PUSH1 0x20 PUSH2 0x22C SWAP4 CALLDATALOAD SWAP2 ADD PUSH2 0x19F JUMP JUMPDEST SWAP1 JUMP JUMPDEST SWAP2 SWAP1 DUP3 MLOAD SWAP3 DUP4 DUP3 MSTORE PUSH1 0x0 JUMPDEST DUP5 DUP2 LT PUSH2 0x25B JUMPI POP POP DUP3 PUSH1 0x0 PUSH1 0x20 DUP1 SWAP5 SWAP6 DUP5 ADD ADD MSTORE PUSH1 0x1F DUP1 NOT SWAP2 ADD AND ADD ADD SWAP1 JUMP JUMPDEST DUP1 PUSH1 0x20 DUP1 SWAP3 DUP5 ADD ADD MLOAD DUP3 DUP3 DUP7 ADD ADD MSTORE ADD PUSH2 0x23A JUMP INVALID LOG2 PUSH5 0x6970667358 0x22 SLT KECCAK256 0xE 0x2D MSTORE8 SLOAD SELFBALANCE DUP11 0xD6 SMOD SWAP11 0xCB 0xC 0x24 NOT 0xDE PUSH15 0x94026202D856AE6FE052924DAC685E PUSH30 0x8E64736F6C634300081B0033000000000000000000000000000000000000 "},"methodIdentifiers":{"register(string,bytes,address,uint32,address,bytes,uint96,uint8)":"c4110e5c"}}}}}