{
  "_format": "hh-sol-artifact-1",
  "contractName": "USDCFundraiserFactoryUpgradeable",
  "sourceName": "contracts/USDCFundraiserFactoryUpgradeable.sol",
  "abi": [
    {
      "inputs": [],
      "stateMutability": "nonpayable",
      "type": "constructor"
    },
    {
      "inputs": [
        {
          "internalType": "address",
          "name": "target",
          "type": "address"
        }
      ],
      "name": "AddressEmptyCode",
      "type": "error"
    },
    {
      "inputs": [
        {
          "internalType": "address",
          "name": "implementation",
          "type": "address"
        }
      ],
      "name": "ERC1967InvalidImplementation",
      "type": "error"
    },
    {
      "inputs": [],
      "name": "ERC1967NonPayable",
      "type": "error"
    },
    {
      "inputs": [],
      "name": "FailedCall",
      "type": "error"
    },
    {
      "inputs": [],
      "name": "FailedDeployment",
      "type": "error"
    },
    {
      "inputs": [
        {
          "internalType": "uint256",
          "name": "balance",
          "type": "uint256"
        },
        {
          "internalType": "uint256",
          "name": "needed",
          "type": "uint256"
        }
      ],
      "name": "InsufficientBalance",
      "type": "error"
    },
    {
      "inputs": [],
      "name": "InvalidInitialization",
      "type": "error"
    },
    {
      "inputs": [],
      "name": "NotInitializing",
      "type": "error"
    },
    {
      "inputs": [
        {
          "internalType": "address",
          "name": "owner",
          "type": "address"
        }
      ],
      "name": "OwnableInvalidOwner",
      "type": "error"
    },
    {
      "inputs": [
        {
          "internalType": "address",
          "name": "account",
          "type": "address"
        }
      ],
      "name": "OwnableUnauthorizedAccount",
      "type": "error"
    },
    {
      "inputs": [],
      "name": "UUPSUnauthorizedCallContext",
      "type": "error"
    },
    {
      "inputs": [
        {
          "internalType": "bytes32",
          "name": "slot",
          "type": "bytes32"
        }
      ],
      "name": "UUPSUnsupportedProxiableUUID",
      "type": "error"
    },
    {
      "anonymous": false,
      "inputs": [
        {
          "indexed": true,
          "internalType": "address",
          "name": "fundraiser",
          "type": "address"
        },
        {
          "indexed": true,
          "internalType": "address",
          "name": "creator",
          "type": "address"
        }
      ],
      "name": "FundraiserCreated",
      "type": "event"
    },
    {
      "anonymous": false,
      "inputs": [
        {
          "indexed": true,
          "internalType": "address",
          "name": "newImplementation",
          "type": "address"
        }
      ],
      "name": "ImplementationUpdated",
      "type": "event"
    },
    {
      "anonymous": false,
      "inputs": [
        {
          "indexed": false,
          "internalType": "uint64",
          "name": "version",
          "type": "uint64"
        }
      ],
      "name": "Initialized",
      "type": "event"
    },
    {
      "anonymous": false,
      "inputs": [
        {
          "indexed": true,
          "internalType": "address",
          "name": "previousOwner",
          "type": "address"
        },
        {
          "indexed": true,
          "internalType": "address",
          "name": "newOwner",
          "type": "address"
        }
      ],
      "name": "OwnershipTransferred",
      "type": "event"
    },
    {
      "anonymous": false,
      "inputs": [
        {
          "indexed": true,
          "internalType": "address",
          "name": "implementation",
          "type": "address"
        }
      ],
      "name": "Upgraded",
      "type": "event"
    },
    {
      "inputs": [],
      "name": "BASIS_POINTS",
      "outputs": [
        {
          "internalType": "uint256",
          "name": "",
          "type": "uint256"
        }
      ],
      "stateMutability": "view",
      "type": "function"
    },
    {
      "inputs": [],
      "name": "UPGRADE_INTERFACE_VERSION",
      "outputs": [
        {
          "internalType": "string",
          "name": "",
          "type": "string"
        }
      ],
      "stateMutability": "view",
      "type": "function"
    },
    {
      "inputs": [
        {
          "internalType": "uint256",
          "name": "newFeePercentage",
          "type": "uint256"
        }
      ],
      "name": "changeDefaultFeePercentage",
      "outputs": [],
      "stateMutability": "nonpayable",
      "type": "function"
    },
    {
      "inputs": [
        {
          "internalType": "address",
          "name": "newFeeWallet",
          "type": "address"
        }
      ],
      "name": "changeFeeWallet",
      "outputs": [],
      "stateMutability": "nonpayable",
      "type": "function"
    },
    {
      "inputs": [
        {
          "internalType": "address",
          "name": "beneficiaryWallet",
          "type": "address"
        },
        {
          "internalType": "uint256",
          "name": "fundingType",
          "type": "uint256"
        },
        {
          "internalType": "uint256",
          "name": "minimumTarget",
          "type": "uint256"
        },
        {
          "internalType": "uint256",
          "name": "deadline",
          "type": "uint256"
        },
        {
          "components": [
            {
              "internalType": "uint256",
              "name": "productId",
              "type": "uint256"
            },
            {
              "internalType": "uint256",
              "name": "price",
              "type": "uint256"
            },
            {
              "internalType": "uint256",
              "name": "supplyLimit",
              "type": "uint256"
            }
          ],
          "internalType": "struct ProductConfig[]",
          "name": "products",
          "type": "tuple[]"
        }
      ],
      "name": "createFundraiser",
      "outputs": [
        {
          "internalType": "address",
          "name": "",
          "type": "address"
        }
      ],
      "stateMutability": "nonpayable",
      "type": "function"
    },
    {
      "inputs": [],
      "name": "defaultFeePercentage",
      "outputs": [
        {
          "internalType": "uint256",
          "name": "",
          "type": "uint256"
        }
      ],
      "stateMutability": "view",
      "type": "function"
    },
    {
      "inputs": [
        {
          "internalType": "uint256",
          "name": "",
          "type": "uint256"
        }
      ],
      "name": "deployedFundraisers",
      "outputs": [
        {
          "internalType": "address",
          "name": "",
          "type": "address"
        }
      ],
      "stateMutability": "view",
      "type": "function"
    },
    {
      "inputs": [],
      "name": "feeWallet",
      "outputs": [
        {
          "internalType": "address",
          "name": "",
          "type": "address"
        }
      ],
      "stateMutability": "view",
      "type": "function"
    },
    {
      "inputs": [],
      "name": "fundraiserImplementation",
      "outputs": [
        {
          "internalType": "address",
          "name": "",
          "type": "address"
        }
      ],
      "stateMutability": "view",
      "type": "function"
    },
    {
      "inputs": [
        {
          "internalType": "uint256",
          "name": "index",
          "type": "uint256"
        }
      ],
      "name": "getDeployedFundraiser",
      "outputs": [
        {
          "internalType": "address",
          "name": "",
          "type": "address"
        }
      ],
      "stateMutability": "view",
      "type": "function"
    },
    {
      "inputs": [],
      "name": "getDeployedFundraisersCount",
      "outputs": [
        {
          "internalType": "uint256",
          "name": "",
          "type": "uint256"
        }
      ],
      "stateMutability": "view",
      "type": "function"
    },
    {
      "inputs": [],
      "name": "getFeeWallet",
      "outputs": [
        {
          "internalType": "address",
          "name": "",
          "type": "address"
        }
      ],
      "stateMutability": "view",
      "type": "function"
    },
    {
      "inputs": [
        {
          "internalType": "address",
          "name": "_usdcAddress",
          "type": "address"
        },
        {
          "internalType": "address",
          "name": "_productTokenAddress",
          "type": "address"
        },
        {
          "internalType": "uint256",
          "name": "_defaultFeePercentage",
          "type": "uint256"
        },
        {
          "internalType": "address",
          "name": "_feeWallet",
          "type": "address"
        },
        {
          "internalType": "address",
          "name": "_fundraiserImplementation",
          "type": "address"
        },
        {
          "internalType": "address",
          "name": "_initialOwner",
          "type": "address"
        }
      ],
      "name": "initialize",
      "outputs": [],
      "stateMutability": "nonpayable",
      "type": "function"
    },
    {
      "inputs": [
        {
          "internalType": "address",
          "name": "",
          "type": "address"
        }
      ],
      "name": "isFundraiser",
      "outputs": [
        {
          "internalType": "bool",
          "name": "",
          "type": "bool"
        }
      ],
      "stateMutability": "view",
      "type": "function"
    },
    {
      "inputs": [],
      "name": "owner",
      "outputs": [
        {
          "internalType": "address",
          "name": "",
          "type": "address"
        }
      ],
      "stateMutability": "view",
      "type": "function"
    },
    {
      "inputs": [],
      "name": "productTokenAddress",
      "outputs": [
        {
          "internalType": "address",
          "name": "",
          "type": "address"
        }
      ],
      "stateMutability": "view",
      "type": "function"
    },
    {
      "inputs": [],
      "name": "proxiableUUID",
      "outputs": [
        {
          "internalType": "bytes32",
          "name": "",
          "type": "bytes32"
        }
      ],
      "stateMutability": "view",
      "type": "function"
    },
    {
      "inputs": [],
      "name": "renounceOwnership",
      "outputs": [],
      "stateMutability": "nonpayable",
      "type": "function"
    },
    {
      "inputs": [
        {
          "internalType": "address",
          "name": "newOwner",
          "type": "address"
        }
      ],
      "name": "transferOwnership",
      "outputs": [],
      "stateMutability": "nonpayable",
      "type": "function"
    },
    {
      "inputs": [
        {
          "internalType": "address",
          "name": "newImplementation",
          "type": "address"
        }
      ],
      "name": "updateFundraiserImplementation",
      "outputs": [],
      "stateMutability": "nonpayable",
      "type": "function"
    },
    {
      "inputs": [
        {
          "internalType": "address",
          "name": "newImplementation",
          "type": "address"
        },
        {
          "internalType": "bytes",
          "name": "data",
          "type": "bytes"
        }
      ],
      "name": "upgradeToAndCall",
      "outputs": [],
      "stateMutability": "payable",
      "type": "function"
    },
    {
      "inputs": [],
      "name": "usdcAddress",
      "outputs": [
        {
          "internalType": "address",
          "name": "",
          "type": "address"
        }
      ],
      "stateMutability": "view",
      "type": "function"
    }
  ],
  "bytecode": "0x60a080604052346100ea57306080527ff0c57e16840df040f15088dc2f81fe391c3923bec73e23a9662efc9c229c6a005460ff8160401c166100d9576002600160401b03196001600160401b03821601610073575b60405161121990816100f0823960805181818161071201526107e30152f35b6001600160401b0319166001600160401b039081177ff0c57e16840df040f15088dc2f81fe391c3923bec73e23a9662efc9c229c6a005581527fc7f505b2f371ae2175ee4913f4499e1f2633a7b5936321eed1cdaeb6115181d290602090a13880610054565b63f92ee8a960e01b60005260046000fd5b600080fdfe608080604052600436101561001357600080fd5b600090813560e01c90816302d4545714610efa5750806306f5e01814610afd5780632022285914610ad25780633119e4b414610aa9578063396f970114610a8057806339d2c66914610a005780633e4d0310146109b45780634f1ef2861461076757806352d1902d146106ff5780635459060d14610437578063715018a6146106955780637a84379c146106265780637f7977d1146105e75780638da5cb5b146105b1578063ad3cb1cc14610537578063b482403414610519578063be531076146104fb578063e1f1c4a7146104de578063eb85469014610460578063f25f4b5614610437578063f2fde38b1461040f5763ff9935cb1461011357600080fd5b3461040c5760c036600319011261040c5761012c610f22565b6024356001600160a01b0381169081900361040a576064356001600160a01b03811690819003610406576084356001600160a01b03811692908390036104025760a435936001600160a01b038516908186036103fe576000805160206111c4833981519152549560ff8760401c16159667ffffffffffffffff8116801590816103f6575b60011490816103ec575b1590816103e3575b506103d45767ffffffffffffffff1981166001176000805160206111c4833981519152556102079190886103a7575b506101fa6110f4565b6102026110f4565b611048565b61020f6110f4565b6001600160a01b031690811561036b57821561032657610230841515610fc2565b61023b851515611003565b156102f1576001600160601b0360a01b8654161785556001600160601b0360a01b60015416176001556044356002556001600160601b0360a01b60035416176003556001600160601b0360a01b60045416176004556102975780f35b68ff0000000000000000196000805160206111c483398151915254166000805160206111c4833981519152557fc7f505b2f371ae2175ee4913f4499e1f2633a7b5936321eed1cdaeb6115181d2602060405160018152a180f35b60405162461bcd60e51b815260206004820152600d60248201526c24b73b30b634b21037bbb732b960991b6044820152606490fd5b60405162461bcd60e51b815260206004820152601d60248201527f496e76616c69642070726f6475637420746f6b656e20616464726573730000006044820152606490fd5b60405162461bcd60e51b8152602060048201526014602482015273496e76616c69642055534443206164647265737360601b6044820152606490fd5b68ffffffffffffffffff191668010000000000000001176000805160206111c483398151915255386101f1565b63f92ee8a960e01b8952600489fd5b905015386101c2565b303b1591506101ba565b8991506101b0565b8680fd5b8480fd5b8380fd5b825b80fd5b503461040c57602036600319011261040c5761043461042c610f22565b6102026110be565b80f35b503461040c578060031936011261040c576003546040516001600160a01b039091168152602090f35b503461040c57602036600319011261040c576004356005548110156104a35761048a602091610f75565b905460405160039290921b1c6001600160a01b03168152f35b60405162461bcd60e51b8152602060048201526013602482015272496e646578206f7574206f6620626f756e647360681b6044820152606490fd5b503461040c578060031936011261040c5760206040516127108152f35b503461040c578060031936011261040c576020600554604051908152f35b503461040c578060031936011261040c576020600254604051908152f35b503461040c578060031936011261040c5760408051916105578284610f3d565b60058352640352e302e360dc1b6020840152815192839160208352815191826020850152815b83811061059a575050828201840152601f01601f19168101030190f35b60208282018101518883018801528795500161057d565b503461040c578060031936011261040c57600080516020611184833981519152546040516001600160a01b039091168152602090f35b503461040c57602036600319011261040c5760209060ff906040906001600160a01b03610612610f22565b168152600684522054166040519015158152f35b503461040c57602036600319011261040c57610640610f22565b6106486110be565b6001600160a01b031661065c811515611003565b600480546001600160a01b031916821790557f310ba5f1d2ed074b51e2eccd052a47ae9ab7c6b800d1fca3db3999d6a592ca038280a280f35b503461040c578060031936011261040c576106ae6110be565b60008051602061118483398151915280546001600160a01b0319811690915581906001600160a01b03167f8be0079c531659141344cd1fd0a4f28419497f9722a3daafe3b4186f6b6457e08280a380f35b503461040c578060031936011261040c577f00000000000000000000000000000000000000000000000000000000000000006001600160a01b031630036107585760206040516000805160206111a48339815191528152f35b63703e46dd60e11b8152600490fd5b50604036600319011261040c5761077c610f22565b6024359067ffffffffffffffff821161040a573660238301121561040a57816004013590836107aa83610fa6565b936107b86040519586610f3d565b8385526020850193366024828401011161040a57806024602093018637850101526001600160a01b037f000000000000000000000000000000000000000000000000000000000000000016308114908115610991575b506109825761081b6110be565b6040516352d1902d60e01b81526001600160a01b0382169390602081600481885afa86918161094e575b5061085e57634c9c8ce360e01b86526004859052602486fd5b93846000805160206111a483398151915287960361093c5750823b1561092a576000805160206111a483398151915280546001600160a01b031916821790558491907fbc7cd75a20ee27fd9adebab32041f755214dbc6bffa90cc0225b39da2e5c2d3b8380a280511561090f576109039382915190845af43d15610907573d916108e783610fa6565b926108f56040519485610f3d565b83523d85602085013e611122565b5080f35b606091611122565b505050503461091b5780f35b63b398979f60e01b8152600490fd5b634c9c8ce360e01b8552600452602484fd5b632a87526960e21b8652600452602485fd5b9091506020813d60201161097a575b8161096a60209383610f3d565b810103126103fe57519038610845565b3d915061095d565b63703e46dd60e11b8452600484fd5b6000805160206111a4833981519152546001600160a01b0316141590503861080e565b503461040c57602036600319011261040c576109ce610f22565b6109d66110be565b6001600160a01b03166109ea811515610fc2565b6001600160601b0360a01b600354161760035580f35b503461040c57602036600319011261040c57600435610a1d6110be565b612710811015610a2d5760025580f35b60405162461bcd60e51b815260206004820152602560248201527f4665652070657263656e74616765206d757374206265206c657373207468616e604482015264203130302560d81b6064820152608490fd5b503461040c578060031936011261040c576001546040516001600160a01b039091168152602090f35b503461040c578060031936011261040c576004546040516001600160a01b039091168152602090f35b503461040c57602036600319011261040c576004359060055482101561040c57602061048a83610f75565b503461040c5760a036600319011261040c57610b17610f22565b906064356084359267ffffffffffffffff841161040a573660238501121561040a5783600401359067ffffffffffffffff8211610ee65760405194610b6260208460051b0187610f3d565b828652602086019060246060839502820101903682116103fe57602401915b818310610e83575050506001600160a01b0316918215610e485742811115610e1057845115610ddd57600454608881901c62ffffff16763d602d80600a3d3981f3363d3d373d3d3d363d7300000017855260781b6effffffffffffffffffffffffffffff19166e5af43d82803e903d91602b57fd5bf3176020526001600160a01b036037600986f016948515610dce578454600354600254600154600080516020611184833981519152546001600160a01b0390811696948116959491811693919291168a3b15610dca57979593918997959391604051998a986370d2182960e01b8a526101648a019660048b015260248a015260448901526064880152602435608488015260443560a488015260c487015260e48601526101606101048601525180915261018484019290855b818110610d9457505033610124850152506101448301528190038183875af18015610d89578290610d79575b50506005549168010000000000000000831015610d6557610d0483600160209501600555610f75565b81546001600160a01b0360039290921b91821b19169083901b179055808252600683526040808320805460ff191660011790555191339082907fa2398daac0c8053a1e3c0280916c2ec6bc884f0959c27e639a4db829b7eabfb19080a38152f35b634e487b7160e01b82526041600452602482fd5b610d8291610f3d565b3881610cdb565b6040513d84823e3d90fd5b92945092819550606060209160406001945180518352848101518584015201516040820152019501910190869492869492610caf565b8980fd5b63b06ebf3d60e01b8552600485fd5b60405162461bcd60e51b815260206004820152600b60248201526a4e6f2070726f647563747360a81b6044820152606490fd5b60405162461bcd60e51b815260206004820152601060248201526f496e76616c696420646561646c696e6560801b6044820152606490fd5b60405162461bcd60e51b8152602060048201526013602482015272496e76616c69642062656e656669636961727960681b6044820152606490fd5b6060833603126103fe576040516060810181811067ffffffffffffffff821117610ed2579160209160609360405285358152828601358382015260408601356040820152815201920191610b81565b634e487b7160e01b89526041600452602489fd5b634e487b7160e01b84526041600452602484fd5b905034610f1e5781600319360112610f1e5790546001600160a01b03168152602090f35b5080fd5b600435906001600160a01b0382168203610f3857565b600080fd5b90601f8019910116810190811067ffffffffffffffff821117610f5f57604052565b634e487b7160e01b600052604160045260246000fd5b600554811015610f9057600560005260206000200190600090565b634e487b7160e01b600052603260045260246000fd5b67ffffffffffffffff8111610f5f57601f01601f191660200190565b15610fc957565b60405162461bcd60e51b8152602060048201526012602482015271125b9d985b1a5908199959481dd85b1b195d60721b6044820152606490fd5b1561100a57565b60405162461bcd60e51b815260206004820152601660248201527524b73b30b634b21034b6b83632b6b2b73a30ba34b7b760511b6044820152606490fd5b6001600160a01b031680156110a85760008051602061118483398151915280546001600160a01b0319811683179091556001600160a01b03167f8be0079c531659141344cd1fd0a4f28419497f9722a3daafe3b4186f6b6457e0600080a3565b631e4fbdf760e01b600052600060045260246000fd5b600080516020611184833981519152546001600160a01b031633036110df57565b63118cdaa760e01b6000523360045260246000fd5b60ff6000805160206111c48339815191525460401c161561111157565b631afcd79f60e31b60005260046000fd5b90611148575080511561113757805190602001fd5b63d6bda27560e01b60005260046000fd5b8151158061117a575b611159575090565b639996b31560e01b60009081526001600160a01b0391909116600452602490fd5b50803b1561115156fe9016d09d72d40fdae2fd8ceac6b6234c7706214fd39c1cd1e609a0528c199300360894a13ba1a3210667c828492db98dca3e2076cc3735a920a3ca505d382bbcf0c57e16840df040f15088dc2f81fe391c3923bec73e23a9662efc9c229c6a00a26469706673582212201d2574858bfb5901a9f8a5207eca4e5b59976e1e3831cf07edbb65c94fa2cbc864736f6c634300081b0033",
  "linkReferences": {},
  "deployedLinkReferences": {}
}