{
  "_format": "hh-sol-artifact-1",
  "contractName": "USDCFundraiserFactoryUpgradeable",
  "sourceName": "contracts/USDCFundraiserFactoryUpgradeable.sol",
  "abi": [
    {
      "inputs": [],
      "stateMutability": "nonpayable",
      "type": "constructor"
    },
    {
      "inputs": [
        {
          "internalType": "address",
          "name": "target",
          "type": "address"
        }
      ],
      "name": "AddressEmptyCode",
      "type": "error"
    },
    {
      "inputs": [
        {
          "internalType": "address",
          "name": "implementation",
          "type": "address"
        }
      ],
      "name": "ERC1967InvalidImplementation",
      "type": "error"
    },
    {
      "inputs": [],
      "name": "ERC1967NonPayable",
      "type": "error"
    },
    {
      "inputs": [],
      "name": "FailedCall",
      "type": "error"
    },
    {
      "inputs": [],
      "name": "FailedDeployment",
      "type": "error"
    },
    {
      "inputs": [
        {
          "internalType": "uint256",
          "name": "balance",
          "type": "uint256"
        },
        {
          "internalType": "uint256",
          "name": "needed",
          "type": "uint256"
        }
      ],
      "name": "InsufficientBalance",
      "type": "error"
    },
    {
      "inputs": [],
      "name": "InvalidInitialization",
      "type": "error"
    },
    {
      "inputs": [],
      "name": "NotInitializing",
      "type": "error"
    },
    {
      "inputs": [
        {
          "internalType": "address",
          "name": "owner",
          "type": "address"
        }
      ],
      "name": "OwnableInvalidOwner",
      "type": "error"
    },
    {
      "inputs": [
        {
          "internalType": "address",
          "name": "account",
          "type": "address"
        }
      ],
      "name": "OwnableUnauthorizedAccount",
      "type": "error"
    },
    {
      "inputs": [],
      "name": "UUPSUnauthorizedCallContext",
      "type": "error"
    },
    {
      "inputs": [
        {
          "internalType": "bytes32",
          "name": "slot",
          "type": "bytes32"
        }
      ],
      "name": "UUPSUnsupportedProxiableUUID",
      "type": "error"
    },
    {
      "anonymous": false,
      "inputs": [
        {
          "indexed": true,
          "internalType": "address",
          "name": "fundraiser",
          "type": "address"
        },
        {
          "indexed": true,
          "internalType": "address",
          "name": "creator",
          "type": "address"
        }
      ],
      "name": "FundraiserCreated",
      "type": "event"
    },
    {
      "anonymous": false,
      "inputs": [
        {
          "indexed": true,
          "internalType": "address",
          "name": "newImplementation",
          "type": "address"
        }
      ],
      "name": "ImplementationUpdated",
      "type": "event"
    },
    {
      "anonymous": false,
      "inputs": [
        {
          "indexed": false,
          "internalType": "uint64",
          "name": "version",
          "type": "uint64"
        }
      ],
      "name": "Initialized",
      "type": "event"
    },
    {
      "anonymous": false,
      "inputs": [
        {
          "indexed": true,
          "internalType": "address",
          "name": "previousOwner",
          "type": "address"
        },
        {
          "indexed": true,
          "internalType": "address",
          "name": "newOwner",
          "type": "address"
        }
      ],
      "name": "OwnershipTransferred",
      "type": "event"
    },
    {
      "anonymous": false,
      "inputs": [
        {
          "indexed": true,
          "internalType": "address",
          "name": "fundraiser",
          "type": "address"
        },
        {
          "indexed": true,
          "internalType": "uint256",
          "name": "originalProductId",
          "type": "uint256"
        },
        {
          "indexed": true,
          "internalType": "uint256",
          "name": "uniqueProductId",
          "type": "uint256"
        }
      ],
      "name": "ProductIdMapped",
      "type": "event"
    },
    {
      "anonymous": false,
      "inputs": [
        {
          "indexed": true,
          "internalType": "address",
          "name": "newProductToken",
          "type": "address"
        }
      ],
      "name": "ProductTokenUpdated",
      "type": "event"
    },
    {
      "anonymous": false,
      "inputs": [
        {
          "indexed": true,
          "internalType": "address",
          "name": "implementation",
          "type": "address"
        }
      ],
      "name": "Upgraded",
      "type": "event"
    },
    {
      "inputs": [],
      "name": "BASIS_POINTS",
      "outputs": [
        {
          "internalType": "uint256",
          "name": "",
          "type": "uint256"
        }
      ],
      "stateMutability": "view",
      "type": "function"
    },
    {
      "inputs": [],
      "name": "UPGRADE_INTERFACE_VERSION",
      "outputs": [
        {
          "internalType": "string",
          "name": "",
          "type": "string"
        }
      ],
      "stateMutability": "view",
      "type": "function"
    },
    {
      "inputs": [
        {
          "internalType": "address",
          "name": "givenProductTokenAddress",
          "type": "address"
        },
        {
          "internalType": "address",
          "name": "from",
          "type": "address"
        },
        {
          "internalType": "uint256",
          "name": "productId",
          "type": "uint256"
        },
        {
          "internalType": "uint256",
          "name": "amount",
          "type": "uint256"
        }
      ],
      "name": "burnForFundraiser",
      "outputs": [],
      "stateMutability": "nonpayable",
      "type": "function"
    },
    {
      "inputs": [
        {
          "internalType": "uint256",
          "name": "newFeePercentage",
          "type": "uint256"
        }
      ],
      "name": "changeDefaultFeePercentage",
      "outputs": [],
      "stateMutability": "nonpayable",
      "type": "function"
    },
    {
      "inputs": [
        {
          "internalType": "address",
          "name": "newFeeWallet",
          "type": "address"
        }
      ],
      "name": "changeFeeWallet",
      "outputs": [],
      "stateMutability": "nonpayable",
      "type": "function"
    },
    {
      "inputs": [
        {
          "internalType": "address",
          "name": "beneficiaryWallet",
          "type": "address"
        },
        {
          "internalType": "uint256",
          "name": "fundingType",
          "type": "uint256"
        },
        {
          "internalType": "uint256",
          "name": "minimumTarget",
          "type": "uint256"
        },
        {
          "internalType": "uint256",
          "name": "deadline",
          "type": "uint256"
        },
        {
          "components": [
            {
              "internalType": "uint256",
              "name": "productId",
              "type": "uint256"
            },
            {
              "internalType": "uint256",
              "name": "price",
              "type": "uint256"
            },
            {
              "internalType": "uint256",
              "name": "supplyLimit",
              "type": "uint256"
            }
          ],
          "internalType": "struct ProductConfig[]",
          "name": "products",
          "type": "tuple[]"
        }
      ],
      "name": "createFundraiser",
      "outputs": [
        {
          "internalType": "address",
          "name": "",
          "type": "address"
        }
      ],
      "stateMutability": "nonpayable",
      "type": "function"
    },
    {
      "inputs": [],
      "name": "defaultFeePercentage",
      "outputs": [
        {
          "internalType": "uint256",
          "name": "",
          "type": "uint256"
        }
      ],
      "stateMutability": "view",
      "type": "function"
    },
    {
      "inputs": [
        {
          "internalType": "uint256",
          "name": "",
          "type": "uint256"
        }
      ],
      "name": "deployedFundraisers",
      "outputs": [
        {
          "internalType": "address",
          "name": "",
          "type": "address"
        }
      ],
      "stateMutability": "view",
      "type": "function"
    },
    {
      "inputs": [],
      "name": "feeWallet",
      "outputs": [
        {
          "internalType": "address",
          "name": "",
          "type": "address"
        }
      ],
      "stateMutability": "view",
      "type": "function"
    },
    {
      "inputs": [],
      "name": "fundraiserImplementation",
      "outputs": [
        {
          "internalType": "address",
          "name": "",
          "type": "address"
        }
      ],
      "stateMutability": "view",
      "type": "function"
    },
    {
      "inputs": [
        {
          "internalType": "uint256",
          "name": "index",
          "type": "uint256"
        }
      ],
      "name": "getDeployedFundraiser",
      "outputs": [
        {
          "internalType": "address",
          "name": "",
          "type": "address"
        }
      ],
      "stateMutability": "view",
      "type": "function"
    },
    {
      "inputs": [],
      "name": "getDeployedFundraisersCount",
      "outputs": [
        {
          "internalType": "uint256",
          "name": "",
          "type": "uint256"
        }
      ],
      "stateMutability": "view",
      "type": "function"
    },
    {
      "inputs": [],
      "name": "getFeeWallet",
      "outputs": [
        {
          "internalType": "address",
          "name": "",
          "type": "address"
        }
      ],
      "stateMutability": "view",
      "type": "function"
    },
    {
      "inputs": [
        {
          "internalType": "address",
          "name": "_usdcAddress",
          "type": "address"
        },
        {
          "internalType": "address",
          "name": "_productTokenAddress",
          "type": "address"
        },
        {
          "internalType": "uint256",
          "name": "_defaultFeePercentage",
          "type": "uint256"
        },
        {
          "internalType": "address",
          "name": "_feeWallet",
          "type": "address"
        },
        {
          "internalType": "address",
          "name": "_fundraiserImplementation",
          "type": "address"
        },
        {
          "internalType": "address",
          "name": "_initialOwner",
          "type": "address"
        }
      ],
      "name": "initialize",
      "outputs": [],
      "stateMutability": "nonpayable",
      "type": "function"
    },
    {
      "inputs": [
        {
          "internalType": "address",
          "name": "",
          "type": "address"
        }
      ],
      "name": "isFundraiser",
      "outputs": [
        {
          "internalType": "bool",
          "name": "",
          "type": "bool"
        }
      ],
      "stateMutability": "view",
      "type": "function"
    },
    {
      "inputs": [
        {
          "internalType": "address",
          "name": "givenProductTokenAddress",
          "type": "address"
        },
        {
          "internalType": "address",
          "name": "to",
          "type": "address"
        },
        {
          "internalType": "uint256",
          "name": "productId",
          "type": "uint256"
        },
        {
          "internalType": "uint256",
          "name": "amount",
          "type": "uint256"
        }
      ],
      "name": "mintForFundraiser",
      "outputs": [],
      "stateMutability": "nonpayable",
      "type": "function"
    },
    {
      "inputs": [],
      "name": "owner",
      "outputs": [
        {
          "internalType": "address",
          "name": "",
          "type": "address"
        }
      ],
      "stateMutability": "view",
      "type": "function"
    },
    {
      "inputs": [],
      "name": "productTokenAddress",
      "outputs": [
        {
          "internalType": "address",
          "name": "",
          "type": "address"
        }
      ],
      "stateMutability": "view",
      "type": "function"
    },
    {
      "inputs": [],
      "name": "proxiableUUID",
      "outputs": [
        {
          "internalType": "bytes32",
          "name": "",
          "type": "bytes32"
        }
      ],
      "stateMutability": "view",
      "type": "function"
    },
    {
      "inputs": [],
      "name": "renounceOwnership",
      "outputs": [],
      "stateMutability": "nonpayable",
      "type": "function"
    },
    {
      "inputs": [
        {
          "internalType": "address",
          "name": "newOwner",
          "type": "address"
        }
      ],
      "name": "transferOwnership",
      "outputs": [],
      "stateMutability": "nonpayable",
      "type": "function"
    },
    {
      "inputs": [
        {
          "internalType": "address",
          "name": "newImplementation",
          "type": "address"
        }
      ],
      "name": "updateFundraiserImplementation",
      "outputs": [],
      "stateMutability": "nonpayable",
      "type": "function"
    },
    {
      "inputs": [
        {
          "internalType": "address",
          "name": "newProductToken",
          "type": "address"
        }
      ],
      "name": "updateProductTokenAddress",
      "outputs": [],
      "stateMutability": "nonpayable",
      "type": "function"
    },
    {
      "inputs": [
        {
          "internalType": "address",
          "name": "newImplementation",
          "type": "address"
        },
        {
          "internalType": "bytes",
          "name": "data",
          "type": "bytes"
        }
      ],
      "name": "upgradeToAndCall",
      "outputs": [],
      "stateMutability": "payable",
      "type": "function"
    },
    {
      "inputs": [],
      "name": "usdcAddress",
      "outputs": [
        {
          "internalType": "address",
          "name": "",
          "type": "address"
        }
      ],
      "stateMutability": "view",
      "type": "function"
    }
  ],
  "bytecode": "0x60a080604052346100ea57306080527ff0c57e16840df040f15088dc2f81fe391c3923bec73e23a9662efc9c229c6a005460ff8160401c166100d9576002600160401b03196001600160401b03821601610073575b60405161155d90816100f0823960805181818161084401526109150152f35b6001600160401b0319166001600160401b039081177ff0c57e16840df040f15088dc2f81fe391c3923bec73e23a9662efc9c229c6a005581527fc7f505b2f371ae2175ee4913f4499e1f2633a7b5936321eed1cdaeb6115181d290602090a13880610054565b63f92ee8a960e01b60005260046000fd5b600080fdfe608080604052600436101561001357600080fd5b600090813560e01c90816302d45457146111a45750806306f5e01814610ce85780632022285914610cbd578063270a2a6514610c045780633119e4b414610bdb578063396f970114610bb257806339d2c66914610b325780633e4d031014610ae65780634f1ef2861461089957806352d1902d146108315780635459060d1461041857806363025e97146107c2578063715018a6146107585780637a84379c146106e95780637f7977d1146106aa5780638ca0ebc6146105c85780638da5cb5b14610592578063ad3cb1cc14610518578063b4824034146104fa578063be531076146104dc578063e1f1c4a7146104bf578063eb85469014610441578063f25f4b5614610418578063f2fde38b146103f05763ff9935cb1461013457600080fd5b346103ed5760c03660031901126103ed5761014d6111c8565b6024356001600160a01b038116908190036103eb576064356001600160a01b038116908190036103e7576084356001600160a01b03811692908390036103e35760a435936001600160a01b038516908186036103df57600080516020611508833981519152549560ff8760401c16159667ffffffffffffffff8116801590816103d7575b60011490816103cd575b1590816103c4575b506103b55767ffffffffffffffff19811660011760008051602061150883398151915255610228919088610388575b5061021b611438565b610223611438565b61138c565b610230611438565b6001600160a01b031690811561034c5761024b8315156112fb565b6102568415156112ba565b610261851515611347565b15610317576001600160601b0360a01b8654161785556001600160601b0360a01b60015416176001556044356002556001600160601b0360a01b60035416176003556001600160601b0360a01b60045416176004556102bd5780f35b68ff0000000000000000196000805160206115088339815191525416600080516020611508833981519152557fc7f505b2f371ae2175ee4913f4499e1f2633a7b5936321eed1cdaeb6115181d2602060405160018152a180f35b60405162461bcd60e51b815260206004820152600d60248201526c24b73b30b634b21037bbb732b960991b6044820152606490fd5b60405162461bcd60e51b8152602060048201526014602482015273496e76616c69642055534443206164647265737360601b6044820152606490fd5b68ffffffffffffffffff191668010000000000000001176000805160206115088339815191525538610212565b63f92ee8a960e01b8952600489fd5b905015386101e3565b303b1591506101db565b8991506101d1565b8680fd5b8480fd5b8380fd5b825b80fd5b50346103ed5760203660031901126103ed5761041561040d6111c8565b610223611402565b80f35b50346103ed57806003193601126103ed576003546040516001600160a01b039091168152602090f35b50346103ed5760203660031901126103ed576004356005548110156104845761046b60209161121b565b905460405160039290921b1c6001600160a01b03168152f35b60405162461bcd60e51b8152602060048201526013602482015272496e646578206f7574206f6620626f756e647360681b6044820152606490fd5b50346103ed57806003193601126103ed5760206040516127108152f35b50346103ed57806003193601126103ed576020600554604051908152f35b50346103ed57806003193601126103ed576020600254604051908152f35b50346103ed57806003193601126103ed57604080519161053882846111e3565b60058352640352e302e360dc1b6020840152815192839160208352815191826020850152815b83811061057b575050828201840152601f01601f19168101030190f35b60208282018101518883018801528795500161055e565b50346103ed57806003193601126103ed576000805160206114c8833981519152546040516001600160a01b039091168152602090f35b50346103ed576105d73661124c565b919091338552600660205260ff604086205416156106655784936001600160a01b0316803b156103e357604051630ab714fb60e11b81526001600160a01b039093166004840152602483019390935260448201529082908290818381606481015b03925af1801561065a576106495750f35b81610653916111e3565b6103ed5780f35b6040513d84823e3d90fd5b60405162461bcd60e51b815260206004820152601960248201527f4f6e6c792066756e64726169736572732063616e206d696e74000000000000006044820152606490fd5b50346103ed5760203660031901126103ed5760209060ff906040906001600160a01b036106d56111c8565b168152600684522054166040519015158152f35b50346103ed5760203660031901126103ed576107036111c8565b61070b611402565b6001600160a01b031661071f811515611347565b600480546001600160a01b031916821790557f310ba5f1d2ed074b51e2eccd052a47ae9ab7c6b800d1fca3db3999d6a592ca038280a280f35b50346103ed57806003193601126103ed57610771611402565b6000805160206114c883398151915280546001600160a01b0319811690915581906001600160a01b03167f8be0079c531659141344cd1fd0a4f28419497f9722a3daafe3b4186f6b6457e08280a380f35b50346103ed5760203660031901126103ed576107dc6111c8565b6107e4611402565b6001600160a01b03166107f88115156112fb565b600180546001600160a01b031916821790557f46cec2ff6f514e8ed0cc9f2a26c0135dd76e3943279345141bcba88a5af63f518280a280f35b50346103ed57806003193601126103ed577f00000000000000000000000000000000000000000000000000000000000000006001600160a01b0316300361088a5760206040516000805160206114e88339815191528152f35b63703e46dd60e11b8152600490fd5b5060403660031901126103ed576108ae6111c8565b6024359067ffffffffffffffff82116103eb57366023830112156103eb57816004013590836108dc8361128a565b936108ea60405195866111e3565b838552602085019336602482840101116103eb57806024602093018637850101526001600160a01b037f000000000000000000000000000000000000000000000000000000000000000016308114908115610ac3575b50610ab45761094d611402565b6040516352d1902d60e01b81526001600160a01b0382169390602081600481885afa869181610a80575b5061099057634c9c8ce360e01b86526004859052602486fd5b93846000805160206114e8833981519152879603610a6e5750823b15610a5c576000805160206114e883398151915280546001600160a01b031916821790558491907fbc7cd75a20ee27fd9adebab32041f755214dbc6bffa90cc0225b39da2e5c2d3b8380a2805115610a4157610a359382915190845af43d15610a39573d91610a198361128a565b92610a2760405194856111e3565b83523d85602085013e611466565b5080f35b606091611466565b5050505034610a4d5780f35b63b398979f60e01b8152600490fd5b634c9c8ce360e01b8552600452602484fd5b632a87526960e21b8652600452602485fd5b9091506020813d602011610aac575b81610a9c602093836111e3565b810103126103df57519038610977565b3d9150610a8f565b63703e46dd60e11b8452600484fd5b6000805160206114e8833981519152546001600160a01b03161415905038610940565b50346103ed5760203660031901126103ed57610b006111c8565b610b08611402565b6001600160a01b0316610b1c8115156112ba565b6001600160601b0360a01b600354161760035580f35b50346103ed5760203660031901126103ed57600435610b4f611402565b612710811015610b5f5760025580f35b60405162461bcd60e51b815260206004820152602560248201527f4665652070657263656e74616765206d757374206265206c657373207468616e604482015264203130302560d81b6064820152608490fd5b50346103ed57806003193601126103ed576001546040516001600160a01b039091168152602090f35b50346103ed57806003193601126103ed576004546040516001600160a01b039091168152602090f35b50346103ed57610c133661124c565b919091338552600660205260ff60408620541615610c785784936001600160a01b0316803b156103e357604051637a94c56560e11b81526001600160a01b03909316600484015260248301939093526044820152908290829081838160648101610638565b60405162461bcd60e51b815260206004820152601960248201527f4f6e6c792066756e64726169736572732063616e206275726e000000000000006044820152606490fd5b50346103ed5760203660031901126103ed57600435906005548210156103ed57602061046b8361121b565b50346103ed5760a03660031901126103ed57610d026111c8565b608435916064359167ffffffffffffffff84116111a057366023850112156111a05783600401359067ffffffffffffffff821161118c5760405194610d4d60208460051b01876111e3565b8286526020860190602460608395028201019036821161118857602401915b818310611125575050506001600160a01b03169081156110ea57428411156110b25784511561107f57600454608881901c62ffffff16763d602d80600a3d3981f3363d3d373d3d3d363d7300000017845260781b6effffffffffffffffffffffffffffff19166e5af43d82803e903d91602b57fd5bf3176020526001600160a01b036037600985f0169384156110705783546003546002546001546000805160206114c8833981519152546001600160a01b0390811695948116949181169391929116893b1561106c57969492909188969492604051988997635cb0407960e01b895261018489019560048a0152602489015260448801526064870152602435608487015260443560a487015260c486015260e48501523061010485015261018061012485015288518091526101a484019290855b81811061103657505033610144850152506101648301528190038183875af1801561065a57611026575b5090815b8351811015610f8857610ee281856112a6565b51519060405191638500efa160e01b83526004830152602082602481865afa8015610f7d578490610f49575b60019250610f1c82876112a6565b5151847f1bcb4157b04f9d491f72619552c6b6c11567e00613bbb243fffe8e7a7e5e83368780a401610ecf565b50906020813d8211610f75575b81610f63602093836111e3565b810103126103e7579060019151610f0e565b3d9150610f56565b6040513d86823e3d90fd5b5090600554916801000000000000000083101561101257610fb18360016020950160055561121b565b81546001600160a01b0360039290921b91821b19169083901b179055808252600683526040808320805460ff191660011790555191339082907fa2398daac0c8053a1e3c0280916c2ec6bc884f0959c27e639a4db829b7eabfb19080a38152f35b634e487b7160e01b82526041600452602482fd5b81611030916111e3565b38610ecb565b92945092819550606060209160406001945180518352848101518584015201516040820152019501910190869492869492610ea1565b8880fd5b63b06ebf3d60e01b8452600484fd5b60405162461bcd60e51b815260206004820152600b60248201526a4e6f2070726f647563747360a81b6044820152606490fd5b60405162461bcd60e51b815260206004820152601060248201526f496e76616c696420646561646c696e6560801b6044820152606490fd5b60405162461bcd60e51b8152602060048201526013602482015272496e76616c69642062656e656669636961727960681b6044820152606490fd5b606083360312611188576040516060810181811067ffffffffffffffff821117611174579160209160609360405285358152828601358382015260408601356040820152815201920191610d6c565b634e487b7160e01b88526041600452602488fd5b8580fd5b634e487b7160e01b83526041600452602483fd5b5080fd5b9050346111a057816003193601126111a05790546001600160a01b03168152602090f35b600435906001600160a01b03821682036111de57565b600080fd5b90601f8019910116810190811067ffffffffffffffff82111761120557604052565b634e487b7160e01b600052604160045260246000fd5b60055481101561123657600560005260206000200190600090565b634e487b7160e01b600052603260045260246000fd5b60809060031901126111de576004356001600160a01b03811681036111de57906024356001600160a01b03811681036111de57906044359060643590565b67ffffffffffffffff811161120557601f01601f191660200190565b80518210156112365760209160051b010190565b156112c157565b60405162461bcd60e51b8152602060048201526012602482015271125b9d985b1a5908199959481dd85b1b195d60721b6044820152606490fd5b1561130257565b60405162461bcd60e51b815260206004820152601d60248201527f496e76616c69642070726f6475637420746f6b656e20616464726573730000006044820152606490fd5b1561134e57565b60405162461bcd60e51b815260206004820152601660248201527524b73b30b634b21034b6b83632b6b2b73a30ba34b7b760511b6044820152606490fd5b6001600160a01b031680156113ec576000805160206114c883398151915280546001600160a01b0319811683179091556001600160a01b03167f8be0079c531659141344cd1fd0a4f28419497f9722a3daafe3b4186f6b6457e0600080a3565b631e4fbdf760e01b600052600060045260246000fd5b6000805160206114c8833981519152546001600160a01b0316330361142357565b63118cdaa760e01b6000523360045260246000fd5b60ff6000805160206115088339815191525460401c161561145557565b631afcd79f60e31b60005260046000fd5b9061148c575080511561147b57805190602001fd5b63d6bda27560e01b60005260046000fd5b815115806114be575b61149d575090565b639996b31560e01b60009081526001600160a01b0391909116600452602490fd5b50803b1561149556fe9016d09d72d40fdae2fd8ceac6b6234c7706214fd39c1cd1e609a0528c199300360894a13ba1a3210667c828492db98dca3e2076cc3735a920a3ca505d382bbcf0c57e16840df040f15088dc2f81fe391c3923bec73e23a9662efc9c229c6a00a2646970667358221220dda13671841d1a89b2f55beb09ea07e47106fcaa7ba680e776ac9ea60997ef8164736f6c634300081b0033",
  "linkReferences": {},
  "deployedLinkReferences": {}
}