{
  "_format": "hh-sol-artifact-1",
  "contractName": "USDCFundraiserUpgradeable",
  "sourceName": "contracts/USDCFundraiserUpgradeable.sol",
  "abi": [
    {
      "inputs": [],
      "stateMutability": "nonpayable",
      "type": "constructor"
    },
    {
      "inputs": [],
      "name": "EnforcedPause",
      "type": "error"
    },
    {
      "inputs": [],
      "name": "ExpectedPause",
      "type": "error"
    },
    {
      "inputs": [],
      "name": "InvalidInitialization",
      "type": "error"
    },
    {
      "inputs": [],
      "name": "NotInitializing",
      "type": "error"
    },
    {
      "inputs": [
        {
          "internalType": "address",
          "name": "owner",
          "type": "address"
        }
      ],
      "name": "OwnableInvalidOwner",
      "type": "error"
    },
    {
      "inputs": [
        {
          "internalType": "address",
          "name": "account",
          "type": "address"
        }
      ],
      "name": "OwnableUnauthorizedAccount",
      "type": "error"
    },
    {
      "inputs": [],
      "name": "ReentrancyGuardReentrantCall",
      "type": "error"
    },
    {
      "inputs": [
        {
          "internalType": "address",
          "name": "token",
          "type": "address"
        }
      ],
      "name": "SafeERC20FailedOperation",
      "type": "error"
    },
    {
      "anonymous": false,
      "inputs": [
        {
          "indexed": false,
          "internalType": "string",
          "name": "message",
          "type": "string"
        },
        {
          "indexed": false,
          "internalType": "uint256",
          "name": "value",
          "type": "uint256"
        }
      ],
      "name": "Debug",
      "type": "event"
    },
    {
      "anonymous": false,
      "inputs": [
        {
          "indexed": false,
          "internalType": "string",
          "name": "message",
          "type": "string"
        },
        {
          "indexed": false,
          "internalType": "bytes",
          "name": "value",
          "type": "bytes"
        }
      ],
      "name": "DebugBytes",
      "type": "event"
    },
    {
      "anonymous": false,
      "inputs": [
        {
          "indexed": true,
          "internalType": "address",
          "name": "depositor",
          "type": "address"
        },
        {
          "indexed": false,
          "internalType": "uint256",
          "name": "amount",
          "type": "uint256"
        },
        {
          "indexed": false,
          "internalType": "uint256",
          "name": "fee",
          "type": "uint256"
        }
      ],
      "name": "Deposit",
      "type": "event"
    },
    {
      "anonymous": false,
      "inputs": [
        {
          "indexed": true,
          "internalType": "address",
          "name": "to",
          "type": "address"
        },
        {
          "indexed": false,
          "internalType": "uint256",
          "name": "amount",
          "type": "uint256"
        }
      ],
      "name": "EmergencyWithdraw",
      "type": "event"
    },
    {
      "anonymous": false,
      "inputs": [
        {
          "indexed": false,
          "internalType": "uint256",
          "name": "newFeePercentage",
          "type": "uint256"
        }
      ],
      "name": "FeeUpdated",
      "type": "event"
    },
    {
      "anonymous": false,
      "inputs": [],
      "name": "Finalized",
      "type": "event"
    },
    {
      "anonymous": false,
      "inputs": [
        {
          "indexed": true,
          "internalType": "address",
          "name": "beneficiary",
          "type": "address"
        },
        {
          "indexed": false,
          "internalType": "uint256",
          "name": "amount",
          "type": "uint256"
        }
      ],
      "name": "FundsReleased",
      "type": "event"
    },
    {
      "anonymous": false,
      "inputs": [
        {
          "indexed": false,
          "internalType": "uint64",
          "name": "version",
          "type": "uint64"
        }
      ],
      "name": "Initialized",
      "type": "event"
    },
    {
      "anonymous": false,
      "inputs": [
        {
          "indexed": true,
          "internalType": "address",
          "name": "previousOwner",
          "type": "address"
        },
        {
          "indexed": true,
          "internalType": "address",
          "name": "newOwner",
          "type": "address"
        }
      ],
      "name": "OwnershipTransferred",
      "type": "event"
    },
    {
      "anonymous": false,
      "inputs": [
        {
          "indexed": false,
          "internalType": "address",
          "name": "account",
          "type": "address"
        }
      ],
      "name": "Paused",
      "type": "event"
    },
    {
      "anonymous": false,
      "inputs": [
        {
          "indexed": false,
          "internalType": "uint256",
          "name": "productId",
          "type": "uint256"
        },
        {
          "indexed": false,
          "internalType": "uint256",
          "name": "price",
          "type": "uint256"
        },
        {
          "indexed": false,
          "internalType": "uint256",
          "name": "supplyLimit",
          "type": "uint256"
        }
      ],
      "name": "ProductAdded",
      "type": "event"
    },
    {
      "anonymous": false,
      "inputs": [
        {
          "indexed": false,
          "internalType": "uint256",
          "name": "productId",
          "type": "uint256"
        },
        {
          "indexed": false,
          "internalType": "uint256",
          "name": "price",
          "type": "uint256"
        }
      ],
      "name": "ProductPriceSet",
      "type": "event"
    },
    {
      "anonymous": false,
      "inputs": [
        {
          "indexed": false,
          "internalType": "uint256",
          "name": "productId",
          "type": "uint256"
        }
      ],
      "name": "ProductRemoved",
      "type": "event"
    },
    {
      "anonymous": false,
      "inputs": [
        {
          "indexed": false,
          "internalType": "uint256",
          "name": "productId",
          "type": "uint256"
        },
        {
          "indexed": false,
          "internalType": "uint256",
          "name": "price",
          "type": "uint256"
        },
        {
          "indexed": false,
          "internalType": "uint256",
          "name": "supplyLimit",
          "type": "uint256"
        }
      ],
      "name": "ProductUpdated",
      "type": "event"
    },
    {
      "anonymous": false,
      "inputs": [
        {
          "indexed": true,
          "internalType": "address",
          "name": "depositor",
          "type": "address"
        },
        {
          "indexed": false,
          "internalType": "uint256",
          "name": "amount",
          "type": "uint256"
        },
        {
          "indexed": false,
          "internalType": "uint256",
          "name": "productId",
          "type": "uint256"
        },
        {
          "indexed": false,
          "internalType": "uint256",
          "name": "quantity",
          "type": "uint256"
        }
      ],
      "name": "Refund",
      "type": "event"
    },
    {
      "anonymous": false,
      "inputs": [
        {
          "indexed": false,
          "internalType": "address",
          "name": "account",
          "type": "address"
        }
      ],
      "name": "Unpaused",
      "type": "event"
    },
    {
      "inputs": [],
      "name": "BASIS_POINTS",
      "outputs": [
        {
          "internalType": "uint256",
          "name": "",
          "type": "uint256"
        }
      ],
      "stateMutability": "view",
      "type": "function"
    },
    {
      "inputs": [
        {
          "components": [
            {
              "internalType": "uint256",
              "name": "productId",
              "type": "uint256"
            },
            {
              "internalType": "uint256",
              "name": "price",
              "type": "uint256"
            },
            {
              "internalType": "uint256",
              "name": "supplyLimit",
              "type": "uint256"
            }
          ],
          "internalType": "struct ProductConfig",
          "name": "product",
          "type": "tuple"
        }
      ],
      "name": "addProduct",
      "outputs": [],
      "stateMutability": "nonpayable",
      "type": "function"
    },
    {
      "inputs": [],
      "name": "beneficiaryWallet",
      "outputs": [
        {
          "internalType": "address",
          "name": "",
          "type": "address"
        }
      ],
      "stateMutability": "view",
      "type": "function"
    },
    {
      "inputs": [],
      "name": "campaignAdmin",
      "outputs": [
        {
          "internalType": "address",
          "name": "",
          "type": "address"
        }
      ],
      "stateMutability": "view",
      "type": "function"
    },
    {
      "inputs": [
        {
          "internalType": "uint256",
          "name": "productId",
          "type": "uint256"
        },
        {
          "internalType": "uint256",
          "name": "quantity",
          "type": "uint256"
        }
      ],
      "name": "claimRefund",
      "outputs": [],
      "stateMutability": "nonpayable",
      "type": "function"
    },
    {
      "inputs": [],
      "name": "deadline",
      "outputs": [
        {
          "internalType": "uint256",
          "name": "",
          "type": "uint256"
        }
      ],
      "stateMutability": "view",
      "type": "function"
    },
    {
      "inputs": [
        {
          "internalType": "uint256",
          "name": "productId",
          "type": "uint256"
        },
        {
          "internalType": "uint256",
          "name": "quantity",
          "type": "uint256"
        }
      ],
      "name": "deposit",
      "outputs": [],
      "stateMutability": "nonpayable",
      "type": "function"
    },
    {
      "inputs": [
        {
          "internalType": "address",
          "name": "to",
          "type": "address"
        },
        {
          "internalType": "uint256",
          "name": "amount",
          "type": "uint256"
        }
      ],
      "name": "emergencyWithdraw",
      "outputs": [],
      "stateMutability": "nonpayable",
      "type": "function"
    },
    {
      "inputs": [],
      "name": "feePercentage",
      "outputs": [
        {
          "internalType": "uint256",
          "name": "",
          "type": "uint256"
        }
      ],
      "stateMutability": "view",
      "type": "function"
    },
    {
      "inputs": [],
      "name": "feeWallet",
      "outputs": [
        {
          "internalType": "address",
          "name": "",
          "type": "address"
        }
      ],
      "stateMutability": "view",
      "type": "function"
    },
    {
      "inputs": [],
      "name": "finalize",
      "outputs": [],
      "stateMutability": "nonpayable",
      "type": "function"
    },
    {
      "inputs": [],
      "name": "finalized",
      "outputs": [
        {
          "internalType": "bool",
          "name": "",
          "type": "bool"
        }
      ],
      "stateMutability": "view",
      "type": "function"
    },
    {
      "inputs": [],
      "name": "fundingType",
      "outputs": [
        {
          "internalType": "uint256",
          "name": "",
          "type": "uint256"
        }
      ],
      "stateMutability": "view",
      "type": "function"
    },
    {
      "inputs": [],
      "name": "getContractBalance",
      "outputs": [
        {
          "internalType": "uint256",
          "name": "",
          "type": "uint256"
        }
      ],
      "stateMutability": "view",
      "type": "function"
    },
    {
      "inputs": [
        {
          "internalType": "uint256",
          "name": "productId",
          "type": "uint256"
        }
      ],
      "name": "getProduct",
      "outputs": [
        {
          "components": [
            {
              "internalType": "uint256",
              "name": "productId",
              "type": "uint256"
            },
            {
              "internalType": "uint256",
              "name": "price",
              "type": "uint256"
            },
            {
              "internalType": "uint256",
              "name": "supplyLimit",
              "type": "uint256"
            }
          ],
          "internalType": "struct ProductConfig",
          "name": "",
          "type": "tuple"
        }
      ],
      "stateMutability": "view",
      "type": "function"
    },
    {
      "inputs": [],
      "name": "getProductIds",
      "outputs": [
        {
          "internalType": "uint256[]",
          "name": "",
          "type": "uint256[]"
        }
      ],
      "stateMutability": "view",
      "type": "function"
    },
    {
      "inputs": [
        {
          "internalType": "address",
          "name": "_usdcAddress",
          "type": "address"
        },
        {
          "internalType": "address",
          "name": "_beneficiaryWallet",
          "type": "address"
        },
        {
          "internalType": "address",
          "name": "_feeWallet",
          "type": "address"
        },
        {
          "internalType": "uint256",
          "name": "_feePercentage",
          "type": "uint256"
        },
        {
          "internalType": "uint256",
          "name": "_fundingType",
          "type": "uint256"
        },
        {
          "internalType": "uint256",
          "name": "_minimumTarget",
          "type": "uint256"
        },
        {
          "internalType": "uint256",
          "name": "_deadline",
          "type": "uint256"
        },
        {
          "internalType": "address",
          "name": "_productTokenAddress",
          "type": "address"
        },
        {
          "components": [
            {
              "internalType": "uint256",
              "name": "productId",
              "type": "uint256"
            },
            {
              "internalType": "uint256",
              "name": "price",
              "type": "uint256"
            },
            {
              "internalType": "uint256",
              "name": "supplyLimit",
              "type": "uint256"
            }
          ],
          "internalType": "struct ProductConfig[]",
          "name": "_products",
          "type": "tuple[]"
        },
        {
          "internalType": "address",
          "name": "_campaignAdmin",
          "type": "address"
        },
        {
          "internalType": "address",
          "name": "_owner",
          "type": "address"
        }
      ],
      "name": "initialize",
      "outputs": [],
      "stateMutability": "nonpayable",
      "type": "function"
    },
    {
      "inputs": [],
      "name": "minimumTarget",
      "outputs": [
        {
          "internalType": "uint256",
          "name": "",
          "type": "uint256"
        }
      ],
      "stateMutability": "view",
      "type": "function"
    },
    {
      "inputs": [],
      "name": "owner",
      "outputs": [
        {
          "internalType": "address",
          "name": "",
          "type": "address"
        }
      ],
      "stateMutability": "view",
      "type": "function"
    },
    {
      "inputs": [],
      "name": "pause",
      "outputs": [],
      "stateMutability": "nonpayable",
      "type": "function"
    },
    {
      "inputs": [],
      "name": "paused",
      "outputs": [
        {
          "internalType": "bool",
          "name": "",
          "type": "bool"
        }
      ],
      "stateMutability": "view",
      "type": "function"
    },
    {
      "inputs": [
        {
          "internalType": "uint256",
          "name": "",
          "type": "uint256"
        }
      ],
      "name": "productIds",
      "outputs": [
        {
          "internalType": "uint256",
          "name": "",
          "type": "uint256"
        }
      ],
      "stateMutability": "view",
      "type": "function"
    },
    {
      "inputs": [
        {
          "internalType": "uint256",
          "name": "",
          "type": "uint256"
        }
      ],
      "name": "productSoldCount",
      "outputs": [
        {
          "internalType": "uint256",
          "name": "",
          "type": "uint256"
        }
      ],
      "stateMutability": "view",
      "type": "function"
    },
    {
      "inputs": [],
      "name": "productToken",
      "outputs": [
        {
          "internalType": "contract ProductToken",
          "name": "",
          "type": "address"
        }
      ],
      "stateMutability": "view",
      "type": "function"
    },
    {
      "inputs": [
        {
          "internalType": "uint256",
          "name": "",
          "type": "uint256"
        }
      ],
      "name": "products",
      "outputs": [
        {
          "internalType": "uint256",
          "name": "productId",
          "type": "uint256"
        },
        {
          "internalType": "uint256",
          "name": "price",
          "type": "uint256"
        },
        {
          "internalType": "uint256",
          "name": "supplyLimit",
          "type": "uint256"
        }
      ],
      "stateMutability": "view",
      "type": "function"
    },
    {
      "inputs": [
        {
          "internalType": "uint256",
          "name": "productId",
          "type": "uint256"
        }
      ],
      "name": "removeProduct",
      "outputs": [],
      "stateMutability": "nonpayable",
      "type": "function"
    },
    {
      "inputs": [],
      "name": "renounceOwnership",
      "outputs": [],
      "stateMutability": "nonpayable",
      "type": "function"
    },
    {
      "inputs": [
        {
          "internalType": "uint256",
          "name": "productId",
          "type": "uint256"
        },
        {
          "internalType": "uint256",
          "name": "price",
          "type": "uint256"
        }
      ],
      "name": "setProductPrice",
      "outputs": [],
      "stateMutability": "nonpayable",
      "type": "function"
    },
    {
      "inputs": [
        {
          "internalType": "uint256",
          "name": "",
          "type": "uint256"
        }
      ],
      "name": "tokenDeposits",
      "outputs": [
        {
          "internalType": "uint256",
          "name": "",
          "type": "uint256"
        }
      ],
      "stateMutability": "view",
      "type": "function"
    },
    {
      "inputs": [],
      "name": "totalRaised",
      "outputs": [
        {
          "internalType": "uint256",
          "name": "",
          "type": "uint256"
        }
      ],
      "stateMutability": "view",
      "type": "function"
    },
    {
      "inputs": [
        {
          "internalType": "address",
          "name": "newOwner",
          "type": "address"
        }
      ],
      "name": "transferOwnership",
      "outputs": [],
      "stateMutability": "nonpayable",
      "type": "function"
    },
    {
      "inputs": [],
      "name": "unpause",
      "outputs": [],
      "stateMutability": "nonpayable",
      "type": "function"
    },
    {
      "inputs": [
        {
          "internalType": "address",
          "name": "newAdmin",
          "type": "address"
        }
      ],
      "name": "updateCampaignAdmin",
      "outputs": [],
      "stateMutability": "nonpayable",
      "type": "function"
    },
    {
      "inputs": [
        {
          "internalType": "uint256",
          "name": "newFeePercentage",
          "type": "uint256"
        }
      ],
      "name": "updateFeePercentage",
      "outputs": [],
      "stateMutability": "nonpayable",
      "type": "function"
    },
    {
      "inputs": [
        {
          "internalType": "uint256",
          "name": "productId",
          "type": "uint256"
        },
        {
          "internalType": "uint256",
          "name": "supplyLimit",
          "type": "uint256"
        }
      ],
      "name": "updateProductSupply",
      "outputs": [],
      "stateMutability": "nonpayable",
      "type": "function"
    },
    {
      "inputs": [],
      "name": "usdc",
      "outputs": [
        {
          "internalType": "contract IERC20",
          "name": "",
          "type": "address"
        }
      ],
      "stateMutability": "view",
      "type": "function"
    }
  ],
  "bytecode": "0x6080806040523460d2577ff0c57e16840df040f15088dc2f81fe391c3923bec73e23a9662efc9c229c6a005460ff8160401c1660c1576002600160401b03196001600160401b03821601605c575b60405161267b90816100d88239f35b6001600160401b0319166001600160401b039081177ff0c57e16840df040f15088dc2f81fe391c3923bec73e23a9662efc9c229c6a005581527fc7f505b2f371ae2175ee4913f4499e1f2633a7b5936321eed1cdaeb6115181d290602090a13880604d565b63f92ee8a960e01b60005260046000fd5b600080fdfe608080604052600436101561001357600080fd5b600090813560e01c90816325b4f65f14611f985750806329dcb0cf14611f7a5780633e413bee14611f535780633f4ba83a14611ed157806342235da614611eb357806344d3498a14611deb57806347428e7b14611d355780634bb278f314611a385780635c975abb14611a085780635ee95cae1461185357806366bff1db146118295780636cad3fb0146117ce5780636f9fb98a1461173457806370d21829146110e9578063715018a61461107f57806372afddf0146110565780637acc0b20146110065780638456cb5914610f915780638527d58f14610c7b5780638da5cb5b14610c4557806395ccea6714610ae1578063a001ecdd14610ac3578063b3f05b9714610aa0578063b9db15b414610a28578063bc072c2c146108fd578063c5c4744c146108df578063c9788631146108b6578063cb51bba91461087c578063dd5934b314610727578063e1f1c4a71461070a578063e2bbb158146102d1578063ebd692ea146102a7578063ec82397114610223578063f25f4b56146101fa578063f2fde38b146101cd5763fa8ab0ee146101ad57600080fd5b346101ca57806003193601126101ca576020600c54604051908152f35b80fd5b50346101ca5760203660031901126101ca576101f76101ea611fd3565b6101f2612458565b6123e2565b80f35b50346101ca57806003193601126101ca576003546040516001600160a01b039091168152602090f35b50346101ca5760203660031901126101ca5761023d611fd3565b610245612458565b6001600160a01b0316801561026a576001600160601b0360a01b600e541617600e5580f35b60405162461bcd60e51b8152602060048201526015602482015274496e76616c69642061646d696e206164647265737360581b6044820152606490fd5b50346101ca5760203660031901126101ca5760406020916004358152600b83522054604051908152f35b50346101ca576102e036611fbd565b906102e961248e565b6102f16124ca565b808352600d6020526040832060405161030981611fe9565b8154815260406002600184015493602084019485520154910190815261033460ff60085416156122e3565b6005544210156106d05761034a825115156122a5565b83156106985780849151610636575b506103649151612327565b9161271061037460065485612327565b0490846103818386612178565b81546040516323b872dd60e01b6020820152336024820152306044820152606480820189905281529195916103c9916001600160a01b03166103c460848361201b565b612530565b808252600b602052604082206103e084825461233a565b90556103ee8560075461233a565b6007556001546001600160a01b031692833b1561063257604051630ab714fb60e11b8152336004820152602481019290925260448201529181908390606490829084905af19182610619575b50506105d05750508160033d116105c0575b6308c379a014610512575b3d15610509573d67ffffffffffffffff81116104f5576040516104a49391610489601f8201601f19166020018361201b565b81528160203d92013e5b5433906001600160a01b03166124f4565b60405162461bcd60e51b8152602060048201526024808201527f4e4654206d696e74206661696c65642077697468206c6f772d6c6576656c2065604482015263393937b960e11b6064820152608490fd5b634e487b7160e01b83526041600452602483fd5b6104a491610493565b61051a612347565b806105255750610457565b6105406044926105b294339060018060a01b039054166124f4565b6040519061058a603183602081019370027232a1036b4b73a103330b4b632b21d1607d1b855261057981518092602086860191016123bf565b81010301601f19810184528361201b565b60405193849262461bcd60e51b845260206004850152518092816024860152858501906123bf565b601f01601f19168101030190fd5b50600482803e815160e01c61044c565b90915060405191825260208201527f90890809c654f11d6e72a28fa60149770a0d11ec6c92319d6ceb2bb0a4ea1a1560403392a260016000805160206126068339815191525580f35b816106239161201b565b61062e57843861043a565b8480fd5b8280fd5b9050828552600b60205261064e84604087205461233a565b90511061065c578238610359565b60405162461bcd60e51b8152602060048201526014602482015273115e18d959591cc81cdd5c1c1b1e481b1a5b5a5d60621b6044820152606490fd5b60405162461bcd60e51b815260206004820152601060248201526f496e76616c6964207175616e7469747960801b6044820152606490fd5b60405162461bcd60e51b815260206004820152601260248201527110d85b5c185a59db881a185cc8195b99195960721b6044820152606490fd5b50346101ca57806003193601126101ca5760206040516127108152f35b50346101ca5760603660031901126101ca5760405161074581611fe9565b60043581526020810160243581526040820190604435825260018060a01b036000805160206125c6833981519152541633148015610868575b6107879061206e565b610793815115156120ab565b61079f835115156121f5565b82518452600d602052600160408520015461082a57610824837f0bb34bc6bcdd4ba28b7de4669c2e7d94d1b828b2a6a14b82991e087b20d7354994518652600d602052610802604087208251908181558551600182015560028751910155612236565b5191519251604051938493846040919493926060820195825260208201520152565b0390a180f35b60405162461bcd60e51b815260206004820152601660248201527550726f6475637420616c72656164792065786973747360501b6044820152606490fd5b50600e546001600160a01b0316331461077e565b50346101ca5760203660031901126101ca5760043590600a548210156101ca5760206108a78361203d565b90549060031b1c604051908152f35b50346101ca57806003193601126101ca576002546040516001600160a01b039091168152602090f35b50346101ca57806003193601126101ca576020600754604051908152f35b50346101ca5761090c36611fbd565b6000805160206125c6833981519152546001600160a01b031633148015610a14575b6109379061206e565b818352600d602052610951600160408520015415156120e7565b806109b1575b818352600d60208181526040808620600201849055848652918152818520600101548251948552908401528201527fc598db734b93c7fd9412e07c1e464ebb4d3dcf9b02c03af26710b307f8b773db908060608101610824565b818352600b60205260408320548110156109575760405162461bcd60e51b815260206004820152602160248201527f4e657720737570706c79206c696d69742062656c6f7720736f6c6420636f756e6044820152601d60fa1b6064820152608490fd5b50600e546001600160a01b0316331461092e565b50346101ca5760203660031901126101ca57604081606092828051610a4c81611fe9565b82815282602082015201526004358152600d60205220604051610a6e81611fe9565b815491828252604060026001830154926020850193845201549201918252604051928352516020830152516040820152f35b50346101ca57806003193601126101ca57602060ff600854166040519015158152f35b50346101ca57806003193601126101ca576020600654604051908152f35b50346101ca5760403660031901126101ca57610afb611fd3565b60243590610b07612458565b6001600160a01b038116918215610c0e5783546040516370a0823160e01b81523060048201526001600160a01b039091169190602081602481865afa908115610c03578691610bcc575b508111610b9057610b86817f5fafa99d0643513820be26656b45130b01e1c03062e1266bf36f88cbd3bd9695946020946124f4565b604051908152a280f35b60405162461bcd60e51b8152602060048201526014602482015273496e73756666696369656e742062616c616e636560601b6044820152606490fd5b90506020813d602011610bfb575b81610be76020938361201b565b81010312610bf6575138610b51565b600080fd5b3d9150610bda565b6040513d88823e3d90fd5b60405162461bcd60e51b815260206004820152600f60248201526e496e76616c6964206164647265737360881b6044820152606490fd5b50346101ca57806003193601126101ca576000805160206125c6833981519152546040516001600160a01b039091168152602090f35b50346101ca57610c8a36611fbd565b610c9261248e565b610c9a6124ca565b818352600d60205260408320610cd7604051610cb581611fe9565b82548152600183015490604060026020830195848752015491015215156122a5565b600c54610f3857610ced60ff60085416156122e3565b600554421180610f2b575b15610eef57600154604051627eeac760e11b8152336004820152602481018590526001600160a01b0390911690602081604481855afa8015610c035784918791610eb6575b5010610e7157803b1561062e57604051637a94c56560e11b815233600482015260248101859052604481018490529085908290606490829084905af18015610e6657610e4e575b5081610d909151612327565b91610da5833360018060a01b038754166124f4565b808452600b60205260408420610dbc838254612178565b9055600654612710036127108111610e3a5790610e0a612710610e017fb7048c2ad36aadee977bb16b4543a18866044d27a2ca753e1c7dbcfa7d7a6962959487612327565b04600754612178565b6007556040805194855260208501919091528301523391606090a260016000805160206126068339815191525580f35b634e487b7160e01b85526011600452602485fd5b84610e5e610d909396859361201b565b949150610d84565b6040513d87823e3d90fd5b60405162461bcd60e51b815260206004820152601860248201527f496e73756666696369656e74204e46542062616c616e636500000000000000006044820152606490fd5b9150506020813d602011610ee7575b81610ed26020938361201b565b81010312610ee35783905138610d3d565b8580fd5b3d9150610ec5565b60405162461bcd60e51b8152602060048201526014602482015273526566756e64206e6f7420617661696c61626c6560601b6044820152606490fd5b5060075460045411610cf8565b60405162461bcd60e51b815260206004820152602b60248201527f526566756e6473206e6f7420617661696c61626c6520666f722074686973206660448201526a756e64696e67207479706560a81b6064820152608490fd5b50346101ca57806003193601126101ca57610faa612458565b610fb26124ca565b600160ff196000805160206125e68339815191525416176000805160206125e6833981519152557f62e78cea01bee320cd4e420270b5ea74000d11b0c9f74754ebdbfc544b05a2586020604051338152a180f35b50346101ca5760203660031901126101ca576040906004358152600d60205220805461105260026001840154930154604051938493846040919493926060820195825260208201520152565b0390f35b50346101ca57806003193601126101ca57600e546040516001600160a01b039091168152602090f35b50346101ca57806003193601126101ca57611098612458565b6000805160206125c683398151915280546001600160a01b0319811690915581906001600160a01b03167f8be0079c531659141344cd1fd0a4f28419497f9722a3daafe3b4186f6b6457e08280a380f35b50346101ca576101603660031901126101ca57611104611fd3565b6024356001600160a01b0381169190829003610632576044356001600160a01b0381169190829003611730576084359260e4356001600160a01b0381169060c435906064359083900361172c57610104359567ffffffffffffffff8711611728573660238801121561172857866004013567ffffffffffffffff8111611714576040519761119860208360051b018a61201b565b8189526024606060208b019302820101903682116116d057602401915b8183106116d857505050610124356001600160a01b03811695908690036116d45761014435966001600160a01b038816908189036116d057600080516020612626833981519152549860ff8a60401c16159967ffffffffffffffff8116801590816116c8575b60011490816116be575b1590816116b5575b506116a65767ffffffffffffffff1981166001176000805160206126268339815191525561126d91908b611679575b50611265612597565b6101f2612597565b611275612597565b61127d612597565b611285612597565b6001600080516020612606833981519152556001600160a01b031690811561163d5782156115f85783156115be5786156115795742861115611541578951156115055787156114c75715611492576112e0612710851061219b565b6001600160601b0360a01b8b5416178a556001600160601b0360a01b60025416176002556001600160601b0360a01b600354161760035560065560a4356004556005556001600160601b0360a01b60015416176001556001600160601b0360a01b600e541617600e55835b82518110156113e75760208160051b840101519060208201918251156113aa576001928161137e6113a4935115156121f5565b80518952600d60205260026040808b209280519485855551888501550151910155612236565b0161134b565b60405162461bcd60e51b8152602060048201526015602482015274496e76616c69642070726f6475637420707269636560581b6044820152606490fd5b8482856002811161145657600c556113fc5780f35b68ff0000000000000000196000805160206126268339815191525416600080516020612626833981519152557fc7f505b2f371ae2175ee4913f4499e1f2633a7b5936321eed1cdaeb6115181d2602060405160018152a180f35b60405162461bcd60e51b8152602060048201526014602482015273496e76616c69642066756e64696e67207479706560601b6044820152606490fd5b60405162461bcd60e51b815260206004820152600d60248201526c24b73b30b634b21037bbb732b960991b6044820152606490fd5b60405162461bcd60e51b815260206004820152601660248201527524b73b30b634b21031b0b6b830b4b3b71030b236b4b760511b6044820152606490fd5b60405162461bcd60e51b8152602060048201526014602482015273139bc81c1c9bd91d58dd1cc81c1c9bdd9a59195960621b6044820152606490fd5b60405162461bcd60e51b815260206004820152601060248201526f496e76616c696420646561646c696e6560801b6044820152606490fd5b60405162461bcd60e51b815260206004820152601d60248201527f496e76616c69642070726f6475637420746f6b656e20616464726573730000006044820152606490fd5b60405162461bcd60e51b8152602060048201526012602482015271125b9d985b1a5908199959481dd85b1b195d60721b6044820152606490fd5b60405162461bcd60e51b815260206004820152601a60248201527f496e76616c69642062656e65666963696172792077616c6c65740000000000006044820152606490fd5b60405162461bcd60e51b8152602060048201526014602482015273496e76616c69642055534443206164647265737360601b6044820152606490fd5b68ffffffffffffffffff19166801000000000000000117600080516020612626833981519152553861125c565b63f92ee8a960e01b8e5260048efd5b9050153861122d565b303b159150611225565b8c915061121b565b8b80fd5b8980fd5b6060833603126116d05760206060916040516116f381611fe9565b853581528286013583820152604086013560408201528152019201916111b5565b634e487b7160e01b8a52604160045260248afd5b8880fd5b8780fd5b8380fd5b50346101ca57806003193601126101ca5780546040516370a0823160e01b815230600482015290602090829060249082906001600160a01b03165afa9081156117c3578291611789575b602082604051908152f35b90506020813d6020116117bb575b816117a46020938361201b565b810103126117b75760209150513861177e565b5080fd5b3d9150611797565b6040513d84823e3d90fd5b50346101ca5760203660031901126101ca577f8c4d35e54a3f2ef1134138fd8ea3daee6a3c89e10d2665996babdf70261e2c76602060043561180e612458565b61181b612710821061219b565b80600655604051908152a180f35b50346101ca5760203660031901126101ca5760406020916004358152600983522054604051908152f35b50346101ca5760203660031901126101ca5760043560018060a01b036000805160206125c68339815191525416331480156119f4575b6118929061206e565b808252600d6020526118ac600160408420015415156120e7565b808252600b6020526118c260408320541561212c565b815b600a54808210156119c957826118d98361203d565b90549060031b1c146118ee57506001016118c4565b60001981019081116119b5579061191761190a6119309361203d565b90549060031b1c9161203d565b90919082549060031b91821b91600019901b1916179055565b600a5480156119a1577f07015631cff457b5b13492c2045e70c6305a0a4aa773e432e79abbe2cf52c1eb916020916000190161196b8161203d565b8154906000199060031b1b19169055600a555b808452600d8252836002604082208281558260018201550155604051908152a180f35b634e487b7160e01b83526031600452602483fd5b634e487b7160e01b84526011600452602484fd5b505060207f07015631cff457b5b13492c2045e70c6305a0a4aa773e432e79abbe2cf52c1eb9161197e565b50600e546001600160a01b03163314611889565b50346101ca57806003193601126101ca57602060ff6000805160206125e683398151915254166040519015158152f35b50346101ca57806003193601126101ca57611a5161248e565b611a596124ca565b60085460ff8116611cfc57600c5480611c145750600554421115611bd85760075460045411611b9a576001905b60ff19161760085580546040516370a0823160e01b8152306004820152906001600160a01b0316602082602481845afa918215611b8f578392611b5b575b508180611b3c575b50507f221c08a06b07a64803b3787861a3f276212fcccb51c2e6234077a9b8cb13047a60206040517f6823b073d48d6e3a7d385eeb601452d680e74bb46afe3255a7d778f3a9b176818580a160018060a01b0360025416938152a260016000805160206126068339815191525580f35b600254611b54926001600160a01b03909116906124f4565b3881611acc565b9091506020813d602011611b87575b81611b776020938361201b565b8101031261063257519038611ac4565b3d9150611b6a565b6040513d85823e3d90fd5b60405162461bcd60e51b8152602060048201526016602482015275135a5b9a5b5d5b481d185c99d95d081b9bdd081b595d60521b6044820152606490fd5b60405162461bcd60e51b8152602060048201526014602482015273111958591b1a5b99481b9bdd081c995858da195960621b6044820152606490fd5b60018103611c655750600190818060a01b036000805160206125c6833981519152541633148015611c4e575b611c499061206e565b611a86565b50611c49828060a01b03600e541633149050611c40565b600214611c75575b600190611a86565b60055442118015611cdb575b8015611cc7575b611c6d5760405162461bcd60e51b815260206004820152601360248201527210d85b9b9bdd08199a5b985b1a5e99481e595d606a1b6044820152606490fd5b50600e546001600160a01b03163314611c88565b506000805160206125c6833981519152546001600160a01b03163314611c81565b60405162461bcd60e51b8152602060048201526011602482015270105b1c9958591e48199a5b985b1a5e9959607a1b6044820152606490fd5b50346101ca57806003193601126101ca57604051806020600a5491828152018091600a85527fc65a7bb8d6351c1cf70c95a316cc6a92839c986682d98bc35f958f4883f9d2a890855b818110611dd55750505082611d9491038361201b565b604051928392602084019060208552518091526040840192915b818110611dbc575050500390f35b8251845285945060209384019390920191600101611dae565b8254845260209093019260019283019201611d7e565b50346101ca577fb751835a12376750bd69b4b4c0c1d306480284514d2fa88f72edf3eeea8515f66040611e1d36611fbd565b6000805160206125c6833981519152546001600160a01b031633148015611e9f575b611e489061206e565b611e538115156120ab565b818552600d602052611e6c6001848720015415156120e7565b818552600b602052611e81838620541561212c565b818552600d602052806001848720015582519182526020820152a180f35b50600e546001600160a01b03163314611e3f565b50346101ca57806003193601126101ca576020600454604051908152f35b50346101ca57806003193601126101ca57611eea612458565b6000805160206125e68339815191525460ff811615611f445760ff19166000805160206125e6833981519152557f5db9ee0a495bf2e6ff9c91a7834c1ba4fdd244a5e8aa4e537bd38aeae4b073aa6020604051338152a180f35b638dfc202b60e01b8252600482fd5b50346101ca57806003193601126101ca57546040516001600160a01b039091168152602090f35b50346101ca57806003193601126101ca576020600554604051908152f35b9050346117b757816003193601126117b7576001546001600160a01b03168152602090f35b6040906003190112610bf6576004359060243590565b600435906001600160a01b0382168203610bf657565b6060810190811067ffffffffffffffff82111761200557604052565b634e487b7160e01b600052604160045260246000fd5b90601f8019910116810190811067ffffffffffffffff82111761200557604052565b600a5481101561205857600a60005260206000200190600090565b634e487b7160e01b600052603260045260246000fd5b1561207557565b60405162461bcd60e51b815260206004820152600e60248201526d139bdd08185d5d1a1bdc9a5e995960921b6044820152606490fd5b156120b257565b60405162461bcd60e51b815260206004820152600d60248201526c496e76616c696420707269636560981b6044820152606490fd5b156120ee57565b60405162461bcd60e51b8152602060048201526016602482015275141c9bd91d58dd08191bd95cc81b9bdd08195e1a5cdd60521b6044820152606490fd5b1561213357565b60405162461bcd60e51b815260206004820152601860248201527f50726f6475637420686173206163746976652073616c657300000000000000006044820152606490fd5b9190820391821161218557565b634e487b7160e01b600052601160045260246000fd5b156121a257565b60405162461bcd60e51b815260206004820152602560248201527f4665652070657263656e74616765206d757374206265206c657373207468616e604482015264203130302560d81b6064820152608490fd5b156121fc57565b60405162461bcd60e51b8152602060048201526012602482015271125b9d985b1a59081c1c9bd91d58dd08125160721b6044820152606490fd5b90600a5491680100000000000000008310156120055760018301600a55600092600a5481101561229157600a9093527fc65a7bb8d6351c1cf70c95a316cc6a92839c986682d98bc35f958f4883f9d2a890920191909155565b565b634e487b7160e01b84526032600452602484fd5b156122ac57565b60405162461bcd60e51b815260206004820152600f60248201526e125b9d985b1a59081c1c9bd91d58dd608a1b6044820152606490fd5b156122ea57565b60405162461bcd60e51b815260206004820152601560248201527410d85b5c185a59db881a5cc8199a5b985b1a5e9959605a1b6044820152606490fd5b8181029291811591840414171561218557565b9190820180921161218557565b600060443d106123ae576040513d600319016004823e8051913d602484011167ffffffffffffffff8411176123b9578282019283519167ffffffffffffffff83116123b1573d840160031901858401602001116123b157506123ae9291016020019061201b565b90565b949350505050565b92915050565b60005b8381106123d25750506000910152565b81810151838201526020016123c2565b6001600160a01b03168015612442576000805160206125c683398151915280546001600160a01b0319811683179091556001600160a01b03167f8be0079c531659141344cd1fd0a4f28419497f9722a3daafe3b4186f6b6457e0600080a3565b631e4fbdf760e01b600052600060045260246000fd5b6000805160206125c6833981519152546001600160a01b0316330361247957565b63118cdaa760e01b6000523360045260246000fd5b600260008051602061260683398151915254146124b957600260008051602061260683398151915255565b633ee5aeb560e01b60005260046000fd5b60ff6000805160206125e683398151915254166124e357565b63d93c066560e01b60005260046000fd5b60405163a9059cbb60e01b60208201526001600160a01b0392909216602483015260448083019390935291815261228f916103c460648361201b565b906000602091828151910182855af11561258b576000513d61258257506001600160a01b0381163b155b6125615750565b635274afe760e01b60009081526001600160a01b0391909116600452602490fd5b6001141561255a565b6040513d6000823e3d90fd5b60ff6000805160206126268339815191525460401c16156125b457565b631afcd79f60e31b60005260046000fdfe9016d09d72d40fdae2fd8ceac6b6234c7706214fd39c1cd1e609a0528c199300cd5ed15c6e187e77e9aee88184c21f4f2182ab5827cb3b7e07fbedcd63f033009b779b17422d0df92223018b32b4d1fa46e071723d6817e2486d003becc55f00f0c57e16840df040f15088dc2f81fe391c3923bec73e23a9662efc9c229c6a00a2646970667358221220b5ecb2ce1a88d927ceebd0abe467cd69f6545f7b309200d904d4ad5a60a8d1a064736f6c634300081b0033",
  "linkReferences": {},
  "deployedLinkReferences": {}
}