{
  "_format": "hh-sol-artifact-1",
  "contractName": "USDCFundraiserUpgradeable",
  "sourceName": "contracts/USDCFundraiserUpgradeable.sol",
  "abi": [
    {
      "inputs": [],
      "stateMutability": "nonpayable",
      "type": "constructor"
    },
    {
      "inputs": [],
      "name": "EnforcedPause",
      "type": "error"
    },
    {
      "inputs": [],
      "name": "ExpectedPause",
      "type": "error"
    },
    {
      "inputs": [],
      "name": "InvalidInitialization",
      "type": "error"
    },
    {
      "inputs": [],
      "name": "NotInitializing",
      "type": "error"
    },
    {
      "inputs": [
        {
          "internalType": "address",
          "name": "owner",
          "type": "address"
        }
      ],
      "name": "OwnableInvalidOwner",
      "type": "error"
    },
    {
      "inputs": [
        {
          "internalType": "address",
          "name": "account",
          "type": "address"
        }
      ],
      "name": "OwnableUnauthorizedAccount",
      "type": "error"
    },
    {
      "inputs": [],
      "name": "ReentrancyGuardReentrantCall",
      "type": "error"
    },
    {
      "inputs": [
        {
          "internalType": "address",
          "name": "token",
          "type": "address"
        }
      ],
      "name": "SafeERC20FailedOperation",
      "type": "error"
    },
    {
      "anonymous": false,
      "inputs": [
        {
          "indexed": true,
          "internalType": "address",
          "name": "depositor",
          "type": "address"
        },
        {
          "indexed": false,
          "internalType": "uint256",
          "name": "netAmount",
          "type": "uint256"
        },
        {
          "indexed": false,
          "internalType": "uint256",
          "name": "feeAmount",
          "type": "uint256"
        }
      ],
      "name": "Deposit",
      "type": "event"
    },
    {
      "anonymous": false,
      "inputs": [
        {
          "indexed": false,
          "internalType": "bool",
          "name": "success",
          "type": "bool"
        },
        {
          "indexed": false,
          "internalType": "uint256",
          "name": "totalRaised",
          "type": "uint256"
        }
      ],
      "name": "Finalized",
      "type": "event"
    },
    {
      "anonymous": false,
      "inputs": [
        {
          "indexed": false,
          "internalType": "uint64",
          "name": "version",
          "type": "uint64"
        }
      ],
      "name": "Initialized",
      "type": "event"
    },
    {
      "anonymous": false,
      "inputs": [
        {
          "indexed": true,
          "internalType": "address",
          "name": "previousOwner",
          "type": "address"
        },
        {
          "indexed": true,
          "internalType": "address",
          "name": "newOwner",
          "type": "address"
        }
      ],
      "name": "OwnershipTransferred",
      "type": "event"
    },
    {
      "anonymous": false,
      "inputs": [
        {
          "indexed": false,
          "internalType": "address",
          "name": "account",
          "type": "address"
        }
      ],
      "name": "Paused",
      "type": "event"
    },
    {
      "anonymous": false,
      "inputs": [
        {
          "indexed": true,
          "internalType": "uint256",
          "name": "productId",
          "type": "uint256"
        },
        {
          "indexed": false,
          "internalType": "uint256",
          "name": "price",
          "type": "uint256"
        },
        {
          "indexed": false,
          "internalType": "uint256",
          "name": "supplyLimit",
          "type": "uint256"
        }
      ],
      "name": "ProductAdded",
      "type": "event"
    },
    {
      "anonymous": false,
      "inputs": [
        {
          "indexed": true,
          "internalType": "uint256",
          "name": "productId",
          "type": "uint256"
        },
        {
          "indexed": false,
          "internalType": "uint256",
          "name": "oldPrice",
          "type": "uint256"
        },
        {
          "indexed": false,
          "internalType": "uint256",
          "name": "newPrice",
          "type": "uint256"
        },
        {
          "indexed": false,
          "internalType": "uint256",
          "name": "oldSupplyLimit",
          "type": "uint256"
        },
        {
          "indexed": false,
          "internalType": "uint256",
          "name": "newSupplyLimit",
          "type": "uint256"
        }
      ],
      "name": "ProductUpdated",
      "type": "event"
    },
    {
      "anonymous": false,
      "inputs": [
        {
          "indexed": true,
          "internalType": "address",
          "name": "depositor",
          "type": "address"
        },
        {
          "indexed": false,
          "internalType": "uint256",
          "name": "amount",
          "type": "uint256"
        },
        {
          "indexed": false,
          "internalType": "uint256",
          "name": "productId",
          "type": "uint256"
        },
        {
          "indexed": false,
          "internalType": "uint256",
          "name": "quantity",
          "type": "uint256"
        }
      ],
      "name": "Refund",
      "type": "event"
    },
    {
      "anonymous": false,
      "inputs": [
        {
          "indexed": false,
          "internalType": "address",
          "name": "account",
          "type": "address"
        }
      ],
      "name": "Unpaused",
      "type": "event"
    },
    {
      "inputs": [],
      "name": "BASIS_POINTS",
      "outputs": [
        {
          "internalType": "uint256",
          "name": "",
          "type": "uint256"
        }
      ],
      "stateMutability": "view",
      "type": "function"
    },
    {
      "inputs": [
        {
          "components": [
            {
              "internalType": "uint256",
              "name": "productId",
              "type": "uint256"
            },
            {
              "internalType": "uint256",
              "name": "price",
              "type": "uint256"
            },
            {
              "internalType": "uint256",
              "name": "supplyLimit",
              "type": "uint256"
            }
          ],
          "internalType": "struct ProductConfig",
          "name": "product",
          "type": "tuple"
        }
      ],
      "name": "addProduct",
      "outputs": [],
      "stateMutability": "nonpayable",
      "type": "function"
    },
    {
      "inputs": [],
      "name": "beneficiaryWallet",
      "outputs": [
        {
          "internalType": "address",
          "name": "",
          "type": "address"
        }
      ],
      "stateMutability": "view",
      "type": "function"
    },
    {
      "inputs": [],
      "name": "campaignAdmin",
      "outputs": [
        {
          "internalType": "address",
          "name": "",
          "type": "address"
        }
      ],
      "stateMutability": "view",
      "type": "function"
    },
    {
      "inputs": [
        {
          "internalType": "uint256",
          "name": "productId",
          "type": "uint256"
        },
        {
          "internalType": "uint256",
          "name": "quantity",
          "type": "uint256"
        }
      ],
      "name": "claimRefund",
      "outputs": [],
      "stateMutability": "nonpayable",
      "type": "function"
    },
    {
      "inputs": [],
      "name": "deadline",
      "outputs": [
        {
          "internalType": "uint256",
          "name": "",
          "type": "uint256"
        }
      ],
      "stateMutability": "view",
      "type": "function"
    },
    {
      "inputs": [
        {
          "internalType": "uint256",
          "name": "productId",
          "type": "uint256"
        },
        {
          "internalType": "uint256",
          "name": "quantity",
          "type": "uint256"
        }
      ],
      "name": "deposit",
      "outputs": [],
      "stateMutability": "nonpayable",
      "type": "function"
    },
    {
      "inputs": [],
      "name": "factory",
      "outputs": [
        {
          "internalType": "address",
          "name": "",
          "type": "address"
        }
      ],
      "stateMutability": "view",
      "type": "function"
    },
    {
      "inputs": [],
      "name": "feePercentage",
      "outputs": [
        {
          "internalType": "uint256",
          "name": "",
          "type": "uint256"
        }
      ],
      "stateMutability": "view",
      "type": "function"
    },
    {
      "inputs": [],
      "name": "feeWallet",
      "outputs": [
        {
          "internalType": "address",
          "name": "",
          "type": "address"
        }
      ],
      "stateMutability": "view",
      "type": "function"
    },
    {
      "inputs": [],
      "name": "finalize",
      "outputs": [],
      "stateMutability": "nonpayable",
      "type": "function"
    },
    {
      "inputs": [],
      "name": "finalized",
      "outputs": [
        {
          "internalType": "bool",
          "name": "",
          "type": "bool"
        }
      ],
      "stateMutability": "view",
      "type": "function"
    },
    {
      "inputs": [],
      "name": "fundingType",
      "outputs": [
        {
          "internalType": "uint256",
          "name": "",
          "type": "uint256"
        }
      ],
      "stateMutability": "view",
      "type": "function"
    },
    {
      "inputs": [
        {
          "internalType": "uint256",
          "name": "uniqueProductId",
          "type": "uint256"
        }
      ],
      "name": "getOriginalProductId",
      "outputs": [
        {
          "internalType": "uint256",
          "name": "",
          "type": "uint256"
        }
      ],
      "stateMutability": "view",
      "type": "function"
    },
    {
      "inputs": [
        {
          "internalType": "uint256",
          "name": "productId",
          "type": "uint256"
        }
      ],
      "name": "getProduct",
      "outputs": [
        {
          "components": [
            {
              "internalType": "uint256",
              "name": "productId",
              "type": "uint256"
            },
            {
              "internalType": "uint256",
              "name": "price",
              "type": "uint256"
            },
            {
              "internalType": "uint256",
              "name": "supplyLimit",
              "type": "uint256"
            }
          ],
          "internalType": "struct ProductConfig",
          "name": "",
          "type": "tuple"
        }
      ],
      "stateMutability": "view",
      "type": "function"
    },
    {
      "inputs": [],
      "name": "getProductIds",
      "outputs": [
        {
          "internalType": "uint256[]",
          "name": "",
          "type": "uint256[]"
        }
      ],
      "stateMutability": "view",
      "type": "function"
    },
    {
      "inputs": [
        {
          "internalType": "uint256",
          "name": "productId",
          "type": "uint256"
        }
      ],
      "name": "getUniqueProductId",
      "outputs": [
        {
          "internalType": "uint256",
          "name": "",
          "type": "uint256"
        }
      ],
      "stateMutability": "view",
      "type": "function"
    },
    {
      "inputs": [
        {
          "internalType": "address",
          "name": "_usdcAddress",
          "type": "address"
        },
        {
          "internalType": "address",
          "name": "_beneficiaryWallet",
          "type": "address"
        },
        {
          "internalType": "address",
          "name": "_feeWallet",
          "type": "address"
        },
        {
          "internalType": "uint256",
          "name": "_feePercentage",
          "type": "uint256"
        },
        {
          "internalType": "uint256",
          "name": "_fundingType",
          "type": "uint256"
        },
        {
          "internalType": "uint256",
          "name": "_minimumTarget",
          "type": "uint256"
        },
        {
          "internalType": "uint256",
          "name": "_deadline",
          "type": "uint256"
        },
        {
          "internalType": "address",
          "name": "_productTokenAddress",
          "type": "address"
        },
        {
          "internalType": "address",
          "name": "_factoryAddress",
          "type": "address"
        },
        {
          "components": [
            {
              "internalType": "uint256",
              "name": "productId",
              "type": "uint256"
            },
            {
              "internalType": "uint256",
              "name": "price",
              "type": "uint256"
            },
            {
              "internalType": "uint256",
              "name": "supplyLimit",
              "type": "uint256"
            }
          ],
          "internalType": "struct ProductConfig[]",
          "name": "_products",
          "type": "tuple[]"
        },
        {
          "internalType": "address",
          "name": "_campaignAdmin",
          "type": "address"
        },
        {
          "internalType": "address",
          "name": "_owner",
          "type": "address"
        }
      ],
      "name": "initialize",
      "outputs": [],
      "stateMutability": "nonpayable",
      "type": "function"
    },
    {
      "inputs": [],
      "name": "minimumTarget",
      "outputs": [
        {
          "internalType": "uint256",
          "name": "",
          "type": "uint256"
        }
      ],
      "stateMutability": "view",
      "type": "function"
    },
    {
      "inputs": [],
      "name": "owner",
      "outputs": [
        {
          "internalType": "address",
          "name": "",
          "type": "address"
        }
      ],
      "stateMutability": "view",
      "type": "function"
    },
    {
      "inputs": [],
      "name": "pause",
      "outputs": [],
      "stateMutability": "nonpayable",
      "type": "function"
    },
    {
      "inputs": [],
      "name": "paused",
      "outputs": [
        {
          "internalType": "bool",
          "name": "",
          "type": "bool"
        }
      ],
      "stateMutability": "view",
      "type": "function"
    },
    {
      "inputs": [
        {
          "internalType": "uint256",
          "name": "",
          "type": "uint256"
        }
      ],
      "name": "productIds",
      "outputs": [
        {
          "internalType": "uint256",
          "name": "",
          "type": "uint256"
        }
      ],
      "stateMutability": "view",
      "type": "function"
    },
    {
      "inputs": [
        {
          "internalType": "uint256",
          "name": "",
          "type": "uint256"
        }
      ],
      "name": "productSoldCount",
      "outputs": [
        {
          "internalType": "uint256",
          "name": "",
          "type": "uint256"
        }
      ],
      "stateMutability": "view",
      "type": "function"
    },
    {
      "inputs": [],
      "name": "productToken",
      "outputs": [
        {
          "internalType": "contract ProductTokenUpgradeable",
          "name": "",
          "type": "address"
        }
      ],
      "stateMutability": "view",
      "type": "function"
    },
    {
      "inputs": [
        {
          "internalType": "uint256",
          "name": "",
          "type": "uint256"
        }
      ],
      "name": "products",
      "outputs": [
        {
          "internalType": "uint256",
          "name": "productId",
          "type": "uint256"
        },
        {
          "internalType": "uint256",
          "name": "price",
          "type": "uint256"
        },
        {
          "internalType": "uint256",
          "name": "supplyLimit",
          "type": "uint256"
        }
      ],
      "stateMutability": "view",
      "type": "function"
    },
    {
      "inputs": [],
      "name": "renounceOwnership",
      "outputs": [],
      "stateMutability": "nonpayable",
      "type": "function"
    },
    {
      "inputs": [
        {
          "internalType": "uint256",
          "name": "",
          "type": "uint256"
        }
      ],
      "name": "tokenDeposits",
      "outputs": [
        {
          "internalType": "uint256",
          "name": "",
          "type": "uint256"
        }
      ],
      "stateMutability": "view",
      "type": "function"
    },
    {
      "inputs": [],
      "name": "totalRaised",
      "outputs": [
        {
          "internalType": "uint256",
          "name": "",
          "type": "uint256"
        }
      ],
      "stateMutability": "view",
      "type": "function"
    },
    {
      "inputs": [
        {
          "internalType": "address",
          "name": "newOwner",
          "type": "address"
        }
      ],
      "name": "transferOwnership",
      "outputs": [],
      "stateMutability": "nonpayable",
      "type": "function"
    },
    {
      "inputs": [
        {
          "internalType": "uint256",
          "name": "",
          "type": "uint256"
        }
      ],
      "name": "uniqueToOriginalProductId",
      "outputs": [
        {
          "internalType": "uint256",
          "name": "",
          "type": "uint256"
        }
      ],
      "stateMutability": "view",
      "type": "function"
    },
    {
      "inputs": [],
      "name": "unpause",
      "outputs": [],
      "stateMutability": "nonpayable",
      "type": "function"
    },
    {
      "inputs": [
        {
          "internalType": "uint256",
          "name": "productId",
          "type": "uint256"
        },
        {
          "internalType": "uint256",
          "name": "newPrice",
          "type": "uint256"
        },
        {
          "internalType": "uint256",
          "name": "newSupplyLimit",
          "type": "uint256"
        }
      ],
      "name": "updateProduct",
      "outputs": [],
      "stateMutability": "nonpayable",
      "type": "function"
    },
    {
      "inputs": [],
      "name": "usdc",
      "outputs": [
        {
          "internalType": "contract IERC20",
          "name": "",
          "type": "address"
        }
      ],
      "stateMutability": "view",
      "type": "function"
    }
  ],
  "bytecode": "0x6080806040523460d2577ff0c57e16840df040f15088dc2f81fe391c3923bec73e23a9662efc9c229c6a005460ff8160401c1660c1576002600160401b03196001600160401b03821601605c575b60405161241790816100d88239f35b6001600160401b0319166001600160401b039081177ff0c57e16840df040f15088dc2f81fe391c3923bec73e23a9662efc9c229c6a005581527fc7f505b2f371ae2175ee4913f4499e1f2633a7b5936321eed1cdaeb6115181d290602090a13880604d565b63f92ee8a960e01b60005260046000fd5b600080fdfe608080604052600436101561001357600080fd5b600090813560e01c90816325b4f65f14611c94575080632903d9cf14611c6a57806329dcb0cf14611c4c5780633e413bee14611c255780633f4ba83a14611ba357806342235da614611b8557806347428e7b14611acf5780634bb278f31461196d5780635c975abb1461193d5780635cb04079146111ce57806366bff1db146111a4578063715018a61461113a57806372afddf01461111157806375390e73146110d25780637acc0b20146110825780638456cb591461100d5780638500efa114610fe65780638527d58f14610c305780638da5cb5b14610bfa578063a001ecdd14610bdc578063b3f05b9714610bb9578063b9db15b414610b39578063c45a015514610b10578063c5c4744c14610af2578063c978863114610ac9578063cb51bba914610a72578063dd5934b314610902578063e1f1c4a7146108e5578063e2bbb15814610422578063ebd692ea146103f8578063f25f4b56146103cf578063f2fde38b146103a2578063f85292ca146101b75763fa8ab0ee1461019757600080fd5b346101b457806003193601126101b4576020600d54604051908152f35b80fd5b50346101b45760603660031901126101b4576024356044359060018060a01b0360008051602061236283398151915254163314801561038e575b6101fa90611d81565b610205600435612262565b91828452600e60205261022060016040862001541515611e79565b61022b821515611f89565b828452600e60205260016040852001548203610337575b806102ca575b7fcbbdbe54b7b042a5d03f5b760745fbebd762875c3197b43499936461abc3395091608091848652600e602052600160408720015491858752600e602052600260408820015490868852600e60205280600160408a200155868852600e60205282600260408a200155604051938452602084015260408301526060820152a280f35b828452600c60205260408420548110156102485760405162461bcd60e51b815260206004820152602b60248201527f537570706c79206c696d69742063616e6e6f74206265206c657373207468616e60448201526a081cdbdb190818dbdd5b9d60aa1b6064820152608490fd5b828452600c6020526040842054156102425760405162461bcd60e51b815260206004820152601f60248201527f43616e6e6f74206368616e67652070726963652061667465722073616c6573006044820152606490fd5b506010546001600160a01b031633146101f1565b50346101b45760203660031901126101b4576103cc6103bf611cb9565b6103c76120e3565b61206d565b80f35b50346101b457806003193601126101b4576004546040516001600160a01b039091168152602090f35b50346101b45760203660031901126101b45760406020916004358152600c83522054604051908152f35b50346101b45761044b61043436611d28565b919061043e612119565b610446612155565b612262565b808352600e6020526040832060405161046381611cd4565b8154815260406002600184015493602084019485520154910190815260ff600954166108a8576001600d5403610865575b6104a082511515611ebe565b831561082d57808491516107cb575b506104ba9151611f53565b916127106104ca60075485611f53565b04906104d68285611f7c565b85546040516323b872dd60e01b60208201523360248201523060448201526064808201889052815291949161051e916001600160a01b0316610519608483611d06565b612306565b6002546001546001600160a01b0390811691889116803b156107c75760405163465075e360e11b81526001600160a01b03939093166004840152336024840152604483018490526064830185905281908390608490829084905af191826107ae575b50506107165785858160033d11610706575b6308c379a014610658575b3d1561064f573d67ffffffffffffffff811161063b576040516105ea93916105cf601f8201601f191660200183611d06565b81528160203d92013e5b5433906001600160a01b031661229a565b60405162461bcd60e51b8152602060048201526024808201527f4e4654206d696e74206661696c65642077697468206c6f772d6c6576656c2065604482015263393937b960e11b6064820152608490fd5b634e487b7160e01b83526041600452602483fd5b6105ea916105d9565b610660611fd2565b8061066b575061059d565b6106866044926106f894339060018060a01b0390541661229a565b604051906106d0603183602081019370027232a1036b4b73a103330b4b632b21d1607d1b85526106bf815180926020868601910161204a565b81010301601f198101845283611d06565b60405193849262461bcd60e51b8452602060048501525180928160248601528585019061204a565b601f01601f19168101030190fd5b50600482803e815160e01c610592565b8580955052600c60205261072f60408520918254611fc5565b905561073d82600854611fc5565b6008558061078c575b60405191825260208201527f90890809c654f11d6e72a28fa60149770a0d11ec6c92319d6ceb2bb0a4ea1a1560403392a260016000805160206123a28339815191525580f35b82546004546107a99183916001600160a01b03908116911661229a565b610746565b816107b891611d06565b6107c3578638610580565b8680fd5b5080fd5b9050828552600c6020526107e3846040872054611fc5565b9051106107f15782386104af565b60405162461bcd60e51b8152602060048201526014602482015273115e18d959591cc81cdd5c1c1b1e481b1a5b5a5d60621b6044820152606490fd5b60405162461bcd60e51b815260206004820152601060248201526f496e76616c6964207175616e7469747960801b6044820152606490fd5b60065442106104945760405162461bcd60e51b815260206004820152601260248201527110d85b5c185a59db881a185cc8195b99195960721b6044820152606490fd5b60405162461bcd60e51b815260206004820152601560248201527410d85b5c185a59db881a5cc8199a5b985b1a5e9959605a1b6044820152606490fd5b50346101b457806003193601126101b45760206040516127108152f35b50346101b45760603660031901126101b45760405161092081611cd4565b60043581526020810160243581526040820191604435835260018060a01b03600080516020612362833981519152541633148015610a5e575b61096290611d81565b61096e82511515611f89565b61097a81511515611de8565b6109848151612262565b92838552600e6020526001604086200154610a2057826040927f0bb34bc6bcdd4ba28b7de4669c2e7d94d1b828b2a6a14b82991e087b20d735499451600284518651926109d084611cd4565b89845260208401908152878401918252898b52600e602052878b209351845551600184015551910155610a0286611e29565b51858752600f6020528387205551905182519182526020820152a280f35b60405162461bcd60e51b815260206004820152601660248201527550726f6475637420616c72656164792065786973747360501b6044820152606490fd5b506010546001600160a01b03163314610959565b50346101b45760203660031901126101b45760043590600b548210156101b457600b54821015610ab557602091600b825282822001549060031b1c604051908152f35b634e487b7160e01b81526032600452602490fd5b50346101b457806003193601126101b4576003546040516001600160a01b039091168152602090f35b50346101b457806003193601126101b4576020600854604051908152f35b50346101b457806003193601126101b4576002546040516001600160a01b039091168152602090f35b50346101b45760203660031901126101b457604081606092828051610b5d81611cd4565b8281528260208201520152610b73600435612262565b8152600e60205220604051610b8781611cd4565b815491828252604060026001830154926020850193845201549201918252604051928352516020830152516040820152f35b50346101b457806003193601126101b457602060ff600954166040519015158152f35b50346101b457806003193601126101b4576020600754604051908152f35b50346101b457806003193601126101b457600080516020612362833981519152546040516001600160a01b039091168152602090f35b50346101b457610c4261043436611d28565b90818352600e60205260408320610c80604051610c5e81611cd4565b8254815260018301549060406002602083019584875201549101521515611ebe565b600d5480610ec45750610c9860085460055411611efc565b600154604051627eeac760e11b8152336004820152602481018590526001600160a01b0390911690602081604481855afa8015610eb95784918791610e80575b5010610e3b576002546001600160a01b0316908590823b156107c75760405163270a2a6560e01b81526001600160a01b039190911660048201523360248201526044810186905260648101859052918290608490829084905af18015610e3057610df0575b5090610d8681610d8184612710610d797fb7048c2ad36aadee977bb16b4543a18866044d27a2ca753e1c7dbcfa7d7a6962975160075490611f53565b049051611f7c565b611f53565b92610d9b843360018060a01b0388541661229a565b808552600c60205260408520610db2838254611f7c565b9055610dc084600854611f7c565b6008556040805194855260208501919091528301523391606090a260016000805160206123a28339815191525580f35b82610d8186610e257fb7048c2ad36aadee977bb16b4543a18866044d27a2ca753e1c7dbcfa7d7a6962969598610d8695611d06565b969350509250610d3d565b6040513d87823e3d90fd5b60405162461bcd60e51b815260206004820152601860248201527f496e73756666696369656e74204e46542062616c616e636500000000000000006044820152606490fd5b9150506020813d602011610eb1575b81610e9c60209383611d06565b81010312610ead5783905138610cd8565b8580fd5b3d9150610e8f565b6040513d88823e3d90fd5b60018103610f30575060ff6009541615610c985760405162461bcd60e51b815260206004820152602a60248201527f43616d706169676e2066696e616c697a6564202d20726566756e6473206e6f7460448201526920617661696c61626c6560b01b6064820152608490fd5b600203610faa57600654421015610f5557610f5060085460055411611efc565b610c98565b60405162461bcd60e51b815260206004820152602760248201527f446561646c696e6520706173736564202d20726566756e6473206e6f7420617660448201526661696c61626c6560c81b6064820152608490fd5b60405162461bcd60e51b8152602060048201526014602482015273496e76616c69642066756e64696e67207479706560601b6044820152606490fd5b50346101b45760203660031901126101b4576020611005600435612262565b604051908152f35b50346101b457806003193601126101b4576110266120e3565b61102e612155565b600160ff19600080516020612382833981519152541617600080516020612382833981519152557f62e78cea01bee320cd4e420270b5ea74000d11b0c9f74754ebdbfc544b05a2586020604051338152a180f35b50346101b45760203660031901126101b4576040906004358152600e6020522080546110ce60026001840154930154604051938493846040919493926060820195825260208201520152565b0390f35b50346101b45760203660031901126101b4576040602091600435808252600f8452611101838320541515611e79565b8152600f83522054604051908152f35b50346101b457806003193601126101b4576010546040516001600160a01b039091168152602090f35b50346101b457806003193601126101b4576111536120e3565b60008051602061236283398151915280546001600160a01b0319811690915581906001600160a01b03167f8be0079c531659141344cd1fd0a4f28419497f9722a3daafe3b4186f6b6457e08280a380f35b50346101b45760203660031901126101b45760406020916004358152600a83522054604051908152f35b50346101b4576101803660031901126101b4576111e9611cb9565b6024356001600160a01b03811690819003611939576044356001600160a01b03811691908290036119355760643560e4356001600160a01b0381169060c435908290036107c357610104356001600160a01b038116939084900361193157610124359567ffffffffffffffff871161192d573660238801121561192d57866004013567ffffffffffffffff8111611919576040519761128e60208360051b018a611d06565b8189526024606060208b019302820101903682116118d557602401915b8183106118dd57505050610144356001600160a01b03811696908790036118d95761016435986001600160a01b038a1690818b036118d5576000805160206123c2833981519152549a60ff8c60401c16159b8c67ffffffffffffffff8216801591826118cd575b5060011490816118c3575b1590816118ba575b506118ab5767ffffffffffffffff1981166001176000805160206123c28339815191525561136591908d61187e575b5061135d6122d8565b6103c76122d8565b61136d6122d8565b6113756122d8565b61137d6122d8565b60016000805160206123a2833981519152556001600160a01b03169081156118425782156117fd5783156117c357861561177e5787156117395742861115611701578951156116c55788156116875715611652576127108410156115ff576001600160601b0360a01b8b5416178a556001600160601b0360a01b60035416176003556001600160601b0360a01b600454161760045560075560a4356005556006556001600160601b0360a01b60015416176001556001600160601b0360a01b60025416176002556001600160601b0360a01b6010541617601055608435600d55825b815181101561159c5760206114748284611dbe565b5101511561155f578061149561148c60019385611dbe565b51511515611de8565b61149f8184611dbe565b51516040513060601b6bffffffffffffffffffffffff19166020820190815260348201929092526114dd81605481015b03601f198101835282611d06565b51902060206114ec8386611dbe565b510151600260406114fd8588611dbe565b5101516040519261150d84611cd4565b8484526020840190815260408401918252848a52600e60205260408a209351845551868401555191015561154081611e29565b61154a8285611dbe565b5151908652600f60205260408620550161145f565b60405162461bcd60e51b8152602060048201526015602482015274496e76616c69642070726f6475637420707269636560581b6044820152606490fd5b50506115a55780f35b68ff0000000000000000196000805160206123c283398151915254166000805160206123c2833981519152557fc7f505b2f371ae2175ee4913f4499e1f2633a7b5936321eed1cdaeb6115181d2602060405160018152a180f35b60405162461bcd60e51b815260206004820152602560248201527f4665652070657263656e74616765206d757374206265206c657373207468616e604482015264203130302560d81b6064820152608490fd5b60405162461bcd60e51b815260206004820152600d60248201526c24b73b30b634b21037bbb732b960991b6044820152606490fd5b60405162461bcd60e51b815260206004820152601660248201527524b73b30b634b21031b0b6b830b4b3b71030b236b4b760511b6044820152606490fd5b60405162461bcd60e51b8152602060048201526014602482015273139bc81c1c9bd91d58dd1cc81c1c9bdd9a59195960621b6044820152606490fd5b60405162461bcd60e51b815260206004820152601060248201526f496e76616c696420646561646c696e6560801b6044820152606490fd5b60405162461bcd60e51b815260206004820152601760248201527f496e76616c696420666163746f727920616464726573730000000000000000006044820152606490fd5b60405162461bcd60e51b815260206004820152601d60248201527f496e76616c69642070726f6475637420746f6b656e20616464726573730000006044820152606490fd5b60405162461bcd60e51b8152602060048201526012602482015271125b9d985b1a5908199959481dd85b1b195d60721b6044820152606490fd5b60405162461bcd60e51b815260206004820152601a60248201527f496e76616c69642062656e65666963696172792077616c6c65740000000000006044820152606490fd5b60405162461bcd60e51b8152602060048201526014602482015273496e76616c69642055534443206164647265737360601b6044820152606490fd5b68ffffffffffffffffff191668010000000000000001176000805160206123c28339815191525538611354565b63f92ee8a960e01b8e5260048efd5b90501538611325565b303b15915061131d565b91508e611312565b8b80fd5b8980fd5b6060833603126118d55760206060916040516118f881611cd4565b853581528286013583820152604086013560408201528152019201916112ab565b634e487b7160e01b8a52604160045260248afd5b8880fd5b8780fd5b8380fd5b8280fd5b50346101b457806003193601126101b457602060ff60008051602061238283398151915254166040519015158152f35b50346101b457806003193601126101b457611986612119565b61198e612155565b60ff60095416611a9657600d5480611a1a5750600854600554116119c9576119b461217f565b60016000805160206123a28339815191525580f35b6119d66006544211611d3e565b600160ff1960095416176009557fdd0f555ae5273de37f96c52aa0ba4ae26fc23a0d7b0e2b8904ba8cf1636d6ce060406008548151908482526020820152a16119b4565b60018103611a6f5750600080516020612362833981519152546001600160a01b031633148015611a5b575b611a4e90611d81565b611a5661217f565b6119b4565b506010546001600160a01b03163314611a45565b6002036119b45760085460055411611a8957611a5661217f565b611a4e6006544211611d3e565b60405162461bcd60e51b8152602060048201526011602482015270105b1c9958591e48199a5b985b1a5e9959607a1b6044820152606490fd5b50346101b457806003193601126101b457604051806020600b5491828152018091600b85527f0175b7a638427703f0dbe7bb9bbf987a2551717b34e79f33b5b1008d1fa01db990855b818110611b6f5750505082611b2e910383611d06565b604051928392602084019060208552518091526040840192915b818110611b56575050500390f35b8251845285945060209384019390920191600101611b48565b8254845260209093019260019283019201611b18565b50346101b457806003193601126101b4576020600554604051908152f35b50346101b457806003193601126101b457611bbc6120e3565b6000805160206123828339815191525460ff811615611c165760ff1916600080516020612382833981519152557f5db9ee0a495bf2e6ff9c91a7834c1ba4fdd244a5e8aa4e537bd38aeae4b073aa6020604051338152a180f35b638dfc202b60e01b8252600482fd5b50346101b457806003193601126101b457546040516001600160a01b039091168152602090f35b50346101b457806003193601126101b4576020600654604051908152f35b50346101b45760203660031901126101b45760406020916004358152600f83522054604051908152f35b9050346107c757816003193601126107c7576001546001600160a01b03168152602090f35b600435906001600160a01b0382168203611ccf57565b600080fd5b6060810190811067ffffffffffffffff821117611cf057604052565b634e487b7160e01b600052604160045260246000fd5b90601f8019910116810190811067ffffffffffffffff821117611cf057604052565b6040906003190112611ccf576004359060243590565b15611d4557565b60405162461bcd60e51b8152602060048201526014602482015273111958591b1a5b99481b9bdd081c995858da195960621b6044820152606490fd5b15611d8857565b60405162461bcd60e51b815260206004820152600e60248201526d139bdd08185d5d1a1bdc9a5e995960921b6044820152606490fd5b8051821015611dd25760209160051b010190565b634e487b7160e01b600052603260045260246000fd5b15611def57565b60405162461bcd60e51b8152602060048201526012602482015271125b9d985b1a59081c1c9bd91d58dd08125160721b6044820152606490fd5b600b5468010000000000000000811015611cf05760018101600b556000600b54821015610ab557600b90527f0175b7a638427703f0dbe7bb9bbf987a2551717b34e79f33b5b1008d1fa01db90155565b15611e8057565b60405162461bcd60e51b8152602060048201526016602482015275141c9bd91d58dd08191bd95cc81b9bdd08195e1a5cdd60521b6044820152606490fd5b15611ec557565b60405162461bcd60e51b815260206004820152600f60248201526e125b9d985b1a59081c1c9bd91d58dd608a1b6044820152606490fd5b15611f0357565b60405162461bcd60e51b815260206004820152602260248201527f546172676574206d6574202d20726566756e6473206e6f7420617661696c61626044820152616c6560f01b6064820152608490fd5b81810292918115918404141715611f6657565b634e487b7160e01b600052601160045260246000fd5b91908203918211611f6657565b15611f9057565b60405162461bcd60e51b815260206004820152600d60248201526c496e76616c696420707269636560981b6044820152606490fd5b91908201809211611f6657565b600060443d10612039576040513d600319016004823e8051913d602484011167ffffffffffffffff841117612044578282019283519167ffffffffffffffff831161203c573d8401600319018584016020011161203c575061203992910160200190611d06565b90565b949350505050565b92915050565b60005b83811061205d5750506000910152565b818101518382015260200161204d565b6001600160a01b031680156120cd5760008051602061236283398151915280546001600160a01b0319811683179091556001600160a01b03167f8be0079c531659141344cd1fd0a4f28419497f9722a3daafe3b4186f6b6457e0600080a3565b631e4fbdf760e01b600052600060045260246000fd5b600080516020612362833981519152546001600160a01b0316330361210457565b63118cdaa760e01b6000523360045260246000fd5b60026000805160206123a283398151915254146121445760026000805160206123a283398151915255565b633ee5aeb560e01b60005260046000fd5b60ff600080516020612382833981519152541661216e57565b63d93c066560e01b60005260046000fd5b6009805460ff191660011790556000546040516370a0823160e01b81523060048201526001600160a01b039190911690602081602481855afa90811561225657600091612224575b5080612205575b50507fdd0f555ae5273de37f96c52aa0ba4ae26fc23a0d7b0e2b8904ba8cf1636d6ce06040600854815190600182526020820152a1565b60035461221d926001600160a01b039091169061229a565b38806121ce565b906020823d60201161224e575b8161223e60209383611d06565b810103126101b4575051386121c7565b3d9150612231565b6040513d6000823e3d90fd5b6040513060601b6bffffffffffffffffffffffff191660208201908152603482019290925261229481605481016114cf565b51902090565b60405163a9059cbb60e01b60208201526001600160a01b039290921660248301526044808301939093529181526122d691610519606483611d06565b565b60ff6000805160206123c28339815191525460401c16156122f557565b631afcd79f60e31b60005260046000fd5b906000602091828151910182855af115612256576000513d61235857506001600160a01b0381163b155b6123375750565b635274afe760e01b60009081526001600160a01b0391909116600452602490fd5b6001141561233056fe9016d09d72d40fdae2fd8ceac6b6234c7706214fd39c1cd1e609a0528c199300cd5ed15c6e187e77e9aee88184c21f4f2182ab5827cb3b7e07fbedcd63f033009b779b17422d0df92223018b32b4d1fa46e071723d6817e2486d003becc55f00f0c57e16840df040f15088dc2f81fe391c3923bec73e23a9662efc9c229c6a00a2646970667358221220d44f6795ecd11eb09cc6b29d95bae73c3b8f7172ef0ef7a6c5acfc77bbab671764736f6c634300081b0033",
  "linkReferences": {},
  "deployedLinkReferences": {}
}