{
  "_format": "hh-sol-artifact-1",
  "contractName": "USDCFundraiserFactoryUpgradeableV2",
  "sourceName": "contracts/USDCFundraiserFactoryUpgradeableV2.sol",
  "abi": [
    {
      "inputs": [],
      "stateMutability": "nonpayable",
      "type": "constructor"
    },
    {
      "inputs": [
        {
          "internalType": "address",
          "name": "target",
          "type": "address"
        }
      ],
      "name": "AddressEmptyCode",
      "type": "error"
    },
    {
      "inputs": [
        {
          "internalType": "address",
          "name": "implementation",
          "type": "address"
        }
      ],
      "name": "ERC1967InvalidImplementation",
      "type": "error"
    },
    {
      "inputs": [],
      "name": "ERC1967NonPayable",
      "type": "error"
    },
    {
      "inputs": [],
      "name": "FailedCall",
      "type": "error"
    },
    {
      "inputs": [],
      "name": "FailedDeployment",
      "type": "error"
    },
    {
      "inputs": [
        {
          "internalType": "uint256",
          "name": "balance",
          "type": "uint256"
        },
        {
          "internalType": "uint256",
          "name": "needed",
          "type": "uint256"
        }
      ],
      "name": "InsufficientBalance",
      "type": "error"
    },
    {
      "inputs": [],
      "name": "InvalidInitialization",
      "type": "error"
    },
    {
      "inputs": [],
      "name": "NotInitializing",
      "type": "error"
    },
    {
      "inputs": [
        {
          "internalType": "address",
          "name": "owner",
          "type": "address"
        }
      ],
      "name": "OwnableInvalidOwner",
      "type": "error"
    },
    {
      "inputs": [
        {
          "internalType": "address",
          "name": "account",
          "type": "address"
        }
      ],
      "name": "OwnableUnauthorizedAccount",
      "type": "error"
    },
    {
      "inputs": [],
      "name": "UUPSUnauthorizedCallContext",
      "type": "error"
    },
    {
      "inputs": [
        {
          "internalType": "bytes32",
          "name": "slot",
          "type": "bytes32"
        }
      ],
      "name": "UUPSUnsupportedProxiableUUID",
      "type": "error"
    },
    {
      "anonymous": false,
      "inputs": [
        {
          "indexed": true,
          "internalType": "address",
          "name": "fundraiser",
          "type": "address"
        },
        {
          "indexed": true,
          "internalType": "address",
          "name": "creator",
          "type": "address"
        }
      ],
      "name": "FundraiserCreated",
      "type": "event"
    },
    {
      "anonymous": false,
      "inputs": [
        {
          "indexed": true,
          "internalType": "address",
          "name": "newImplementation",
          "type": "address"
        }
      ],
      "name": "ImplementationUpdated",
      "type": "event"
    },
    {
      "anonymous": false,
      "inputs": [
        {
          "indexed": false,
          "internalType": "uint64",
          "name": "version",
          "type": "uint64"
        }
      ],
      "name": "Initialized",
      "type": "event"
    },
    {
      "anonymous": false,
      "inputs": [
        {
          "indexed": true,
          "internalType": "address",
          "name": "previousOwner",
          "type": "address"
        },
        {
          "indexed": true,
          "internalType": "address",
          "name": "newOwner",
          "type": "address"
        }
      ],
      "name": "OwnershipTransferred",
      "type": "event"
    },
    {
      "anonymous": false,
      "inputs": [
        {
          "indexed": true,
          "internalType": "address",
          "name": "newProductToken",
          "type": "address"
        }
      ],
      "name": "ProductTokenUpdated",
      "type": "event"
    },
    {
      "anonymous": false,
      "inputs": [
        {
          "indexed": true,
          "internalType": "address",
          "name": "implementation",
          "type": "address"
        }
      ],
      "name": "Upgraded",
      "type": "event"
    },
    {
      "inputs": [],
      "name": "BASIS_POINTS",
      "outputs": [
        {
          "internalType": "uint256",
          "name": "",
          "type": "uint256"
        }
      ],
      "stateMutability": "view",
      "type": "function"
    },
    {
      "inputs": [],
      "name": "UPGRADE_INTERFACE_VERSION",
      "outputs": [
        {
          "internalType": "string",
          "name": "",
          "type": "string"
        }
      ],
      "stateMutability": "view",
      "type": "function"
    },
    {
      "inputs": [
        {
          "internalType": "uint256",
          "name": "newFeePercentage",
          "type": "uint256"
        }
      ],
      "name": "changeDefaultFeePercentage",
      "outputs": [],
      "stateMutability": "nonpayable",
      "type": "function"
    },
    {
      "inputs": [
        {
          "internalType": "address",
          "name": "newFeeWallet",
          "type": "address"
        }
      ],
      "name": "changeFeeWallet",
      "outputs": [],
      "stateMutability": "nonpayable",
      "type": "function"
    },
    {
      "inputs": [
        {
          "internalType": "address",
          "name": "beneficiaryWallet",
          "type": "address"
        },
        {
          "internalType": "uint256",
          "name": "fundingType",
          "type": "uint256"
        },
        {
          "internalType": "uint256",
          "name": "minimumTarget",
          "type": "uint256"
        },
        {
          "internalType": "uint256",
          "name": "deadline",
          "type": "uint256"
        },
        {
          "components": [
            {
              "internalType": "uint256",
              "name": "productId",
              "type": "uint256"
            },
            {
              "internalType": "uint256",
              "name": "price",
              "type": "uint256"
            },
            {
              "internalType": "uint256",
              "name": "supplyLimit",
              "type": "uint256"
            }
          ],
          "internalType": "struct ProductConfig[]",
          "name": "products",
          "type": "tuple[]"
        }
      ],
      "name": "createFundraiser",
      "outputs": [
        {
          "internalType": "address",
          "name": "",
          "type": "address"
        }
      ],
      "stateMutability": "nonpayable",
      "type": "function"
    },
    {
      "inputs": [],
      "name": "defaultFeePercentage",
      "outputs": [
        {
          "internalType": "uint256",
          "name": "",
          "type": "uint256"
        }
      ],
      "stateMutability": "view",
      "type": "function"
    },
    {
      "inputs": [
        {
          "internalType": "uint256",
          "name": "",
          "type": "uint256"
        }
      ],
      "name": "deployedFundraisers",
      "outputs": [
        {
          "internalType": "address",
          "name": "",
          "type": "address"
        }
      ],
      "stateMutability": "view",
      "type": "function"
    },
    {
      "inputs": [],
      "name": "feeWallet",
      "outputs": [
        {
          "internalType": "address",
          "name": "",
          "type": "address"
        }
      ],
      "stateMutability": "view",
      "type": "function"
    },
    {
      "inputs": [],
      "name": "fundraiserImplementation",
      "outputs": [
        {
          "internalType": "address",
          "name": "",
          "type": "address"
        }
      ],
      "stateMutability": "view",
      "type": "function"
    },
    {
      "inputs": [
        {
          "internalType": "uint256",
          "name": "index",
          "type": "uint256"
        }
      ],
      "name": "getDeployedFundraiser",
      "outputs": [
        {
          "internalType": "address",
          "name": "",
          "type": "address"
        }
      ],
      "stateMutability": "view",
      "type": "function"
    },
    {
      "inputs": [],
      "name": "getDeployedFundraisersCount",
      "outputs": [
        {
          "internalType": "uint256",
          "name": "",
          "type": "uint256"
        }
      ],
      "stateMutability": "view",
      "type": "function"
    },
    {
      "inputs": [],
      "name": "getFeeWallet",
      "outputs": [
        {
          "internalType": "address",
          "name": "",
          "type": "address"
        }
      ],
      "stateMutability": "view",
      "type": "function"
    },
    {
      "inputs": [
        {
          "internalType": "address",
          "name": "_usdcAddress",
          "type": "address"
        },
        {
          "internalType": "address",
          "name": "_productTokenAddress",
          "type": "address"
        },
        {
          "internalType": "uint256",
          "name": "_defaultFeePercentage",
          "type": "uint256"
        },
        {
          "internalType": "address",
          "name": "_feeWallet",
          "type": "address"
        },
        {
          "internalType": "address",
          "name": "_fundraiserImplementation",
          "type": "address"
        },
        {
          "internalType": "address",
          "name": "_initialOwner",
          "type": "address"
        }
      ],
      "name": "initialize",
      "outputs": [],
      "stateMutability": "nonpayable",
      "type": "function"
    },
    {
      "inputs": [
        {
          "internalType": "address",
          "name": "",
          "type": "address"
        }
      ],
      "name": "isFundraiser",
      "outputs": [
        {
          "internalType": "bool",
          "name": "",
          "type": "bool"
        }
      ],
      "stateMutability": "view",
      "type": "function"
    },
    {
      "inputs": [],
      "name": "owner",
      "outputs": [
        {
          "internalType": "address",
          "name": "",
          "type": "address"
        }
      ],
      "stateMutability": "view",
      "type": "function"
    },
    {
      "inputs": [],
      "name": "productTokenAddress",
      "outputs": [
        {
          "internalType": "address",
          "name": "",
          "type": "address"
        }
      ],
      "stateMutability": "view",
      "type": "function"
    },
    {
      "inputs": [],
      "name": "proxiableUUID",
      "outputs": [
        {
          "internalType": "bytes32",
          "name": "",
          "type": "bytes32"
        }
      ],
      "stateMutability": "view",
      "type": "function"
    },
    {
      "inputs": [],
      "name": "renounceOwnership",
      "outputs": [],
      "stateMutability": "nonpayable",
      "type": "function"
    },
    {
      "inputs": [
        {
          "internalType": "address",
          "name": "newOwner",
          "type": "address"
        }
      ],
      "name": "transferOwnership",
      "outputs": [],
      "stateMutability": "nonpayable",
      "type": "function"
    },
    {
      "inputs": [
        {
          "internalType": "address",
          "name": "newImplementation",
          "type": "address"
        }
      ],
      "name": "updateFundraiserImplementation",
      "outputs": [],
      "stateMutability": "nonpayable",
      "type": "function"
    },
    {
      "inputs": [
        {
          "internalType": "address",
          "name": "newProductToken",
          "type": "address"
        }
      ],
      "name": "updateProductTokenAddress",
      "outputs": [],
      "stateMutability": "nonpayable",
      "type": "function"
    },
    {
      "inputs": [
        {
          "internalType": "address",
          "name": "newImplementation",
          "type": "address"
        },
        {
          "internalType": "bytes",
          "name": "data",
          "type": "bytes"
        }
      ],
      "name": "upgradeToAndCall",
      "outputs": [],
      "stateMutability": "payable",
      "type": "function"
    },
    {
      "inputs": [],
      "name": "usdcAddress",
      "outputs": [
        {
          "internalType": "address",
          "name": "",
          "type": "address"
        }
      ],
      "stateMutability": "view",
      "type": "function"
    }
  ],
  "bytecode": "0x60a080604052346100ea57306080527ff0c57e16840df040f15088dc2f81fe391c3923bec73e23a9662efc9c229c6a005460ff8160401c166100d9576002600160401b03196001600160401b03821601610073575b60405161129f90816100f0823960805181818161074c015261081d0152f35b6001600160401b0319166001600160401b039081177ff0c57e16840df040f15088dc2f81fe391c3923bec73e23a9662efc9c229c6a005581527fc7f505b2f371ae2175ee4913f4499e1f2633a7b5936321eed1cdaeb6115181d290602090a13880610054565b63f92ee8a960e01b60005260046000fd5b600080fdfe608080604052600436101561001357600080fd5b600090813560e01c90816302d4545714610f345750806306f5e01814610b375780632022285914610b0c5780633119e4b414610ae3578063396f970114610aba57806339d2c66914610a3a5780633e4d0310146109ee5780634f1ef286146107a157806352d1902d146107395780635459060d1461040257806363025e97146106ca578063715018a6146106605780637a84379c146105f15780637f7977d1146105b25780638da5cb5b1461057c578063ad3cb1cc14610502578063b4824034146104e4578063be531076146104c6578063e1f1c4a7146104a9578063eb8546901461042b578063f25f4b5614610402578063f2fde38b146103da5763ff9935cb1461011e57600080fd5b346103d75760c03660031901126103d757610137610f5c565b6024356001600160a01b038116908190036103d5576064356001600160a01b038116908190036103d1576084356001600160a01b03811692908390036103cd5760a435936001600160a01b038516908186036103c95760008051602061124a833981519152549560ff8760401c16159667ffffffffffffffff8116801590816103c1575b60011490816103b7575b1590816103ae575b5061039f5767ffffffffffffffff19811660011760008051602061124a83398151915255610212919088610372575b5061020561117a565b61020d61117a565b6110ce565b61021a61117a565b6001600160a01b03169081156103365761023583151561103d565b610240841515610ffc565b61024b851515611089565b15610301576001600160601b0360a01b8654161785556001600160601b0360a01b60015416176001556044356002556001600160601b0360a01b60035416176003556001600160601b0360a01b60045416176004556102a75780f35b68ff00000000000000001960008051602061124a833981519152541660008051602061124a833981519152557fc7f505b2f371ae2175ee4913f4499e1f2633a7b5936321eed1cdaeb6115181d2602060405160018152a180f35b60405162461bcd60e51b815260206004820152600d60248201526c24b73b30b634b21037bbb732b960991b6044820152606490fd5b60405162461bcd60e51b8152602060048201526014602482015273496e76616c69642055534443206164647265737360601b6044820152606490fd5b68ffffffffffffffffff1916680100000000000000011760008051602061124a83398151915255386101fc565b63f92ee8a960e01b8952600489fd5b905015386101cd565b303b1591506101c5565b8991506101bb565b8680fd5b8480fd5b8380fd5b825b80fd5b50346103d75760203660031901126103d7576103ff6103f7610f5c565b61020d611144565b80f35b50346103d757806003193601126103d7576003546040516001600160a01b039091168152602090f35b50346103d75760203660031901126103d75760043560055481101561046e57610455602091610faf565b905460405160039290921b1c6001600160a01b03168152f35b60405162461bcd60e51b8152602060048201526013602482015272496e646578206f7574206f6620626f756e647360681b6044820152606490fd5b50346103d757806003193601126103d75760206040516127108152f35b50346103d757806003193601126103d7576020600554604051908152f35b50346103d757806003193601126103d7576020600254604051908152f35b50346103d757806003193601126103d75760408051916105228284610f77565b60058352640352e302e360dc1b6020840152815192839160208352815191826020850152815b838110610565575050828201840152601f01601f19168101030190f35b602082820181015188830188015287955001610548565b50346103d757806003193601126103d75760008051602061120a833981519152546040516001600160a01b039091168152602090f35b50346103d75760203660031901126103d75760209060ff906040906001600160a01b036105dd610f5c565b168152600684522054166040519015158152f35b50346103d75760203660031901126103d75761060b610f5c565b610613611144565b6001600160a01b0316610627811515611089565b600480546001600160a01b031916821790557f310ba5f1d2ed074b51e2eccd052a47ae9ab7c6b800d1fca3db3999d6a592ca038280a280f35b50346103d757806003193601126103d757610679611144565b60008051602061120a83398151915280546001600160a01b0319811690915581906001600160a01b03167f8be0079c531659141344cd1fd0a4f28419497f9722a3daafe3b4186f6b6457e08280a380f35b50346103d75760203660031901126103d7576106e4610f5c565b6106ec611144565b6001600160a01b031661070081151561103d565b600180546001600160a01b031916821790557f46cec2ff6f514e8ed0cc9f2a26c0135dd76e3943279345141bcba88a5af63f518280a280f35b50346103d757806003193601126103d7577f00000000000000000000000000000000000000000000000000000000000000006001600160a01b0316300361079257602060405160008051602061122a8339815191528152f35b63703e46dd60e11b8152600490fd5b5060403660031901126103d7576107b6610f5c565b6024359067ffffffffffffffff82116103d557366023830112156103d557816004013590836107e483610fe0565b936107f26040519586610f77565b838552602085019336602482840101116103d557806024602093018637850101526001600160a01b037f0000000000000000000000000000000000000000000000000000000000000000163081149081156109cb575b506109bc57610855611144565b6040516352d1902d60e01b81526001600160a01b0382169390602081600481885afa869181610988575b5061089857634c9c8ce360e01b86526004859052602486fd5b938460008051602061122a8339815191528796036109765750823b156109645760008051602061122a83398151915280546001600160a01b031916821790558491907fbc7cd75a20ee27fd9adebab32041f755214dbc6bffa90cc0225b39da2e5c2d3b8380a28051156109495761093d9382915190845af43d15610941573d9161092183610fe0565b9261092f6040519485610f77565b83523d85602085013e6111a8565b5080f35b6060916111a8565b50505050346109555780f35b63b398979f60e01b8152600490fd5b634c9c8ce360e01b8552600452602484fd5b632a87526960e21b8652600452602485fd5b9091506020813d6020116109b4575b816109a460209383610f77565b810103126103c95751903861087f565b3d9150610997565b63703e46dd60e11b8452600484fd5b60008051602061122a833981519152546001600160a01b03161415905038610848565b50346103d75760203660031901126103d757610a08610f5c565b610a10611144565b6001600160a01b0316610a24811515610ffc565b6001600160601b0360a01b600354161760035580f35b50346103d75760203660031901126103d757600435610a57611144565b612710811015610a675760025580f35b60405162461bcd60e51b815260206004820152602560248201527f4665652070657263656e74616765206d757374206265206c657373207468616e604482015264203130302560d81b6064820152608490fd5b50346103d757806003193601126103d7576001546040516001600160a01b039091168152602090f35b50346103d757806003193601126103d7576004546040516001600160a01b039091168152602090f35b50346103d75760203660031901126103d757600435906005548210156103d757602061045583610faf565b50346103d75760a03660031901126103d757610b51610f5c565b906064356084359267ffffffffffffffff84116103d557366023850112156103d55783600401359067ffffffffffffffff8211610f205760405194610b9c60208460051b0187610f77565b828652602086019060246060839502820101903682116103c957602401915b818310610ebd575050506001600160a01b0316918215610e825742811115610e4a57845115610e1757600454608881901c62ffffff16763d602d80600a3d3981f3363d3d373d3d3d363d7300000017855260781b6effffffffffffffffffffffffffffff19166e5af43d82803e903d91602b57fd5bf3176020526001600160a01b036037600986f016948515610e0857845460035460025460015460008051602061120a833981519152546001600160a01b0390811696948116959491811693919291168a3b15610e0457979593918997959391604051998a986370d2182960e01b8a526101648a019660048b015260248a015260448901526064880152602435608488015260443560a488015260c487015260e48601526101606101048601525180915261018484019290855b818110610dce57505033610124850152506101448301528190038183875af18015610dc3578290610db3575b50506005549168010000000000000000831015610d9f57610d3e83600160209501600555610faf565b81546001600160a01b0360039290921b91821b19169083901b179055808252600683526040808320805460ff191660011790555191339082907fa2398daac0c8053a1e3c0280916c2ec6bc884f0959c27e639a4db829b7eabfb19080a38152f35b634e487b7160e01b82526041600452602482fd5b610dbc91610f77565b3881610d15565b6040513d84823e3d90fd5b92945092819550606060209160406001945180518352848101518584015201516040820152019501910190869492869492610ce9565b8980fd5b63b06ebf3d60e01b8552600485fd5b60405162461bcd60e51b815260206004820152600b60248201526a4e6f2070726f647563747360a81b6044820152606490fd5b60405162461bcd60e51b815260206004820152601060248201526f496e76616c696420646561646c696e6560801b6044820152606490fd5b60405162461bcd60e51b8152602060048201526013602482015272496e76616c69642062656e656669636961727960681b6044820152606490fd5b6060833603126103c9576040516060810181811067ffffffffffffffff821117610f0c579160209160609360405285358152828601358382015260408601356040820152815201920191610bbb565b634e487b7160e01b89526041600452602489fd5b634e487b7160e01b84526041600452602484fd5b905034610f585781600319360112610f585790546001600160a01b03168152602090f35b5080fd5b600435906001600160a01b0382168203610f7257565b600080fd5b90601f8019910116810190811067ffffffffffffffff821117610f9957604052565b634e487b7160e01b600052604160045260246000fd5b600554811015610fca57600560005260206000200190600090565b634e487b7160e01b600052603260045260246000fd5b67ffffffffffffffff8111610f9957601f01601f191660200190565b1561100357565b60405162461bcd60e51b8152602060048201526012602482015271125b9d985b1a5908199959481dd85b1b195d60721b6044820152606490fd5b1561104457565b60405162461bcd60e51b815260206004820152601d60248201527f496e76616c69642070726f6475637420746f6b656e20616464726573730000006044820152606490fd5b1561109057565b60405162461bcd60e51b815260206004820152601660248201527524b73b30b634b21034b6b83632b6b2b73a30ba34b7b760511b6044820152606490fd5b6001600160a01b0316801561112e5760008051602061120a83398151915280546001600160a01b0319811683179091556001600160a01b03167f8be0079c531659141344cd1fd0a4f28419497f9722a3daafe3b4186f6b6457e0600080a3565b631e4fbdf760e01b600052600060045260246000fd5b60008051602061120a833981519152546001600160a01b0316330361116557565b63118cdaa760e01b6000523360045260246000fd5b60ff60008051602061124a8339815191525460401c161561119757565b631afcd79f60e31b60005260046000fd5b906111ce57508051156111bd57805190602001fd5b63d6bda27560e01b60005260046000fd5b81511580611200575b6111df575090565b639996b31560e01b60009081526001600160a01b0391909116600452602490fd5b50803b156111d756fe9016d09d72d40fdae2fd8ceac6b6234c7706214fd39c1cd1e609a0528c199300360894a13ba1a3210667c828492db98dca3e2076cc3735a920a3ca505d382bbcf0c57e16840df040f15088dc2f81fe391c3923bec73e23a9662efc9c229c6a00a2646970667358221220a3737371c72a3d490f43cb30c0e578bf929d3d0f80cb61fe48563410b0bb11df64736f6c634300081b0033",
  "linkReferences": {},
  "deployedLinkReferences": {}
}