{
  "_format": "hh-sol-artifact-1",
  "contractName": "ProductTokenUpgradeable",
  "sourceName": "contracts/ProductTokenUpgradeable.sol",
  "abi": [
    {
      "inputs": [],
      "stateMutability": "nonpayable",
      "type": "constructor"
    },
    {
      "inputs": [],
      "name": "AccessControlBadConfirmation",
      "type": "error"
    },
    {
      "inputs": [
        {
          "internalType": "address",
          "name": "account",
          "type": "address"
        },
        {
          "internalType": "bytes32",
          "name": "neededRole",
          "type": "bytes32"
        }
      ],
      "name": "AccessControlUnauthorizedAccount",
      "type": "error"
    },
    {
      "inputs": [
        {
          "internalType": "address",
          "name": "target",
          "type": "address"
        }
      ],
      "name": "AddressEmptyCode",
      "type": "error"
    },
    {
      "inputs": [
        {
          "internalType": "address",
          "name": "sender",
          "type": "address"
        },
        {
          "internalType": "uint256",
          "name": "balance",
          "type": "uint256"
        },
        {
          "internalType": "uint256",
          "name": "needed",
          "type": "uint256"
        },
        {
          "internalType": "uint256",
          "name": "tokenId",
          "type": "uint256"
        }
      ],
      "name": "ERC1155InsufficientBalance",
      "type": "error"
    },
    {
      "inputs": [
        {
          "internalType": "address",
          "name": "approver",
          "type": "address"
        }
      ],
      "name": "ERC1155InvalidApprover",
      "type": "error"
    },
    {
      "inputs": [
        {
          "internalType": "uint256",
          "name": "idsLength",
          "type": "uint256"
        },
        {
          "internalType": "uint256",
          "name": "valuesLength",
          "type": "uint256"
        }
      ],
      "name": "ERC1155InvalidArrayLength",
      "type": "error"
    },
    {
      "inputs": [
        {
          "internalType": "address",
          "name": "operator",
          "type": "address"
        }
      ],
      "name": "ERC1155InvalidOperator",
      "type": "error"
    },
    {
      "inputs": [
        {
          "internalType": "address",
          "name": "receiver",
          "type": "address"
        }
      ],
      "name": "ERC1155InvalidReceiver",
      "type": "error"
    },
    {
      "inputs": [
        {
          "internalType": "address",
          "name": "sender",
          "type": "address"
        }
      ],
      "name": "ERC1155InvalidSender",
      "type": "error"
    },
    {
      "inputs": [
        {
          "internalType": "address",
          "name": "operator",
          "type": "address"
        },
        {
          "internalType": "address",
          "name": "owner",
          "type": "address"
        }
      ],
      "name": "ERC1155MissingApprovalForAll",
      "type": "error"
    },
    {
      "inputs": [
        {
          "internalType": "address",
          "name": "implementation",
          "type": "address"
        }
      ],
      "name": "ERC1967InvalidImplementation",
      "type": "error"
    },
    {
      "inputs": [],
      "name": "ERC1967NonPayable",
      "type": "error"
    },
    {
      "inputs": [],
      "name": "FailedCall",
      "type": "error"
    },
    {
      "inputs": [],
      "name": "InvalidInitialization",
      "type": "error"
    },
    {
      "inputs": [],
      "name": "NotInitializing",
      "type": "error"
    },
    {
      "inputs": [],
      "name": "UUPSUnauthorizedCallContext",
      "type": "error"
    },
    {
      "inputs": [
        {
          "internalType": "bytes32",
          "name": "slot",
          "type": "bytes32"
        }
      ],
      "name": "UUPSUnsupportedProxiableUUID",
      "type": "error"
    },
    {
      "anonymous": false,
      "inputs": [
        {
          "indexed": true,
          "internalType": "address",
          "name": "account",
          "type": "address"
        },
        {
          "indexed": true,
          "internalType": "address",
          "name": "operator",
          "type": "address"
        },
        {
          "indexed": false,
          "internalType": "bool",
          "name": "approved",
          "type": "bool"
        }
      ],
      "name": "ApprovalForAll",
      "type": "event"
    },
    {
      "anonymous": false,
      "inputs": [
        {
          "indexed": false,
          "internalType": "string",
          "name": "newUri",
          "type": "string"
        }
      ],
      "name": "BaseURIUpdated",
      "type": "event"
    },
    {
      "anonymous": false,
      "inputs": [
        {
          "indexed": false,
          "internalType": "uint64",
          "name": "version",
          "type": "uint64"
        }
      ],
      "name": "Initialized",
      "type": "event"
    },
    {
      "anonymous": false,
      "inputs": [
        {
          "indexed": true,
          "internalType": "address",
          "name": "from",
          "type": "address"
        },
        {
          "indexed": true,
          "internalType": "uint256",
          "name": "productId",
          "type": "uint256"
        },
        {
          "indexed": false,
          "internalType": "uint256",
          "name": "amount",
          "type": "uint256"
        }
      ],
      "name": "ProductBurned",
      "type": "event"
    },
    {
      "anonymous": false,
      "inputs": [
        {
          "indexed": true,
          "internalType": "address",
          "name": "to",
          "type": "address"
        },
        {
          "indexed": true,
          "internalType": "uint256",
          "name": "productId",
          "type": "uint256"
        },
        {
          "indexed": false,
          "internalType": "uint256",
          "name": "amount",
          "type": "uint256"
        }
      ],
      "name": "ProductMinted",
      "type": "event"
    },
    {
      "anonymous": false,
      "inputs": [
        {
          "indexed": true,
          "internalType": "bytes32",
          "name": "role",
          "type": "bytes32"
        },
        {
          "indexed": true,
          "internalType": "bytes32",
          "name": "previousAdminRole",
          "type": "bytes32"
        },
        {
          "indexed": true,
          "internalType": "bytes32",
          "name": "newAdminRole",
          "type": "bytes32"
        }
      ],
      "name": "RoleAdminChanged",
      "type": "event"
    },
    {
      "anonymous": false,
      "inputs": [
        {
          "indexed": true,
          "internalType": "bytes32",
          "name": "role",
          "type": "bytes32"
        },
        {
          "indexed": true,
          "internalType": "address",
          "name": "account",
          "type": "address"
        },
        {
          "indexed": true,
          "internalType": "address",
          "name": "sender",
          "type": "address"
        }
      ],
      "name": "RoleGranted",
      "type": "event"
    },
    {
      "anonymous": false,
      "inputs": [
        {
          "indexed": true,
          "internalType": "bytes32",
          "name": "role",
          "type": "bytes32"
        },
        {
          "indexed": true,
          "internalType": "address",
          "name": "account",
          "type": "address"
        },
        {
          "indexed": true,
          "internalType": "address",
          "name": "sender",
          "type": "address"
        }
      ],
      "name": "RoleRevoked",
      "type": "event"
    },
    {
      "anonymous": false,
      "inputs": [
        {
          "indexed": true,
          "internalType": "address",
          "name": "operator",
          "type": "address"
        },
        {
          "indexed": true,
          "internalType": "address",
          "name": "from",
          "type": "address"
        },
        {
          "indexed": true,
          "internalType": "address",
          "name": "to",
          "type": "address"
        },
        {
          "indexed": false,
          "internalType": "uint256[]",
          "name": "ids",
          "type": "uint256[]"
        },
        {
          "indexed": false,
          "internalType": "uint256[]",
          "name": "values",
          "type": "uint256[]"
        }
      ],
      "name": "TransferBatch",
      "type": "event"
    },
    {
      "anonymous": false,
      "inputs": [
        {
          "indexed": true,
          "internalType": "address",
          "name": "operator",
          "type": "address"
        },
        {
          "indexed": true,
          "internalType": "address",
          "name": "from",
          "type": "address"
        },
        {
          "indexed": true,
          "internalType": "address",
          "name": "to",
          "type": "address"
        },
        {
          "indexed": false,
          "internalType": "uint256",
          "name": "id",
          "type": "uint256"
        },
        {
          "indexed": false,
          "internalType": "uint256",
          "name": "value",
          "type": "uint256"
        }
      ],
      "name": "TransferSingle",
      "type": "event"
    },
    {
      "anonymous": false,
      "inputs": [
        {
          "indexed": false,
          "internalType": "string",
          "name": "value",
          "type": "string"
        },
        {
          "indexed": true,
          "internalType": "uint256",
          "name": "id",
          "type": "uint256"
        }
      ],
      "name": "URI",
      "type": "event"
    },
    {
      "anonymous": false,
      "inputs": [
        {
          "indexed": true,
          "internalType": "address",
          "name": "implementation",
          "type": "address"
        }
      ],
      "name": "Upgraded",
      "type": "event"
    },
    {
      "inputs": [],
      "name": "DEFAULT_ADMIN_ROLE",
      "outputs": [
        {
          "internalType": "bytes32",
          "name": "",
          "type": "bytes32"
        }
      ],
      "stateMutability": "view",
      "type": "function"
    },
    {
      "inputs": [],
      "name": "MINTER_ROLE",
      "outputs": [
        {
          "internalType": "bytes32",
          "name": "",
          "type": "bytes32"
        }
      ],
      "stateMutability": "view",
      "type": "function"
    },
    {
      "inputs": [],
      "name": "UPGRADER_ROLE",
      "outputs": [
        {
          "internalType": "bytes32",
          "name": "",
          "type": "bytes32"
        }
      ],
      "stateMutability": "view",
      "type": "function"
    },
    {
      "inputs": [],
      "name": "UPGRADE_INTERFACE_VERSION",
      "outputs": [
        {
          "internalType": "string",
          "name": "",
          "type": "string"
        }
      ],
      "stateMutability": "view",
      "type": "function"
    },
    {
      "inputs": [
        {
          "internalType": "address",
          "name": "account",
          "type": "address"
        },
        {
          "internalType": "uint256",
          "name": "id",
          "type": "uint256"
        }
      ],
      "name": "balanceOf",
      "outputs": [
        {
          "internalType": "uint256",
          "name": "",
          "type": "uint256"
        }
      ],
      "stateMutability": "view",
      "type": "function"
    },
    {
      "inputs": [
        {
          "internalType": "address[]",
          "name": "accounts",
          "type": "address[]"
        },
        {
          "internalType": "uint256[]",
          "name": "ids",
          "type": "uint256[]"
        }
      ],
      "name": "balanceOfBatch",
      "outputs": [
        {
          "internalType": "uint256[]",
          "name": "",
          "type": "uint256[]"
        }
      ],
      "stateMutability": "view",
      "type": "function"
    },
    {
      "inputs": [
        {
          "internalType": "address",
          "name": "from",
          "type": "address"
        },
        {
          "internalType": "uint256",
          "name": "productId",
          "type": "uint256"
        },
        {
          "internalType": "uint256",
          "name": "amount",
          "type": "uint256"
        }
      ],
      "name": "burn",
      "outputs": [],
      "stateMutability": "nonpayable",
      "type": "function"
    },
    {
      "inputs": [],
      "name": "getProductIds",
      "outputs": [
        {
          "internalType": "uint256[]",
          "name": "",
          "type": "uint256[]"
        }
      ],
      "stateMutability": "view",
      "type": "function"
    },
    {
      "inputs": [
        {
          "internalType": "bytes32",
          "name": "role",
          "type": "bytes32"
        }
      ],
      "name": "getRoleAdmin",
      "outputs": [
        {
          "internalType": "bytes32",
          "name": "",
          "type": "bytes32"
        }
      ],
      "stateMutability": "view",
      "type": "function"
    },
    {
      "inputs": [
        {
          "internalType": "bytes32",
          "name": "role",
          "type": "bytes32"
        },
        {
          "internalType": "address",
          "name": "account",
          "type": "address"
        }
      ],
      "name": "grantRole",
      "outputs": [],
      "stateMutability": "nonpayable",
      "type": "function"
    },
    {
      "inputs": [
        {
          "internalType": "bytes32",
          "name": "role",
          "type": "bytes32"
        },
        {
          "internalType": "address",
          "name": "account",
          "type": "address"
        }
      ],
      "name": "hasRole",
      "outputs": [
        {
          "internalType": "bool",
          "name": "",
          "type": "bool"
        }
      ],
      "stateMutability": "view",
      "type": "function"
    },
    {
      "inputs": [
        {
          "internalType": "string",
          "name": "baseUri",
          "type": "string"
        }
      ],
      "name": "initialize",
      "outputs": [],
      "stateMutability": "nonpayable",
      "type": "function"
    },
    {
      "inputs": [
        {
          "internalType": "address",
          "name": "account",
          "type": "address"
        },
        {
          "internalType": "address",
          "name": "operator",
          "type": "address"
        }
      ],
      "name": "isApprovedForAll",
      "outputs": [
        {
          "internalType": "bool",
          "name": "",
          "type": "bool"
        }
      ],
      "stateMutability": "view",
      "type": "function"
    },
    {
      "inputs": [
        {
          "internalType": "address",
          "name": "to",
          "type": "address"
        },
        {
          "internalType": "uint256",
          "name": "productId",
          "type": "uint256"
        },
        {
          "internalType": "uint256",
          "name": "amount",
          "type": "uint256"
        }
      ],
      "name": "mint",
      "outputs": [],
      "stateMutability": "nonpayable",
      "type": "function"
    },
    {
      "inputs": [
        {
          "internalType": "uint256",
          "name": "productId",
          "type": "uint256"
        }
      ],
      "name": "productSupply",
      "outputs": [
        {
          "internalType": "uint256",
          "name": "",
          "type": "uint256"
        }
      ],
      "stateMutability": "view",
      "type": "function"
    },
    {
      "inputs": [],
      "name": "proxiableUUID",
      "outputs": [
        {
          "internalType": "bytes32",
          "name": "",
          "type": "bytes32"
        }
      ],
      "stateMutability": "view",
      "type": "function"
    },
    {
      "inputs": [
        {
          "internalType": "bytes32",
          "name": "role",
          "type": "bytes32"
        },
        {
          "internalType": "address",
          "name": "callerConfirmation",
          "type": "address"
        }
      ],
      "name": "renounceRole",
      "outputs": [],
      "stateMutability": "nonpayable",
      "type": "function"
    },
    {
      "inputs": [
        {
          "internalType": "bytes32",
          "name": "role",
          "type": "bytes32"
        },
        {
          "internalType": "address",
          "name": "account",
          "type": "address"
        }
      ],
      "name": "revokeRole",
      "outputs": [],
      "stateMutability": "nonpayable",
      "type": "function"
    },
    {
      "inputs": [
        {
          "internalType": "address",
          "name": "from",
          "type": "address"
        },
        {
          "internalType": "address",
          "name": "to",
          "type": "address"
        },
        {
          "internalType": "uint256[]",
          "name": "ids",
          "type": "uint256[]"
        },
        {
          "internalType": "uint256[]",
          "name": "values",
          "type": "uint256[]"
        },
        {
          "internalType": "bytes",
          "name": "data",
          "type": "bytes"
        }
      ],
      "name": "safeBatchTransferFrom",
      "outputs": [],
      "stateMutability": "nonpayable",
      "type": "function"
    },
    {
      "inputs": [
        {
          "internalType": "address",
          "name": "from",
          "type": "address"
        },
        {
          "internalType": "address",
          "name": "to",
          "type": "address"
        },
        {
          "internalType": "uint256",
          "name": "id",
          "type": "uint256"
        },
        {
          "internalType": "uint256",
          "name": "value",
          "type": "uint256"
        },
        {
          "internalType": "bytes",
          "name": "data",
          "type": "bytes"
        }
      ],
      "name": "safeTransferFrom",
      "outputs": [],
      "stateMutability": "nonpayable",
      "type": "function"
    },
    {
      "inputs": [
        {
          "internalType": "address",
          "name": "operator",
          "type": "address"
        },
        {
          "internalType": "bool",
          "name": "approved",
          "type": "bool"
        }
      ],
      "name": "setApprovalForAll",
      "outputs": [],
      "stateMutability": "nonpayable",
      "type": "function"
    },
    {
      "inputs": [
        {
          "internalType": "string",
          "name": "newUri",
          "type": "string"
        }
      ],
      "name": "setBaseURI",
      "outputs": [],
      "stateMutability": "nonpayable",
      "type": "function"
    },
    {
      "inputs": [
        {
          "internalType": "bytes4",
          "name": "interfaceId",
          "type": "bytes4"
        }
      ],
      "name": "supportsInterface",
      "outputs": [
        {
          "internalType": "bool",
          "name": "",
          "type": "bool"
        }
      ],
      "stateMutability": "view",
      "type": "function"
    },
    {
      "inputs": [
        {
          "internalType": "address",
          "name": "newImplementation",
          "type": "address"
        },
        {
          "internalType": "bytes",
          "name": "data",
          "type": "bytes"
        }
      ],
      "name": "upgradeToAndCall",
      "outputs": [],
      "stateMutability": "payable",
      "type": "function"
    },
    {
      "inputs": [
        {
          "internalType": "uint256",
          "name": "tokenId",
          "type": "uint256"
        }
      ],
      "name": "uri",
      "outputs": [
        {
          "internalType": "string",
          "name": "",
          "type": "string"
        }
      ],
      "stateMutability": "view",
      "type": "function"
    }
  ],
  "bytecode": "0x60a080604052346100ea57306080527ff0c57e16840df040f15088dc2f81fe391c3923bec73e23a9662efc9c229c6a005460ff8160401c166100d9576002600160401b03196001600160401b03821601610073575b6040516129e290816100f08239608051818181610a8d0152610bbf0152f35b6001600160401b0319166001600160401b039081177ff0c57e16840df040f15088dc2f81fe391c3923bec73e23a9662efc9c229c6a005581527fc7f505b2f371ae2175ee4913f4499e1f2633a7b5936321eed1cdaeb6115181d290602090a13880610054565b63f92ee8a960e01b60005260046000fd5b600080fdfe6080604052600436101561001257600080fd5b60003560e01c8062fdd58e146101a657806301ffc9a7146101a15780630e89341c1461019c578063156e29f614610197578063248a9ca3146101925780632eb2c2d61461018d5780632f2ff15d1461018857806336568abe1461018357806347428e7b1461017e5780634e1273f4146101795780634f1ef2861461017457806352d1902d1461016f57806355f804b31461016a57806391d1485414610165578063a217fddf14610160578063a22cb4651461015b578063ad3cb1cc14610156578063d539139314610151578063d547741f1461014c578063e985e9c514610147578063ef8593e714610142578063f242432a1461013d578063f5298aca14610138578063f62d1888146101335763f72c0d8b1461012e57600080fd5b611378565b61120f565b611141565b611045565b610ff4565b610fc3565b610f92565b610f57565b610f10565b610e50565b610e34565b610dd4565b610c40565b610bac565b610a4f565b61099c565b610919565b61088e565b610858565b6107cc565b61068e565b610536565b610353565b61026e565b6101f0565b600435906001600160a01b03821682036101c157565b600080fd5b602435906001600160a01b03821682036101c157565b35906001600160a01b03821682036101c157565b346101c15760403660031901126101c157602061025361020e6101ab565b6024356000527f88be536d5240c274a3b1d3a1be54482fd9caa294f08c62a7cde569f49a3c4500835260406000209060018060a01b0316600052602052604060002090565b54604051908152f35b6001600160e01b03198116036101c157565b346101c15760203660031901126101c15760043561028b8161025c565b63ffffffff60e01b16637965db0b60e01b81149081156102b4575b506040519015158152602090f35b636cdb3d1360e11b8114915081156102e6575b81156102d5575b50386102a6565b6301ffc9a760e01b149050386102ce565b6303a24d0760e21b811491506102c7565b60005b83811061030a5750506000910152565b81810151838201526020016102fa565b90602091610333815180928185528580860191016102f7565b601f01601f1916010190565b90602061035092818152019061031a565b90565b346101c15760203660031901126101c15760006004358072184f03e93ff9f4daa797ed6e38ed64bf6a1f0160401b8110156104e9575b806d04ee2d6d415b85acef8100000000600a9210156104cd575b662386f26fc100008110156104b8575b6305f5e1008110156104a6575b612710811015610496575b6064811015610487575b101561047c575b61041960216103ed60018501611b7a565b938401015b60001901916f181899199a1a9b1b9c1cb0b131b232b360811b600a82061a8353600a900490565b90811561042957610419906103f2565b6040516104789061046c8161045e61044d88610447602085016114a0565b90611529565b64173539b7b760d91b815260050190565b03601f1981018352826106ca565b6040519182918261033f565b0390f35b6001909101906103dc565b600290606490049301926103d5565b60049061271090049301926103cb565b6008906305f5e10090049301926103c0565b601090662386f26fc1000090049301926103b3565b6020906d04ee2d6d415b85acef810000000090049301926103a3565b506040915072184f03e93ff9f4daa797ed6e38ed64bf6a1f0160401b8104610389565b60609060031901126101c1576004356001600160a01b03811681036101c157906024359060443590565b346101c1576105443661050c565b909161054e611bac565b610559831515611540565b610564821515611581565b82600052600260205260ff60406000205416156105f4575b6105ef7f1ace3364065011f2a2f041ccf777c9f5394104fb5c15ec40e2ed753531e33b21916105b5856000526000602052604060002090565b6105c08582546115ea565b90556105d56105cd610efb565b858784611d2d565b6040519384526001600160a01b0316929081906020820190565b0390a3005b600154600160401b811015610689576001810180600155811015610684577fb10e2d527612073b26eecdfd717e6a320cf44b4afac2b0732d9fcbe2b7fa0cf60183905560008381526002602052604090207f1ace3364065011f2a2f041ccf777c9f5394104fb5c15ec40e2ed753531e33b21916105ef9161067c90805460ff19166001179055565b91505061057c565b6115be565b6106b4565b346101c15760203660031901126101c15760206106ac6004356115fc565b604051908152f35b634e487b7160e01b600052604160045260246000fd5b90601f801991011681019081106001600160401b0382111761068957604052565b6001600160401b0381116106895760051b60200190565b9080601f830112156101c1578135610719816106eb565b9261072760405194856106ca565b81845260208085019260051b8201019283116101c157602001905b82821061074f5750505090565b8135815260209182019101610742565b6001600160401b03811161068957601f01601f191660200190565b9291926107868261075f565b9161079460405193846106ca565b8294818452818301116101c1578281602093846000960137010152565b9080601f830112156101c1578160206103509335910161077a565b346101c15760a03660031901126101c1576107e56101ab565b6107ed6101c6565b906044356001600160401b0381116101c15761080d903690600401610702565b6064356001600160401b0381116101c15761082c903690600401610702565b90608435936001600160401b0385116101c1576108506108569536906004016107b1565b9361161d565b005b346101c15760403660031901126101c1576108566004356108776101c6565b90610889610884826115fc565b611ce3565b6120b0565b346101c15760403660031901126101c1576004356108aa6101c6565b336001600160a01b038216036108c3576108569161214c565b63334bd91960e11b60005260046000fd5b906020808351928381520192019060005b8181106108f25750505090565b82518452602093840193909201916001016108e5565b9060206103509281815201906108d4565b346101c15760003660031901126101c15760405180602060015491828152019060016000527fb10e2d527612073b26eecdfd717e6a320cf44b4afac2b0732d9fcbe2b7fa0cf69060005b818110610986576104788561097a818703826106ca565b60405191829182610908565b8254845260209093019260019283019201610963565b346101c15760403660031901126101c1576004356001600160401b0381116101c157366023820112156101c1578060040135906109d8826106eb565b916109e660405193846106ca565b8083526024602084019160051b830101913683116101c157602401905b828210610a3757836024356001600160401b0381116101c15761047891610a3161097a923690600401610702565b90611684565b60208091610a44846101dc565b815201910190610a03565b60403660031901126101c157610a636101ab565b6024356001600160401b0381116101c157610a829036906004016107b1565b906001600160a01b037f000000000000000000000000000000000000000000000000000000000000000016308114908115610b89575b50610b7857610ac5611c1e565b6040516352d1902d60e01b8152916020836004816001600160a01b0386165afa60009381610b47575b50610b1157634c9c8ce360e01b6000526001600160a01b03821660045260246000fd5b9060008051602061292d8339815191528303610b3157610856925061252e565b632a87526960e21b600052600483905260246000fd5b610b6a91945060203d602011610b71575b610b6281836106ca565b8101906121f1565b9238610aee565b503d610b58565b63703e46dd60e11b60005260046000fd5b60008051602061292d833981519152546001600160a01b03161415905038610ab8565b346101c15760003660031901126101c1577f00000000000000000000000000000000000000000000000000000000000000006001600160a01b03163003610b7857602060405160008051602061292d8339815191528152f35b60206003198201126101c157600435906001600160401b0382116101c157806023830112156101c1578160246103509360040135910161077a565b346101c157610c4e36610c05565b610c56611c90565b805115610d9c5780516001600160401b03811161068957610c8181610c7c600354611466565b61171c565b6020601f8211600114610cf45791610cd582610ce4937f6741b2fc379fad678116fe3d4d4b9a1a184ab53ba36b86ad0fa66340b1ab41ad95600091610ce9575b508160011b916000199060031b1c19161790565b6003556040519182918261033f565b0390a1005b905083015138610cc1565b6003600052601f198216907fc2575a0e9e593c00f959f8c92f12db2869c3395a3b0502d05e2516446f71f85b9160005b818110610d845750927f6741b2fc379fad678116fe3d4d4b9a1a184ab53ba36b86ad0fa66340b1ab41ad949260019282610ce49610610d6b575b5050811b0160035561046c565b84015160001960f88460031b161c191690553880610d5e565b91926020600181928689015181550194019201610d24565b60405162461bcd60e51b815260206004820152601060248201526f496e76616c696420626173652055524960801b6044820152606490fd5b346101c15760403660031901126101c157602060ff610e28600435610df76101c6565b9060005260008051602061294d833981519152845260406000209060018060a01b0316600052602052604060002090565b54166040519015158152f35b346101c15760003660031901126101c157602060405160008152f35b346101c15760403660031901126101c157610e696101ab565b6024358015158091036101c1576001600160a01b038216918215610ee657610eab90610e94336113e2565b9060018060a01b0316600052602052604060002090565b60ff1981541660ff83161790556040519081527f17307eab39ab6107e8899845ad3d59bd9653f200f220920489ca2b5937696c3160203392a3005b62ced3e160e81b600052600060045260246000fd5b60405190610f0a6020836106ca565b60008252565b346101c15760003660031901126101c1576104786040805190610f3381836106ca565b60058252640352e302e360dc1b60208301525191829160208352602083019061031a565b346101c15760003660031901126101c15760206040517f9f2df0fed2c77648de5860a4cc508cd0818c85b8b8a1ab4ceeef8d981c8956a68152f35b346101c15760403660031901126101c157610856600435610fb16101c6565b90610fbe610884826115fc565b61214c565b346101c15760403660031901126101c157602060ff610e28610fe36101ab565b610e94610fee6101c6565b916113e2565b346101c15760203660031901126101c157600435611013811515611540565b80600052600260205261102d60ff6040600020541661191d565b60005260006020526020604060002054604051908152f35b346101c15760a03660031901126101c15761105e6101ab565b6110666101c6565b60443590606435926084356001600160401b0381116101c15761108d9036906004016107b1565b926001600160a01b0382163381141580611130575b611118576001600160a01b0384161561110257156110ed57610856946110e560405192600184526020840152604083019160018352606084015260808301604052565b92909161236e565b626a0d4560e21b600052600060045260246000fd5b632bfa23e760e11b600052600060045260246000fd5b63711bec9160e11b6000523360045260245260446000fd5b5061113b3384611909565b156110a2565b346101c1576105ef7fd215b5584879caeecb087ed93b0d4013d83ced647fd0a905f4f54a948cf0eb8d6111733661050c565b9291611180949194611bac565b61118b851515611540565b611196841515611581565b8460005260026020526111b060ff6040600020541661191d565b8460005260006020526111ca604060002054851115611969565b6111e3846111db83610e94896113b3565b5410156119b5565b6111f7856000526000602052604060002090565b6112028582546119f8565b90556105d5848683612200565b346101c15761121d36610c05565b60008051602061296d83398151915254906001600160401b0361124f60ff604085901c1615936001600160401b031690565b1680159081611370575b6001149081611366575b15908161135d575b5061134c576112b090826112a760016001600160401b031960008051602061296d83398151915254161760008051602061296d83398151915255565b61131557611a05565b6112b657005b6112e260ff60401b1960008051602061296d833981519152541660008051602061296d83398151915255565b604051600181527fc7f505b2f371ae2175ee4913f4499e1f2633a7b5936321eed1cdaeb6115181d2908060208101610ce4565b611347600160401b60ff60401b1960008051602061296d83398151915254161760008051602061296d83398151915255565b611a05565b63f92ee8a960e01b60005260046000fd5b9050153861126b565b303b159150611263565b839150611259565b346101c15760003660031901126101c15760206040517f189ab7a9244df0848122154315af71fe140f3db0fe014031783b0946b8c9d2e38152f35b6000527f88be536d5240c274a3b1d3a1be54482fd9caa294f08c62a7cde569f49a3c4500602052604060002090565b6001600160a01b031660009081527f88be536d5240c274a3b1d3a1be54482fd9caa294f08c62a7cde569f49a3c45016020526040902090565b611462916000527f88be536d5240c274a3b1d3a1be54482fd9caa294f08c62a7cde569f49a3c450060205260406000209060018060a01b0316600052602052604060002090565b5490565b90600182811c92168015611496575b602083101461148057565b634e487b7160e01b600052602260045260246000fd5b91607f1691611475565b600354600092916114b082611466565b916001811690811561151757506001146114c8575050565b6003600090815292935090917fc2575a0e9e593c00f959f8c92f12db2869c3395a3b0502d05e2516446f71f85b5b8382106115035750500190565b6001816020925484860152019101906114f6565b60ff1916825250811515909102019150565b9061153c602092828151948592016102f7565b0190565b1561154757565b60405162461bcd60e51b8152602060048201526012602482015271125b9d985b1a59081c1c9bd91d58dd08125160721b6044820152606490fd5b1561158857565b60405162461bcd60e51b815260206004820152600e60248201526d125b9d985b1a5908185b5bdd5b9d60921b6044820152606490fd5b634e487b7160e01b600052603260045260246000fd5b634e487b7160e01b600052601160045260246000fd5b919082018092116115f757565b6115d4565b60005260008051602061294d83398151915260205260016040600020015490565b939291906001600160a01b0385163381141580611658575b611118576001600160a01b0382161561110257156110ed576116569461236e565b565b5060ff61166833610e94896113e2565b541615611635565b80518210156106845760209160051b010190565b919091805183518082036117055750508051906116a0826106eb565b916116ae60405193846106ca565b8083526116bd601f19916106eb565b0136602084013760005b81518110156116fe57806116ed60019260051b602080828701015191890101519061141b565b6116f78286611670565b52016116c7565b5090925050565b635b05999160e01b60005260045260245260446000fd5b601f8111611728575050565b60036000526020600020906020601f840160051c83019310611765575b601f0160051c01905b818110611759575050565b6000815560010161174e565b9091508190611745565b601f811161177b575050565b60008051602061298d8339815191526000526020600020906020601f840160051c830193106117c5575b601f0160051c01905b8181106117b9575050565b600081556001016117ae565b90915081906117a5565b601f82116117dc57505050565b6000526020600020906020601f840160051c83019310611817575b601f0160051c01905b81811061180b575050565b60008155600101611800565b90915081906117f7565b9081516001600160401b0381116106895761184881611841600354611466565b60036117cf565b602092601f821160011461188a5761187a9293829160009261187f575b50508160011b916000199060031b1c19161790565b600355565b015190503880611865565b6003600052601f198216937fc2575a0e9e593c00f959f8c92f12db2869c3395a3b0502d05e2516446f71f85b9160005b8681106118f157508360019596106118d8575b505050811b01600355565b015160001960f88460031b161c191690553880806118cd565b919260206001819286850151815501940192016118ba565b60ff91610e94611918926113e2565b541690565b1561192457565b60405162461bcd60e51b815260206004820152601960248201527f50726f6475637420494420646f6573206e6f74206578697374000000000000006044820152606490fd5b1561197057565b60405162461bcd60e51b815260206004820152601a60248201527f4275726e20616d6f756e74206578636565647320737570706c790000000000006044820152606490fd5b156119bc57565b60405162461bcd60e51b8152602060048201526014602482015273496e73756666696369656e742062616c616e636560601b6044820152606490fd5b919082039182116115f757565b6040516020611a1481836106ca565b60008252611a206125d2565b611a286125d2565b8151916001600160401b03831161068957611a5a83611a5560008051602061298d83398151915254611466565b61176f565b81601f8411600114611ad457509180611a8e92611ab4959460009261187f5750508160011b916000199060031b1c19161790565b60008051602061298d833981519152555b611aa76125d2565b611aaf6125d2565b611821565b611abd33611e86565b50611ac733611f26565b50611ad133611feb565b50565b60008051602061298d8339815191526000529190601f1984167ff429cb5e2ec84cbb765e76b31964a56ccde03e7a6122d6cc4afb19edc55edeed936000905b828210611b62575050916001939185611ab497969410611b49575b505050811b0160008051602061298d83398151915255611a9f565b015160001960f88460031b161c19169055388080611b2e565b80600186978294978701518155019601940190611b13565b90611b848261075f565b611b9160405191826106ca565b8281528092611ba2601f199161075f565b0190602036910137565b3360009081527f549fe2656c81d2947b3b913f0a53b9ea86c71e049f3a1b8aa23c09a8a05cb8d4602052604090205460ff1615611be557565b63e2517d3f60e01b600052336004527f9f2df0fed2c77648de5860a4cc508cd0818c85b8b8a1ab4ceeef8d981c8956a660245260446000fd5b3360009081527fab71e3f32666744d246edff3f96e4bdafee2e9867098cdd118a979a7464786a8602052604090205460ff1615611c5757565b63e2517d3f60e01b600052336004527f189ab7a9244df0848122154315af71fe140f3db0fe014031783b0946b8c9d2e360245260446000fd5b3360009081527fb7db2dd08fcb62d0c9e08c51941cae53c267786a0b75803fb7960902fc8ef97d602052604090205460ff1615611cc957565b63e2517d3f60e01b60005233600452600060245260446000fd5b600081815260008051602061294d8339815191526020908152604080832033845290915290205460ff1615611d155750565b63e2517d3f60e01b6000523360045260245260446000fd5b6001600160a01b0381169392909190841561110257611d6960405192600184526020840152604083019160018352606084015260808301604052565b928151845190818103611e6f57505060005b8251811015611db8578060019160051b611db0611da887610e94602080868b010151958c010151946113b3565b9182546115ea565b905501611d7b565b509291936001825114600014611e335760208281015184820151604080519283529282015260009133917fc3d58168c5ae7397731d063d5bbf3d657854427343f4c083240f7aacaa2d0f629190a45b8051600103611e27579060208061165695930151910151916000336127f2565b611656936000336126bd565b60006040517f4a39dc06d4c0dbc64b70af90fd698a233a518aa5d07e595d983b8c0526c8f7fb339180611e67888883612600565b0390a4611e07565b635b05999160e01b60005260045260245260446000fd5b6001600160a01b03811660009081527fb7db2dd08fcb62d0c9e08c51941cae53c267786a0b75803fb7960902fc8ef97d602052604090205460ff16611f20576001600160a01b031660008181527fb7db2dd08fcb62d0c9e08c51941cae53c267786a0b75803fb7960902fc8ef97d60205260408120805460ff1916600117905533919060008051602061290d8339815191528180a4600190565b50600090565b6001600160a01b03811660009081527f549fe2656c81d2947b3b913f0a53b9ea86c71e049f3a1b8aa23c09a8a05cb8d4602052604090205460ff16611f20576001600160a01b03811660009081527f549fe2656c81d2947b3b913f0a53b9ea86c71e049f3a1b8aa23c09a8a05cb8d460205260409020805460ff1916600117905533906001600160a01b03167f9f2df0fed2c77648de5860a4cc508cd0818c85b8b8a1ab4ceeef8d981c8956a660008051602061290d833981519152600080a4600190565b6001600160a01b03811660009081527fab71e3f32666744d246edff3f96e4bdafee2e9867098cdd118a979a7464786a8602052604090205460ff16611f20576001600160a01b03811660009081527fab71e3f32666744d246edff3f96e4bdafee2e9867098cdd118a979a7464786a860205260409020805460ff1916600117905533906001600160a01b03167f189ab7a9244df0848122154315af71fe140f3db0fe014031783b0946b8c9d2e360008051602061290d833981519152600080a4600190565b600081815260008051602061294d833981519152602090815260408083206001600160a01b038616845290915290205460ff1661214557600081815260008051602061294d833981519152602090815260408083206001600160a01b03861684529091529020805460ff1916600117905533916001600160a01b03169060008051602061290d833981519152600080a4600190565b5050600090565b600081815260008051602061294d833981519152602090815260408083206001600160a01b038616845290915290205460ff161561214557600081815260008051602061294d833981519152602090815260408083206001600160a01b03861684529091529020805460ff1916905533916001600160a01b0316907ff6391f5c32d9c69d2a47ea670b442974b53935d1edc7fd64eb21e047a839171b600080a4600190565b908160209103126101c1575190565b926001600160a01b0384169290919083156110ed5761223c60405192600184526020840152604083019160018352606084015260808301604052565b9190602091600060405161225085826106ca565b528151845190818103611e6f57505060005b82518110156122e2578060051b84808286010151918701015161228889610e94846113b3565b548181106122ab5789610e9460019594936122a49303936113b3565b5501612262565b6040516303dee4c560e01b81526001600160a01b038b16600482015260248101919091526044810182905260648101839052608490fd5b5094509091600093926001835114851461233a579182015191015160408051928352602083019190915233917fc3d58168c5ae7397731d063d5bbf3d657854427343f4c083240f7aacaa2d0f6291819081015b0390a4565b506123357f4a39dc06d4c0dbc64b70af90fd698a233a518aa5d07e595d983b8c0526c8f7fb91604051918291339583612600565b9493929091938451825190818103611e6f5750506001600160a01b0386811695861515959185168015159391929060005b8451811015612460578060051b90898988602080868b010151958c010151926123ef575b936001946123d5575b5050500161239f565b6123e591610e94611da8926113b3565b90553889816123cc565b505090916124008d610e94836113b3565b54828110612429578291898f612420600197968f950391610e94856113b3565b559094506123c3565b6040516303dee4c560e01b81526001600160a01b038f16600482015260248101919091526044810183905260648101829052608490fd5b5091989593929790965060018851146000146124f45760208881015186820151604080519283529282015233917fc3d58168c5ae7397731d063d5bbf3d657854427343f4c083240f7aacaa2d0f6291a45b6124bd575b5050505050565b84516001036124e3576020806124d996015192015192336127f2565b38808080806124b6565b6124ef949192336126bd565b6124d9565b6040517f4a39dc06d4c0dbc64b70af90fd698a233a518aa5d07e595d983b8c0526c8f7fb339180612526898d83612600565b0390a46124b1565b90813b156125b05760008051602061292d83398151915280546001600160a01b0319166001600160a01b0384169081179091557fbc7cd75a20ee27fd9adebab32041f755214dbc6bffa90cc0225b39da2e5c2d3b600080a280511561259657611ad191612892565b50503461259f57565b63b398979f60e01b60005260046000fd5b50634c9c8ce360e01b60009081526001600160a01b0391909116600452602490fd5b60ff60008051602061296d8339815191525460401c16156125ef57565b631afcd79f60e31b60005260046000fd5b9091612617610350936040845260408401906108d4565b9160208184039101526108d4565b908160209103126101c157516103508161025c565b6001600160a01b0391821681529116602082015260a060408201819052610350949193919261267f929161267191908601906108d4565b9084820360608601526108d4565b91608081840391015261031a565b3d156126b8573d9061269e8261075f565b916126ac60405193846106ca565b82523d6000602084013e565b606090565b9091949293853b6126d1575b505050505050565b6020936126f391604051968795869563bc197c8160e01b87526004870161263a565b038160006001600160a01b0387165af160009181612788575b50612748575061271a61268d565b805191908261274157632bfa23e760e11b6000526001600160a01b03821660045260246000fd5b9050602001fd5b6001600160e01b0319166343e6837f60e01b0161276b57503880808080806126c9565b632bfa23e760e11b6000526001600160a01b031660045260246000fd5b6127ab91925060203d6020116127b2575b6127a381836106ca565b810190612625565b903861270c565b503d612799565b6001600160a01b039182168152911660208201526040810191909152606081019190915260a0608082018190526103509291019061031a565b9091949293853b61280557505050505050565b60209361282791604051968795869563f23a6e6160e01b8752600487016127b9565b038160006001600160a01b0387165af160009181612871575b5061284e575061271a61268d565b6001600160e01b031916630dc5919f60e01b0161276b57503880808080806126c9565b61288b91925060203d6020116127b2576127a381836106ca565b9038612840565b60008061035093602081519101845af46128aa61268d565b91906128d157508051156128c057805190602001fd5b63d6bda27560e01b60005260046000fd5b81511580612903575b6128e2575090565b639996b31560e01b60009081526001600160a01b0391909116600452602490fd5b50803b156128da56fe2f8788117e7eff1d82e926ec794901d17c78024a50270940304540a733656f0d360894a13ba1a3210667c828492db98dca3e2076cc3735a920a3ca505d382bbc02dd7bc7dec4dceedda775e58dd541e08a116c6c53815c0bd028192f7b626800f0c57e16840df040f15088dc2f81fe391c3923bec73e23a9662efc9c229c6a0088be536d5240c274a3b1d3a1be54482fd9caa294f08c62a7cde569f49a3c4502a26469706673582212208e75664aa1d99035665650b3bdc4f98de662bbc8c4777eaf7656f78e37a9da6964736f6c634300081b0033",
  "linkReferences": {},
  "deployedLinkReferences": {}
}