{
  "_format": "hh-sol-artifact-1",
  "contractName": "USDCFundraiserFactory",
  "sourceName": "contracts/USDCFundraiserFactory.sol",
  "abi": [
    {
      "inputs": [
        {
          "internalType": "address",
          "name": "_usdcAddress",
          "type": "address"
        },
        {
          "internalType": "address",
          "name": "_productTokenAddress",
          "type": "address"
        },
        {
          "internalType": "uint256",
          "name": "_defaultFeePercentage",
          "type": "uint256"
        },
        {
          "internalType": "address",
          "name": "_feeWallet",
          "type": "address"
        }
      ],
      "stateMutability": "nonpayable",
      "type": "constructor"
    },
    {
      "inputs": [
        {
          "internalType": "address",
          "name": "owner",
          "type": "address"
        }
      ],
      "name": "OwnableInvalidOwner",
      "type": "error"
    },
    {
      "inputs": [
        {
          "internalType": "address",
          "name": "account",
          "type": "address"
        }
      ],
      "name": "OwnableUnauthorizedAccount",
      "type": "error"
    },
    {
      "anonymous": false,
      "inputs": [
        {
          "indexed": true,
          "internalType": "address",
          "name": "fundraiser",
          "type": "address"
        },
        {
          "indexed": true,
          "internalType": "address",
          "name": "creator",
          "type": "address"
        }
      ],
      "name": "FundraiserCreated",
      "type": "event"
    },
    {
      "anonymous": false,
      "inputs": [
        {
          "indexed": true,
          "internalType": "address",
          "name": "previousOwner",
          "type": "address"
        },
        {
          "indexed": true,
          "internalType": "address",
          "name": "newOwner",
          "type": "address"
        }
      ],
      "name": "OwnershipTransferred",
      "type": "event"
    },
    {
      "inputs": [],
      "name": "BASIS_POINTS",
      "outputs": [
        {
          "internalType": "uint256",
          "name": "",
          "type": "uint256"
        }
      ],
      "stateMutability": "view",
      "type": "function"
    },
    {
      "inputs": [
        {
          "internalType": "uint256",
          "name": "newFeePercentage",
          "type": "uint256"
        }
      ],
      "name": "changeDefaultFeePercentage",
      "outputs": [],
      "stateMutability": "nonpayable",
      "type": "function"
    },
    {
      "inputs": [
        {
          "internalType": "address",
          "name": "newFeeWallet",
          "type": "address"
        }
      ],
      "name": "changeFeeWallet",
      "outputs": [],
      "stateMutability": "nonpayable",
      "type": "function"
    },
    {
      "inputs": [
        {
          "internalType": "address",
          "name": "beneficiaryWallet",
          "type": "address"
        },
        {
          "internalType": "uint256",
          "name": "fundingType",
          "type": "uint256"
        },
        {
          "internalType": "uint256",
          "name": "minimumTarget",
          "type": "uint256"
        },
        {
          "internalType": "uint256",
          "name": "deadline",
          "type": "uint256"
        },
        {
          "components": [
            {
              "internalType": "uint256",
              "name": "productId",
              "type": "uint256"
            },
            {
              "internalType": "uint256",
              "name": "price",
              "type": "uint256"
            },
            {
              "internalType": "uint256",
              "name": "supplyLimit",
              "type": "uint256"
            }
          ],
          "internalType": "struct ProductConfig[]",
          "name": "products",
          "type": "tuple[]"
        }
      ],
      "name": "createFundraiser",
      "outputs": [
        {
          "internalType": "address",
          "name": "",
          "type": "address"
        }
      ],
      "stateMutability": "nonpayable",
      "type": "function"
    },
    {
      "inputs": [],
      "name": "defaultFeePercentage",
      "outputs": [
        {
          "internalType": "uint256",
          "name": "",
          "type": "uint256"
        }
      ],
      "stateMutability": "view",
      "type": "function"
    },
    {
      "inputs": [],
      "name": "feeWallet",
      "outputs": [
        {
          "internalType": "address",
          "name": "",
          "type": "address"
        }
      ],
      "stateMutability": "view",
      "type": "function"
    },
    {
      "inputs": [],
      "name": "getFeeWallet",
      "outputs": [
        {
          "internalType": "address",
          "name": "",
          "type": "address"
        }
      ],
      "stateMutability": "view",
      "type": "function"
    },
    {
      "inputs": [],
      "name": "owner",
      "outputs": [
        {
          "internalType": "address",
          "name": "",
          "type": "address"
        }
      ],
      "stateMutability": "view",
      "type": "function"
    },
    {
      "inputs": [],
      "name": "productTokenAddress",
      "outputs": [
        {
          "internalType": "address",
          "name": "",
          "type": "address"
        }
      ],
      "stateMutability": "view",
      "type": "function"
    },
    {
      "inputs": [],
      "name": "renounceOwnership",
      "outputs": [],
      "stateMutability": "nonpayable",
      "type": "function"
    },
    {
      "inputs": [
        {
          "internalType": "address",
          "name": "newOwner",
          "type": "address"
        }
      ],
      "name": "transferOwnership",
      "outputs": [],
      "stateMutability": "nonpayable",
      "type": "function"
    },
    {
      "inputs": [],
      "name": "usdcAddress",
      "outputs": [
        {
          "internalType": "address",
          "name": "",
          "type": "address"
        }
      ],
      "stateMutability": "view",
      "type": "function"
    }
  ],
  "bytecode": "0x60803461011e57601f612b4a38819003918201601f19168301916001600160401b038311848410176101235780849260809460405283398101031261011e5761004781610139565b9061005460208201610139565b90610066606060408301519201610139565b9133156101085760008054336001600160a01b0319821681178355604051969290916001600160a01b0316907f8be0079c531659141344cd1fd0a4f28419497f9722a3daafe3b4186f6b6457e09080a3600180546001600160a01b03199081166001600160a01b03938416179091556002805482169383169390931790925560039290925560048054909116929091169190911790556129fc908161014e8239f35b631e4fbdf760e01b600052600060045260246000fd5b600080fd5b634e487b7160e01b600052604160045260246000fd5b51906001600160a01b038216820361011e5756fe608080604052600436101561001357600080fd5b600090813560e01c90816302d454571461069d5750806306f5e01814610341578063396f97011461031857806339d2c669146102985780633e4d0310146102125780635459060d1461012d578063715018a6146101b85780638da5cb5b14610191578063b482403414610173578063e1f1c4a714610156578063f25f4b561461012d5763f2fde38b146100a557600080fd5b3461012a57602036600319011261012a576100be6106c6565b6100c6610719565b6001600160a01b031680156101165781546001600160a01b03198116821783556001600160a01b03167f8be0079c531659141344cd1fd0a4f28419497f9722a3daafe3b4186f6b6457e08380a380f35b631e4fbdf760e01b82526004829052602482fd5b80fd5b503461012a578060031936011261012a576004546040516001600160a01b039091168152602090f35b503461012a578060031936011261012a5760206040516127108152f35b503461012a578060031936011261012a576020600354604051908152f35b503461012a578060031936011261012a57546040516001600160a01b039091168152602090f35b503461012a578060031936011261012a576101d1610719565b80546001600160a01b03198116825581906001600160a01b03167f8be0079c531659141344cd1fd0a4f28419497f9722a3daafe3b4186f6b6457e08280a380f35b503461012a57602036600319011261012a5761022c6106c6565b610234610719565b6001600160a01b0316801561025e576bffffffffffffffffffffffff60a01b600454161760045580f35b60405162461bcd60e51b8152602060048201526012602482015271125b9d985b1a5908199959481dd85b1b195d60721b6044820152606490fd5b503461012a57602036600319011261012a576004356102b5610719565b6127108110156102c55760035580f35b60405162461bcd60e51b815260206004820152602560248201527f4665652070657263656e74616765206d757374206265206c657373207468616e604482015264203130302560d81b6064820152608490fd5b503461012a578060031936011261012a576002546040516001600160a01b039091168152602090f35b503461012a5760a036600319011261012a5761035b6106c6565b6064359060843567ffffffffffffffff811161069957366023820112156106995780600401359167ffffffffffffffff831161068557604051916103a560208560051b01846106e1565b8383526020830190602460608396028201019036821161068157602401915b81831061061e575050506001600160a01b03169081156105e357428411156105ab578051156105785760015460045460035460025460405197612284808a01976001600160a01b0396871697969384169592949390921691908a891067ffffffffffffffff8a111761056457908a9998979695949392916107438b396101408801968852602088015260408701526060860152602435608086015260443560a086015260c085015260e08401526101406101008401525180915261016082019290865b8181106105325750505061012033910152039082f080156105255781546001600160a01b0390811692911690813b1561012a576040519263f2fde38b60e01b84526004840152808360248183865af192831561052557602093610515575b509060405191817fa2398daac0c8053a1e3c0280916c2ec6bc884f0959c27e639a4db829b7eabfb1339280a38152f35b8161051f916106e1565b386104e5565b50604051903d90823e3d90fd5b919450919260206060600192604088518051835284810151858401520151604082015201950191019185949392610487565b634e487b7160e01b8c52604160045260248cfd5b60405162461bcd60e51b815260206004820152600b60248201526a4e6f2070726f647563747360a81b6044820152606490fd5b60405162461bcd60e51b815260206004820152601060248201526f496e76616c696420646561646c696e6560801b6044820152606490fd5b60405162461bcd60e51b8152602060048201526013602482015272496e76616c69642062656e656669636961727960681b6044820152606490fd5b606083360312610681576040516060810181811067ffffffffffffffff82111761066d5791602091606093604052853581528286013583820152604086013560408201528152019201916103c4565b634e487b7160e01b8a52604160045260248afd5b8780fd5b634e487b7160e01b85526041600452602485fd5b8380fd5b9050346106c257816003193601126106c2576001546001600160a01b03168152602090f35b5080fd5b600435906001600160a01b03821682036106dc57565b600080fd5b90601f8019910116810190811067ffffffffffffffff82111761070357604052565b634e487b7160e01b600052604160045260246000fd5b6000546001600160a01b0316330361072d57565b63118cdaa760e01b6000523360045260246000fdfe6080604052346105fd576122848038038061001981610602565b928339810190610140818303126105fd5761003381610627565b61003f60208301610627565b9161004c60408201610627565b60608201519060808301519460a08401519060c08501519261007060e08701610627565b6101008701519096906001600160401b0381116105fd5781018a601f820112156105fd578051906001600160401b0382116102f05760209b8c60606100b9828660051b01610602565b9e8f868152019402830101918183116105fd57602001925b8284106105ae57505050506101206100e99101610627565b9133156105985760008054336001600160a01b03198216811783556040519a9290916001600160a01b0316907f8be0079c531659141344cd1fd0a4f28419497f9722a3daafe3b4186f6b6457e09080a3600180556001600160a01b031697881561055657506001600160a01b0316908115610511576001600160a01b03169182156104d757895115610492576001600160a01b031696871561044d576127108610156103fa5760018060a01b0319600254161760025560018060a01b0319600454161760045560018060a01b0319600554161760055560065560075560085560018060a01b031660018060a01b0319600354161760035560005b83518110156103855760206101f8828661063b565b510151156103405761020a818561063b565b5151156103065761021b818561063b565b515190600c5491680100000000000000008310156102f0576001830180600c558310156102da57600192600c6000526020600020015561025b818661063b565b51610266828761063b565b5151600052600f6020526002604080600020928051845560208101518685015501519101557fb751835a12376750bd69b4b4c0c1d306480284514d2fa88f72edf3eeea8515f660406102b8838861063b565b515160206102c6858a61063b565b51015182519182526020820152a1016101e3565b634e487b7160e01b600052603260045260246000fd5b634e487b7160e01b600052604160045260246000fd5b60405162461bcd60e51b8152602060048201526012602482015271125b9d985b1a59081c1c9bd91d58dd08125160721b6044820152606490fd5b60405162461bcd60e51b815260206004820152601560248201527f496e76616c69642070726f6475637420707269636500000000000000000000006044820152606490fd5b5090600281116103b557600e55601080546001600160a01b031916919091179055604051611c3490816106508239f35b60405162461bcd60e51b815260206004820152601460248201527f496e76616c69642066756e64696e6720747970650000000000000000000000006044820152606490fd5b60405162461bcd60e51b815260206004820152602560248201527f4665652070657263656e74616765206d757374206265206c657373207468616e604482015264203130302560d81b6064820152608490fd5b60405162461bcd60e51b815260206004820152601660248201527f496e76616c69642063616d706169676e2061646d696e000000000000000000006044820152606490fd5b60405162461bcd60e51b815260206004820152601460248201527f4e6f2070726f64756374732070726f76696465640000000000000000000000006044820152606490fd5b60405162461bcd60e51b8152602060048201526012602482015271125b9d985b1a5908199959481dd85b1b195d60721b6044820152606490fd5b60405162461bcd60e51b815260206004820152601a60248201527f496e76616c69642062656e65666963696172792077616c6c65740000000000006044820152606490fd5b62461bcd60e51b815260206004820152601460248201527f496e76616c6964205553444320616464726573730000000000000000000000006044820152606490fd5b631e4fbdf760e01b600052600060045260246000fd5b6060848303126105fd576040519060608201906001600160401b038211838310176102f057606092602092604052865181528287015183820152604087015160408201528152019301926100d1565b600080fd5b6040519190601f01601f191682016001600160401b038111838210176102f057604052565b51906001600160a01b03821682036105fd57565b80518210156102da5760209160051b01019056fe608080604052600436101561001357600080fd5b600090813560e01c90816325b4f65f146117245750806329dcb0cf146117065780633e413bee146116dd5780633f4ba83a1461166f57806342235da61461165157806344d3498a146115e457806347428e7b1461152e5780634bb278f3146113aa5780635c975abb146113855780635ee95cae146111f757806366bff1db146111cd578063715018a61461117357806372afddf01461114a5780637acc0b20146110fa5780638456cb59146110995780638527d58f14610cda5780638da5cb5b14610cb357806395ccea6714610b4e578063a001ecdd14610b30578063b3f05b9714610b0d578063bc072c2c146109f0578063c5c4744c146109d2578063c9788631146109a9578063cb51bba91461096f578063dd5934b314610774578063e1f1c4a714610757578063e2bbb15814610303578063ebd692ea146102d9578063ec82397114610250578063f25f4b5614610227578063f2fde38b146101a15763fa8ab0ee1461018157600080fd5b3461019e578060031936011261019e576020600e54604051908152f35b80fd5b503461019e57602036600319011261019e576101bb611763565b6101c36119ed565b6001600160a01b031680156102135781546001600160a01b03198116821783556001600160a01b03167f8be0079c531659141344cd1fd0a4f28419497f9722a3daafe3b4186f6b6457e08380a380f35b631e4fbdf760e01b82526004829052602482fd5b503461019e578060031936011261019e576005546040516001600160a01b039091168152602090f35b503461019e57602036600319011261019e5761026a611763565b6102726119ed565b6001600160a01b0316801561029c576bffffffffffffffffffffffff60a01b601054161760105580f35b60405162461bcd60e51b8152602060048201526015602482015274496e76616c69642061646d696e206164647265737360581b6044820152606490fd5b503461019e57602036600319011261019e5760406020916004358152600d83522054604051908152f35b503461019e576103123661174d565b9061031b611a16565b610323611a38565b808352600f6020526040832060405161033b816117aa565b8154815260406002600184015493602084019485520154910190815260ff600a541661071a578151156106dd578084915161067b575b5061037c9151611932565b9161271061038c60085485611932565b0491610398838561190f565b6002546040516323b872dd60e01b6020820152336024820152306044820152606480820188905281526103de916001600160a01b03166103d96084836117dc565b611ba3565b6003546001600160a01b0316803b1561067757604051630ab714fb60e11b8152336004820152602481018490526044810185905290879081908390606490829084905af19182610662575b50506105c15785858160033d116105b1575b6308c379a014610503575b3d156104f9573d67ffffffffffffffff81116104e55761049492604051916104786020601f19601f84011601846117dc565b825260203d92013e5b60025433906001600160a01b0316611b65565b60405162461bcd60e51b8152602060048201526024808201527f4e4654206d696e74206661696c65642077697468206c6f772d6c6576656c2065604482015263393937b960e11b6064820152608490fd5b634e487b7160e01b83526041600452602483fd5b6104949150610481565b61050b611952565b806105165750610446565b6044906105316105a3933360018060a01b0360025416611b65565b6040519061057b603183602081019370027232a1036b4b73a103330b4b632b21d1607d1b855261056a81518092602086860191016119ca565b81010301601f1981018452836117dc565b60405193849262461bcd60e51b845260206004850152518092816024860152858501906119ca565b601f01601f19168101030190fd5b50600482803e815160e01c61043b565b6105cd81600954611945565b600955818652600b6020526105e760408720918254611945565b90558452600d6020526105ff60408520918254611945565b90558061063f575b60405191825260208201527f90890809c654f11d6e72a28fa60149770a0d11ec6c92319d6ceb2bb0a4ea1a1560403392a26001805580f35b60025460055461065d9183916001600160a01b039081169116611b65565b610607565b8161066c916117dc565b610677578638610429565b8680fd5b9050828552600d602052610693846040872054611945565b9051106106a1578238610371565b60405162461bcd60e51b8152602060048201526014602482015273115e18d959591cc81cdd5c1c1b1e481b1a5b5a5d60621b6044820152606490fd5b60405162461bcd60e51b815260206004820152601560248201527450726f64756374206e6f7420617661696c61626c6560581b6044820152606490fd5b60405162461bcd60e51b815260206004820152601560248201527410d85b5c185a59db881a5cc8199a5b985b1a5e9959605a1b6044820152606490fd5b503461019e578060031936011261019e5760206040516127108152f35b503461019e57606036600319011261019e5760405190610793826117aa565b60043582526020820160243581526040830190604435825260018060a01b038354163314801561095b575b6107c79061188d565b805115610926578351156108ec5783518352600f60205260016040842001546108ae5783518352600f602052604083208451908181558251600182015560028451910155600c546801000000000000000081101561089a5794610872610894926108598860017f0bb34bc6bcdd4ba28b7de4669c2e7d94d1b828b2a6a14b82991e087b20d73549999a01600c55611779565b90919082549060031b91821b91600019901b1916179055565b5191519251604051938493846040919493926060820195825260208201520152565b0390a180f35b634e487b7160e01b85526041600452602485fd5b60405162461bcd60e51b815260206004820152601660248201527550726f6475637420616c72656164792065786973747360501b6044820152606490fd5b60405162461bcd60e51b8152602060048201526012602482015271125b9d985b1a59081c1c9bd91d58dd08125160721b6044820152606490fd5b60405162461bcd60e51b815260206004820152600d60248201526c496e76616c696420707269636560981b6044820152606490fd5b506010546001600160a01b031633146107be565b503461019e57602036600319011261019e5760043590600c5482101561019e57602061099a83611779565b90549060031b1c604051908152f35b503461019e578060031936011261019e576004546040516001600160a01b039091168152602090f35b503461019e578060031936011261019e576020600954604051908152f35b503461019e576109ff3661174d565b82546001600160a01b031633148015610af9575b610a1c9061188d565b818352600f602052610a36600160408520015415156118ca565b80610a96575b818352600f60208181526040808620600201849055848652918152818520600101548251948552908401528201527fc598db734b93c7fd9412e07c1e464ebb4d3dcf9b02c03af26710b307f8b773db908060608101610894565b818352600d6020526040832054811015610a3c5760405162461bcd60e51b815260206004820152602160248201527f4e657720737570706c79206c696d69742062656c6f7720736f6c6420636f756e6044820152601d60fa1b6064820152608490fd5b506010546001600160a01b03163314610a13565b503461019e578060031936011261019e57602060ff600a54166040519015158152f35b503461019e578060031936011261019e576020600854604051908152f35b503461019e57604036600319011261019e57610b68611763565b60243590610b746119ed565b6001600160a01b038116918215610c7c576002546040516370a0823160e01b81523060048201526001600160a01b039091169190602081602481865afa908115610c71578691610c3a575b508111610bfe57610bf4817f5fafa99d0643513820be26656b45130b01e1c03062e1266bf36f88cbd3bd969594602094611b65565b604051908152a280f35b60405162461bcd60e51b8152602060048201526014602482015273496e73756666696369656e742062616c616e636560601b6044820152606490fd5b90506020813d602011610c69575b81610c55602093836117dc565b81010312610c64575138610bbf565b600080fd5b3d9150610c48565b6040513d88823e3d90fd5b60405162461bcd60e51b815260206004820152600f60248201526e496e76616c6964206164647265737360881b6044820152606490fd5b503461019e578060031936011261019e57546040516001600160a01b039091168152602090f35b503461019e57610ce93661174d565b610cf1611a16565b610cf9611a38565b818352600f60205260408320604051610d11816117aa565b8154815260018201549060406002602083019484865201549101521561106257600e54610ffc5760ff600a541680610fee575b610f9a575b600354604051627eeac760e11b81523360048201526024810185905290602090829060449082906001600160a01b03165afa908115610ed9578591610f68575b508015610f2d578211610ee85781610db782612710610daf610dbc955160085490611932565b04905161190f565b611932565b91808452600d60205260408420610dd483825461190f565b9055808452600b60205260408420610ded84825461190f565b9055610dfb8360095461190f565b6009556003546001600160a01b0316803b15610ee457604051637a94c56560e11b815233600482015260248101839052604481018490529085908290606490829084905af18015610ed957610ea3575b50907fb7048c2ad36aadee977bb16b4543a18866044d27a2ca753e1c7dbcfa7d7a696291610e84843360018060a01b0360025416611b65565b6040805194855260208501919091528301523391606090a26001805580f35b93610ed1817fb7048c2ad36aadee977bb16b4543a18866044d27a2ca753e1c7dbcfa7d7a69629493966117dc565b939091610e4b565b6040513d87823e3d90fd5b8480fd5b60405162461bcd60e51b815260206004820152601d60248201527f496e73756666696369656e7420746f6b656e7320746f20726566756e640000006044820152606490fd5b60405162461bcd60e51b8152602060048201526013602482015272139bc81d1bdad95b9cc81d1bc81c99599d5b99606a1b6044820152606490fd5b90506020813d602011610f92575b81610f83602093836117dc565b81010312610ee4575138610d89565b3d9150610f76565b60405162461bcd60e51b815260206004820152602660248201527f54617267657420776173206d65742c20726566756e6473206e6f7420617661696044820152653630b136329760d11b6064820152608490fd5b506009546006541115610d44565b60ff600a541615610d495760405162461bcd60e51b815260206004820152602d60248201527f43616d706169676e2069732066696e616c697a65642c20726566756e6473206e60448201526c37ba1030bb30b4b630b136329760991b6064820152608490fd5b60405162461bcd60e51b815260206004820152600f60248201526e125b9d985b1a59081c1c9bd91d58dd608a1b6044820152606490fd5b503461019e578060031936011261019e576110b26119ed565b6110ba611a38565b805460ff60a01b1916600160a01b1781556040513381527f62e78cea01bee320cd4e420270b5ea74000d11b0c9f74754ebdbfc544b05a25890602090a180f35b503461019e57602036600319011261019e576040906004358152600f60205220805461114660026001840154930154604051938493846040919493926060820195825260208201520152565b0390f35b503461019e578060031936011261019e576010546040516001600160a01b039091168152602090f35b503461019e578060031936011261019e5761118c6119ed565b80546001600160a01b03198116825581906001600160a01b03167f8be0079c531659141344cd1fd0a4f28419497f9722a3daafe3b4186f6b6457e08280a380f35b503461019e57602036600319011261019e5760406020916004358152600b83522054604051908152f35b503461019e57602036600319011261019e5760043560018060a01b0382541633148015611371575b6112289061188d565b808252600f602052611242600160408420015415156118ca565b808252600d6020526112586040832054156117fe565b815b600c5480821015611346578261126f83611779565b90549060031b1c14611284575060010161125a565b600019810190811161133257906108596112a06112ad93611779565b90549060031b1c91611779565b600c54801561131e577f07015631cff457b5b13492c2045e70c6305a0a4aa773e432e79abbe2cf52c1eb91602091600019016112e881611779565b8154906000199060031b1b19169055600c555b808452600f8252836002604082208281558260018201550155604051908152a180f35b634e487b7160e01b83526031600452602483fd5b634e487b7160e01b84526011600452602484fd5b505060207f07015631cff457b5b13492c2045e70c6305a0a4aa773e432e79abbe2cf52c1eb916112fb565b506010546001600160a01b0316331461121f565b503461019e578060031936011261019e5760ff6020915460a01c166040519015158152f35b503461019e578060031936011261019e576113c3611a16565b6113cb611a38565b60ff600a54166114f557600e548061144b57506113eb600754421161184a565b600954600654811015611433575b505b600160ff19600a541617600a557f6823b073d48d6e3a7d385eeb601452d680e74bb46afe3255a7d778f3a9b176818180a16001805580f35b61143e575b386113f9565b611446611a58565b611438565b600181036114d1575080546001600160a01b0316330361147a57600954611472575b6113fb565b61146d611a58565b60405162461bcd60e51b815260206004820152602960248201527f4f6e6c79206f776e65722063616e2066696e616c697a65206c696d69746c6573604482015268732066756e64696e6760b81b6064820152608490fd5b6002036113fb576114e5600754421161184a565b6009541561146d5761146d611a58565b60405162461bcd60e51b8152602060048201526011602482015270105b1c9958591e48199a5b985b1a5e9959607a1b6044820152606490fd5b503461019e578060031936011261019e57604051806020600c5491828152018091600c85527fdf6966c971051c3d54ec59162606531493a51404a002842f56009d7e5cf4a8c790855b8181106115ce575050508261158d9103836117dc565b604051928392602084019060208552518091526040840192915b8181106115b5575050500390f35b82518452859450602093840193909201916001016115a7565b8254845260209093019260019283019201611577565b503461019e577fb751835a12376750bd69b4b4c0c1d306480284514d2fa88f72edf3eeea8515f660406116163661174d565b61161e6119ed565b818552600d60205261163383862054156117fe565b818552600f602052806001848720015582519182526020820152a180f35b503461019e578060031936011261019e576020600654604051908152f35b503461019e578060031936011261019e576116886119ed565b805460ff8160a01c16156116ce5760ff60a01b191681556040513381527f5db9ee0a495bf2e6ff9c91a7834c1ba4fdd244a5e8aa4e537bd38aeae4b073aa90602090a180f35b638dfc202b60e01b8252600482fd5b503461019e578060031936011261019e576002546040516001600160a01b039091168152602090f35b503461019e578060031936011261019e576020600754604051908152f35b9050346117495781600319360112611749576003546001600160a01b03168152602090f35b5080fd5b6040906003190112610c64576004359060243590565b600435906001600160a01b0382168203610c6457565b600c5481101561179457600c60005260206000200190600090565b634e487b7160e01b600052603260045260246000fd5b6060810190811067ffffffffffffffff8211176117c657604052565b634e487b7160e01b600052604160045260246000fd5b90601f8019910116810190811067ffffffffffffffff8211176117c657604052565b1561180557565b60405162461bcd60e51b815260206004820152601860248201527f50726f6475637420686173206163746976652073616c657300000000000000006044820152606490fd5b1561185157565b60405162461bcd60e51b8152602060048201526014602482015273111958591b1a5b99481b9bdd081c995858da195960621b6044820152606490fd5b1561189457565b60405162461bcd60e51b815260206004820152600e60248201526d139bdd08185d5d1a1bdc9a5e995960921b6044820152606490fd5b156118d157565b60405162461bcd60e51b8152602060048201526016602482015275141c9bd91d58dd08191bd95cc81b9bdd08195e1a5cdd60521b6044820152606490fd5b9190820391821161191c57565b634e487b7160e01b600052601160045260246000fd5b8181029291811591840414171561191c57565b9190820180921161191c57565b600060443d106119b9576040513d600319016004823e8051913d602484011167ffffffffffffffff8411176119c4578282019283519167ffffffffffffffff83116119bc573d840160031901858401602001116119bc57506119b9929101602001906117dc565b90565b949350505050565b92915050565b60005b8381106119dd5750506000910152565b81810151838201526020016119cd565b6000546001600160a01b03163303611a0157565b63118cdaa760e01b6000523360045260246000fd5b600260015414611a27576002600155565b633ee5aeb560e01b60005260046000fd5b60ff60005460a01c16611a4757565b63d93c066560e01b60005260046000fd5b6002546040516370a0823160e01b8152306004820152906001600160a01b0316602082602481845afa918215611b5957600092611b25575b508115611aea57600454611aaf9183916001600160a01b031690611b65565b6004546040519182526001600160a01b0316907f221c08a06b07a64803b3787861a3f276212fcccb51c2e6234077a9b8cb13047a90602090a2565b60405162461bcd60e51b81526020600482015260136024820152724e6f2066756e647320746f2072656c6561736560681b6044820152606490fd5b90916020823d602011611b51575b81611b40602093836117dc565b8101031261019e5750519038611a90565b3d9150611b33565b6040513d6000823e3d90fd5b60405163a9059cbb60e01b60208201526001600160a01b03929092166024830152604480830193909352918152611ba1916103d96064836117dc565b565b906000602091828151910182855af115611b59576000513d611bf557506001600160a01b0381163b155b611bd45750565b635274afe760e01b60009081526001600160a01b0391909116600452602490fd5b60011415611bcd56fea26469706673582212203e8950bf79ce7ffebd01b9985010e1bc6bb4a9bc46f729cd7e02531bc2ccee3c64736f6c634300081b0033a26469706673582212207a17a31d224c0e876ff8a90c9d69bf74bf399c7a211972a4245f7e2ddad220fd64736f6c634300081b0033",
  "linkReferences": {},
  "deployedLinkReferences": {}
}