{
  "_format": "hh-sol-artifact-1",
  "contractName": "USDCFundraiserFactory",
  "sourceName": "contracts/USDCFundraiserFactory.sol",
  "abi": [
    {
      "inputs": [
        {
          "internalType": "address",
          "name": "_usdcAddress",
          "type": "address"
        },
        {
          "internalType": "address",
          "name": "_productTokenAddress",
          "type": "address"
        },
        {
          "internalType": "address",
          "name": "_linkToken",
          "type": "address"
        },
        {
          "internalType": "address",
          "name": "_chainlinkRegistrar",
          "type": "address"
        },
        {
          "internalType": "address",
          "name": "_chainlinkRegistry",
          "type": "address"
        },
        {
          "internalType": "bytes4",
          "name": "_chainlinkRegistrarSelector",
          "type": "bytes4"
        }
      ],
      "stateMutability": "nonpayable",
      "type": "constructor"
    },
    {
      "inputs": [
        {
          "internalType": "address",
          "name": "owner",
          "type": "address"
        }
      ],
      "name": "OwnableInvalidOwner",
      "type": "error"
    },
    {
      "inputs": [
        {
          "internalType": "address",
          "name": "account",
          "type": "address"
        }
      ],
      "name": "OwnableUnauthorizedAccount",
      "type": "error"
    },
    {
      "anonymous": false,
      "inputs": [
        {
          "indexed": false,
          "internalType": "string",
          "name": "message",
          "type": "string"
        }
      ],
      "name": "Debug",
      "type": "event"
    },
    {
      "anonymous": false,
      "inputs": [
        {
          "indexed": true,
          "internalType": "address",
          "name": "fundraiser",
          "type": "address"
        },
        {
          "indexed": true,
          "internalType": "address",
          "name": "creator",
          "type": "address"
        }
      ],
      "name": "FundraiserCreated",
      "type": "event"
    },
    {
      "anonymous": false,
      "inputs": [
        {
          "indexed": true,
          "internalType": "address",
          "name": "previousOwner",
          "type": "address"
        },
        {
          "indexed": true,
          "internalType": "address",
          "name": "newOwner",
          "type": "address"
        }
      ],
      "name": "OwnershipTransferred",
      "type": "event"
    },
    {
      "inputs": [],
      "name": "chainlinkRegistrar",
      "outputs": [
        {
          "internalType": "address",
          "name": "",
          "type": "address"
        }
      ],
      "stateMutability": "view",
      "type": "function"
    },
    {
      "inputs": [],
      "name": "chainlinkRegistrarSelector",
      "outputs": [
        {
          "internalType": "bytes4",
          "name": "",
          "type": "bytes4"
        }
      ],
      "stateMutability": "view",
      "type": "function"
    },
    {
      "inputs": [],
      "name": "chainlinkRegistry",
      "outputs": [
        {
          "internalType": "address",
          "name": "",
          "type": "address"
        }
      ],
      "stateMutability": "view",
      "type": "function"
    },
    {
      "inputs": [
        {
          "internalType": "address",
          "name": "beneficiaryWallet",
          "type": "address"
        },
        {
          "internalType": "address",
          "name": "feeWallet",
          "type": "address"
        },
        {
          "internalType": "uint256",
          "name": "fundingType",
          "type": "uint256"
        },
        {
          "internalType": "uint256",
          "name": "minimumTarget",
          "type": "uint256"
        },
        {
          "internalType": "uint256",
          "name": "deadline",
          "type": "uint256"
        },
        {
          "components": [
            {
              "internalType": "uint256",
              "name": "productId",
              "type": "uint256"
            },
            {
              "internalType": "uint256",
              "name": "price",
              "type": "uint256"
            },
            {
              "internalType": "uint256",
              "name": "supplyLimit",
              "type": "uint256"
            }
          ],
          "internalType": "struct ProductConfig[]",
          "name": "products",
          "type": "tuple[]"
        }
      ],
      "name": "createFundraiser",
      "outputs": [
        {
          "internalType": "address",
          "name": "",
          "type": "address"
        }
      ],
      "stateMutability": "nonpayable",
      "type": "function"
    },
    {
      "inputs": [],
      "name": "linkToken",
      "outputs": [
        {
          "internalType": "address",
          "name": "",
          "type": "address"
        }
      ],
      "stateMutability": "view",
      "type": "function"
    },
    {
      "inputs": [],
      "name": "owner",
      "outputs": [
        {
          "internalType": "address",
          "name": "",
          "type": "address"
        }
      ],
      "stateMutability": "view",
      "type": "function"
    },
    {
      "inputs": [],
      "name": "productTokenAddress",
      "outputs": [
        {
          "internalType": "address",
          "name": "",
          "type": "address"
        }
      ],
      "stateMutability": "view",
      "type": "function"
    },
    {
      "inputs": [],
      "name": "renounceOwnership",
      "outputs": [],
      "stateMutability": "nonpayable",
      "type": "function"
    },
    {
      "inputs": [
        {
          "internalType": "address",
          "name": "newOwner",
          "type": "address"
        }
      ],
      "name": "transferOwnership",
      "outputs": [],
      "stateMutability": "nonpayable",
      "type": "function"
    },
    {
      "inputs": [],
      "name": "usdcAddress",
      "outputs": [
        {
          "internalType": "address",
          "name": "",
          "type": "address"
        }
      ],
      "stateMutability": "view",
      "type": "function"
    }
  ],
  "bytecode": "0x6101403461017957601f612c7738819003918201601f19168301916001600160401b0383118484101761017e5780849260c0946040528339810103126101795761004881610194565b9061005560208201610194565b9061006260408201610194565b61006e60608301610194565b9060a061007d60808501610194565b930151936001600160e01b0319851685036101795733156101635760008054336001600160a01b0319821681178355604051989290916001600160a01b0316907f8be0079c531659141344cd1fd0a4f28419497f9722a3daafe3b4186f6b6457e09080a360805260a05260c05260e0526101005261012052612ace90816101a9823960805181818161025f015261078e015260a0518181816102a90152610706015260c0518181816102f701526106c1015260e05181818161012d0152610320015261010051818181610349015261074b01526101205181818161037a01526105fa0152f35b631e4fbdf760e01b600052600060045260246000fd5b600080fd5b634e487b7160e01b600052604160045260246000fd5b51906001600160a01b03821682036101795756fe608080604052600436101561001357600080fd5b600090813560e01c90816302d454571461077a5750806331e84b0014610735578063396f9701146106f057806357970e93146106ab578063715018a6146106515780638da5cb5b1461062a578063ba2238a7146105e4578063cd22c9401461015c578063d1bd70ae146101175763f2fde38b1461008f57600080fd5b34610114576020366003190112610114576100a86107c1565b6100b0610814565b6001600160a01b031680156101005781546001600160a01b03198116821783556001600160a01b03167f8be0079c531659141344cd1fd0a4f28419497f9722a3daafe3b4186f6b6457e08380a380f35b631e4fbdf760e01b82526004829052602482fd5b80fd5b50346101145780600319360112610114576040517f00000000000000000000000000000000000000000000000000000000000000006001600160a01b03168152602090f35b50346101145760c0366003190112610114576101766107c1565b6024356001600160a01b03811691908290036105e0576084359160a43567ffffffffffffffff81116105dc57366023820112156105dc5780600401359267ffffffffffffffff84116105c857604051916101d660208660051b01846107dc565b848352602083019060246060839702820101903682116105c457602401915b818310610561575050506001600160a01b03169081156105265782156104ec57428511156104b457805115610481576040519461225b938487019487861067ffffffffffffffff87111761046d57908796959493929161083e883961018085019360018060a01b037f0000000000000000000000000000000000000000000000000000000000000000168652602086015260408501526044356060850152606435608085015260a084015260018060a01b037f00000000000000000000000000000000000000000000000000000000000000001660c084015261018060e0840152518091526101a082019290865b81811061043b575050506001600160a01b037f000000000000000000000000000000000000000000000000000000000000000081166101008301527f000000000000000000000000000000000000000000000000000000000000000081166101208301527f0000000000000000000000000000000000000000000000000000000000000000166101408201526001600160e01b03197f00000000000000000000000000000000000000000000000000000000000000001661016090910152039082f0801561042e5781546001600160a01b0390811692911690813b15610114576040519263f2fde38b60e01b84526004840152808360248183865af192831561042e5760209361041e575b509060405191817fa2398daac0c8053a1e3c0280916c2ec6bc884f0959c27e639a4db829b7eabfb1339280a38152f35b81610428916107dc565b386103ee565b50604051903d90823e3d90fd5b9194509192602060606001926040885180518352848101518584015201516040820152019501910191859493926102e3565b634e487b7160e01b89526041600452602489fd5b60405162461bcd60e51b815260206004820152600b60248201526a4e6f2070726f647563747360a81b6044820152606490fd5b60405162461bcd60e51b815260206004820152601060248201526f496e76616c696420646561646c696e6560801b6044820152606490fd5b60405162461bcd60e51b8152602060048201526012602482015271125b9d985b1a5908199959481dd85b1b195d60721b6044820152606490fd5b60405162461bcd60e51b8152602060048201526013602482015272496e76616c69642062656e656669636961727960681b6044820152606490fd5b6060833603126105c4576040516060810181811067ffffffffffffffff8211176105b05791602091606093604052853581528286013583820152604086013560408201528152019201916101f5565b634e487b7160e01b8b52604160045260248bfd5b8880fd5b634e487b7160e01b86526041600452602486fd5b8480fd5b8280fd5b50346101145780600319360112610114576040517f00000000000000000000000000000000000000000000000000000000000000006001600160e01b0319168152602090f35b5034610114578060031936011261011457546040516001600160a01b039091168152602090f35b503461011457806003193601126101145761066a610814565b80546001600160a01b03198116825581906001600160a01b03167f8be0079c531659141344cd1fd0a4f28419497f9722a3daafe3b4186f6b6457e08280a380f35b50346101145780600319360112610114576040517f00000000000000000000000000000000000000000000000000000000000000006001600160a01b03168152602090f35b50346101145780600319360112610114576040517f00000000000000000000000000000000000000000000000000000000000000006001600160a01b03168152602090f35b50346101145780600319360112610114576040517f00000000000000000000000000000000000000000000000000000000000000006001600160a01b03168152602090f35b9050346107bd57816003193601126107bd577f00000000000000000000000000000000000000000000000000000000000000006001600160a01b03168152602090f35b5080fd5b600435906001600160a01b03821682036107d757565b600080fd5b90601f8019910116810190811067ffffffffffffffff8211176107fe57604052565b634e487b7160e01b600052604160045260246000fd5b6000546001600160a01b0316330361082857565b63118cdaa760e01b6000523360045260246000fdfe6080604052346105715761225b80380380610019816105c5565b9283398101906101808183031261057157610033816105ea565b61003f602083016105ea565b9061004c604084016105ea565b606084015192608085015160a086015161006860c088016105ea565b60e08801519092906001600160401b03811161057157880189601f82011215610571578051906001600160401b0382116103095760209a8b60606100b0828660051b016105c5565b9d8e8681520194028301019181831161057157602001925b82841061057657505050506100e061010089016105ea565b956100ee6101208a016105ea565b956101606100ff6101408c016105ea565b9a0151956001600160e01b03198716870361057157331561055b5760008054604051949133906001600160a01b038316907f8be0079c531659141344cd1fd0a4f28419497f9722a3daafe3b4186f6b6457e09080a36001600160a81b0319163360ff60a01b191617600055600180556001600160a01b031692831561051957506001600160a01b03169081156104d4576001600160a01b031691821561049a578b51156104555760018060a01b0319600254161760025560018060a01b0319600454161760045560018060a01b0319600554161760055560065560075560fa60085560018060a01b031660018060a01b0319600354161760035560005b865181101561039e57602061021182896105fe565b510151156103595761022381886105fe565b51511561031f5761023481886105fe565b515190600e549168010000000000000000831015610309576001830180600e558310156102f357600192600e6000526020600020015561027481896105fe565b5161027f828a6105fe565b515160005260176020526002604080600020928051845560208101518685015501519101557fb751835a12376750bd69b4b4c0c1d306480284514d2fa88f72edf3eeea8515f660406102d1838b6105fe565b515160206102df858d6105fe565b51015182519182526020820152a1016101fc565b634e487b7160e01b600052603260045260246000fd5b634e487b7160e01b600052604160045260246000fd5b60405162461bcd60e51b8152602060048201526012602482015271125b9d985b1a59081c1c9bd91d58dd08125160721b6044820152606490fd5b60405162461bcd60e51b815260206004820152601560248201527f496e76616c69642070726f6475637420707269636500000000000000000000006044820152606490fd5b5060138054601180546001600160a01b03199081166001600160a01b0396871617909155601280549091168589161790556001600160c01b031916939092169290921760409290921c63ffffffff60a01b169190911790556002811161041057601655604051611c4890816106138239f35b60405162461bcd60e51b815260206004820152601460248201527f496e76616c69642066756e64696e6720747970650000000000000000000000006044820152606490fd5b60405162461bcd60e51b815260206004820152601460248201527f4e6f2070726f64756374732070726f76696465640000000000000000000000006044820152606490fd5b60405162461bcd60e51b8152602060048201526012602482015271125b9d985b1a5908199959481dd85b1b195d60721b6044820152606490fd5b60405162461bcd60e51b815260206004820152601a60248201527f496e76616c69642062656e65666963696172792077616c6c65740000000000006044820152606490fd5b62461bcd60e51b815260206004820152601460248201527f496e76616c6964205553444320616464726573730000000000000000000000006044820152606490fd5b631e4fbdf760e01b600052600060045260246000fd5b600080fd5b606084830312610571576040519060608201906001600160401b0382118383101761030957606092602092604052865181528287015183820152604087015160408201528152019301926100c8565b6040519190601f01601f191682016001600160401b0381118382101761030957604052565b51906001600160a01b038216820361057157565b80518210156102f35760209160051b01019056fe608080604052600436101561001357600080fd5b600090813560e01c90816302f8baa1146117d45750806325b4f65f146117ab57806329dcb0cf1461178d57806338eb6a19146117635780633e413bee1461173a5780633f4ba83a146116cc57806342235da6146116ae5780634232d7f8146113a457806342af18841461127f57806344d3498a1461122a5780634585e33b1461111e57806347428e7b146110685780634bb278f314610f0f5780635c975abb14610eea57806366bff1db14610ec05780636cad3fb014610e2b5780636e04ff0d14610dd3578063715018a614610d795780637acc0b2014610d295780638456cb5914610cc85780638527d58f146108d65780638da5cb5b146108af57806395ccea67146106e9578063a001ecdd146106cb578063b3f05b97146106a8578063c5c4744c1461068a578063c978863114610661578063cb51bba91461060f578063e2bbb158146102c9578063ebd692ea1461029f578063f25f4b5614610276578063f2fde38b146101f0578063fa8ab0ee146101d25763fc7e286d1461019757600080fd5b346101cf5760203660031901126101cf576020906040906001600160a01b036101be611898565b168152600983522054604051908152f35b80fd5b50346101cf57806003193601126101cf576020601654604051908152f35b50346101cf5760203660031901126101cf5761020a611898565b610212611a61565b6001600160a01b031680156102625781546001600160a01b03198116821783556001600160a01b03167f8be0079c531659141344cd1fd0a4f28419497f9722a3daafe3b4186f6b6457e08380a380f35b631e4fbdf760e01b82526004829052602482fd5b50346101cf57806003193601126101cf576005546040516001600160a01b039091168152602090f35b50346101cf5760203660031901126101cf5760406020916004358152601083522054604051908152f35b50346101cf576102d836611841565b6102e0611a8a565b6102e8611aac565b8183526017602052604083209060405191610302836118ae565b80548352600181015460406002602086019383855201549401938452156105d257816103359184516105ab575b5161199d565b926127106103456008548661199d565b049261035184866119c6565b6002546040516323b872dd60e01b81523360048201523060248201526044810188905290602090829060649082908c906001600160a01b03165af18015610581576103a391899161058c575b506119d3565b846104ca575b6103b581600a54611a11565b600a5560035487906001600160a01b0316803b156104c657604051630ab714fb60e11b815233600482015260248101869052604481018790529082908290606490829084905af180156104bb576104a2575b50839052600d60205261041f60408820918254611a11565b90558051610479575b508452601060205261043f60408520918254611a11565b905560405191825260208201527f90890809c654f11d6e72a28fa60149770a0d11ec6c92319d6ceb2bb0a4ea1a1560403392a26001805580f35b61049c908287526010602052610493846040892054611a11565b90511015611a1e565b38610428565b816104ac916118e0565b6104b7578638610407565b8680fd5b6040513d84823e3d90fd5b5080fd5b60025460055460405163a9059cbb60e01b81526001600160a01b0391821660048201526024810188905291602091839160449183918d91165af1908115610581578891610552575b506103a95760405162461bcd60e51b8152602060048201526013602482015272119959481d1c985b9cd9995c8819985a5b1959606a1b6044820152606490fd5b610574915060203d60201161057a575b61056c81836118e0565b810190611902565b38610512565b503d610562565b6040513d8a823e3d90fd5b6105a5915060203d60201161057a5761056c81836118e0565b3861039d565b85875260106020526105cd6105c48360408a2054611a11565b86511015611a1e565b61032f565b60405162461bcd60e51b815260206004820152601560248201527450726f64756374206e6f7420617661696c61626c6560581b6044820152606490fd5b50346101cf5760203660031901126101cf57600435600e548110156104c657600e8260209350527fbb7b4a454dc3493923482f07822329ed19e8244eff582cc204f8554c3620c3fd0154604051908152f35b50346101cf57806003193601126101cf576004546040516001600160a01b039091168152602090f35b50346101cf57806003193601126101cf576020600a54604051908152f35b50346101cf57806003193601126101cf57602060ff600b54166040519015158152f35b50346101cf57806003193601126101cf576020600854604051908152f35b50346101cf5760403660031901126101cf57610703611898565b6024359061070f611a61565b6001600160a01b038116918215610878576002546040516370a0823160e01b81523060048201526001600160a01b0390911690602081602481855afa90811561086d578691610836575b5082116107fa5760405163a9059cbb60e01b81526001600160a01b03939093166004840152602483018290526020908390604490829088905af19081156107ef576107ce6020927f5fafa99d0643513820be26656b45130b01e1c03062e1266bf36f88cbd3bd96959487916107d857506119d3565b604051908152a280f35b6105a59150843d861161057a5761056c81836118e0565b6040513d86823e3d90fd5b60405162461bcd60e51b8152602060048201526014602482015273496e73756666696369656e742062616c616e636560601b6044820152606490fd5b90506020813d602011610865575b81610851602093836118e0565b81010312610860575138610759565b600080fd5b3d9150610844565b6040513d88823e3d90fd5b60405162461bcd60e51b815260206004820152600f60248201526e496e76616c6964206164647265737360881b6044820152606490fd5b50346101cf57806003193601126101cf57546040516001600160a01b039091168152602090f35b50346101cf576108e536611841565b90808352601760205260408320916040516108ff816118ae565b83548152600184015490604060026020830196848852015491015215610c9157601654610c2b5760ff600b541680610c1d575b610bc9575b600354604051627eeac760e11b8152336004820152602481018490526001600160a01b039091169390602081604481885afa90811561086d578691610b93575b508015610b58578211610b1357816109a58261271061099d6109aa95516008549061199d565b0490516119c6565b61199d565b92803b15610b0f57604051637a94c56560e11b815233600482015260248101849052604481018390529085908290606490829084905af18015610af057610afb575b50818452601060205260408420610a048282546119c6565b9055610a1283600a546119c6565b600a5560025460405163a9059cbb60e01b815233600482015260248101859052906020908290604490829089906001600160a01b03165af1908115610af0578591610ad1575b5015610a9c576040805193845260208401929092529082015233907fb7048c2ad36aadee977bb16b4543a18866044d27a2ca753e1c7dbcfa7d7a696290606090a280f35b60405162461bcd60e51b815260206004820152600d60248201526c1499599d5b990819985a5b1959609a1b6044820152606490fd5b610aea915060203d60201161057a5761056c81836118e0565b38610a58565b6040513d87823e3d90fd5b84610b08919592956118e0565b92386109ec565b8480fd5b60405162461bcd60e51b815260206004820152601d60248201527f496e73756666696369656e7420746f6b656e7320746f20726566756e640000006044820152606490fd5b60405162461bcd60e51b8152602060048201526013602482015272139bc81d1bdad95b9cc81d1bc81c99599d5b99606a1b6044820152606490fd5b90506020813d602011610bc1575b81610bae602093836118e0565b81010312610bbd575138610977565b8580fd5b3d9150610ba1565b60405162461bcd60e51b815260206004820152602660248201527f54617267657420776173206d65742c20726566756e6473206e6f7420617661696044820152653630b136329760d11b6064820152608490fd5b50600a546006541115610932565b60ff600b5416156109375760405162461bcd60e51b815260206004820152602d60248201527f43616d706169676e2069732066696e616c697a65642c20726566756e6473206e60448201526c37ba1030bb30b4b630b136329760991b6064820152608490fd5b60405162461bcd60e51b815260206004820152600f60248201526e125b9d985b1a59081c1c9bd91d58dd608a1b6044820152606490fd5b50346101cf57806003193601126101cf57610ce1611a61565b610ce9611aac565b805460ff60a01b1916600160a01b1781556040513381527f62e78cea01bee320cd4e420270b5ea74000d11b0c9f74754ebdbfc544b05a25890602090a180f35b50346101cf5760203660031901126101cf5760409060043581526017602052208054610d7560026001840154930154604051938493846040919493926060820195825260208201520152565b0390f35b50346101cf57806003193601126101cf57610d92611a61565b80546001600160a01b03198116825581906001600160a01b03167f8be0079c531659141344cd1fd0a4f28419497f9722a3daafe3b4186f6b6457e08280a380f35b50346101cf57610de2366117f0565b505060ff600b54161580610e20575b60405191610e006020846118e0565b8252610d7560405192839215158352604060208401526040830190611857565b506007544211610df1565b50346101cf5760203660031901126101cf57600435610e48611a61565b6103e88111610e83576020817f8c4d35e54a3f2ef1134138fd8ea3daee6a3c89e10d2665996babdf70261e2c7692600855604051908152a180f35b60405162461bcd60e51b81526020600482015260156024820152744665652063616e6e6f74206578636565642031302560581b6044820152606490fd5b50346101cf5760203660031901126101cf5760406020916004358152600d83522054604051908152f35b50346101cf57806003193601126101cf5760ff6020915460a01c166040519015158152f35b50346101cf57806003193601126101cf57610f28611a8a565b610f30611aac565b60ff600b541661102f5760165480610fa25750610f50600754421161195a565b600a546006541115610f95575b600160ff19600b541617600b557f6823b073d48d6e3a7d385eeb601452d680e74bb46afe3255a7d778f3a9b176818180a16001805580f35b610f9d611acc565b610f5d565b6001810361101b575080546001600160a01b03163303610fc457610f9d611acc565b60405162461bcd60e51b815260206004820152602960248201527f4f6e6c79206f776e65722063616e2066696e616c697a65206c696d69746c6573604482015268732066756e64696e6760b81b6064820152608490fd5b600203610f5d57610f95600754421161195a565b60405162461bcd60e51b8152602060048201526011602482015270105b1c9958591e48199a5b985b1a5e9959607a1b6044820152606490fd5b50346101cf57806003193601126101cf57604051806020600e5491828152018091600e85527fbb7b4a454dc3493923482f07822329ed19e8244eff582cc204f8554c3620c3fd90855b81811061110857505050826110c79103836118e0565b604051928392602084019060208552518091526040840192915b8181106110ef575050500390f35b82518452859450602093840193909201916001016110e1565b82548452602090930192600192830192016110b1565b50346101cf5761112d366117f0565b505060ff600b5416158061121f575b6111435780f35b61114b611a8a565b611153611aac565b60ff600b541661102f57601654806111e95750611173600754421161195a565b600a5460065411156111dc575b600160ff19600b541617600b557f6823b073d48d6e3a7d385eeb601452d680e74bb46afe3255a7d778f3a9b176818180a1600180557f966a2cf4da2fe388fb461e726e2765451662471d3e61fb50c4191dd71434cb588180a180f35b6111e4611acc565b611180565b6001810361120b575080546001600160a01b03163303610fc4576111e4611acc565b600203611180576111dc600754421161195a565b50600754421161113c565b50346101cf577fb751835a12376750bd69b4b4c0c1d306480284514d2fa88f72edf3eeea8515f6604061125c36611841565b611264611a61565b818552600f602052808386205582519182526020820152a180f35b50346101cf5760203660031901126101cf5760043561129c611a61565b60ff600b541661135f5760016016541461130357428111156112be5760075580f35b60405162461bcd60e51b815260206004820152601e60248201527f446561646c696e65206d75737420626520696e207468652066757475726500006044820152606490fd5b60405162461bcd60e51b815260206004820152602e60248201527f4c696d69746c6573732066756e64696e6720646f65736e277420737570706f7260448201526d3a103334b730b634bd30ba34b7b760911b6064820152608490fd5b60405162461bcd60e51b815260206004820152601760248201527f46756e647261697365722069732066696e616c697a65640000000000000000006044820152606490fd5b50346101cf576113b3366117f0565b906113bc611a61565b60135460115460405163095ea7b360e01b81526001600160a01b039182166004820152670de0b6b3a7640000602482015291602091839160449183918991165af19081156107ef57849161168f575b501561165357829182918260018060a01b03601154169261145f602463ffffffff60e01b60135460401b1694836040519485926020840198895284840137810185838201520301601f1981018352826118e0565b51925af161146b61191a565b9015611590575b602081519181808201938492010103126104c6575160148190556013805460ff60c01b1916600160c01b1790556040518181527fdd37d6770a1595ddc0378e5e9e41ef525b6bd7f43b2c0e14582e99ee0373df8b90602090a16012546001600160a01b0316806114e8575b602082604051908152f35b82809160405160208101906379ea994360e01b8252856024820152602481526115126044826118e0565b51915afa61151e61191a565b90156114dd5760208180518101031261158c57602001516001600160a01b0381169081900361158c577f9ecfd97bf22760e90779a4364f3646d6cbb7e6207b75280c803ca569a34234a0602093826bffffffffffffffffffffffff60a01b601554161760155580a2386114dd565b8280fd5b7f3c5ad147104e56be34a9176a6692f7df8d2f4b29a5af06bc6b98970d329d65776080825160405190604082526013604083015272149959da5cdd1c985d1a5bdb8819985a5b1959606a1b60608301526020820152a1805115611472577fd54ba61ed4070561dcc6d272cdd44f051344b2c11b31180228f79dcb0003cf83604051604081526011604082015270526567697374726174696f6e206461746160781b6060820152608060208201528061164b6080820185611857565b0390a1611472565b60405162461bcd60e51b815260206004820152601460248201527313125392c8185c1c1c9bdd985b0819985a5b195960621b6044820152606490fd5b6116a8915060203d60201161057a5761056c81836118e0565b3861140b565b50346101cf57806003193601126101cf576020600654604051908152f35b50346101cf57806003193601126101cf576116e5611a61565b805460ff8160a01c161561172b5760ff60a01b191681556040513381527f5db9ee0a495bf2e6ff9c91a7834c1ba4fdd244a5e8aa4e537bd38aeae4b073aa90602090a180f35b638dfc202b60e01b8252600482fd5b50346101cf57806003193601126101cf576002546040516001600160a01b039091168152602090f35b50346101cf5760203660031901126101cf5760406020916004358152600f83522054604051908152f35b50346101cf57806003193601126101cf576020600754604051908152f35b50346101cf57806003193601126101cf576003546040516001600160a01b039091168152602090f35b9050346104c657816003193601126104c6576020906014548152f35b9060206003198301126108605760043567ffffffffffffffff811161086057826023820112156108605780600401359267ffffffffffffffff84116108605760248483010111610860576024019190565b6040906003190112610860576004359060243590565b919082519283825260005b848110611883575050826000602080949584010152601f8019910116010190565b80602080928401015182828601015201611862565b600435906001600160a01b038216820361086057565b6060810190811067ffffffffffffffff8211176118ca57604052565b634e487b7160e01b600052604160045260246000fd5b90601f8019910116810190811067ffffffffffffffff8211176118ca57604052565b90816020910312610860575180151581036108605790565b3d15611955573d9067ffffffffffffffff82116118ca5760405191611949601f8201601f1916602001846118e0565b82523d6000602084013e565b606090565b1561196157565b60405162461bcd60e51b8152602060048201526014602482015273111958591b1a5b99481b9bdd081c995858da195960621b6044820152606490fd5b818102929181159184041417156119b057565b634e487b7160e01b600052601160045260246000fd5b919082039182116119b057565b156119da57565b60405162461bcd60e51b815260206004820152600f60248201526e151c985b9cd9995c8819985a5b1959608a1b6044820152606490fd5b919082018092116119b057565b15611a2557565b60405162461bcd60e51b8152602060048201526014602482015273115e18d959591cc81cdd5c1c1b1e481b1a5b5a5d60621b6044820152606490fd5b6000546001600160a01b03163303611a7557565b63118cdaa760e01b6000523360045260246000fd5b600260015414611a9b576002600155565b633ee5aeb560e01b60005260046000fd5b60ff60005460a01c16611abb57565b63d93c066560e01b60005260046000fd5b6002546040516370a0823160e01b8152306004820152906001600160a01b0316602082602481845afa918215611b9757600092611bde575b508115611ba3576004805460405163a9059cbb60e01b81526001600160a01b03909116918101919091526024810183905290602090829060449082906000905af18015611b9757611b5c9160009161058c57506119d3565b6004546040519182526001600160a01b0316907f221c08a06b07a64803b3787861a3f276212fcccb51c2e6234077a9b8cb13047a90602090a2565b6040513d6000823e3d90fd5b60405162461bcd60e51b81526020600482015260136024820152724e6f2066756e647320746f2072656c6561736560681b6044820152606490fd5b90916020823d602011611c0a575b81611bf9602093836118e0565b810103126101cf5750519038611b04565b3d9150611bec56fea26469706673582212209e80afd7dc2b98a179314652a1f4fb1febbab6f90566fe1bf1c859d449e2a44564736f6c634300081b0033a26469706673582212200ff324eea36f7059c0e4a25dab6aaf04127164641856c76fc23ef5660738dd5164736f6c634300081b0033",
  "linkReferences": {},
  "deployedLinkReferences": {}
}