{
  "_format": "hh-sol-artifact-1",
  "contractName": "ProductToken",
  "sourceName": "contracts/ProductToken.sol",
  "abi": [
    {
      "inputs": [
        {
          "internalType": "string",
          "name": "baseUri",
          "type": "string"
        }
      ],
      "stateMutability": "nonpayable",
      "type": "constructor"
    },
    {
      "inputs": [],
      "name": "AccessControlBadConfirmation",
      "type": "error"
    },
    {
      "inputs": [
        {
          "internalType": "address",
          "name": "account",
          "type": "address"
        },
        {
          "internalType": "bytes32",
          "name": "neededRole",
          "type": "bytes32"
        }
      ],
      "name": "AccessControlUnauthorizedAccount",
      "type": "error"
    },
    {
      "inputs": [
        {
          "internalType": "address",
          "name": "sender",
          "type": "address"
        },
        {
          "internalType": "uint256",
          "name": "balance",
          "type": "uint256"
        },
        {
          "internalType": "uint256",
          "name": "needed",
          "type": "uint256"
        },
        {
          "internalType": "uint256",
          "name": "tokenId",
          "type": "uint256"
        }
      ],
      "name": "ERC1155InsufficientBalance",
      "type": "error"
    },
    {
      "inputs": [
        {
          "internalType": "address",
          "name": "approver",
          "type": "address"
        }
      ],
      "name": "ERC1155InvalidApprover",
      "type": "error"
    },
    {
      "inputs": [
        {
          "internalType": "uint256",
          "name": "idsLength",
          "type": "uint256"
        },
        {
          "internalType": "uint256",
          "name": "valuesLength",
          "type": "uint256"
        }
      ],
      "name": "ERC1155InvalidArrayLength",
      "type": "error"
    },
    {
      "inputs": [
        {
          "internalType": "address",
          "name": "operator",
          "type": "address"
        }
      ],
      "name": "ERC1155InvalidOperator",
      "type": "error"
    },
    {
      "inputs": [
        {
          "internalType": "address",
          "name": "receiver",
          "type": "address"
        }
      ],
      "name": "ERC1155InvalidReceiver",
      "type": "error"
    },
    {
      "inputs": [
        {
          "internalType": "address",
          "name": "sender",
          "type": "address"
        }
      ],
      "name": "ERC1155InvalidSender",
      "type": "error"
    },
    {
      "inputs": [
        {
          "internalType": "address",
          "name": "operator",
          "type": "address"
        },
        {
          "internalType": "address",
          "name": "owner",
          "type": "address"
        }
      ],
      "name": "ERC1155MissingApprovalForAll",
      "type": "error"
    },
    {
      "anonymous": false,
      "inputs": [
        {
          "indexed": true,
          "internalType": "address",
          "name": "account",
          "type": "address"
        },
        {
          "indexed": true,
          "internalType": "address",
          "name": "operator",
          "type": "address"
        },
        {
          "indexed": false,
          "internalType": "bool",
          "name": "approved",
          "type": "bool"
        }
      ],
      "name": "ApprovalForAll",
      "type": "event"
    },
    {
      "anonymous": false,
      "inputs": [
        {
          "indexed": false,
          "internalType": "string",
          "name": "newUri",
          "type": "string"
        }
      ],
      "name": "BaseURIUpdated",
      "type": "event"
    },
    {
      "anonymous": false,
      "inputs": [
        {
          "indexed": true,
          "internalType": "address",
          "name": "from",
          "type": "address"
        },
        {
          "indexed": true,
          "internalType": "uint256",
          "name": "productId",
          "type": "uint256"
        },
        {
          "indexed": false,
          "internalType": "uint256",
          "name": "amount",
          "type": "uint256"
        }
      ],
      "name": "ProductBurned",
      "type": "event"
    },
    {
      "anonymous": false,
      "inputs": [
        {
          "indexed": true,
          "internalType": "address",
          "name": "to",
          "type": "address"
        },
        {
          "indexed": true,
          "internalType": "uint256",
          "name": "productId",
          "type": "uint256"
        },
        {
          "indexed": false,
          "internalType": "uint256",
          "name": "amount",
          "type": "uint256"
        }
      ],
      "name": "ProductMinted",
      "type": "event"
    },
    {
      "anonymous": false,
      "inputs": [
        {
          "indexed": true,
          "internalType": "bytes32",
          "name": "role",
          "type": "bytes32"
        },
        {
          "indexed": true,
          "internalType": "bytes32",
          "name": "previousAdminRole",
          "type": "bytes32"
        },
        {
          "indexed": true,
          "internalType": "bytes32",
          "name": "newAdminRole",
          "type": "bytes32"
        }
      ],
      "name": "RoleAdminChanged",
      "type": "event"
    },
    {
      "anonymous": false,
      "inputs": [
        {
          "indexed": true,
          "internalType": "bytes32",
          "name": "role",
          "type": "bytes32"
        },
        {
          "indexed": true,
          "internalType": "address",
          "name": "account",
          "type": "address"
        },
        {
          "indexed": true,
          "internalType": "address",
          "name": "sender",
          "type": "address"
        }
      ],
      "name": "RoleGranted",
      "type": "event"
    },
    {
      "anonymous": false,
      "inputs": [
        {
          "indexed": true,
          "internalType": "bytes32",
          "name": "role",
          "type": "bytes32"
        },
        {
          "indexed": true,
          "internalType": "address",
          "name": "account",
          "type": "address"
        },
        {
          "indexed": true,
          "internalType": "address",
          "name": "sender",
          "type": "address"
        }
      ],
      "name": "RoleRevoked",
      "type": "event"
    },
    {
      "anonymous": false,
      "inputs": [
        {
          "indexed": true,
          "internalType": "address",
          "name": "operator",
          "type": "address"
        },
        {
          "indexed": true,
          "internalType": "address",
          "name": "from",
          "type": "address"
        },
        {
          "indexed": true,
          "internalType": "address",
          "name": "to",
          "type": "address"
        },
        {
          "indexed": false,
          "internalType": "uint256[]",
          "name": "ids",
          "type": "uint256[]"
        },
        {
          "indexed": false,
          "internalType": "uint256[]",
          "name": "values",
          "type": "uint256[]"
        }
      ],
      "name": "TransferBatch",
      "type": "event"
    },
    {
      "anonymous": false,
      "inputs": [
        {
          "indexed": true,
          "internalType": "address",
          "name": "operator",
          "type": "address"
        },
        {
          "indexed": true,
          "internalType": "address",
          "name": "from",
          "type": "address"
        },
        {
          "indexed": true,
          "internalType": "address",
          "name": "to",
          "type": "address"
        },
        {
          "indexed": false,
          "internalType": "uint256",
          "name": "id",
          "type": "uint256"
        },
        {
          "indexed": false,
          "internalType": "uint256",
          "name": "value",
          "type": "uint256"
        }
      ],
      "name": "TransferSingle",
      "type": "event"
    },
    {
      "anonymous": false,
      "inputs": [
        {
          "indexed": false,
          "internalType": "string",
          "name": "value",
          "type": "string"
        },
        {
          "indexed": true,
          "internalType": "uint256",
          "name": "id",
          "type": "uint256"
        }
      ],
      "name": "URI",
      "type": "event"
    },
    {
      "inputs": [],
      "name": "DEFAULT_ADMIN_ROLE",
      "outputs": [
        {
          "internalType": "bytes32",
          "name": "",
          "type": "bytes32"
        }
      ],
      "stateMutability": "view",
      "type": "function"
    },
    {
      "inputs": [],
      "name": "MINTER_ROLE",
      "outputs": [
        {
          "internalType": "bytes32",
          "name": "",
          "type": "bytes32"
        }
      ],
      "stateMutability": "view",
      "type": "function"
    },
    {
      "inputs": [
        {
          "internalType": "address",
          "name": "account",
          "type": "address"
        },
        {
          "internalType": "uint256",
          "name": "id",
          "type": "uint256"
        }
      ],
      "name": "balanceOf",
      "outputs": [
        {
          "internalType": "uint256",
          "name": "",
          "type": "uint256"
        }
      ],
      "stateMutability": "view",
      "type": "function"
    },
    {
      "inputs": [
        {
          "internalType": "address[]",
          "name": "accounts",
          "type": "address[]"
        },
        {
          "internalType": "uint256[]",
          "name": "ids",
          "type": "uint256[]"
        }
      ],
      "name": "balanceOfBatch",
      "outputs": [
        {
          "internalType": "uint256[]",
          "name": "",
          "type": "uint256[]"
        }
      ],
      "stateMutability": "view",
      "type": "function"
    },
    {
      "inputs": [
        {
          "internalType": "address",
          "name": "from",
          "type": "address"
        },
        {
          "internalType": "uint256",
          "name": "productId",
          "type": "uint256"
        },
        {
          "internalType": "uint256",
          "name": "amount",
          "type": "uint256"
        }
      ],
      "name": "burn",
      "outputs": [],
      "stateMutability": "nonpayable",
      "type": "function"
    },
    {
      "inputs": [],
      "name": "getProductIds",
      "outputs": [
        {
          "internalType": "uint256[]",
          "name": "",
          "type": "uint256[]"
        }
      ],
      "stateMutability": "view",
      "type": "function"
    },
    {
      "inputs": [
        {
          "internalType": "bytes32",
          "name": "role",
          "type": "bytes32"
        }
      ],
      "name": "getRoleAdmin",
      "outputs": [
        {
          "internalType": "bytes32",
          "name": "",
          "type": "bytes32"
        }
      ],
      "stateMutability": "view",
      "type": "function"
    },
    {
      "inputs": [
        {
          "internalType": "bytes32",
          "name": "role",
          "type": "bytes32"
        },
        {
          "internalType": "address",
          "name": "account",
          "type": "address"
        }
      ],
      "name": "grantRole",
      "outputs": [],
      "stateMutability": "nonpayable",
      "type": "function"
    },
    {
      "inputs": [
        {
          "internalType": "bytes32",
          "name": "role",
          "type": "bytes32"
        },
        {
          "internalType": "address",
          "name": "account",
          "type": "address"
        }
      ],
      "name": "hasRole",
      "outputs": [
        {
          "internalType": "bool",
          "name": "",
          "type": "bool"
        }
      ],
      "stateMutability": "view",
      "type": "function"
    },
    {
      "inputs": [
        {
          "internalType": "address",
          "name": "account",
          "type": "address"
        },
        {
          "internalType": "address",
          "name": "operator",
          "type": "address"
        }
      ],
      "name": "isApprovedForAll",
      "outputs": [
        {
          "internalType": "bool",
          "name": "",
          "type": "bool"
        }
      ],
      "stateMutability": "view",
      "type": "function"
    },
    {
      "inputs": [
        {
          "internalType": "address",
          "name": "to",
          "type": "address"
        },
        {
          "internalType": "uint256",
          "name": "productId",
          "type": "uint256"
        },
        {
          "internalType": "uint256",
          "name": "amount",
          "type": "uint256"
        }
      ],
      "name": "mint",
      "outputs": [],
      "stateMutability": "nonpayable",
      "type": "function"
    },
    {
      "inputs": [
        {
          "internalType": "uint256",
          "name": "productId",
          "type": "uint256"
        }
      ],
      "name": "productSupply",
      "outputs": [
        {
          "internalType": "uint256",
          "name": "",
          "type": "uint256"
        }
      ],
      "stateMutability": "view",
      "type": "function"
    },
    {
      "inputs": [
        {
          "internalType": "bytes32",
          "name": "role",
          "type": "bytes32"
        },
        {
          "internalType": "address",
          "name": "callerConfirmation",
          "type": "address"
        }
      ],
      "name": "renounceRole",
      "outputs": [],
      "stateMutability": "nonpayable",
      "type": "function"
    },
    {
      "inputs": [
        {
          "internalType": "bytes32",
          "name": "role",
          "type": "bytes32"
        },
        {
          "internalType": "address",
          "name": "account",
          "type": "address"
        }
      ],
      "name": "revokeRole",
      "outputs": [],
      "stateMutability": "nonpayable",
      "type": "function"
    },
    {
      "inputs": [
        {
          "internalType": "address",
          "name": "from",
          "type": "address"
        },
        {
          "internalType": "address",
          "name": "to",
          "type": "address"
        },
        {
          "internalType": "uint256[]",
          "name": "ids",
          "type": "uint256[]"
        },
        {
          "internalType": "uint256[]",
          "name": "values",
          "type": "uint256[]"
        },
        {
          "internalType": "bytes",
          "name": "data",
          "type": "bytes"
        }
      ],
      "name": "safeBatchTransferFrom",
      "outputs": [],
      "stateMutability": "nonpayable",
      "type": "function"
    },
    {
      "inputs": [
        {
          "internalType": "address",
          "name": "from",
          "type": "address"
        },
        {
          "internalType": "address",
          "name": "to",
          "type": "address"
        },
        {
          "internalType": "uint256",
          "name": "id",
          "type": "uint256"
        },
        {
          "internalType": "uint256",
          "name": "value",
          "type": "uint256"
        },
        {
          "internalType": "bytes",
          "name": "data",
          "type": "bytes"
        }
      ],
      "name": "safeTransferFrom",
      "outputs": [],
      "stateMutability": "nonpayable",
      "type": "function"
    },
    {
      "inputs": [
        {
          "internalType": "address",
          "name": "operator",
          "type": "address"
        },
        {
          "internalType": "bool",
          "name": "approved",
          "type": "bool"
        }
      ],
      "name": "setApprovalForAll",
      "outputs": [],
      "stateMutability": "nonpayable",
      "type": "function"
    },
    {
      "inputs": [
        {
          "internalType": "string",
          "name": "newUri",
          "type": "string"
        }
      ],
      "name": "setBaseURI",
      "outputs": [],
      "stateMutability": "nonpayable",
      "type": "function"
    },
    {
      "inputs": [
        {
          "internalType": "bytes4",
          "name": "interfaceId",
          "type": "bytes4"
        }
      ],
      "name": "supportsInterface",
      "outputs": [
        {
          "internalType": "bool",
          "name": "",
          "type": "bool"
        }
      ],
      "stateMutability": "view",
      "type": "function"
    },
    {
      "inputs": [
        {
          "internalType": "uint256",
          "name": "tokenId",
          "type": "uint256"
        }
      ],
      "name": "uri",
      "outputs": [
        {
          "internalType": "string",
          "name": "",
          "type": "string"
        }
      ],
      "stateMutability": "view",
      "type": "function"
    }
  ],
  "bytecode": "0x6080604052346102a5576000612252908138038061001c816102aa565b9384398201916020818403126102a1578051906001600160401b038211610289570182601f820112156102a1578051906001600160401b03821161028d5761006d601f8301601f19166020016102aa565b938285526020838301011161028957908291825b828110610272575050602090840101526020908061009e836102aa565b5250600254600181811c91168015610268575b8282101461020557601f811161023b575b5060006002558151906001600160401b03821161022557600754600181811c9116801561021b575b8282101461020557601f81116101be575b5080601f83116001146101575750819260009261014c575b50508160011b916000199060031b1c1916176007555b610132336102cf565b5061013c3361034b565b50604051611e0e90816103e48239f35b015190503880610113565b90601f19831693600760005282600020926000905b8682106101a6575050836001951061018d575b505050811b01600755610129565b015160001960f88460031b161c1916905538808061017f565b8060018596829496860151815501950193019061016c565b600760005281600020601f840160051c8101918385106101fb575b601f0160051c01905b8181106101ef57506100fb565b600081556001016101e2565b90915081906101d9565b634e487b7160e01b600052602260045260246000fd5b90607f16906100ea565b634e487b7160e01b600052604160045260246000fd5b6002600052601f82600020910160051c8101905b81811061025c57506100c2565b6000815560010161024f565b90607f16906100b1565b602082820181015187830182015285945001610081565b8280fd5b634e487b7160e01b83526041600452602483fd5b5080fd5b600080fd5b6040519190601f01601f191682016001600160401b0381118382101761022557604052565b6001600160a01b0381166000908152600080516020612232833981519152602052604090205460ff16610345576001600160a01b0316600081815260008051602061223283398151915260205260408120805460ff191660011790553391906000805160206121f28339815191528180a4600190565b50600090565b6001600160a01b0381166000908152600080516020612212833981519152602052604090205460ff16610345576001600160a01b0316600081815260008051602061221283398151915260205260408120805460ff191660011790553391907f9f2df0fed2c77648de5860a4cc508cd0818c85b8b8a1ab4ceeef8d981c8956a6906000805160206121f28339815191529080a460019056fe6080604052600436101561001257600080fd5b60003560e01c8062fdd58e1461015657806301ffc9a7146101515780630e89341c1461014c578063156e29f614610147578063248a9ca3146101425780632eb2c2d61461013d5780632f2ff15d1461013857806336568abe1461013357806347428e7b1461012e5780634e1273f41461012957806355f804b31461012457806391d148541461011f578063a217fddf1461011a578063a22cb46514610115578063d539139314610110578063d547741f1461010b578063e985e9c514610106578063ef8593e714610101578063f242432a146100fc5763f5298aca146100f757600080fd5b610f29565b610e19565b610dc8565b610d77565b610d37565b610cfc565b610c43565b610c27565b610bd4565b610a0b565b610956565b6108d3565b610848565b610803565b610774565b610624565b6104c7565b6102e4565b6101ff565b6101a0565b600435906001600160a01b038216820361017157565b600080fd5b602435906001600160a01b038216820361017157565b35906001600160a01b038216820361017157565b346101715760403660031901126101715760206101e46101be61015b565b6024356000526000835260406000209060018060a01b0316600052602052604060002090565b54604051908152f35b6001600160e01b031981160361017157565b346101715760203660031901126101715760043561021c816101ed565b63ffffffff60e01b16637965db0b60e01b8114908115610245575b506040519015158152602090f35b636cdb3d1360e11b811491508115610277575b8115610266575b5038610237565b6301ffc9a760e01b1490503861025f565b6303a24d0760e21b81149150610258565b60005b83811061029b5750506000910152565b818101518382015260200161028b565b906020916102c481518092818552858086019101610288565b601f01601f1916010190565b9060206102e19281815201906102ab565b90565b346101715760203660031901126101715760006004358072184f03e93ff9f4daa797ed6e38ed64bf6a1f0160401b81101561047a575b806d04ee2d6d415b85acef8100000000600a92101561045e575b662386f26fc10000811015610449575b6305f5e100811015610437575b612710811015610427575b6064811015610418575b101561040d575b6103aa602161037e6001850161142a565b938401015b60001901916f181899199a1a9b1b9c1cb0b131b232b360811b600a82061a8353600a900490565b9081156103ba576103aa90610383565b604051610409906103fd816103ef6103de886103d860208501611053565b906110dc565b64173539b7b760d91b815260050190565b03601f19810183528261066f565b604051918291826102d0565b0390f35b60019091019061036d565b60029060649004930192610366565b600490612710900493019261035c565b6008906305f5e1009004930192610351565b601090662386f26fc100009004930192610344565b6020906d04ee2d6d415b85acef81000000009004930192610334565b506040915072184f03e93ff9f4daa797ed6e38ed64bf6a1f0160401b810461031a565b6060906003190112610171576004356001600160a01b038116810361017157906024359060443590565b34610171576104d53661049d565b90916104df61145c565b6104ea8315156110f3565b6104f5821515611134565b82600052600660205260ff6040600020541615610585575b6105807f1ace3364065011f2a2f041ccf777c9f5394104fb5c15ec40e2ed753531e33b2191610546856000526004602052604060002090565b61055185825461119d565b905561056661055e6111af565b85878461155e565b6040519384526001600160a01b0316929081906020820190565b0390a3005b6005546801000000000000000081101561061f57600181018060055581101561061a577f036b6384b5eca791c62761152d0c79bb0604c104a5fb6f4eb0703f3154bb3db00183905560008381526006602052604090207f1ace3364065011f2a2f041ccf777c9f5394104fb5c15ec40e2ed753531e33b21916105809161061290805460ff19166001179055565b91505061050d565b611171565b610659565b34610171576020366003190112610171576020610651600435600052600360205260016040600020015490565b604051908152f35b634e487b7160e01b600052604160045260246000fd5b90601f8019910116810190811067ffffffffffffffff82111761061f57604052565b67ffffffffffffffff811161061f5760051b60200190565b9080601f830112156101715781356106c081610691565b926106ce604051948561066f565b81845260208085019260051b82010192831161017157602001905b8282106106f65750505090565b81358152602091820191016106e9565b67ffffffffffffffff811161061f57601f01601f191660200190565b92919261072e82610706565b9161073c604051938461066f565b829481845281830111610171578281602093846000960137010152565b9080601f83011215610171578160206102e193359101610722565b346101715760a03660031901126101715761078d61015b565b610795610176565b9060443567ffffffffffffffff8111610171576107b69036906004016106a9565b60643567ffffffffffffffff8111610171576107d69036906004016106a9565b906084359367ffffffffffffffff8511610171576107fb610801953690600401610759565b936111c4565b005b3461017157604036600319011261017157610801600435610822610176565b9061084361083e82600052600360205260016040600020015490565b611521565b6116c2565b3461017157604036600319011261017157600435610864610176565b336001600160a01b0382160361087d5761080191611756565b63334bd91960e11b60005260046000fd5b906020808351928381520192019060005b8181106108ac5750505090565b825184526020938401939092019160010161089f565b9060206102e192818152019061088e565b346101715760003660031901126101715760405180602060055491828152019060056000527f036b6384b5eca791c62761152d0c79bb0604c104a5fb6f4eb0703f3154bb3db09060005b81811061094057610409856109348187038261066f565b604051918291826108c2565b825484526020909301926001928301920161091d565b346101715760403660031901126101715760043567ffffffffffffffff811161017157366023820112156101715780600401359061099382610691565b916109a1604051938461066f565b8083526024602084019160051b8301019136831161017157602401905b8282106109f3578360243567ffffffffffffffff811161017157610409916109ed6109349236906004016106a9565b90611237565b60208091610a008461018c565b8152019101906109be565b346101715760203660031901126101715760043567ffffffffffffffff8111610171573660238201121561017157610a4d903690602481600401359101610722565b610a556114ce565b805115610b9c57805167ffffffffffffffff811161061f57610a8181610a7c600754611019565b6112ef565b6020601f8211600114610af45791610ad582610ae4937f6741b2fc379fad678116fe3d4d4b9a1a184ab53ba36b86ad0fa66340b1ab41ad95600091610ae9575b508160011b916000199060031b1c19161790565b600755604051918291826102d0565b0390a1005b905083015138610ac1565b6007600052601f198216907fa66cc928b5edb82af9bd49922954155ab7b0942694bea4ce44661d9a8736c6889160005b818110610b845750927f6741b2fc379fad678116fe3d4d4b9a1a184ab53ba36b86ad0fa66340b1ab41ad949260019282610ae49610610b6b575b5050811b016007556103fd565b84015160001960f88460031b161c191690553880610b5e565b91926020600181928689015181550194019201610b24565b60405162461bcd60e51b815260206004820152601060248201526f496e76616c696420626173652055524960801b6044820152606490fd5b3461017157604036600319011261017157602060ff610c1b600435610bf7610176565b906000526003845260406000209060018060a01b0316600052602052604060002090565b54166040519015158152f35b3461017157600036600319011261017157602060405160008152f35b3461017157604036600319011261017157610c5c61015b565b6024359081151590818303610171576001600160a01b038116928315610ce757610ca8610cb99233600052600160205260406000209060018060a01b0316600052602052604060002090565b9060ff801983541691151516179055565b6040519081527f17307eab39ab6107e8899845ad3d59bd9653f200f220920489ca2b5937696c3160203392a3005b62ced3e160e81b600052600060045260246000fd5b346101715760003660031901126101715760206040517f9f2df0fed2c77648de5860a4cc508cd0818c85b8b8a1ab4ceeef8d981c8956a68152f35b3461017157604036600319011261017157610801600435610d56610176565b90610d7261083e82600052600360205260016040600020015490565b611756565b3461017157604036600319011261017157602060ff610c1b610d9761015b565b610d9f610176565b6001600160a01b0391821660009081526001865260408082209290931681526020919091522090565b3461017157602036600319011261017157600435610de78115156110f3565b806000526006602052610e0160ff60406000205416611342565b60005260046020526020604060002054604051908152f35b346101715760a036600319011261017157610e3261015b565b610e3a610176565b604435906064359260843567ffffffffffffffff811161017157610e62903690600401610759565b926001600160a01b0382163381141580610f05575b610eed576001600160a01b03841615610ed75715610ec25761080194610eba60405192600184526020840152604083019160018352606084015260808301604052565b929091611965565b626a0d4560e21b600052600060045260246000fd5b632bfa23e760e11b600052600060045260246000fd5b63711bec9160e11b6000523360045260245260446000fd5b50600081815260016020908152604080832033845290915290205460ff1615610e77565b34610171576105807fd215b5584879caeecb087ed93b0d4013d83ced647fd0a905f4f54a948cf0eb8d610f5b3661049d565b9291610f6894919461145c565b610f738515156110f3565b610f7e841515611134565b846000526006602052610f9860ff60406000205416611342565b846000526004602052610fb260406000205485111561138e565b610fed84610fe583610fce896000526000602052604060002090565b9060018060a01b0316600052602052604060002090565b5410156113da565b611001856000526004602052604060002090565b61100c85825461141d565b90556105668486836117e1565b90600182811c92168015611049575b602083101461103357565b634e487b7160e01b600052602260045260246000fd5b91607f1691611028565b6007546000929161106382611019565b91600181169081156110ca575060011461107b575050565b6007600090815292935090917fa66cc928b5edb82af9bd49922954155ab7b0942694bea4ce44661d9a8736c6885b8382106110b65750500190565b6001816020925484860152019101906110a9565b60ff1916825250811515909102019150565b906110ef60209282815194859201610288565b0190565b156110fa57565b60405162461bcd60e51b8152602060048201526012602482015271125b9d985b1a59081c1c9bd91d58dd08125160721b6044820152606490fd5b1561113b57565b60405162461bcd60e51b815260206004820152600e60248201526d125b9d985b1a5908185b5bdd5b9d60921b6044820152606490fd5b634e487b7160e01b600052603260045260246000fd5b634e487b7160e01b600052601160045260246000fd5b919082018092116111aa57565b611187565b604051906111be60208361066f565b60008252565b939291906001600160a01b03851633811415806111ff575b610eed576001600160a01b03821615610ed75715610ec2576111fd94611965565b565b50600081815260016020908152604080832033845290915290205460ff16156111dc565b805182101561061a5760209160051b010190565b919091805183518082036112d857505080519061125382610691565b91611261604051938461066f565b808352611270601f1991610691565b0136602084013760005b81518110156112d157806112c060019260051b60208082870101519189010151906000918252602082815260408084206001600160a01b03909316845291905290205490565b6112ca8286611223565b520161127a565b5090925050565b635b05999160e01b60005260045260245260446000fd5b601f81116112fb575050565b60076000526020600020906020601f840160051c83019310611338575b601f0160051c01905b81811061132c575050565b60008155600101611321565b9091508190611318565b1561134957565b60405162461bcd60e51b815260206004820152601960248201527f50726f6475637420494420646f6573206e6f74206578697374000000000000006044820152606490fd5b1561139557565b60405162461bcd60e51b815260206004820152601a60248201527f4275726e20616d6f756e74206578636565647320737570706c790000000000006044820152606490fd5b156113e157565b60405162461bcd60e51b8152602060048201526014602482015273496e73756666696369656e742062616c616e636560601b6044820152606490fd5b919082039182116111aa57565b9061143482610706565b611441604051918261066f565b8281528092611452601f1991610706565b0190602036910137565b3360009081527f5562e70da342db81569f3094d36be279beaca7ad8e08f434ea188e79d2bfe10c602052604090205460ff161561149557565b63e2517d3f60e01b600052336004527f9f2df0fed2c77648de5860a4cc508cd0818c85b8b8a1ab4ceeef8d981c8956a660245260446000fd5b3360009081527f3617319a054d772f909f7c479a2cebe5066e836a939412e32403c99029b92eff602052604090205460ff161561150757565b63e2517d3f60e01b60005233600452600060245260446000fd5b600081815260036020908152604080832033845290915290205460ff16156115465750565b63e2517d3f60e01b6000523360045260245260446000fd5b6001600160a01b03811693929091908415610ed75761159a60405192600184526020840152604083019160018352606084015260808301604052565b9281518451908181036116ab57505060005b82518110156115f4578060019160051b6115ec6115e487610fce602080868b010151958c010151946000526000602052604060002090565b91825461119d565b9055016115ac565b50929193600182511460001461166f5760208281015184820151604080519283529282015260009133917fc3d58168c5ae7397731d063d5bbf3d657854427343f4c083240f7aacaa2d0f629190a45b805160010361166357906020806111fd9593015191015191600033611d38565b6111fd93600033611c03565b60006040517f4a39dc06d4c0dbc64b70af90fd698a233a518aa5d07e595d983b8c0526c8f7fb3391806116a3888883611b46565b0390a4611643565b635b05999160e01b60005260045260245260446000fd5b60008181526003602090815260408083206001600160a01b038616845290915290205460ff1661174f5760008181526003602090815260408083206001600160a01b03861684529091529020805460ff1916600117905533916001600160a01b0316907f2f8788117e7eff1d82e926ec794901d17c78024a50270940304540a733656f0d600080a4600190565b5050600090565b60008181526003602090815260408083206001600160a01b038616845290915290205460ff161561174f5760008181526003602090815260408083206001600160a01b03861684529091529020805460ff1916905533916001600160a01b0316907ff6391f5c32d9c69d2a47ea670b442974b53935d1edc7fd64eb21e047a839171b600080a4600190565b926001600160a01b038416929091908315610ec25761181d60405192600184526020840152604083019160018352606084015260808301604052565b91906020916000604051611831858261066f565b5281518451908181036116ab57505060005b82518110156118d9578060051b84808286010151918701015161187489610fce846000526000602052604060002090565b548181106118a25789610fce600195949361189b9303936000526000602052604060002090565b5501611843565b6040516303dee4c560e01b81526001600160a01b038b16600482015260248101919091526044810182905260648101839052608490fd5b50945090916000939260018351148514611931579182015191015160408051928352602083019190915233917fc3d58168c5ae7397731d063d5bbf3d657854427343f4c083240f7aacaa2d0f6291819081015b0390a4565b5061192c7f4a39dc06d4c0dbc64b70af90fd698a233a518aa5d07e595d983b8c0526c8f7fb91604051918291339583611b46565b94939290919384518251908181036116ab5750506001600160a01b0386811695861515959185168015159391929060005b8451811015611a78578060051b90898988602080868b010151958c010151926119f1575b936001946119cc575b50505001611996565b6119e791610fce6115e4926000526000602052604060002090565b90553889816119c3565b50509091611a0d8d610fce836000526000602052604060002090565b54828110611a41578291898f611a38600197968f950391610fce856000526000602052604060002090565b559094506119ba565b6040516303dee4c560e01b81526001600160a01b038f16600482015260248101919091526044810183905260648101829052608490fd5b509198959392979096506001885114600014611b0c5760208881015186820151604080519283529282015233917fc3d58168c5ae7397731d063d5bbf3d657854427343f4c083240f7aacaa2d0f6291a45b611ad5575b5050505050565b8451600103611afb57602080611af19601519201519233611d38565b3880808080611ace565b611b0794919233611c03565b611af1565b6040517f4a39dc06d4c0dbc64b70af90fd698a233a518aa5d07e595d983b8c0526c8f7fb339180611b3e898d83611b46565b0390a4611ac9565b9091611b5d6102e19360408452604084019061088e565b91602081840391015261088e565b9081602091031261017157516102e1816101ed565b6001600160a01b0391821681529116602082015260a0604082018190526102e19491939192611bc59291611bb7919086019061088e565b90848203606086015261088e565b9160808184039101526102ab565b3d15611bfe573d90611be482610706565b91611bf2604051938461066f565b82523d6000602084013e565b606090565b9091949293853b611c17575b505050505050565b602093611c3991604051968795869563bc197c8160e01b875260048701611b80565b038160006001600160a01b0387165af160009181611cce575b50611c8e5750611c60611bd3565b8051919082611c8757632bfa23e760e11b6000526001600160a01b03821660045260246000fd5b9050602001fd5b6001600160e01b0319166343e6837f60e01b01611cb15750388080808080611c0f565b632bfa23e760e11b6000526001600160a01b031660045260246000fd5b611cf191925060203d602011611cf8575b611ce9818361066f565b810190611b6b565b9038611c52565b503d611cdf565b6001600160a01b039182168152911660208201526040810191909152606081019190915260a0608082018190526102e1929101906102ab565b9091949293853b611d4b57505050505050565b602093611d6d91604051968795869563f23a6e6160e01b875260048701611cff565b038160006001600160a01b0387165af160009181611db7575b50611d945750611c60611bd3565b6001600160e01b031916630dc5919f60e01b01611cb15750388080808080611c0f565b611dd191925060203d602011611cf857611ce9818361066f565b9038611d8656fea2646970667358221220a084ee8bfd21d8e782bbc405045b1a2256b581c8cd280d4cae17486e08b38cf964736f6c634300081b00332f8788117e7eff1d82e926ec794901d17c78024a50270940304540a733656f0d5562e70da342db81569f3094d36be279beaca7ad8e08f434ea188e79d2bfe10c3617319a054d772f909f7c479a2cebe5066e836a939412e32403c99029b92eff",
  "linkReferences": {},
  "deployedLinkReferences": {}
}